{"contracts/CrossSyncGateway.sol":{"CrossSyncGateway":{"abi":[{"inputs":[],"stateMutability":"nonpayable","type":"constructor"},{"anonymous":false,"inputs":[{"indexed":false,"internalType":"address","name":"previousAdmin","type":"address"},{"indexed":false,"internalType":"address","name":"newAdmin","type":"address"}],"name":"AdminChanged","type":"event"},{"anonymous":false,"inputs":[{"indexed":true,"internalType":"address","name":"beacon","type":"address"}],"name":"BeaconUpgraded","type":"event"},{"anonymous":false,"inputs":[],"name":"EIP712DomainChanged","type":"event"},{"anonymous":false,"inputs":[{"indexed":false,"internalType":"uint8","name":"version","type":"uint8"}],"name":"Initialized","type":"event"},{"anonymous":false,"inputs":[{"indexed":true,"internalType":"address","name":"previousOwner","type":"address"},{"indexed":true,"internalType":"address","name":"newOwner","type":"address"}],"name":"OwnershipTransferred","type":"event"},{"anonymous":false,"inputs":[{"indexed":false,"internalType":"address","name":"account","type":"address"}],"name":"Paused","type":"event"},{"anonymous":false,"inputs":[{"indexed":true,"internalType":"bytes32","name":"role","type":"bytes32"},{"indexed":true,"internalType":"bytes32","name":"previousAdminRole","type":"bytes32"},{"indexed":true,"internalType":"bytes32","name":"newAdminRole","type":"bytes32"}],"name":"RoleAdminChanged","type":"event"},{"anonymous":false,"inputs":[{"indexed":true,"internalType":"bytes32","name":"role","type":"bytes32"},{"indexed":true,"internalType":"address","name":"account","type":"address"},{"indexed":true,"internalType":"address","name":"sender","type":"address"}],"name":"RoleGranted","type":"event"},{"anonymous":false,"inputs":[{"indexed":true,"internalType":"bytes32","name":"role","type":"bytes32"},{"indexed":true,"internalType":"address","name":"account","type":"address"},{"indexed":true,"internalType":"address","name":"sender","type":"address"}],"name":"RoleRevoked","type":"event"},{"anonymous":false,"inputs":[{"indexed":false,"internalType":"address","name":"from","type":"address"},{"indexed":false,"internalType":"uint256","name":"amount","type":"uint256"},{"indexed":false,"internalType":"address","name":"feeAddress","type":"address"},{"indexed":true,"internalType":"uint256","name":"destinationChainId","type":"uint256"},{"indexed":true,"internalType":"uint256","name":"routeId","type":"uint256"},{"indexed":false,"internalType":"uint256","name":"gasLimit","type":"uint256"}],"name":"SyncFeeCollected","type":"event"},{"anonymous":false,"inputs":[{"indexed":false,"internalType":"address","name":"account","type":"address"}],"name":"Unpaused","type":"event"},{"anonymous":false,"inputs":[{"indexed":true,"internalType":"address","name":"implementation","type":"address"}],"name":"Upgraded","type":"event"},{"inputs":[],"name":"ADMIN_ROLE","outputs":[{"internalType":"bytes32","name":"","type":"bytes32"}],"stateMutability":"view","type":"function"},{"inputs":[],"name":"DEFAULT_ADMIN_ROLE","outputs":[{"internalType":"bytes32","name":"","type":"bytes32"}],"stateMutability":"view","type":"function"},{"inputs":[],"name":"PAUSER_ROLE","outputs":[{"internalType":"bytes32","name":"","type":"bytes32"}],"stateMutability":"view","type":"function"},{"inputs":[],"name":"SUPER_ADMIN_ROLE","outputs":[{"internalType":"bytes32","name":"","type":"bytes32"}],"stateMutability":"view","type":"function"},{"inputs":[],"name":"UPGRADER_ROLE","outputs":[{"internalType":"bytes32","name":"","type":"bytes32"}],"stateMutability":"view","type":"function"},{"inputs":[{"internalType":"address","name":"_admin","type":"address"}],"name":"addAdmin","outputs":[],"stateMutability":"nonpayable","type":"function"},{"inputs":[{"internalType":"address","name":"account","type":"address"}],"name":"addPauser","outputs":[],"stateMutability":"nonpayable","type":"function"},{"inputs":[{"internalType":"uint256","name":"_routeId","type":"uint256"},{"internalType":"address","name":"_routeAddress","type":"address"},{"internalType":"string","name":"_routeName","type":"string"}],"name":"addRoute","outputs":[],"stateMutability":"nonpayable","type":"function"},{"inputs":[{"internalType":"address","name":"_superAdmin","type":"address"}],"name":"addSuperAdmin","outputs":[],"stateMutability":"nonpayable","type":"function"},{"inputs":[{"internalType":"address","name":"_upgrader","type":"address"}],"name":"addUpgrader","outputs":[],"stateMutability":"nonpayable","type":"function"},{"inputs":[],"name":"crossSyncFeeAddress","outputs":[{"internalType":"address","name":"","type":"address"}],"stateMutability":"view","type":"function"},{"inputs":[],"name":"crossSyncFeePercent","outputs":[{"internalType":"uint256","name":"","type":"uint256"}],"stateMutability":"view","type":"function"},{"inputs":[{"internalType":"uint256","name":"","type":"uint256"}],"name":"destChainGatewayAddress","outputs":[{"internalType":"address","name":"","type":"address"}],"stateMutability":"view","type":"function"},{"inputs":[],"name":"eip712Domain","outputs":[{"internalType":"bytes1","name":"fields","type":"bytes1"},{"internalType":"string","name":"name","type":"string"},{"internalType":"string","name":"version","type":"string"},{"internalType":"uint256","name":"chainId","type":"uint256"},{"internalType":"address","name":"verifyingContract","type":"address"},{"internalType":"bytes32","name":"salt","type":"bytes32"},{"internalType":"uint256[]","name":"extensions","type":"uint256[]"}],"stateMutability":"view","type":"function"},{"inputs":[{"internalType":"uint256","name":"_destinationChainId","type":"uint256"},{"internalType":"uint256","name":"_routeId","type":"uint256"},{"components":[{"internalType":"address","name":"to","type":"address"},{"internalType":"bytes","name":"data","type":"bytes"}],"internalType":"struct ICrossSyncGateway.MessagingPayload","name":"_payload","type":"tuple"},{"internalType":"uint256","name":"_gasLimit","type":"uint256"}],"name":"getFee","outputs":[{"internalType":"uint256","name":"","type":"uint256"}],"stateMutability":"view","type":"function"},{"inputs":[],"name":"getNativeCurrencyAddress","outputs":[{"internalType":"address","name":"","type":"address"}],"stateMutability":"view","type":"function"},{"inputs":[],"name":"getNativeWrappedCurrencyAddress","outputs":[{"internalType":"address","name":"","type":"address"}],"stateMutability":"view","type":"function"},{"inputs":[{"internalType":"bytes32","name":"role","type":"bytes32"}],"name":"getRoleAdmin","outputs":[{"internalType":"bytes32","name":"","type":"bytes32"}],"stateMutability":"view","type":"function"},{"inputs":[{"internalType":"uint256","name":"_routeId","type":"uint256"}],"name":"getRoute","outputs":[{"internalType":"address","name":"","type":"address"},{"internalType":"bool","name":"","type":"bool"},{"internalType":"string","name":"","type":"string"}],"stateMutability":"view","type":"function"},{"inputs":[{"internalType":"uint256","name":"_routeId","type":"uint256"}],"name":"getRouteAddress","outputs":[{"internalType":"address","name":"","type":"address"}],"stateMutability":"view","type":"function"},{"inputs":[{"internalType":"uint256","name":"_routeId","type":"uint256"}],"name":"getRouteName","outputs":[{"internalType":"string","name":"","type":"string"}],"stateMutability":"view","type":"function"},{"inputs":[{"internalType":"uint256","name":"_routeId","type":"uint256"}],"name":"getRouteValidity","outputs":[{"internalType":"bool","name":"","type":"bool"}],"stateMutability":"view","type":"function"},{"inputs":[{"internalType":"uint256","name":"messengerFee","type":"uint256"}],"name":"getSyncFee","outputs":[{"internalType":"uint256","name":"","type":"uint256"}],"stateMutability":"view","type":"function"},{"inputs":[],"name":"getTrustedForwarder","outputs":[{"internalType":"address","name":"forwarder","type":"address"}],"stateMutability":"view","type":"function"},{"inputs":[{"internalType":"bytes32","name":"role","type":"bytes32"},{"internalType":"address","name":"account","type":"address"}],"name":"grantRole","outputs":[],"stateMutability":"nonpayable","type":"function"},{"inputs":[{"internalType":"bytes","name":"_payload","type":"bytes"}],"name":"handleReceive","outputs":[],"stateMutability":"nonpayable","type":"function"},{"inputs":[{"internalType":"bytes32","name":"role","type":"bytes32"},{"internalType":"address","name":"account","type":"address"}],"name":"hasRole","outputs":[{"internalType":"bool","name":"","type":"bool"}],"stateMutability":"view","type":"function"},{"inputs":[{"internalType":"string","name":"_name","type":"string"},{"internalType":"string","name":"_version","type":"string"},{"internalType":"address","name":"_nativeCurrencyWrappedAddress","type":"address"},{"internalType":"address","name":"_nativeCurrencyAddress","type":"address"},{"internalType":"address","name":"_owner","type":"address"},{"internalType":"address","name":"_crossSyncFeeAddress","type":"address"}],"name":"initialize","outputs":[],"stateMutability":"nonpayable","type":"function"},{"inputs":[{"internalType":"address","name":"forwarder","type":"address"}],"name":"isTrustedForwarder","outputs":[{"internalType":"bool","name":"","type":"bool"}],"stateMutability":"view","type":"function"},{"inputs":[],"name":"nativeCurrencyAddress","outputs":[{"internalType":"address","name":"","type":"address"}],"stateMutability":"view","type":"function"},{"inputs":[],"name":"nativeCurrencyWrappedAddress","outputs":[{"internalType":"address","name":"","type":"address"}],"stateMutability":"view","type":"function"},{"inputs":[],"name":"owner","outputs":[{"internalType":"address","name":"","type":"address"}],"stateMutability":"view","type":"function"},{"inputs":[],"name":"pause","outputs":[],"stateMutability":"nonpayable","type":"function"},{"inputs":[],"name":"paused","outputs":[{"internalType":"bool","name":"","type":"bool"}],"stateMutability":"view","type":"function"},{"inputs":[],"name":"proxiableUUID","outputs":[{"internalType":"bytes32","name":"","type":"bytes32"}],"stateMutability":"view","type":"function"},{"inputs":[{"internalType":"address","name":"","type":"address"},{"internalType":"uint256","name":"","type":"uint256"},{"internalType":"uint256","name":"","type":"uint256"}],"name":"receiveUserNonceSeen","outputs":[{"internalType":"bool","name":"","type":"bool"}],"stateMutability":"view","type":"function"},{"inputs":[{"internalType":"address","name":"_admin","type":"address"}],"name":"removeAdmin","outputs":[],"stateMutability":"nonpayable","type":"function"},{"inputs":[{"internalType":"address","name":"_pauser","type":"address"}],"name":"removePauser","outputs":[],"stateMutability":"nonpayable","type":"function"},{"inputs":[{"internalType":"uint256","name":"_routeId","type":"uint256"}],"name":"removeRoute","outputs":[],"stateMutability":"nonpayable","type":"function"},{"inputs":[{"internalType":"address","name":"_superAdmin","type":"address"}],"name":"removeSuperAdmin","outputs":[],"stateMutability":"nonpayable","type":"function"},{"inputs":[{"internalType":"address","name":"_upgrader","type":"address"}],"name":"removeUpgrader","outputs":[],"stateMutability":"nonpayable","type":"function"},{"inputs":[],"name":"renounceOwnership","outputs":[],"stateMutability":"nonpayable","type":"function"},{"inputs":[{"internalType":"bytes32","name":"role","type":"bytes32"},{"internalType":"address","name":"account","type":"address"}],"name":"renounceRole","outputs":[],"stateMutability":"nonpayable","type":"function"},{"inputs":[{"internalType":"bytes32","name":"role","type":"bytes32"},{"internalType":"address","name":"account","type":"address"}],"name":"revokeRole","outputs":[],"stateMutability":"nonpayable","type":"function"},{"inputs":[{"internalType":"uint256","name":"_destinationChainId","type":"uint256"},{"internalType":"uint256","name":"_routeId","type":"uint256"},{"components":[{"internalType":"address","name":"to","type":"address"},{"internalType":"bytes","name":"data","type":"bytes"}],"internalType":"struct ICrossSyncGateway.MessagingPayload","name":"_payload","type":"tuple"},{"internalType":"uint256","name":"_gasLimit","type":"uint256"},{"internalType":"bytes","name":"_routeData","type":"bytes"}],"name":"sendMessage","outputs":[],"stateMutability":"payable","type":"function"},{"inputs":[{"internalType":"address","name":"","type":"address"},{"internalType":"uint256","name":"","type":"uint256"},{"internalType":"uint256","name":"","type":"uint256"}],"name":"sentUserNonce","outputs":[{"internalType":"uint256","name":"","type":"uint256"}],"stateMutability":"view","type":"function"},{"inputs":[{"internalType":"uint256","name":"_crossSyncFeePercent","type":"uint256"}],"name":"setCrossSyncFee","outputs":[],"stateMutability":"nonpayable","type":"function"},{"inputs":[{"internalType":"address","name":"_crossSyncFeeAddress","type":"address"}],"name":"setCrossSyncFeeAddress","outputs":[],"stateMutability":"nonpayable","type":"function"},{"inputs":[{"internalType":"uint256","name":"chainId","type":"uint256"},{"internalType":"address","name":"crossSyncGatewayAddress","type":"address"}],"name":"setDestChainGatewayAddress","outputs":[],"stateMutability":"nonpayable","type":"function"},{"inputs":[{"internalType":"address","name":"_nativeCurrencyAddress","type":"address"}],"name":"setNativeCurrencyAddress","outputs":[],"stateMutability":"nonpayable","type":"function"},{"inputs":[{"internalType":"address","name":"_nativeCurrencyWrappedAddress","type":"address"}],"name":"setNativeWrappedCurrencyAddress","outputs":[],"stateMutability":"nonpayable","type":"function"},{"inputs":[{"internalType":"uint256","name":"_routeId","type":"uint256"},{"internalType":"address","name":"_routeAddress","type":"address"}],"name":"setRouteAddress","outputs":[],"stateMutability":"nonpayable","type":"function"},{"inputs":[{"internalType":"uint256","name":"_routeId","type":"uint256"},{"internalType":"string","name":"_routeName","type":"string"}],"name":"setRouteName","outputs":[],"stateMutability":"nonpayable","type":"function"},{"inputs":[{"internalType":"uint256","name":"_routeId","type":"uint256"},{"internalType":"bool","name":"_isValid","type":"bool"}],"name":"setRouteValidity","outputs":[],"stateMutability":"nonpayable","type":"function"},{"inputs":[{"internalType":"address","name":"_newtrustedForwarder","type":"address"}],"name":"setTrustedForwarder","outputs":[],"stateMutability":"nonpayable","type":"function"},{"inputs":[{"internalType":"bytes4","name":"interfaceId","type":"bytes4"}],"name":"supportsInterface","outputs":[{"internalType":"bool","name":"","type":"bool"}],"stateMutability":"view","type":"function"},{"inputs":[{"internalType":"address","name":"newOwner","type":"address"}],"name":"transferOwnership","outputs":[],"stateMutability":"nonpayable","type":"function"},{"inputs":[],"name":"unpause","outputs":[],"stateMutability":"nonpayable","type":"function"},{"inputs":[{"internalType":"address","name":"newImplementation","type":"address"}],"name":"upgradeTo","outputs":[],"stateMutability":"nonpayable","type":"function"},{"inputs":[{"internalType":"address","name":"newImplementation","type":"address"},{"internalType":"bytes","name":"data","type":"bytes"}],"name":"upgradeToAndCall","outputs":[],"stateMutability":"payable","type":"function"},{"stateMutability":"payable","type":"receive"}],"devdoc":{"kind":"dev","methods":{"constructor":{"custom:oz-upgrades-unsafe-allow":"constructor"},"eip712Domain()":{"details":"See {EIP-5267}. _Available since v4.9._"},"getRoleAdmin(bytes32)":{"details":"Returns the admin role that controls `role`. See {grantRole} and {revokeRole}. To change a role's admin, use {_setRoleAdmin}."},"getTrustedForwarder()":{"returns":{"forwarder":"The address of the Forwarder contract that is being used."}},"grantRole(bytes32,address)":{"details":"Grants `role` to `account`. If `account` had not been already granted `role`, emits a {RoleGranted} event. Requirements: - the caller must have ``role``'s admin role. May emit a {RoleGranted} event."},"hasRole(bytes32,address)":{"details":"Returns `true` if `account` has been granted `role`."},"isTrustedForwarder(address)":{"params":{"forwarder":"The address of the Forwarder contract that is being used."},"returns":{"_0":"isTrustedForwarder `true` if the Forwarder is trusted to forward relayed transactions by this Recipient."}},"owner()":{"details":"Returns the address of the current owner."},"paused()":{"details":"Returns true if the contract is paused, and false otherwise."},"proxiableUUID()":{"details":"Implementation of the ERC1822 {proxiableUUID} function. This returns the storage slot used by the implementation. It is used to validate the implementation's compatibility when performing an upgrade. IMPORTANT: A proxy pointing at a proxiable contract should not be considered proxiable itself, because this risks bricking a proxy that upgrades to it, by delegating to itself until out of gas. Thus it is critical that this function revert if invoked through a proxy. This is guaranteed by the `notDelegated` modifier."},"renounceOwnership()":{"details":"Leaves the contract without owner. It will not be possible to call `onlyOwner` functions. Can only be called by the current owner. NOTE: Renouncing ownership will leave the contract without an owner, thereby disabling any functionality that is only available to the owner."},"renounceRole(bytes32,address)":{"details":"Revokes `role` from the calling account. Roles are often managed via {grantRole} and {revokeRole}: this function's purpose is to provide a mechanism for accounts to lose their privileges if they are compromised (such as when a trusted device is misplaced). If the calling account had been revoked `role`, emits a {RoleRevoked} event. Requirements: - the caller must be `account`. May emit a {RoleRevoked} event."},"revokeRole(bytes32,address)":{"details":"Revokes `role` from `account`. If `account` had been granted `role`, emits a {RoleRevoked} event. Requirements: - the caller must have ``role``'s admin role. May emit a {RoleRevoked} event."},"supportsInterface(bytes4)":{"details":"See {IERC165-supportsInterface}."},"transferOwnership(address)":{"details":"overriding the inherited {transferOwnership} function to reflect the admin changes into the {DEFAULT_ADMIN_ROLE}"},"upgradeTo(address)":{"custom:oz-upgrades-unsafe-allow-reachable":"delegatecall","details":"Upgrade the implementation of the proxy to `newImplementation`. Calls {_authorizeUpgrade}. Emits an {Upgraded} event."},"upgradeToAndCall(address,bytes)":{"custom:oz-upgrades-unsafe-allow-reachable":"delegatecall","details":"Upgrade the implementation of the proxy to `newImplementation`, and subsequently execute the function call encoded in `data`. Calls {_authorizeUpgrade}. Emits an {Upgraded} event."}},"version":1},"evm":{"bytecode":{"linkReferences":{},"object":"60a08060405234620000e157306080526000549060ff8260081c166200008f575060ff8082160362000053575b6040516141d59081620000e7823960805181818161228501528181612376015261286f0152f35b60ff90811916176000557f7f26b83ff96e1f2b6a682f133852f6798a09c465da95921460cefb3847402498602060405160ff8152a1386200002c565b62461bcd60e51b815260206004820152602760248201527f496e697469616c697a61626c653a20636f6e747261637420697320696e697469604482015266616c697a696e6760c81b6064820152608490fd5b600080fdfe6080604052600436101561001b575b361561001957600080fd5b005b6000803560e01c80624c7591146131aa5780625e8eef146130f657806301ffc9a71461309f57806309b7d79114612fd55780631785f53c14612f24578063196c881e14612ef05780631fa5d2e714612eb0578063248a9ca314612e835780632b33cc8714612cdb5780632f2ff15d14612c7557806332495ce114612bdc57806336568abe14612b3f5780633659cfe61461284a57806336d8261a1461125557806338073f0c146114b25780633f4ba83a146127145780634429c25f146126cf5780634460bdd6146126a65780634902e4aa146126445780634f1ef2861461233657806352d1902d1461227257806356e3008b14612199578063572b6c051461216357806359b52ca4146121305780635c96a56114611d485780635c975abb14611d225780636050cafe14611c895780636b2c0f5514611b985780637048027514611ae6578063715018a614611a8957806375b238fc14611a605780637d0517d0146119e15780637faf251c146119ad5780638262c3171461198e57806382dc1ec4146118995780638456cb591461175757806384b0196e146114dc5780638898009d146114b25780638da5cb5b1461148957806391d148541461144057806398c339041461139b5780639ef42cbb1461136c578063a217fddf14611350578063acb7176b14611326578063b3292ff01461127f578063bd826ed714611255578063c50189b814611079578063ce1b815f14611050578063d10a0da31461100d578063d264a80314610f6a578063d547741f14610f29578063da74222814610e93578063e34381a114610c9c578063e511015814610bdb578063e56f2fe41461059a578063e63ab1e914610571578063f2fde38b146103e9578063f72c0d8b146103c0578063fa66358a146103545763fde278bc146102b9575061000e565b34610351576020366003190112610351576102d26133fe565b6102da614063565b600080516020614140833981519152835260fb6020526040832060018060a01b0380921660005260205260ff604060002054168015610336575b61031d90613e4f565b6101fe91166001600160601b0360a01b82541617905580f35b5061031d816033541682610348614063565b16149050610314565b80fd5b50346103515760203660031901126103515760043581526101f960205260409020805460ff60a082901c16916001600160a01b03909116906103bc9061039c90600101613d32565b6040519384938452151560208401526060604084015260608301906135d6565b0390f35b503461035157806003193601126103515760206040516000805160206140e08339815191528152f35b50346103515760208060031936011261056d576104046133fe565b61040c613a11565b610414613a11565b6001600160a01b039080821615610519578061043261043792613a74565b61390f565b61043f614063565b91818061044a614063565b1693169283036104bd576000805260fb8152604060002083600052815260ff60406000205416610478578380f35b6000805260fb81526040600020908360005252604060002060ff1981541690556104a0614063565b169060006000805160206141608339815191528180a43880808380f35b6084906040519062461bcd60e51b82526004820152602f60248201527f416363657373436f6e74726f6c3a2063616e206f6e6c792072656e6f756e636560448201526e103937b632b9903337b91039b2b63360891b6064820152fd5b60405162461bcd60e51b815260048101849052602660248201527f4f776e61626c653a206e6577206f776e657220697320746865207a65726f206160448201526564647265737360d01b6064820152608490fd5b5080fd5b503461035157806003193601126103515760206040516000805160206141208339815191528152f35b50346103515760c0366003190112610351576004356001600160401b03811161056d576105cb903690600401613586565b906024356001600160401b038111610bd7576105eb903690600401613586565b9092604435916001600160a01b03918284168403610bd257606435918383168303610bd257836084351660843503610bd25760a435958487168703610bd25788549060ff8260081c16159889809a610bc5575b8015610bae575b15610b52576106de6106e69261069d60ff8e6106f0978f600184198316178355610b41575b505460081c1661067981613dd8565b61068281613dd8565b6097805460ff60a01b1916905561069881613dd8565b613dd8565b6106ad6106a8614063565b613a74565b60ff8d5460081c16966106bf88613dd8565b6106c888613dd8565b6106d188613dd8565b600161012d5536916134b1565b9336916134b1565b9261069881613dd8565b8051906001600160401b038211610b2d57819061070f61016154613cf8565b601f8111610ade575b50602090601f8311600114610a54578a92610a49575b50508160011b916000199060031b1c191617610161555b8051906001600160401b038211610a3557819061076461016254613cf8565b601f81116109db575b50602090601f8311600114610951578992610946575b50508160011b916000199060031b1c191617610162555b8561015f5585610160556107b460ff875460081c16613dd8565b6107bc613a11565b8160843516156108f2576107d1608435613a74565b6107dc60843561390f565b600080516020614180833981519152600081815260fb6020527f339ab3ab2ddf8c30d545344e713975ca6ce592a0d5bc1375bb6cfaa6563006f180546000805160206141408339815191529182905590927fbd79b86ffe0ab8e8776151514217cd7cacd52c909f66475c3af44e129f0b00ff9284929190849080a4600080516020614120833981519152600081815260408120600101805490859055929080a46001600160601b0360a01b92826101f7911684825416179055816101f891168382541617905560286101fd556101fe9216908254161790556108bb5780f35b61ff001981541681557f7f26b83ff96e1f2b6a682f133852f6798a09c465da95921460cefb3847402498602060405160018152a180f35b60405162461bcd60e51b815260206004820152602660248201527f4f776e61626c653a206e6577206f776e657220697320746865207a65726f206160448201526564647265737360d01b6064820152608490fd5b015190503880610783565b925061016289527f29af0939a5988989bfee913a9ad10b9335cb63ebc9fd2b69e5f877d0455ac9199089935b601f19841685106109c0576001945083601f198116106109a7575b505050811b016101625561079a565b015160001960f88460031b161c19169055388080610998565b8181015183556020948501946001909301929091019061097d565b610a25906101628b527f29af0939a5988989bfee913a9ad10b9335cb63ebc9fd2b69e5f877d0455ac919601f850160051c81019160208610610a2b575b601f0160051c0190613e38565b3861076d565b9091508190610a18565b634e487b7160e01b88526041600452602488fd5b01519050388061072e565b92506101618a527fafbb1c043347995df017ce3291b765e028ad5f784d2aa00c3f5e073760a4de8b908a935b601f1984168510610ac3576001945083601f19811610610aaa575b505050811b0161016155610745565b015160001960f88460031b161c19169055388080610a9b565b81810151835560209485019460019093019290910190610a80565b610b27906101618c527fafbb1c043347995df017ce3291b765e028ad5f784d2aa00c3f5e073760a4de8b601f850160051c81019160208610610a2b57601f0160051c0190613e38565b38610718565b634e487b7160e01b89526041600452602489fd5b61ffff19166101011781553861066a565b60405162461bcd60e51b815260206004820152602e60248201527f496e697469616c697a61626c653a20636f6e747261637420697320616c72656160448201526d191e481a5b9a5d1a585b1a5e995960921b6064820152608490fd5b50303b1580156106455750600160ff841614610645565b50600160ff84161061063e565b600080fd5b8380fd5b503461035157602036600319011261035157610bf56133fe565b610bfd613a11565b6001600160a01b0390811660008181527f775ac87777436f29b0cd5453bf5db4da15d8938d0ef70de831d2edd17651cf6760205260409020546000805160206140e0833981519152929060ff1615610c53578380f35b8260005260fb6020526040600020826000526020526040600020600160ff19825416179055610c80614063565b16916000805160206140c0833981519152600080a43880808380f35b50346103515760209081600319360112610351576001600160401b03600435818111610e8f57610cd0903690600401613586565b9361012d946002865414610e4a57600286558201918181840312610e4657803590848211610e2a570190610100928383820312610e2a5760405193840184811086821117610e3257604052610d2483613414565b845281830135828501526040830135604085015260608401926060810135845260808101356080860152610d5a60a08201613414565b60a0860152610d6b60c08201613414565b60c086015260e081013590868211610e2e57610d88929101613530565b908160e085015260018060a01b0380835116935194511691015192823b15610e2a5791610de394939186809460405197889586948593631885c2f960e01b8552600485015260248401526060604484015260648301906135d6565b03925af18015610e1f57610dfa575b826001855580f35b8111610e0b57604052600138610df2565b634e487b7160e01b82526041600452602482fd5b6040513d85823e3d90fd5b8580fd5b8780fd5b634e487b7160e01b87526041600452602487fd5b8480fd5b60405162461bcd60e51b815260048101839052601f60248201527f5265656e7472616e637947756172643a207265656e7472616e742063616c6c006044820152606490fd5b8280fd5b503461035157602036600319011261035157610ead6133fe565b610eb5614063565b90600080516020614140833981519152835260fb6020526040832060018060a01b03809316845260205260ff6040842054168015610f0e575b610ef790613e4f565b166001600160601b0360a01b609754161760975580f35b50610ef7826033541683610f20614063565b16149050610eee565b503461035157604036600319011261035157610f67600435610f496133e8565b9080845260fb602052610f6260016040862001546135fb565b613997565b80f35b503461035157602036600319011261035157610f846133fe565b610f8c613a11565b6000805160206140e083398151915280835260fb602090815260408085206001600160a01b0394851680875292528420549192909160ff16610fcc578380f35b82845260fb602052604084208285526020526040842060ff198154169055610ff2614063565b16916000805160206141608339815191528480a43880808380f35b50346103515760203660031901126103515761103c600160406103bc9360043581526101f96020522001613d32565b6040519182916020835260208301906135d6565b50346103515780600319360112610351576097546040516001600160a01b039091168152602090f35b503461035157600319906080368301126103515760043560243592604435906001600160401b038211610bd757604090826004019236030112610e8f578383526101f96020948186526110d560ff604087205460a01c16613ed2565b6001600160a01b0392803584811690819003611251579161119d6111cb979694926111038a97951515613e91565b61110f46871415613f15565b8588526101fa8088526111298660408b2054161515613f73565b611131614063565b968661113b614063565b168a526101fb895260408a20468b52895260408a20818b52895260408a20549189528660408b2054169187604051996111738b613428565b1689528989015284604089015246606089015260808801523060a088015260c08701523690613530565b60e085015285528352604084205416604051808096819463181285cb60e21b83526064359060048401613fd4565b03915afa918215611244578192611215575b506127106111ee6101fd5484613ca8565b0482018092116112015750604051908152f35b634e487b7160e01b81526011600452602490fd5b9091508281813d831161123d575b61122d8183613475565b8101031261056d575190386111dd565b503d611223565b50604051903d90823e3d90fd5b8680fd5b50346103515780600319360112610351576101f7546040516001600160a01b039091168152602090f35b5034610351576020366003190112610351576112996133fe565b6112a1613a11565b60008051602061414083398151915280835260fb602090815260408085206001600160a01b0394851680875292528420549192909160ff16156112e2578380f35b82845260fb6020526040842082855260205260408420600160ff1982541617905561130b614063565b16916000805160206140c08339815191528480a43880808380f35b50346103515780600319360112610351576101fe546040516001600160a01b039091168152602090f35b5034610351578060031936011261035157602090604051908152f35b50346103515760203660031901126103515760206127106113926101fd54600435613ca8565b04604051908152f35b5034610351576040366003190112610351576113b56133e8565b6113bd614063565b600080516020614140833981519152835260fb602090815260408085206001600160a01b03938416865290915283205460ff168015611425575b61140090613e4f565b60043583526101fa6020526040832091166001600160601b0360a01b82541617905580f35b50611400816033541682611437614063565b161490506113f7565b50346103515760403660031901126103515760ff60406020926114616133e8565b600435825260fb85528282206001600160a01b03909116825284522054604051911615158152f35b50346103515780600319360112610351576033546040516001600160a01b039091168152602090f35b50346103515780600319360112610351576101f8546040516001600160a01b039091168152602090f35b503461035157806003193601126103515761015f54158061174c575b1561170f57604051816101618281549461151186613cf8565b9283835260019687811690816000146116ed5750600114611690575b5061153a92500383613475565b6040519080826101629182549261155084613cf8565b8084529388811690811561166e5750600114611611575b5061157492500383613475565b60405190602090818301938385106001600160401b03861117610e0b57928287936115cd8896886040528585526115bf60405198600f60f81b8a5260e0858b015260e08a01906135d6565b9088820360408a01526135d6565b924660608801523060808801528460a088015286840360c088015251928381520195925b8281106115fe5785870386f35b83518752958101959281019284016115f1565b845250908290867f29af0939a5988989bfee913a9ad10b9335cb63ebc9fd2b69e5f877d0455ac9195b828410611654575050509060206115749282010138611567565b60209294508054838589010152019101909186859361163a565b90506020925061157494915060ff191682840152151560051b82010138611567565b845250908290857fafbb1c043347995df017ce3291b765e028ad5f784d2aa00c3f5e073760a4de8b5b8284106116d35750505090602061153a928201013861152d565b6020929450805483858901015201910190918585936116b9565b90506020925061153a94915060ff191682840152151560051b8201013861152d565b60405162461bcd60e51b81526020600482015260156024820152741152540dcc4c8e88155b9a5b9a5d1a585b1a5e9959605a1b6044820152606490fd5b5061016054156114f8565b5034610351578060031936011261035157611770614063565b600080516020614120833981519152825260fb602090815260408084206001600160a01b039384168552825283205490919060ff168015611863575b8015611848575b6117bc90613e4f565b60975460ff8160a01c166118105760ff60a01b1916600160a01b176097557f62e78cea01bee320cd4e420270b5ea74000d11b0c9f74754ebdbfc544b05a2589190611805614063565b60405191168152a180f35b60405162461bcd60e51b815260048101849052601060248201526f14185d5cd8589b194e881c185d5cd95960821b6044820152606490fd5b506117bc81603354168261185a614063565b161490506117b3565b5061186c614063565b600080516020614140833981519152845260fb8352816040852091168452825260ff6040842054166117ac565b50346103515760208060031936011261056d576118b46133fe565b6118bc614063565b600080516020614140833981519152845260fb835260408085206001600160a01b039283168652845284205460ff168015611973575b6118fb90613e4f565b6000805160206141208339815191529283855260fb81528160408620931692838652815260ff60408620541615611930578480f35b83855260fb815260408520908386525260408420600160ff19825416179055611957614063565b16916000805160206140c08339815191528480a4388080808480f35b506118fb816033541682611985614063565b161490506118f2565b503461035157806003193601126103515760206101fd54604051908152f35b50346103515760203660031901126103515760209060043581526101fa8252604060018060a01b0391205416604051908152f35b503461035157602036600319011261035157611a3f6119fe614063565b600080516020614140833981519152835260fb602090815260408085206001600160a01b03938416865290915283205460ff16908115611a49575b50613e4f565b6004356101fd5580f35b60335481169150611a58614063565b161438611a39565b503461035157806003193601126103515760206040516000805160206141808339815191528152f35b5034610351578060031936011261035157611aa2613a11565b603380546001600160a01b0319811690915581906001600160a01b03167f8be0079c531659141344cd1fd0a4f28419497f9722a3daafe3b4186f6b6457e08280a380f35b50346103515760208060031936011261056d57611b016133fe565b611b09614063565b600080516020614140833981519152845260fb835260408085206001600160a01b039283168652845284205460ff168015611b7d575b611b4890613e4f565b6000805160206141808339815191529283855260fb81528160408620931692838652815260ff60408620541615611930578480f35b50611b48816033541682611b8f614063565b16149050611b3f565b50346103515760208060031936011261056d57611bb36133fe565b611bbb614063565b600080516020614140833981519152845260fb835260408085206001600160a01b039283168652845284205460ff168015611c6e575b611bfa90613e4f565b6000805160206141208339815191529283855260fb81528160408620931692838652815260ff604086205416611c2e578480f35b83855260fb81526040852090838652526040842060ff198154169055611c52614063565b16916000805160206141608339815191528480a4388080808480f35b50611bfa816033541682611c80614063565b16149050611bf1565b503461035157602036600319011261035157611ca36133fe565b611cab614063565b600080516020614140833981519152835260fb602090815260408085206001600160a01b03938416865290915283205460ff168015611d07575b611cee90613e4f565b6101f791166001600160601b0360a01b82541617905580f35b50611cee816033541682611d19614063565b16149050611ce5565b5034610351578060031936011261035157602060ff60975460a01c166040519015158152f35b5060a0366003190112610351576044356001600160401b03811161056d57611d74903690600401613530565b6084356001600160401b038111610e8f57611d93903690600401613586565b505060243582526101f9602052611db360ff604084205460a01c16613ed2565b8051611dc9906001600160a01b03161515613e91565b611dd7466004351415613f15565b60043582526101fa6020526040822054611dfb906001600160a01b03161515613f73565b612710611e0b6101fd5434613ca8565b048034106120d75734813403116120c357611e24614063565b6101fe80546001600160a01b0316801561207257858080868194828215612069575bf11561205e5760018060a01b039054166040519160018060a01b0316825282602083015260408201526064356060820152602435907f054aafb6abefe1f281ccb11a7597dc7e2f13418168020924f176af9492821cac608060043592a3611eab614063565b916001600160a01b03611ebc614063565b1684526101fb6020526040842046855260205260408420600435855260205260408420546101fa60205260018060a01b036040862054169060405194611f0186613428565b60018060a01b031685526020850152602435604085015246606085015260043560808501523060a085015260c084015260e083015260018060a01b03611f45614063565b1683526101fb60205260408320468452602052604083206004358452602052604083208054906001820180921161204a575560243583526101f96020526040808420549051630db17b6960e21b81529284928492909183916001600160a01b0316908290611fba906064359060048401613fd4565b03923403905af1801561203f57611fcf575080f35b3d8083833e611fde8183613475565b810190602081830312610e8f578051906001600160401b038211610bd7570181601f82011215610e8f5780519061201482613496565b926120226040519485613475565b82845260208383010111610bd757602080610f67940191016135b3565b6040513d84823e3d90fd5b634e487b7160e01b85526011600452602485fd5b6040513d86823e3d90fd5b506108fc611e46565b60405162461bcd60e51b8152602060048201526024808201527f43726f737353796e634665652041646472657373204973205a65726f204164646044820152637265737360e01b6064820152608490fd5b634e487b7160e01b83526011600452602483fd5b60405162461bcd60e51b815260206004820152602b60248201527f52656c61796572286d73672e76616c75652920466565206973206c657373207460448201526a68616e2073796e6346656560a81b6064820152608490fd5b50346103515760203660031901126103515760ff604060209260043581526101f98452205460a01c166040519015158152f35b503461035157602036600319011261035157602061217f6133fe565b6097546040516001600160a01b0392831691909216148152f35b5034610351578060208060031936011261226f576004356121f76121bb614063565b600080516020614140833981519152855260fb845260408086206001600160a01b039283168752855285205460ff16908115611a495750613e4f565b8083526101f99081835261221460ff604086205460a01c16613ed2565b83528152600160408320838155019061222d8254613cf8565b908161223857505050f35b81601f85931160011461224c575050505580f35b83835281832061226791601f0160051c810190600101613e38565b812091555580f35b50fd5b50346103515780600319360112610351577f00000000000000000000000000000000000000000000000000000000000000006001600160a01b031630036122cb5760206040516000805160206141008339815191528152f35b60405162461bcd60e51b815260206004820152603860248201527f555550535570677261646561626c653a206d757374206e6f742062652063616c60448201527f6c6564207468726f7567682064656c656761746563616c6c00000000000000006064820152608490fd5b5060403660031901126103515761234b6133fe565b6024356001600160401b038111610e8f5761236a9036906004016134e8565b6001600160a01b0391907f000000000000000000000000000000000000000000000000000000000000000083166123a330821415613abd565b6123c0600080516020614100833981519152918583541614613b1e565b6123c8614063565b936000805160206140e0833981519152865260209460fb8652816040882091168752855260ff6040872054168015612629575b61240490613e4f565b7f4910fdfa16fed3260ed0e7147f7cc6da11a60208b5b9406d12a635614ffd91435460ff161561243b57505050610f679150613b7f565b8316906040516352d1902d60e01b81528581600481865afa8791816125fa575b506124bc5760405162461bcd60e51b815260048101879052602e60248201527f45524331393637557067726164653a206e657720696d706c656d656e7461746960448201526d6f6e206973206e6f74205555505360901b6064820152608490fd5b94929394036125a3576124ce84613b7f565b7fbc7cd75a20ee27fd9adebab32041f755214dbc6bffa90cc0225b39da2e5c2d3b8580a281511580159061259b575b612508575b50505080f35b6125899284806040519461251b8661345a565b602786527f416464726573733a206c6f772d6c6576656c2064656c65676174652063616c6c85870152660819985a5b195960ca1b60408701528481519101845af4903d15612592573d61256d81613496565b9061257b6040519283613475565b81528681943d92013e613c0f565b50388080612502565b60609250613c0f565b5060016124fd565b60405162461bcd60e51b815260048101839052602960248201527f45524331393637557067726164653a20756e737570706f727465642070726f786044820152681a58589b195555525160ba1b6064820152608490fd5b9091508681813d8311612622575b6126128183613475565b81010312610e2e5751903861245b565b503d612608565b5061240481603354168261263b614063565b161490506123fb565b50346103515760203660031901126103515761265e6133fe565b612666613a11565b60008051602061414083398151915280835260fb602090815260408085206001600160a01b0394851680875292528420549192909160ff16610fcc578380f35b503461035157806003193601126103515760206040516000805160206141408339815191528152f35b50346103515760ff60406020926126e536613506565b6001600160a01b0390921683526101fc8652838320908352855282822090825284522054604051911615158152f35b503461035157806003193601126103515761272d614063565b600080516020614120833981519152825260fb602090815260408084206001600160a01b039384168552825283205490919060ff168015612814575b80156127f9575b61277990613e4f565b60975460ff8160a01c16156127bd5760ff60a01b19166097557f5db9ee0a495bf2e6ff9c91a7834c1ba4fdd244a5e8aa4e537bd38aeae4b073aa9190611805614063565b60405162461bcd60e51b815260048101849052601460248201527314185d5cd8589b194e881b9bdd081c185d5cd95960621b6044820152606490fd5b5061277981603354168261280b614063565b16149050612770565b5061281d614063565b600080516020614140833981519152845260fb8352816040852091168452825260ff604084205416612769565b50346103515760208060031936011261056d576128656133fe565b6001600160a01b037f0000000000000000000000000000000000000000000000000000000000000000811661289c30821415613abd565b6128b9600080516020614100833981519152918383541614613b1e565b6128c1614063565b6000805160206140e0833981519152865260fb8552826040872091168652845260ff6040862054168015612b24575b6128f990613e4f565b60405190848201928284106001600160401b03851117610e32578360405286835260ff7f4910fdfa16fed3260ed0e7147f7cc6da11a60208b5b9406d12a635614ffd914354166000146129545750505050610f679150613b7f565b8492939416906040516352d1902d60e01b81528681600481865afa889181612af1575b506129d85760405162461bcd60e51b815260048101889052602e60248201527f45524331393637557067726164653a206e657720696d706c656d656e7461746960448201526d6f6e206973206e6f74205555505360901b6064820152608490fd5b9593949503612a9a576129ea82613b7f565b7fbc7cd75a20ee27fd9adebab32041f755214dbc6bffa90cc0225b39da2e5c2d3b8680a284835115801590612a93575b612a27575b505050505080f35b80612a889560405195612a398761345a565b602787527f416464726573733a206c6f772d6c6576656c2064656c65676174652063616c6c86880152660819985a5b195960ca1b60408801525190845af4903d15612592573d61256d81613496565b503880808084612a1f565b5080612a1a565b60405162461bcd60e51b815260048101849052602960248201527f45524331393637557067726164653a20756e737570706f727465642070726f786044820152681a58589b195555525160ba1b6064820152608490fd5b9091508781813d8311612b1d575b612b098183613475565b81010312612b1957519038612977565b8880fd5b503d612aff565b506128f9826033541683612b36614063565b161490506128f0565b503461035157604036600319011261035157612b596133e8565b6001600160a01b0380612b6a614063565b1690821603612b7f57610f6790600435613997565b60405162461bcd60e51b815260206004820152602f60248201527f416363657373436f6e74726f6c3a2063616e206f6e6c792072656e6f756e636560448201526e103937b632b9903337b91039b2b63360891b6064820152608490fd5b503461035157602036600319011261035157612bf66133fe565b612bfe614063565b600080516020614140833981519152835260fb602090815260408085206001600160a01b03938416865290915283205460ff168015612c5a575b612c4190613e4f565b6101f891166001600160601b0360a01b82541617905580f35b50612c41816033541682612c6c614063565b16149050612c38565b503461035157604036600319011261035157600435612c926133e8565b81835260fb602052612caa60016040852001546135fb565b81835260fb602090815260408085206001600160a01b03938416808752925284205490919060ff16156112e2578380f35b5034610351576040366003190112610351576001600160401b03600435602435828111610bd757612d109036906004016134e8565b91612d19614063565b600080516020614140833981519152855260fb602090815260408087206001600160a01b0393841688528252862054909391612d5f9160ff16908115611a495750613e4f565b8085526101f990818452612d7c60ff604088205460a01c16613ed2565b85528252600191826040862001938051928311612e6f57612d9d8554613cf8565b601f8111612e41575b5081601f8411600114612de057509282939183928794612dd5575b50501b916000199060031b1c191617905580f35b015192503880612dc1565b919083601f1981168789528489209489905b88838310612e275750505010612e0e575b505050811b01905580f35b015160001960f88460031b161c19169055388080612e03565b858701518855909601959485019487935090810190612df2565b612e6990868852838820601f860160051c810191858710610a2b57601f0160051c0190613e38565b38612da6565b634e487b7160e01b86526041600452602486fd5b50346103515760203660031901126103515760016040602092600435815260fb8452200154604051908152f35b5034610351576040602091612ec436613506565b6001600160a01b0390921683526101fb8552838320908352845282822090825283522054604051908152f35b50346103515760203660031901126103515760209060043581526101f98252604060018060a01b0391205416604051908152f35b50346103515760208060031936011261056d57612f3f6133fe565b612f47614063565b600080516020614140833981519152845260fb835260408085206001600160a01b039283168652845284205460ff168015612fba575b612f8690613e4f565b6000805160206141808339815191529283855260fb81528160408620931692838652815260ff604086205416611c2e578480f35b50612f86816033541682612fcc614063565b16149050612f7d565b503461035157604036600319011261035157600435612ff26133e8565b612ffa614063565b90600080516020614140833981519152845260fb6020526040842060018060a01b03809316855260205260ff6040852054168015613084575b61303c90613e4f565b1690613049821515613e91565b8083526101f9908160205261306760ff604086205460a01c16613ed2565b83526020526040822080546001600160a01b031916909117905580f35b5061303c826033541683613096614063565b16149050613033565b50346103515760203660031901126103515760043563ffffffff60e01b811680910361056d57602090637965db0b60e01b81149081156130e5575b506040519015158152f35b6301ffc9a760e01b149050826130da565b5034610351576040366003190112610351576004356024358015158103610e8f57610f6791613166613126614063565b600080516020614140833981519152865260fb602090815260408088206001600160a01b03938416895290915286205460ff16908115611a495750613e4f565b8084526101f9908160205261318460ff604087205460a01c16613ed2565b845260205260408320805460ff60a01b191691151560a01b60ff60a01b16919091179055565b5034610351576060366003190112610351576004356131c76133e8565b6001600160401b03604435818111610e46576131e79036906004016134e8565b926131f0614063565b90600080516020614140833981519152865260209160fb8352604087209460018060a01b0395868093168952845260ff60408920541680156133cd575b61323690613e4f565b16613242811515613e91565b8187526101f99485845260ff604089205460a01c166133915760405191606083018381108782111761337d5760409081529083526001858401818152848301998a52948a52968552882091518254935160ff60a01b90151560a01b166001600160a81b0319909416911660ff60a01b191617919091178155830193518051928311612e6f576132d18554613cf8565b601f811161334f575b5081601f841160011461330857509282939183928794612dd55750501b916000199060031b1c191617905580f35b919083601f1981168789528489209489905b888383106133355750505010612e0e57505050811b01905580f35b85870151885590960195948501948793509081019061331a565b61337790868852838820601f860160051c810191858710610a2b57601f0160051c0190613e38565b386132da565b634e487b7160e01b8a52604160045260248afd5b60405162461bcd60e51b8152600481018590526014602482015273526f75746520416c72656164792045786973747360601b6044820152606490fd5b506132368260335416836133df614063565b1614905061322d565b602435906001600160a01b0382168203610bd257565b600435906001600160a01b0382168203610bd257565b35906001600160a01b0382168203610bd257565b61010081019081106001600160401b0382111761344457604052565b634e487b7160e01b600052604160045260246000fd5b606081019081106001600160401b0382111761344457604052565b90601f801991011681019081106001600160401b0382111761344457604052565b6001600160401b03811161344457601f01601f191660200190565b9291926134bd82613496565b916134cb6040519384613475565b829481845281830111610bd2578281602093846000960137010152565b9080601f83011215610bd257816020613503933591016134b1565b90565b6060906003190112610bd2576004356001600160a01b0381168103610bd257906024359060443590565b919091604081840312610bd25760408051916001600160401b039183018281118482101761344457604052829461356682613414565b84526020820135928311610bd25760209261358192016134e8565b910152565b9181601f84011215610bd2578235916001600160401b038311610bd25760208381860195010111610bd257565b60005b8381106135c65750506000910152565b81810151838201526020016135b6565b906020916135ef815180928185528580860191016135b3565b601f01601f1916010190565b613603614063565b9060009080825260209160fb83526040938482209060018060a01b031690818352845260ff858320541615613639575050505050565b8451926136458461345a565b602a845284840190863683378451156138fb57603082538451926001938410156138e7576078602187015360295b84811161387d575061383b57865192608084018481106001600160401b03821117612e6f57885260428452868401946060368737845115613827576030865384518210156138275790607860218601536041915b8183116137b957505050613777576137739386936137579361374860489461371f9a519a8b957f416363657373436f6e74726f6c3a206163636f756e74200000000000000000008c88015251809260378801906135b3565b8401917001034b99036b4b9b9b4b733903937b6329607d1b6037840152518093868401906135b3565b01036028810187520185613475565b5192839262461bcd60e51b8452600484015260248301906135d6565b0390fd5b60648587519062461bcd60e51b825280600483015260248201527f537472696e67733a20686578206c656e67746820696e73756666696369656e746044820152fd5b909192600f81166010811015613813576f181899199a1a9b1b9c1cb0b131b232b360811b901a6137e98588613cd1565b5360041c9280156137ff576000190191906136c7565b634e487b7160e01b82526011600452602482fd5b634e487b7160e01b83526032600452602483fd5b634e487b7160e01b81526032600452602490fd5b60648688519062461bcd60e51b825280600483015260248201527f537472696e67733a20686578206c656e67746820696e73756666696369656e746044820152fd5b90600f811660108110156138d3576f181899199a1a9b1b9c1cb0b131b232b360811b901a6138ab8389613cd1565b5360041c9080156138bf5760001901613673565b634e487b7160e01b86526011600452602486fd5b634e487b7160e01b87526032600452602487fd5b634e487b7160e01b85526032600452602485fd5b634e487b7160e01b84526032600452602484fd5b6001600160a01b0390811660008181527fc88390e7e62175be0932452175b6a7222b6b094ab0ef984a5153c620345d8975602052604081205490929060ff161561395857505050565b82805260fb6020526040832082845260205260408320600160ff19825416179055613981614063565b16916000805160206140c08339815191528180a4565b600081815260fb602090815260408083206001600160a01b039586168085529252822054919390929160ff166139ce575b50505050565b6000805160206141608339815191529082855260fb602052604085208486526020526040852060ff198154169055613a04614063565b169380a4388080806139c8565b6033546001600160a01b0390811690613a28614063565b1603613a3057565b606460405162461bcd60e51b815260206004820152602060248201527f4f776e61626c653a2063616c6c6572206973206e6f7420746865206f776e65726044820152fd5b603380546001600160a01b039283166001600160a01b0319821681179092559091167f8be0079c531659141344cd1fd0a4f28419497f9722a3daafe3b4186f6b6457e0600080a3565b15613ac457565b60405162461bcd60e51b815260206004820152602c60248201527f46756e6374696f6e206d7573742062652063616c6c6564207468726f7567682060448201526b19195b1959d85d1958d85b1b60a21b6064820152608490fd5b15613b2557565b60405162461bcd60e51b815260206004820152602c60248201527f46756e6374696f6e206d7573742062652063616c6c6564207468726f7567682060448201526b6163746976652070726f787960a01b6064820152608490fd5b803b15613bb45760008051602061410083398151915280546001600160a01b0319166001600160a01b03909216919091179055565b60405162461bcd60e51b815260206004820152602d60248201527f455243313936373a206e657720696d706c656d656e746174696f6e206973206e60448201526c1bdd08184818dbdb9d1c9858dd609a1b6064820152608490fd5b91929015613c715750815115613c23575090565b3b15613c2c5790565b60405162461bcd60e51b815260206004820152601d60248201527f416464726573733a2063616c6c20746f206e6f6e2d636f6e74726163740000006044820152606490fd5b825190915015613c845750805190602001fd5b60405162461bcd60e51b8152602060048201529081906137739060248301906135d6565b81810292918115918404141715613cbb57565b634e487b7160e01b600052601160045260246000fd5b908151811015613ce2570160200190565b634e487b7160e01b600052603260045260246000fd5b90600182811c92168015613d28575b6020831014613d1257565b634e487b7160e01b600052602260045260246000fd5b91607f1691613d07565b9060405191826000825492613d4684613cf8565b908184526001948581169081600014613db55750600114613d72575b5050613d7092500383613475565b565b9093915060005260209081600020936000915b818310613d9d575050613d7093508201013880613d62565b85548884018501529485019487945091830191613d85565b915050613d7094506020925060ff191682840152151560051b8201013880613d62565b15613ddf57565b60405162461bcd60e51b815260206004820152602b60248201527f496e697469616c697a61626c653a20636f6e7472616374206973206e6f74206960448201526a6e697469616c697a696e6760a81b6064820152608490fd5b818110613e43575050565b60008155600101613e38565b15613e5657565b60405162461bcd60e51b8152602060048201526013602482015272556e617574686f72697a65642041636365737360681b6044820152606490fd5b15613e9857565b60405162461bcd60e51b81526020600482015260126024820152711059191c995cdcc80c08141c9bdd9a59195960721b6044820152606490fd5b15613ed957565b60405162461bcd60e51b8152602060048201526014602482015273149bdd5d1948111bd95cc8139bdd08115e1a5cdd60621b6044820152606490fd5b15613f1c57565b60405162461bcd60e51b815260206004820152602960248201527f536f7572636520616e642044657374696e6174696f6e20436861696e20496473604482015268206172652073616d6560b81b6064820152608490fd5b15613f7a57565b60405162461bcd60e51b815260206004820152602c60248201527f44657374696e6174696f6e20436861696e20476174657761792041646472657360448201526b1cc81a5cc81b9bdd081cd95d60a21b6064820152608490fd5b92919061405e602080926040875260018060a01b0380825116604089015282820151606089015260408201516080890152606082015160a0890152608082015160c08901528060a08301511660e089015260e08160c0840151169261010093848b0152015191610120890152815116610140880152015160406101608701526101808601906135d6565b930152565b6097546001600160a01b0316331480806140b4575b1561408a575036601319013560601c90565b601436101590816140ac575b50156140a85736601319013560601c90565b3390565b905038614096565b50601436101561407856fe2f8788117e7eff1d82e926ec794901d17c78024a50270940304540a733656f0d189ab7a9244df0848122154315af71fe140f3db0fe014031783b0946b8c9d2e3360894a13ba1a3210667c828492db98dca3e2076cc3735a920a3ca505d382bbc65d7a28e3265b37a6474929f336521b332c1681b933f6cb9f3376673440d862a7613a25ecc738585a232ad50a301178f12b3ba8887d13e138b523c4269c47689f6391f5c32d9c69d2a47ea670b442974b53935d1edc7fd64eb21e047a839171ba49807205ce4d355092ef5a8a18f56e8913cf4a201fbe287825b095693c21775a264697066735822122090d6fe61fa80136e820181ed88db8d56993eeea8e19061c528182372f6de83f464736f6c63430008110033","opcodes":"PUSH1 0xA0 DUP1 PUSH1 0x40 MSTORE CALLVALUE PUSH3 0xE1 JUMPI ADDRESS PUSH1 0x80 MSTORE PUSH1 0x0 SLOAD SWAP1 PUSH1 0xFF DUP3 PUSH1 0x8 SHR AND PUSH3 0x8F JUMPI POP PUSH1 0xFF DUP1 DUP3 AND SUB PUSH3 0x53 JUMPI JUMPDEST PUSH1 0x40 MLOAD PUSH2 0x41D5 SWAP1 DUP2 PUSH3 0xE7 DUP3 CODECOPY PUSH1 0x80 MLOAD DUP2 DUP2 DUP2 PUSH2 0x2285 ADD MSTORE DUP2 DUP2 PUSH2 0x2376 ADD MSTORE PUSH2 0x286F ADD MSTORE RETURN JUMPDEST PUSH1 0xFF SWAP1 DUP2 NOT AND OR PUSH1 0x0 SSTORE PUSH32 0x7F26B83FF96E1F2B6A682F133852F6798A09C465DA95921460CEFB3847402498 PUSH1 0x20 PUSH1 0x40 MLOAD PUSH1 0xFF DUP2 MSTORE LOG1 CODESIZE PUSH3 0x2C JUMP JUMPDEST PUSH3 0x461BCD PUSH1 0xE5 SHL DUP2 MSTORE PUSH1 0x20 PUSH1 0x4 DUP3 ADD MSTORE PUSH1 0x27 PUSH1 0x24 DUP3 ADD MSTORE PUSH32 0x496E697469616C697A61626C653A20636F6E747261637420697320696E697469 PUSH1 0x44 DUP3 ADD MSTORE PUSH7 0x616C697A696E67 PUSH1 0xC8 SHL PUSH1 0x64 DUP3 ADD MSTORE PUSH1 0x84 SWAP1 REVERT JUMPDEST PUSH1 0x0 DUP1 REVERT INVALID PUSH1 0x80 PUSH1 0x40 MSTORE PUSH1 0x4 CALLDATASIZE LT ISZERO PUSH2 0x1B JUMPI JUMPDEST CALLDATASIZE ISZERO PUSH2 0x19 JUMPI PUSH1 0x0 DUP1 REVERT JUMPDEST STOP JUMPDEST PUSH1 0x0 DUP1 CALLDATALOAD PUSH1 0xE0 SHR DUP1 PUSH3 0x4C7591 EQ PUSH2 0x31AA JUMPI DUP1 PUSH3 0x5E8EEF EQ PUSH2 0x30F6 JUMPI DUP1 PUSH4 0x1FFC9A7 EQ PUSH2 0x309F JUMPI DUP1 PUSH4 0x9B7D791 EQ PUSH2 0x2FD5 JUMPI DUP1 PUSH4 0x1785F53C EQ PUSH2 0x2F24 JUMPI DUP1 PUSH4 0x196C881E EQ PUSH2 0x2EF0 JUMPI DUP1 PUSH4 0x1FA5D2E7 EQ PUSH2 0x2EB0 JUMPI DUP1 PUSH4 0x248A9CA3 EQ PUSH2 0x2E83 JUMPI DUP1 PUSH4 0x2B33CC87 EQ PUSH2 0x2CDB JUMPI DUP1 PUSH4 0x2F2FF15D EQ PUSH2 0x2C75 JUMPI DUP1 PUSH4 0x32495CE1 EQ PUSH2 0x2BDC JUMPI DUP1 PUSH4 0x36568ABE EQ PUSH2 0x2B3F JUMPI DUP1 PUSH4 0x3659CFE6 EQ PUSH2 0x284A JUMPI DUP1 PUSH4 0x36D8261A EQ PUSH2 0x1255 JUMPI DUP1 PUSH4 0x38073F0C EQ PUSH2 0x14B2 JUMPI DUP1 PUSH4 0x3F4BA83A EQ PUSH2 0x2714 JUMPI DUP1 PUSH4 0x4429C25F EQ PUSH2 0x26CF JUMPI DUP1 PUSH4 0x4460BDD6 EQ PUSH2 0x26A6 JUMPI DUP1 PUSH4 0x4902E4AA EQ PUSH2 0x2644 JUMPI DUP1 PUSH4 0x4F1EF286 EQ PUSH2 0x2336 JUMPI DUP1 PUSH4 0x52D1902D EQ PUSH2 0x2272 JUMPI DUP1 PUSH4 0x56E3008B EQ PUSH2 0x2199 JUMPI DUP1 PUSH4 0x572B6C05 EQ PUSH2 0x2163 JUMPI DUP1 PUSH4 0x59B52CA4 EQ PUSH2 0x2130 JUMPI DUP1 PUSH4 0x5C96A561 EQ PUSH2 0x1D48 JUMPI DUP1 PUSH4 0x5C975ABB EQ PUSH2 0x1D22 JUMPI DUP1 PUSH4 0x6050CAFE EQ PUSH2 0x1C89 JUMPI DUP1 PUSH4 0x6B2C0F55 EQ PUSH2 0x1B98 JUMPI DUP1 PUSH4 0x70480275 EQ PUSH2 0x1AE6 JUMPI DUP1 PUSH4 0x715018A6 EQ PUSH2 0x1A89 JUMPI DUP1 PUSH4 0x75B238FC EQ PUSH2 0x1A60 JUMPI DUP1 PUSH4 0x7D0517D0 EQ PUSH2 0x19E1 JUMPI DUP1 PUSH4 0x7FAF251C EQ PUSH2 0x19AD JUMPI DUP1 PUSH4 0x8262C317 EQ PUSH2 0x198E JUMPI DUP1 PUSH4 0x82DC1EC4 EQ PUSH2 0x1899 JUMPI DUP1 PUSH4 0x8456CB59 EQ PUSH2 0x1757 JUMPI DUP1 PUSH4 0x84B0196E EQ PUSH2 0x14DC JUMPI DUP1 PUSH4 0x8898009D EQ PUSH2 0x14B2 JUMPI DUP1 PUSH4 0x8DA5CB5B EQ PUSH2 0x1489 JUMPI DUP1 PUSH4 0x91D14854 EQ PUSH2 0x1440 JUMPI DUP1 PUSH4 0x98C33904 EQ PUSH2 0x139B JUMPI DUP1 PUSH4 0x9EF42CBB EQ PUSH2 0x136C JUMPI DUP1 PUSH4 0xA217FDDF EQ PUSH2 0x1350 JUMPI DUP1 PUSH4 0xACB7176B EQ PUSH2 0x1326 JUMPI DUP1 PUSH4 0xB3292FF0 EQ PUSH2 0x127F JUMPI DUP1 PUSH4 0xBD826ED7 EQ PUSH2 0x1255 JUMPI DUP1 PUSH4 0xC50189B8 EQ PUSH2 0x1079 JUMPI DUP1 PUSH4 0xCE1B815F EQ PUSH2 0x1050 JUMPI DUP1 PUSH4 0xD10A0DA3 EQ PUSH2 0x100D JUMPI DUP1 PUSH4 0xD264A803 EQ PUSH2 0xF6A JUMPI DUP1 PUSH4 0xD547741F EQ PUSH2 0xF29 JUMPI DUP1 PUSH4 0xDA742228 EQ PUSH2 0xE93 JUMPI DUP1 PUSH4 0xE34381A1 EQ PUSH2 0xC9C JUMPI DUP1 PUSH4 0xE5110158 EQ PUSH2 0xBDB JUMPI DUP1 PUSH4 0xE56F2FE4 EQ PUSH2 0x59A JUMPI DUP1 PUSH4 0xE63AB1E9 EQ PUSH2 0x571 JUMPI DUP1 PUSH4 0xF2FDE38B EQ PUSH2 0x3E9 JUMPI DUP1 PUSH4 0xF72C0D8B EQ PUSH2 0x3C0 JUMPI DUP1 PUSH4 0xFA66358A EQ PUSH2 0x354 JUMPI PUSH4 0xFDE278BC EQ PUSH2 0x2B9 JUMPI POP PUSH2 0xE JUMP JUMPDEST CALLVALUE PUSH2 0x351 JUMPI PUSH1 0x20 CALLDATASIZE PUSH1 0x3 NOT ADD SLT PUSH2 0x351 JUMPI PUSH2 0x2D2 PUSH2 0x33FE JUMP JUMPDEST PUSH2 0x2DA PUSH2 0x4063 JUMP JUMPDEST PUSH1 0x0 DUP1 MLOAD PUSH1 0x20 PUSH2 0x4140 DUP4 CODECOPY DUP2 MLOAD SWAP2 MSTORE DUP4 MSTORE PUSH1 0xFB PUSH1 0x20 MSTORE PUSH1 0x40 DUP4 KECCAK256 PUSH1 0x1 DUP1 PUSH1 0xA0 SHL SUB DUP1 SWAP3 AND PUSH1 0x0 MSTORE PUSH1 0x20 MSTORE PUSH1 0xFF PUSH1 0x40 PUSH1 0x0 KECCAK256 SLOAD AND DUP1 ISZERO PUSH2 0x336 JUMPI JUMPDEST PUSH2 0x31D SWAP1 PUSH2 0x3E4F JUMP JUMPDEST PUSH2 0x1FE SWAP2 AND PUSH1 0x1 PUSH1 0x1 PUSH1 0x60 SHL SUB PUSH1 0xA0 SHL DUP3 SLOAD AND OR SWAP1 SSTORE DUP1 RETURN JUMPDEST POP PUSH2 0x31D DUP2 PUSH1 0x33 SLOAD AND DUP3 PUSH2 0x348 PUSH2 0x4063 JUMP JUMPDEST AND EQ SWAP1 POP PUSH2 0x314 JUMP JUMPDEST DUP1 REVERT JUMPDEST POP CALLVALUE PUSH2 0x351 JUMPI PUSH1 0x20 CALLDATASIZE PUSH1 0x3 NOT ADD SLT PUSH2 0x351 JUMPI PUSH1 0x4 CALLDATALOAD DUP2 MSTORE PUSH2 0x1F9 PUSH1 0x20 MSTORE PUSH1 0x40 SWAP1 KECCAK256 DUP1 SLOAD PUSH1 0xFF PUSH1 0xA0 DUP3 SWAP1 SHR AND SWAP2 PUSH1 0x1 PUSH1 0x1 PUSH1 0xA0 SHL SUB SWAP1 SWAP2 AND SWAP1 PUSH2 0x3BC SWAP1 PUSH2 0x39C SWAP1 PUSH1 0x1 ADD PUSH2 0x3D32 JUMP JUMPDEST PUSH1 0x40 MLOAD SWAP4 DUP5 SWAP4 DUP5 MSTORE ISZERO ISZERO PUSH1 0x20 DUP5 ADD MSTORE PUSH1 0x60 PUSH1 0x40 DUP5 ADD MSTORE PUSH1 0x60 DUP4 ADD SWAP1 PUSH2 0x35D6 JUMP JUMPDEST SUB SWAP1 RETURN JUMPDEST POP CALLVALUE PUSH2 0x351 JUMPI DUP1 PUSH1 0x3 NOT CALLDATASIZE ADD SLT PUSH2 0x351 JUMPI PUSH1 0x20 PUSH1 0x40 MLOAD PUSH1 0x0 DUP1 MLOAD PUSH1 0x20 PUSH2 0x40E0 DUP4 CODECOPY DUP2 MLOAD SWAP2 MSTORE DUP2 MSTORE RETURN JUMPDEST POP CALLVALUE PUSH2 0x351 JUMPI PUSH1 0x20 DUP1 PUSH1 0x3 NOT CALLDATASIZE ADD SLT PUSH2 0x56D JUMPI PUSH2 0x404 PUSH2 0x33FE JUMP JUMPDEST PUSH2 0x40C PUSH2 0x3A11 JUMP JUMPDEST PUSH2 0x414 PUSH2 0x3A11 JUMP JUMPDEST PUSH1 0x1 PUSH1 0x1 PUSH1 0xA0 SHL SUB SWAP1 DUP1 DUP3 AND ISZERO PUSH2 0x519 JUMPI DUP1 PUSH2 0x432 PUSH2 0x437 SWAP3 PUSH2 0x3A74 JUMP JUMPDEST PUSH2 0x390F JUMP JUMPDEST PUSH2 0x43F PUSH2 0x4063 JUMP JUMPDEST SWAP2 DUP2 DUP1 PUSH2 0x44A PUSH2 0x4063 JUMP JUMPDEST AND SWAP4 AND SWAP3 DUP4 SUB PUSH2 0x4BD JUMPI PUSH1 0x0 DUP1 MSTORE PUSH1 0xFB DUP2 MSTORE PUSH1 0x40 PUSH1 0x0 KECCAK256 DUP4 PUSH1 0x0 MSTORE DUP2 MSTORE PUSH1 0xFF PUSH1 0x40 PUSH1 0x0 KECCAK256 SLOAD AND PUSH2 0x478 JUMPI DUP4 DUP1 RETURN JUMPDEST PUSH1 0x0 DUP1 MSTORE PUSH1 0xFB DUP2 MSTORE PUSH1 0x40 PUSH1 0x0 KECCAK256 SWAP1 DUP4 PUSH1 0x0 MSTORE MSTORE PUSH1 0x40 PUSH1 0x0 KECCAK256 PUSH1 0xFF NOT DUP2 SLOAD AND SWAP1 SSTORE PUSH2 0x4A0 PUSH2 0x4063 JUMP JUMPDEST AND SWAP1 PUSH1 0x0 PUSH1 0x0 DUP1 MLOAD PUSH1 0x20 PUSH2 0x4160 DUP4 CODECOPY DUP2 MLOAD SWAP2 MSTORE DUP2 DUP1 LOG4 CODESIZE DUP1 DUP1 DUP4 DUP1 RETURN JUMPDEST PUSH1 0x84 SWAP1 PUSH1 0x40 MLOAD SWAP1 PUSH3 0x461BCD PUSH1 0xE5 SHL DUP3 MSTORE PUSH1 0x4 DUP3 ADD MSTORE PUSH1 0x2F PUSH1 0x24 DUP3 ADD MSTORE PUSH32 0x416363657373436F6E74726F6C3A2063616E206F6E6C792072656E6F756E6365 PUSH1 0x44 DUP3 ADD MSTORE PUSH15 0x103937B632B9903337B91039B2B633 PUSH1 0x89 SHL PUSH1 0x64 DUP3 ADD MSTORE REVERT JUMPDEST PUSH1 0x40 MLOAD PUSH3 0x461BCD PUSH1 0xE5 SHL DUP2 MSTORE PUSH1 0x4 DUP2 ADD DUP5 SWAP1 MSTORE PUSH1 0x26 PUSH1 0x24 DUP3 ADD MSTORE PUSH32 0x4F776E61626C653A206E6577206F776E657220697320746865207A65726F2061 PUSH1 0x44 DUP3 ADD MSTORE PUSH6 0x646472657373 PUSH1 0xD0 SHL PUSH1 0x64 DUP3 ADD MSTORE PUSH1 0x84 SWAP1 REVERT JUMPDEST POP DUP1 REVERT JUMPDEST POP CALLVALUE PUSH2 0x351 JUMPI DUP1 PUSH1 0x3 NOT CALLDATASIZE ADD SLT PUSH2 0x351 JUMPI PUSH1 0x20 PUSH1 0x40 MLOAD PUSH1 0x0 DUP1 MLOAD PUSH1 0x20 PUSH2 0x4120 DUP4 CODECOPY DUP2 MLOAD SWAP2 MSTORE DUP2 MSTORE RETURN JUMPDEST POP CALLVALUE PUSH2 0x351 JUMPI PUSH1 0xC0 CALLDATASIZE PUSH1 0x3 NOT ADD SLT PUSH2 0x351 JUMPI PUSH1 0x4 CALLDATALOAD PUSH1 0x1 PUSH1 0x1 PUSH1 0x40 SHL SUB DUP2 GT PUSH2 0x56D JUMPI PUSH2 0x5CB SWAP1 CALLDATASIZE SWAP1 PUSH1 0x4 ADD PUSH2 0x3586 JUMP JUMPDEST SWAP1 PUSH1 0x24 CALLDATALOAD PUSH1 0x1 PUSH1 0x1 PUSH1 0x40 SHL SUB DUP2 GT PUSH2 0xBD7 JUMPI PUSH2 0x5EB SWAP1 CALLDATASIZE SWAP1 PUSH1 0x4 ADD PUSH2 0x3586 JUMP JUMPDEST SWAP1 SWAP3 PUSH1 0x44 CALLDATALOAD SWAP2 PUSH1 0x1 PUSH1 0x1 PUSH1 0xA0 SHL SUB SWAP2 DUP3 DUP5 AND DUP5 SUB PUSH2 0xBD2 JUMPI PUSH1 0x64 CALLDATALOAD SWAP2 DUP4 DUP4 AND DUP4 SUB PUSH2 0xBD2 JUMPI DUP4 PUSH1 0x84 CALLDATALOAD AND PUSH1 0x84 CALLDATALOAD SUB PUSH2 0xBD2 JUMPI PUSH1 0xA4 CALLDATALOAD SWAP6 DUP5 DUP8 AND DUP8 SUB PUSH2 0xBD2 JUMPI DUP9 SLOAD SWAP1 PUSH1 0xFF DUP3 PUSH1 0x8 SHR AND ISZERO SWAP9 DUP10 DUP1 SWAP11 PUSH2 0xBC5 JUMPI JUMPDEST DUP1 ISZERO PUSH2 0xBAE JUMPI JUMPDEST ISZERO PUSH2 0xB52 JUMPI PUSH2 0x6DE PUSH2 0x6E6 SWAP3 PUSH2 0x69D PUSH1 0xFF DUP15 PUSH2 0x6F0 SWAP8 DUP16 PUSH1 0x1 DUP5 NOT DUP4 AND OR DUP4 SSTORE PUSH2 0xB41 JUMPI JUMPDEST POP SLOAD PUSH1 0x8 SHR AND PUSH2 0x679 DUP2 PUSH2 0x3DD8 JUMP JUMPDEST PUSH2 0x682 DUP2 PUSH2 0x3DD8 JUMP JUMPDEST PUSH1 0x97 DUP1 SLOAD PUSH1 0xFF PUSH1 0xA0 SHL NOT AND SWAP1 SSTORE PUSH2 0x698 DUP2 PUSH2 0x3DD8 JUMP JUMPDEST PUSH2 0x3DD8 JUMP JUMPDEST PUSH2 0x6AD PUSH2 0x6A8 PUSH2 0x4063 JUMP JUMPDEST PUSH2 0x3A74 JUMP JUMPDEST PUSH1 0xFF DUP14 SLOAD PUSH1 0x8 SHR AND SWAP7 PUSH2 0x6BF DUP9 PUSH2 0x3DD8 JUMP JUMPDEST PUSH2 0x6C8 DUP9 PUSH2 0x3DD8 JUMP JUMPDEST PUSH2 0x6D1 DUP9 PUSH2 0x3DD8 JUMP JUMPDEST PUSH1 0x1 PUSH2 0x12D SSTORE CALLDATASIZE SWAP2 PUSH2 0x34B1 JUMP JUMPDEST SWAP4 CALLDATASIZE SWAP2 PUSH2 0x34B1 JUMP JUMPDEST SWAP3 PUSH2 0x698 DUP2 PUSH2 0x3DD8 JUMP JUMPDEST DUP1 MLOAD SWAP1 PUSH1 0x1 PUSH1 0x1 PUSH1 0x40 SHL SUB DUP3 GT PUSH2 0xB2D JUMPI DUP2 SWAP1 PUSH2 0x70F PUSH2 0x161 SLOAD PUSH2 0x3CF8 JUMP JUMPDEST PUSH1 0x1F DUP2 GT PUSH2 0xADE JUMPI JUMPDEST POP PUSH1 0x20 SWAP1 PUSH1 0x1F DUP4 GT PUSH1 0x1 EQ PUSH2 0xA54 JUMPI DUP11 SWAP3 PUSH2 0xA49 JUMPI JUMPDEST POP POP DUP2 PUSH1 0x1 SHL SWAP2 PUSH1 0x0 NOT SWAP1 PUSH1 0x3 SHL SHR NOT AND OR PUSH2 0x161 SSTORE JUMPDEST DUP1 MLOAD SWAP1 PUSH1 0x1 PUSH1 0x1 PUSH1 0x40 SHL SUB DUP3 GT PUSH2 0xA35 JUMPI DUP2 SWAP1 PUSH2 0x764 PUSH2 0x162 SLOAD PUSH2 0x3CF8 JUMP JUMPDEST PUSH1 0x1F DUP2 GT PUSH2 0x9DB JUMPI JUMPDEST POP PUSH1 0x20 SWAP1 PUSH1 0x1F DUP4 GT PUSH1 0x1 EQ PUSH2 0x951 JUMPI DUP10 SWAP3 PUSH2 0x946 JUMPI JUMPDEST POP POP DUP2 PUSH1 0x1 SHL SWAP2 PUSH1 0x0 NOT SWAP1 PUSH1 0x3 SHL SHR NOT AND OR PUSH2 0x162 SSTORE JUMPDEST DUP6 PUSH2 0x15F SSTORE DUP6 PUSH2 0x160 SSTORE PUSH2 0x7B4 PUSH1 0xFF DUP8 SLOAD PUSH1 0x8 SHR AND PUSH2 0x3DD8 JUMP JUMPDEST PUSH2 0x7BC PUSH2 0x3A11 JUMP JUMPDEST DUP2 PUSH1 0x84 CALLDATALOAD AND ISZERO PUSH2 0x8F2 JUMPI PUSH2 0x7D1 PUSH1 0x84 CALLDATALOAD PUSH2 0x3A74 JUMP JUMPDEST PUSH2 0x7DC PUSH1 0x84 CALLDATALOAD PUSH2 0x390F JUMP JUMPDEST PUSH1 0x0 DUP1 MLOAD PUSH1 0x20 PUSH2 0x4180 DUP4 CODECOPY DUP2 MLOAD SWAP2 MSTORE PUSH1 0x0 DUP2 DUP2 MSTORE PUSH1 0xFB PUSH1 0x20 MSTORE PUSH32 0x339AB3AB2DDF8C30D545344E713975CA6CE592A0D5BC1375BB6CFAA6563006F1 DUP1 SLOAD PUSH1 0x0 DUP1 MLOAD PUSH1 0x20 PUSH2 0x4140 DUP4 CODECOPY DUP2 MLOAD SWAP2 MSTORE SWAP2 DUP3 SWAP1 SSTORE SWAP1 SWAP3 PUSH32 0xBD79B86FFE0AB8E8776151514217CD7CACD52C909F66475C3AF44E129F0B00FF SWAP3 DUP5 SWAP3 SWAP2 SWAP1 DUP5 SWAP1 DUP1 LOG4 PUSH1 0x0 DUP1 MLOAD PUSH1 0x20 PUSH2 0x4120 DUP4 CODECOPY DUP2 MLOAD SWAP2 MSTORE PUSH1 0x0 DUP2 DUP2 MSTORE PUSH1 0x40 DUP2 KECCAK256 PUSH1 0x1 ADD DUP1 SLOAD SWAP1 DUP6 SWAP1 SSTORE SWAP3 SWAP1 DUP1 LOG4 PUSH1 0x1 PUSH1 0x1 PUSH1 0x60 SHL SUB PUSH1 0xA0 SHL SWAP3 DUP3 PUSH2 0x1F7 SWAP2 AND DUP5 DUP3 SLOAD AND OR SWAP1 SSTORE DUP2 PUSH2 0x1F8 SWAP2 AND DUP4 DUP3 SLOAD AND OR SWAP1 SSTORE PUSH1 0x28 PUSH2 0x1FD SSTORE PUSH2 0x1FE SWAP3 AND SWAP1 DUP3 SLOAD AND OR SWAP1 SSTORE PUSH2 0x8BB JUMPI DUP1 RETURN JUMPDEST PUSH2 0xFF00 NOT DUP2 SLOAD AND DUP2 SSTORE PUSH32 0x7F26B83FF96E1F2B6A682F133852F6798A09C465DA95921460CEFB3847402498 PUSH1 0x20 PUSH1 0x40 MLOAD PUSH1 0x1 DUP2 MSTORE LOG1 DUP1 RETURN JUMPDEST PUSH1 0x40 MLOAD PUSH3 0x461BCD PUSH1 0xE5 SHL DUP2 MSTORE PUSH1 0x20 PUSH1 0x4 DUP3 ADD MSTORE PUSH1 0x26 PUSH1 0x24 DUP3 ADD MSTORE PUSH32 0x4F776E61626C653A206E6577206F776E657220697320746865207A65726F2061 PUSH1 0x44 DUP3 ADD MSTORE PUSH6 0x646472657373 PUSH1 0xD0 SHL PUSH1 0x64 DUP3 ADD MSTORE PUSH1 0x84 SWAP1 REVERT JUMPDEST ADD MLOAD SWAP1 POP CODESIZE DUP1 PUSH2 0x783 JUMP JUMPDEST SWAP3 POP PUSH2 0x162 DUP10 MSTORE PUSH32 0x29AF0939A5988989BFEE913A9AD10B9335CB63EBC9FD2B69E5F877D0455AC919 SWAP1 DUP10 SWAP4 JUMPDEST PUSH1 0x1F NOT DUP5 AND DUP6 LT PUSH2 0x9C0 JUMPI PUSH1 0x1 SWAP5 POP DUP4 PUSH1 0x1F NOT DUP2 AND LT PUSH2 0x9A7 JUMPI JUMPDEST POP POP POP DUP2 SHL ADD PUSH2 0x162 SSTORE PUSH2 0x79A JUMP JUMPDEST ADD MLOAD PUSH1 0x0 NOT PUSH1 0xF8 DUP5 PUSH1 0x3 SHL AND SHR NOT AND SWAP1 SSTORE CODESIZE DUP1 DUP1 PUSH2 0x998 JUMP JUMPDEST DUP2 DUP2 ADD MLOAD DUP4 SSTORE PUSH1 0x20 SWAP5 DUP6 ADD SWAP5 PUSH1 0x1 SWAP1 SWAP4 ADD SWAP3 SWAP1 SWAP2 ADD SWAP1 PUSH2 0x97D JUMP JUMPDEST PUSH2 0xA25 SWAP1 PUSH2 0x162 DUP12 MSTORE PUSH32 0x29AF0939A5988989BFEE913A9AD10B9335CB63EBC9FD2B69E5F877D0455AC919 PUSH1 0x1F DUP6 ADD PUSH1 0x5 SHR DUP2 ADD SWAP2 PUSH1 0x20 DUP7 LT PUSH2 0xA2B JUMPI JUMPDEST PUSH1 0x1F ADD PUSH1 0x5 SHR ADD SWAP1 PUSH2 0x3E38 JUMP JUMPDEST CODESIZE PUSH2 0x76D JUMP JUMPDEST SWAP1 SWAP2 POP DUP2 SWAP1 PUSH2 0xA18 JUMP JUMPDEST PUSH4 0x4E487B71 PUSH1 0xE0 SHL DUP9 MSTORE PUSH1 0x41 PUSH1 0x4 MSTORE PUSH1 0x24 DUP9 REVERT JUMPDEST ADD MLOAD SWAP1 POP CODESIZE DUP1 PUSH2 0x72E JUMP JUMPDEST SWAP3 POP PUSH2 0x161 DUP11 MSTORE PUSH32 0xAFBB1C043347995DF017CE3291B765E028AD5F784D2AA00C3F5E073760A4DE8B SWAP1 DUP11 SWAP4 JUMPDEST PUSH1 0x1F NOT DUP5 AND DUP6 LT PUSH2 0xAC3 JUMPI PUSH1 0x1 SWAP5 POP DUP4 PUSH1 0x1F NOT DUP2 AND LT PUSH2 0xAAA JUMPI JUMPDEST POP POP POP DUP2 SHL ADD PUSH2 0x161 SSTORE PUSH2 0x745 JUMP JUMPDEST ADD MLOAD PUSH1 0x0 NOT PUSH1 0xF8 DUP5 PUSH1 0x3 SHL AND SHR NOT AND SWAP1 SSTORE CODESIZE DUP1 DUP1 PUSH2 0xA9B JUMP JUMPDEST DUP2 DUP2 ADD MLOAD DUP4 SSTORE PUSH1 0x20 SWAP5 DUP6 ADD SWAP5 PUSH1 0x1 SWAP1 SWAP4 ADD SWAP3 SWAP1 SWAP2 ADD SWAP1 PUSH2 0xA80 JUMP JUMPDEST PUSH2 0xB27 SWAP1 PUSH2 0x161 DUP13 MSTORE PUSH32 0xAFBB1C043347995DF017CE3291B765E028AD5F784D2AA00C3F5E073760A4DE8B PUSH1 0x1F DUP6 ADD PUSH1 0x5 SHR DUP2 ADD SWAP2 PUSH1 0x20 DUP7 LT PUSH2 0xA2B JUMPI PUSH1 0x1F ADD PUSH1 0x5 SHR ADD SWAP1 PUSH2 0x3E38 JUMP JUMPDEST CODESIZE PUSH2 0x718 JUMP JUMPDEST PUSH4 0x4E487B71 PUSH1 0xE0 SHL DUP10 MSTORE PUSH1 0x41 PUSH1 0x4 MSTORE PUSH1 0x24 DUP10 REVERT JUMPDEST PUSH2 0xFFFF NOT AND PUSH2 0x101 OR DUP2 SSTORE CODESIZE PUSH2 0x66A JUMP JUMPDEST PUSH1 0x40 MLOAD PUSH3 0x461BCD PUSH1 0xE5 SHL DUP2 MSTORE PUSH1 0x20 PUSH1 0x4 DUP3 ADD MSTORE PUSH1 0x2E PUSH1 0x24 DUP3 ADD MSTORE PUSH32 0x496E697469616C697A61626C653A20636F6E747261637420697320616C726561 PUSH1 0x44 DUP3 ADD MSTORE PUSH14 0x191E481A5B9A5D1A585B1A5E9959 PUSH1 0x92 SHL PUSH1 0x64 DUP3 ADD MSTORE PUSH1 0x84 SWAP1 REVERT JUMPDEST POP ADDRESS EXTCODESIZE ISZERO DUP1 ISZERO PUSH2 0x645 JUMPI POP PUSH1 0x1 PUSH1 0xFF DUP5 AND EQ PUSH2 0x645 JUMP JUMPDEST POP PUSH1 0x1 PUSH1 0xFF DUP5 AND LT PUSH2 0x63E JUMP JUMPDEST PUSH1 0x0 DUP1 REVERT JUMPDEST DUP4 DUP1 REVERT JUMPDEST POP CALLVALUE PUSH2 0x351 JUMPI PUSH1 0x20 CALLDATASIZE PUSH1 0x3 NOT ADD SLT PUSH2 0x351 JUMPI PUSH2 0xBF5 PUSH2 0x33FE JUMP JUMPDEST PUSH2 0xBFD PUSH2 0x3A11 JUMP JUMPDEST PUSH1 0x1 PUSH1 0x1 PUSH1 0xA0 SHL SUB SWAP1 DUP2 AND PUSH1 0x0 DUP2 DUP2 MSTORE PUSH32 0x775AC87777436F29B0CD5453BF5DB4DA15D8938D0EF70DE831D2EDD17651CF67 PUSH1 0x20 MSTORE PUSH1 0x40 SWAP1 KECCAK256 SLOAD PUSH1 0x0 DUP1 MLOAD PUSH1 0x20 PUSH2 0x40E0 DUP4 CODECOPY DUP2 MLOAD SWAP2 MSTORE SWAP3 SWAP1 PUSH1 0xFF AND ISZERO PUSH2 0xC53 JUMPI DUP4 DUP1 RETURN JUMPDEST DUP3 PUSH1 0x0 MSTORE PUSH1 0xFB PUSH1 0x20 MSTORE PUSH1 0x40 PUSH1 0x0 KECCAK256 DUP3 PUSH1 0x0 MSTORE PUSH1 0x20 MSTORE PUSH1 0x40 PUSH1 0x0 KECCAK256 PUSH1 0x1 PUSH1 0xFF NOT DUP3 SLOAD AND OR SWAP1 SSTORE PUSH2 0xC80 PUSH2 0x4063 JUMP JUMPDEST AND SWAP2 PUSH1 0x0 DUP1 MLOAD PUSH1 0x20 PUSH2 0x40C0 DUP4 CODECOPY DUP2 MLOAD SWAP2 MSTORE PUSH1 0x0 DUP1 LOG4 CODESIZE DUP1 DUP1 DUP4 DUP1 RETURN JUMPDEST POP CALLVALUE PUSH2 0x351 JUMPI PUSH1 0x20 SWAP1 DUP2 PUSH1 0x3 NOT CALLDATASIZE ADD SLT PUSH2 0x351 JUMPI PUSH1 0x1 PUSH1 0x1 PUSH1 0x40 SHL SUB PUSH1 0x4 CALLDATALOAD DUP2 DUP2 GT PUSH2 0xE8F JUMPI PUSH2 0xCD0 SWAP1 CALLDATASIZE SWAP1 PUSH1 0x4 ADD PUSH2 0x3586 JUMP JUMPDEST SWAP4 PUSH2 0x12D SWAP5 PUSH1 0x2 DUP7 SLOAD EQ PUSH2 0xE4A JUMPI PUSH1 0x2 DUP7 SSTORE DUP3 ADD SWAP2 DUP2 DUP2 DUP5 SUB SLT PUSH2 0xE46 JUMPI DUP1 CALLDATALOAD SWAP1 DUP5 DUP3 GT PUSH2 0xE2A JUMPI ADD SWAP1 PUSH2 0x100 SWAP3 DUP4 DUP4 DUP3 SUB SLT PUSH2 0xE2A JUMPI PUSH1 0x40 MLOAD SWAP4 DUP5 ADD DUP5 DUP2 LT DUP7 DUP3 GT OR PUSH2 0xE32 JUMPI PUSH1 0x40 MSTORE PUSH2 0xD24 DUP4 PUSH2 0x3414 JUMP JUMPDEST DUP5 MSTORE DUP2 DUP4 ADD CALLDATALOAD DUP3 DUP6 ADD MSTORE PUSH1 0x40 DUP4 ADD CALLDATALOAD PUSH1 0x40 DUP6 ADD MSTORE PUSH1 0x60 DUP5 ADD SWAP3 PUSH1 0x60 DUP2 ADD CALLDATALOAD DUP5 MSTORE PUSH1 0x80 DUP2 ADD CALLDATALOAD PUSH1 0x80 DUP7 ADD MSTORE PUSH2 0xD5A PUSH1 0xA0 DUP3 ADD PUSH2 0x3414 JUMP JUMPDEST PUSH1 0xA0 DUP7 ADD MSTORE PUSH2 0xD6B PUSH1 0xC0 DUP3 ADD PUSH2 0x3414 JUMP JUMPDEST PUSH1 0xC0 DUP7 ADD MSTORE PUSH1 0xE0 DUP2 ADD CALLDATALOAD SWAP1 DUP7 DUP3 GT PUSH2 0xE2E JUMPI PUSH2 0xD88 SWAP3 SWAP2 ADD PUSH2 0x3530 JUMP JUMPDEST SWAP1 DUP2 PUSH1 0xE0 DUP6 ADD MSTORE PUSH1 0x1 DUP1 PUSH1 0xA0 SHL SUB DUP1 DUP4 MLOAD AND SWAP4 MLOAD SWAP5 MLOAD AND SWAP2 ADD MLOAD SWAP3 DUP3 EXTCODESIZE ISZERO PUSH2 0xE2A JUMPI SWAP2 PUSH2 0xDE3 SWAP5 SWAP4 SWAP2 DUP7 DUP1 SWAP5 PUSH1 0x40 MLOAD SWAP8 DUP9 SWAP6 DUP7 SWAP5 DUP6 SWAP4 PUSH4 0x1885C2F9 PUSH1 0xE0 SHL DUP6 MSTORE PUSH1 0x4 DUP6 ADD MSTORE PUSH1 0x24 DUP5 ADD MSTORE PUSH1 0x60 PUSH1 0x44 DUP5 ADD MSTORE PUSH1 0x64 DUP4 ADD SWAP1 PUSH2 0x35D6 JUMP JUMPDEST SUB SWAP3 GAS CALL DUP1 ISZERO PUSH2 0xE1F JUMPI PUSH2 0xDFA JUMPI JUMPDEST DUP3 PUSH1 0x1 DUP6 SSTORE DUP1 RETURN JUMPDEST DUP2 GT PUSH2 0xE0B JUMPI PUSH1 0x40 MSTORE PUSH1 0x1 CODESIZE PUSH2 0xDF2 JUMP JUMPDEST PUSH4 0x4E487B71 PUSH1 0xE0 SHL DUP3 MSTORE PUSH1 0x41 PUSH1 0x4 MSTORE PUSH1 0x24 DUP3 REVERT JUMPDEST PUSH1 0x40 MLOAD RETURNDATASIZE DUP6 DUP3 RETURNDATACOPY RETURNDATASIZE SWAP1 REVERT JUMPDEST DUP6 DUP1 REVERT JUMPDEST DUP8 DUP1 REVERT JUMPDEST PUSH4 0x4E487B71 PUSH1 0xE0 SHL DUP8 MSTORE PUSH1 0x41 PUSH1 0x4 MSTORE PUSH1 0x24 DUP8 REVERT JUMPDEST DUP5 DUP1 REVERT JUMPDEST PUSH1 0x40 MLOAD PUSH3 0x461BCD PUSH1 0xE5 SHL DUP2 MSTORE PUSH1 0x4 DUP2 ADD DUP4 SWAP1 MSTORE PUSH1 0x1F PUSH1 0x24 DUP3 ADD MSTORE PUSH32 0x5265656E7472616E637947756172643A207265656E7472616E742063616C6C00 PUSH1 0x44 DUP3 ADD MSTORE PUSH1 0x64 SWAP1 REVERT JUMPDEST DUP3 DUP1 REVERT JUMPDEST POP CALLVALUE PUSH2 0x351 JUMPI PUSH1 0x20 CALLDATASIZE PUSH1 0x3 NOT ADD SLT PUSH2 0x351 JUMPI PUSH2 0xEAD PUSH2 0x33FE JUMP JUMPDEST PUSH2 0xEB5 PUSH2 0x4063 JUMP JUMPDEST SWAP1 PUSH1 0x0 DUP1 MLOAD PUSH1 0x20 PUSH2 0x4140 DUP4 CODECOPY DUP2 MLOAD SWAP2 MSTORE DUP4 MSTORE PUSH1 0xFB PUSH1 0x20 MSTORE PUSH1 0x40 DUP4 KECCAK256 PUSH1 0x1 DUP1 PUSH1 0xA0 SHL SUB DUP1 SWAP4 AND DUP5 MSTORE PUSH1 0x20 MSTORE PUSH1 0xFF PUSH1 0x40 DUP5 KECCAK256 SLOAD AND DUP1 ISZERO PUSH2 0xF0E JUMPI JUMPDEST PUSH2 0xEF7 SWAP1 PUSH2 0x3E4F JUMP JUMPDEST AND PUSH1 0x1 PUSH1 0x1 PUSH1 0x60 SHL SUB PUSH1 0xA0 SHL PUSH1 0x97 SLOAD AND OR PUSH1 0x97 SSTORE DUP1 RETURN JUMPDEST POP PUSH2 0xEF7 DUP3 PUSH1 0x33 SLOAD AND DUP4 PUSH2 0xF20 PUSH2 0x4063 JUMP JUMPDEST AND EQ SWAP1 POP PUSH2 0xEEE JUMP JUMPDEST POP CALLVALUE PUSH2 0x351 JUMPI PUSH1 0x40 CALLDATASIZE PUSH1 0x3 NOT ADD SLT PUSH2 0x351 JUMPI PUSH2 0xF67 PUSH1 0x4 CALLDATALOAD PUSH2 0xF49 PUSH2 0x33E8 JUMP JUMPDEST SWAP1 DUP1 DUP5 MSTORE PUSH1 0xFB PUSH1 0x20 MSTORE PUSH2 0xF62 PUSH1 0x1 PUSH1 0x40 DUP7 KECCAK256 ADD SLOAD PUSH2 0x35FB JUMP JUMPDEST PUSH2 0x3997 JUMP JUMPDEST DUP1 RETURN JUMPDEST POP CALLVALUE PUSH2 0x351 JUMPI PUSH1 0x20 CALLDATASIZE PUSH1 0x3 NOT ADD SLT PUSH2 0x351 JUMPI PUSH2 0xF84 PUSH2 0x33FE JUMP JUMPDEST PUSH2 0xF8C PUSH2 0x3A11 JUMP JUMPDEST PUSH1 0x0 DUP1 MLOAD PUSH1 0x20 PUSH2 0x40E0 DUP4 CODECOPY DUP2 MLOAD SWAP2 MSTORE DUP1 DUP4 MSTORE PUSH1 0xFB PUSH1 0x20 SWAP1 DUP2 MSTORE PUSH1 0x40 DUP1 DUP6 KECCAK256 PUSH1 0x1 PUSH1 0x1 PUSH1 0xA0 SHL SUB SWAP5 DUP6 AND DUP1 DUP8 MSTORE SWAP3 MSTORE DUP5 KECCAK256 SLOAD SWAP2 SWAP3 SWAP1 SWAP2 PUSH1 0xFF AND PUSH2 0xFCC JUMPI DUP4 DUP1 RETURN JUMPDEST DUP3 DUP5 MSTORE PUSH1 0xFB PUSH1 0x20 MSTORE PUSH1 0x40 DUP5 KECCAK256 DUP3 DUP6 MSTORE PUSH1 0x20 MSTORE PUSH1 0x40 DUP5 KECCAK256 PUSH1 0xFF NOT DUP2 SLOAD AND SWAP1 SSTORE PUSH2 0xFF2 PUSH2 0x4063 JUMP JUMPDEST AND SWAP2 PUSH1 0x0 DUP1 MLOAD PUSH1 0x20 PUSH2 0x4160 DUP4 CODECOPY DUP2 MLOAD SWAP2 MSTORE DUP5 DUP1 LOG4 CODESIZE DUP1 DUP1 DUP4 DUP1 RETURN JUMPDEST POP CALLVALUE PUSH2 0x351 JUMPI PUSH1 0x20 CALLDATASIZE PUSH1 0x3 NOT ADD SLT PUSH2 0x351 JUMPI PUSH2 0x103C PUSH1 0x1 PUSH1 0x40 PUSH2 0x3BC SWAP4 PUSH1 0x4 CALLDATALOAD DUP2 MSTORE PUSH2 0x1F9 PUSH1 0x20 MSTORE KECCAK256 ADD PUSH2 0x3D32 JUMP JUMPDEST PUSH1 0x40 MLOAD SWAP2 DUP3 SWAP2 PUSH1 0x20 DUP4 MSTORE PUSH1 0x20 DUP4 ADD SWAP1 PUSH2 0x35D6 JUMP JUMPDEST POP CALLVALUE PUSH2 0x351 JUMPI DUP1 PUSH1 0x3 NOT CALLDATASIZE ADD SLT PUSH2 0x351 JUMPI PUSH1 0x97 SLOAD PUSH1 0x40 MLOAD PUSH1 0x1 PUSH1 0x1 PUSH1 0xA0 SHL SUB SWAP1 SWAP2 AND DUP2 MSTORE PUSH1 0x20 SWAP1 RETURN JUMPDEST POP CALLVALUE PUSH2 0x351 JUMPI PUSH1 0x3 NOT SWAP1 PUSH1 0x80 CALLDATASIZE DUP4 ADD SLT PUSH2 0x351 JUMPI PUSH1 0x4 CALLDATALOAD PUSH1 0x24 CALLDATALOAD SWAP3 PUSH1 0x44 CALLDATALOAD SWAP1 PUSH1 0x1 PUSH1 0x1 PUSH1 0x40 SHL SUB DUP3 GT PUSH2 0xBD7 JUMPI PUSH1 0x40 SWAP1 DUP3 PUSH1 0x4 ADD SWAP3 CALLDATASIZE SUB ADD SLT PUSH2 0xE8F JUMPI DUP4 DUP4 MSTORE PUSH2 0x1F9 PUSH1 0x20 SWAP5 DUP2 DUP7 MSTORE PUSH2 0x10D5 PUSH1 0xFF PUSH1 0x40 DUP8 KECCAK256 SLOAD PUSH1 0xA0 SHR AND PUSH2 0x3ED2 JUMP JUMPDEST PUSH1 0x1 PUSH1 0x1 PUSH1 0xA0 SHL SUB SWAP3 DUP1 CALLDATALOAD DUP5 DUP2 AND SWAP1 DUP2 SWAP1 SUB PUSH2 0x1251 JUMPI SWAP2 PUSH2 0x119D PUSH2 0x11CB SWAP8 SWAP7 SWAP5 SWAP3 PUSH2 0x1103 DUP11 SWAP8 SWAP6 ISZERO ISZERO PUSH2 0x3E91 JUMP JUMPDEST PUSH2 0x110F CHAINID DUP8 EQ ISZERO PUSH2 0x3F15 JUMP JUMPDEST DUP6 DUP9 MSTORE PUSH2 0x1FA DUP1 DUP9 MSTORE PUSH2 0x1129 DUP7 PUSH1 0x40 DUP12 KECCAK256 SLOAD AND ISZERO ISZERO PUSH2 0x3F73 JUMP JUMPDEST PUSH2 0x1131 PUSH2 0x4063 JUMP JUMPDEST SWAP7 DUP7 PUSH2 0x113B PUSH2 0x4063 JUMP JUMPDEST AND DUP11 MSTORE PUSH2 0x1FB DUP10 MSTORE PUSH1 0x40 DUP11 KECCAK256 CHAINID DUP12 MSTORE DUP10 MSTORE PUSH1 0x40 DUP11 KECCAK256 DUP2 DUP12 MSTORE DUP10 MSTORE PUSH1 0x40 DUP11 KECCAK256 SLOAD SWAP2 DUP10 MSTORE DUP7 PUSH1 0x40 DUP12 KECCAK256 SLOAD AND SWAP2 DUP8 PUSH1 0x40 MLOAD SWAP10 PUSH2 0x1173 DUP12 PUSH2 0x3428 JUMP JUMPDEST AND DUP10 MSTORE DUP10 DUP10 ADD MSTORE DUP5 PUSH1 0x40 DUP10 ADD MSTORE CHAINID PUSH1 0x60 DUP10 ADD MSTORE PUSH1 0x80 DUP9 ADD MSTORE ADDRESS PUSH1 0xA0 DUP9 ADD MSTORE PUSH1 0xC0 DUP8 ADD MSTORE CALLDATASIZE SWAP1 PUSH2 0x3530 JUMP JUMPDEST PUSH1 0xE0 DUP6 ADD MSTORE DUP6 MSTORE DUP4 MSTORE PUSH1 0x40 DUP5 KECCAK256 SLOAD AND PUSH1 0x40 MLOAD DUP1 DUP1 SWAP7 DUP2 SWAP5 PUSH4 0x181285CB PUSH1 0xE2 SHL DUP4 MSTORE PUSH1 0x64 CALLDATALOAD SWAP1 PUSH1 0x4 DUP5 ADD PUSH2 0x3FD4 JUMP JUMPDEST SUB SWAP2 GAS STATICCALL SWAP2 DUP3 ISZERO PUSH2 0x1244 JUMPI DUP2 SWAP3 PUSH2 0x1215 JUMPI JUMPDEST POP PUSH2 0x2710 PUSH2 0x11EE PUSH2 0x1FD SLOAD DUP5 PUSH2 0x3CA8 JUMP JUMPDEST DIV DUP3 ADD DUP1 SWAP3 GT PUSH2 0x1201 JUMPI POP PUSH1 0x40 MLOAD SWAP1 DUP2 MSTORE RETURN JUMPDEST PUSH4 0x4E487B71 PUSH1 0xE0 SHL DUP2 MSTORE PUSH1 0x11 PUSH1 0x4 MSTORE PUSH1 0x24 SWAP1 REVERT JUMPDEST SWAP1 SWAP2 POP DUP3 DUP2 DUP2 RETURNDATASIZE DUP4 GT PUSH2 0x123D JUMPI JUMPDEST PUSH2 0x122D DUP2 DUP4 PUSH2 0x3475 JUMP JUMPDEST DUP2 ADD SUB SLT PUSH2 0x56D JUMPI MLOAD SWAP1 CODESIZE PUSH2 0x11DD JUMP JUMPDEST POP RETURNDATASIZE PUSH2 0x1223 JUMP JUMPDEST POP PUSH1 0x40 MLOAD SWAP1 RETURNDATASIZE SWAP1 DUP3 RETURNDATACOPY RETURNDATASIZE SWAP1 REVERT JUMPDEST DUP7 DUP1 REVERT JUMPDEST POP CALLVALUE PUSH2 0x351 JUMPI DUP1 PUSH1 0x3 NOT CALLDATASIZE ADD SLT PUSH2 0x351 JUMPI PUSH2 0x1F7 SLOAD PUSH1 0x40 MLOAD PUSH1 0x1 PUSH1 0x1 PUSH1 0xA0 SHL SUB SWAP1 SWAP2 AND DUP2 MSTORE PUSH1 0x20 SWAP1 RETURN JUMPDEST POP CALLVALUE PUSH2 0x351 JUMPI PUSH1 0x20 CALLDATASIZE PUSH1 0x3 NOT ADD SLT PUSH2 0x351 JUMPI PUSH2 0x1299 PUSH2 0x33FE JUMP JUMPDEST PUSH2 0x12A1 PUSH2 0x3A11 JUMP JUMPDEST PUSH1 0x0 DUP1 MLOAD PUSH1 0x20 PUSH2 0x4140 DUP4 CODECOPY DUP2 MLOAD SWAP2 MSTORE DUP1 DUP4 MSTORE PUSH1 0xFB PUSH1 0x20 SWAP1 DUP2 MSTORE PUSH1 0x40 DUP1 DUP6 KECCAK256 PUSH1 0x1 PUSH1 0x1 PUSH1 0xA0 SHL SUB SWAP5 DUP6 AND DUP1 DUP8 MSTORE SWAP3 MSTORE DUP5 KECCAK256 SLOAD SWAP2 SWAP3 SWAP1 SWAP2 PUSH1 0xFF AND ISZERO PUSH2 0x12E2 JUMPI DUP4 DUP1 RETURN JUMPDEST DUP3 DUP5 MSTORE PUSH1 0xFB PUSH1 0x20 MSTORE PUSH1 0x40 DUP5 KECCAK256 DUP3 DUP6 MSTORE PUSH1 0x20 MSTORE PUSH1 0x40 DUP5 KECCAK256 PUSH1 0x1 PUSH1 0xFF NOT DUP3 SLOAD AND OR SWAP1 SSTORE PUSH2 0x130B PUSH2 0x4063 JUMP JUMPDEST AND SWAP2 PUSH1 0x0 DUP1 MLOAD PUSH1 0x20 PUSH2 0x40C0 DUP4 CODECOPY DUP2 MLOAD SWAP2 MSTORE DUP5 DUP1 LOG4 CODESIZE DUP1 DUP1 DUP4 DUP1 RETURN JUMPDEST POP CALLVALUE PUSH2 0x351 JUMPI DUP1 PUSH1 0x3 NOT CALLDATASIZE ADD SLT PUSH2 0x351 JUMPI PUSH2 0x1FE SLOAD PUSH1 0x40 MLOAD PUSH1 0x1 PUSH1 0x1 PUSH1 0xA0 SHL SUB SWAP1 SWAP2 AND DUP2 MSTORE PUSH1 0x20 SWAP1 RETURN JUMPDEST POP CALLVALUE PUSH2 0x351 JUMPI DUP1 PUSH1 0x3 NOT CALLDATASIZE ADD SLT PUSH2 0x351 JUMPI PUSH1 0x20 SWAP1 PUSH1 0x40 MLOAD SWAP1 DUP2 MSTORE RETURN JUMPDEST POP CALLVALUE PUSH2 0x351 JUMPI PUSH1 0x20 CALLDATASIZE PUSH1 0x3 NOT ADD SLT PUSH2 0x351 JUMPI PUSH1 0x20 PUSH2 0x2710 PUSH2 0x1392 PUSH2 0x1FD SLOAD PUSH1 0x4 CALLDATALOAD PUSH2 0x3CA8 JUMP JUMPDEST DIV PUSH1 0x40 MLOAD SWAP1 DUP2 MSTORE RETURN JUMPDEST POP CALLVALUE PUSH2 0x351 JUMPI PUSH1 0x40 CALLDATASIZE PUSH1 0x3 NOT ADD SLT PUSH2 0x351 JUMPI PUSH2 0x13B5 PUSH2 0x33E8 JUMP JUMPDEST PUSH2 0x13BD PUSH2 0x4063 JUMP JUMPDEST PUSH1 0x0 DUP1 MLOAD PUSH1 0x20 PUSH2 0x4140 DUP4 CODECOPY DUP2 MLOAD SWAP2 MSTORE DUP4 MSTORE PUSH1 0xFB PUSH1 0x20 SWAP1 DUP2 MSTORE PUSH1 0x40 DUP1 DUP6 KECCAK256 PUSH1 0x1 PUSH1 0x1 PUSH1 0xA0 SHL SUB SWAP4 DUP5 AND DUP7 MSTORE SWAP1 SWAP2 MSTORE DUP4 KECCAK256 SLOAD PUSH1 0xFF AND DUP1 ISZERO PUSH2 0x1425 JUMPI JUMPDEST PUSH2 0x1400 SWAP1 PUSH2 0x3E4F JUMP JUMPDEST PUSH1 0x4 CALLDATALOAD DUP4 MSTORE PUSH2 0x1FA PUSH1 0x20 MSTORE PUSH1 0x40 DUP4 KECCAK256 SWAP2 AND PUSH1 0x1 PUSH1 0x1 PUSH1 0x60 SHL SUB PUSH1 0xA0 SHL DUP3 SLOAD AND OR SWAP1 SSTORE DUP1 RETURN JUMPDEST POP PUSH2 0x1400 DUP2 PUSH1 0x33 SLOAD AND DUP3 PUSH2 0x1437 PUSH2 0x4063 JUMP JUMPDEST AND EQ SWAP1 POP PUSH2 0x13F7 JUMP JUMPDEST POP CALLVALUE PUSH2 0x351 JUMPI PUSH1 0x40 CALLDATASIZE PUSH1 0x3 NOT ADD SLT PUSH2 0x351 JUMPI PUSH1 0xFF PUSH1 0x40 PUSH1 0x20 SWAP3 PUSH2 0x1461 PUSH2 0x33E8 JUMP JUMPDEST PUSH1 0x4 CALLDATALOAD DUP3 MSTORE PUSH1 0xFB DUP6 MSTORE DUP3 DUP3 KECCAK256 PUSH1 0x1 PUSH1 0x1 PUSH1 0xA0 SHL SUB SWAP1 SWAP2 AND DUP3 MSTORE DUP5 MSTORE KECCAK256 SLOAD PUSH1 0x40 MLOAD SWAP2 AND ISZERO ISZERO DUP2 MSTORE RETURN JUMPDEST POP CALLVALUE PUSH2 0x351 JUMPI DUP1 PUSH1 0x3 NOT CALLDATASIZE ADD SLT PUSH2 0x351 JUMPI PUSH1 0x33 SLOAD PUSH1 0x40 MLOAD PUSH1 0x1 PUSH1 0x1 PUSH1 0xA0 SHL SUB SWAP1 SWAP2 AND DUP2 MSTORE PUSH1 0x20 SWAP1 RETURN JUMPDEST POP CALLVALUE PUSH2 0x351 JUMPI DUP1 PUSH1 0x3 NOT CALLDATASIZE ADD SLT PUSH2 0x351 JUMPI PUSH2 0x1F8 SLOAD PUSH1 0x40 MLOAD PUSH1 0x1 PUSH1 0x1 PUSH1 0xA0 SHL SUB SWAP1 SWAP2 AND DUP2 MSTORE PUSH1 0x20 SWAP1 RETURN JUMPDEST POP CALLVALUE PUSH2 0x351 JUMPI DUP1 PUSH1 0x3 NOT CALLDATASIZE ADD SLT PUSH2 0x351 JUMPI PUSH2 0x15F SLOAD ISZERO DUP1 PUSH2 0x174C JUMPI JUMPDEST ISZERO PUSH2 0x170F JUMPI PUSH1 0x40 MLOAD DUP2 PUSH2 0x161 DUP3 DUP2 SLOAD SWAP5 PUSH2 0x1511 DUP7 PUSH2 0x3CF8 JUMP JUMPDEST SWAP3 DUP4 DUP4 MSTORE PUSH1 0x1 SWAP7 DUP8 DUP2 AND SWAP1 DUP2 PUSH1 0x0 EQ PUSH2 0x16ED JUMPI POP PUSH1 0x1 EQ PUSH2 0x1690 JUMPI JUMPDEST POP PUSH2 0x153A SWAP3 POP SUB DUP4 PUSH2 0x3475 JUMP JUMPDEST PUSH1 0x40 MLOAD SWAP1 DUP1 DUP3 PUSH2 0x162 SWAP2 DUP3 SLOAD SWAP3 PUSH2 0x1550 DUP5 PUSH2 0x3CF8 JUMP JUMPDEST DUP1 DUP5 MSTORE SWAP4 DUP9 DUP2 AND SWAP1 DUP2 ISZERO PUSH2 0x166E JUMPI POP PUSH1 0x1 EQ PUSH2 0x1611 JUMPI JUMPDEST POP PUSH2 0x1574 SWAP3 POP SUB DUP4 PUSH2 0x3475 JUMP JUMPDEST PUSH1 0x40 MLOAD SWAP1 PUSH1 0x20 SWAP1 DUP2 DUP4 ADD SWAP4 DUP4 DUP6 LT PUSH1 0x1 PUSH1 0x1 PUSH1 0x40 SHL SUB DUP7 GT OR PUSH2 0xE0B JUMPI SWAP3 DUP3 DUP8 SWAP4 PUSH2 0x15CD DUP9 SWAP7 DUP9 PUSH1 0x40 MSTORE DUP6 DUP6 MSTORE PUSH2 0x15BF PUSH1 0x40 MLOAD SWAP9 PUSH1 0xF PUSH1 0xF8 SHL DUP11 MSTORE PUSH1 0xE0 DUP6 DUP12 ADD MSTORE PUSH1 0xE0 DUP11 ADD SWAP1 PUSH2 0x35D6 JUMP JUMPDEST SWAP1 DUP9 DUP3 SUB PUSH1 0x40 DUP11 ADD MSTORE PUSH2 0x35D6 JUMP JUMPDEST SWAP3 CHAINID PUSH1 0x60 DUP9 ADD MSTORE ADDRESS PUSH1 0x80 DUP9 ADD MSTORE DUP5 PUSH1 0xA0 DUP9 ADD MSTORE DUP7 DUP5 SUB PUSH1 0xC0 DUP9 ADD MSTORE MLOAD SWAP3 DUP4 DUP2 MSTORE ADD SWAP6 SWAP3 JUMPDEST DUP3 DUP2 LT PUSH2 0x15FE JUMPI DUP6 DUP8 SUB DUP7 RETURN JUMPDEST DUP4 MLOAD DUP8 MSTORE SWAP6 DUP2 ADD SWAP6 SWAP3 DUP2 ADD SWAP3 DUP5 ADD PUSH2 0x15F1 JUMP JUMPDEST DUP5 MSTORE POP SWAP1 DUP3 SWAP1 DUP7 PUSH32 0x29AF0939A5988989BFEE913A9AD10B9335CB63EBC9FD2B69E5F877D0455AC919 JUMPDEST DUP3 DUP5 LT PUSH2 0x1654 JUMPI POP POP POP SWAP1 PUSH1 0x20 PUSH2 0x1574 SWAP3 DUP3 ADD ADD CODESIZE PUSH2 0x1567 JUMP JUMPDEST PUSH1 0x20 SWAP3 SWAP5 POP DUP1 SLOAD DUP4 DUP6 DUP10 ADD ADD MSTORE ADD SWAP2 ADD SWAP1 SWAP2 DUP7 DUP6 SWAP4 PUSH2 0x163A JUMP JUMPDEST SWAP1 POP PUSH1 0x20 SWAP3 POP PUSH2 0x1574 SWAP5 SWAP2 POP PUSH1 0xFF NOT AND DUP3 DUP5 ADD MSTORE ISZERO ISZERO PUSH1 0x5 SHL DUP3 ADD ADD CODESIZE PUSH2 0x1567 JUMP JUMPDEST DUP5 MSTORE POP SWAP1 DUP3 SWAP1 DUP6 PUSH32 0xAFBB1C043347995DF017CE3291B765E028AD5F784D2AA00C3F5E073760A4DE8B JUMPDEST DUP3 DUP5 LT PUSH2 0x16D3 JUMPI POP POP POP SWAP1 PUSH1 0x20 PUSH2 0x153A SWAP3 DUP3 ADD ADD CODESIZE PUSH2 0x152D JUMP JUMPDEST PUSH1 0x20 SWAP3 SWAP5 POP DUP1 SLOAD DUP4 DUP6 DUP10 ADD ADD MSTORE ADD SWAP2 ADD SWAP1 SWAP2 DUP6 DUP6 SWAP4 PUSH2 0x16B9 JUMP JUMPDEST SWAP1 POP PUSH1 0x20 SWAP3 POP PUSH2 0x153A SWAP5 SWAP2 POP PUSH1 0xFF NOT AND DUP3 DUP5 ADD MSTORE ISZERO ISZERO PUSH1 0x5 SHL DUP3 ADD ADD CODESIZE PUSH2 0x152D JUMP JUMPDEST PUSH1 0x40 MLOAD PUSH3 0x461BCD PUSH1 0xE5 SHL DUP2 MSTORE PUSH1 0x20 PUSH1 0x4 DUP3 ADD MSTORE PUSH1 0x15 PUSH1 0x24 DUP3 ADD MSTORE PUSH21 0x1152540DCC4C8E88155B9A5B9A5D1A585B1A5E9959 PUSH1 0x5A SHL PUSH1 0x44 DUP3 ADD MSTORE PUSH1 0x64 SWAP1 REVERT JUMPDEST POP PUSH2 0x160 SLOAD ISZERO PUSH2 0x14F8 JUMP JUMPDEST POP CALLVALUE PUSH2 0x351 JUMPI DUP1 PUSH1 0x3 NOT CALLDATASIZE ADD SLT PUSH2 0x351 JUMPI PUSH2 0x1770 PUSH2 0x4063 JUMP JUMPDEST PUSH1 0x0 DUP1 MLOAD PUSH1 0x20 PUSH2 0x4120 DUP4 CODECOPY DUP2 MLOAD SWAP2 MSTORE DUP3 MSTORE PUSH1 0xFB PUSH1 0x20 SWAP1 DUP2 MSTORE PUSH1 0x40 DUP1 DUP5 KECCAK256 PUSH1 0x1 PUSH1 0x1 PUSH1 0xA0 SHL SUB SWAP4 DUP5 AND DUP6 MSTORE DUP3 MSTORE DUP4 KECCAK256 SLOAD SWAP1 SWAP2 SWAP1 PUSH1 0xFF AND DUP1 ISZERO PUSH2 0x1863 JUMPI JUMPDEST DUP1 ISZERO PUSH2 0x1848 JUMPI JUMPDEST PUSH2 0x17BC SWAP1 PUSH2 0x3E4F JUMP JUMPDEST PUSH1 0x97 SLOAD PUSH1 0xFF DUP2 PUSH1 0xA0 SHR AND PUSH2 0x1810 JUMPI PUSH1 0xFF PUSH1 0xA0 SHL NOT AND PUSH1 0x1 PUSH1 0xA0 SHL OR PUSH1 0x97 SSTORE PUSH32 0x62E78CEA01BEE320CD4E420270B5EA74000D11B0C9F74754EBDBFC544B05A258 SWAP2 SWAP1 PUSH2 0x1805 PUSH2 0x4063 JUMP JUMPDEST PUSH1 0x40 MLOAD SWAP2 AND DUP2 MSTORE LOG1 DUP1 RETURN JUMPDEST PUSH1 0x40 MLOAD PUSH3 0x461BCD PUSH1 0xE5 SHL DUP2 MSTORE PUSH1 0x4 DUP2 ADD DUP5 SWAP1 MSTORE PUSH1 0x10 PUSH1 0x24 DUP3 ADD MSTORE PUSH16 0x14185D5CD8589B194E881C185D5CD959 PUSH1 0x82 SHL PUSH1 0x44 DUP3 ADD MSTORE PUSH1 0x64 SWAP1 REVERT JUMPDEST POP PUSH2 0x17BC DUP2 PUSH1 0x33 SLOAD AND DUP3 PUSH2 0x185A PUSH2 0x4063 JUMP JUMPDEST AND EQ SWAP1 POP PUSH2 0x17B3 JUMP JUMPDEST POP PUSH2 0x186C PUSH2 0x4063 JUMP JUMPDEST PUSH1 0x0 DUP1 MLOAD PUSH1 0x20 PUSH2 0x4140 DUP4 CODECOPY DUP2 MLOAD SWAP2 MSTORE DUP5 MSTORE PUSH1 0xFB DUP4 MSTORE DUP2 PUSH1 0x40 DUP6 KECCAK256 SWAP2 AND DUP5 MSTORE DUP3 MSTORE PUSH1 0xFF PUSH1 0x40 DUP5 KECCAK256 SLOAD AND PUSH2 0x17AC JUMP JUMPDEST POP CALLVALUE PUSH2 0x351 JUMPI PUSH1 0x20 DUP1 PUSH1 0x3 NOT CALLDATASIZE ADD SLT PUSH2 0x56D JUMPI PUSH2 0x18B4 PUSH2 0x33FE JUMP JUMPDEST PUSH2 0x18BC PUSH2 0x4063 JUMP JUMPDEST PUSH1 0x0 DUP1 MLOAD PUSH1 0x20 PUSH2 0x4140 DUP4 CODECOPY DUP2 MLOAD SWAP2 MSTORE DUP5 MSTORE PUSH1 0xFB DUP4 MSTORE PUSH1 0x40 DUP1 DUP6 KECCAK256 PUSH1 0x1 PUSH1 0x1 PUSH1 0xA0 SHL SUB SWAP3 DUP4 AND DUP7 MSTORE DUP5 MSTORE DUP5 KECCAK256 SLOAD PUSH1 0xFF AND DUP1 ISZERO PUSH2 0x1973 JUMPI JUMPDEST PUSH2 0x18FB SWAP1 PUSH2 0x3E4F JUMP JUMPDEST PUSH1 0x0 DUP1 MLOAD PUSH1 0x20 PUSH2 0x4120 DUP4 CODECOPY DUP2 MLOAD SWAP2 MSTORE SWAP3 DUP4 DUP6 MSTORE PUSH1 0xFB DUP2 MSTORE DUP2 PUSH1 0x40 DUP7 KECCAK256 SWAP4 AND SWAP3 DUP4 DUP7 MSTORE DUP2 MSTORE PUSH1 0xFF PUSH1 0x40 DUP7 KECCAK256 SLOAD AND ISZERO PUSH2 0x1930 JUMPI DUP5 DUP1 RETURN JUMPDEST DUP4 DUP6 MSTORE PUSH1 0xFB DUP2 MSTORE PUSH1 0x40 DUP6 KECCAK256 SWAP1 DUP4 DUP7 MSTORE MSTORE PUSH1 0x40 DUP5 KECCAK256 PUSH1 0x1 PUSH1 0xFF NOT DUP3 SLOAD AND OR SWAP1 SSTORE PUSH2 0x1957 PUSH2 0x4063 JUMP JUMPDEST AND SWAP2 PUSH1 0x0 DUP1 MLOAD PUSH1 0x20 PUSH2 0x40C0 DUP4 CODECOPY DUP2 MLOAD SWAP2 MSTORE DUP5 DUP1 LOG4 CODESIZE DUP1 DUP1 DUP1 DUP5 DUP1 RETURN JUMPDEST POP PUSH2 0x18FB DUP2 PUSH1 0x33 SLOAD AND DUP3 PUSH2 0x1985 PUSH2 0x4063 JUMP JUMPDEST AND EQ SWAP1 POP PUSH2 0x18F2 JUMP JUMPDEST POP CALLVALUE PUSH2 0x351 JUMPI DUP1 PUSH1 0x3 NOT CALLDATASIZE ADD SLT PUSH2 0x351 JUMPI PUSH1 0x20 PUSH2 0x1FD SLOAD PUSH1 0x40 MLOAD SWAP1 DUP2 MSTORE RETURN JUMPDEST POP CALLVALUE PUSH2 0x351 JUMPI PUSH1 0x20 CALLDATASIZE PUSH1 0x3 NOT ADD SLT PUSH2 0x351 JUMPI PUSH1 0x20 SWAP1 PUSH1 0x4 CALLDATALOAD DUP2 MSTORE PUSH2 0x1FA DUP3 MSTORE PUSH1 0x40 PUSH1 0x1 DUP1 PUSH1 0xA0 SHL SUB SWAP2 KECCAK256 SLOAD AND PUSH1 0x40 MLOAD SWAP1 DUP2 MSTORE RETURN JUMPDEST POP CALLVALUE PUSH2 0x351 JUMPI PUSH1 0x20 CALLDATASIZE PUSH1 0x3 NOT ADD SLT PUSH2 0x351 JUMPI PUSH2 0x1A3F PUSH2 0x19FE PUSH2 0x4063 JUMP JUMPDEST PUSH1 0x0 DUP1 MLOAD PUSH1 0x20 PUSH2 0x4140 DUP4 CODECOPY DUP2 MLOAD SWAP2 MSTORE DUP4 MSTORE PUSH1 0xFB PUSH1 0x20 SWAP1 DUP2 MSTORE PUSH1 0x40 DUP1 DUP6 KECCAK256 PUSH1 0x1 PUSH1 0x1 PUSH1 0xA0 SHL SUB SWAP4 DUP5 AND DUP7 MSTORE SWAP1 SWAP2 MSTORE DUP4 KECCAK256 SLOAD PUSH1 0xFF AND SWAP1 DUP2 ISZERO PUSH2 0x1A49 JUMPI JUMPDEST POP PUSH2 0x3E4F JUMP JUMPDEST PUSH1 0x4 CALLDATALOAD PUSH2 0x1FD SSTORE DUP1 RETURN JUMPDEST PUSH1 0x33 SLOAD DUP2 AND SWAP2 POP PUSH2 0x1A58 PUSH2 0x4063 JUMP JUMPDEST AND EQ CODESIZE PUSH2 0x1A39 JUMP JUMPDEST POP CALLVALUE PUSH2 0x351 JUMPI DUP1 PUSH1 0x3 NOT CALLDATASIZE ADD SLT PUSH2 0x351 JUMPI PUSH1 0x20 PUSH1 0x40 MLOAD PUSH1 0x0 DUP1 MLOAD PUSH1 0x20 PUSH2 0x4180 DUP4 CODECOPY DUP2 MLOAD SWAP2 MSTORE DUP2 MSTORE RETURN JUMPDEST POP CALLVALUE PUSH2 0x351 JUMPI DUP1 PUSH1 0x3 NOT CALLDATASIZE ADD SLT PUSH2 0x351 JUMPI PUSH2 0x1AA2 PUSH2 0x3A11 JUMP JUMPDEST PUSH1 0x33 DUP1 SLOAD PUSH1 0x1 PUSH1 0x1 PUSH1 0xA0 SHL SUB NOT DUP2 AND SWAP1 SWAP2 SSTORE DUP2 SWAP1 PUSH1 0x1 PUSH1 0x1 PUSH1 0xA0 SHL SUB AND PUSH32 0x8BE0079C531659141344CD1FD0A4F28419497F9722A3DAAFE3B4186F6B6457E0 DUP3 DUP1 LOG3 DUP1 RETURN JUMPDEST POP CALLVALUE PUSH2 0x351 JUMPI PUSH1 0x20 DUP1 PUSH1 0x3 NOT CALLDATASIZE ADD SLT PUSH2 0x56D JUMPI PUSH2 0x1B01 PUSH2 0x33FE JUMP JUMPDEST PUSH2 0x1B09 PUSH2 0x4063 JUMP JUMPDEST PUSH1 0x0 DUP1 MLOAD PUSH1 0x20 PUSH2 0x4140 DUP4 CODECOPY DUP2 MLOAD SWAP2 MSTORE DUP5 MSTORE PUSH1 0xFB DUP4 MSTORE PUSH1 0x40 DUP1 DUP6 KECCAK256 PUSH1 0x1 PUSH1 0x1 PUSH1 0xA0 SHL SUB SWAP3 DUP4 AND DUP7 MSTORE DUP5 MSTORE DUP5 KECCAK256 SLOAD PUSH1 0xFF AND DUP1 ISZERO PUSH2 0x1B7D JUMPI JUMPDEST PUSH2 0x1B48 SWAP1 PUSH2 0x3E4F JUMP JUMPDEST PUSH1 0x0 DUP1 MLOAD PUSH1 0x20 PUSH2 0x4180 DUP4 CODECOPY DUP2 MLOAD SWAP2 MSTORE SWAP3 DUP4 DUP6 MSTORE PUSH1 0xFB DUP2 MSTORE DUP2 PUSH1 0x40 DUP7 KECCAK256 SWAP4 AND SWAP3 DUP4 DUP7 MSTORE DUP2 MSTORE PUSH1 0xFF PUSH1 0x40 DUP7 KECCAK256 SLOAD AND ISZERO PUSH2 0x1930 JUMPI DUP5 DUP1 RETURN JUMPDEST POP PUSH2 0x1B48 DUP2 PUSH1 0x33 SLOAD AND DUP3 PUSH2 0x1B8F PUSH2 0x4063 JUMP JUMPDEST AND EQ SWAP1 POP PUSH2 0x1B3F JUMP JUMPDEST POP CALLVALUE PUSH2 0x351 JUMPI PUSH1 0x20 DUP1 PUSH1 0x3 NOT CALLDATASIZE ADD SLT PUSH2 0x56D JUMPI PUSH2 0x1BB3 PUSH2 0x33FE JUMP JUMPDEST PUSH2 0x1BBB PUSH2 0x4063 JUMP JUMPDEST PUSH1 0x0 DUP1 MLOAD PUSH1 0x20 PUSH2 0x4140 DUP4 CODECOPY DUP2 MLOAD SWAP2 MSTORE DUP5 MSTORE PUSH1 0xFB DUP4 MSTORE PUSH1 0x40 DUP1 DUP6 KECCAK256 PUSH1 0x1 PUSH1 0x1 PUSH1 0xA0 SHL SUB SWAP3 DUP4 AND DUP7 MSTORE DUP5 MSTORE DUP5 KECCAK256 SLOAD PUSH1 0xFF AND DUP1 ISZERO PUSH2 0x1C6E JUMPI JUMPDEST PUSH2 0x1BFA SWAP1 PUSH2 0x3E4F JUMP JUMPDEST PUSH1 0x0 DUP1 MLOAD PUSH1 0x20 PUSH2 0x4120 DUP4 CODECOPY DUP2 MLOAD SWAP2 MSTORE SWAP3 DUP4 DUP6 MSTORE PUSH1 0xFB DUP2 MSTORE DUP2 PUSH1 0x40 DUP7 KECCAK256 SWAP4 AND SWAP3 DUP4 DUP7 MSTORE DUP2 MSTORE PUSH1 0xFF PUSH1 0x40 DUP7 KECCAK256 SLOAD AND PUSH2 0x1C2E JUMPI DUP5 DUP1 RETURN JUMPDEST DUP4 DUP6 MSTORE PUSH1 0xFB DUP2 MSTORE PUSH1 0x40 DUP6 KECCAK256 SWAP1 DUP4 DUP7 MSTORE MSTORE PUSH1 0x40 DUP5 KECCAK256 PUSH1 0xFF NOT DUP2 SLOAD AND SWAP1 SSTORE PUSH2 0x1C52 PUSH2 0x4063 JUMP JUMPDEST AND SWAP2 PUSH1 0x0 DUP1 MLOAD PUSH1 0x20 PUSH2 0x4160 DUP4 CODECOPY DUP2 MLOAD SWAP2 MSTORE DUP5 DUP1 LOG4 CODESIZE DUP1 DUP1 DUP1 DUP5 DUP1 RETURN JUMPDEST POP PUSH2 0x1BFA DUP2 PUSH1 0x33 SLOAD AND DUP3 PUSH2 0x1C80 PUSH2 0x4063 JUMP JUMPDEST AND EQ SWAP1 POP PUSH2 0x1BF1 JUMP JUMPDEST POP CALLVALUE PUSH2 0x351 JUMPI PUSH1 0x20 CALLDATASIZE PUSH1 0x3 NOT ADD SLT PUSH2 0x351 JUMPI PUSH2 0x1CA3 PUSH2 0x33FE JUMP JUMPDEST PUSH2 0x1CAB PUSH2 0x4063 JUMP JUMPDEST PUSH1 0x0 DUP1 MLOAD PUSH1 0x20 PUSH2 0x4140 DUP4 CODECOPY DUP2 MLOAD SWAP2 MSTORE DUP4 MSTORE PUSH1 0xFB PUSH1 0x20 SWAP1 DUP2 MSTORE PUSH1 0x40 DUP1 DUP6 KECCAK256 PUSH1 0x1 PUSH1 0x1 PUSH1 0xA0 SHL SUB SWAP4 DUP5 AND DUP7 MSTORE SWAP1 SWAP2 MSTORE DUP4 KECCAK256 SLOAD PUSH1 0xFF AND DUP1 ISZERO PUSH2 0x1D07 JUMPI JUMPDEST PUSH2 0x1CEE SWAP1 PUSH2 0x3E4F JUMP JUMPDEST PUSH2 0x1F7 SWAP2 AND PUSH1 0x1 PUSH1 0x1 PUSH1 0x60 SHL SUB PUSH1 0xA0 SHL DUP3 SLOAD AND OR SWAP1 SSTORE DUP1 RETURN JUMPDEST POP PUSH2 0x1CEE DUP2 PUSH1 0x33 SLOAD AND DUP3 PUSH2 0x1D19 PUSH2 0x4063 JUMP JUMPDEST AND EQ SWAP1 POP PUSH2 0x1CE5 JUMP JUMPDEST POP CALLVALUE PUSH2 0x351 JUMPI DUP1 PUSH1 0x3 NOT CALLDATASIZE ADD SLT PUSH2 0x351 JUMPI PUSH1 0x20 PUSH1 0xFF PUSH1 0x97 SLOAD PUSH1 0xA0 SHR AND PUSH1 0x40 MLOAD SWAP1 ISZERO ISZERO DUP2 MSTORE RETURN JUMPDEST POP PUSH1 0xA0 CALLDATASIZE PUSH1 0x3 NOT ADD SLT PUSH2 0x351 JUMPI PUSH1 0x44 CALLDATALOAD PUSH1 0x1 PUSH1 0x1 PUSH1 0x40 SHL SUB DUP2 GT PUSH2 0x56D JUMPI PUSH2 0x1D74 SWAP1 CALLDATASIZE SWAP1 PUSH1 0x4 ADD PUSH2 0x3530 JUMP JUMPDEST PUSH1 0x84 CALLDATALOAD PUSH1 0x1 PUSH1 0x1 PUSH1 0x40 SHL SUB DUP2 GT PUSH2 0xE8F JUMPI PUSH2 0x1D93 SWAP1 CALLDATASIZE SWAP1 PUSH1 0x4 ADD PUSH2 0x3586 JUMP JUMPDEST POP POP PUSH1 0x24 CALLDATALOAD DUP3 MSTORE PUSH2 0x1F9 PUSH1 0x20 MSTORE PUSH2 0x1DB3 PUSH1 0xFF PUSH1 0x40 DUP5 KECCAK256 SLOAD PUSH1 0xA0 SHR AND PUSH2 0x3ED2 JUMP JUMPDEST DUP1 MLOAD PUSH2 0x1DC9 SWAP1 PUSH1 0x1 PUSH1 0x1 PUSH1 0xA0 SHL SUB AND ISZERO ISZERO PUSH2 0x3E91 JUMP JUMPDEST PUSH2 0x1DD7 CHAINID PUSH1 0x4 CALLDATALOAD EQ ISZERO PUSH2 0x3F15 JUMP JUMPDEST PUSH1 0x4 CALLDATALOAD DUP3 MSTORE PUSH2 0x1FA PUSH1 0x20 MSTORE PUSH1 0x40 DUP3 KECCAK256 SLOAD PUSH2 0x1DFB SWAP1 PUSH1 0x1 PUSH1 0x1 PUSH1 0xA0 SHL SUB AND ISZERO ISZERO PUSH2 0x3F73 JUMP JUMPDEST PUSH2 0x2710 PUSH2 0x1E0B PUSH2 0x1FD SLOAD CALLVALUE PUSH2 0x3CA8 JUMP JUMPDEST DIV DUP1 CALLVALUE LT PUSH2 0x20D7 JUMPI CALLVALUE DUP2 CALLVALUE SUB GT PUSH2 0x20C3 JUMPI PUSH2 0x1E24 PUSH2 0x4063 JUMP JUMPDEST PUSH2 0x1FE DUP1 SLOAD PUSH1 0x1 PUSH1 0x1 PUSH1 0xA0 SHL SUB AND DUP1 ISZERO PUSH2 0x2072 JUMPI DUP6 DUP1 DUP1 DUP7 DUP2 SWAP5 DUP3 DUP3 ISZERO PUSH2 0x2069 JUMPI JUMPDEST CALL ISZERO PUSH2 0x205E JUMPI PUSH1 0x1 DUP1 PUSH1 0xA0 SHL SUB SWAP1 SLOAD AND PUSH1 0x40 MLOAD SWAP2 PUSH1 0x1 DUP1 PUSH1 0xA0 SHL SUB AND DUP3 MSTORE DUP3 PUSH1 0x20 DUP4 ADD MSTORE PUSH1 0x40 DUP3 ADD MSTORE PUSH1 0x64 CALLDATALOAD PUSH1 0x60 DUP3 ADD MSTORE PUSH1 0x24 CALLDATALOAD SWAP1 PUSH32 0x54AAFB6ABEFE1F281CCB11A7597DC7E2F13418168020924F176AF9492821CAC PUSH1 0x80 PUSH1 0x4 CALLDATALOAD SWAP3 LOG3 PUSH2 0x1EAB PUSH2 0x4063 JUMP JUMPDEST SWAP2 PUSH1 0x1 PUSH1 0x1 PUSH1 0xA0 SHL SUB PUSH2 0x1EBC PUSH2 0x4063 JUMP JUMPDEST AND DUP5 MSTORE PUSH2 0x1FB PUSH1 0x20 MSTORE PUSH1 0x40 DUP5 KECCAK256 CHAINID DUP6 MSTORE PUSH1 0x20 MSTORE PUSH1 0x40 DUP5 KECCAK256 PUSH1 0x4 CALLDATALOAD DUP6 MSTORE PUSH1 0x20 MSTORE PUSH1 0x40 DUP5 KECCAK256 SLOAD PUSH2 0x1FA PUSH1 0x20 MSTORE PUSH1 0x1 DUP1 PUSH1 0xA0 SHL SUB PUSH1 0x40 DUP7 KECCAK256 SLOAD AND SWAP1 PUSH1 0x40 MLOAD SWAP5 PUSH2 0x1F01 DUP7 PUSH2 0x3428 JUMP JUMPDEST PUSH1 0x1 DUP1 PUSH1 0xA0 SHL SUB AND DUP6 MSTORE PUSH1 0x20 DUP6 ADD MSTORE PUSH1 0x24 CALLDATALOAD PUSH1 0x40 DUP6 ADD MSTORE CHAINID PUSH1 0x60 DUP6 ADD MSTORE PUSH1 0x4 CALLDATALOAD PUSH1 0x80 DUP6 ADD MSTORE ADDRESS PUSH1 0xA0 DUP6 ADD MSTORE PUSH1 0xC0 DUP5 ADD MSTORE PUSH1 0xE0 DUP4 ADD MSTORE PUSH1 0x1 DUP1 PUSH1 0xA0 SHL SUB PUSH2 0x1F45 PUSH2 0x4063 JUMP JUMPDEST AND DUP4 MSTORE PUSH2 0x1FB PUSH1 0x20 MSTORE PUSH1 0x40 DUP4 KECCAK256 CHAINID DUP5 MSTORE PUSH1 0x20 MSTORE PUSH1 0x40 DUP4 KECCAK256 PUSH1 0x4 CALLDATALOAD DUP5 MSTORE PUSH1 0x20 MSTORE PUSH1 0x40 DUP4 KECCAK256 DUP1 SLOAD SWAP1 PUSH1 0x1 DUP3 ADD DUP1 SWAP3 GT PUSH2 0x204A JUMPI SSTORE PUSH1 0x24 CALLDATALOAD DUP4 MSTORE PUSH2 0x1F9 PUSH1 0x20 MSTORE PUSH1 0x40 DUP1 DUP5 KECCAK256 SLOAD SWAP1 MLOAD PUSH4 0xDB17B69 PUSH1 0xE2 SHL DUP2 MSTORE SWAP3 DUP5 SWAP3 DUP5 SWAP3 SWAP1 SWAP2 DUP4 SWAP2 PUSH1 0x1 PUSH1 0x1 PUSH1 0xA0 SHL SUB AND SWAP1 DUP3 SWAP1 PUSH2 0x1FBA SWAP1 PUSH1 0x64 CALLDATALOAD SWAP1 PUSH1 0x4 DUP5 ADD PUSH2 0x3FD4 JUMP JUMPDEST SUB SWAP3 CALLVALUE SUB SWAP1 GAS CALL DUP1 ISZERO PUSH2 0x203F JUMPI PUSH2 0x1FCF JUMPI POP DUP1 RETURN JUMPDEST RETURNDATASIZE DUP1 DUP4 DUP4 RETURNDATACOPY PUSH2 0x1FDE DUP2 DUP4 PUSH2 0x3475 JUMP JUMPDEST DUP2 ADD SWAP1 PUSH1 0x20 DUP2 DUP4 SUB SLT PUSH2 0xE8F JUMPI DUP1 MLOAD SWAP1 PUSH1 0x1 PUSH1 0x1 PUSH1 0x40 SHL SUB DUP3 GT PUSH2 0xBD7 JUMPI ADD DUP2 PUSH1 0x1F DUP3 ADD SLT ISZERO PUSH2 0xE8F JUMPI DUP1 MLOAD SWAP1 PUSH2 0x2014 DUP3 PUSH2 0x3496 JUMP JUMPDEST SWAP3 PUSH2 0x2022 PUSH1 0x40 MLOAD SWAP5 DUP6 PUSH2 0x3475 JUMP JUMPDEST DUP3 DUP5 MSTORE PUSH1 0x20 DUP4 DUP4 ADD ADD GT PUSH2 0xBD7 JUMPI PUSH1 0x20 DUP1 PUSH2 0xF67 SWAP5 ADD SWAP2 ADD PUSH2 0x35B3 JUMP JUMPDEST PUSH1 0x40 MLOAD RETURNDATASIZE DUP5 DUP3 RETURNDATACOPY RETURNDATASIZE SWAP1 REVERT JUMPDEST PUSH4 0x4E487B71 PUSH1 0xE0 SHL DUP6 MSTORE PUSH1 0x11 PUSH1 0x4 MSTORE PUSH1 0x24 DUP6 REVERT JUMPDEST PUSH1 0x40 MLOAD RETURNDATASIZE DUP7 DUP3 RETURNDATACOPY RETURNDATASIZE SWAP1 REVERT JUMPDEST POP PUSH2 0x8FC PUSH2 0x1E46 JUMP JUMPDEST PUSH1 0x40 MLOAD PUSH3 0x461BCD PUSH1 0xE5 SHL DUP2 MSTORE PUSH1 0x20 PUSH1 0x4 DUP3 ADD MSTORE PUSH1 0x24 DUP1 DUP3 ADD MSTORE PUSH32 0x43726F737353796E634665652041646472657373204973205A65726F20416464 PUSH1 0x44 DUP3 ADD MSTORE PUSH4 0x72657373 PUSH1 0xE0 SHL PUSH1 0x64 DUP3 ADD MSTORE PUSH1 0x84 SWAP1 REVERT JUMPDEST PUSH4 0x4E487B71 PUSH1 0xE0 SHL DUP4 MSTORE PUSH1 0x11 PUSH1 0x4 MSTORE PUSH1 0x24 DUP4 REVERT JUMPDEST PUSH1 0x40 MLOAD PUSH3 0x461BCD PUSH1 0xE5 SHL DUP2 MSTORE PUSH1 0x20 PUSH1 0x4 DUP3 ADD MSTORE PUSH1 0x2B PUSH1 0x24 DUP3 ADD MSTORE PUSH32 0x52656C61796572286D73672E76616C75652920466565206973206C6573732074 PUSH1 0x44 DUP3 ADD MSTORE PUSH11 0x68616E2073796E63466565 PUSH1 0xA8 SHL PUSH1 0x64 DUP3 ADD MSTORE PUSH1 0x84 SWAP1 REVERT JUMPDEST POP CALLVALUE PUSH2 0x351 JUMPI PUSH1 0x20 CALLDATASIZE PUSH1 0x3 NOT ADD SLT PUSH2 0x351 JUMPI PUSH1 0xFF PUSH1 0x40 PUSH1 0x20 SWAP3 PUSH1 0x4 CALLDATALOAD DUP2 MSTORE PUSH2 0x1F9 DUP5 MSTORE KECCAK256 SLOAD PUSH1 0xA0 SHR AND PUSH1 0x40 MLOAD SWAP1 ISZERO ISZERO DUP2 MSTORE RETURN JUMPDEST POP CALLVALUE PUSH2 0x351 JUMPI PUSH1 0x20 CALLDATASIZE PUSH1 0x3 NOT ADD SLT PUSH2 0x351 JUMPI PUSH1 0x20 PUSH2 0x217F PUSH2 0x33FE JUMP JUMPDEST PUSH1 0x97 SLOAD PUSH1 0x40 MLOAD PUSH1 0x1 PUSH1 0x1 PUSH1 0xA0 SHL SUB SWAP3 DUP4 AND SWAP2 SWAP1 SWAP3 AND EQ DUP2 MSTORE RETURN JUMPDEST POP CALLVALUE PUSH2 0x351 JUMPI DUP1 PUSH1 0x20 DUP1 PUSH1 0x3 NOT CALLDATASIZE ADD SLT PUSH2 0x226F JUMPI PUSH1 0x4 CALLDATALOAD PUSH2 0x21F7 PUSH2 0x21BB PUSH2 0x4063 JUMP JUMPDEST PUSH1 0x0 DUP1 MLOAD PUSH1 0x20 PUSH2 0x4140 DUP4 CODECOPY DUP2 MLOAD SWAP2 MSTORE DUP6 MSTORE PUSH1 0xFB DUP5 MSTORE PUSH1 0x40 DUP1 DUP7 KECCAK256 PUSH1 0x1 PUSH1 0x1 PUSH1 0xA0 SHL SUB SWAP3 DUP4 AND DUP8 MSTORE DUP6 MSTORE DUP6 KECCAK256 SLOAD PUSH1 0xFF AND SWAP1 DUP2 ISZERO PUSH2 0x1A49 JUMPI POP PUSH2 0x3E4F JUMP JUMPDEST DUP1 DUP4 MSTORE PUSH2 0x1F9 SWAP1 DUP2 DUP4 MSTORE PUSH2 0x2214 PUSH1 0xFF PUSH1 0x40 DUP7 KECCAK256 SLOAD PUSH1 0xA0 SHR AND PUSH2 0x3ED2 JUMP JUMPDEST DUP4 MSTORE DUP2 MSTORE PUSH1 0x1 PUSH1 0x40 DUP4 KECCAK256 DUP4 DUP2 SSTORE ADD SWAP1 PUSH2 0x222D DUP3 SLOAD PUSH2 0x3CF8 JUMP JUMPDEST SWAP1 DUP2 PUSH2 0x2238 JUMPI POP POP POP RETURN JUMPDEST DUP2 PUSH1 0x1F DUP6 SWAP4 GT PUSH1 0x1 EQ PUSH2 0x224C JUMPI POP POP POP SSTORE DUP1 RETURN JUMPDEST DUP4 DUP4 MSTORE DUP2 DUP4 KECCAK256 PUSH2 0x2267 SWAP2 PUSH1 0x1F ADD PUSH1 0x5 SHR DUP2 ADD SWAP1 PUSH1 0x1 ADD PUSH2 0x3E38 JUMP JUMPDEST DUP2 KECCAK256 SWAP2 SSTORE SSTORE DUP1 RETURN JUMPDEST POP REVERT JUMPDEST POP CALLVALUE PUSH2 0x351 JUMPI DUP1 PUSH1 0x3 NOT CALLDATASIZE ADD SLT PUSH2 0x351 JUMPI PUSH32 0x0 PUSH1 0x1 PUSH1 0x1 PUSH1 0xA0 SHL SUB AND ADDRESS SUB PUSH2 0x22CB JUMPI PUSH1 0x20 PUSH1 0x40 MLOAD PUSH1 0x0 DUP1 MLOAD PUSH1 0x20 PUSH2 0x4100 DUP4 CODECOPY DUP2 MLOAD SWAP2 MSTORE DUP2 MSTORE RETURN JUMPDEST PUSH1 0x40 MLOAD PUSH3 0x461BCD PUSH1 0xE5 SHL DUP2 MSTORE PUSH1 0x20 PUSH1 0x4 DUP3 ADD MSTORE PUSH1 0x38 PUSH1 0x24 DUP3 ADD MSTORE PUSH32 0x555550535570677261646561626C653A206D757374206E6F742062652063616C PUSH1 0x44 DUP3 ADD MSTORE PUSH32 0x6C6564207468726F7567682064656C656761746563616C6C0000000000000000 PUSH1 0x64 DUP3 ADD MSTORE PUSH1 0x84 SWAP1 REVERT JUMPDEST POP PUSH1 0x40 CALLDATASIZE PUSH1 0x3 NOT ADD SLT PUSH2 0x351 JUMPI PUSH2 0x234B PUSH2 0x33FE JUMP JUMPDEST PUSH1 0x24 CALLDATALOAD PUSH1 0x1 PUSH1 0x1 PUSH1 0x40 SHL SUB DUP2 GT PUSH2 0xE8F JUMPI PUSH2 0x236A SWAP1 CALLDATASIZE SWAP1 PUSH1 0x4 ADD PUSH2 0x34E8 JUMP JUMPDEST PUSH1 0x1 PUSH1 0x1 PUSH1 0xA0 SHL SUB SWAP2 SWAP1 PUSH32 0x0 DUP4 AND PUSH2 0x23A3 ADDRESS DUP3 EQ ISZERO PUSH2 0x3ABD JUMP JUMPDEST PUSH2 0x23C0 PUSH1 0x0 DUP1 MLOAD PUSH1 0x20 PUSH2 0x4100 DUP4 CODECOPY DUP2 MLOAD SWAP2 MSTORE SWAP2 DUP6 DUP4 SLOAD AND EQ PUSH2 0x3B1E JUMP JUMPDEST PUSH2 0x23C8 PUSH2 0x4063 JUMP JUMPDEST SWAP4 PUSH1 0x0 DUP1 MLOAD PUSH1 0x20 PUSH2 0x40E0 DUP4 CODECOPY DUP2 MLOAD SWAP2 MSTORE DUP7 MSTORE PUSH1 0x20 SWAP5 PUSH1 0xFB DUP7 MSTORE DUP2 PUSH1 0x40 DUP9 KECCAK256 SWAP2 AND DUP8 MSTORE DUP6 MSTORE PUSH1 0xFF PUSH1 0x40 DUP8 KECCAK256 SLOAD AND DUP1 ISZERO PUSH2 0x2629 JUMPI JUMPDEST PUSH2 0x2404 SWAP1 PUSH2 0x3E4F JUMP JUMPDEST PUSH32 0x4910FDFA16FED3260ED0E7147F7CC6DA11A60208B5B9406D12A635614FFD9143 SLOAD PUSH1 0xFF AND ISZERO PUSH2 0x243B JUMPI POP POP POP PUSH2 0xF67 SWAP2 POP PUSH2 0x3B7F JUMP JUMPDEST DUP4 AND SWAP1 PUSH1 0x40 MLOAD PUSH4 0x52D1902D PUSH1 0xE0 SHL DUP2 MSTORE DUP6 DUP2 PUSH1 0x4 DUP2 DUP7 GAS STATICCALL DUP8 SWAP2 DUP2 PUSH2 0x25FA JUMPI JUMPDEST POP PUSH2 0x24BC JUMPI PUSH1 0x40 MLOAD PUSH3 0x461BCD PUSH1 0xE5 SHL DUP2 MSTORE PUSH1 0x4 DUP2 ADD DUP8 SWAP1 MSTORE PUSH1 0x2E PUSH1 0x24 DUP3 ADD MSTORE PUSH32 0x45524331393637557067726164653A206E657720696D706C656D656E74617469 PUSH1 0x44 DUP3 ADD MSTORE PUSH14 0x6F6E206973206E6F742055555053 PUSH1 0x90 SHL PUSH1 0x64 DUP3 ADD MSTORE PUSH1 0x84 SWAP1 REVERT JUMPDEST SWAP5 SWAP3 SWAP4 SWAP5 SUB PUSH2 0x25A3 JUMPI PUSH2 0x24CE DUP5 PUSH2 0x3B7F JUMP JUMPDEST PUSH32 0xBC7CD75A20EE27FD9ADEBAB32041F755214DBC6BFFA90CC0225B39DA2E5C2D3B DUP6 DUP1 LOG2 DUP2 MLOAD ISZERO DUP1 ISZERO SWAP1 PUSH2 0x259B JUMPI JUMPDEST PUSH2 0x2508 JUMPI JUMPDEST POP POP POP DUP1 RETURN JUMPDEST PUSH2 0x2589 SWAP3 DUP5 DUP1 PUSH1 0x40 MLOAD SWAP5 PUSH2 0x251B DUP7 PUSH2 0x345A JUMP JUMPDEST PUSH1 0x27 DUP7 MSTORE PUSH32 0x416464726573733A206C6F772D6C6576656C2064656C65676174652063616C6C DUP6 DUP8 ADD MSTORE PUSH7 0x819985A5B1959 PUSH1 0xCA SHL PUSH1 0x40 DUP8 ADD MSTORE DUP5 DUP2 MLOAD SWAP2 ADD DUP5 GAS DELEGATECALL SWAP1 RETURNDATASIZE ISZERO PUSH2 0x2592 JUMPI RETURNDATASIZE PUSH2 0x256D DUP2 PUSH2 0x3496 JUMP JUMPDEST SWAP1 PUSH2 0x257B PUSH1 0x40 MLOAD SWAP3 DUP4 PUSH2 0x3475 JUMP JUMPDEST DUP2 MSTORE DUP7 DUP2 SWAP5 RETURNDATASIZE SWAP3 ADD RETURNDATACOPY PUSH2 0x3C0F JUMP JUMPDEST POP CODESIZE DUP1 DUP1 PUSH2 0x2502 JUMP JUMPDEST PUSH1 0x60 SWAP3 POP PUSH2 0x3C0F JUMP JUMPDEST POP PUSH1 0x1 PUSH2 0x24FD JUMP JUMPDEST PUSH1 0x40 MLOAD PUSH3 0x461BCD PUSH1 0xE5 SHL DUP2 MSTORE PUSH1 0x4 DUP2 ADD DUP4 SWAP1 MSTORE PUSH1 0x29 PUSH1 0x24 DUP3 ADD MSTORE PUSH32 0x45524331393637557067726164653A20756E737570706F727465642070726F78 PUSH1 0x44 DUP3 ADD MSTORE PUSH9 0x1A58589B1955555251 PUSH1 0xBA SHL PUSH1 0x64 DUP3 ADD MSTORE PUSH1 0x84 SWAP1 REVERT JUMPDEST SWAP1 SWAP2 POP DUP7 DUP2 DUP2 RETURNDATASIZE DUP4 GT PUSH2 0x2622 JUMPI JUMPDEST PUSH2 0x2612 DUP2 DUP4 PUSH2 0x3475 JUMP JUMPDEST DUP2 ADD SUB SLT PUSH2 0xE2E JUMPI MLOAD SWAP1 CODESIZE PUSH2 0x245B JUMP JUMPDEST POP RETURNDATASIZE PUSH2 0x2608 JUMP JUMPDEST POP PUSH2 0x2404 DUP2 PUSH1 0x33 SLOAD AND DUP3 PUSH2 0x263B PUSH2 0x4063 JUMP JUMPDEST AND EQ SWAP1 POP PUSH2 0x23FB JUMP JUMPDEST POP CALLVALUE PUSH2 0x351 JUMPI PUSH1 0x20 CALLDATASIZE PUSH1 0x3 NOT ADD SLT PUSH2 0x351 JUMPI PUSH2 0x265E PUSH2 0x33FE JUMP JUMPDEST PUSH2 0x2666 PUSH2 0x3A11 JUMP JUMPDEST PUSH1 0x0 DUP1 MLOAD PUSH1 0x20 PUSH2 0x4140 DUP4 CODECOPY DUP2 MLOAD SWAP2 MSTORE DUP1 DUP4 MSTORE PUSH1 0xFB PUSH1 0x20 SWAP1 DUP2 MSTORE PUSH1 0x40 DUP1 DUP6 KECCAK256 PUSH1 0x1 PUSH1 0x1 PUSH1 0xA0 SHL SUB SWAP5 DUP6 AND DUP1 DUP8 MSTORE SWAP3 MSTORE DUP5 KECCAK256 SLOAD SWAP2 SWAP3 SWAP1 SWAP2 PUSH1 0xFF AND PUSH2 0xFCC JUMPI DUP4 DUP1 RETURN JUMPDEST POP CALLVALUE PUSH2 0x351 JUMPI DUP1 PUSH1 0x3 NOT CALLDATASIZE ADD SLT PUSH2 0x351 JUMPI PUSH1 0x20 PUSH1 0x40 MLOAD PUSH1 0x0 DUP1 MLOAD PUSH1 0x20 PUSH2 0x4140 DUP4 CODECOPY DUP2 MLOAD SWAP2 MSTORE DUP2 MSTORE RETURN JUMPDEST POP CALLVALUE PUSH2 0x351 JUMPI PUSH1 0xFF PUSH1 0x40 PUSH1 0x20 SWAP3 PUSH2 0x26E5 CALLDATASIZE PUSH2 0x3506 JUMP JUMPDEST PUSH1 0x1 PUSH1 0x1 PUSH1 0xA0 SHL SUB SWAP1 SWAP3 AND DUP4 MSTORE PUSH2 0x1FC DUP7 MSTORE DUP4 DUP4 KECCAK256 SWAP1 DUP4 MSTORE DUP6 MSTORE DUP3 DUP3 KECCAK256 SWAP1 DUP3 MSTORE DUP5 MSTORE KECCAK256 SLOAD PUSH1 0x40 MLOAD SWAP2 AND ISZERO ISZERO DUP2 MSTORE RETURN JUMPDEST POP CALLVALUE PUSH2 0x351 JUMPI DUP1 PUSH1 0x3 NOT CALLDATASIZE ADD SLT PUSH2 0x351 JUMPI PUSH2 0x272D PUSH2 0x4063 JUMP JUMPDEST PUSH1 0x0 DUP1 MLOAD PUSH1 0x20 PUSH2 0x4120 DUP4 CODECOPY DUP2 MLOAD SWAP2 MSTORE DUP3 MSTORE PUSH1 0xFB PUSH1 0x20 SWAP1 DUP2 MSTORE PUSH1 0x40 DUP1 DUP5 KECCAK256 PUSH1 0x1 PUSH1 0x1 PUSH1 0xA0 SHL SUB SWAP4 DUP5 AND DUP6 MSTORE DUP3 MSTORE DUP4 KECCAK256 SLOAD SWAP1 SWAP2 SWAP1 PUSH1 0xFF AND DUP1 ISZERO PUSH2 0x2814 JUMPI JUMPDEST DUP1 ISZERO PUSH2 0x27F9 JUMPI JUMPDEST PUSH2 0x2779 SWAP1 PUSH2 0x3E4F JUMP JUMPDEST PUSH1 0x97 SLOAD PUSH1 0xFF DUP2 PUSH1 0xA0 SHR AND ISZERO PUSH2 0x27BD JUMPI PUSH1 0xFF PUSH1 0xA0 SHL NOT AND PUSH1 0x97 SSTORE PUSH32 0x5DB9EE0A495BF2E6FF9C91A7834C1BA4FDD244A5E8AA4E537BD38AEAE4B073AA SWAP2 SWAP1 PUSH2 0x1805 PUSH2 0x4063 JUMP JUMPDEST PUSH1 0x40 MLOAD PUSH3 0x461BCD PUSH1 0xE5 SHL DUP2 MSTORE PUSH1 0x4 DUP2 ADD DUP5 SWAP1 MSTORE PUSH1 0x14 PUSH1 0x24 DUP3 ADD MSTORE PUSH20 0x14185D5CD8589B194E881B9BDD081C185D5CD959 PUSH1 0x62 SHL PUSH1 0x44 DUP3 ADD MSTORE PUSH1 0x64 SWAP1 REVERT JUMPDEST POP PUSH2 0x2779 DUP2 PUSH1 0x33 SLOAD AND DUP3 PUSH2 0x280B PUSH2 0x4063 JUMP JUMPDEST AND EQ SWAP1 POP PUSH2 0x2770 JUMP JUMPDEST POP PUSH2 0x281D PUSH2 0x4063 JUMP JUMPDEST PUSH1 0x0 DUP1 MLOAD PUSH1 0x20 PUSH2 0x4140 DUP4 CODECOPY DUP2 MLOAD SWAP2 MSTORE DUP5 MSTORE PUSH1 0xFB DUP4 MSTORE DUP2 PUSH1 0x40 DUP6 KECCAK256 SWAP2 AND DUP5 MSTORE DUP3 MSTORE PUSH1 0xFF PUSH1 0x40 DUP5 KECCAK256 SLOAD AND PUSH2 0x2769 JUMP JUMPDEST POP CALLVALUE PUSH2 0x351 JUMPI PUSH1 0x20 DUP1 PUSH1 0x3 NOT CALLDATASIZE ADD SLT PUSH2 0x56D JUMPI PUSH2 0x2865 PUSH2 0x33FE JUMP JUMPDEST PUSH1 0x1 PUSH1 0x1 PUSH1 0xA0 SHL SUB PUSH32 0x0 DUP2 AND PUSH2 0x289C ADDRESS DUP3 EQ ISZERO PUSH2 0x3ABD JUMP JUMPDEST PUSH2 0x28B9 PUSH1 0x0 DUP1 MLOAD PUSH1 0x20 PUSH2 0x4100 DUP4 CODECOPY DUP2 MLOAD SWAP2 MSTORE SWAP2 DUP4 DUP4 SLOAD AND EQ PUSH2 0x3B1E JUMP JUMPDEST PUSH2 0x28C1 PUSH2 0x4063 JUMP JUMPDEST PUSH1 0x0 DUP1 MLOAD PUSH1 0x20 PUSH2 0x40E0 DUP4 CODECOPY DUP2 MLOAD SWAP2 MSTORE DUP7 MSTORE PUSH1 0xFB DUP6 MSTORE DUP3 PUSH1 0x40 DUP8 KECCAK256 SWAP2 AND DUP7 MSTORE DUP5 MSTORE PUSH1 0xFF PUSH1 0x40 DUP7 KECCAK256 SLOAD AND DUP1 ISZERO PUSH2 0x2B24 JUMPI JUMPDEST PUSH2 0x28F9 SWAP1 PUSH2 0x3E4F JUMP JUMPDEST PUSH1 0x40 MLOAD SWAP1 DUP5 DUP3 ADD SWAP3 DUP3 DUP5 LT PUSH1 0x1 PUSH1 0x1 PUSH1 0x40 SHL SUB DUP6 GT OR PUSH2 0xE32 JUMPI DUP4 PUSH1 0x40 MSTORE DUP7 DUP4 MSTORE PUSH1 0xFF PUSH32 0x4910FDFA16FED3260ED0E7147F7CC6DA11A60208B5B9406D12A635614FFD9143 SLOAD AND PUSH1 0x0 EQ PUSH2 0x2954 JUMPI POP POP POP POP PUSH2 0xF67 SWAP2 POP PUSH2 0x3B7F JUMP JUMPDEST DUP5 SWAP3 SWAP4 SWAP5 AND SWAP1 PUSH1 0x40 MLOAD PUSH4 0x52D1902D PUSH1 0xE0 SHL DUP2 MSTORE DUP7 DUP2 PUSH1 0x4 DUP2 DUP7 GAS STATICCALL DUP9 SWAP2 DUP2 PUSH2 0x2AF1 JUMPI JUMPDEST POP PUSH2 0x29D8 JUMPI PUSH1 0x40 MLOAD PUSH3 0x461BCD PUSH1 0xE5 SHL DUP2 MSTORE PUSH1 0x4 DUP2 ADD DUP9 SWAP1 MSTORE PUSH1 0x2E PUSH1 0x24 DUP3 ADD MSTORE PUSH32 0x45524331393637557067726164653A206E657720696D706C656D656E74617469 PUSH1 0x44 DUP3 ADD MSTORE PUSH14 0x6F6E206973206E6F742055555053 PUSH1 0x90 SHL PUSH1 0x64 DUP3 ADD MSTORE PUSH1 0x84 SWAP1 REVERT JUMPDEST SWAP6 SWAP4 SWAP5 SWAP6 SUB PUSH2 0x2A9A JUMPI PUSH2 0x29EA DUP3 PUSH2 0x3B7F JUMP JUMPDEST PUSH32 0xBC7CD75A20EE27FD9ADEBAB32041F755214DBC6BFFA90CC0225B39DA2E5C2D3B DUP7 DUP1 LOG2 DUP5 DUP4 MLOAD ISZERO DUP1 ISZERO SWAP1 PUSH2 0x2A93 JUMPI JUMPDEST PUSH2 0x2A27 JUMPI JUMPDEST POP POP POP POP POP DUP1 RETURN JUMPDEST DUP1 PUSH2 0x2A88 SWAP6 PUSH1 0x40 MLOAD SWAP6 PUSH2 0x2A39 DUP8 PUSH2 0x345A JUMP JUMPDEST PUSH1 0x27 DUP8 MSTORE PUSH32 0x416464726573733A206C6F772D6C6576656C2064656C65676174652063616C6C DUP7 DUP9 ADD MSTORE PUSH7 0x819985A5B1959 PUSH1 0xCA SHL PUSH1 0x40 DUP9 ADD MSTORE MLOAD SWAP1 DUP5 GAS DELEGATECALL SWAP1 RETURNDATASIZE ISZERO PUSH2 0x2592 JUMPI RETURNDATASIZE PUSH2 0x256D DUP2 PUSH2 0x3496 JUMP JUMPDEST POP CODESIZE DUP1 DUP1 DUP1 DUP5 PUSH2 0x2A1F JUMP JUMPDEST POP DUP1 PUSH2 0x2A1A JUMP JUMPDEST PUSH1 0x40 MLOAD PUSH3 0x461BCD PUSH1 0xE5 SHL DUP2 MSTORE PUSH1 0x4 DUP2 ADD DUP5 SWAP1 MSTORE PUSH1 0x29 PUSH1 0x24 DUP3 ADD MSTORE PUSH32 0x45524331393637557067726164653A20756E737570706F727465642070726F78 PUSH1 0x44 DUP3 ADD MSTORE PUSH9 0x1A58589B1955555251 PUSH1 0xBA SHL PUSH1 0x64 DUP3 ADD MSTORE PUSH1 0x84 SWAP1 REVERT JUMPDEST SWAP1 SWAP2 POP DUP8 DUP2 DUP2 RETURNDATASIZE DUP4 GT PUSH2 0x2B1D JUMPI JUMPDEST PUSH2 0x2B09 DUP2 DUP4 PUSH2 0x3475 JUMP JUMPDEST DUP2 ADD SUB SLT PUSH2 0x2B19 JUMPI MLOAD SWAP1 CODESIZE PUSH2 0x2977 JUMP JUMPDEST DUP9 DUP1 REVERT JUMPDEST POP RETURNDATASIZE PUSH2 0x2AFF JUMP JUMPDEST POP PUSH2 0x28F9 DUP3 PUSH1 0x33 SLOAD AND DUP4 PUSH2 0x2B36 PUSH2 0x4063 JUMP JUMPDEST AND EQ SWAP1 POP PUSH2 0x28F0 JUMP JUMPDEST POP CALLVALUE PUSH2 0x351 JUMPI PUSH1 0x40 CALLDATASIZE PUSH1 0x3 NOT ADD SLT PUSH2 0x351 JUMPI PUSH2 0x2B59 PUSH2 0x33E8 JUMP JUMPDEST PUSH1 0x1 PUSH1 0x1 PUSH1 0xA0 SHL SUB DUP1 PUSH2 0x2B6A PUSH2 0x4063 JUMP JUMPDEST AND SWAP1 DUP3 AND SUB PUSH2 0x2B7F JUMPI PUSH2 0xF67 SWAP1 PUSH1 0x4 CALLDATALOAD PUSH2 0x3997 JUMP JUMPDEST PUSH1 0x40 MLOAD PUSH3 0x461BCD PUSH1 0xE5 SHL DUP2 MSTORE PUSH1 0x20 PUSH1 0x4 DUP3 ADD MSTORE PUSH1 0x2F PUSH1 0x24 DUP3 ADD MSTORE PUSH32 0x416363657373436F6E74726F6C3A2063616E206F6E6C792072656E6F756E6365 PUSH1 0x44 DUP3 ADD MSTORE PUSH15 0x103937B632B9903337B91039B2B633 PUSH1 0x89 SHL PUSH1 0x64 DUP3 ADD MSTORE PUSH1 0x84 SWAP1 REVERT JUMPDEST POP CALLVALUE PUSH2 0x351 JUMPI PUSH1 0x20 CALLDATASIZE PUSH1 0x3 NOT ADD SLT PUSH2 0x351 JUMPI PUSH2 0x2BF6 PUSH2 0x33FE JUMP JUMPDEST PUSH2 0x2BFE PUSH2 0x4063 JUMP JUMPDEST PUSH1 0x0 DUP1 MLOAD PUSH1 0x20 PUSH2 0x4140 DUP4 CODECOPY DUP2 MLOAD SWAP2 MSTORE DUP4 MSTORE PUSH1 0xFB PUSH1 0x20 SWAP1 DUP2 MSTORE PUSH1 0x40 DUP1 DUP6 KECCAK256 PUSH1 0x1 PUSH1 0x1 PUSH1 0xA0 SHL SUB SWAP4 DUP5 AND DUP7 MSTORE SWAP1 SWAP2 MSTORE DUP4 KECCAK256 SLOAD PUSH1 0xFF AND DUP1 ISZERO PUSH2 0x2C5A JUMPI JUMPDEST PUSH2 0x2C41 SWAP1 PUSH2 0x3E4F JUMP JUMPDEST PUSH2 0x1F8 SWAP2 AND PUSH1 0x1 PUSH1 0x1 PUSH1 0x60 SHL SUB PUSH1 0xA0 SHL DUP3 SLOAD AND OR SWAP1 SSTORE DUP1 RETURN JUMPDEST POP PUSH2 0x2C41 DUP2 PUSH1 0x33 SLOAD AND DUP3 PUSH2 0x2C6C PUSH2 0x4063 JUMP JUMPDEST AND EQ SWAP1 POP PUSH2 0x2C38 JUMP JUMPDEST POP CALLVALUE PUSH2 0x351 JUMPI PUSH1 0x40 CALLDATASIZE PUSH1 0x3 NOT ADD SLT PUSH2 0x351 JUMPI PUSH1 0x4 CALLDATALOAD PUSH2 0x2C92 PUSH2 0x33E8 JUMP JUMPDEST DUP2 DUP4 MSTORE PUSH1 0xFB PUSH1 0x20 MSTORE PUSH2 0x2CAA PUSH1 0x1 PUSH1 0x40 DUP6 KECCAK256 ADD SLOAD PUSH2 0x35FB JUMP JUMPDEST DUP2 DUP4 MSTORE PUSH1 0xFB PUSH1 0x20 SWAP1 DUP2 MSTORE PUSH1 0x40 DUP1 DUP6 KECCAK256 PUSH1 0x1 PUSH1 0x1 PUSH1 0xA0 SHL SUB SWAP4 DUP5 AND DUP1 DUP8 MSTORE SWAP3 MSTORE DUP5 KECCAK256 SLOAD SWAP1 SWAP2 SWAP1 PUSH1 0xFF AND ISZERO PUSH2 0x12E2 JUMPI DUP4 DUP1 RETURN JUMPDEST POP CALLVALUE PUSH2 0x351 JUMPI PUSH1 0x40 CALLDATASIZE PUSH1 0x3 NOT ADD SLT PUSH2 0x351 JUMPI PUSH1 0x1 PUSH1 0x1 PUSH1 0x40 SHL SUB PUSH1 0x4 CALLDATALOAD PUSH1 0x24 CALLDATALOAD DUP3 DUP2 GT PUSH2 0xBD7 JUMPI PUSH2 0x2D10 SWAP1 CALLDATASIZE SWAP1 PUSH1 0x4 ADD PUSH2 0x34E8 JUMP JUMPDEST SWAP2 PUSH2 0x2D19 PUSH2 0x4063 JUMP JUMPDEST PUSH1 0x0 DUP1 MLOAD PUSH1 0x20 PUSH2 0x4140 DUP4 CODECOPY DUP2 MLOAD SWAP2 MSTORE DUP6 MSTORE PUSH1 0xFB PUSH1 0x20 SWAP1 DUP2 MSTORE PUSH1 0x40 DUP1 DUP8 KECCAK256 PUSH1 0x1 PUSH1 0x1 PUSH1 0xA0 SHL SUB SWAP4 DUP5 AND DUP9 MSTORE DUP3 MSTORE DUP7 KECCAK256 SLOAD SWAP1 SWAP4 SWAP2 PUSH2 0x2D5F SWAP2 PUSH1 0xFF AND SWAP1 DUP2 ISZERO PUSH2 0x1A49 JUMPI POP PUSH2 0x3E4F JUMP JUMPDEST DUP1 DUP6 MSTORE PUSH2 0x1F9 SWAP1 DUP2 DUP5 MSTORE PUSH2 0x2D7C PUSH1 0xFF PUSH1 0x40 DUP9 KECCAK256 SLOAD PUSH1 0xA0 SHR AND PUSH2 0x3ED2 JUMP JUMPDEST DUP6 MSTORE DUP3 MSTORE PUSH1 0x1 SWAP2 DUP3 PUSH1 0x40 DUP7 KECCAK256 ADD SWAP4 DUP1 MLOAD SWAP3 DUP4 GT PUSH2 0x2E6F JUMPI PUSH2 0x2D9D DUP6 SLOAD PUSH2 0x3CF8 JUMP JUMPDEST PUSH1 0x1F DUP2 GT PUSH2 0x2E41 JUMPI JUMPDEST POP DUP2 PUSH1 0x1F DUP5 GT PUSH1 0x1 EQ PUSH2 0x2DE0 JUMPI POP SWAP3 DUP3 SWAP4 SWAP2 DUP4 SWAP3 DUP8 SWAP5 PUSH2 0x2DD5 JUMPI JUMPDEST POP POP SHL SWAP2 PUSH1 0x0 NOT SWAP1 PUSH1 0x3 SHL SHR NOT AND OR SWAP1 SSTORE DUP1 RETURN JUMPDEST ADD MLOAD SWAP3 POP CODESIZE DUP1 PUSH2 0x2DC1 JUMP JUMPDEST SWAP2 SWAP1 DUP4 PUSH1 0x1F NOT DUP2 AND DUP8 DUP10 MSTORE DUP5 DUP10 KECCAK256 SWAP5 DUP10 SWAP1 JUMPDEST DUP9 DUP4 DUP4 LT PUSH2 0x2E27 JUMPI POP POP POP LT PUSH2 0x2E0E JUMPI JUMPDEST POP POP POP DUP2 SHL ADD SWAP1 SSTORE DUP1 RETURN JUMPDEST ADD MLOAD PUSH1 0x0 NOT PUSH1 0xF8 DUP5 PUSH1 0x3 SHL AND SHR NOT AND SWAP1 SSTORE CODESIZE DUP1 DUP1 PUSH2 0x2E03 JUMP JUMPDEST DUP6 DUP8 ADD MLOAD DUP9 SSTORE SWAP1 SWAP7 ADD SWAP6 SWAP5 DUP6 ADD SWAP5 DUP8 SWAP4 POP SWAP1 DUP2 ADD SWAP1 PUSH2 0x2DF2 JUMP JUMPDEST PUSH2 0x2E69 SWAP1 DUP7 DUP9 MSTORE DUP4 DUP9 KECCAK256 PUSH1 0x1F DUP7 ADD PUSH1 0x5 SHR DUP2 ADD SWAP2 DUP6 DUP8 LT PUSH2 0xA2B JUMPI PUSH1 0x1F ADD PUSH1 0x5 SHR ADD SWAP1 PUSH2 0x3E38 JUMP JUMPDEST CODESIZE PUSH2 0x2DA6 JUMP JUMPDEST PUSH4 0x4E487B71 PUSH1 0xE0 SHL DUP7 MSTORE PUSH1 0x41 PUSH1 0x4 MSTORE PUSH1 0x24 DUP7 REVERT JUMPDEST POP CALLVALUE PUSH2 0x351 JUMPI PUSH1 0x20 CALLDATASIZE PUSH1 0x3 NOT ADD SLT PUSH2 0x351 JUMPI PUSH1 0x1 PUSH1 0x40 PUSH1 0x20 SWAP3 PUSH1 0x4 CALLDATALOAD DUP2 MSTORE PUSH1 0xFB DUP5 MSTORE KECCAK256 ADD SLOAD PUSH1 0x40 MLOAD SWAP1 DUP2 MSTORE RETURN JUMPDEST POP CALLVALUE PUSH2 0x351 JUMPI PUSH1 0x40 PUSH1 0x20 SWAP2 PUSH2 0x2EC4 CALLDATASIZE PUSH2 0x3506 JUMP JUMPDEST PUSH1 0x1 PUSH1 0x1 PUSH1 0xA0 SHL SUB SWAP1 SWAP3 AND DUP4 MSTORE PUSH2 0x1FB DUP6 MSTORE DUP4 DUP4 KECCAK256 SWAP1 DUP4 MSTORE DUP5 MSTORE DUP3 DUP3 KECCAK256 SWAP1 DUP3 MSTORE DUP4 MSTORE KECCAK256 SLOAD PUSH1 0x40 MLOAD SWAP1 DUP2 MSTORE RETURN JUMPDEST POP CALLVALUE PUSH2 0x351 JUMPI PUSH1 0x20 CALLDATASIZE PUSH1 0x3 NOT ADD SLT PUSH2 0x351 JUMPI PUSH1 0x20 SWAP1 PUSH1 0x4 CALLDATALOAD DUP2 MSTORE PUSH2 0x1F9 DUP3 MSTORE PUSH1 0x40 PUSH1 0x1 DUP1 PUSH1 0xA0 SHL SUB SWAP2 KECCAK256 SLOAD AND PUSH1 0x40 MLOAD SWAP1 DUP2 MSTORE RETURN JUMPDEST POP CALLVALUE PUSH2 0x351 JUMPI PUSH1 0x20 DUP1 PUSH1 0x3 NOT CALLDATASIZE ADD SLT PUSH2 0x56D JUMPI PUSH2 0x2F3F PUSH2 0x33FE JUMP JUMPDEST PUSH2 0x2F47 PUSH2 0x4063 JUMP JUMPDEST PUSH1 0x0 DUP1 MLOAD PUSH1 0x20 PUSH2 0x4140 DUP4 CODECOPY DUP2 MLOAD SWAP2 MSTORE DUP5 MSTORE PUSH1 0xFB DUP4 MSTORE PUSH1 0x40 DUP1 DUP6 KECCAK256 PUSH1 0x1 PUSH1 0x1 PUSH1 0xA0 SHL SUB SWAP3 DUP4 AND DUP7 MSTORE DUP5 MSTORE DUP5 KECCAK256 SLOAD PUSH1 0xFF AND DUP1 ISZERO PUSH2 0x2FBA JUMPI JUMPDEST PUSH2 0x2F86 SWAP1 PUSH2 0x3E4F JUMP JUMPDEST PUSH1 0x0 DUP1 MLOAD PUSH1 0x20 PUSH2 0x4180 DUP4 CODECOPY DUP2 MLOAD SWAP2 MSTORE SWAP3 DUP4 DUP6 MSTORE PUSH1 0xFB DUP2 MSTORE DUP2 PUSH1 0x40 DUP7 KECCAK256 SWAP4 AND SWAP3 DUP4 DUP7 MSTORE DUP2 MSTORE PUSH1 0xFF PUSH1 0x40 DUP7 KECCAK256 SLOAD AND PUSH2 0x1C2E JUMPI DUP5 DUP1 RETURN JUMPDEST POP PUSH2 0x2F86 DUP2 PUSH1 0x33 SLOAD AND DUP3 PUSH2 0x2FCC PUSH2 0x4063 JUMP JUMPDEST AND EQ SWAP1 POP PUSH2 0x2F7D JUMP JUMPDEST POP CALLVALUE PUSH2 0x351 JUMPI PUSH1 0x40 CALLDATASIZE PUSH1 0x3 NOT ADD SLT PUSH2 0x351 JUMPI PUSH1 0x4 CALLDATALOAD PUSH2 0x2FF2 PUSH2 0x33E8 JUMP JUMPDEST PUSH2 0x2FFA PUSH2 0x4063 JUMP JUMPDEST SWAP1 PUSH1 0x0 DUP1 MLOAD PUSH1 0x20 PUSH2 0x4140 DUP4 CODECOPY DUP2 MLOAD SWAP2 MSTORE DUP5 MSTORE PUSH1 0xFB PUSH1 0x20 MSTORE PUSH1 0x40 DUP5 KECCAK256 PUSH1 0x1 DUP1 PUSH1 0xA0 SHL SUB DUP1 SWAP4 AND DUP6 MSTORE PUSH1 0x20 MSTORE PUSH1 0xFF PUSH1 0x40 DUP6 KECCAK256 SLOAD AND DUP1 ISZERO PUSH2 0x3084 JUMPI JUMPDEST PUSH2 0x303C SWAP1 PUSH2 0x3E4F JUMP JUMPDEST AND SWAP1 PUSH2 0x3049 DUP3 ISZERO ISZERO PUSH2 0x3E91 JUMP JUMPDEST DUP1 DUP4 MSTORE PUSH2 0x1F9 SWAP1 DUP2 PUSH1 0x20 MSTORE PUSH2 0x3067 PUSH1 0xFF PUSH1 0x40 DUP7 KECCAK256 SLOAD PUSH1 0xA0 SHR AND PUSH2 0x3ED2 JUMP JUMPDEST DUP4 MSTORE PUSH1 0x20 MSTORE PUSH1 0x40 DUP3 KECCAK256 DUP1 SLOAD PUSH1 0x1 PUSH1 0x1 PUSH1 0xA0 SHL SUB NOT AND SWAP1 SWAP2 OR SWAP1 SSTORE DUP1 RETURN JUMPDEST POP PUSH2 0x303C DUP3 PUSH1 0x33 SLOAD AND DUP4 PUSH2 0x3096 PUSH2 0x4063 JUMP JUMPDEST AND EQ SWAP1 POP PUSH2 0x3033 JUMP JUMPDEST POP CALLVALUE PUSH2 0x351 JUMPI PUSH1 0x20 CALLDATASIZE PUSH1 0x3 NOT ADD SLT PUSH2 0x351 JUMPI PUSH1 0x4 CALLDATALOAD PUSH4 0xFFFFFFFF PUSH1 0xE0 SHL DUP2 AND DUP1 SWAP2 SUB PUSH2 0x56D JUMPI PUSH1 0x20 SWAP1 PUSH4 0x7965DB0B PUSH1 0xE0 SHL DUP2 EQ SWAP1 DUP2 ISZERO PUSH2 0x30E5 JUMPI JUMPDEST POP PUSH1 0x40 MLOAD SWAP1 ISZERO ISZERO DUP2 MSTORE RETURN JUMPDEST PUSH4 0x1FFC9A7 PUSH1 0xE0 SHL EQ SWAP1 POP DUP3 PUSH2 0x30DA JUMP JUMPDEST POP CALLVALUE PUSH2 0x351 JUMPI PUSH1 0x40 CALLDATASIZE PUSH1 0x3 NOT ADD SLT PUSH2 0x351 JUMPI PUSH1 0x4 CALLDATALOAD PUSH1 0x24 CALLDATALOAD DUP1 ISZERO ISZERO DUP2 SUB PUSH2 0xE8F JUMPI PUSH2 0xF67 SWAP2 PUSH2 0x3166 PUSH2 0x3126 PUSH2 0x4063 JUMP JUMPDEST PUSH1 0x0 DUP1 MLOAD PUSH1 0x20 PUSH2 0x4140 DUP4 CODECOPY DUP2 MLOAD SWAP2 MSTORE DUP7 MSTORE PUSH1 0xFB PUSH1 0x20 SWAP1 DUP2 MSTORE PUSH1 0x40 DUP1 DUP9 KECCAK256 PUSH1 0x1 PUSH1 0x1 PUSH1 0xA0 SHL SUB SWAP4 DUP5 AND DUP10 MSTORE SWAP1 SWAP2 MSTORE DUP7 KECCAK256 SLOAD PUSH1 0xFF AND SWAP1 DUP2 ISZERO PUSH2 0x1A49 JUMPI POP PUSH2 0x3E4F JUMP JUMPDEST DUP1 DUP5 MSTORE PUSH2 0x1F9 SWAP1 DUP2 PUSH1 0x20 MSTORE PUSH2 0x3184 PUSH1 0xFF PUSH1 0x40 DUP8 KECCAK256 SLOAD PUSH1 0xA0 SHR AND PUSH2 0x3ED2 JUMP JUMPDEST DUP5 MSTORE PUSH1 0x20 MSTORE PUSH1 0x40 DUP4 KECCAK256 DUP1 SLOAD PUSH1 0xFF PUSH1 0xA0 SHL NOT AND SWAP2 ISZERO ISZERO PUSH1 0xA0 SHL PUSH1 0xFF PUSH1 0xA0 SHL AND SWAP2 SWAP1 SWAP2 OR SWAP1 SSTORE JUMP JUMPDEST POP CALLVALUE PUSH2 0x351 JUMPI PUSH1 0x60 CALLDATASIZE PUSH1 0x3 NOT ADD SLT PUSH2 0x351 JUMPI PUSH1 0x4 CALLDATALOAD PUSH2 0x31C7 PUSH2 0x33E8 JUMP JUMPDEST PUSH1 0x1 PUSH1 0x1 PUSH1 0x40 SHL SUB PUSH1 0x44 CALLDATALOAD DUP2 DUP2 GT PUSH2 0xE46 JUMPI PUSH2 0x31E7 SWAP1 CALLDATASIZE SWAP1 PUSH1 0x4 ADD PUSH2 0x34E8 JUMP JUMPDEST SWAP3 PUSH2 0x31F0 PUSH2 0x4063 JUMP JUMPDEST SWAP1 PUSH1 0x0 DUP1 MLOAD PUSH1 0x20 PUSH2 0x4140 DUP4 CODECOPY DUP2 MLOAD SWAP2 MSTORE DUP7 MSTORE PUSH1 0x20 SWAP2 PUSH1 0xFB DUP4 MSTORE PUSH1 0x40 DUP8 KECCAK256 SWAP5 PUSH1 0x1 DUP1 PUSH1 0xA0 SHL SUB SWAP6 DUP7 DUP1 SWAP4 AND DUP10 MSTORE DUP5 MSTORE PUSH1 0xFF PUSH1 0x40 DUP10 KECCAK256 SLOAD AND DUP1 ISZERO PUSH2 0x33CD JUMPI JUMPDEST PUSH2 0x3236 SWAP1 PUSH2 0x3E4F JUMP JUMPDEST AND PUSH2 0x3242 DUP2 ISZERO ISZERO PUSH2 0x3E91 JUMP JUMPDEST DUP2 DUP8 MSTORE PUSH2 0x1F9 SWAP5 DUP6 DUP5 MSTORE PUSH1 0xFF PUSH1 0x40 DUP10 KECCAK256 SLOAD PUSH1 0xA0 SHR AND PUSH2 0x3391 JUMPI PUSH1 0x40 MLOAD SWAP2 PUSH1 0x60 DUP4 ADD DUP4 DUP2 LT DUP8 DUP3 GT OR PUSH2 0x337D JUMPI PUSH1 0x40 SWAP1 DUP2 MSTORE SWAP1 DUP4 MSTORE PUSH1 0x1 DUP6 DUP5 ADD DUP2 DUP2 MSTORE DUP5 DUP4 ADD SWAP10 DUP11 MSTORE SWAP5 DUP11 MSTORE SWAP7 DUP6 MSTORE DUP9 KECCAK256 SWAP2 MLOAD DUP3 SLOAD SWAP4 MLOAD PUSH1 0xFF PUSH1 0xA0 SHL SWAP1 ISZERO ISZERO PUSH1 0xA0 SHL AND PUSH1 0x1 PUSH1 0x1 PUSH1 0xA8 SHL SUB NOT SWAP1 SWAP5 AND SWAP2 AND PUSH1 0xFF PUSH1 0xA0 SHL NOT AND OR SWAP2 SWAP1 SWAP2 OR DUP2 SSTORE DUP4 ADD SWAP4 MLOAD DUP1 MLOAD SWAP3 DUP4 GT PUSH2 0x2E6F JUMPI PUSH2 0x32D1 DUP6 SLOAD PUSH2 0x3CF8 JUMP JUMPDEST PUSH1 0x1F DUP2 GT PUSH2 0x334F JUMPI JUMPDEST POP DUP2 PUSH1 0x1F DUP5 GT PUSH1 0x1 EQ PUSH2 0x3308 JUMPI POP SWAP3 DUP3 SWAP4 SWAP2 DUP4 SWAP3 DUP8 SWAP5 PUSH2 0x2DD5 JUMPI POP POP SHL SWAP2 PUSH1 0x0 NOT SWAP1 PUSH1 0x3 SHL SHR NOT AND OR SWAP1 SSTORE DUP1 RETURN JUMPDEST SWAP2 SWAP1 DUP4 PUSH1 0x1F NOT DUP2 AND DUP8 DUP10 MSTORE DUP5 DUP10 KECCAK256 SWAP5 DUP10 SWAP1 JUMPDEST DUP9 DUP4 DUP4 LT PUSH2 0x3335 JUMPI POP POP POP LT PUSH2 0x2E0E JUMPI POP POP POP DUP2 SHL ADD SWAP1 SSTORE DUP1 RETURN JUMPDEST DUP6 DUP8 ADD MLOAD DUP9 SSTORE SWAP1 SWAP7 ADD SWAP6 SWAP5 DUP6 ADD SWAP5 DUP8 SWAP4 POP SWAP1 DUP2 ADD SWAP1 PUSH2 0x331A JUMP JUMPDEST PUSH2 0x3377 SWAP1 DUP7 DUP9 MSTORE DUP4 DUP9 KECCAK256 PUSH1 0x1F DUP7 ADD PUSH1 0x5 SHR DUP2 ADD SWAP2 DUP6 DUP8 LT PUSH2 0xA2B JUMPI PUSH1 0x1F ADD PUSH1 0x5 SHR ADD SWAP1 PUSH2 0x3E38 JUMP JUMPDEST CODESIZE PUSH2 0x32DA JUMP JUMPDEST PUSH4 0x4E487B71 PUSH1 0xE0 SHL DUP11 MSTORE PUSH1 0x41 PUSH1 0x4 MSTORE PUSH1 0x24 DUP11 REVERT JUMPDEST PUSH1 0x40 MLOAD PUSH3 0x461BCD PUSH1 0xE5 SHL DUP2 MSTORE PUSH1 0x4 DUP2 ADD DUP6 SWAP1 MSTORE PUSH1 0x14 PUSH1 0x24 DUP3 ADD MSTORE PUSH20 0x526F75746520416C726561647920457869737473 PUSH1 0x60 SHL PUSH1 0x44 DUP3 ADD MSTORE PUSH1 0x64 SWAP1 REVERT JUMPDEST POP PUSH2 0x3236 DUP3 PUSH1 0x33 SLOAD AND DUP4 PUSH2 0x33DF PUSH2 0x4063 JUMP JUMPDEST AND EQ SWAP1 POP PUSH2 0x322D JUMP JUMPDEST PUSH1 0x24 CALLDATALOAD SWAP1 PUSH1 0x1 PUSH1 0x1 PUSH1 0xA0 SHL SUB DUP3 AND DUP3 SUB PUSH2 0xBD2 JUMPI JUMP JUMPDEST PUSH1 0x4 CALLDATALOAD SWAP1 PUSH1 0x1 PUSH1 0x1 PUSH1 0xA0 SHL SUB DUP3 AND DUP3 SUB PUSH2 0xBD2 JUMPI JUMP JUMPDEST CALLDATALOAD SWAP1 PUSH1 0x1 PUSH1 0x1 PUSH1 0xA0 SHL SUB DUP3 AND DUP3 SUB PUSH2 0xBD2 JUMPI JUMP JUMPDEST PUSH2 0x100 DUP2 ADD SWAP1 DUP2 LT PUSH1 0x1 PUSH1 0x1 PUSH1 0x40 SHL SUB DUP3 GT OR PUSH2 0x3444 JUMPI PUSH1 0x40 MSTORE JUMP JUMPDEST PUSH4 0x4E487B71 PUSH1 0xE0 SHL PUSH1 0x0 MSTORE PUSH1 0x41 PUSH1 0x4 MSTORE PUSH1 0x24 PUSH1 0x0 REVERT JUMPDEST PUSH1 0x60 DUP2 ADD SWAP1 DUP2 LT PUSH1 0x1 PUSH1 0x1 PUSH1 0x40 SHL SUB DUP3 GT OR PUSH2 0x3444 JUMPI PUSH1 0x40 MSTORE JUMP JUMPDEST SWAP1 PUSH1 0x1F DUP1 NOT SWAP2 ADD AND DUP2 ADD SWAP1 DUP2 LT PUSH1 0x1 PUSH1 0x1 PUSH1 0x40 SHL SUB DUP3 GT OR PUSH2 0x3444 JUMPI PUSH1 0x40 MSTORE JUMP JUMPDEST PUSH1 0x1 PUSH1 0x1 PUSH1 0x40 SHL SUB DUP2 GT PUSH2 0x3444 JUMPI PUSH1 0x1F ADD PUSH1 0x1F NOT AND PUSH1 0x20 ADD SWAP1 JUMP JUMPDEST SWAP3 SWAP2 SWAP3 PUSH2 0x34BD DUP3 PUSH2 0x3496 JUMP JUMPDEST SWAP2 PUSH2 0x34CB PUSH1 0x40 MLOAD SWAP4 DUP5 PUSH2 0x3475 JUMP JUMPDEST DUP3 SWAP5 DUP2 DUP5 MSTORE DUP2 DUP4 ADD GT PUSH2 0xBD2 JUMPI DUP3 DUP2 PUSH1 0x20 SWAP4 DUP5 PUSH1 0x0 SWAP7 ADD CALLDATACOPY ADD ADD MSTORE JUMP JUMPDEST SWAP1 DUP1 PUSH1 0x1F DUP4 ADD SLT ISZERO PUSH2 0xBD2 JUMPI DUP2 PUSH1 0x20 PUSH2 0x3503 SWAP4 CALLDATALOAD SWAP2 ADD PUSH2 0x34B1 JUMP JUMPDEST SWAP1 JUMP JUMPDEST PUSH1 0x60 SWAP1 PUSH1 0x3 NOT ADD SLT PUSH2 0xBD2 JUMPI PUSH1 0x4 CALLDATALOAD PUSH1 0x1 PUSH1 0x1 PUSH1 0xA0 SHL SUB DUP2 AND DUP2 SUB PUSH2 0xBD2 JUMPI SWAP1 PUSH1 0x24 CALLDATALOAD SWAP1 PUSH1 0x44 CALLDATALOAD SWAP1 JUMP JUMPDEST SWAP2 SWAP1 SWAP2 PUSH1 0x40 DUP2 DUP5 SUB SLT PUSH2 0xBD2 JUMPI PUSH1 0x40 DUP1 MLOAD SWAP2 PUSH1 0x1 PUSH1 0x1 PUSH1 0x40 SHL SUB SWAP2 DUP4 ADD DUP3 DUP2 GT DUP5 DUP3 LT OR PUSH2 0x3444 JUMPI PUSH1 0x40 MSTORE DUP3 SWAP5 PUSH2 0x3566 DUP3 PUSH2 0x3414 JUMP JUMPDEST DUP5 MSTORE PUSH1 0x20 DUP3 ADD CALLDATALOAD SWAP3 DUP4 GT PUSH2 0xBD2 JUMPI PUSH1 0x20 SWAP3 PUSH2 0x3581 SWAP3 ADD PUSH2 0x34E8 JUMP JUMPDEST SWAP2 ADD MSTORE JUMP JUMPDEST SWAP2 DUP2 PUSH1 0x1F DUP5 ADD SLT ISZERO PUSH2 0xBD2 JUMPI DUP3 CALLDATALOAD SWAP2 PUSH1 0x1 PUSH1 0x1 PUSH1 0x40 SHL SUB DUP4 GT PUSH2 0xBD2 JUMPI PUSH1 0x20 DUP4 DUP2 DUP7 ADD SWAP6 ADD ADD GT PUSH2 0xBD2 JUMPI JUMP JUMPDEST PUSH1 0x0 JUMPDEST DUP4 DUP2 LT PUSH2 0x35C6 JUMPI POP POP PUSH1 0x0 SWAP2 ADD MSTORE JUMP JUMPDEST DUP2 DUP2 ADD MLOAD DUP4 DUP3 ADD MSTORE PUSH1 0x20 ADD PUSH2 0x35B6 JUMP JUMPDEST SWAP1 PUSH1 0x20 SWAP2 PUSH2 0x35EF DUP2 MLOAD DUP1 SWAP3 DUP2 DUP6 MSTORE DUP6 DUP1 DUP7 ADD SWAP2 ADD PUSH2 0x35B3 JUMP JUMPDEST PUSH1 0x1F ADD PUSH1 0x1F NOT AND ADD ADD SWAP1 JUMP JUMPDEST PUSH2 0x3603 PUSH2 0x4063 JUMP JUMPDEST SWAP1 PUSH1 0x0 SWAP1 DUP1 DUP3 MSTORE PUSH1 0x20 SWAP2 PUSH1 0xFB DUP4 MSTORE PUSH1 0x40 SWAP4 DUP5 DUP3 KECCAK256 SWAP1 PUSH1 0x1 DUP1 PUSH1 0xA0 SHL SUB AND SWAP1 DUP2 DUP4 MSTORE DUP5 MSTORE PUSH1 0xFF DUP6 DUP4 KECCAK256 SLOAD AND ISZERO PUSH2 0x3639 JUMPI POP POP POP POP POP JUMP JUMPDEST DUP5 MLOAD SWAP3 PUSH2 0x3645 DUP5 PUSH2 0x345A JUMP JUMPDEST PUSH1 0x2A DUP5 MSTORE DUP5 DUP5 ADD SWAP1 DUP7 CALLDATASIZE DUP4 CALLDATACOPY DUP5 MLOAD ISZERO PUSH2 0x38FB JUMPI PUSH1 0x30 DUP3 MSTORE8 DUP5 MLOAD SWAP3 PUSH1 0x1 SWAP4 DUP5 LT ISZERO PUSH2 0x38E7 JUMPI PUSH1 0x78 PUSH1 0x21 DUP8 ADD MSTORE8 PUSH1 0x29 JUMPDEST DUP5 DUP2 GT PUSH2 0x387D JUMPI POP PUSH2 0x383B JUMPI DUP7 MLOAD SWAP3 PUSH1 0x80 DUP5 ADD DUP5 DUP2 LT PUSH1 0x1 PUSH1 0x1 PUSH1 0x40 SHL SUB DUP3 GT OR PUSH2 0x2E6F JUMPI DUP9 MSTORE PUSH1 0x42 DUP5 MSTORE DUP7 DUP5 ADD SWAP5 PUSH1 0x60 CALLDATASIZE DUP8 CALLDATACOPY DUP5 MLOAD ISZERO PUSH2 0x3827 JUMPI PUSH1 0x30 DUP7 MSTORE8 DUP5 MLOAD DUP3 LT ISZERO PUSH2 0x3827 JUMPI SWAP1 PUSH1 0x78 PUSH1 0x21 DUP7 ADD MSTORE8 PUSH1 0x41 SWAP2 JUMPDEST DUP2 DUP4 GT PUSH2 0x37B9 JUMPI POP POP POP PUSH2 0x3777 JUMPI PUSH2 0x3773 SWAP4 DUP7 SWAP4 PUSH2 0x3757 SWAP4 PUSH2 0x3748 PUSH1 0x48 SWAP5 PUSH2 0x371F SWAP11 MLOAD SWAP11 DUP12 SWAP6 PUSH32 0x416363657373436F6E74726F6C3A206163636F756E7420000000000000000000 DUP13 DUP9 ADD MSTORE MLOAD DUP1 SWAP3 PUSH1 0x37 DUP9 ADD SWAP1 PUSH2 0x35B3 JUMP JUMPDEST DUP5 ADD SWAP2 PUSH17 0x1034B99036B4B9B9B4B733903937B6329 PUSH1 0x7D SHL PUSH1 0x37 DUP5 ADD MSTORE MLOAD DUP1 SWAP4 DUP7 DUP5 ADD SWAP1 PUSH2 0x35B3 JUMP JUMPDEST ADD SUB PUSH1 0x28 DUP2 ADD DUP8 MSTORE ADD DUP6 PUSH2 0x3475 JUMP JUMPDEST MLOAD SWAP3 DUP4 SWAP3 PUSH3 0x461BCD PUSH1 0xE5 SHL DUP5 MSTORE PUSH1 0x4 DUP5 ADD MSTORE PUSH1 0x24 DUP4 ADD SWAP1 PUSH2 0x35D6 JUMP JUMPDEST SUB SWAP1 REVERT JUMPDEST PUSH1 0x64 DUP6 DUP8 MLOAD SWAP1 PUSH3 0x461BCD PUSH1 0xE5 SHL DUP3 MSTORE DUP1 PUSH1 0x4 DUP4 ADD MSTORE PUSH1 0x24 DUP3 ADD MSTORE PUSH32 0x537472696E67733A20686578206C656E67746820696E73756666696369656E74 PUSH1 0x44 DUP3 ADD MSTORE REVERT JUMPDEST SWAP1 SWAP2 SWAP3 PUSH1 0xF DUP2 AND PUSH1 0x10 DUP2 LT ISZERO PUSH2 0x3813 JUMPI PUSH16 0x181899199A1A9B1B9C1CB0B131B232B3 PUSH1 0x81 SHL SWAP1 BYTE PUSH2 0x37E9 DUP6 DUP9 PUSH2 0x3CD1 JUMP JUMPDEST MSTORE8 PUSH1 0x4 SHR SWAP3 DUP1 ISZERO PUSH2 0x37FF JUMPI PUSH1 0x0 NOT ADD SWAP2 SWAP1 PUSH2 0x36C7 JUMP JUMPDEST PUSH4 0x4E487B71 PUSH1 0xE0 SHL DUP3 MSTORE PUSH1 0x11 PUSH1 0x4 MSTORE PUSH1 0x24 DUP3 REVERT JUMPDEST PUSH4 0x4E487B71 PUSH1 0xE0 SHL DUP4 MSTORE PUSH1 0x32 PUSH1 0x4 MSTORE PUSH1 0x24 DUP4 REVERT JUMPDEST PUSH4 0x4E487B71 PUSH1 0xE0 SHL DUP2 MSTORE PUSH1 0x32 PUSH1 0x4 MSTORE PUSH1 0x24 SWAP1 REVERT JUMPDEST PUSH1 0x64 DUP7 DUP9 MLOAD SWAP1 PUSH3 0x461BCD PUSH1 0xE5 SHL DUP3 MSTORE DUP1 PUSH1 0x4 DUP4 ADD MSTORE PUSH1 0x24 DUP3 ADD MSTORE PUSH32 0x537472696E67733A20686578206C656E67746820696E73756666696369656E74 PUSH1 0x44 DUP3 ADD MSTORE REVERT JUMPDEST SWAP1 PUSH1 0xF DUP2 AND PUSH1 0x10 DUP2 LT ISZERO PUSH2 0x38D3 JUMPI PUSH16 0x181899199A1A9B1B9C1CB0B131B232B3 PUSH1 0x81 SHL SWAP1 BYTE PUSH2 0x38AB DUP4 DUP10 PUSH2 0x3CD1 JUMP JUMPDEST MSTORE8 PUSH1 0x4 SHR SWAP1 DUP1 ISZERO PUSH2 0x38BF JUMPI PUSH1 0x0 NOT ADD PUSH2 0x3673 JUMP JUMPDEST PUSH4 0x4E487B71 PUSH1 0xE0 SHL DUP7 MSTORE PUSH1 0x11 PUSH1 0x4 MSTORE PUSH1 0x24 DUP7 REVERT JUMPDEST PUSH4 0x4E487B71 PUSH1 0xE0 SHL DUP8 MSTORE PUSH1 0x32 PUSH1 0x4 MSTORE PUSH1 0x24 DUP8 REVERT JUMPDEST PUSH4 0x4E487B71 PUSH1 0xE0 SHL DUP6 MSTORE PUSH1 0x32 PUSH1 0x4 MSTORE PUSH1 0x24 DUP6 REVERT JUMPDEST PUSH4 0x4E487B71 PUSH1 0xE0 SHL DUP5 MSTORE PUSH1 0x32 PUSH1 0x4 MSTORE PUSH1 0x24 DUP5 REVERT JUMPDEST PUSH1 0x1 PUSH1 0x1 PUSH1 0xA0 SHL SUB SWAP1 DUP2 AND PUSH1 0x0 DUP2 DUP2 MSTORE PUSH32 0xC88390E7E62175BE0932452175B6A7222B6B094AB0EF984A5153C620345D8975 PUSH1 0x20 MSTORE PUSH1 0x40 DUP2 KECCAK256 SLOAD SWAP1 SWAP3 SWAP1 PUSH1 0xFF AND ISZERO PUSH2 0x3958 JUMPI POP POP POP JUMP JUMPDEST DUP3 DUP1 MSTORE PUSH1 0xFB PUSH1 0x20 MSTORE PUSH1 0x40 DUP4 KECCAK256 DUP3 DUP5 MSTORE PUSH1 0x20 MSTORE PUSH1 0x40 DUP4 KECCAK256 PUSH1 0x1 PUSH1 0xFF NOT DUP3 SLOAD AND OR SWAP1 SSTORE PUSH2 0x3981 PUSH2 0x4063 JUMP JUMPDEST AND SWAP2 PUSH1 0x0 DUP1 MLOAD PUSH1 0x20 PUSH2 0x40C0 DUP4 CODECOPY DUP2 MLOAD SWAP2 MSTORE DUP2 DUP1 LOG4 JUMP JUMPDEST PUSH1 0x0 DUP2 DUP2 MSTORE PUSH1 0xFB PUSH1 0x20 SWAP1 DUP2 MSTORE PUSH1 0x40 DUP1 DUP4 KECCAK256 PUSH1 0x1 PUSH1 0x1 PUSH1 0xA0 SHL SUB SWAP6 DUP7 AND DUP1 DUP6 MSTORE SWAP3 MSTORE DUP3 KECCAK256 SLOAD SWAP2 SWAP4 SWAP1 SWAP3 SWAP2 PUSH1 0xFF AND PUSH2 0x39CE JUMPI JUMPDEST POP POP POP POP JUMP JUMPDEST PUSH1 0x0 DUP1 MLOAD PUSH1 0x20 PUSH2 0x4160 DUP4 CODECOPY DUP2 MLOAD SWAP2 MSTORE SWAP1 DUP3 DUP6 MSTORE PUSH1 0xFB PUSH1 0x20 MSTORE PUSH1 0x40 DUP6 KECCAK256 DUP5 DUP7 MSTORE PUSH1 0x20 MSTORE PUSH1 0x40 DUP6 KECCAK256 PUSH1 0xFF NOT DUP2 SLOAD AND SWAP1 SSTORE PUSH2 0x3A04 PUSH2 0x4063 JUMP JUMPDEST AND SWAP4 DUP1 LOG4 CODESIZE DUP1 DUP1 DUP1 PUSH2 0x39C8 JUMP JUMPDEST PUSH1 0x33 SLOAD PUSH1 0x1 PUSH1 0x1 PUSH1 0xA0 SHL SUB SWAP1 DUP2 AND SWAP1 PUSH2 0x3A28 PUSH2 0x4063 JUMP JUMPDEST AND SUB PUSH2 0x3A30 JUMPI JUMP JUMPDEST PUSH1 0x64 PUSH1 0x40 MLOAD PUSH3 0x461BCD PUSH1 0xE5 SHL DUP2 MSTORE PUSH1 0x20 PUSH1 0x4 DUP3 ADD MSTORE PUSH1 0x20 PUSH1 0x24 DUP3 ADD MSTORE PUSH32 0x4F776E61626C653A2063616C6C6572206973206E6F7420746865206F776E6572 PUSH1 0x44 DUP3 ADD MSTORE REVERT JUMPDEST PUSH1 0x33 DUP1 SLOAD PUSH1 0x1 PUSH1 0x1 PUSH1 0xA0 SHL SUB SWAP3 DUP4 AND PUSH1 0x1 PUSH1 0x1 PUSH1 0xA0 SHL SUB NOT DUP3 AND DUP2 OR SWAP1 SWAP3 SSTORE SWAP1 SWAP2 AND PUSH32 0x8BE0079C531659141344CD1FD0A4F28419497F9722A3DAAFE3B4186F6B6457E0 PUSH1 0x0 DUP1 LOG3 JUMP JUMPDEST ISZERO PUSH2 0x3AC4 JUMPI JUMP JUMPDEST PUSH1 0x40 MLOAD PUSH3 0x461BCD PUSH1 0xE5 SHL DUP2 MSTORE PUSH1 0x20 PUSH1 0x4 DUP3 ADD MSTORE PUSH1 0x2C PUSH1 0x24 DUP3 ADD MSTORE PUSH32 0x46756E6374696F6E206D7573742062652063616C6C6564207468726F75676820 PUSH1 0x44 DUP3 ADD MSTORE PUSH12 0x19195B1959D85D1958D85B1B PUSH1 0xA2 SHL PUSH1 0x64 DUP3 ADD MSTORE PUSH1 0x84 SWAP1 REVERT JUMPDEST ISZERO PUSH2 0x3B25 JUMPI JUMP JUMPDEST PUSH1 0x40 MLOAD PUSH3 0x461BCD PUSH1 0xE5 SHL DUP2 MSTORE PUSH1 0x20 PUSH1 0x4 DUP3 ADD MSTORE PUSH1 0x2C PUSH1 0x24 DUP3 ADD MSTORE PUSH32 0x46756E6374696F6E206D7573742062652063616C6C6564207468726F75676820 PUSH1 0x44 DUP3 ADD MSTORE PUSH12 0x6163746976652070726F7879 PUSH1 0xA0 SHL PUSH1 0x64 DUP3 ADD MSTORE PUSH1 0x84 SWAP1 REVERT JUMPDEST DUP1 EXTCODESIZE ISZERO PUSH2 0x3BB4 JUMPI PUSH1 0x0 DUP1 MLOAD PUSH1 0x20 PUSH2 0x4100 DUP4 CODECOPY DUP2 MLOAD SWAP2 MSTORE DUP1 SLOAD PUSH1 0x1 PUSH1 0x1 PUSH1 0xA0 SHL SUB NOT AND PUSH1 0x1 PUSH1 0x1 PUSH1 0xA0 SHL SUB SWAP1 SWAP3 AND SWAP2 SWAP1 SWAP2 OR SWAP1 SSTORE JUMP JUMPDEST PUSH1 0x40 MLOAD PUSH3 0x461BCD PUSH1 0xE5 SHL DUP2 MSTORE PUSH1 0x20 PUSH1 0x4 DUP3 ADD MSTORE PUSH1 0x2D PUSH1 0x24 DUP3 ADD MSTORE PUSH32 0x455243313936373A206E657720696D706C656D656E746174696F6E206973206E PUSH1 0x44 DUP3 ADD MSTORE PUSH13 0x1BDD08184818DBDB9D1C9858DD PUSH1 0x9A SHL PUSH1 0x64 DUP3 ADD MSTORE PUSH1 0x84 SWAP1 REVERT JUMPDEST SWAP2 SWAP3 SWAP1 ISZERO PUSH2 0x3C71 JUMPI POP DUP2 MLOAD ISZERO PUSH2 0x3C23 JUMPI POP SWAP1 JUMP JUMPDEST EXTCODESIZE ISZERO PUSH2 0x3C2C JUMPI SWAP1 JUMP JUMPDEST PUSH1 0x40 MLOAD PUSH3 0x461BCD PUSH1 0xE5 SHL DUP2 MSTORE PUSH1 0x20 PUSH1 0x4 DUP3 ADD MSTORE PUSH1 0x1D PUSH1 0x24 DUP3 ADD MSTORE PUSH32 0x416464726573733A2063616C6C20746F206E6F6E2D636F6E7472616374000000 PUSH1 0x44 DUP3 ADD MSTORE PUSH1 0x64 SWAP1 REVERT JUMPDEST DUP3 MLOAD SWAP1 SWAP2 POP ISZERO PUSH2 0x3C84 JUMPI POP DUP1 MLOAD SWAP1 PUSH1 0x20 ADD REVERT JUMPDEST PUSH1 0x40 MLOAD PUSH3 0x461BCD PUSH1 0xE5 SHL DUP2 MSTORE PUSH1 0x20 PUSH1 0x4 DUP3 ADD MSTORE SWAP1 DUP2 SWAP1 PUSH2 0x3773 SWAP1 PUSH1 0x24 DUP4 ADD SWAP1 PUSH2 0x35D6 JUMP JUMPDEST DUP2 DUP2 MUL SWAP3 SWAP2 DUP2 ISZERO SWAP2 DUP5 DIV EQ OR ISZERO PUSH2 0x3CBB JUMPI JUMP JUMPDEST PUSH4 0x4E487B71 PUSH1 0xE0 SHL PUSH1 0x0 MSTORE PUSH1 0x11 PUSH1 0x4 MSTORE PUSH1 0x24 PUSH1 0x0 REVERT JUMPDEST SWAP1 DUP2 MLOAD DUP2 LT ISZERO PUSH2 0x3CE2 JUMPI ADD PUSH1 0x20 ADD SWAP1 JUMP JUMPDEST PUSH4 0x4E487B71 PUSH1 0xE0 SHL PUSH1 0x0 MSTORE PUSH1 0x32 PUSH1 0x4 MSTORE PUSH1 0x24 PUSH1 0x0 REVERT JUMPDEST SWAP1 PUSH1 0x1 DUP3 DUP2 SHR SWAP3 AND DUP1 ISZERO PUSH2 0x3D28 JUMPI JUMPDEST PUSH1 0x20 DUP4 LT EQ PUSH2 0x3D12 JUMPI JUMP JUMPDEST PUSH4 0x4E487B71 PUSH1 0xE0 SHL PUSH1 0x0 MSTORE PUSH1 0x22 PUSH1 0x4 MSTORE PUSH1 0x24 PUSH1 0x0 REVERT JUMPDEST SWAP2 PUSH1 0x7F AND SWAP2 PUSH2 0x3D07 JUMP JUMPDEST SWAP1 PUSH1 0x40 MLOAD SWAP2 DUP3 PUSH1 0x0 DUP3 SLOAD SWAP3 PUSH2 0x3D46 DUP5 PUSH2 0x3CF8 JUMP JUMPDEST SWAP1 DUP2 DUP5 MSTORE PUSH1 0x1 SWAP5 DUP6 DUP2 AND SWAP1 DUP2 PUSH1 0x0 EQ PUSH2 0x3DB5 JUMPI POP PUSH1 0x1 EQ PUSH2 0x3D72 JUMPI JUMPDEST POP POP PUSH2 0x3D70 SWAP3 POP SUB DUP4 PUSH2 0x3475 JUMP JUMPDEST JUMP JUMPDEST SWAP1 SWAP4 SWAP2 POP PUSH1 0x0 MSTORE PUSH1 0x20 SWAP1 DUP2 PUSH1 0x0 KECCAK256 SWAP4 PUSH1 0x0 SWAP2 JUMPDEST DUP2 DUP4 LT PUSH2 0x3D9D JUMPI POP POP PUSH2 0x3D70 SWAP4 POP DUP3 ADD ADD CODESIZE DUP1 PUSH2 0x3D62 JUMP JUMPDEST DUP6 SLOAD DUP9 DUP5 ADD DUP6 ADD MSTORE SWAP5 DUP6 ADD SWAP5 DUP8 SWAP5 POP SWAP2 DUP4 ADD SWAP2 PUSH2 0x3D85 JUMP JUMPDEST SWAP2 POP POP PUSH2 0x3D70 SWAP5 POP PUSH1 0x20 SWAP3 POP PUSH1 0xFF NOT AND DUP3 DUP5 ADD MSTORE ISZERO ISZERO PUSH1 0x5 SHL DUP3 ADD ADD CODESIZE DUP1 PUSH2 0x3D62 JUMP JUMPDEST ISZERO PUSH2 0x3DDF JUMPI JUMP JUMPDEST PUSH1 0x40 MLOAD PUSH3 0x461BCD PUSH1 0xE5 SHL DUP2 MSTORE PUSH1 0x20 PUSH1 0x4 DUP3 ADD MSTORE PUSH1 0x2B PUSH1 0x24 DUP3 ADD MSTORE PUSH32 0x496E697469616C697A61626C653A20636F6E7472616374206973206E6F742069 PUSH1 0x44 DUP3 ADD MSTORE PUSH11 0x6E697469616C697A696E67 PUSH1 0xA8 SHL PUSH1 0x64 DUP3 ADD MSTORE PUSH1 0x84 SWAP1 REVERT JUMPDEST DUP2 DUP2 LT PUSH2 0x3E43 JUMPI POP POP JUMP JUMPDEST PUSH1 0x0 DUP2 SSTORE PUSH1 0x1 ADD PUSH2 0x3E38 JUMP JUMPDEST ISZERO PUSH2 0x3E56 JUMPI JUMP JUMPDEST PUSH1 0x40 MLOAD PUSH3 0x461BCD PUSH1 0xE5 SHL DUP2 MSTORE PUSH1 0x20 PUSH1 0x4 DUP3 ADD MSTORE PUSH1 0x13 PUSH1 0x24 DUP3 ADD MSTORE PUSH19 0x556E617574686F72697A656420416363657373 PUSH1 0x68 SHL PUSH1 0x44 DUP3 ADD MSTORE PUSH1 0x64 SWAP1 REVERT JUMPDEST ISZERO PUSH2 0x3E98 JUMPI JUMP JUMPDEST PUSH1 0x40 MLOAD PUSH3 0x461BCD PUSH1 0xE5 SHL DUP2 MSTORE PUSH1 0x20 PUSH1 0x4 DUP3 ADD MSTORE PUSH1 0x12 PUSH1 0x24 DUP3 ADD MSTORE PUSH18 0x1059191C995CDCC80C08141C9BDD9A591959 PUSH1 0x72 SHL PUSH1 0x44 DUP3 ADD MSTORE PUSH1 0x64 SWAP1 REVERT JUMPDEST ISZERO PUSH2 0x3ED9 JUMPI JUMP JUMPDEST PUSH1 0x40 MLOAD PUSH3 0x461BCD PUSH1 0xE5 SHL DUP2 MSTORE PUSH1 0x20 PUSH1 0x4 DUP3 ADD MSTORE PUSH1 0x14 PUSH1 0x24 DUP3 ADD MSTORE PUSH20 0x149BDD5D1948111BD95CC8139BDD08115E1A5CDD PUSH1 0x62 SHL PUSH1 0x44 DUP3 ADD MSTORE PUSH1 0x64 SWAP1 REVERT JUMPDEST ISZERO PUSH2 0x3F1C JUMPI JUMP JUMPDEST PUSH1 0x40 MLOAD PUSH3 0x461BCD PUSH1 0xE5 SHL DUP2 MSTORE PUSH1 0x20 PUSH1 0x4 DUP3 ADD MSTORE PUSH1 0x29 PUSH1 0x24 DUP3 ADD MSTORE PUSH32 0x536F7572636520616E642044657374696E6174696F6E20436861696E20496473 PUSH1 0x44 DUP3 ADD MSTORE PUSH9 0x206172652073616D65 PUSH1 0xB8 SHL PUSH1 0x64 DUP3 ADD MSTORE PUSH1 0x84 SWAP1 REVERT JUMPDEST ISZERO PUSH2 0x3F7A JUMPI JUMP JUMPDEST PUSH1 0x40 MLOAD PUSH3 0x461BCD PUSH1 0xE5 SHL DUP2 MSTORE PUSH1 0x20 PUSH1 0x4 DUP3 ADD MSTORE PUSH1 0x2C PUSH1 0x24 DUP3 ADD MSTORE PUSH32 0x44657374696E6174696F6E20436861696E204761746577617920416464726573 PUSH1 0x44 DUP3 ADD MSTORE PUSH12 0x1CC81A5CC81B9BDD081CD95D PUSH1 0xA2 SHL PUSH1 0x64 DUP3 ADD MSTORE PUSH1 0x84 SWAP1 REVERT JUMPDEST SWAP3 SWAP2 SWAP1 PUSH2 0x405E PUSH1 0x20 DUP1 SWAP3 PUSH1 0x40 DUP8 MSTORE PUSH1 0x1 DUP1 PUSH1 0xA0 SHL SUB DUP1 DUP3 MLOAD AND PUSH1 0x40 DUP10 ADD MSTORE DUP3 DUP3 ADD MLOAD PUSH1 0x60 DUP10 ADD MSTORE PUSH1 0x40 DUP3 ADD MLOAD PUSH1 0x80 DUP10 ADD MSTORE PUSH1 0x60 DUP3 ADD MLOAD PUSH1 0xA0 DUP10 ADD MSTORE PUSH1 0x80 DUP3 ADD MLOAD PUSH1 0xC0 DUP10 ADD MSTORE DUP1 PUSH1 0xA0 DUP4 ADD MLOAD AND PUSH1 0xE0 DUP10 ADD MSTORE PUSH1 0xE0 DUP2 PUSH1 0xC0 DUP5 ADD MLOAD AND SWAP3 PUSH2 0x100 SWAP4 DUP5 DUP12 ADD MSTORE ADD MLOAD SWAP2 PUSH2 0x120 DUP10 ADD MSTORE DUP2 MLOAD AND PUSH2 0x140 DUP9 ADD MSTORE ADD MLOAD PUSH1 0x40 PUSH2 0x160 DUP8 ADD MSTORE PUSH2 0x180 DUP7 ADD SWAP1 PUSH2 0x35D6 JUMP JUMPDEST SWAP4 ADD MSTORE JUMP JUMPDEST PUSH1 0x97 SLOAD PUSH1 0x1 PUSH1 0x1 PUSH1 0xA0 SHL SUB AND CALLER EQ DUP1 DUP1 PUSH2 0x40B4 JUMPI JUMPDEST ISZERO PUSH2 0x408A JUMPI POP CALLDATASIZE PUSH1 0x13 NOT ADD CALLDATALOAD PUSH1 0x60 SHR SWAP1 JUMP JUMPDEST PUSH1 0x14 CALLDATASIZE LT ISZERO SWAP1 DUP2 PUSH2 0x40AC JUMPI JUMPDEST POP ISZERO PUSH2 0x40A8 JUMPI CALLDATASIZE PUSH1 0x13 NOT ADD CALLDATALOAD PUSH1 0x60 SHR SWAP1 JUMP JUMPDEST CALLER SWAP1 JUMP JUMPDEST SWAP1 POP CODESIZE PUSH2 0x4096 JUMP JUMPDEST POP PUSH1 0x14 CALLDATASIZE LT ISZERO PUSH2 0x4078 JUMP INVALID 0x2F DUP8 DUP9 GT PUSH31 0x7EFF1D82E926EC794901D17C78024A50270940304540A733656F0D189AB7A9 0x24 0x4D CREATE DUP5 DUP2 0x22 ISZERO NUMBER ISZERO 0xAF PUSH18 0xFE140F3DB0FE014031783B0946B8C9D2E336 ADDMOD SWAP5 LOG1 EXTCODESIZE LOG1 LOG3 0x21 MOD PUSH8 0xC828492DB98DCA3E KECCAK256 PUSH23 0xCC3735A920A3CA505D382BBC65D7A28E3265B37A647492 SWAP16 CALLER PUSH6 0x21B332C1681B SWAP4 EXTCODEHASH PUSH13 0xB9F3376673440D862A7613A25E 0xCC PUSH20 0x8585A232AD50A301178F12B3BA8887D13E138B52 EXTCODECOPY TIMESTAMP PUSH10 0xC47689F6391F5C32D9C6 SWAP14 0x2A SELFBALANCE 0xEA PUSH8 0xB442974B53935D1 0xED 0xC7 REVERT PUSH5 0xEB21E047A8 CODECOPY OR SHL LOG4 SWAP9 SMOD KECCAK256 0x5C 0xE4 0xD3 SSTORE MULMOD 0x2E CREATE2 0xA8 LOG1 DUP16 JUMP 0xE8 SWAP2 EXTCODECOPY DELEGATECALL LOG2 ADD 0xFB 0xE2 DUP8 DUP3 JUMPDEST MULMOD JUMP SWAP4 0xC2 OR PUSH22 0xA264697066735822122090D6FE61FA80136E820181ED DUP9 0xDB DUP14 JUMP SWAP10 RETURNDATACOPY 0xEE 0xA8 0xE1 SWAP1 PUSH2 0xC528 XOR 0x23 PUSH19 0xF6DE83F464736F6C6343000811003300000000 "},"gasEstimates":{"creation":{"codeDepositCost":"3370600","executionCost":"infinite","totalCost":"infinite"},"external":{"ADMIN_ROLE()":"845","DEFAULT_ADMIN_ROLE()":"1079","PAUSER_ROLE()":"1395","SUPER_ADMIN_ROLE()":"559","UPGRADER_ROLE()":"1439","addAdmin(address)":"infinite","addPauser(address)":"infinite","addRoute(uint256,address,string)":"infinite","addSuperAdmin(address)":"infinite","addUpgrader(address)":"infinite","crossSyncFeeAddress()":"3225","crossSyncFeePercent()":"2981","destChainGatewayAddress(uint256)":"3046","eip712Domain()":"infinite","getFee(uint256,uint256,(address,bytes),uint256)":"infinite","getNativeCurrencyAddress()":"3093","getNativeWrappedCurrencyAddress()":"2565","getRoleAdmin(bytes32)":"2481","getRoute(uint256)":"infinite","getRouteAddress(uint256)":"2452","getRouteName(uint256)":"infinite","getRouteValidity(uint256)":"2845","getSyncFee(uint256)":"3251","getTrustedForwarder()":"3313","grantRole(bytes32,address)":"infinite","handleReceive(bytes)":"infinite","hasRole(bytes32,address)":"3348","initialize(string,string,address,address,address,address)":"infinite","isTrustedForwarder(address)":"2848","nativeCurrencyAddress()":"2587","nativeCurrencyWrappedAddress()":"3269","owner()":"3115","pause()":"infinite","paused()":"2823","proxiableUUID()":"infinite","receiveUserNonceSeen(address,uint256,uint256)":"2923","removeAdmin(address)":"infinite","removePauser(address)":"infinite","removeRoute(uint256)":"infinite","removeSuperAdmin(address)":"infinite","removeUpgrader(address)":"infinite","renounceOwnership()":"31014","renounceRole(bytes32,address)":"infinite","revokeRole(bytes32,address)":"infinite","sendMessage(uint256,uint256,(address,bytes),uint256,bytes)":"infinite","sentUserNonce(address,uint256,uint256)":"2691","setCrossSyncFee(uint256)":"infinite","setCrossSyncFeeAddress(address)":"infinite","setDestChainGatewayAddress(uint256,address)":"infinite","setNativeCurrencyAddress(address)":"infinite","setNativeWrappedCurrencyAddress(address)":"infinite","setRouteAddress(uint256,address)":"infinite","setRouteName(uint256,string)":"infinite","setRouteValidity(uint256,bool)":"infinite","setTrustedForwarder(address)":"infinite","supportsInterface(bytes4)":"320","transferOwnership(address)":"infinite","unpause()":"infinite","upgradeTo(address)":"infinite","upgradeToAndCall(address,bytes)":"infinite"},"internal":{"__setOwner__(address)":"infinite","_authorizeUpgrade(address)":"infinite","_giveTokenApproval(address,address,uint256)":"infinite","_handleReceive(bytes calldata)":"infinite","_msgData()":"infinite","_msgSender()":"2288","_transferNativeSyncFee(address,uint256,uint256,uint256,uint256)":"infinite","_transferToken(address,address,address,uint256)":"infinite","_verifyAdmin(bytes32,bytes memory)":"infinite"}},"methodIdentifiers":{"ADMIN_ROLE()":"75b238fc","DEFAULT_ADMIN_ROLE()":"a217fddf","PAUSER_ROLE()":"e63ab1e9","SUPER_ADMIN_ROLE()":"4460bdd6","UPGRADER_ROLE()":"f72c0d8b","addAdmin(address)":"70480275","addPauser(address)":"82dc1ec4","addRoute(uint256,address,string)":"004c7591","addSuperAdmin(address)":"b3292ff0","addUpgrader(address)":"e5110158","crossSyncFeeAddress()":"acb7176b","crossSyncFeePercent()":"8262c317","destChainGatewayAddress(uint256)":"7faf251c","eip712Domain()":"84b0196e","getFee(uint256,uint256,(address,bytes),uint256)":"c50189b8","getNativeCurrencyAddress()":"8898009d","getNativeWrappedCurrencyAddress()":"36d8261a","getRoleAdmin(bytes32)":"248a9ca3","getRoute(uint256)":"fa66358a","getRouteAddress(uint256)":"196c881e","getRouteName(uint256)":"d10a0da3","getRouteValidity(uint256)":"59b52ca4","getSyncFee(uint256)":"9ef42cbb","getTrustedForwarder()":"ce1b815f","grantRole(bytes32,address)":"2f2ff15d","handleReceive(bytes)":"e34381a1","hasRole(bytes32,address)":"91d14854","initialize(string,string,address,address,address,address)":"e56f2fe4","isTrustedForwarder(address)":"572b6c05","nativeCurrencyAddress()":"38073f0c","nativeCurrencyWrappedAddress()":"bd826ed7","owner()":"8da5cb5b","pause()":"8456cb59","paused()":"5c975abb","proxiableUUID()":"52d1902d","receiveUserNonceSeen(address,uint256,uint256)":"4429c25f","removeAdmin(address)":"1785f53c","removePauser(address)":"6b2c0f55","removeRoute(uint256)":"56e3008b","removeSuperAdmin(address)":"4902e4aa","removeUpgrader(address)":"d264a803","renounceOwnership()":"715018a6","renounceRole(bytes32,address)":"36568abe","revokeRole(bytes32,address)":"d547741f","sendMessage(uint256,uint256,(address,bytes),uint256,bytes)":"5c96a561","sentUserNonce(address,uint256,uint256)":"1fa5d2e7","setCrossSyncFee(uint256)":"7d0517d0","setCrossSyncFeeAddress(address)":"fde278bc","setDestChainGatewayAddress(uint256,address)":"98c33904","setNativeCurrencyAddress(address)":"32495ce1","setNativeWrappedCurrencyAddress(address)":"6050cafe","setRouteAddress(uint256,address)":"09b7d791","setRouteName(uint256,string)":"2b33cc87","setRouteValidity(uint256,bool)":"005e8eef","setTrustedForwarder(address)":"da742228","supportsInterface(bytes4)":"01ffc9a7","transferOwnership(address)":"f2fde38b","unpause()":"3f4ba83a","upgradeTo(address)":"3659cfe6","upgradeToAndCall(address,bytes)":"4f1ef286"}},"storageLayout":{"storage":[{"astId":1107,"contract":"contracts/CrossSyncGateway.sol:CrossSyncGateway","label":"_initialized","offset":0,"slot":"0","type":"t_uint8"},{"astId":1110,"contract":"contracts/CrossSyncGateway.sol:CrossSyncGateway","label":"_initializing","offset":1,"slot":"0","type":"t_bool"},{"astId":2104,"contract":"contracts/CrossSyncGateway.sol:CrossSyncGateway","label":"__gap","offset":0,"slot":"1","type":"t_array(t_uint256)50_storage"},{"astId":589,"contract":"contracts/CrossSyncGateway.sol:CrossSyncGateway","label":"_owner","offset":0,"slot":"51","type":"t_address"},{"astId":709,"contract":"contracts/CrossSyncGateway.sol:CrossSyncGateway","label":"__gap","offset":0,"slot":"52","type":"t_array(t_uint256)49_storage"},{"astId":6199,"contract":"contracts/CrossSyncGateway.sol:CrossSyncGateway","label":"__gap","offset":0,"slot":"101","type":"t_array(t_uint256)50_storage"},{"astId":6076,"contract":"contracts/CrossSyncGateway.sol:CrossSyncGateway","label":"_trustedForwarder","offset":0,"slot":"151","type":"t_address"},{"astId":1426,"contract":"contracts/CrossSyncGateway.sol:CrossSyncGateway","label":"_paused","offset":20,"slot":"151","type":"t_bool"},{"astId":1531,"contract":"contracts/CrossSyncGateway.sol:CrossSyncGateway","label":"__gap","offset":0,"slot":"152","type":"t_array(t_uint256)49_storage"},{"astId":3137,"contract":"contracts/CrossSyncGateway.sol:CrossSyncGateway","label":"__gap","offset":0,"slot":"201","type":"t_array(t_uint256)50_storage"},{"astId":184,"contract":"contracts/CrossSyncGateway.sol:CrossSyncGateway","label":"_roles","offset":0,"slot":"251","type":"t_mapping(t_bytes32,t_struct(RoleData)179_storage)"},{"astId":479,"contract":"contracts/CrossSyncGateway.sol:CrossSyncGateway","label":"__gap","offset":0,"slot":"252","type":"t_array(t_uint256)49_storage"},{"astId":1546,"contract":"contracts/CrossSyncGateway.sol:CrossSyncGateway","label":"_status","offset":0,"slot":"301","type":"t_uint256"},{"astId":1615,"contract":"contracts/CrossSyncGateway.sol:CrossSyncGateway","label":"__gap","offset":0,"slot":"302","type":"t_array(t_uint256)49_storage"},{"astId":2828,"contract":"contracts/CrossSyncGateway.sol:CrossSyncGateway","label":"_hashedName","offset":0,"slot":"351","type":"t_bytes32"},{"astId":2831,"contract":"contracts/CrossSyncGateway.sol:CrossSyncGateway","label":"_hashedVersion","offset":0,"slot":"352","type":"t_bytes32"},{"astId":2833,"contract":"contracts/CrossSyncGateway.sol:CrossSyncGateway","label":"_name","offset":0,"slot":"353","type":"t_string_storage"},{"astId":2835,"contract":"contracts/CrossSyncGateway.sol:CrossSyncGateway","label":"_version","offset":0,"slot":"354","type":"t_string_storage"},{"astId":3093,"contract":"contracts/CrossSyncGateway.sol:CrossSyncGateway","label":"__gap","offset":0,"slot":"355","type":"t_array(t_uint256)48_storage"},{"astId":1089,"contract":"contracts/CrossSyncGateway.sol:CrossSyncGateway","label":"__gap","offset":0,"slot":"403","type":"t_array(t_uint256)50_storage"},{"astId":1404,"contract":"contracts/CrossSyncGateway.sol:CrossSyncGateway","label":"__gap","offset":0,"slot":"453","type":"t_array(t_uint256)50_storage"},{"astId":4814,"contract":"contracts/CrossSyncGateway.sol:CrossSyncGateway","label":"nativeCurrencyWrappedAddress","offset":0,"slot":"503","type":"t_address"},{"astId":4816,"contract":"contracts/CrossSyncGateway.sol:CrossSyncGateway","label":"nativeCurrencyAddress","offset":0,"slot":"504","type":"t_address"},{"astId":4828,"contract":"contracts/CrossSyncGateway.sol:CrossSyncGateway","label":"routes","offset":0,"slot":"505","type":"t_mapping(t_uint256,t_struct(RouteData)4823_storage)"},{"astId":4832,"contract":"contracts/CrossSyncGateway.sol:CrossSyncGateway","label":"destChainGatewayAddress","offset":0,"slot":"506","type":"t_mapping(t_uint256,t_address)"},{"astId":4840,"contract":"contracts/CrossSyncGateway.sol:CrossSyncGateway","label":"sentUserNonce","offset":0,"slot":"507","type":"t_mapping(t_address,t_mapping(t_uint256,t_mapping(t_uint256,t_uint256)))"},{"astId":4848,"contract":"contracts/CrossSyncGateway.sol:CrossSyncGateway","label":"receiveUserNonceSeen","offset":0,"slot":"508","type":"t_mapping(t_address,t_mapping(t_uint256,t_mapping(t_uint256,t_bool)))"},{"astId":4850,"contract":"contracts/CrossSyncGateway.sol:CrossSyncGateway","label":"crossSyncFeePercent","offset":0,"slot":"509","type":"t_uint256"},{"astId":4852,"contract":"contracts/CrossSyncGateway.sol:CrossSyncGateway","label":"crossSyncFeeAddress","offset":0,"slot":"510","type":"t_address"}],"types":{"t_address":{"encoding":"inplace","label":"address","numberOfBytes":"20"},"t_array(t_uint256)48_storage":{"base":"t_uint256","encoding":"inplace","label":"uint256[48]","numberOfBytes":"1536"},"t_array(t_uint256)49_storage":{"base":"t_uint256","encoding":"inplace","label":"uint256[49]","numberOfBytes":"1568"},"t_array(t_uint256)50_storage":{"base":"t_uint256","encoding":"inplace","label":"uint256[50]","numberOfBytes":"1600"},"t_bool":{"encoding":"inplace","label":"bool","numberOfBytes":"1"},"t_bytes32":{"encoding":"inplace","label":"bytes32","numberOfBytes":"32"},"t_mapping(t_address,t_bool)":{"encoding":"mapping","key":"t_address","label":"mapping(address => bool)","numberOfBytes":"32","value":"t_bool"},"t_mapping(t_address,t_mapping(t_uint256,t_mapping(t_uint256,t_bool)))":{"encoding":"mapping","key":"t_address","label":"mapping(address => mapping(uint256 => mapping(uint256 => bool)))","numberOfBytes":"32","value":"t_mapping(t_uint256,t_mapping(t_uint256,t_bool))"},"t_mapping(t_address,t_mapping(t_uint256,t_mapping(t_uint256,t_uint256)))":{"encoding":"mapping","key":"t_address","label":"mapping(address => mapping(uint256 => mapping(uint256 => uint256)))","numberOfBytes":"32","value":"t_mapping(t_uint256,t_mapping(t_uint256,t_uint256))"},"t_mapping(t_bytes32,t_struct(RoleData)179_storage)":{"encoding":"mapping","key":"t_bytes32","label":"mapping(bytes32 => struct AccessControlUpgradeable.RoleData)","numberOfBytes":"32","value":"t_struct(RoleData)179_storage"},"t_mapping(t_uint256,t_address)":{"encoding":"mapping","key":"t_uint256","label":"mapping(uint256 => address)","numberOfBytes":"32","value":"t_address"},"t_mapping(t_uint256,t_bool)":{"encoding":"mapping","key":"t_uint256","label":"mapping(uint256 => bool)","numberOfBytes":"32","value":"t_bool"},"t_mapping(t_uint256,t_mapping(t_uint256,t_bool))":{"encoding":"mapping","key":"t_uint256","label":"mapping(uint256 => mapping(uint256 => bool))","numberOfBytes":"32","value":"t_mapping(t_uint256,t_bool)"},"t_mapping(t_uint256,t_mapping(t_uint256,t_uint256))":{"encoding":"mapping","key":"t_uint256","label":"mapping(uint256 => mapping(uint256 => uint256))","numberOfBytes":"32","value":"t_mapping(t_uint256,t_uint256)"},"t_mapping(t_uint256,t_struct(RouteData)4823_storage)":{"encoding":"mapping","key":"t_uint256","label":"mapping(uint256 => struct CrossSyncGateway.RouteData)","numberOfBytes":"32","value":"t_struct(RouteData)4823_storage"},"t_mapping(t_uint256,t_uint256)":{"encoding":"mapping","key":"t_uint256","label":"mapping(uint256 => uint256)","numberOfBytes":"32","value":"t_uint256"},"t_string_storage":{"encoding":"bytes","label":"string","numberOfBytes":"32"},"t_struct(RoleData)179_storage":{"encoding":"inplace","label":"struct AccessControlUpgradeable.RoleData","members":[{"astId":176,"contract":"contracts/CrossSyncGateway.sol:CrossSyncGateway","label":"members","offset":0,"slot":"0","type":"t_mapping(t_address,t_bool)"},{"astId":178,"contract":"contracts/CrossSyncGateway.sol:CrossSyncGateway","label":"adminRole","offset":0,"slot":"1","type":"t_bytes32"}],"numberOfBytes":"64"},"t_struct(RouteData)4823_storage":{"encoding":"inplace","label":"struct CrossSyncGateway.RouteData","members":[{"astId":4818,"contract":"contracts/CrossSyncGateway.sol:CrossSyncGateway","label":"routeAddress","offset":0,"slot":"0","type":"t_address"},{"astId":4820,"contract":"contracts/CrossSyncGateway.sol:CrossSyncGateway","label":"isValid","offset":20,"slot":"0","type":"t_bool"},{"astId":4822,"contract":"contracts/CrossSyncGateway.sol:CrossSyncGateway","label":"routeName","offset":0,"slot":"1","type":"t_string_storage"}],"numberOfBytes":"64"},"t_uint256":{"encoding":"inplace","label":"uint256","numberOfBytes":"32"},"t_uint8":{"encoding":"inplace","label":"uint8","numberOfBytes":"1"}}},"userdoc":{"kind":"user","methods":{"getTrustedForwarder()":{"notice":":warning: **Warning** :warning: The Forwarder can have a full control over your Recipient. Only trust verified Forwarder.Method is not a required method to allow Recipients to trust multiple Forwarders. Not recommended yet."},"isTrustedForwarder(address)":{"notice":":warning: **Warning** :warning: The Forwarder can have a full control over your Recipient. Only trust verified Forwarder."}},"version":1}}}}