{"contracts/MessagingImpls/WormholeImpl.sol":{"WormholeImpl":{"abi":[{"inputs":[],"stateMutability":"nonpayable","type":"constructor"},{"anonymous":false,"inputs":[{"indexed":false,"internalType":"address","name":"previousAdmin","type":"address"},{"indexed":false,"internalType":"address","name":"newAdmin","type":"address"}],"name":"AdminChanged","type":"event"},{"anonymous":false,"inputs":[{"indexed":true,"internalType":"address","name":"beacon","type":"address"}],"name":"BeaconUpgraded","type":"event"},{"anonymous":false,"inputs":[{"indexed":false,"internalType":"uint8","name":"version","type":"uint8"}],"name":"Initialized","type":"event"},{"anonymous":false,"inputs":[{"indexed":true,"internalType":"address","name":"previousOwner","type":"address"},{"indexed":true,"internalType":"address","name":"newOwner","type":"address"}],"name":"OwnershipTransferred","type":"event"},{"anonymous":false,"inputs":[{"indexed":false,"internalType":"address","name":"account","type":"address"}],"name":"Paused","type":"event"},{"anonymous":false,"inputs":[{"indexed":true,"internalType":"bytes32","name":"role","type":"bytes32"},{"indexed":true,"internalType":"bytes32","name":"previousAdminRole","type":"bytes32"},{"indexed":true,"internalType":"bytes32","name":"newAdminRole","type":"bytes32"}],"name":"RoleAdminChanged","type":"event"},{"anonymous":false,"inputs":[{"indexed":true,"internalType":"bytes32","name":"role","type":"bytes32"},{"indexed":true,"internalType":"address","name":"account","type":"address"},{"indexed":true,"internalType":"address","name":"sender","type":"address"}],"name":"RoleGranted","type":"event"},{"anonymous":false,"inputs":[{"indexed":true,"internalType":"bytes32","name":"role","type":"bytes32"},{"indexed":true,"internalType":"address","name":"account","type":"address"},{"indexed":true,"internalType":"address","name":"sender","type":"address"}],"name":"RoleRevoked","type":"event"},{"anonymous":false,"inputs":[{"indexed":false,"internalType":"address","name":"account","type":"address"}],"name":"Unpaused","type":"event"},{"anonymous":false,"inputs":[{"indexed":true,"internalType":"address","name":"implementation","type":"address"}],"name":"Upgraded","type":"event"},{"inputs":[],"name":"ADMIN_ROLE","outputs":[{"internalType":"bytes32","name":"","type":"bytes32"}],"stateMutability":"view","type":"function"},{"inputs":[],"name":"DEFAULT_ADMIN_ROLE","outputs":[{"internalType":"bytes32","name":"","type":"bytes32"}],"stateMutability":"view","type":"function"},{"inputs":[],"name":"PAUSER_ROLE","outputs":[{"internalType":"bytes32","name":"","type":"bytes32"}],"stateMutability":"view","type":"function"},{"inputs":[],"name":"SUPER_ADMIN_ROLE","outputs":[{"internalType":"bytes32","name":"","type":"bytes32"}],"stateMutability":"view","type":"function"},{"inputs":[],"name":"UPGRADER_ROLE","outputs":[{"internalType":"bytes32","name":"","type":"bytes32"}],"stateMutability":"view","type":"function"},{"inputs":[{"internalType":"address","name":"_admin","type":"address"}],"name":"addAdmin","outputs":[],"stateMutability":"nonpayable","type":"function"},{"inputs":[{"internalType":"address","name":"account","type":"address"}],"name":"addPauser","outputs":[],"stateMutability":"nonpayable","type":"function"},{"inputs":[{"internalType":"address","name":"_superAdmin","type":"address"}],"name":"addSuperAdmin","outputs":[],"stateMutability":"nonpayable","type":"function"},{"inputs":[{"internalType":"address","name":"_upgrader","type":"address"}],"name":"addUpgrader","outputs":[],"stateMutability":"nonpayable","type":"function"},{"inputs":[],"name":"crossSyncGatewayAddress","outputs":[{"internalType":"address","name":"","type":"address"}],"stateMutability":"view","type":"function"},{"inputs":[{"components":[{"internalType":"address","name":"sender","type":"address"},{"internalType":"uint256","name":"nonce","type":"uint256"},{"internalType":"uint256","name":"messagingRouteId","type":"uint256"},{"internalType":"uint256","name":"sourceChainId","type":"uint256"},{"internalType":"uint256","name":"destinationChainId","type":"uint256"},{"internalType":"address","name":"sourceGatewayAddress","type":"address"},{"internalType":"address","name":"destinationGatewayAddress","type":"address"},{"components":[{"internalType":"address","name":"to","type":"address"},{"internalType":"bytes","name":"data","type":"bytes"}],"internalType":"struct ICrossSyncGateway.MessagingPayload","name":"payload","type":"tuple"}],"internalType":"struct IMessagingImpl.ICrossSyncMessagingData","name":"_data","type":"tuple"}],"name":"executeSendMessage","outputs":[{"internalType":"bytes","name":"","type":"bytes"}],"stateMutability":"payable","type":"function"},{"inputs":[{"internalType":"bytes32","name":"role","type":"bytes32"}],"name":"getRoleAdmin","outputs":[{"internalType":"bytes32","name":"","type":"bytes32"}],"stateMutability":"view","type":"function"},{"inputs":[],"name":"getTrustedForwarder","outputs":[{"internalType":"address","name":"forwarder","type":"address"}],"stateMutability":"view","type":"function"},{"inputs":[{"internalType":"bytes32","name":"role","type":"bytes32"},{"internalType":"address","name":"account","type":"address"}],"name":"grantRole","outputs":[],"stateMutability":"nonpayable","type":"function"},{"inputs":[{"internalType":"bytes32","name":"role","type":"bytes32"},{"internalType":"address","name":"account","type":"address"}],"name":"hasRole","outputs":[{"internalType":"bool","name":"","type":"bool"}],"stateMutability":"view","type":"function"},{"inputs":[{"internalType":"address","name":"_crossSyncGatewayAddress","type":"address"},{"internalType":"address","name":"_nativeCurrencyWrappedAddress","type":"address"},{"internalType":"address","name":"_nativeCurrencyAddress","type":"address"},{"internalType":"address","name":"_owner","type":"address"},{"internalType":"address","name":"_wormholeRelayerAddress","type":"address"}],"name":"initialize","outputs":[],"stateMutability":"nonpayable","type":"function"},{"inputs":[{"internalType":"address","name":"forwarder","type":"address"}],"name":"isTrustedForwarder","outputs":[{"internalType":"bool","name":"","type":"bool"}],"stateMutability":"view","type":"function"},{"inputs":[],"name":"nativeCurrencyAddress","outputs":[{"internalType":"address","name":"","type":"address"}],"stateMutability":"view","type":"function"},{"inputs":[],"name":"nativeCurrencyWrappedAddress","outputs":[{"internalType":"address","name":"","type":"address"}],"stateMutability":"view","type":"function"},{"inputs":[],"name":"owner","outputs":[{"internalType":"address","name":"","type":"address"}],"stateMutability":"view","type":"function"},{"inputs":[],"name":"pause","outputs":[],"stateMutability":"nonpayable","type":"function"},{"inputs":[],"name":"paused","outputs":[{"internalType":"bool","name":"","type":"bool"}],"stateMutability":"view","type":"function"},{"inputs":[],"name":"proxiableUUID","outputs":[{"internalType":"bytes32","name":"","type":"bytes32"}],"stateMutability":"view","type":"function"},{"inputs":[{"internalType":"uint16","name":"targetChain","type":"uint16"}],"name":"quoteCrossChainFee","outputs":[{"internalType":"uint256","name":"cost","type":"uint256"}],"stateMutability":"view","type":"function"},{"inputs":[{"internalType":"address","name":"_admin","type":"address"}],"name":"removeAdmin","outputs":[],"stateMutability":"nonpayable","type":"function"},{"inputs":[{"internalType":"address","name":"_pauser","type":"address"}],"name":"removePauser","outputs":[],"stateMutability":"nonpayable","type":"function"},{"inputs":[{"internalType":"address","name":"_superAdmin","type":"address"}],"name":"removeSuperAdmin","outputs":[],"stateMutability":"nonpayable","type":"function"},{"inputs":[{"internalType":"address","name":"_upgrader","type":"address"}],"name":"removeUpgrader","outputs":[],"stateMutability":"nonpayable","type":"function"},{"inputs":[],"name":"renounceOwnership","outputs":[],"stateMutability":"nonpayable","type":"function"},{"inputs":[{"internalType":"bytes32","name":"role","type":"bytes32"},{"internalType":"address","name":"account","type":"address"}],"name":"renounceRole","outputs":[],"stateMutability":"nonpayable","type":"function"},{"inputs":[{"internalType":"address payable","name":"userAddress","type":"address"},{"internalType":"uint256","name":"amount","type":"uint256"}],"name":"rescueEther","outputs":[],"stateMutability":"nonpayable","type":"function"},{"inputs":[{"internalType":"address","name":"token","type":"address"},{"internalType":"address","name":"userAddress","type":"address"},{"internalType":"uint256","name":"amount","type":"uint256"}],"name":"rescueFunds","outputs":[],"stateMutability":"nonpayable","type":"function"},{"inputs":[{"internalType":"bytes32","name":"role","type":"bytes32"},{"internalType":"address","name":"account","type":"address"}],"name":"revokeRole","outputs":[],"stateMutability":"nonpayable","type":"function"},{"inputs":[{"internalType":"address","name":"_crossSyncGatewayAddress","type":"address"}],"name":"setCrossSyncGatewayAddress","outputs":[],"stateMutability":"nonpayable","type":"function"},{"inputs":[{"internalType":"address","name":"_nativeCurrencyAddress","type":"address"}],"name":"setNativeCurrencyAddress","outputs":[],"stateMutability":"nonpayable","type":"function"},{"inputs":[{"internalType":"address","name":"_nativeCurrencyWrappedAddress","type":"address"}],"name":"setNativeCurrencyWrappedAddress","outputs":[],"stateMutability":"nonpayable","type":"function"},{"inputs":[{"internalType":"address","name":"_newtrustedForwarder","type":"address"}],"name":"setTrustedForwarder","outputs":[],"stateMutability":"nonpayable","type":"function"},{"inputs":[{"internalType":"uint256","name":"_chainId","type":"uint256"},{"internalType":"uint16","name":"_wormholeChainId","type":"uint16"}],"name":"setWormholeChainId","outputs":[],"stateMutability":"nonpayable","type":"function"},{"inputs":[{"internalType":"uint256","name":"newGasLimit","type":"uint256"}],"name":"setWormholeGasLimit","outputs":[],"stateMutability":"nonpayable","type":"function"},{"inputs":[{"internalType":"contract IWormholeRelayer","name":"_wormholeRelayer","type":"address"}],"name":"setWormholeRelayer","outputs":[],"stateMutability":"nonpayable","type":"function"},{"inputs":[{"internalType":"bytes4","name":"interfaceId","type":"bytes4"}],"name":"supportsInterface","outputs":[{"internalType":"bool","name":"","type":"bool"}],"stateMutability":"view","type":"function"},{"inputs":[{"internalType":"address","name":"newOwner","type":"address"}],"name":"transferOwnership","outputs":[],"stateMutability":"nonpayable","type":"function"},{"inputs":[],"name":"unpause","outputs":[],"stateMutability":"nonpayable","type":"function"},{"inputs":[{"internalType":"address","name":"newImplementation","type":"address"}],"name":"upgradeTo","outputs":[],"stateMutability":"nonpayable","type":"function"},{"inputs":[{"internalType":"address","name":"newImplementation","type":"address"},{"internalType":"bytes","name":"data","type":"bytes"}],"name":"upgradeToAndCall","outputs":[],"stateMutability":"payable","type":"function"},{"inputs":[{"internalType":"uint256","name":"","type":"uint256"}],"name":"wormholeChainId","outputs":[{"internalType":"uint16","name":"","type":"uint16"}],"stateMutability":"view","type":"function"},{"inputs":[],"name":"wormholeRelayer","outputs":[{"internalType":"contract IWormholeRelayer","name":"","type":"address"}],"stateMutability":"view","type":"function"},{"stateMutability":"payable","type":"receive"}],"devdoc":{"kind":"dev","methods":{"constructor":{"custom:oz-upgrades-unsafe-allow":"constructor"},"getRoleAdmin(bytes32)":{"details":"Returns the admin role that controls `role`. See {grantRole} and {revokeRole}. To change a role's admin, use {_setRoleAdmin}."},"getTrustedForwarder()":{"returns":{"forwarder":"The address of the Forwarder contract that is being used."}},"grantRole(bytes32,address)":{"details":"Grants `role` to `account`. If `account` had not been already granted `role`, emits a {RoleGranted} event. Requirements: - the caller must have ``role``'s admin role. May emit a {RoleGranted} event."},"hasRole(bytes32,address)":{"details":"Returns `true` if `account` has been granted `role`."},"isTrustedForwarder(address)":{"params":{"forwarder":"The address of the Forwarder contract that is being used."},"returns":{"_0":"isTrustedForwarder `true` if the Forwarder is trusted to forward relayed transactions by this Recipient."}},"owner()":{"details":"Returns the address of the current owner."},"paused()":{"details":"Returns true if the contract is paused, and false otherwise."},"proxiableUUID()":{"details":"Implementation of the ERC1822 {proxiableUUID} function. This returns the storage slot used by the implementation. It is used to validate the implementation's compatibility when performing an upgrade. IMPORTANT: A proxy pointing at a proxiable contract should not be considered proxiable itself, because this risks bricking a proxy that upgrades to it, by delegating to itself until out of gas. Thus it is critical that this function revert if invoked through a proxy. This is guaranteed by the `notDelegated` modifier."},"renounceOwnership()":{"details":"Leaves the contract without owner. It will not be possible to call `onlyOwner` functions. Can only be called by the current owner. NOTE: Renouncing ownership will leave the contract without an owner, thereby disabling any functionality that is only available to the owner."},"renounceRole(bytes32,address)":{"details":"Revokes `role` from the calling account. Roles are often managed via {grantRole} and {revokeRole}: this function's purpose is to provide a mechanism for accounts to lose their privileges if they are compromised (such as when a trusted device is misplaced). If the calling account had been revoked `role`, emits a {RoleRevoked} event. Requirements: - the caller must be `account`. May emit a {RoleRevoked} event."},"revokeRole(bytes32,address)":{"details":"Revokes `role` from `account`. If `account` had been granted `role`, emits a {RoleRevoked} event. Requirements: - the caller must have ``role``'s admin role. May emit a {RoleRevoked} event."},"supportsInterface(bytes4)":{"details":"See {IERC165-supportsInterface}."},"transferOwnership(address)":{"details":"overriding the inherited {transferOwnership} function to reflect the admin changes into the {DEFAULT_ADMIN_ROLE}"},"upgradeTo(address)":{"custom:oz-upgrades-unsafe-allow-reachable":"delegatecall","details":"Upgrade the implementation of the proxy to `newImplementation`. Calls {_authorizeUpgrade}. Emits an {Upgraded} event."},"upgradeToAndCall(address,bytes)":{"custom:oz-upgrades-unsafe-allow-reachable":"delegatecall","details":"Upgrade the implementation of the proxy to `newImplementation`, and subsequently execute the function call encoded in `data`. Calls {_authorizeUpgrade}. Emits an {Upgraded} event."}},"version":1},"evm":{"bytecode":{"linkReferences":{},"object":"60a060405234620000495730608052620000186200004e565b620000226200004e565b604051612cac9081620000f88239608051818181610eb501528181610fdf015261193c0152f35b600080fd5b60005460ff8160081c16620000a25760ff808216036200006b5750565b60ff90811916176000557f7f26b83ff96e1f2b6a682f133852f6798a09c465da95921460cefb3847402498602060405160ff8152a1565b60405162461bcd60e51b815260206004820152602760248201527f496e697469616c697a61626c653a20636f6e747261637420697320696e697469604482015266616c697a696e6760c81b6064820152608490fdfe604060808152600436101561001d575b50361561001b57600080fd5b005b60003560e01c80629fe752146121c757806301ffc9a7146121725780631459457a14611e5b5780631785f53c14611da55780632290720414611d1c578063248a9ca314611cee5780632f2ff15d14611c8957806332495ce114611bf057806336568abe14611b555780633659cfe61461191357806338073f0c146118e95780633f4ba83a146117af57806341abd9871461177f5780634460bdd61461175657806346961bff146113995780634902e4aa146113385780634b03285a1461129f5780634f1ef28614610f6357806352d1902d14610ea1578063572b6c0514610e6e5780635c975abb14610e475780636b2c0f5514610d6c5780636ccae05414610cce5780637048027514610c17578063715018a614610bba57806375b238fc14610b915780637b0b29a614610b5e57806382dc1ec414610a7f5780638456cb591461093b5780638da5cb5b1461091257806391d14854146108c9578063a217fddf146108ad578063b3292ff01461084b578063b55a83bb146107e4578063b89b22d7146107ba578063bd826ed714610790578063ce1b815f14610767578063d264a803146106b6578063d547741f14610678578063da25b7251461064e578063da742228146105b0578063e159378d14610515578063e42e0ea9146104ba578063e511015814610405578063e63ab1e9146103dc578063f2fde38b146102535763f72c0d8b0361000f573461024e57600036600319011261024e5760209051600080516020612bd78339815191528152f35b600080fd5b503461024e576020908160031936011261024e5761026f612260565b90610278612791565b610280612791565b6001600160a01b039180831615610389578061029e6102a3926127f4565b61266b565b6102ab612b7a565b9282806102b6612b7a565b16941693840361032f576000805260fb81528160002084600052815260ff8260002054166102e057005b6000805260fb81528160002090846000525260002060ff198154169055610305612b7a565b169060007ff6391f5c32d9c69d2a47ea670b442974b53935d1edc7fd64eb21e047a839171b8180a4005b608491519062461bcd60e51b82526004820152602f60248201527f416363657373436f6e74726f6c3a2063616e206f6e6c792072656e6f756e636560448201526e103937b632b9903337b91039b2b63360891b6064820152fd5b815162461bcd60e51b815260048101859052602660248201527f4f776e61626c653a206e6577206f776e657220697320746865207a65726f206160448201526564647265737360d01b6064820152608490fd5b503461024e57600036600319011261024e5760209051600080516020612c178339815191528152f35b503461024e57602036600319011261024e5761041f612260565b90610428612791565b600080516020612bd7833981519152918260005260fb602052816000209160018060a01b03809216928360005260205260ff8160002054161561046757005b8360005260fb6020528060002083600052602052600020600160ff19825416179055610491612b7a565b16917f2f8788117e7eff1d82e926ec794901d17c78024a50270940304540a733656f0d600080a4005b503461024e578060031936011261024e576004356001600160a01b0381169081900361024e57600080808093602435906104f2612791565b82821561050c575bf11561050257005b513d6000823e3d90fd5b506108fc6104fa565b503461024e57602036600319011261024e576004356001600160a01b03818116929183900361024e5760ff6105839261054c612b7a565b600080516020612c3783398151915260005260fb602052838260002091166000526020526000205416908115610599575b50612a4f565b6101f780546001600160a01b0319169091179055005b603354811691506105a8612b7a565b16143861057d565b503461024e57602036600319011261024e576105ca612260565b60ff6105d4612b7a565b92600080516020612c3783398151915260005260fb6020528060002060018060a01b0380951660005260205260002054168015610633575b61061590612a4f565b166bffffffffffffffffffffffff60a01b6097541617609755600080f35b50610615826033541683610645612b7a565b1614905061060c565b503461024e57600036600319011261024e576101f75490516001600160a01b039091168152602090f35b503461024e578060031936011261024e5761001b906004356106b1600161069d612276565b938360005260fb6020526000200154612342565b612705565b503461024e57602036600319011261024e576106d0612260565b906106d9612791565b600080516020612bd7833981519152918260005260fb602052816000209160018060a01b03809216928360005260205260ff81600020541661071757005b8360005260fb602052806000208360005260205260002060ff19815416905561073e612b7a565b16917ff6391f5c32d9c69d2a47ea670b442974b53935d1edc7fd64eb21e047a839171b600080a4005b503461024e57600036600319011261024e5760975490516001600160a01b039091168152602090f35b503461024e57600036600319011261024e576101c45490516001600160a01b039091168152602090f35b503461024e57600036600319011261024e576101c35490516001600160a01b039091168152602090f35b503461024e57602036600319011261024e576108429060ff610804612b7a565b91600080516020612c3783398151915260005260fb6020528060002060018060a01b0380941660005260205260002054169081156105995750612a4f565b6004356101f955005b503461024e57602036600319011261024e57610865612260565b9061086e612791565b600080516020612c37833981519152918260005260fb602052816000209160018060a01b03809216928360005260205260ff8160002054161561046757005b503461024e57600036600319011261024e576020905160008152f35b503461024e578060031936011261024e576020906108e5612276565b60043560005260fb8352816000209060018060a01b0316600052825260ff81600020541690519015158152f35b503461024e57600036600319011261024e5760335490516001600160a01b039091168152602090f35b503461024e57600036600319011261024e57610955612b7a565b90600080516020612c1783398151915260005260209060fb82528060002060018060a01b03809416600052825260ff8160002054168015610a47575b8015610a2c575b6109a190612a4f565b6097549260ff8460a01c166109f55760ff60a01b19909316600160a01b176097557f62e78cea01bee320cd4e420270b5ea74000d11b0c9f74754ebdbfc544b05a258926109ec612b7a565b915191168152a1005b815162461bcd60e51b815260048101849052601060248201526f14185d5cd8589b194e881c185d5cd95960821b6044820152606490fd5b506109a1836033541684610a3e612b7a565b16149050610998565b50610a50612b7a565b600080516020612c3783398151915260005260fb835283826000209116600052825260ff816000205416610991565b503461024e576020908160031936011261024e57610a9b612260565b90610aa4612b7a565b90600080516020612c3783398151915260005260fb84528060002060018060a01b03809316600052845260ff8160002054168015610b43575b610ae690612a4f565b600080516020612c17833981519152938460005260fb8152828260002094169384600052815260ff82600020541615610b1b57005b8460005260fb815281600020908460005252600020600160ff19825416179055610491612b7a565b50610ae6826033541683610b55612b7a565b16149050610add565b503461024e57602036600319011261024e576004359061ffff8216820361024e57610b8a602092612a91565b9051908152f35b503461024e57600036600319011261024e5760209051600080516020612c578339815191528152f35b3461024e57600036600319011261024e57610bd3612791565b603380546001600160a01b031981169091556000906001600160a01b03167f8be0079c531659141344cd1fd0a4f28419497f9722a3daafe3b4186f6b6457e08280a3005b503461024e576020908160031936011261024e57610c33612260565b90610c3c612b7a565b90600080516020612c3783398151915260005260fb84528060002060018060a01b03809316600052845260ff8160002054168015610cb3575b610c7e90612a4f565b600080516020612c57833981519152938460005260fb8152828260002094169384600052815260ff82600020541615610b1b57005b50610c7e826033541683610cc5612b7a565b16149050610c75565b503461024e57606036600319011261024e576000906020610ced612260565b6044610cf7612276565b91610d00612791565b845163a9059cbb60e01b81526001600160a01b039384166004820152823560248201529586938492165af19081156105025750610d3957005b6020813d8211610d64575b81610d5160209383612304565b8101031261024e57518015150361024e57005b3d9150610d44565b503461024e576020908160031936011261024e57610d88612260565b90610d91612b7a565b90600080516020612c3783398151915260005260fb84528060002060018060a01b03809316600052845260ff8160002054168015610e2c575b610dd390612a4f565b600080516020612c17833981519152938460005260fb8152828260002094169384600052815260ff826000205416610e0757005b8460005260fb81528160002090846000525260002060ff19815416905561073e612b7a565b50610dd3826033541683610e3e612b7a565b16149050610dca565b503461024e57600036600319011261024e5760209060ff60975460a01c1690519015158152f35b503461024e57602036600319011261024e57602090610e8b612260565b60018060a01b0380609754169116149051908152f35b503461024e57600036600319011261024e577f00000000000000000000000000000000000000000000000000000000000000006001600160a01b03163003610efa5760209051600080516020612bf78339815191528152f35b5162461bcd60e51b815260206004820152603860248201527f555550535570677261646561626c653a206d757374206e6f742062652063616c60448201527f6c6564207468726f7567682064656c656761746563616c6c00000000000000006064820152608490fd5b508060031936011261024e57610f77612260565b6024359167ffffffffffffffff831161024e573660238401121561024e57826004013590610fa482612326565b610fb082519182612304565b82815260209283820195366024838301011161024e578160009260248793018937830101526001600160a01b037f000000000000000000000000000000000000000000000000000000000000000081169061100d3083141561283d565b61102a600080516020612bf783398151915292828454161461289e565b611032612b7a565b600080516020612bd783398151915260005260fb865281856000209116600052855260ff8460002054168015611284575b61106c90612a4f565b7f4910fdfa16fed3260ed0e7147f7cc6da11a60208b5b9406d12a635614ffd91435460ff16156110a557505050505061001b91506128ff565b8592939495169084516352d1902d60e01b81528681600481865afa60009181611255575b5061112957855162461bcd60e51b815260048101889052602e60248201527f45524331393637557067726164653a206e657720696d706c656d656e7461746960448201526d6f6e206973206e6f74205555505360901b6064820152608490fd5b95949395036111ff5761113b826128ff565b7fbc7cd75a20ee27fd9adebab32041f755214dbc6bffa90cc0225b39da2e5c2d3b600080a28351158015906111f7575b61117157005b60008061001b96845196611184886122e8565b602788527f416464726573733a206c6f772d6c6576656c2064656c65676174652063616c6c87890152660819985a5b195960ca1b868901525190845af4913d156111ed573d6111de6111d582612326565b92519283612304565b8152600081943d92013e61298f565b506060925061298f565b50600161116b565b825162461bcd60e51b815260048101859052602960248201527f45524331393637557067726164653a20756e737570706f727465642070726f786044820152681a58589b195555525160ba1b6064820152608490fd5b9091508781813d831161127d575b61126d8183612304565b8101031261024e575190386110c9565b503d611263565b5061106c816033541682611296612b7a565b16149050611063565b503461024e57602036600319011261024e576112b9612260565b9060ff6112c4612b7a565b91600080516020612c3783398151915260005260fb6020528060002060018060a01b038094166000526020526000205416801561131d575b61130590612a4f565b6101c380546001600160a01b03191691909216179055005b5061130581603354168261132f612b7a565b161490506112fc565b503461024e57602036600319011261024e57611352612260565b9061135b612791565b600080516020612c37833981519152918260005260fb602052816000209160018060a01b03809216928360005260205260ff81600020541661071757005b5060031960203682011261024e5760043567ffffffffffffffff811161024e57803603610100809382011261024e57600261012d541461171257600261012d556113e1612b7a565b6101c3546001600160a01b039081169116036116b95760848201356000526101f88060205261141761ffff866000205416612a91565b938434111561167f578551602080820152926001600160a01b0361143d6004870161228c565b16848801526024850135606085015260448501356080850152606485013560a0850152608485013560c08501526001600160a01b0361147e60a4870161228c565b1660e08501526001600160a01b0361149860c4870161228c565b168483015260e4850135906042190181121561024e5761012084019190915283016001600160a01b036114cd6004830161228c565b1661014084015260248101356022198236030181121561024e570167ffffffffffffffff60048201351161024e57602481019060048101353603821361024e5761155a91846101a092896101608301526101809260048201358484015260048201359085840137600084600483013584010152601f60048119920135011681010390810185520183612304565b60018060a01b036101f7541690608484013560005260205260c461ffff86600020541693013560018060a01b03811680910361024e576115c9946020946101f9548851978896879586946347f66e8160e11b86526004860152602485015260a0604485015260a48401906122c3565b9060006064840152608483015203925af1801561167457611634575b50600161012d55805190602082528160605180602083015260005b81811061161e57506000828201840152601f01601f19168101030190f35b6080810151858201850152849250602001611600565b6020813d60201161166c575b8161164d60209383612304565b8101031261024e575167ffffffffffffffff81160361024e57386115e5565b3d9150611640565b82513d6000823e3d90fd5b855162461bcd60e51b8152602060048201526013602482015272476173207061796d656e74206973206c65737360681b6044820152606490fd5b835162461bcd60e51b815260206004820152602c60248201527f4f6e6c792043726f737353796e63476174657761792063616e2063616c6c207460448201526b3434b990333ab731ba34b7b760a11b6064820152608490fd5b835162461bcd60e51b815260206004820152601f60248201527f5265656e7472616e637947756172643a207265656e7472616e742063616c6c006044820152606490fd5b503461024e57600036600319011261024e5760209051600080516020612c378339815191528152f35b503461024e57602036600319011261024e576020906004356000526101f8825261ffff8160002054169051908152f35b503461024e57600036600319011261024e576117c9612b7a565b90600080516020612c1783398151915260005260209060fb82528060002060018060a01b03809416600052825260ff81600020541680156118b1575b8015611896575b61181590612a4f565b6097549260ff8460a01c161561185b5760ff60a01b199093166097557f5db9ee0a495bf2e6ff9c91a7834c1ba4fdd244a5e8aa4e537bd38aeae4b073aa926109ec612b7a565b815162461bcd60e51b815260048101849052601460248201527314185d5cd8589b194e881b9bdd081c185d5cd95960621b6044820152606490fd5b506118158360335416846118a8612b7a565b1614905061180c565b506118ba612b7a565b600080516020612c3783398151915260005260fb835283826000209116600052825260ff816000205416611805565b503461024e57600036600319011261024e576101c55490516001600160a01b039091168152602090f35b503461024e5760208060031936011261024e5761192e612260565b6001600160a01b03929091907f000000000000000000000000000000000000000000000000000000000000000084166119693082141561283d565b611986600080516020612bf783398151915291868354161461289e565b61198e612b7a565b600080516020612bd783398151915260005260fb845285836000209116600052835260ff8260002054168015611b3a575b6119c890612a4f565b8151908382019582871067ffffffffffffffff881117611b2457868452600083527f4910fdfa16fed3260ed0e7147f7cc6da11a60208b5b9406d12a635614ffd91435460ff1615611a2257505050505061001b91506128ff565b8592939495169084516352d1902d60e01b81528681600481865afa60009181611af5575b50611aa657855162461bcd60e51b815260048101889052602e60248201527f45524331393637557067726164653a206e657720696d706c656d656e7461746960448201526d6f6e206973206e6f74205555505360901b6064820152608490fd5b95949395036111ff57611ab8826128ff565b7fbc7cd75a20ee27fd9adebab32041f755214dbc6bffa90cc0225b39da2e5c2d3b600080a2835115801590611aed5761117157005b50600061116b565b9091508781813d8311611b1d575b611b0d8183612304565b8101031261024e57519038611a46565b503d611b03565b634e487b7160e01b600052604160045260246000fd5b506119c8856033541686611b4c612b7a565b161490506119bf565b503461024e578060031936011261024e57611b6e612276565b906001600160a01b0380611b80612b7a565b1690831603611b955761001b82600435612705565b5162461bcd60e51b815260206004820152602f60248201527f416363657373436f6e74726f6c3a2063616e206f6e6c792072656e6f756e636560448201526e103937b632b9903337b91039b2b63360891b6064820152608490fd5b503461024e57602036600319011261024e57611c0a612260565b9060ff611c15612b7a565b91600080516020612c3783398151915260005260fb6020528060002060018060a01b0380941660005260205260002054168015611c6e575b611c5690612a4f565b6101c580546001600160a01b03191691909216179055005b50611c56816033541682611c80612b7a565b16149050611c4d565b503461024e578060031936011261024e5760043590611ca6612276565b8260005260fb602052611cbf6001836000200154612342565b8260005260fb602052816000209160018060a01b03809216928360005260205260ff8160002054161561046757005b503461024e57602036600319011261024e5760209060043560005260fb825260018160002001549051908152f35b503461024e578060031936011261024e576024359061ffff821680920361024e57611d88611d48612b7a565b600080516020612c3783398151915260005260fb6020528260002060018060a01b0380921660005260205260ff8360002054169081156105995750612a4f565b60043560009081526101f860205220805461ffff19169091179055005b503461024e576020908160031936011261024e57611dc1612260565b90611dca612b7a565b90600080516020612c3783398151915260005260fb84528060002060018060a01b03809316600052845260ff8160002054168015611e40575b611e0c90612a4f565b600080516020612c57833981519152938460005260fb8152828260002094169384600052815260ff826000205416610e0757005b50611e0c826033541683611e52612b7a565b16149050611e03565b503461024e5760a036600319011261024e57611e75612260565b90611e7e612276565b6044356001600160a01b03818116949185900361024e57606435948186169384870361024e576084359280841680940361024e576000549760ff8960081c161596878098612165575b801561214e575b156120f357600199888b60ff198316176000556120e1575b50611f2960ff60005460081c16611efc81612b1a565b611f0581612b1a565b611f0e81612b1a565b6097805460ff60a01b19169055611f2481612b1a565b612b1a565b611f39611f34612b7a565b6127f4565b611f6e60ff60005460081c16611f4e81612b1a565b611f5781612b1a565b611f6081612b1a565b8b61012d55611f2481612b1a565b611f76612791565b1561208e578061029e611f88926127f4565b600080516020612c578339815191528060005260fb6020528888600020015490600080516020612c378339815191528092818c8c60002001557fbd79b86ffe0ab8e8776151514217cd7cacd52c909f66475c3af44e129f0b00ff9283600080a4600080516020612c1783398151915260008181528a81208c01805490859055929080a46bffffffffffffffffffffffff60a01b94816101c39116868254161790556101c49116848254161790556101c590838254161790556101f79182541617905561c3506101f95561205757005b7f7f26b83ff96e1f2b6a682f133852f6798a09c465da95921460cefb38474024989160209161ff00196000541660005551908152a1005b875162461bcd60e51b815260206004820152602660248201527f4f776e61626c653a206e6577206f776e657220697320746865207a65726f206160448201526564647265737360d01b6064820152608490fd5b61ffff19166101011760005538611ee6565b885162461bcd60e51b815260206004820152602e60248201527f496e697469616c697a61626c653a20636f6e747261637420697320616c72656160448201526d191e481a5b9a5d1a585b1a5e995960921b6064820152608490fd5b50303b158015611ece5750600160ff8b1614611ece565b50600160ff8b1610611ec7565b503461024e57602036600319011261024e5760043563ffffffff60e01b811680910361024e57602091637965db0b60e01b82149182156121b6575b50519015158152f35b6301ffc9a760e01b149150386121ad565b503461024e57602036600319011261024e576121e1612260565b9060ff6121ec612b7a565b91600080516020612c3783398151915260005260fb6020528060002060018060a01b0380941660005260205260002054168015612245575b61222d90612a4f565b6101c480546001600160a01b03191691909216179055005b5061222d816033541682612257612b7a565b16149050612224565b600435906001600160a01b038216820361024e57565b602435906001600160a01b038216820361024e57565b35906001600160a01b038216820361024e57565b60005b8381106122b35750506000910152565b81810151838201526020016122a3565b906020916122dc815180928185528580860191016122a0565b601f01601f1916010190565b6060810190811067ffffffffffffffff821117611b2457604052565b90601f8019910116810190811067ffffffffffffffff821117611b2457604052565b67ffffffffffffffff8111611b2457601f01601f191660200190565b61234a612b7a565b9060009080825260209160fb83526040938482209060018060a01b031690818352845260ff858320541615612380575050505050565b84519261238c846122e8565b602a845284840190863683378451156126575760308253845192600193841015612643576078602187015360295b8481116125d95750612597578651926080840184811067ffffffffffffffff8211176125835788526042845286840194606036873784511561256f5760308653845182101561256f5790607860218601536041915b818311612501575050506124bf576124bb93869361249f936124906048946124679a519a8b957f416363657373436f6e74726f6c3a206163636f756e74200000000000000000008c88015251809260378801906122a0565b8401917001034b99036b4b9b9b4b733903937b6329607d1b6037840152518093868401906122a0565b01036028810187520185612304565b5192839262461bcd60e51b8452600484015260248301906122c3565b0390fd5b60648587519062461bcd60e51b825280600483015260248201527f537472696e67733a20686578206c656e67746820696e73756666696369656e746044820152fd5b909192600f8116601081101561255b576f181899199a1a9b1b9c1cb0b131b232b360811b901a6125318588612a28565b5360041c9280156125475760001901919061240f565b634e487b7160e01b82526011600452602482fd5b634e487b7160e01b83526032600452602483fd5b634e487b7160e01b81526032600452602490fd5b634e487b7160e01b86526041600452602486fd5b60648688519062461bcd60e51b825280600483015260248201527f537472696e67733a20686578206c656e67746820696e73756666696369656e746044820152fd5b90600f8116601081101561262f576f181899199a1a9b1b9c1cb0b131b232b360811b901a6126078389612a28565b5360041c90801561261b57600019016123ba565b634e487b7160e01b86526011600452602486fd5b634e487b7160e01b87526032600452602487fd5b634e487b7160e01b85526032600452602485fd5b634e487b7160e01b84526032600452602484fd5b6001600160a01b0390811660008181527fc88390e7e62175be0932452175b6a7222b6b094ab0ef984a5153c620345d8975602052604081205490929060ff16156126b457505050565b82805260fb6020526040832082845260205260408320600160ff198254161790556126dd612b7a565b16917f2f8788117e7eff1d82e926ec794901d17c78024a50270940304540a733656f0d8180a4565b600081815260fb602090815260408083206001600160a01b039586168085529252822054919390929160ff1661273c575b50505050565b7ff6391f5c32d9c69d2a47ea670b442974b53935d1edc7fd64eb21e047a839171b9082855260fb602052604085208486526020526040852060ff198154169055612784612b7a565b169380a438808080612736565b6033546001600160a01b03908116906127a8612b7a565b16036127b057565b606460405162461bcd60e51b815260206004820152602060248201527f4f776e61626c653a2063616c6c6572206973206e6f7420746865206f776e65726044820152fd5b603380546001600160a01b039283166001600160a01b0319821681179092559091167f8be0079c531659141344cd1fd0a4f28419497f9722a3daafe3b4186f6b6457e0600080a3565b1561284457565b60405162461bcd60e51b815260206004820152602c60248201527f46756e6374696f6e206d7573742062652063616c6c6564207468726f7567682060448201526b19195b1959d85d1958d85b1b60a21b6064820152608490fd5b156128a557565b60405162461bcd60e51b815260206004820152602c60248201527f46756e6374696f6e206d7573742062652063616c6c6564207468726f7567682060448201526b6163746976652070726f787960a01b6064820152608490fd5b803b1561293457600080516020612bf783398151915280546001600160a01b0319166001600160a01b03909216919091179055565b60405162461bcd60e51b815260206004820152602d60248201527f455243313936373a206e657720696d706c656d656e746174696f6e206973206e60448201526c1bdd08184818dbdb9d1c9858dd609a1b6064820152608490fd5b919290156129f157508151156129a3575090565b3b156129ac5790565b60405162461bcd60e51b815260206004820152601d60248201527f416464726573733a2063616c6c20746f206e6f6e2d636f6e74726163740000006044820152606490fd5b825190915015612a045750805190602001fd5b60405162461bcd60e51b8152602060048201529081906124bb9060248301906122c3565b908151811015612a39570160200190565b634e487b7160e01b600052603260045260246000fd5b15612a5657565b60405162461bcd60e51b8152602060048201526013602482015272556e617574686f72697a65642041636365737360681b6044820152606490fd5b6101f7546101f9546040805163c23ee3c360e01b815261ffff9094166004850152600060248501526044840191909152908190839060649082906001600160a01b03165afa90811561050257600091612aeb575b50905090565b82813d8311612b13575b612aff8183612304565b81010312612b105750518038612ae5565b80fd5b503d612af5565b15612b2157565b60405162461bcd60e51b815260206004820152602b60248201527f496e697469616c697a61626c653a20636f6e7472616374206973206e6f74206960448201526a6e697469616c697a696e6760a81b6064820152608490fd5b6097546001600160a01b031633148080612bcb575b15612ba1575036601319013560601c90565b60143610159081612bc3575b5015612bbf5736601319013560601c90565b3390565b905038612bad565b506014361015612b8f56fe189ab7a9244df0848122154315af71fe140f3db0fe014031783b0946b8c9d2e3360894a13ba1a3210667c828492db98dca3e2076cc3735a920a3ca505d382bbc65d7a28e3265b37a6474929f336521b332c1681b933f6cb9f3376673440d862a7613a25ecc738585a232ad50a301178f12b3ba8887d13e138b523c4269c47689a49807205ce4d355092ef5a8a18f56e8913cf4a201fbe287825b095693c21775a2646970667358221220660446d96052c13e853c60ea8a40bdb734f20f6b8cd8e1e258b3e1696863f7ff64736f6c63430008110033","opcodes":"PUSH1 0xA0 PUSH1 0x40 MSTORE CALLVALUE PUSH3 0x49 JUMPI ADDRESS PUSH1 0x80 MSTORE PUSH3 0x18 PUSH3 0x4E JUMP JUMPDEST PUSH3 0x22 PUSH3 0x4E JUMP JUMPDEST PUSH1 0x40 MLOAD PUSH2 0x2CAC SWAP1 DUP2 PUSH3 0xF8 DUP3 CODECOPY PUSH1 0x80 MLOAD DUP2 DUP2 DUP2 PUSH2 0xEB5 ADD MSTORE DUP2 DUP2 PUSH2 0xFDF ADD MSTORE PUSH2 0x193C ADD MSTORE RETURN JUMPDEST PUSH1 0x0 DUP1 REVERT JUMPDEST PUSH1 0x0 SLOAD PUSH1 0xFF DUP2 PUSH1 0x8 SHR AND PUSH3 0xA2 JUMPI PUSH1 0xFF DUP1 DUP3 AND SUB PUSH3 0x6B JUMPI POP JUMP JUMPDEST PUSH1 0xFF SWAP1 DUP2 NOT AND OR PUSH1 0x0 SSTORE PUSH32 0x7F26B83FF96E1F2B6A682F133852F6798A09C465DA95921460CEFB3847402498 PUSH1 0x20 PUSH1 0x40 MLOAD PUSH1 0xFF DUP2 MSTORE LOG1 JUMP JUMPDEST PUSH1 0x40 MLOAD PUSH3 0x461BCD PUSH1 0xE5 SHL DUP2 MSTORE PUSH1 0x20 PUSH1 0x4 DUP3 ADD MSTORE PUSH1 0x27 PUSH1 0x24 DUP3 ADD MSTORE PUSH32 0x496E697469616C697A61626C653A20636F6E747261637420697320696E697469 PUSH1 0x44 DUP3 ADD MSTORE PUSH7 0x616C697A696E67 PUSH1 0xC8 SHL PUSH1 0x64 DUP3 ADD MSTORE PUSH1 0x84 SWAP1 REVERT INVALID PUSH1 0x40 PUSH1 0x80 DUP2 MSTORE PUSH1 0x4 CALLDATASIZE LT ISZERO PUSH2 0x1D JUMPI JUMPDEST POP CALLDATASIZE ISZERO PUSH2 0x1B JUMPI PUSH1 0x0 DUP1 REVERT JUMPDEST STOP JUMPDEST PUSH1 0x0 CALLDATALOAD PUSH1 0xE0 SHR DUP1 PUSH3 0x9FE752 EQ PUSH2 0x21C7 JUMPI DUP1 PUSH4 0x1FFC9A7 EQ PUSH2 0x2172 JUMPI DUP1 PUSH4 0x1459457A EQ PUSH2 0x1E5B JUMPI DUP1 PUSH4 0x1785F53C EQ PUSH2 0x1DA5 JUMPI DUP1 PUSH4 0x22907204 EQ PUSH2 0x1D1C JUMPI DUP1 PUSH4 0x248A9CA3 EQ PUSH2 0x1CEE JUMPI DUP1 PUSH4 0x2F2FF15D EQ PUSH2 0x1C89 JUMPI DUP1 PUSH4 0x32495CE1 EQ PUSH2 0x1BF0 JUMPI DUP1 PUSH4 0x36568ABE EQ PUSH2 0x1B55 JUMPI DUP1 PUSH4 0x3659CFE6 EQ PUSH2 0x1913 JUMPI DUP1 PUSH4 0x38073F0C EQ PUSH2 0x18E9 JUMPI DUP1 PUSH4 0x3F4BA83A EQ PUSH2 0x17AF JUMPI DUP1 PUSH4 0x41ABD987 EQ PUSH2 0x177F JUMPI DUP1 PUSH4 0x4460BDD6 EQ PUSH2 0x1756 JUMPI DUP1 PUSH4 0x46961BFF EQ PUSH2 0x1399 JUMPI DUP1 PUSH4 0x4902E4AA EQ PUSH2 0x1338 JUMPI DUP1 PUSH4 0x4B03285A EQ PUSH2 0x129F JUMPI DUP1 PUSH4 0x4F1EF286 EQ PUSH2 0xF63 JUMPI DUP1 PUSH4 0x52D1902D EQ PUSH2 0xEA1 JUMPI DUP1 PUSH4 0x572B6C05 EQ PUSH2 0xE6E JUMPI DUP1 PUSH4 0x5C975ABB EQ PUSH2 0xE47 JUMPI DUP1 PUSH4 0x6B2C0F55 EQ PUSH2 0xD6C JUMPI DUP1 PUSH4 0x6CCAE054 EQ PUSH2 0xCCE JUMPI DUP1 PUSH4 0x70480275 EQ PUSH2 0xC17 JUMPI DUP1 PUSH4 0x715018A6 EQ PUSH2 0xBBA JUMPI DUP1 PUSH4 0x75B238FC EQ PUSH2 0xB91 JUMPI DUP1 PUSH4 0x7B0B29A6 EQ PUSH2 0xB5E JUMPI DUP1 PUSH4 0x82DC1EC4 EQ PUSH2 0xA7F JUMPI DUP1 PUSH4 0x8456CB59 EQ PUSH2 0x93B JUMPI DUP1 PUSH4 0x8DA5CB5B EQ PUSH2 0x912 JUMPI DUP1 PUSH4 0x91D14854 EQ PUSH2 0x8C9 JUMPI DUP1 PUSH4 0xA217FDDF EQ PUSH2 0x8AD JUMPI DUP1 PUSH4 0xB3292FF0 EQ PUSH2 0x84B JUMPI DUP1 PUSH4 0xB55A83BB EQ PUSH2 0x7E4 JUMPI DUP1 PUSH4 0xB89B22D7 EQ PUSH2 0x7BA JUMPI DUP1 PUSH4 0xBD826ED7 EQ PUSH2 0x790 JUMPI DUP1 PUSH4 0xCE1B815F EQ PUSH2 0x767 JUMPI DUP1 PUSH4 0xD264A803 EQ PUSH2 0x6B6 JUMPI DUP1 PUSH4 0xD547741F EQ PUSH2 0x678 JUMPI DUP1 PUSH4 0xDA25B725 EQ PUSH2 0x64E JUMPI DUP1 PUSH4 0xDA742228 EQ PUSH2 0x5B0 JUMPI DUP1 PUSH4 0xE159378D EQ PUSH2 0x515 JUMPI DUP1 PUSH4 0xE42E0EA9 EQ PUSH2 0x4BA JUMPI DUP1 PUSH4 0xE5110158 EQ PUSH2 0x405 JUMPI DUP1 PUSH4 0xE63AB1E9 EQ PUSH2 0x3DC JUMPI DUP1 PUSH4 0xF2FDE38B EQ PUSH2 0x253 JUMPI PUSH4 0xF72C0D8B SUB PUSH2 0xF JUMPI CALLVALUE PUSH2 0x24E JUMPI PUSH1 0x0 CALLDATASIZE PUSH1 0x3 NOT ADD SLT PUSH2 0x24E JUMPI PUSH1 0x20 SWAP1 MLOAD PUSH1 0x0 DUP1 MLOAD PUSH1 0x20 PUSH2 0x2BD7 DUP4 CODECOPY DUP2 MLOAD SWAP2 MSTORE DUP2 MSTORE RETURN JUMPDEST PUSH1 0x0 DUP1 REVERT JUMPDEST POP CALLVALUE PUSH2 0x24E JUMPI PUSH1 0x20 SWAP1 DUP2 PUSH1 0x3 NOT CALLDATASIZE ADD SLT PUSH2 0x24E JUMPI PUSH2 0x26F PUSH2 0x2260 JUMP JUMPDEST SWAP1 PUSH2 0x278 PUSH2 0x2791 JUMP JUMPDEST PUSH2 0x280 PUSH2 0x2791 JUMP JUMPDEST PUSH1 0x1 PUSH1 0x1 PUSH1 0xA0 SHL SUB SWAP2 DUP1 DUP4 AND ISZERO PUSH2 0x389 JUMPI DUP1 PUSH2 0x29E PUSH2 0x2A3 SWAP3 PUSH2 0x27F4 JUMP JUMPDEST PUSH2 0x266B JUMP JUMPDEST PUSH2 0x2AB PUSH2 0x2B7A JUMP JUMPDEST SWAP3 DUP3 DUP1 PUSH2 0x2B6 PUSH2 0x2B7A JUMP JUMPDEST AND SWAP5 AND SWAP4 DUP5 SUB PUSH2 0x32F JUMPI PUSH1 0x0 DUP1 MSTORE PUSH1 0xFB DUP2 MSTORE DUP2 PUSH1 0x0 KECCAK256 DUP5 PUSH1 0x0 MSTORE DUP2 MSTORE PUSH1 0xFF DUP3 PUSH1 0x0 KECCAK256 SLOAD AND PUSH2 0x2E0 JUMPI STOP JUMPDEST PUSH1 0x0 DUP1 MSTORE PUSH1 0xFB DUP2 MSTORE DUP2 PUSH1 0x0 KECCAK256 SWAP1 DUP5 PUSH1 0x0 MSTORE MSTORE PUSH1 0x0 KECCAK256 PUSH1 0xFF NOT DUP2 SLOAD AND SWAP1 SSTORE PUSH2 0x305 PUSH2 0x2B7A JUMP JUMPDEST AND SWAP1 PUSH1 0x0 PUSH32 0xF6391F5C32D9C69D2A47EA670B442974B53935D1EDC7FD64EB21E047A839171B DUP2 DUP1 LOG4 STOP JUMPDEST PUSH1 0x84 SWAP2 MLOAD SWAP1 PUSH3 0x461BCD PUSH1 0xE5 SHL DUP3 MSTORE PUSH1 0x4 DUP3 ADD MSTORE PUSH1 0x2F PUSH1 0x24 DUP3 ADD MSTORE PUSH32 0x416363657373436F6E74726F6C3A2063616E206F6E6C792072656E6F756E6365 PUSH1 0x44 DUP3 ADD MSTORE PUSH15 0x103937B632B9903337B91039B2B633 PUSH1 0x89 SHL PUSH1 0x64 DUP3 ADD MSTORE REVERT JUMPDEST DUP2 MLOAD PUSH3 0x461BCD PUSH1 0xE5 SHL DUP2 MSTORE PUSH1 0x4 DUP2 ADD DUP6 SWAP1 MSTORE PUSH1 0x26 PUSH1 0x24 DUP3 ADD MSTORE PUSH32 0x4F776E61626C653A206E6577206F776E657220697320746865207A65726F2061 PUSH1 0x44 DUP3 ADD MSTORE PUSH6 0x646472657373 PUSH1 0xD0 SHL PUSH1 0x64 DUP3 ADD MSTORE PUSH1 0x84 SWAP1 REVERT JUMPDEST POP CALLVALUE PUSH2 0x24E JUMPI PUSH1 0x0 CALLDATASIZE PUSH1 0x3 NOT ADD SLT PUSH2 0x24E JUMPI PUSH1 0x20 SWAP1 MLOAD PUSH1 0x0 DUP1 MLOAD PUSH1 0x20 PUSH2 0x2C17 DUP4 CODECOPY DUP2 MLOAD SWAP2 MSTORE DUP2 MSTORE RETURN JUMPDEST POP CALLVALUE PUSH2 0x24E JUMPI PUSH1 0x20 CALLDATASIZE PUSH1 0x3 NOT ADD SLT PUSH2 0x24E JUMPI PUSH2 0x41F PUSH2 0x2260 JUMP JUMPDEST SWAP1 PUSH2 0x428 PUSH2 0x2791 JUMP JUMPDEST PUSH1 0x0 DUP1 MLOAD PUSH1 0x20 PUSH2 0x2BD7 DUP4 CODECOPY DUP2 MLOAD SWAP2 MSTORE SWAP2 DUP3 PUSH1 0x0 MSTORE PUSH1 0xFB PUSH1 0x20 MSTORE DUP2 PUSH1 0x0 KECCAK256 SWAP2 PUSH1 0x1 DUP1 PUSH1 0xA0 SHL SUB DUP1 SWAP3 AND SWAP3 DUP4 PUSH1 0x0 MSTORE PUSH1 0x20 MSTORE PUSH1 0xFF DUP2 PUSH1 0x0 KECCAK256 SLOAD AND ISZERO PUSH2 0x467 JUMPI STOP JUMPDEST DUP4 PUSH1 0x0 MSTORE PUSH1 0xFB PUSH1 0x20 MSTORE DUP1 PUSH1 0x0 KECCAK256 DUP4 PUSH1 0x0 MSTORE PUSH1 0x20 MSTORE PUSH1 0x0 KECCAK256 PUSH1 0x1 PUSH1 0xFF NOT DUP3 SLOAD AND OR SWAP1 SSTORE PUSH2 0x491 PUSH2 0x2B7A JUMP JUMPDEST AND SWAP2 PUSH32 0x2F8788117E7EFF1D82E926EC794901D17C78024A50270940304540A733656F0D PUSH1 0x0 DUP1 LOG4 STOP JUMPDEST POP CALLVALUE PUSH2 0x24E JUMPI DUP1 PUSH1 0x3 NOT CALLDATASIZE ADD SLT PUSH2 0x24E JUMPI PUSH1 0x4 CALLDATALOAD PUSH1 0x1 PUSH1 0x1 PUSH1 0xA0 SHL SUB DUP2 AND SWAP1 DUP2 SWAP1 SUB PUSH2 0x24E JUMPI PUSH1 0x0 DUP1 DUP1 DUP1 SWAP4 PUSH1 0x24 CALLDATALOAD SWAP1 PUSH2 0x4F2 PUSH2 0x2791 JUMP JUMPDEST DUP3 DUP3 ISZERO PUSH2 0x50C JUMPI JUMPDEST CALL ISZERO PUSH2 0x502 JUMPI STOP JUMPDEST MLOAD RETURNDATASIZE PUSH1 0x0 DUP3 RETURNDATACOPY RETURNDATASIZE SWAP1 REVERT JUMPDEST POP PUSH2 0x8FC PUSH2 0x4FA JUMP JUMPDEST POP CALLVALUE PUSH2 0x24E JUMPI PUSH1 0x20 CALLDATASIZE PUSH1 0x3 NOT ADD SLT PUSH2 0x24E JUMPI PUSH1 0x4 CALLDATALOAD PUSH1 0x1 PUSH1 0x1 PUSH1 0xA0 SHL SUB DUP2 DUP2 AND SWAP3 SWAP2 DUP4 SWAP1 SUB PUSH2 0x24E JUMPI PUSH1 0xFF PUSH2 0x583 SWAP3 PUSH2 0x54C PUSH2 0x2B7A JUMP JUMPDEST PUSH1 0x0 DUP1 MLOAD PUSH1 0x20 PUSH2 0x2C37 DUP4 CODECOPY DUP2 MLOAD SWAP2 MSTORE PUSH1 0x0 MSTORE PUSH1 0xFB PUSH1 0x20 MSTORE DUP4 DUP3 PUSH1 0x0 KECCAK256 SWAP2 AND PUSH1 0x0 MSTORE PUSH1 0x20 MSTORE PUSH1 0x0 KECCAK256 SLOAD AND SWAP1 DUP2 ISZERO PUSH2 0x599 JUMPI JUMPDEST POP PUSH2 0x2A4F JUMP JUMPDEST PUSH2 0x1F7 DUP1 SLOAD PUSH1 0x1 PUSH1 0x1 PUSH1 0xA0 SHL SUB NOT AND SWAP1 SWAP2 OR SWAP1 SSTORE STOP JUMPDEST PUSH1 0x33 SLOAD DUP2 AND SWAP2 POP PUSH2 0x5A8 PUSH2 0x2B7A JUMP JUMPDEST AND EQ CODESIZE PUSH2 0x57D JUMP JUMPDEST POP CALLVALUE PUSH2 0x24E JUMPI PUSH1 0x20 CALLDATASIZE PUSH1 0x3 NOT ADD SLT PUSH2 0x24E JUMPI PUSH2 0x5CA PUSH2 0x2260 JUMP JUMPDEST PUSH1 0xFF PUSH2 0x5D4 PUSH2 0x2B7A JUMP JUMPDEST SWAP3 PUSH1 0x0 DUP1 MLOAD PUSH1 0x20 PUSH2 0x2C37 DUP4 CODECOPY DUP2 MLOAD SWAP2 MSTORE PUSH1 0x0 MSTORE PUSH1 0xFB PUSH1 0x20 MSTORE DUP1 PUSH1 0x0 KECCAK256 PUSH1 0x1 DUP1 PUSH1 0xA0 SHL SUB DUP1 SWAP6 AND PUSH1 0x0 MSTORE PUSH1 0x20 MSTORE PUSH1 0x0 KECCAK256 SLOAD AND DUP1 ISZERO PUSH2 0x633 JUMPI JUMPDEST PUSH2 0x615 SWAP1 PUSH2 0x2A4F JUMP JUMPDEST AND PUSH12 0xFFFFFFFFFFFFFFFFFFFFFFFF PUSH1 0xA0 SHL PUSH1 0x97 SLOAD AND OR PUSH1 0x97 SSTORE PUSH1 0x0 DUP1 RETURN JUMPDEST POP PUSH2 0x615 DUP3 PUSH1 0x33 SLOAD AND DUP4 PUSH2 0x645 PUSH2 0x2B7A JUMP JUMPDEST AND EQ SWAP1 POP PUSH2 0x60C JUMP JUMPDEST POP CALLVALUE PUSH2 0x24E JUMPI PUSH1 0x0 CALLDATASIZE PUSH1 0x3 NOT ADD SLT PUSH2 0x24E JUMPI PUSH2 0x1F7 SLOAD SWAP1 MLOAD PUSH1 0x1 PUSH1 0x1 PUSH1 0xA0 SHL SUB SWAP1 SWAP2 AND DUP2 MSTORE PUSH1 0x20 SWAP1 RETURN JUMPDEST POP CALLVALUE PUSH2 0x24E JUMPI DUP1 PUSH1 0x3 NOT CALLDATASIZE ADD SLT PUSH2 0x24E JUMPI PUSH2 0x1B SWAP1 PUSH1 0x4 CALLDATALOAD PUSH2 0x6B1 PUSH1 0x1 PUSH2 0x69D PUSH2 0x2276 JUMP JUMPDEST SWAP4 DUP4 PUSH1 0x0 MSTORE PUSH1 0xFB PUSH1 0x20 MSTORE PUSH1 0x0 KECCAK256 ADD SLOAD PUSH2 0x2342 JUMP JUMPDEST PUSH2 0x2705 JUMP JUMPDEST POP CALLVALUE PUSH2 0x24E JUMPI PUSH1 0x20 CALLDATASIZE PUSH1 0x3 NOT ADD SLT PUSH2 0x24E JUMPI PUSH2 0x6D0 PUSH2 0x2260 JUMP JUMPDEST SWAP1 PUSH2 0x6D9 PUSH2 0x2791 JUMP JUMPDEST PUSH1 0x0 DUP1 MLOAD PUSH1 0x20 PUSH2 0x2BD7 DUP4 CODECOPY DUP2 MLOAD SWAP2 MSTORE SWAP2 DUP3 PUSH1 0x0 MSTORE PUSH1 0xFB PUSH1 0x20 MSTORE DUP2 PUSH1 0x0 KECCAK256 SWAP2 PUSH1 0x1 DUP1 PUSH1 0xA0 SHL SUB DUP1 SWAP3 AND SWAP3 DUP4 PUSH1 0x0 MSTORE PUSH1 0x20 MSTORE PUSH1 0xFF DUP2 PUSH1 0x0 KECCAK256 SLOAD AND PUSH2 0x717 JUMPI STOP JUMPDEST DUP4 PUSH1 0x0 MSTORE PUSH1 0xFB PUSH1 0x20 MSTORE DUP1 PUSH1 0x0 KECCAK256 DUP4 PUSH1 0x0 MSTORE PUSH1 0x20 MSTORE PUSH1 0x0 KECCAK256 PUSH1 0xFF NOT DUP2 SLOAD AND SWAP1 SSTORE PUSH2 0x73E PUSH2 0x2B7A JUMP JUMPDEST AND SWAP2 PUSH32 0xF6391F5C32D9C69D2A47EA670B442974B53935D1EDC7FD64EB21E047A839171B PUSH1 0x0 DUP1 LOG4 STOP JUMPDEST POP CALLVALUE PUSH2 0x24E JUMPI PUSH1 0x0 CALLDATASIZE PUSH1 0x3 NOT ADD SLT PUSH2 0x24E JUMPI PUSH1 0x97 SLOAD SWAP1 MLOAD PUSH1 0x1 PUSH1 0x1 PUSH1 0xA0 SHL SUB SWAP1 SWAP2 AND DUP2 MSTORE PUSH1 0x20 SWAP1 RETURN JUMPDEST POP CALLVALUE PUSH2 0x24E JUMPI PUSH1 0x0 CALLDATASIZE PUSH1 0x3 NOT ADD SLT PUSH2 0x24E JUMPI PUSH2 0x1C4 SLOAD SWAP1 MLOAD PUSH1 0x1 PUSH1 0x1 PUSH1 0xA0 SHL SUB SWAP1 SWAP2 AND DUP2 MSTORE PUSH1 0x20 SWAP1 RETURN JUMPDEST POP CALLVALUE PUSH2 0x24E JUMPI PUSH1 0x0 CALLDATASIZE PUSH1 0x3 NOT ADD SLT PUSH2 0x24E JUMPI PUSH2 0x1C3 SLOAD SWAP1 MLOAD PUSH1 0x1 PUSH1 0x1 PUSH1 0xA0 SHL SUB SWAP1 SWAP2 AND DUP2 MSTORE PUSH1 0x20 SWAP1 RETURN JUMPDEST POP CALLVALUE PUSH2 0x24E JUMPI PUSH1 0x20 CALLDATASIZE PUSH1 0x3 NOT ADD SLT PUSH2 0x24E JUMPI PUSH2 0x842 SWAP1 PUSH1 0xFF PUSH2 0x804 PUSH2 0x2B7A JUMP JUMPDEST SWAP2 PUSH1 0x0 DUP1 MLOAD PUSH1 0x20 PUSH2 0x2C37 DUP4 CODECOPY DUP2 MLOAD SWAP2 MSTORE PUSH1 0x0 MSTORE PUSH1 0xFB PUSH1 0x20 MSTORE DUP1 PUSH1 0x0 KECCAK256 PUSH1 0x1 DUP1 PUSH1 0xA0 SHL SUB DUP1 SWAP5 AND PUSH1 0x0 MSTORE PUSH1 0x20 MSTORE PUSH1 0x0 KECCAK256 SLOAD AND SWAP1 DUP2 ISZERO PUSH2 0x599 JUMPI POP PUSH2 0x2A4F JUMP JUMPDEST PUSH1 0x4 CALLDATALOAD PUSH2 0x1F9 SSTORE STOP JUMPDEST POP CALLVALUE PUSH2 0x24E JUMPI PUSH1 0x20 CALLDATASIZE PUSH1 0x3 NOT ADD SLT PUSH2 0x24E JUMPI PUSH2 0x865 PUSH2 0x2260 JUMP JUMPDEST SWAP1 PUSH2 0x86E PUSH2 0x2791 JUMP JUMPDEST PUSH1 0x0 DUP1 MLOAD PUSH1 0x20 PUSH2 0x2C37 DUP4 CODECOPY DUP2 MLOAD SWAP2 MSTORE SWAP2 DUP3 PUSH1 0x0 MSTORE PUSH1 0xFB PUSH1 0x20 MSTORE DUP2 PUSH1 0x0 KECCAK256 SWAP2 PUSH1 0x1 DUP1 PUSH1 0xA0 SHL SUB DUP1 SWAP3 AND SWAP3 DUP4 PUSH1 0x0 MSTORE PUSH1 0x20 MSTORE PUSH1 0xFF DUP2 PUSH1 0x0 KECCAK256 SLOAD AND ISZERO PUSH2 0x467 JUMPI STOP JUMPDEST POP CALLVALUE PUSH2 0x24E JUMPI PUSH1 0x0 CALLDATASIZE PUSH1 0x3 NOT ADD SLT PUSH2 0x24E JUMPI PUSH1 0x20 SWAP1 MLOAD PUSH1 0x0 DUP2 MSTORE RETURN JUMPDEST POP CALLVALUE PUSH2 0x24E JUMPI DUP1 PUSH1 0x3 NOT CALLDATASIZE ADD SLT PUSH2 0x24E JUMPI PUSH1 0x20 SWAP1 PUSH2 0x8E5 PUSH2 0x2276 JUMP JUMPDEST PUSH1 0x4 CALLDATALOAD PUSH1 0x0 MSTORE PUSH1 0xFB DUP4 MSTORE DUP2 PUSH1 0x0 KECCAK256 SWAP1 PUSH1 0x1 DUP1 PUSH1 0xA0 SHL SUB AND PUSH1 0x0 MSTORE DUP3 MSTORE PUSH1 0xFF DUP2 PUSH1 0x0 KECCAK256 SLOAD AND SWAP1 MLOAD SWAP1 ISZERO ISZERO DUP2 MSTORE RETURN JUMPDEST POP CALLVALUE PUSH2 0x24E JUMPI PUSH1 0x0 CALLDATASIZE PUSH1 0x3 NOT ADD SLT PUSH2 0x24E JUMPI PUSH1 0x33 SLOAD SWAP1 MLOAD PUSH1 0x1 PUSH1 0x1 PUSH1 0xA0 SHL SUB SWAP1 SWAP2 AND DUP2 MSTORE PUSH1 0x20 SWAP1 RETURN JUMPDEST POP CALLVALUE PUSH2 0x24E JUMPI PUSH1 0x0 CALLDATASIZE PUSH1 0x3 NOT ADD SLT PUSH2 0x24E JUMPI PUSH2 0x955 PUSH2 0x2B7A JUMP JUMPDEST SWAP1 PUSH1 0x0 DUP1 MLOAD PUSH1 0x20 PUSH2 0x2C17 DUP4 CODECOPY DUP2 MLOAD SWAP2 MSTORE PUSH1 0x0 MSTORE PUSH1 0x20 SWAP1 PUSH1 0xFB DUP3 MSTORE DUP1 PUSH1 0x0 KECCAK256 PUSH1 0x1 DUP1 PUSH1 0xA0 SHL SUB DUP1 SWAP5 AND PUSH1 0x0 MSTORE DUP3 MSTORE PUSH1 0xFF DUP2 PUSH1 0x0 KECCAK256 SLOAD AND DUP1 ISZERO PUSH2 0xA47 JUMPI JUMPDEST DUP1 ISZERO PUSH2 0xA2C JUMPI JUMPDEST PUSH2 0x9A1 SWAP1 PUSH2 0x2A4F JUMP JUMPDEST PUSH1 0x97 SLOAD SWAP3 PUSH1 0xFF DUP5 PUSH1 0xA0 SHR AND PUSH2 0x9F5 JUMPI PUSH1 0xFF PUSH1 0xA0 SHL NOT SWAP1 SWAP4 AND PUSH1 0x1 PUSH1 0xA0 SHL OR PUSH1 0x97 SSTORE PUSH32 0x62E78CEA01BEE320CD4E420270B5EA74000D11B0C9F74754EBDBFC544B05A258 SWAP3 PUSH2 0x9EC PUSH2 0x2B7A JUMP JUMPDEST SWAP2 MLOAD SWAP2 AND DUP2 MSTORE LOG1 STOP JUMPDEST DUP2 MLOAD PUSH3 0x461BCD PUSH1 0xE5 SHL DUP2 MSTORE PUSH1 0x4 DUP2 ADD DUP5 SWAP1 MSTORE PUSH1 0x10 PUSH1 0x24 DUP3 ADD MSTORE PUSH16 0x14185D5CD8589B194E881C185D5CD959 PUSH1 0x82 SHL PUSH1 0x44 DUP3 ADD MSTORE PUSH1 0x64 SWAP1 REVERT JUMPDEST POP PUSH2 0x9A1 DUP4 PUSH1 0x33 SLOAD AND DUP5 PUSH2 0xA3E PUSH2 0x2B7A JUMP JUMPDEST AND EQ SWAP1 POP PUSH2 0x998 JUMP JUMPDEST POP PUSH2 0xA50 PUSH2 0x2B7A JUMP JUMPDEST PUSH1 0x0 DUP1 MLOAD PUSH1 0x20 PUSH2 0x2C37 DUP4 CODECOPY DUP2 MLOAD SWAP2 MSTORE PUSH1 0x0 MSTORE PUSH1 0xFB DUP4 MSTORE DUP4 DUP3 PUSH1 0x0 KECCAK256 SWAP2 AND PUSH1 0x0 MSTORE DUP3 MSTORE PUSH1 0xFF DUP2 PUSH1 0x0 KECCAK256 SLOAD AND PUSH2 0x991 JUMP JUMPDEST POP CALLVALUE PUSH2 0x24E JUMPI PUSH1 0x20 SWAP1 DUP2 PUSH1 0x3 NOT CALLDATASIZE ADD SLT PUSH2 0x24E JUMPI PUSH2 0xA9B PUSH2 0x2260 JUMP JUMPDEST SWAP1 PUSH2 0xAA4 PUSH2 0x2B7A JUMP JUMPDEST SWAP1 PUSH1 0x0 DUP1 MLOAD PUSH1 0x20 PUSH2 0x2C37 DUP4 CODECOPY DUP2 MLOAD SWAP2 MSTORE PUSH1 0x0 MSTORE PUSH1 0xFB DUP5 MSTORE DUP1 PUSH1 0x0 KECCAK256 PUSH1 0x1 DUP1 PUSH1 0xA0 SHL SUB DUP1 SWAP4 AND PUSH1 0x0 MSTORE DUP5 MSTORE PUSH1 0xFF DUP2 PUSH1 0x0 KECCAK256 SLOAD AND DUP1 ISZERO PUSH2 0xB43 JUMPI JUMPDEST PUSH2 0xAE6 SWAP1 PUSH2 0x2A4F JUMP JUMPDEST PUSH1 0x0 DUP1 MLOAD PUSH1 0x20 PUSH2 0x2C17 DUP4 CODECOPY DUP2 MLOAD SWAP2 MSTORE SWAP4 DUP5 PUSH1 0x0 MSTORE PUSH1 0xFB DUP2 MSTORE DUP3 DUP3 PUSH1 0x0 KECCAK256 SWAP5 AND SWAP4 DUP5 PUSH1 0x0 MSTORE DUP2 MSTORE PUSH1 0xFF DUP3 PUSH1 0x0 KECCAK256 SLOAD AND ISZERO PUSH2 0xB1B JUMPI STOP JUMPDEST DUP5 PUSH1 0x0 MSTORE PUSH1 0xFB DUP2 MSTORE DUP2 PUSH1 0x0 KECCAK256 SWAP1 DUP5 PUSH1 0x0 MSTORE MSTORE PUSH1 0x0 KECCAK256 PUSH1 0x1 PUSH1 0xFF NOT DUP3 SLOAD AND OR SWAP1 SSTORE PUSH2 0x491 PUSH2 0x2B7A JUMP JUMPDEST POP PUSH2 0xAE6 DUP3 PUSH1 0x33 SLOAD AND DUP4 PUSH2 0xB55 PUSH2 0x2B7A JUMP JUMPDEST AND EQ SWAP1 POP PUSH2 0xADD JUMP JUMPDEST POP CALLVALUE PUSH2 0x24E JUMPI PUSH1 0x20 CALLDATASIZE PUSH1 0x3 NOT ADD SLT PUSH2 0x24E JUMPI PUSH1 0x4 CALLDATALOAD SWAP1 PUSH2 0xFFFF DUP3 AND DUP3 SUB PUSH2 0x24E JUMPI PUSH2 0xB8A PUSH1 0x20 SWAP3 PUSH2 0x2A91 JUMP JUMPDEST SWAP1 MLOAD SWAP1 DUP2 MSTORE RETURN JUMPDEST POP CALLVALUE PUSH2 0x24E JUMPI PUSH1 0x0 CALLDATASIZE PUSH1 0x3 NOT ADD SLT PUSH2 0x24E JUMPI PUSH1 0x20 SWAP1 MLOAD PUSH1 0x0 DUP1 MLOAD PUSH1 0x20 PUSH2 0x2C57 DUP4 CODECOPY DUP2 MLOAD SWAP2 MSTORE DUP2 MSTORE RETURN JUMPDEST CALLVALUE PUSH2 0x24E JUMPI PUSH1 0x0 CALLDATASIZE PUSH1 0x3 NOT ADD SLT PUSH2 0x24E JUMPI PUSH2 0xBD3 PUSH2 0x2791 JUMP JUMPDEST PUSH1 0x33 DUP1 SLOAD PUSH1 0x1 PUSH1 0x1 PUSH1 0xA0 SHL SUB NOT DUP2 AND SWAP1 SWAP2 SSTORE PUSH1 0x0 SWAP1 PUSH1 0x1 PUSH1 0x1 PUSH1 0xA0 SHL SUB AND PUSH32 0x8BE0079C531659141344CD1FD0A4F28419497F9722A3DAAFE3B4186F6B6457E0 DUP3 DUP1 LOG3 STOP JUMPDEST POP CALLVALUE PUSH2 0x24E JUMPI PUSH1 0x20 SWAP1 DUP2 PUSH1 0x3 NOT CALLDATASIZE ADD SLT PUSH2 0x24E JUMPI PUSH2 0xC33 PUSH2 0x2260 JUMP JUMPDEST SWAP1 PUSH2 0xC3C PUSH2 0x2B7A JUMP JUMPDEST SWAP1 PUSH1 0x0 DUP1 MLOAD PUSH1 0x20 PUSH2 0x2C37 DUP4 CODECOPY DUP2 MLOAD SWAP2 MSTORE PUSH1 0x0 MSTORE PUSH1 0xFB DUP5 MSTORE DUP1 PUSH1 0x0 KECCAK256 PUSH1 0x1 DUP1 PUSH1 0xA0 SHL SUB DUP1 SWAP4 AND PUSH1 0x0 MSTORE DUP5 MSTORE PUSH1 0xFF DUP2 PUSH1 0x0 KECCAK256 SLOAD AND DUP1 ISZERO PUSH2 0xCB3 JUMPI JUMPDEST PUSH2 0xC7E SWAP1 PUSH2 0x2A4F JUMP JUMPDEST PUSH1 0x0 DUP1 MLOAD PUSH1 0x20 PUSH2 0x2C57 DUP4 CODECOPY DUP2 MLOAD SWAP2 MSTORE SWAP4 DUP5 PUSH1 0x0 MSTORE PUSH1 0xFB DUP2 MSTORE DUP3 DUP3 PUSH1 0x0 KECCAK256 SWAP5 AND SWAP4 DUP5 PUSH1 0x0 MSTORE DUP2 MSTORE PUSH1 0xFF DUP3 PUSH1 0x0 KECCAK256 SLOAD AND ISZERO PUSH2 0xB1B JUMPI STOP JUMPDEST POP PUSH2 0xC7E DUP3 PUSH1 0x33 SLOAD AND DUP4 PUSH2 0xCC5 PUSH2 0x2B7A JUMP JUMPDEST AND EQ SWAP1 POP PUSH2 0xC75 JUMP JUMPDEST POP CALLVALUE PUSH2 0x24E JUMPI PUSH1 0x60 CALLDATASIZE PUSH1 0x3 NOT ADD SLT PUSH2 0x24E JUMPI PUSH1 0x0 SWAP1 PUSH1 0x20 PUSH2 0xCED PUSH2 0x2260 JUMP JUMPDEST PUSH1 0x44 PUSH2 0xCF7 PUSH2 0x2276 JUMP JUMPDEST SWAP2 PUSH2 0xD00 PUSH2 0x2791 JUMP JUMPDEST DUP5 MLOAD PUSH4 0xA9059CBB PUSH1 0xE0 SHL DUP2 MSTORE PUSH1 0x1 PUSH1 0x1 PUSH1 0xA0 SHL SUB SWAP4 DUP5 AND PUSH1 0x4 DUP3 ADD MSTORE DUP3 CALLDATALOAD PUSH1 0x24 DUP3 ADD MSTORE SWAP6 DUP7 SWAP4 DUP5 SWAP3 AND GAS CALL SWAP1 DUP2 ISZERO PUSH2 0x502 JUMPI POP PUSH2 0xD39 JUMPI STOP JUMPDEST PUSH1 0x20 DUP2 RETURNDATASIZE DUP3 GT PUSH2 0xD64 JUMPI JUMPDEST DUP2 PUSH2 0xD51 PUSH1 0x20 SWAP4 DUP4 PUSH2 0x2304 JUMP JUMPDEST DUP2 ADD SUB SLT PUSH2 0x24E JUMPI MLOAD DUP1 ISZERO ISZERO SUB PUSH2 0x24E JUMPI STOP JUMPDEST RETURNDATASIZE SWAP2 POP PUSH2 0xD44 JUMP JUMPDEST POP CALLVALUE PUSH2 0x24E JUMPI PUSH1 0x20 SWAP1 DUP2 PUSH1 0x3 NOT CALLDATASIZE ADD SLT PUSH2 0x24E JUMPI PUSH2 0xD88 PUSH2 0x2260 JUMP JUMPDEST SWAP1 PUSH2 0xD91 PUSH2 0x2B7A JUMP JUMPDEST SWAP1 PUSH1 0x0 DUP1 MLOAD PUSH1 0x20 PUSH2 0x2C37 DUP4 CODECOPY DUP2 MLOAD SWAP2 MSTORE PUSH1 0x0 MSTORE PUSH1 0xFB DUP5 MSTORE DUP1 PUSH1 0x0 KECCAK256 PUSH1 0x1 DUP1 PUSH1 0xA0 SHL SUB DUP1 SWAP4 AND PUSH1 0x0 MSTORE DUP5 MSTORE PUSH1 0xFF DUP2 PUSH1 0x0 KECCAK256 SLOAD AND DUP1 ISZERO PUSH2 0xE2C JUMPI JUMPDEST PUSH2 0xDD3 SWAP1 PUSH2 0x2A4F JUMP JUMPDEST PUSH1 0x0 DUP1 MLOAD PUSH1 0x20 PUSH2 0x2C17 DUP4 CODECOPY DUP2 MLOAD SWAP2 MSTORE SWAP4 DUP5 PUSH1 0x0 MSTORE PUSH1 0xFB DUP2 MSTORE DUP3 DUP3 PUSH1 0x0 KECCAK256 SWAP5 AND SWAP4 DUP5 PUSH1 0x0 MSTORE DUP2 MSTORE PUSH1 0xFF DUP3 PUSH1 0x0 KECCAK256 SLOAD AND PUSH2 0xE07 JUMPI STOP JUMPDEST DUP5 PUSH1 0x0 MSTORE PUSH1 0xFB DUP2 MSTORE DUP2 PUSH1 0x0 KECCAK256 SWAP1 DUP5 PUSH1 0x0 MSTORE MSTORE PUSH1 0x0 KECCAK256 PUSH1 0xFF NOT DUP2 SLOAD AND SWAP1 SSTORE PUSH2 0x73E PUSH2 0x2B7A JUMP JUMPDEST POP PUSH2 0xDD3 DUP3 PUSH1 0x33 SLOAD AND DUP4 PUSH2 0xE3E PUSH2 0x2B7A JUMP JUMPDEST AND EQ SWAP1 POP PUSH2 0xDCA JUMP JUMPDEST POP CALLVALUE PUSH2 0x24E JUMPI PUSH1 0x0 CALLDATASIZE PUSH1 0x3 NOT ADD SLT PUSH2 0x24E JUMPI PUSH1 0x20 SWAP1 PUSH1 0xFF PUSH1 0x97 SLOAD PUSH1 0xA0 SHR AND SWAP1 MLOAD SWAP1 ISZERO ISZERO DUP2 MSTORE RETURN JUMPDEST POP CALLVALUE PUSH2 0x24E JUMPI PUSH1 0x20 CALLDATASIZE PUSH1 0x3 NOT ADD SLT PUSH2 0x24E JUMPI PUSH1 0x20 SWAP1 PUSH2 0xE8B PUSH2 0x2260 JUMP JUMPDEST PUSH1 0x1 DUP1 PUSH1 0xA0 SHL SUB DUP1 PUSH1 0x97 SLOAD AND SWAP2 AND EQ SWAP1 MLOAD SWAP1 DUP2 MSTORE RETURN JUMPDEST POP CALLVALUE PUSH2 0x24E JUMPI PUSH1 0x0 CALLDATASIZE PUSH1 0x3 NOT ADD SLT PUSH2 0x24E JUMPI PUSH32 0x0 PUSH1 0x1 PUSH1 0x1 PUSH1 0xA0 SHL SUB AND ADDRESS SUB PUSH2 0xEFA JUMPI PUSH1 0x20 SWAP1 MLOAD PUSH1 0x0 DUP1 MLOAD PUSH1 0x20 PUSH2 0x2BF7 DUP4 CODECOPY DUP2 MLOAD SWAP2 MSTORE DUP2 MSTORE RETURN JUMPDEST MLOAD PUSH3 0x461BCD PUSH1 0xE5 SHL DUP2 MSTORE PUSH1 0x20 PUSH1 0x4 DUP3 ADD MSTORE PUSH1 0x38 PUSH1 0x24 DUP3 ADD MSTORE PUSH32 0x555550535570677261646561626C653A206D757374206E6F742062652063616C PUSH1 0x44 DUP3 ADD MSTORE PUSH32 0x6C6564207468726F7567682064656C656761746563616C6C0000000000000000 PUSH1 0x64 DUP3 ADD MSTORE PUSH1 0x84 SWAP1 REVERT JUMPDEST POP DUP1 PUSH1 0x3 NOT CALLDATASIZE ADD SLT PUSH2 0x24E JUMPI PUSH2 0xF77 PUSH2 0x2260 JUMP JUMPDEST PUSH1 0x24 CALLDATALOAD SWAP2 PUSH8 0xFFFFFFFFFFFFFFFF DUP4 GT PUSH2 0x24E JUMPI CALLDATASIZE PUSH1 0x23 DUP5 ADD SLT ISZERO PUSH2 0x24E JUMPI DUP3 PUSH1 0x4 ADD CALLDATALOAD SWAP1 PUSH2 0xFA4 DUP3 PUSH2 0x2326 JUMP JUMPDEST PUSH2 0xFB0 DUP3 MLOAD SWAP2 DUP3 PUSH2 0x2304 JUMP JUMPDEST DUP3 DUP2 MSTORE PUSH1 0x20 SWAP3 DUP4 DUP3 ADD SWAP6 CALLDATASIZE PUSH1 0x24 DUP4 DUP4 ADD ADD GT PUSH2 0x24E JUMPI DUP2 PUSH1 0x0 SWAP3 PUSH1 0x24 DUP8 SWAP4 ADD DUP10 CALLDATACOPY DUP4 ADD ADD MSTORE PUSH1 0x1 PUSH1 0x1 PUSH1 0xA0 SHL SUB PUSH32 0x0 DUP2 AND SWAP1 PUSH2 0x100D ADDRESS DUP4 EQ ISZERO PUSH2 0x283D JUMP JUMPDEST PUSH2 0x102A PUSH1 0x0 DUP1 MLOAD PUSH1 0x20 PUSH2 0x2BF7 DUP4 CODECOPY DUP2 MLOAD SWAP2 MSTORE SWAP3 DUP3 DUP5 SLOAD AND EQ PUSH2 0x289E JUMP JUMPDEST PUSH2 0x1032 PUSH2 0x2B7A JUMP JUMPDEST PUSH1 0x0 DUP1 MLOAD PUSH1 0x20 PUSH2 0x2BD7 DUP4 CODECOPY DUP2 MLOAD SWAP2 MSTORE PUSH1 0x0 MSTORE PUSH1 0xFB DUP7 MSTORE DUP2 DUP6 PUSH1 0x0 KECCAK256 SWAP2 AND PUSH1 0x0 MSTORE DUP6 MSTORE PUSH1 0xFF DUP5 PUSH1 0x0 KECCAK256 SLOAD AND DUP1 ISZERO PUSH2 0x1284 JUMPI JUMPDEST PUSH2 0x106C SWAP1 PUSH2 0x2A4F JUMP JUMPDEST PUSH32 0x4910FDFA16FED3260ED0E7147F7CC6DA11A60208B5B9406D12A635614FFD9143 SLOAD PUSH1 0xFF AND ISZERO PUSH2 0x10A5 JUMPI POP POP POP POP POP PUSH2 0x1B SWAP2 POP PUSH2 0x28FF JUMP JUMPDEST DUP6 SWAP3 SWAP4 SWAP5 SWAP6 AND SWAP1 DUP5 MLOAD PUSH4 0x52D1902D PUSH1 0xE0 SHL DUP2 MSTORE DUP7 DUP2 PUSH1 0x4 DUP2 DUP7 GAS STATICCALL PUSH1 0x0 SWAP2 DUP2 PUSH2 0x1255 JUMPI JUMPDEST POP PUSH2 0x1129 JUMPI DUP6 MLOAD PUSH3 0x461BCD PUSH1 0xE5 SHL DUP2 MSTORE PUSH1 0x4 DUP2 ADD DUP9 SWAP1 MSTORE PUSH1 0x2E PUSH1 0x24 DUP3 ADD MSTORE PUSH32 0x45524331393637557067726164653A206E657720696D706C656D656E74617469 PUSH1 0x44 DUP3 ADD MSTORE PUSH14 0x6F6E206973206E6F742055555053 PUSH1 0x90 SHL PUSH1 0x64 DUP3 ADD MSTORE PUSH1 0x84 SWAP1 REVERT JUMPDEST SWAP6 SWAP5 SWAP4 SWAP6 SUB PUSH2 0x11FF JUMPI PUSH2 0x113B DUP3 PUSH2 0x28FF JUMP JUMPDEST PUSH32 0xBC7CD75A20EE27FD9ADEBAB32041F755214DBC6BFFA90CC0225B39DA2E5C2D3B PUSH1 0x0 DUP1 LOG2 DUP4 MLOAD ISZERO DUP1 ISZERO SWAP1 PUSH2 0x11F7 JUMPI JUMPDEST PUSH2 0x1171 JUMPI STOP JUMPDEST PUSH1 0x0 DUP1 PUSH2 0x1B SWAP7 DUP5 MLOAD SWAP7 PUSH2 0x1184 DUP9 PUSH2 0x22E8 JUMP JUMPDEST PUSH1 0x27 DUP9 MSTORE PUSH32 0x416464726573733A206C6F772D6C6576656C2064656C65676174652063616C6C DUP8 DUP10 ADD MSTORE PUSH7 0x819985A5B1959 PUSH1 0xCA SHL DUP7 DUP10 ADD MSTORE MLOAD SWAP1 DUP5 GAS DELEGATECALL SWAP2 RETURNDATASIZE ISZERO PUSH2 0x11ED JUMPI RETURNDATASIZE PUSH2 0x11DE PUSH2 0x11D5 DUP3 PUSH2 0x2326 JUMP JUMPDEST SWAP3 MLOAD SWAP3 DUP4 PUSH2 0x2304 JUMP JUMPDEST DUP2 MSTORE PUSH1 0x0 DUP2 SWAP5 RETURNDATASIZE SWAP3 ADD RETURNDATACOPY PUSH2 0x298F JUMP JUMPDEST POP PUSH1 0x60 SWAP3 POP PUSH2 0x298F JUMP JUMPDEST POP PUSH1 0x1 PUSH2 0x116B JUMP JUMPDEST DUP3 MLOAD PUSH3 0x461BCD PUSH1 0xE5 SHL DUP2 MSTORE PUSH1 0x4 DUP2 ADD DUP6 SWAP1 MSTORE PUSH1 0x29 PUSH1 0x24 DUP3 ADD MSTORE PUSH32 0x45524331393637557067726164653A20756E737570706F727465642070726F78 PUSH1 0x44 DUP3 ADD MSTORE PUSH9 0x1A58589B1955555251 PUSH1 0xBA SHL PUSH1 0x64 DUP3 ADD MSTORE PUSH1 0x84 SWAP1 REVERT JUMPDEST SWAP1 SWAP2 POP DUP8 DUP2 DUP2 RETURNDATASIZE DUP4 GT PUSH2 0x127D JUMPI JUMPDEST PUSH2 0x126D DUP2 DUP4 PUSH2 0x2304 JUMP JUMPDEST DUP2 ADD SUB SLT PUSH2 0x24E JUMPI MLOAD SWAP1 CODESIZE PUSH2 0x10C9 JUMP JUMPDEST POP RETURNDATASIZE PUSH2 0x1263 JUMP JUMPDEST POP PUSH2 0x106C DUP2 PUSH1 0x33 SLOAD AND DUP3 PUSH2 0x1296 PUSH2 0x2B7A JUMP JUMPDEST AND EQ SWAP1 POP PUSH2 0x1063 JUMP JUMPDEST POP CALLVALUE PUSH2 0x24E JUMPI PUSH1 0x20 CALLDATASIZE PUSH1 0x3 NOT ADD SLT PUSH2 0x24E JUMPI PUSH2 0x12B9 PUSH2 0x2260 JUMP JUMPDEST SWAP1 PUSH1 0xFF PUSH2 0x12C4 PUSH2 0x2B7A JUMP JUMPDEST SWAP2 PUSH1 0x0 DUP1 MLOAD PUSH1 0x20 PUSH2 0x2C37 DUP4 CODECOPY DUP2 MLOAD SWAP2 MSTORE PUSH1 0x0 MSTORE PUSH1 0xFB PUSH1 0x20 MSTORE DUP1 PUSH1 0x0 KECCAK256 PUSH1 0x1 DUP1 PUSH1 0xA0 SHL SUB DUP1 SWAP5 AND PUSH1 0x0 MSTORE PUSH1 0x20 MSTORE PUSH1 0x0 KECCAK256 SLOAD AND DUP1 ISZERO PUSH2 0x131D JUMPI JUMPDEST PUSH2 0x1305 SWAP1 PUSH2 0x2A4F JUMP JUMPDEST PUSH2 0x1C3 DUP1 SLOAD PUSH1 0x1 PUSH1 0x1 PUSH1 0xA0 SHL SUB NOT AND SWAP2 SWAP1 SWAP3 AND OR SWAP1 SSTORE STOP JUMPDEST POP PUSH2 0x1305 DUP2 PUSH1 0x33 SLOAD AND DUP3 PUSH2 0x132F PUSH2 0x2B7A JUMP JUMPDEST AND EQ SWAP1 POP PUSH2 0x12FC JUMP JUMPDEST POP CALLVALUE PUSH2 0x24E JUMPI PUSH1 0x20 CALLDATASIZE PUSH1 0x3 NOT ADD SLT PUSH2 0x24E JUMPI PUSH2 0x1352 PUSH2 0x2260 JUMP JUMPDEST SWAP1 PUSH2 0x135B PUSH2 0x2791 JUMP JUMPDEST PUSH1 0x0 DUP1 MLOAD PUSH1 0x20 PUSH2 0x2C37 DUP4 CODECOPY DUP2 MLOAD SWAP2 MSTORE SWAP2 DUP3 PUSH1 0x0 MSTORE PUSH1 0xFB PUSH1 0x20 MSTORE DUP2 PUSH1 0x0 KECCAK256 SWAP2 PUSH1 0x1 DUP1 PUSH1 0xA0 SHL SUB DUP1 SWAP3 AND SWAP3 DUP4 PUSH1 0x0 MSTORE PUSH1 0x20 MSTORE PUSH1 0xFF DUP2 PUSH1 0x0 KECCAK256 SLOAD AND PUSH2 0x717 JUMPI STOP JUMPDEST POP PUSH1 0x3 NOT PUSH1 0x20 CALLDATASIZE DUP3 ADD SLT PUSH2 0x24E JUMPI PUSH1 0x4 CALLDATALOAD PUSH8 0xFFFFFFFFFFFFFFFF DUP2 GT PUSH2 0x24E JUMPI DUP1 CALLDATASIZE SUB PUSH2 0x100 DUP1 SWAP4 DUP3 ADD SLT PUSH2 0x24E JUMPI PUSH1 0x2 PUSH2 0x12D SLOAD EQ PUSH2 0x1712 JUMPI PUSH1 0x2 PUSH2 0x12D SSTORE PUSH2 0x13E1 PUSH2 0x2B7A JUMP JUMPDEST PUSH2 0x1C3 SLOAD PUSH1 0x1 PUSH1 0x1 PUSH1 0xA0 SHL SUB SWAP1 DUP2 AND SWAP2 AND SUB PUSH2 0x16B9 JUMPI PUSH1 0x84 DUP3 ADD CALLDATALOAD PUSH1 0x0 MSTORE PUSH2 0x1F8 DUP1 PUSH1 0x20 MSTORE PUSH2 0x1417 PUSH2 0xFFFF DUP7 PUSH1 0x0 KECCAK256 SLOAD AND PUSH2 0x2A91 JUMP JUMPDEST SWAP4 DUP5 CALLVALUE GT ISZERO PUSH2 0x167F JUMPI DUP6 MLOAD PUSH1 0x20 DUP1 DUP3 ADD MSTORE SWAP3 PUSH1 0x1 PUSH1 0x1 PUSH1 0xA0 SHL SUB PUSH2 0x143D PUSH1 0x4 DUP8 ADD PUSH2 0x228C JUMP JUMPDEST AND DUP5 DUP9 ADD MSTORE PUSH1 0x24 DUP6 ADD CALLDATALOAD PUSH1 0x60 DUP6 ADD MSTORE PUSH1 0x44 DUP6 ADD CALLDATALOAD PUSH1 0x80 DUP6 ADD MSTORE PUSH1 0x64 DUP6 ADD CALLDATALOAD PUSH1 0xA0 DUP6 ADD MSTORE PUSH1 0x84 DUP6 ADD CALLDATALOAD PUSH1 0xC0 DUP6 ADD MSTORE PUSH1 0x1 PUSH1 0x1 PUSH1 0xA0 SHL SUB PUSH2 0x147E PUSH1 0xA4 DUP8 ADD PUSH2 0x228C JUMP JUMPDEST AND PUSH1 0xE0 DUP6 ADD MSTORE PUSH1 0x1 PUSH1 0x1 PUSH1 0xA0 SHL SUB PUSH2 0x1498 PUSH1 0xC4 DUP8 ADD PUSH2 0x228C JUMP JUMPDEST AND DUP5 DUP4 ADD MSTORE PUSH1 0xE4 DUP6 ADD CALLDATALOAD SWAP1 PUSH1 0x42 NOT ADD DUP2 SLT ISZERO PUSH2 0x24E JUMPI PUSH2 0x120 DUP5 ADD SWAP2 SWAP1 SWAP2 MSTORE DUP4 ADD PUSH1 0x1 PUSH1 0x1 PUSH1 0xA0 SHL SUB PUSH2 0x14CD PUSH1 0x4 DUP4 ADD PUSH2 0x228C JUMP JUMPDEST AND PUSH2 0x140 DUP5 ADD MSTORE PUSH1 0x24 DUP2 ADD CALLDATALOAD PUSH1 0x22 NOT DUP3 CALLDATASIZE SUB ADD DUP2 SLT ISZERO PUSH2 0x24E JUMPI ADD PUSH8 0xFFFFFFFFFFFFFFFF PUSH1 0x4 DUP3 ADD CALLDATALOAD GT PUSH2 0x24E JUMPI PUSH1 0x24 DUP2 ADD SWAP1 PUSH1 0x4 DUP2 ADD CALLDATALOAD CALLDATASIZE SUB DUP3 SGT PUSH2 0x24E JUMPI PUSH2 0x155A SWAP2 DUP5 PUSH2 0x1A0 SWAP3 DUP10 PUSH2 0x160 DUP4 ADD MSTORE PUSH2 0x180 SWAP3 PUSH1 0x4 DUP3 ADD CALLDATALOAD DUP5 DUP5 ADD MSTORE PUSH1 0x4 DUP3 ADD CALLDATALOAD SWAP1 DUP6 DUP5 ADD CALLDATACOPY PUSH1 0x0 DUP5 PUSH1 0x4 DUP4 ADD CALLDATALOAD DUP5 ADD ADD MSTORE PUSH1 0x1F PUSH1 0x4 DUP2 NOT SWAP3 ADD CALLDATALOAD ADD AND DUP2 ADD SUB SWAP1 DUP2 ADD DUP6 MSTORE ADD DUP4 PUSH2 0x2304 JUMP JUMPDEST PUSH1 0x1 DUP1 PUSH1 0xA0 SHL SUB PUSH2 0x1F7 SLOAD AND SWAP1 PUSH1 0x84 DUP5 ADD CALLDATALOAD PUSH1 0x0 MSTORE PUSH1 0x20 MSTORE PUSH1 0xC4 PUSH2 0xFFFF DUP7 PUSH1 0x0 KECCAK256 SLOAD AND SWAP4 ADD CALLDATALOAD PUSH1 0x1 DUP1 PUSH1 0xA0 SHL SUB DUP2 AND DUP1 SWAP2 SUB PUSH2 0x24E JUMPI PUSH2 0x15C9 SWAP5 PUSH1 0x20 SWAP5 PUSH2 0x1F9 SLOAD DUP9 MLOAD SWAP8 DUP9 SWAP7 DUP8 SWAP6 DUP7 SWAP5 PUSH4 0x47F66E81 PUSH1 0xE1 SHL DUP7 MSTORE PUSH1 0x4 DUP7 ADD MSTORE PUSH1 0x24 DUP6 ADD MSTORE PUSH1 0xA0 PUSH1 0x44 DUP6 ADD MSTORE PUSH1 0xA4 DUP5 ADD SWAP1 PUSH2 0x22C3 JUMP JUMPDEST SWAP1 PUSH1 0x0 PUSH1 0x64 DUP5 ADD MSTORE PUSH1 0x84 DUP4 ADD MSTORE SUB SWAP3 GAS CALL DUP1 ISZERO PUSH2 0x1674 JUMPI PUSH2 0x1634 JUMPI JUMPDEST POP PUSH1 0x1 PUSH2 0x12D SSTORE DUP1 MLOAD SWAP1 PUSH1 0x20 DUP3 MSTORE DUP2 PUSH1 0x60 MLOAD DUP1 PUSH1 0x20 DUP4 ADD MSTORE PUSH1 0x0 JUMPDEST DUP2 DUP2 LT PUSH2 0x161E JUMPI POP PUSH1 0x0 DUP3 DUP3 ADD DUP5 ADD MSTORE PUSH1 0x1F ADD PUSH1 0x1F NOT AND DUP2 ADD SUB ADD SWAP1 RETURN JUMPDEST PUSH1 0x80 DUP2 ADD MLOAD DUP6 DUP3 ADD DUP6 ADD MSTORE DUP5 SWAP3 POP PUSH1 0x20 ADD PUSH2 0x1600 JUMP JUMPDEST PUSH1 0x20 DUP2 RETURNDATASIZE PUSH1 0x20 GT PUSH2 0x166C JUMPI JUMPDEST DUP2 PUSH2 0x164D PUSH1 0x20 SWAP4 DUP4 PUSH2 0x2304 JUMP JUMPDEST DUP2 ADD SUB SLT PUSH2 0x24E JUMPI MLOAD PUSH8 0xFFFFFFFFFFFFFFFF DUP2 AND SUB PUSH2 0x24E JUMPI CODESIZE PUSH2 0x15E5 JUMP JUMPDEST RETURNDATASIZE SWAP2 POP PUSH2 0x1640 JUMP JUMPDEST DUP3 MLOAD RETURNDATASIZE PUSH1 0x0 DUP3 RETURNDATACOPY RETURNDATASIZE SWAP1 REVERT JUMPDEST DUP6 MLOAD PUSH3 0x461BCD PUSH1 0xE5 SHL DUP2 MSTORE PUSH1 0x20 PUSH1 0x4 DUP3 ADD MSTORE PUSH1 0x13 PUSH1 0x24 DUP3 ADD MSTORE PUSH19 0x476173207061796D656E74206973206C657373 PUSH1 0x68 SHL PUSH1 0x44 DUP3 ADD MSTORE PUSH1 0x64 SWAP1 REVERT JUMPDEST DUP4 MLOAD PUSH3 0x461BCD PUSH1 0xE5 SHL DUP2 MSTORE PUSH1 0x20 PUSH1 0x4 DUP3 ADD MSTORE PUSH1 0x2C PUSH1 0x24 DUP3 ADD MSTORE PUSH32 0x4F6E6C792043726F737353796E63476174657761792063616E2063616C6C2074 PUSH1 0x44 DUP3 ADD MSTORE PUSH12 0x3434B990333AB731BA34B7B7 PUSH1 0xA1 SHL PUSH1 0x64 DUP3 ADD MSTORE PUSH1 0x84 SWAP1 REVERT JUMPDEST DUP4 MLOAD PUSH3 0x461BCD PUSH1 0xE5 SHL DUP2 MSTORE PUSH1 0x20 PUSH1 0x4 DUP3 ADD MSTORE PUSH1 0x1F PUSH1 0x24 DUP3 ADD MSTORE PUSH32 0x5265656E7472616E637947756172643A207265656E7472616E742063616C6C00 PUSH1 0x44 DUP3 ADD MSTORE PUSH1 0x64 SWAP1 REVERT JUMPDEST POP CALLVALUE PUSH2 0x24E JUMPI PUSH1 0x0 CALLDATASIZE PUSH1 0x3 NOT ADD SLT PUSH2 0x24E JUMPI PUSH1 0x20 SWAP1 MLOAD PUSH1 0x0 DUP1 MLOAD PUSH1 0x20 PUSH2 0x2C37 DUP4 CODECOPY DUP2 MLOAD SWAP2 MSTORE DUP2 MSTORE RETURN JUMPDEST POP CALLVALUE PUSH2 0x24E JUMPI PUSH1 0x20 CALLDATASIZE PUSH1 0x3 NOT ADD SLT PUSH2 0x24E JUMPI PUSH1 0x20 SWAP1 PUSH1 0x4 CALLDATALOAD PUSH1 0x0 MSTORE PUSH2 0x1F8 DUP3 MSTORE PUSH2 0xFFFF DUP2 PUSH1 0x0 KECCAK256 SLOAD AND SWAP1 MLOAD SWAP1 DUP2 MSTORE RETURN JUMPDEST POP CALLVALUE PUSH2 0x24E JUMPI PUSH1 0x0 CALLDATASIZE PUSH1 0x3 NOT ADD SLT PUSH2 0x24E JUMPI PUSH2 0x17C9 PUSH2 0x2B7A JUMP JUMPDEST SWAP1 PUSH1 0x0 DUP1 MLOAD PUSH1 0x20 PUSH2 0x2C17 DUP4 CODECOPY DUP2 MLOAD SWAP2 MSTORE PUSH1 0x0 MSTORE PUSH1 0x20 SWAP1 PUSH1 0xFB DUP3 MSTORE DUP1 PUSH1 0x0 KECCAK256 PUSH1 0x1 DUP1 PUSH1 0xA0 SHL SUB DUP1 SWAP5 AND PUSH1 0x0 MSTORE DUP3 MSTORE PUSH1 0xFF DUP2 PUSH1 0x0 KECCAK256 SLOAD AND DUP1 ISZERO PUSH2 0x18B1 JUMPI JUMPDEST DUP1 ISZERO PUSH2 0x1896 JUMPI JUMPDEST PUSH2 0x1815 SWAP1 PUSH2 0x2A4F JUMP JUMPDEST PUSH1 0x97 SLOAD SWAP3 PUSH1 0xFF DUP5 PUSH1 0xA0 SHR AND ISZERO PUSH2 0x185B JUMPI PUSH1 0xFF PUSH1 0xA0 SHL NOT SWAP1 SWAP4 AND PUSH1 0x97 SSTORE PUSH32 0x5DB9EE0A495BF2E6FF9C91A7834C1BA4FDD244A5E8AA4E537BD38AEAE4B073AA SWAP3 PUSH2 0x9EC PUSH2 0x2B7A JUMP JUMPDEST DUP2 MLOAD PUSH3 0x461BCD PUSH1 0xE5 SHL DUP2 MSTORE PUSH1 0x4 DUP2 ADD DUP5 SWAP1 MSTORE PUSH1 0x14 PUSH1 0x24 DUP3 ADD MSTORE PUSH20 0x14185D5CD8589B194E881B9BDD081C185D5CD959 PUSH1 0x62 SHL PUSH1 0x44 DUP3 ADD MSTORE PUSH1 0x64 SWAP1 REVERT JUMPDEST POP PUSH2 0x1815 DUP4 PUSH1 0x33 SLOAD AND DUP5 PUSH2 0x18A8 PUSH2 0x2B7A JUMP JUMPDEST AND EQ SWAP1 POP PUSH2 0x180C JUMP JUMPDEST POP PUSH2 0x18BA PUSH2 0x2B7A JUMP JUMPDEST PUSH1 0x0 DUP1 MLOAD PUSH1 0x20 PUSH2 0x2C37 DUP4 CODECOPY DUP2 MLOAD SWAP2 MSTORE PUSH1 0x0 MSTORE PUSH1 0xFB DUP4 MSTORE DUP4 DUP3 PUSH1 0x0 KECCAK256 SWAP2 AND PUSH1 0x0 MSTORE DUP3 MSTORE PUSH1 0xFF DUP2 PUSH1 0x0 KECCAK256 SLOAD AND PUSH2 0x1805 JUMP JUMPDEST POP CALLVALUE PUSH2 0x24E JUMPI PUSH1 0x0 CALLDATASIZE PUSH1 0x3 NOT ADD SLT PUSH2 0x24E JUMPI PUSH2 0x1C5 SLOAD SWAP1 MLOAD PUSH1 0x1 PUSH1 0x1 PUSH1 0xA0 SHL SUB SWAP1 SWAP2 AND DUP2 MSTORE PUSH1 0x20 SWAP1 RETURN JUMPDEST POP CALLVALUE PUSH2 0x24E JUMPI PUSH1 0x20 DUP1 PUSH1 0x3 NOT CALLDATASIZE ADD SLT PUSH2 0x24E JUMPI PUSH2 0x192E PUSH2 0x2260 JUMP JUMPDEST PUSH1 0x1 PUSH1 0x1 PUSH1 0xA0 SHL SUB SWAP3 SWAP1 SWAP2 SWAP1 PUSH32 0x0 DUP5 AND PUSH2 0x1969 ADDRESS DUP3 EQ ISZERO PUSH2 0x283D JUMP JUMPDEST PUSH2 0x1986 PUSH1 0x0 DUP1 MLOAD PUSH1 0x20 PUSH2 0x2BF7 DUP4 CODECOPY DUP2 MLOAD SWAP2 MSTORE SWAP2 DUP7 DUP4 SLOAD AND EQ PUSH2 0x289E JUMP JUMPDEST PUSH2 0x198E PUSH2 0x2B7A JUMP JUMPDEST PUSH1 0x0 DUP1 MLOAD PUSH1 0x20 PUSH2 0x2BD7 DUP4 CODECOPY DUP2 MLOAD SWAP2 MSTORE PUSH1 0x0 MSTORE PUSH1 0xFB DUP5 MSTORE DUP6 DUP4 PUSH1 0x0 KECCAK256 SWAP2 AND PUSH1 0x0 MSTORE DUP4 MSTORE PUSH1 0xFF DUP3 PUSH1 0x0 KECCAK256 SLOAD AND DUP1 ISZERO PUSH2 0x1B3A JUMPI JUMPDEST PUSH2 0x19C8 SWAP1 PUSH2 0x2A4F JUMP JUMPDEST DUP2 MLOAD SWAP1 DUP4 DUP3 ADD SWAP6 DUP3 DUP8 LT PUSH8 0xFFFFFFFFFFFFFFFF DUP9 GT OR PUSH2 0x1B24 JUMPI DUP7 DUP5 MSTORE PUSH1 0x0 DUP4 MSTORE PUSH32 0x4910FDFA16FED3260ED0E7147F7CC6DA11A60208B5B9406D12A635614FFD9143 SLOAD PUSH1 0xFF AND ISZERO PUSH2 0x1A22 JUMPI POP POP POP POP POP PUSH2 0x1B SWAP2 POP PUSH2 0x28FF JUMP JUMPDEST DUP6 SWAP3 SWAP4 SWAP5 SWAP6 AND SWAP1 DUP5 MLOAD PUSH4 0x52D1902D PUSH1 0xE0 SHL DUP2 MSTORE DUP7 DUP2 PUSH1 0x4 DUP2 DUP7 GAS STATICCALL PUSH1 0x0 SWAP2 DUP2 PUSH2 0x1AF5 JUMPI JUMPDEST POP PUSH2 0x1AA6 JUMPI DUP6 MLOAD PUSH3 0x461BCD PUSH1 0xE5 SHL DUP2 MSTORE PUSH1 0x4 DUP2 ADD DUP9 SWAP1 MSTORE PUSH1 0x2E PUSH1 0x24 DUP3 ADD MSTORE PUSH32 0x45524331393637557067726164653A206E657720696D706C656D656E74617469 PUSH1 0x44 DUP3 ADD MSTORE PUSH14 0x6F6E206973206E6F742055555053 PUSH1 0x90 SHL PUSH1 0x64 DUP3 ADD MSTORE PUSH1 0x84 SWAP1 REVERT JUMPDEST SWAP6 SWAP5 SWAP4 SWAP6 SUB PUSH2 0x11FF JUMPI PUSH2 0x1AB8 DUP3 PUSH2 0x28FF JUMP JUMPDEST PUSH32 0xBC7CD75A20EE27FD9ADEBAB32041F755214DBC6BFFA90CC0225B39DA2E5C2D3B PUSH1 0x0 DUP1 LOG2 DUP4 MLOAD ISZERO DUP1 ISZERO SWAP1 PUSH2 0x1AED JUMPI PUSH2 0x1171 JUMPI STOP JUMPDEST POP PUSH1 0x0 PUSH2 0x116B JUMP JUMPDEST SWAP1 SWAP2 POP DUP8 DUP2 DUP2 RETURNDATASIZE DUP4 GT PUSH2 0x1B1D JUMPI JUMPDEST PUSH2 0x1B0D DUP2 DUP4 PUSH2 0x2304 JUMP JUMPDEST DUP2 ADD SUB SLT PUSH2 0x24E JUMPI MLOAD SWAP1 CODESIZE PUSH2 0x1A46 JUMP JUMPDEST POP RETURNDATASIZE PUSH2 0x1B03 JUMP JUMPDEST PUSH4 0x4E487B71 PUSH1 0xE0 SHL PUSH1 0x0 MSTORE PUSH1 0x41 PUSH1 0x4 MSTORE PUSH1 0x24 PUSH1 0x0 REVERT JUMPDEST POP PUSH2 0x19C8 DUP6 PUSH1 0x33 SLOAD AND DUP7 PUSH2 0x1B4C PUSH2 0x2B7A JUMP JUMPDEST AND EQ SWAP1 POP PUSH2 0x19BF JUMP JUMPDEST POP CALLVALUE PUSH2 0x24E JUMPI DUP1 PUSH1 0x3 NOT CALLDATASIZE ADD SLT PUSH2 0x24E JUMPI PUSH2 0x1B6E PUSH2 0x2276 JUMP JUMPDEST SWAP1 PUSH1 0x1 PUSH1 0x1 PUSH1 0xA0 SHL SUB DUP1 PUSH2 0x1B80 PUSH2 0x2B7A JUMP JUMPDEST AND SWAP1 DUP4 AND SUB PUSH2 0x1B95 JUMPI PUSH2 0x1B DUP3 PUSH1 0x4 CALLDATALOAD PUSH2 0x2705 JUMP JUMPDEST MLOAD PUSH3 0x461BCD PUSH1 0xE5 SHL DUP2 MSTORE PUSH1 0x20 PUSH1 0x4 DUP3 ADD MSTORE PUSH1 0x2F PUSH1 0x24 DUP3 ADD MSTORE PUSH32 0x416363657373436F6E74726F6C3A2063616E206F6E6C792072656E6F756E6365 PUSH1 0x44 DUP3 ADD MSTORE PUSH15 0x103937B632B9903337B91039B2B633 PUSH1 0x89 SHL PUSH1 0x64 DUP3 ADD MSTORE PUSH1 0x84 SWAP1 REVERT JUMPDEST POP CALLVALUE PUSH2 0x24E JUMPI PUSH1 0x20 CALLDATASIZE PUSH1 0x3 NOT ADD SLT PUSH2 0x24E JUMPI PUSH2 0x1C0A PUSH2 0x2260 JUMP JUMPDEST SWAP1 PUSH1 0xFF PUSH2 0x1C15 PUSH2 0x2B7A JUMP JUMPDEST SWAP2 PUSH1 0x0 DUP1 MLOAD PUSH1 0x20 PUSH2 0x2C37 DUP4 CODECOPY DUP2 MLOAD SWAP2 MSTORE PUSH1 0x0 MSTORE PUSH1 0xFB PUSH1 0x20 MSTORE DUP1 PUSH1 0x0 KECCAK256 PUSH1 0x1 DUP1 PUSH1 0xA0 SHL SUB DUP1 SWAP5 AND PUSH1 0x0 MSTORE PUSH1 0x20 MSTORE PUSH1 0x0 KECCAK256 SLOAD AND DUP1 ISZERO PUSH2 0x1C6E JUMPI JUMPDEST PUSH2 0x1C56 SWAP1 PUSH2 0x2A4F JUMP JUMPDEST PUSH2 0x1C5 DUP1 SLOAD PUSH1 0x1 PUSH1 0x1 PUSH1 0xA0 SHL SUB NOT AND SWAP2 SWAP1 SWAP3 AND OR SWAP1 SSTORE STOP JUMPDEST POP PUSH2 0x1C56 DUP2 PUSH1 0x33 SLOAD AND DUP3 PUSH2 0x1C80 PUSH2 0x2B7A JUMP JUMPDEST AND EQ SWAP1 POP PUSH2 0x1C4D JUMP JUMPDEST POP CALLVALUE PUSH2 0x24E JUMPI DUP1 PUSH1 0x3 NOT CALLDATASIZE ADD SLT PUSH2 0x24E JUMPI PUSH1 0x4 CALLDATALOAD SWAP1 PUSH2 0x1CA6 PUSH2 0x2276 JUMP JUMPDEST DUP3 PUSH1 0x0 MSTORE PUSH1 0xFB PUSH1 0x20 MSTORE PUSH2 0x1CBF PUSH1 0x1 DUP4 PUSH1 0x0 KECCAK256 ADD SLOAD PUSH2 0x2342 JUMP JUMPDEST DUP3 PUSH1 0x0 MSTORE PUSH1 0xFB PUSH1 0x20 MSTORE DUP2 PUSH1 0x0 KECCAK256 SWAP2 PUSH1 0x1 DUP1 PUSH1 0xA0 SHL SUB DUP1 SWAP3 AND SWAP3 DUP4 PUSH1 0x0 MSTORE PUSH1 0x20 MSTORE PUSH1 0xFF DUP2 PUSH1 0x0 KECCAK256 SLOAD AND ISZERO PUSH2 0x467 JUMPI STOP JUMPDEST POP CALLVALUE PUSH2 0x24E JUMPI PUSH1 0x20 CALLDATASIZE PUSH1 0x3 NOT ADD SLT PUSH2 0x24E JUMPI PUSH1 0x20 SWAP1 PUSH1 0x4 CALLDATALOAD PUSH1 0x0 MSTORE PUSH1 0xFB DUP3 MSTORE PUSH1 0x1 DUP2 PUSH1 0x0 KECCAK256 ADD SLOAD SWAP1 MLOAD SWAP1 DUP2 MSTORE RETURN JUMPDEST POP CALLVALUE PUSH2 0x24E JUMPI DUP1 PUSH1 0x3 NOT CALLDATASIZE ADD SLT PUSH2 0x24E JUMPI PUSH1 0x24 CALLDATALOAD SWAP1 PUSH2 0xFFFF DUP3 AND DUP1 SWAP3 SUB PUSH2 0x24E JUMPI PUSH2 0x1D88 PUSH2 0x1D48 PUSH2 0x2B7A JUMP JUMPDEST PUSH1 0x0 DUP1 MLOAD PUSH1 0x20 PUSH2 0x2C37 DUP4 CODECOPY DUP2 MLOAD SWAP2 MSTORE PUSH1 0x0 MSTORE PUSH1 0xFB PUSH1 0x20 MSTORE DUP3 PUSH1 0x0 KECCAK256 PUSH1 0x1 DUP1 PUSH1 0xA0 SHL SUB DUP1 SWAP3 AND PUSH1 0x0 MSTORE PUSH1 0x20 MSTORE PUSH1 0xFF DUP4 PUSH1 0x0 KECCAK256 SLOAD AND SWAP1 DUP2 ISZERO PUSH2 0x599 JUMPI POP PUSH2 0x2A4F JUMP JUMPDEST PUSH1 0x4 CALLDATALOAD PUSH1 0x0 SWAP1 DUP2 MSTORE PUSH2 0x1F8 PUSH1 0x20 MSTORE KECCAK256 DUP1 SLOAD PUSH2 0xFFFF NOT AND SWAP1 SWAP2 OR SWAP1 SSTORE STOP JUMPDEST POP CALLVALUE PUSH2 0x24E JUMPI PUSH1 0x20 SWAP1 DUP2 PUSH1 0x3 NOT CALLDATASIZE ADD SLT PUSH2 0x24E JUMPI PUSH2 0x1DC1 PUSH2 0x2260 JUMP JUMPDEST SWAP1 PUSH2 0x1DCA PUSH2 0x2B7A JUMP JUMPDEST SWAP1 PUSH1 0x0 DUP1 MLOAD PUSH1 0x20 PUSH2 0x2C37 DUP4 CODECOPY DUP2 MLOAD SWAP2 MSTORE PUSH1 0x0 MSTORE PUSH1 0xFB DUP5 MSTORE DUP1 PUSH1 0x0 KECCAK256 PUSH1 0x1 DUP1 PUSH1 0xA0 SHL SUB DUP1 SWAP4 AND PUSH1 0x0 MSTORE DUP5 MSTORE PUSH1 0xFF DUP2 PUSH1 0x0 KECCAK256 SLOAD AND DUP1 ISZERO PUSH2 0x1E40 JUMPI JUMPDEST PUSH2 0x1E0C SWAP1 PUSH2 0x2A4F JUMP JUMPDEST PUSH1 0x0 DUP1 MLOAD PUSH1 0x20 PUSH2 0x2C57 DUP4 CODECOPY DUP2 MLOAD SWAP2 MSTORE SWAP4 DUP5 PUSH1 0x0 MSTORE PUSH1 0xFB DUP2 MSTORE DUP3 DUP3 PUSH1 0x0 KECCAK256 SWAP5 AND SWAP4 DUP5 PUSH1 0x0 MSTORE DUP2 MSTORE PUSH1 0xFF DUP3 PUSH1 0x0 KECCAK256 SLOAD AND PUSH2 0xE07 JUMPI STOP JUMPDEST POP PUSH2 0x1E0C DUP3 PUSH1 0x33 SLOAD AND DUP4 PUSH2 0x1E52 PUSH2 0x2B7A JUMP JUMPDEST AND EQ SWAP1 POP PUSH2 0x1E03 JUMP JUMPDEST POP CALLVALUE PUSH2 0x24E JUMPI PUSH1 0xA0 CALLDATASIZE PUSH1 0x3 NOT ADD SLT PUSH2 0x24E JUMPI PUSH2 0x1E75 PUSH2 0x2260 JUMP JUMPDEST SWAP1 PUSH2 0x1E7E PUSH2 0x2276 JUMP JUMPDEST PUSH1 0x44 CALLDATALOAD PUSH1 0x1 PUSH1 0x1 PUSH1 0xA0 SHL SUB DUP2 DUP2 AND SWAP5 SWAP2 DUP6 SWAP1 SUB PUSH2 0x24E JUMPI PUSH1 0x64 CALLDATALOAD SWAP5 DUP2 DUP7 AND SWAP4 DUP5 DUP8 SUB PUSH2 0x24E JUMPI PUSH1 0x84 CALLDATALOAD SWAP3 DUP1 DUP5 AND DUP1 SWAP5 SUB PUSH2 0x24E JUMPI PUSH1 0x0 SLOAD SWAP8 PUSH1 0xFF DUP10 PUSH1 0x8 SHR AND ISZERO SWAP7 DUP8 DUP1 SWAP9 PUSH2 0x2165 JUMPI JUMPDEST DUP1 ISZERO PUSH2 0x214E JUMPI JUMPDEST ISZERO PUSH2 0x20F3 JUMPI PUSH1 0x1 SWAP10 DUP9 DUP12 PUSH1 0xFF NOT DUP4 AND OR PUSH1 0x0 SSTORE PUSH2 0x20E1 JUMPI JUMPDEST POP PUSH2 0x1F29 PUSH1 0xFF PUSH1 0x0 SLOAD PUSH1 0x8 SHR AND PUSH2 0x1EFC DUP2 PUSH2 0x2B1A JUMP JUMPDEST PUSH2 0x1F05 DUP2 PUSH2 0x2B1A JUMP JUMPDEST PUSH2 0x1F0E DUP2 PUSH2 0x2B1A JUMP JUMPDEST PUSH1 0x97 DUP1 SLOAD PUSH1 0xFF PUSH1 0xA0 SHL NOT AND SWAP1 SSTORE PUSH2 0x1F24 DUP2 PUSH2 0x2B1A JUMP JUMPDEST PUSH2 0x2B1A JUMP JUMPDEST PUSH2 0x1F39 PUSH2 0x1F34 PUSH2 0x2B7A JUMP JUMPDEST PUSH2 0x27F4 JUMP JUMPDEST PUSH2 0x1F6E PUSH1 0xFF PUSH1 0x0 SLOAD PUSH1 0x8 SHR AND PUSH2 0x1F4E DUP2 PUSH2 0x2B1A JUMP JUMPDEST PUSH2 0x1F57 DUP2 PUSH2 0x2B1A JUMP JUMPDEST PUSH2 0x1F60 DUP2 PUSH2 0x2B1A JUMP JUMPDEST DUP12 PUSH2 0x12D SSTORE PUSH2 0x1F24 DUP2 PUSH2 0x2B1A JUMP JUMPDEST PUSH2 0x1F76 PUSH2 0x2791 JUMP JUMPDEST ISZERO PUSH2 0x208E JUMPI DUP1 PUSH2 0x29E PUSH2 0x1F88 SWAP3 PUSH2 0x27F4 JUMP JUMPDEST PUSH1 0x0 DUP1 MLOAD PUSH1 0x20 PUSH2 0x2C57 DUP4 CODECOPY DUP2 MLOAD SWAP2 MSTORE DUP1 PUSH1 0x0 MSTORE PUSH1 0xFB PUSH1 0x20 MSTORE DUP9 DUP9 PUSH1 0x0 KECCAK256 ADD SLOAD SWAP1 PUSH1 0x0 DUP1 MLOAD PUSH1 0x20 PUSH2 0x2C37 DUP4 CODECOPY DUP2 MLOAD SWAP2 MSTORE DUP1 SWAP3 DUP2 DUP13 DUP13 PUSH1 0x0 KECCAK256 ADD SSTORE PUSH32 0xBD79B86FFE0AB8E8776151514217CD7CACD52C909F66475C3AF44E129F0B00FF SWAP3 DUP4 PUSH1 0x0 DUP1 LOG4 PUSH1 0x0 DUP1 MLOAD PUSH1 0x20 PUSH2 0x2C17 DUP4 CODECOPY DUP2 MLOAD SWAP2 MSTORE PUSH1 0x0 DUP2 DUP2 MSTORE DUP11 DUP2 KECCAK256 DUP13 ADD DUP1 SLOAD SWAP1 DUP6 SWAP1 SSTORE SWAP3 SWAP1 DUP1 LOG4 PUSH12 0xFFFFFFFFFFFFFFFFFFFFFFFF PUSH1 0xA0 SHL SWAP5 DUP2 PUSH2 0x1C3 SWAP2 AND DUP7 DUP3 SLOAD AND OR SWAP1 SSTORE PUSH2 0x1C4 SWAP2 AND DUP5 DUP3 SLOAD AND OR SWAP1 SSTORE PUSH2 0x1C5 SWAP1 DUP4 DUP3 SLOAD AND OR SWAP1 SSTORE PUSH2 0x1F7 SWAP2 DUP3 SLOAD AND OR SWAP1 SSTORE PUSH2 0xC350 PUSH2 0x1F9 SSTORE PUSH2 0x2057 JUMPI STOP JUMPDEST PUSH32 0x7F26B83FF96E1F2B6A682F133852F6798A09C465DA95921460CEFB3847402498 SWAP2 PUSH1 0x20 SWAP2 PUSH2 0xFF00 NOT PUSH1 0x0 SLOAD AND PUSH1 0x0 SSTORE MLOAD SWAP1 DUP2 MSTORE LOG1 STOP JUMPDEST DUP8 MLOAD PUSH3 0x461BCD PUSH1 0xE5 SHL DUP2 MSTORE PUSH1 0x20 PUSH1 0x4 DUP3 ADD MSTORE PUSH1 0x26 PUSH1 0x24 DUP3 ADD MSTORE PUSH32 0x4F776E61626C653A206E6577206F776E657220697320746865207A65726F2061 PUSH1 0x44 DUP3 ADD MSTORE PUSH6 0x646472657373 PUSH1 0xD0 SHL PUSH1 0x64 DUP3 ADD MSTORE PUSH1 0x84 SWAP1 REVERT JUMPDEST PUSH2 0xFFFF NOT AND PUSH2 0x101 OR PUSH1 0x0 SSTORE CODESIZE PUSH2 0x1EE6 JUMP JUMPDEST DUP9 MLOAD PUSH3 0x461BCD PUSH1 0xE5 SHL DUP2 MSTORE PUSH1 0x20 PUSH1 0x4 DUP3 ADD MSTORE PUSH1 0x2E PUSH1 0x24 DUP3 ADD MSTORE PUSH32 0x496E697469616C697A61626C653A20636F6E747261637420697320616C726561 PUSH1 0x44 DUP3 ADD MSTORE PUSH14 0x191E481A5B9A5D1A585B1A5E9959 PUSH1 0x92 SHL PUSH1 0x64 DUP3 ADD MSTORE PUSH1 0x84 SWAP1 REVERT JUMPDEST POP ADDRESS EXTCODESIZE ISZERO DUP1 ISZERO PUSH2 0x1ECE JUMPI POP PUSH1 0x1 PUSH1 0xFF DUP12 AND EQ PUSH2 0x1ECE JUMP JUMPDEST POP PUSH1 0x1 PUSH1 0xFF DUP12 AND LT PUSH2 0x1EC7 JUMP JUMPDEST POP CALLVALUE PUSH2 0x24E JUMPI PUSH1 0x20 CALLDATASIZE PUSH1 0x3 NOT ADD SLT PUSH2 0x24E JUMPI PUSH1 0x4 CALLDATALOAD PUSH4 0xFFFFFFFF PUSH1 0xE0 SHL DUP2 AND DUP1 SWAP2 SUB PUSH2 0x24E JUMPI PUSH1 0x20 SWAP2 PUSH4 0x7965DB0B PUSH1 0xE0 SHL DUP3 EQ SWAP2 DUP3 ISZERO PUSH2 0x21B6 JUMPI JUMPDEST POP MLOAD SWAP1 ISZERO ISZERO DUP2 MSTORE RETURN JUMPDEST PUSH4 0x1FFC9A7 PUSH1 0xE0 SHL EQ SWAP2 POP CODESIZE PUSH2 0x21AD JUMP JUMPDEST POP CALLVALUE PUSH2 0x24E JUMPI PUSH1 0x20 CALLDATASIZE PUSH1 0x3 NOT ADD SLT PUSH2 0x24E JUMPI PUSH2 0x21E1 PUSH2 0x2260 JUMP JUMPDEST SWAP1 PUSH1 0xFF PUSH2 0x21EC PUSH2 0x2B7A JUMP JUMPDEST SWAP2 PUSH1 0x0 DUP1 MLOAD PUSH1 0x20 PUSH2 0x2C37 DUP4 CODECOPY DUP2 MLOAD SWAP2 MSTORE PUSH1 0x0 MSTORE PUSH1 0xFB PUSH1 0x20 MSTORE DUP1 PUSH1 0x0 KECCAK256 PUSH1 0x1 DUP1 PUSH1 0xA0 SHL SUB DUP1 SWAP5 AND PUSH1 0x0 MSTORE PUSH1 0x20 MSTORE PUSH1 0x0 KECCAK256 SLOAD AND DUP1 ISZERO PUSH2 0x2245 JUMPI JUMPDEST PUSH2 0x222D SWAP1 PUSH2 0x2A4F JUMP JUMPDEST PUSH2 0x1C4 DUP1 SLOAD PUSH1 0x1 PUSH1 0x1 PUSH1 0xA0 SHL SUB NOT AND SWAP2 SWAP1 SWAP3 AND OR SWAP1 SSTORE STOP JUMPDEST POP PUSH2 0x222D DUP2 PUSH1 0x33 SLOAD AND DUP3 PUSH2 0x2257 PUSH2 0x2B7A JUMP JUMPDEST AND EQ SWAP1 POP PUSH2 0x2224 JUMP JUMPDEST PUSH1 0x4 CALLDATALOAD SWAP1 PUSH1 0x1 PUSH1 0x1 PUSH1 0xA0 SHL SUB DUP3 AND DUP3 SUB PUSH2 0x24E JUMPI JUMP JUMPDEST PUSH1 0x24 CALLDATALOAD SWAP1 PUSH1 0x1 PUSH1 0x1 PUSH1 0xA0 SHL SUB DUP3 AND DUP3 SUB PUSH2 0x24E JUMPI JUMP JUMPDEST CALLDATALOAD SWAP1 PUSH1 0x1 PUSH1 0x1 PUSH1 0xA0 SHL SUB DUP3 AND DUP3 SUB PUSH2 0x24E JUMPI JUMP JUMPDEST PUSH1 0x0 JUMPDEST DUP4 DUP2 LT PUSH2 0x22B3 JUMPI POP POP PUSH1 0x0 SWAP2 ADD MSTORE JUMP JUMPDEST DUP2 DUP2 ADD MLOAD DUP4 DUP3 ADD MSTORE PUSH1 0x20 ADD PUSH2 0x22A3 JUMP JUMPDEST SWAP1 PUSH1 0x20 SWAP2 PUSH2 0x22DC DUP2 MLOAD DUP1 SWAP3 DUP2 DUP6 MSTORE DUP6 DUP1 DUP7 ADD SWAP2 ADD PUSH2 0x22A0 JUMP JUMPDEST PUSH1 0x1F ADD PUSH1 0x1F NOT AND ADD ADD SWAP1 JUMP JUMPDEST PUSH1 0x60 DUP2 ADD SWAP1 DUP2 LT PUSH8 0xFFFFFFFFFFFFFFFF DUP3 GT OR PUSH2 0x1B24 JUMPI PUSH1 0x40 MSTORE JUMP JUMPDEST SWAP1 PUSH1 0x1F DUP1 NOT SWAP2 ADD AND DUP2 ADD SWAP1 DUP2 LT PUSH8 0xFFFFFFFFFFFFFFFF DUP3 GT OR PUSH2 0x1B24 JUMPI PUSH1 0x40 MSTORE JUMP JUMPDEST PUSH8 0xFFFFFFFFFFFFFFFF DUP2 GT PUSH2 0x1B24 JUMPI PUSH1 0x1F ADD PUSH1 0x1F NOT AND PUSH1 0x20 ADD SWAP1 JUMP JUMPDEST PUSH2 0x234A PUSH2 0x2B7A JUMP JUMPDEST SWAP1 PUSH1 0x0 SWAP1 DUP1 DUP3 MSTORE PUSH1 0x20 SWAP2 PUSH1 0xFB DUP4 MSTORE PUSH1 0x40 SWAP4 DUP5 DUP3 KECCAK256 SWAP1 PUSH1 0x1 DUP1 PUSH1 0xA0 SHL SUB AND SWAP1 DUP2 DUP4 MSTORE DUP5 MSTORE PUSH1 0xFF DUP6 DUP4 KECCAK256 SLOAD AND ISZERO PUSH2 0x2380 JUMPI POP POP POP POP POP JUMP JUMPDEST DUP5 MLOAD SWAP3 PUSH2 0x238C DUP5 PUSH2 0x22E8 JUMP JUMPDEST PUSH1 0x2A DUP5 MSTORE DUP5 DUP5 ADD SWAP1 DUP7 CALLDATASIZE DUP4 CALLDATACOPY DUP5 MLOAD ISZERO PUSH2 0x2657 JUMPI PUSH1 0x30 DUP3 MSTORE8 DUP5 MLOAD SWAP3 PUSH1 0x1 SWAP4 DUP5 LT ISZERO PUSH2 0x2643 JUMPI PUSH1 0x78 PUSH1 0x21 DUP8 ADD MSTORE8 PUSH1 0x29 JUMPDEST DUP5 DUP2 GT PUSH2 0x25D9 JUMPI POP PUSH2 0x2597 JUMPI DUP7 MLOAD SWAP3 PUSH1 0x80 DUP5 ADD DUP5 DUP2 LT PUSH8 0xFFFFFFFFFFFFFFFF DUP3 GT OR PUSH2 0x2583 JUMPI DUP9 MSTORE PUSH1 0x42 DUP5 MSTORE DUP7 DUP5 ADD SWAP5 PUSH1 0x60 CALLDATASIZE DUP8 CALLDATACOPY DUP5 MLOAD ISZERO PUSH2 0x256F JUMPI PUSH1 0x30 DUP7 MSTORE8 DUP5 MLOAD DUP3 LT ISZERO PUSH2 0x256F JUMPI SWAP1 PUSH1 0x78 PUSH1 0x21 DUP7 ADD MSTORE8 PUSH1 0x41 SWAP2 JUMPDEST DUP2 DUP4 GT PUSH2 0x2501 JUMPI POP POP POP PUSH2 0x24BF JUMPI PUSH2 0x24BB SWAP4 DUP7 SWAP4 PUSH2 0x249F SWAP4 PUSH2 0x2490 PUSH1 0x48 SWAP5 PUSH2 0x2467 SWAP11 MLOAD SWAP11 DUP12 SWAP6 PUSH32 0x416363657373436F6E74726F6C3A206163636F756E7420000000000000000000 DUP13 DUP9 ADD MSTORE MLOAD DUP1 SWAP3 PUSH1 0x37 DUP9 ADD SWAP1 PUSH2 0x22A0 JUMP JUMPDEST DUP5 ADD SWAP2 PUSH17 0x1034B99036B4B9B9B4B733903937B6329 PUSH1 0x7D SHL PUSH1 0x37 DUP5 ADD MSTORE MLOAD DUP1 SWAP4 DUP7 DUP5 ADD SWAP1 PUSH2 0x22A0 JUMP JUMPDEST ADD SUB PUSH1 0x28 DUP2 ADD DUP8 MSTORE ADD DUP6 PUSH2 0x2304 JUMP JUMPDEST MLOAD SWAP3 DUP4 SWAP3 PUSH3 0x461BCD PUSH1 0xE5 SHL DUP5 MSTORE PUSH1 0x4 DUP5 ADD MSTORE PUSH1 0x24 DUP4 ADD SWAP1 PUSH2 0x22C3 JUMP JUMPDEST SUB SWAP1 REVERT JUMPDEST PUSH1 0x64 DUP6 DUP8 MLOAD SWAP1 PUSH3 0x461BCD PUSH1 0xE5 SHL DUP3 MSTORE DUP1 PUSH1 0x4 DUP4 ADD MSTORE PUSH1 0x24 DUP3 ADD MSTORE PUSH32 0x537472696E67733A20686578206C656E67746820696E73756666696369656E74 PUSH1 0x44 DUP3 ADD MSTORE REVERT JUMPDEST SWAP1 SWAP2 SWAP3 PUSH1 0xF DUP2 AND PUSH1 0x10 DUP2 LT ISZERO PUSH2 0x255B JUMPI PUSH16 0x181899199A1A9B1B9C1CB0B131B232B3 PUSH1 0x81 SHL SWAP1 BYTE PUSH2 0x2531 DUP6 DUP9 PUSH2 0x2A28 JUMP JUMPDEST MSTORE8 PUSH1 0x4 SHR SWAP3 DUP1 ISZERO PUSH2 0x2547 JUMPI PUSH1 0x0 NOT ADD SWAP2 SWAP1 PUSH2 0x240F JUMP JUMPDEST PUSH4 0x4E487B71 PUSH1 0xE0 SHL DUP3 MSTORE PUSH1 0x11 PUSH1 0x4 MSTORE PUSH1 0x24 DUP3 REVERT JUMPDEST PUSH4 0x4E487B71 PUSH1 0xE0 SHL DUP4 MSTORE PUSH1 0x32 PUSH1 0x4 MSTORE PUSH1 0x24 DUP4 REVERT JUMPDEST PUSH4 0x4E487B71 PUSH1 0xE0 SHL DUP2 MSTORE PUSH1 0x32 PUSH1 0x4 MSTORE PUSH1 0x24 SWAP1 REVERT JUMPDEST PUSH4 0x4E487B71 PUSH1 0xE0 SHL DUP7 MSTORE PUSH1 0x41 PUSH1 0x4 MSTORE PUSH1 0x24 DUP7 REVERT JUMPDEST PUSH1 0x64 DUP7 DUP9 MLOAD SWAP1 PUSH3 0x461BCD PUSH1 0xE5 SHL DUP3 MSTORE DUP1 PUSH1 0x4 DUP4 ADD MSTORE PUSH1 0x24 DUP3 ADD MSTORE PUSH32 0x537472696E67733A20686578206C656E67746820696E73756666696369656E74 PUSH1 0x44 DUP3 ADD MSTORE REVERT JUMPDEST SWAP1 PUSH1 0xF DUP2 AND PUSH1 0x10 DUP2 LT ISZERO PUSH2 0x262F JUMPI PUSH16 0x181899199A1A9B1B9C1CB0B131B232B3 PUSH1 0x81 SHL SWAP1 BYTE PUSH2 0x2607 DUP4 DUP10 PUSH2 0x2A28 JUMP JUMPDEST MSTORE8 PUSH1 0x4 SHR SWAP1 DUP1 ISZERO PUSH2 0x261B JUMPI PUSH1 0x0 NOT ADD PUSH2 0x23BA JUMP JUMPDEST PUSH4 0x4E487B71 PUSH1 0xE0 SHL DUP7 MSTORE PUSH1 0x11 PUSH1 0x4 MSTORE PUSH1 0x24 DUP7 REVERT JUMPDEST PUSH4 0x4E487B71 PUSH1 0xE0 SHL DUP8 MSTORE PUSH1 0x32 PUSH1 0x4 MSTORE PUSH1 0x24 DUP8 REVERT JUMPDEST PUSH4 0x4E487B71 PUSH1 0xE0 SHL DUP6 MSTORE PUSH1 0x32 PUSH1 0x4 MSTORE PUSH1 0x24 DUP6 REVERT JUMPDEST PUSH4 0x4E487B71 PUSH1 0xE0 SHL DUP5 MSTORE PUSH1 0x32 PUSH1 0x4 MSTORE PUSH1 0x24 DUP5 REVERT JUMPDEST PUSH1 0x1 PUSH1 0x1 PUSH1 0xA0 SHL SUB SWAP1 DUP2 AND PUSH1 0x0 DUP2 DUP2 MSTORE PUSH32 0xC88390E7E62175BE0932452175B6A7222B6B094AB0EF984A5153C620345D8975 PUSH1 0x20 MSTORE PUSH1 0x40 DUP2 KECCAK256 SLOAD SWAP1 SWAP3 SWAP1 PUSH1 0xFF AND ISZERO PUSH2 0x26B4 JUMPI POP POP POP JUMP JUMPDEST DUP3 DUP1 MSTORE PUSH1 0xFB PUSH1 0x20 MSTORE PUSH1 0x40 DUP4 KECCAK256 DUP3 DUP5 MSTORE PUSH1 0x20 MSTORE PUSH1 0x40 DUP4 KECCAK256 PUSH1 0x1 PUSH1 0xFF NOT DUP3 SLOAD AND OR SWAP1 SSTORE PUSH2 0x26DD PUSH2 0x2B7A JUMP JUMPDEST AND SWAP2 PUSH32 0x2F8788117E7EFF1D82E926EC794901D17C78024A50270940304540A733656F0D DUP2 DUP1 LOG4 JUMP JUMPDEST PUSH1 0x0 DUP2 DUP2 MSTORE PUSH1 0xFB PUSH1 0x20 SWAP1 DUP2 MSTORE PUSH1 0x40 DUP1 DUP4 KECCAK256 PUSH1 0x1 PUSH1 0x1 PUSH1 0xA0 SHL SUB SWAP6 DUP7 AND DUP1 DUP6 MSTORE SWAP3 MSTORE DUP3 KECCAK256 SLOAD SWAP2 SWAP4 SWAP1 SWAP3 SWAP2 PUSH1 0xFF AND PUSH2 0x273C JUMPI JUMPDEST POP POP POP POP JUMP JUMPDEST PUSH32 0xF6391F5C32D9C69D2A47EA670B442974B53935D1EDC7FD64EB21E047A839171B SWAP1 DUP3 DUP6 MSTORE PUSH1 0xFB PUSH1 0x20 MSTORE PUSH1 0x40 DUP6 KECCAK256 DUP5 DUP7 MSTORE PUSH1 0x20 MSTORE PUSH1 0x40 DUP6 KECCAK256 PUSH1 0xFF NOT DUP2 SLOAD AND SWAP1 SSTORE PUSH2 0x2784 PUSH2 0x2B7A JUMP JUMPDEST AND SWAP4 DUP1 LOG4 CODESIZE DUP1 DUP1 DUP1 PUSH2 0x2736 JUMP JUMPDEST PUSH1 0x33 SLOAD PUSH1 0x1 PUSH1 0x1 PUSH1 0xA0 SHL SUB SWAP1 DUP2 AND SWAP1 PUSH2 0x27A8 PUSH2 0x2B7A JUMP JUMPDEST AND SUB PUSH2 0x27B0 JUMPI JUMP JUMPDEST PUSH1 0x64 PUSH1 0x40 MLOAD PUSH3 0x461BCD PUSH1 0xE5 SHL DUP2 MSTORE PUSH1 0x20 PUSH1 0x4 DUP3 ADD MSTORE PUSH1 0x20 PUSH1 0x24 DUP3 ADD MSTORE PUSH32 0x4F776E61626C653A2063616C6C6572206973206E6F7420746865206F776E6572 PUSH1 0x44 DUP3 ADD MSTORE REVERT JUMPDEST PUSH1 0x33 DUP1 SLOAD PUSH1 0x1 PUSH1 0x1 PUSH1 0xA0 SHL SUB SWAP3 DUP4 AND PUSH1 0x1 PUSH1 0x1 PUSH1 0xA0 SHL SUB NOT DUP3 AND DUP2 OR SWAP1 SWAP3 SSTORE SWAP1 SWAP2 AND PUSH32 0x8BE0079C531659141344CD1FD0A4F28419497F9722A3DAAFE3B4186F6B6457E0 PUSH1 0x0 DUP1 LOG3 JUMP JUMPDEST ISZERO PUSH2 0x2844 JUMPI JUMP JUMPDEST PUSH1 0x40 MLOAD PUSH3 0x461BCD PUSH1 0xE5 SHL DUP2 MSTORE PUSH1 0x20 PUSH1 0x4 DUP3 ADD MSTORE PUSH1 0x2C PUSH1 0x24 DUP3 ADD MSTORE PUSH32 0x46756E6374696F6E206D7573742062652063616C6C6564207468726F75676820 PUSH1 0x44 DUP3 ADD MSTORE PUSH12 0x19195B1959D85D1958D85B1B PUSH1 0xA2 SHL PUSH1 0x64 DUP3 ADD MSTORE PUSH1 0x84 SWAP1 REVERT JUMPDEST ISZERO PUSH2 0x28A5 JUMPI JUMP JUMPDEST PUSH1 0x40 MLOAD PUSH3 0x461BCD PUSH1 0xE5 SHL DUP2 MSTORE PUSH1 0x20 PUSH1 0x4 DUP3 ADD MSTORE PUSH1 0x2C PUSH1 0x24 DUP3 ADD MSTORE PUSH32 0x46756E6374696F6E206D7573742062652063616C6C6564207468726F75676820 PUSH1 0x44 DUP3 ADD MSTORE PUSH12 0x6163746976652070726F7879 PUSH1 0xA0 SHL PUSH1 0x64 DUP3 ADD MSTORE PUSH1 0x84 SWAP1 REVERT JUMPDEST DUP1 EXTCODESIZE ISZERO PUSH2 0x2934 JUMPI PUSH1 0x0 DUP1 MLOAD PUSH1 0x20 PUSH2 0x2BF7 DUP4 CODECOPY DUP2 MLOAD SWAP2 MSTORE DUP1 SLOAD PUSH1 0x1 PUSH1 0x1 PUSH1 0xA0 SHL SUB NOT AND PUSH1 0x1 PUSH1 0x1 PUSH1 0xA0 SHL SUB SWAP1 SWAP3 AND SWAP2 SWAP1 SWAP2 OR SWAP1 SSTORE JUMP JUMPDEST PUSH1 0x40 MLOAD PUSH3 0x461BCD PUSH1 0xE5 SHL DUP2 MSTORE PUSH1 0x20 PUSH1 0x4 DUP3 ADD MSTORE PUSH1 0x2D PUSH1 0x24 DUP3 ADD MSTORE PUSH32 0x455243313936373A206E657720696D706C656D656E746174696F6E206973206E PUSH1 0x44 DUP3 ADD MSTORE PUSH13 0x1BDD08184818DBDB9D1C9858DD PUSH1 0x9A SHL PUSH1 0x64 DUP3 ADD MSTORE PUSH1 0x84 SWAP1 REVERT JUMPDEST SWAP2 SWAP3 SWAP1 ISZERO PUSH2 0x29F1 JUMPI POP DUP2 MLOAD ISZERO PUSH2 0x29A3 JUMPI POP SWAP1 JUMP JUMPDEST EXTCODESIZE ISZERO PUSH2 0x29AC JUMPI SWAP1 JUMP JUMPDEST PUSH1 0x40 MLOAD PUSH3 0x461BCD PUSH1 0xE5 SHL DUP2 MSTORE PUSH1 0x20 PUSH1 0x4 DUP3 ADD MSTORE PUSH1 0x1D PUSH1 0x24 DUP3 ADD MSTORE PUSH32 0x416464726573733A2063616C6C20746F206E6F6E2D636F6E7472616374000000 PUSH1 0x44 DUP3 ADD MSTORE PUSH1 0x64 SWAP1 REVERT JUMPDEST DUP3 MLOAD SWAP1 SWAP2 POP ISZERO PUSH2 0x2A04 JUMPI POP DUP1 MLOAD SWAP1 PUSH1 0x20 ADD REVERT JUMPDEST PUSH1 0x40 MLOAD PUSH3 0x461BCD PUSH1 0xE5 SHL DUP2 MSTORE PUSH1 0x20 PUSH1 0x4 DUP3 ADD MSTORE SWAP1 DUP2 SWAP1 PUSH2 0x24BB SWAP1 PUSH1 0x24 DUP4 ADD SWAP1 PUSH2 0x22C3 JUMP JUMPDEST SWAP1 DUP2 MLOAD DUP2 LT ISZERO PUSH2 0x2A39 JUMPI ADD PUSH1 0x20 ADD SWAP1 JUMP JUMPDEST PUSH4 0x4E487B71 PUSH1 0xE0 SHL PUSH1 0x0 MSTORE PUSH1 0x32 PUSH1 0x4 MSTORE PUSH1 0x24 PUSH1 0x0 REVERT JUMPDEST ISZERO PUSH2 0x2A56 JUMPI JUMP JUMPDEST PUSH1 0x40 MLOAD PUSH3 0x461BCD PUSH1 0xE5 SHL DUP2 MSTORE PUSH1 0x20 PUSH1 0x4 DUP3 ADD MSTORE PUSH1 0x13 PUSH1 0x24 DUP3 ADD MSTORE PUSH19 0x556E617574686F72697A656420416363657373 PUSH1 0x68 SHL PUSH1 0x44 DUP3 ADD MSTORE PUSH1 0x64 SWAP1 REVERT JUMPDEST PUSH2 0x1F7 SLOAD PUSH2 0x1F9 SLOAD PUSH1 0x40 DUP1 MLOAD PUSH4 0xC23EE3C3 PUSH1 0xE0 SHL DUP2 MSTORE PUSH2 0xFFFF SWAP1 SWAP5 AND PUSH1 0x4 DUP6 ADD MSTORE PUSH1 0x0 PUSH1 0x24 DUP6 ADD MSTORE PUSH1 0x44 DUP5 ADD SWAP2 SWAP1 SWAP2 MSTORE SWAP1 DUP2 SWAP1 DUP4 SWAP1 PUSH1 0x64 SWAP1 DUP3 SWAP1 PUSH1 0x1 PUSH1 0x1 PUSH1 0xA0 SHL SUB AND GAS STATICCALL SWAP1 DUP2 ISZERO PUSH2 0x502 JUMPI PUSH1 0x0 SWAP2 PUSH2 0x2AEB JUMPI JUMPDEST POP SWAP1 POP SWAP1 JUMP JUMPDEST DUP3 DUP2 RETURNDATASIZE DUP4 GT PUSH2 0x2B13 JUMPI JUMPDEST PUSH2 0x2AFF DUP2 DUP4 PUSH2 0x2304 JUMP JUMPDEST DUP2 ADD SUB SLT PUSH2 0x2B10 JUMPI POP MLOAD DUP1 CODESIZE PUSH2 0x2AE5 JUMP JUMPDEST DUP1 REVERT JUMPDEST POP RETURNDATASIZE PUSH2 0x2AF5 JUMP JUMPDEST ISZERO PUSH2 0x2B21 JUMPI JUMP JUMPDEST PUSH1 0x40 MLOAD PUSH3 0x461BCD PUSH1 0xE5 SHL DUP2 MSTORE PUSH1 0x20 PUSH1 0x4 DUP3 ADD MSTORE PUSH1 0x2B PUSH1 0x24 DUP3 ADD MSTORE PUSH32 0x496E697469616C697A61626C653A20636F6E7472616374206973206E6F742069 PUSH1 0x44 DUP3 ADD MSTORE PUSH11 0x6E697469616C697A696E67 PUSH1 0xA8 SHL PUSH1 0x64 DUP3 ADD MSTORE PUSH1 0x84 SWAP1 REVERT JUMPDEST PUSH1 0x97 SLOAD PUSH1 0x1 PUSH1 0x1 PUSH1 0xA0 SHL SUB AND CALLER EQ DUP1 DUP1 PUSH2 0x2BCB JUMPI JUMPDEST ISZERO PUSH2 0x2BA1 JUMPI POP CALLDATASIZE PUSH1 0x13 NOT ADD CALLDATALOAD PUSH1 0x60 SHR SWAP1 JUMP JUMPDEST PUSH1 0x14 CALLDATASIZE LT ISZERO SWAP1 DUP2 PUSH2 0x2BC3 JUMPI JUMPDEST POP ISZERO PUSH2 0x2BBF JUMPI CALLDATASIZE PUSH1 0x13 NOT ADD CALLDATALOAD PUSH1 0x60 SHR SWAP1 JUMP JUMPDEST CALLER SWAP1 JUMP JUMPDEST SWAP1 POP CODESIZE PUSH2 0x2BAD JUMP JUMPDEST POP PUSH1 0x14 CALLDATASIZE LT ISZERO PUSH2 0x2B8F JUMP INVALID XOR SWAP11 0xB7 0xA9 0x24 0x4D CREATE DUP5 DUP2 0x22 ISZERO NUMBER ISZERO 0xAF PUSH18 0xFE140F3DB0FE014031783B0946B8C9D2E336 ADDMOD SWAP5 LOG1 EXTCODESIZE LOG1 LOG3 0x21 MOD PUSH8 0xC828492DB98DCA3E KECCAK256 PUSH23 0xCC3735A920A3CA505D382BBC65D7A28E3265B37A647492 SWAP16 CALLER PUSH6 0x21B332C1681B SWAP4 EXTCODEHASH PUSH13 0xB9F3376673440D862A7613A25E 0xCC PUSH20 0x8585A232AD50A301178F12B3BA8887D13E138B52 EXTCODECOPY TIMESTAMP PUSH10 0xC47689A49807205CE4D3 SSTORE MULMOD 0x2E CREATE2 0xA8 LOG1 DUP16 JUMP 0xE8 SWAP2 EXTCODECOPY DELEGATECALL LOG2 ADD 0xFB 0xE2 DUP8 DUP3 JUMPDEST MULMOD JUMP SWAP4 0xC2 OR PUSH22 0xA2646970667358221220660446D96052C13E853C60EA DUP11 BLOCKHASH 0xBD 0xB7 CALLVALUE CALLCODE 0xF PUSH12 0x8CD8E1E258B3E1696863F7FF PUSH5 0x736F6C6343 STOP ADDMOD GT STOP CALLER "},"gasEstimates":{"creation":{"codeDepositCost":"2287200","executionCost":"infinite","totalCost":"infinite"},"external":{"ADMIN_ROLE()":"735","DEFAULT_ADMIN_ROLE()":"834","PAUSER_ROLE()":"1153","SUPER_ADMIN_ROLE()":"471","UPGRADER_ROLE()":"1191","addAdmin(address)":"infinite","addPauser(address)":"infinite","addSuperAdmin(address)":"infinite","addUpgrader(address)":"infinite","crossSyncGatewayAddress()":"3027","executeSendMessage((address,uint256,uint256,uint256,uint256,address,address,(address,bytes)))":"infinite","getRoleAdmin(bytes32)":"2440","getTrustedForwarder()":"3071","grantRole(bytes32,address)":"infinite","hasRole(bytes32,address)":"3150","initialize(address,address,address,address,address)":"infinite","isTrustedForwarder(address)":"2779","nativeCurrencyAddress()":"2499","nativeCurrencyWrappedAddress()":"3049","owner()":"2917","pause()":"infinite","paused()":"2716","proxiableUUID()":"infinite","quoteCrossChainFee(uint16)":"infinite","removeAdmin(address)":"infinite","removePauser(address)":"infinite","removeSuperAdmin(address)":"infinite","removeUpgrader(address)":"infinite","renounceOwnership()":"30899","renounceRole(bytes32,address)":"infinite","rescueEther(address,uint256)":"infinite","rescueFunds(address,address,uint256)":"infinite","revokeRole(bytes32,address)":"infinite","setCrossSyncGatewayAddress(address)":"infinite","setNativeCurrencyAddress(address)":"infinite","setNativeCurrencyWrappedAddress(address)":"infinite","setTrustedForwarder(address)":"infinite","setWormholeChainId(uint256,uint16)":"infinite","setWormholeGasLimit(uint256)":"infinite","setWormholeRelayer(address)":"infinite","supportsInterface(bytes4)":"294","transferOwnership(address)":"infinite","unpause()":"infinite","upgradeTo(address)":"infinite","upgradeToAndCall(address,bytes)":"infinite","wormholeChainId(uint256)":"2594","wormholeRelayer()":"3137"}},"methodIdentifiers":{"ADMIN_ROLE()":"75b238fc","DEFAULT_ADMIN_ROLE()":"a217fddf","PAUSER_ROLE()":"e63ab1e9","SUPER_ADMIN_ROLE()":"4460bdd6","UPGRADER_ROLE()":"f72c0d8b","addAdmin(address)":"70480275","addPauser(address)":"82dc1ec4","addSuperAdmin(address)":"b3292ff0","addUpgrader(address)":"e5110158","crossSyncGatewayAddress()":"b89b22d7","executeSendMessage((address,uint256,uint256,uint256,uint256,address,address,(address,bytes)))":"46961bff","getRoleAdmin(bytes32)":"248a9ca3","getTrustedForwarder()":"ce1b815f","grantRole(bytes32,address)":"2f2ff15d","hasRole(bytes32,address)":"91d14854","initialize(address,address,address,address,address)":"1459457a","isTrustedForwarder(address)":"572b6c05","nativeCurrencyAddress()":"38073f0c","nativeCurrencyWrappedAddress()":"bd826ed7","owner()":"8da5cb5b","pause()":"8456cb59","paused()":"5c975abb","proxiableUUID()":"52d1902d","quoteCrossChainFee(uint16)":"7b0b29a6","removeAdmin(address)":"1785f53c","removePauser(address)":"6b2c0f55","removeSuperAdmin(address)":"4902e4aa","removeUpgrader(address)":"d264a803","renounceOwnership()":"715018a6","renounceRole(bytes32,address)":"36568abe","rescueEther(address,uint256)":"e42e0ea9","rescueFunds(address,address,uint256)":"6ccae054","revokeRole(bytes32,address)":"d547741f","setCrossSyncGatewayAddress(address)":"4b03285a","setNativeCurrencyAddress(address)":"32495ce1","setNativeCurrencyWrappedAddress(address)":"009fe752","setTrustedForwarder(address)":"da742228","setWormholeChainId(uint256,uint16)":"22907204","setWormholeGasLimit(uint256)":"b55a83bb","setWormholeRelayer(address)":"e159378d","supportsInterface(bytes4)":"01ffc9a7","transferOwnership(address)":"f2fde38b","unpause()":"3f4ba83a","upgradeTo(address)":"3659cfe6","upgradeToAndCall(address,bytes)":"4f1ef286","wormholeChainId(uint256)":"41abd987","wormholeRelayer()":"da25b725"}},"storageLayout":{"storage":[{"astId":1082,"contract":"contracts/MessagingImpls/WormholeImpl.sol:WormholeImpl","label":"_initialized","offset":0,"slot":"0","type":"t_uint8"},{"astId":1085,"contract":"contracts/MessagingImpls/WormholeImpl.sol:WormholeImpl","label":"_initializing","offset":1,"slot":"0","type":"t_bool"},{"astId":2079,"contract":"contracts/MessagingImpls/WormholeImpl.sol:WormholeImpl","label":"__gap","offset":0,"slot":"1","type":"t_array(t_uint256)50_storage"},{"astId":589,"contract":"contracts/MessagingImpls/WormholeImpl.sol:WormholeImpl","label":"_owner","offset":0,"slot":"51","type":"t_address"},{"astId":709,"contract":"contracts/MessagingImpls/WormholeImpl.sol:WormholeImpl","label":"__gap","offset":0,"slot":"52","type":"t_array(t_uint256)49_storage"},{"astId":5040,"contract":"contracts/MessagingImpls/WormholeImpl.sol:WormholeImpl","label":"__gap","offset":0,"slot":"101","type":"t_array(t_uint256)50_storage"},{"astId":4917,"contract":"contracts/MessagingImpls/WormholeImpl.sol:WormholeImpl","label":"_trustedForwarder","offset":0,"slot":"151","type":"t_address"},{"astId":1401,"contract":"contracts/MessagingImpls/WormholeImpl.sol:WormholeImpl","label":"_paused","offset":20,"slot":"151","type":"t_bool"},{"astId":1506,"contract":"contracts/MessagingImpls/WormholeImpl.sol:WormholeImpl","label":"__gap","offset":0,"slot":"152","type":"t_array(t_uint256)49_storage"},{"astId":2462,"contract":"contracts/MessagingImpls/WormholeImpl.sol:WormholeImpl","label":"__gap","offset":0,"slot":"201","type":"t_array(t_uint256)50_storage"},{"astId":184,"contract":"contracts/MessagingImpls/WormholeImpl.sol:WormholeImpl","label":"_roles","offset":0,"slot":"251","type":"t_mapping(t_bytes32,t_struct(RoleData)179_storage)"},{"astId":479,"contract":"contracts/MessagingImpls/WormholeImpl.sol:WormholeImpl","label":"__gap","offset":0,"slot":"252","type":"t_array(t_uint256)49_storage"},{"astId":1521,"contract":"contracts/MessagingImpls/WormholeImpl.sol:WormholeImpl","label":"_status","offset":0,"slot":"301","type":"t_uint256"},{"astId":1590,"contract":"contracts/MessagingImpls/WormholeImpl.sol:WormholeImpl","label":"__gap","offset":0,"slot":"302","type":"t_array(t_uint256)49_storage"},{"astId":1064,"contract":"contracts/MessagingImpls/WormholeImpl.sol:WormholeImpl","label":"__gap","offset":0,"slot":"351","type":"t_array(t_uint256)50_storage"},{"astId":1379,"contract":"contracts/MessagingImpls/WormholeImpl.sol:WormholeImpl","label":"__gap","offset":0,"slot":"401","type":"t_array(t_uint256)50_storage"},{"astId":4324,"contract":"contracts/MessagingImpls/WormholeImpl.sol:WormholeImpl","label":"crossSyncGatewayAddress","offset":0,"slot":"451","type":"t_address"},{"astId":4326,"contract":"contracts/MessagingImpls/WormholeImpl.sol:WormholeImpl","label":"nativeCurrencyWrappedAddress","offset":0,"slot":"452","type":"t_address"},{"astId":4328,"contract":"contracts/MessagingImpls/WormholeImpl.sol:WormholeImpl","label":"nativeCurrencyAddress","offset":0,"slot":"453","type":"t_address"},{"astId":4908,"contract":"contracts/MessagingImpls/WormholeImpl.sol:WormholeImpl","label":"__gap","offset":0,"slot":"454","type":"t_array(t_uint256)49_storage"},{"astId":4097,"contract":"contracts/MessagingImpls/WormholeImpl.sol:WormholeImpl","label":"wormholeRelayer","offset":0,"slot":"503","type":"t_contract(IWormholeRelayer)4092"},{"astId":4101,"contract":"contracts/MessagingImpls/WormholeImpl.sol:WormholeImpl","label":"wormholeChainId","offset":0,"slot":"504","type":"t_mapping(t_uint256,t_uint16)"},{"astId":4103,"contract":"contracts/MessagingImpls/WormholeImpl.sol:WormholeImpl","label":"GAS_LIMIT","offset":0,"slot":"505","type":"t_uint256"}],"types":{"t_address":{"encoding":"inplace","label":"address","numberOfBytes":"20"},"t_array(t_uint256)49_storage":{"base":"t_uint256","encoding":"inplace","label":"uint256[49]","numberOfBytes":"1568"},"t_array(t_uint256)50_storage":{"base":"t_uint256","encoding":"inplace","label":"uint256[50]","numberOfBytes":"1600"},"t_bool":{"encoding":"inplace","label":"bool","numberOfBytes":"1"},"t_bytes32":{"encoding":"inplace","label":"bytes32","numberOfBytes":"32"},"t_contract(IWormholeRelayer)4092":{"encoding":"inplace","label":"contract IWormholeRelayer","numberOfBytes":"20"},"t_mapping(t_address,t_bool)":{"encoding":"mapping","key":"t_address","label":"mapping(address => bool)","numberOfBytes":"32","value":"t_bool"},"t_mapping(t_bytes32,t_struct(RoleData)179_storage)":{"encoding":"mapping","key":"t_bytes32","label":"mapping(bytes32 => struct AccessControlUpgradeable.RoleData)","numberOfBytes":"32","value":"t_struct(RoleData)179_storage"},"t_mapping(t_uint256,t_uint16)":{"encoding":"mapping","key":"t_uint256","label":"mapping(uint256 => uint16)","numberOfBytes":"32","value":"t_uint16"},"t_struct(RoleData)179_storage":{"encoding":"inplace","label":"struct AccessControlUpgradeable.RoleData","members":[{"astId":176,"contract":"contracts/MessagingImpls/WormholeImpl.sol:WormholeImpl","label":"members","offset":0,"slot":"0","type":"t_mapping(t_address,t_bool)"},{"astId":178,"contract":"contracts/MessagingImpls/WormholeImpl.sol:WormholeImpl","label":"adminRole","offset":0,"slot":"1","type":"t_bytes32"}],"numberOfBytes":"64"},"t_uint16":{"encoding":"inplace","label":"uint16","numberOfBytes":"2"},"t_uint256":{"encoding":"inplace","label":"uint256","numberOfBytes":"32"},"t_uint8":{"encoding":"inplace","label":"uint8","numberOfBytes":"1"}}},"userdoc":{"kind":"user","methods":{"getTrustedForwarder()":{"notice":":warning: **Warning** :warning: The Forwarder can have a full control over your Recipient. Only trust verified Forwarder.Method is not a required method to allow Recipients to trust multiple Forwarders. Not recommended yet."},"isTrustedForwarder(address)":{"notice":":warning: **Warning** :warning: The Forwarder can have a full control over your Recipient. Only trust verified Forwarder."}},"version":1}}}}