{"contracts/MessagingImpls/TeleporterImpl.sol":{"TeleporterImpl":{"abi":[{"inputs":[],"stateMutability":"nonpayable","type":"constructor"},{"anonymous":false,"inputs":[{"indexed":false,"internalType":"address","name":"previousAdmin","type":"address"},{"indexed":false,"internalType":"address","name":"newAdmin","type":"address"}],"name":"AdminChanged","type":"event"},{"anonymous":false,"inputs":[{"indexed":true,"internalType":"address","name":"beacon","type":"address"}],"name":"BeaconUpgraded","type":"event"},{"anonymous":false,"inputs":[{"indexed":false,"internalType":"uint8","name":"version","type":"uint8"}],"name":"Initialized","type":"event"},{"anonymous":false,"inputs":[{"indexed":true,"internalType":"address","name":"previousOwner","type":"address"},{"indexed":true,"internalType":"address","name":"newOwner","type":"address"}],"name":"OwnershipTransferred","type":"event"},{"anonymous":false,"inputs":[{"indexed":false,"internalType":"address","name":"account","type":"address"}],"name":"Paused","type":"event"},{"anonymous":false,"inputs":[{"indexed":true,"internalType":"bytes32","name":"role","type":"bytes32"},{"indexed":true,"internalType":"bytes32","name":"previousAdminRole","type":"bytes32"},{"indexed":true,"internalType":"bytes32","name":"newAdminRole","type":"bytes32"}],"name":"RoleAdminChanged","type":"event"},{"anonymous":false,"inputs":[{"indexed":true,"internalType":"bytes32","name":"role","type":"bytes32"},{"indexed":true,"internalType":"address","name":"account","type":"address"},{"indexed":true,"internalType":"address","name":"sender","type":"address"}],"name":"RoleGranted","type":"event"},{"anonymous":false,"inputs":[{"indexed":true,"internalType":"bytes32","name":"role","type":"bytes32"},{"indexed":true,"internalType":"address","name":"account","type":"address"},{"indexed":true,"internalType":"address","name":"sender","type":"address"}],"name":"RoleRevoked","type":"event"},{"anonymous":false,"inputs":[{"indexed":false,"internalType":"address","name":"account","type":"address"}],"name":"Unpaused","type":"event"},{"anonymous":false,"inputs":[{"indexed":true,"internalType":"address","name":"implementation","type":"address"}],"name":"Upgraded","type":"event"},{"inputs":[],"name":"ADMIN_ROLE","outputs":[{"internalType":"bytes32","name":"","type":"bytes32"}],"stateMutability":"view","type":"function"},{"inputs":[],"name":"DEFAULT_ADMIN_ROLE","outputs":[{"internalType":"bytes32","name":"","type":"bytes32"}],"stateMutability":"view","type":"function"},{"inputs":[],"name":"PAUSER_ROLE","outputs":[{"internalType":"bytes32","name":"","type":"bytes32"}],"stateMutability":"view","type":"function"},{"inputs":[],"name":"SUPER_ADMIN_ROLE","outputs":[{"internalType":"bytes32","name":"","type":"bytes32"}],"stateMutability":"view","type":"function"},{"inputs":[],"name":"UPGRADER_ROLE","outputs":[{"internalType":"bytes32","name":"","type":"bytes32"}],"stateMutability":"view","type":"function"},{"inputs":[{"internalType":"address","name":"_admin","type":"address"}],"name":"addAdmin","outputs":[],"stateMutability":"nonpayable","type":"function"},{"inputs":[{"internalType":"address","name":"account","type":"address"}],"name":"addPauser","outputs":[],"stateMutability":"nonpayable","type":"function"},{"inputs":[{"internalType":"address","name":"_superAdmin","type":"address"}],"name":"addSuperAdmin","outputs":[],"stateMutability":"nonpayable","type":"function"},{"inputs":[{"internalType":"address","name":"_upgrader","type":"address"}],"name":"addUpgrader","outputs":[],"stateMutability":"nonpayable","type":"function"},{"inputs":[],"name":"crossSyncGatewayAddress","outputs":[{"internalType":"address","name":"","type":"address"}],"stateMutability":"view","type":"function"},{"inputs":[],"name":"defaultGasLimit","outputs":[{"internalType":"uint256","name":"","type":"uint256"}],"stateMutability":"view","type":"function"},{"inputs":[{"components":[{"internalType":"address","name":"sender","type":"address"},{"internalType":"uint256","name":"nonce","type":"uint256"},{"internalType":"uint256","name":"messagingRouteId","type":"uint256"},{"internalType":"uint256","name":"sourceChainId","type":"uint256"},{"internalType":"uint256","name":"destinationChainId","type":"uint256"},{"internalType":"address","name":"sourceGatewayAddress","type":"address"},{"internalType":"address","name":"destinationGatewayAddress","type":"address"},{"components":[{"internalType":"address","name":"to","type":"address"},{"internalType":"bytes","name":"data","type":"bytes"}],"internalType":"struct ICrossSyncGateway.MessagingPayload","name":"payload","type":"tuple"}],"internalType":"struct IMessagingImpl.ICrossSyncMessagingData","name":"_data","type":"tuple"},{"internalType":"uint256","name":"_gasLimit","type":"uint256"}],"name":"executeSendMessage","outputs":[{"internalType":"bytes","name":"","type":"bytes"}],"stateMutability":"payable","type":"function"},{"inputs":[{"components":[{"internalType":"address","name":"sender","type":"address"},{"internalType":"uint256","name":"nonce","type":"uint256"},{"internalType":"uint256","name":"messagingRouteId","type":"uint256"},{"internalType":"uint256","name":"sourceChainId","type":"uint256"},{"internalType":"uint256","name":"destinationChainId","type":"uint256"},{"internalType":"address","name":"sourceGatewayAddress","type":"address"},{"internalType":"address","name":"destinationGatewayAddress","type":"address"},{"components":[{"internalType":"address","name":"to","type":"address"},{"internalType":"bytes","name":"data","type":"bytes"}],"internalType":"struct ICrossSyncGateway.MessagingPayload","name":"payload","type":"tuple"}],"internalType":"struct IMessagingImpl.ICrossSyncMessagingData","name":"_data","type":"tuple"},{"internalType":"uint256","name":"_gasLimit","type":"uint256"}],"name":"getFee","outputs":[{"internalType":"uint256","name":"","type":"uint256"}],"stateMutability":"view","type":"function"},{"inputs":[{"internalType":"bytes32","name":"role","type":"bytes32"}],"name":"getRoleAdmin","outputs":[{"internalType":"bytes32","name":"","type":"bytes32"}],"stateMutability":"view","type":"function"},{"inputs":[],"name":"getTrustedForwarder","outputs":[{"internalType":"address","name":"forwarder","type":"address"}],"stateMutability":"view","type":"function"},{"inputs":[{"internalType":"bytes32","name":"role","type":"bytes32"},{"internalType":"address","name":"account","type":"address"}],"name":"grantRole","outputs":[],"stateMutability":"nonpayable","type":"function"},{"inputs":[{"internalType":"bytes32","name":"role","type":"bytes32"},{"internalType":"address","name":"account","type":"address"}],"name":"hasRole","outputs":[{"internalType":"bool","name":"","type":"bool"}],"stateMutability":"view","type":"function"},{"inputs":[{"internalType":"address","name":"_crossSyncGatewayAddress","type":"address"},{"internalType":"address","name":"_nativeCurrencyWrappedAddress","type":"address"},{"internalType":"address","name":"_nativeCurrencyAddress","type":"address"},{"internalType":"address","name":"_owner","type":"address"},{"internalType":"address","name":"_teleporterAddress","type":"address"}],"name":"initialize","outputs":[],"stateMutability":"nonpayable","type":"function"},{"inputs":[{"internalType":"address","name":"forwarder","type":"address"}],"name":"isTrustedForwarder","outputs":[{"internalType":"bool","name":"","type":"bool"}],"stateMutability":"view","type":"function"},{"inputs":[{"internalType":"bytes32","name":"","type":"bytes32"},{"internalType":"bytes32","name":"","type":"bytes32"}],"name":"messageSeen","outputs":[{"internalType":"bool","name":"","type":"bool"}],"stateMutability":"view","type":"function"},{"inputs":[],"name":"nativeCurrencyAddress","outputs":[{"internalType":"address","name":"","type":"address"}],"stateMutability":"view","type":"function"},{"inputs":[],"name":"nativeCurrencyWrappedAddress","outputs":[{"internalType":"address","name":"","type":"address"}],"stateMutability":"view","type":"function"},{"inputs":[],"name":"owner","outputs":[{"internalType":"address","name":"","type":"address"}],"stateMutability":"view","type":"function"},{"inputs":[],"name":"pause","outputs":[],"stateMutability":"nonpayable","type":"function"},{"inputs":[],"name":"paused","outputs":[{"internalType":"bool","name":"","type":"bool"}],"stateMutability":"view","type":"function"},{"inputs":[],"name":"proxiableUUID","outputs":[{"internalType":"bytes32","name":"","type":"bytes32"}],"stateMutability":"view","type":"function"},{"inputs":[{"internalType":"bytes32","name":"originChainID","type":"bytes32"},{"internalType":"address","name":"originSenderAddress","type":"address"},{"internalType":"bytes","name":"message","type":"bytes"}],"name":"receiveTeleporterMessage","outputs":[{"internalType":"bytes","name":"","type":"bytes"}],"stateMutability":"nonpayable","type":"function"},{"inputs":[{"internalType":"address","name":"_admin","type":"address"}],"name":"removeAdmin","outputs":[],"stateMutability":"nonpayable","type":"function"},{"inputs":[{"internalType":"address","name":"_pauser","type":"address"}],"name":"removePauser","outputs":[],"stateMutability":"nonpayable","type":"function"},{"inputs":[{"internalType":"address","name":"_superAdmin","type":"address"}],"name":"removeSuperAdmin","outputs":[],"stateMutability":"nonpayable","type":"function"},{"inputs":[{"internalType":"address","name":"_upgrader","type":"address"}],"name":"removeUpgrader","outputs":[],"stateMutability":"nonpayable","type":"function"},{"inputs":[],"name":"renounceOwnership","outputs":[],"stateMutability":"nonpayable","type":"function"},{"inputs":[{"internalType":"bytes32","name":"role","type":"bytes32"},{"internalType":"address","name":"account","type":"address"}],"name":"renounceRole","outputs":[],"stateMutability":"nonpayable","type":"function"},{"inputs":[{"internalType":"address payable","name":"userAddress","type":"address"},{"internalType":"uint256","name":"amount","type":"uint256"}],"name":"rescueEther","outputs":[],"stateMutability":"nonpayable","type":"function"},{"inputs":[{"internalType":"address","name":"token","type":"address"},{"internalType":"address","name":"userAddress","type":"address"},{"internalType":"uint256","name":"amount","type":"uint256"}],"name":"rescueFunds","outputs":[],"stateMutability":"nonpayable","type":"function"},{"inputs":[{"internalType":"bytes32","name":"role","type":"bytes32"},{"internalType":"address","name":"account","type":"address"}],"name":"revokeRole","outputs":[],"stateMutability":"nonpayable","type":"function"},{"inputs":[{"internalType":"address","name":"_crossSyncGatewayAddress","type":"address"}],"name":"setCrossSyncGatewayAddress","outputs":[],"stateMutability":"nonpayable","type":"function"},{"inputs":[{"internalType":"uint256","name":"_defaultGasLimit","type":"uint256"}],"name":"setDefaultGasLimit","outputs":[],"stateMutability":"nonpayable","type":"function"},{"inputs":[{"internalType":"address","name":"_nativeCurrencyAddress","type":"address"}],"name":"setNativeCurrencyAddress","outputs":[],"stateMutability":"nonpayable","type":"function"},{"inputs":[{"internalType":"address","name":"_nativeCurrencyWrappedAddress","type":"address"}],"name":"setNativeCurrencyWrappedAddress","outputs":[],"stateMutability":"nonpayable","type":"function"},{"inputs":[{"internalType":"uint256","name":"_chainId","type":"uint256"},{"internalType":"address","name":"_chainImplAddress","type":"address"}],"name":"setTeleporterChainImplAddress","outputs":[],"stateMutability":"nonpayable","type":"function"},{"inputs":[{"internalType":"uint256","name":"_chainId","type":"uint256"},{"internalType":"bytes32","name":"_blockchainId","type":"bytes32"}],"name":"setTeleporterDestBlockchainId","outputs":[],"stateMutability":"nonpayable","type":"function"},{"inputs":[{"internalType":"contract ITeleporterMessenger","name":"_messenger","type":"address"}],"name":"setTeleporterGateWayAddress","outputs":[],"stateMutability":"nonpayable","type":"function"},{"inputs":[{"internalType":"address","name":"_newtrustedForwarder","type":"address"}],"name":"setTrustedForwarder","outputs":[],"stateMutability":"nonpayable","type":"function"},{"inputs":[{"internalType":"bytes4","name":"interfaceId","type":"bytes4"}],"name":"supportsInterface","outputs":[{"internalType":"bool","name":"","type":"bool"}],"stateMutability":"view","type":"function"},{"inputs":[{"internalType":"uint256","name":"","type":"uint256"}],"name":"teleporterChainImplAddress","outputs":[{"internalType":"address","name":"","type":"address"}],"stateMutability":"view","type":"function"},{"inputs":[{"internalType":"uint256","name":"","type":"uint256"}],"name":"teleporterDestBlockchainId","outputs":[{"internalType":"bytes32","name":"","type":"bytes32"}],"stateMutability":"view","type":"function"},{"inputs":[{"internalType":"bytes32","name":"","type":"bytes32"}],"name":"teleporterDestBlockchainIdToChainId","outputs":[{"internalType":"uint256","name":"","type":"uint256"}],"stateMutability":"view","type":"function"},{"inputs":[],"name":"teleporterMessenger","outputs":[{"internalType":"contract ITeleporterMessenger","name":"","type":"address"}],"stateMutability":"view","type":"function"},{"inputs":[{"internalType":"address","name":"newOwner","type":"address"}],"name":"transferOwnership","outputs":[],"stateMutability":"nonpayable","type":"function"},{"inputs":[],"name":"unpause","outputs":[],"stateMutability":"nonpayable","type":"function"},{"inputs":[{"internalType":"address","name":"newImplementation","type":"address"}],"name":"upgradeTo","outputs":[],"stateMutability":"nonpayable","type":"function"},{"inputs":[{"internalType":"address","name":"newImplementation","type":"address"},{"internalType":"bytes","name":"data","type":"bytes"}],"name":"upgradeToAndCall","outputs":[],"stateMutability":"payable","type":"function"},{"stateMutability":"payable","type":"receive"}],"devdoc":{"kind":"dev","methods":{"constructor":{"custom:oz-upgrades-unsafe-allow":"constructor"},"getRoleAdmin(bytes32)":{"details":"Returns the admin role that controls `role`. See {grantRole} and {revokeRole}. To change a role's admin, use {_setRoleAdmin}."},"getTrustedForwarder()":{"returns":{"forwarder":"The address of the Forwarder contract that is being used."}},"grantRole(bytes32,address)":{"details":"Grants `role` to `account`. If `account` had not been already granted `role`, emits a {RoleGranted} event. Requirements: - the caller must have ``role``'s admin role. May emit a {RoleGranted} event."},"hasRole(bytes32,address)":{"details":"Returns `true` if `account` has been granted `role`."},"isTrustedForwarder(address)":{"params":{"forwarder":"The address of the Forwarder contract that is being used."},"returns":{"_0":"isTrustedForwarder `true` if the Forwarder is trusted to forward relayed transactions by this Recipient."}},"owner()":{"details":"Returns the address of the current owner."},"paused()":{"details":"Returns true if the contract is paused, and false otherwise."},"proxiableUUID()":{"details":"Implementation of the ERC1822 {proxiableUUID} function. This returns the storage slot used by the implementation. It is used to validate the implementation's compatibility when performing an upgrade. IMPORTANT: A proxy pointing at a proxiable contract should not be considered proxiable itself, because this risks bricking a proxy that upgrades to it, by delegating to itself until out of gas. Thus it is critical that this function revert if invoked through a proxy. This is guaranteed by the `notDelegated` modifier."},"renounceOwnership()":{"details":"Leaves the contract without owner. It will not be possible to call `onlyOwner` functions. Can only be called by the current owner. NOTE: Renouncing ownership will leave the contract without an owner, thereby disabling any functionality that is only available to the owner."},"renounceRole(bytes32,address)":{"details":"Revokes `role` from the calling account. Roles are often managed via {grantRole} and {revokeRole}: this function's purpose is to provide a mechanism for accounts to lose their privileges if they are compromised (such as when a trusted device is misplaced). If the calling account had been revoked `role`, emits a {RoleRevoked} event. Requirements: - the caller must be `account`. May emit a {RoleRevoked} event."},"revokeRole(bytes32,address)":{"details":"Revokes `role` from `account`. If `account` had been granted `role`, emits a {RoleRevoked} event. Requirements: - the caller must have ``role``'s admin role. May emit a {RoleRevoked} event."},"supportsInterface(bytes4)":{"details":"See {IERC165-supportsInterface}."},"transferOwnership(address)":{"details":"overriding the inherited {transferOwnership} function to reflect the admin changes into the {DEFAULT_ADMIN_ROLE}"},"upgradeTo(address)":{"custom:oz-upgrades-unsafe-allow-reachable":"delegatecall","details":"Upgrade the implementation of the proxy to `newImplementation`. Calls {_authorizeUpgrade}. Emits an {Upgraded} event."},"upgradeToAndCall(address,bytes)":{"custom:oz-upgrades-unsafe-allow-reachable":"delegatecall","details":"Upgrade the implementation of the proxy to `newImplementation`, and subsequently execute the function call encoded in `data`. Calls {_authorizeUpgrade}. Emits an {Upgraded} event."}},"version":1},"evm":{"bytecode":{"linkReferences":{},"object":"60a060405234620000495730608052620000186200004e565b620000226200004e565b6040516132889081620000f88239608051818181611299015281816113990152611dae0152f35b600080fd5b60005460ff8160081c16620000a25760ff808216036200006b5750565b60ff90811916176000557f7f26b83ff96e1f2b6a682f133852f6798a09c465da95921460cefb3847402498602060405160ff8152a1565b60405162461bcd60e51b815260206004820152602760248201527f496e697469616c697a61626c653a20636f6e747261637420697320696e697469604482015266616c697a696e6760c81b6064820152608490fdfe60406080815260049081361015610020575b5050361561001e57600080fd5b005b600091823560e01c9081629fe752146126de57816301ffc9a7146126885781631459457a146123705781631785f53c146122bc5781631908e8a214612285578163248a9ca31461225a5781632e0f23c0146122265781632f2ff15d146121c357816332495ce11461212a57816336568abe1461208e5781633659cfe614611d8657816336c5eda41461198b57816338073f0c146119615781633f4ba83a1461182c5781634460bdd6146118035781634835e3cc146117645781634902e4aa146117045781634b03285a1461166b5781634f1ef2861461134657816352d1902d14611283578163572b6c051461124f5781635c975abb14611228578163604a172c146111e257816368fa5d97146111665781636b2c0f55146110745781636ccae05414610fc75781637048027514610f12578163715018a614610eb257816375b238fc14610e8957816382dc1ec414610d815781638456cb5914610c3d5781638da5cb5b14610c1457816391d1485414610bcd57816395368d2e14610bad5781639b3e580314610b83578163a217fddf14610b68578163b3292ff014610b07578163b89b22d714610add578163bd826ed714610ab3578163c253829314610a8a578163c868efaa14610816578163ce1b815f146107ed578163d03c5da0146107c4578163d264a80314610725578163d547741f146106e6578163da74222814610650578163e32bb67b146105ea57838263e42e0ea91461059057508163e5110158146104db578163e63ab1e9146104b2578163f0aa09161461041b578163f2fde38b1461029c575063f72c0d8b036100115734610298578160031936011261029857602090516000805160206131938339815191528152f35b5080fd5b919050346104175760209081600319360112610413576102ba612777565b916102c3612d5e565b6102cb612d5e565b6001600160a01b0392808416156103c157806102e96102ee92612dc1565b612c4a565b6102f6613136565b938380610301613136565b169516948503610368575084805260fb8152818520848652815260ff828620541661032a578480f35b84805260fb815281852084865290528320805460ff1916905561034b613136565b1690826000805160206132138339815191528180a4388080808480f35b915162461bcd60e51b815291820152602f60248201527f416363657373436f6e74726f6c3a2063616e206f6e6c792072656e6f756e636560448201526e103937b632b9903337b91039b2b63360891b6064820152608490fd5b825162461bcd60e51b8152808601839052602660248201527f4f776e61626c653a206e6577206f776e657220697320746865207a65726f206160448201526564647265737360d01b6064820152608490fd5b8380fd5b8280fd5b90503461041757602036600319011261041757356001600160a01b0381811692918390036104135760ff61048492610451613136565b6000805160206131f3833981519152875260fb60205283828820911687526020528520541690811561049b575b50613094565b6101f880546001600160a01b031916909117905580f35b603354811691506104aa613136565b16143861047e565b505034610298578160031936011261029857602090516000805160206131d38339815191528152f35b505034610298576020366003190112610298576104f6612777565b906104ff612d5e565b6000805160206131938339815191529182845260fb6020528184209160018060a01b038092169283865260205260ff81862054161561053c578480f35b83855260fb6020528085208386526020528420600160ff19825416179055610562613136565b16917f2f8788117e7eff1d82e926ec794901d17c78024a50270940304540a733656f0d8480a4388080808480f35b915034610298578260031936011261029857356001600160a01b038116908190036102985781808092602435906105c5612d5e565b8282156105e1575bf1156105d7575080f35b51903d90823e3d90fd5b506108fc6105cd565b91905034610417576020366003190112610417576106489060ff61060c613136565b6000805160206131f3833981519152865260fb60209081528387206001600160a01b0392831688529052918520541690811561049b5750613094565b356101c35580f35b5050346102985760203660031901126102985761066b612777565b60ff610675613136565b6000805160206131f3833981519152855260fb60209081528486206001600160a01b0392831687529052928420541680156106cb575b6106b490613094565b166001600160601b0360a01b609754161760975580f35b506106b48260335416836106dd613136565b161490506106ab565b91905034610417578060031936011261041757610722913561071d600161070b612792565b9383875260fb60205286200154612921565b612ce4565b80f35b50503461029857602036600319011261029857610740612777565b90610749612d5e565b6000805160206131938339815191529182845260fb6020528184209160018060a01b038092169283865260205260ff8186205416610785578480f35b83855260fb602052808520838652602052842060ff1981541690556107a8613136565b16916000805160206132138339815191528480a4388080808480f35b9050346104175760203660031901126104175760209282913581526101fa845220549051908152f35b50503461029857816003193601126102985760975490516001600160a01b039091168152602090f35b83833461029857606036600319011261029857823592610834612792565b926044359167ffffffffffffffff8084116104175736602385011215610417578382013581811161041357602497888601958983369201011161098e5761087961303d565b6101f8546001600160a01b03919082163303610a29578086526020986101fa8a528887205487526101fb8a5282808a892054169116036109cc576108be3684896128ea565b898151910120908087526101fc90818b528988208389528b5260ff8a8920541661099257875289528786209086528852868520805460ff191660011790556101c45416803b1561098e5790849189838a6109308b519a8b968795869463e34381a160e01b86528c86015284019161301c565b03925af180156109845761095a575b600161012d55845186815280610956818901612816565b0390f35b8311610972575050610956935081528380808061093f565b634e487b7160e01b8252604190528490fd5b85513d85823e3d90fd5b8480fd5b895162461bcd60e51b81528088018c90526015818e0152744d65737361676520616c7265616479207365656e2160581b6044820152606490fd5b875162461bcd60e51b81528086018a90526032818c01527f54656c65706f727465723a204f726967696e20426c6f636b636861696e204964604482015271081a5cc81b9bdd081c9959da5cdd195c995960721b6064820152608490fd5b875162461bcd60e51b81526020818701526036818c01527f54656c65706f72746572496d706c3a204f6e6c792054656c65706f727465722060448201527531b0b71031b0b636103a3434b990333ab731ba34b7b760511b6064820152608490fd5b9050346104175760203660031901126104175760209282913581526101f9845220549051908152f35b5050346102985781600319360112610298576101c55490516001600160a01b039091168152602090f35b5050346102985781600319360112610298576101c45490516001600160a01b039091168152602090f35b50503461029857602036600319011261029857610b22612777565b90610b2b612d5e565b6000805160206131f38339815191529182845260fb6020528184209160018060a01b038092169283865260205260ff81862054161561053c578480f35b50503461029857816003193601126102985751908152602090f35b5050346102985781600319360112610298576101f85490516001600160a01b039091168152602090f35b5050346102985781600319360112610298576020906101c3549051908152f35b9050346104175781600319360112610417578160209360ff92610bee612792565b9035825260fb86528282206001600160a01b039091168252855220549151911615158152f35b50503461029857816003193601126102985760335490516001600160a01b039091168152602090f35b838334610298578160031936011261029857610c57613136565b6000805160206131d3833981519152835260fb60209081528284206001600160a01b0392831685528152828420549092919060ff168015610d4d575b8015610d32575b610ca390613094565b6097549460ff8660a01c16610cfc575060ff60a01b19909416600160a01b1760975591927f62e78cea01bee320cd4e420270b5ea74000d11b0c9f74754ebdbfc544b05a2589290610cf2613136565b915191168152a180f35b825162461bcd60e51b8152908101849052601060248201526f14185d5cd8589b194e881c185d5cd95960821b6044820152606490fd5b50610ca3816033541682610d44613136565b16149050610c9a565b50610d56613136565b6000805160206131f3833981519152855260fb84528183862091168552835260ff8285205416610c93565b505034610298576020908160031936011261041757610d9e612777565b90610da7613136565b6000805160206131f3833981519152855260fb84528185206001600160a01b03918216865284528185205490919060ff168015610e6e575b610de890613094565b6000805160206131d38339815191529384865260fb815282828720941693848752815260ff828720541615610e1b578580f35b84865260fb815281862084875290528420805460ff19166001179055610e3f613136565b16917f2f8788117e7eff1d82e926ec794901d17c78024a50270940304540a733656f0d8480a438808080808580f35b50610de8826033541683610e80613136565b16149050610ddf565b505034610298578160031936011261029857602090516000805160206132338339815191528152f35b8334610f0f5780600319360112610f0f57610ecb612d5e565b603380546001600160a01b0319811690915581906001600160a01b03167f8be0079c531659141344cd1fd0a4f28419497f9722a3daafe3b4186f6b6457e08280a380f35b80fd5b505034610298576020908160031936011261041757610f2f612777565b90610f38613136565b6000805160206131f3833981519152855260fb84528185206001600160a01b03918216865284528185205490919060ff168015610fac575b610f7990613094565b6000805160206132338339815191529384865260fb815282828720941693848752815260ff828720541615610e1b578580f35b50610f79826033541683610fbe613136565b16149050610f70565b91905034610417576060366003190112610417576020610fe5612777565b6044610fef612792565b94610ff8612d5e565b845163a9059cbb60e01b81526001600160a01b03968716918101919091528135602482015294859283918891165af190811561106b5750611037575080f35b6020813d8211611063575b8161104f602093836128ac565b81010312610298575180151503610f0f5780f35b3d9150611042565b513d84823e3d90fd5b505034610298576020908160031936011261041757611091612777565b9061109a613136565b6000805160206131f3833981519152855260fb84528185206001600160a01b03918216865284528185205490919060ff16801561114b575b6110db90613094565b6000805160206131d38339815191529384865260fb815282828720941693848752815260ff828720541661110d578580f35b84865260fb815281862084875290528420805460ff1916905561112e613136565b16916000805160206132138339815191528480a438808080808580f35b506110db82603354168361115d613136565b161490506110d2565b90503461041757816003193601126104175735906024356111c6611188613136565b6000805160206131f3833981519152865260fb60209081528487206001600160a01b03928316885290528386205460ff1690811561049b5750613094565b8284526101f9602052808285205583526101fa60205282205580f35b90508234610f0f575060206064926111f9366127bc565b50505162461bcd60e51b815291820152600d60248201526c139bdd0814dd5c1c1bdc9d1959609a1b6044820152fd5b50503461029857816003193601126102985760209060ff60975460a01c1690519015158152f35b5050346102985760203660031901126102985760209061126d612777565b60018060a01b0380609754169116149051908152f35b90508234610f0f5780600319360112610f0f57507f00000000000000000000000000000000000000000000000000000000000000006001600160a01b031630036112de57602082516000805160206131b38339815191528152f35b6020608492519162461bcd60e51b8352820152603860248201527f555550535570677261646561626c653a206d757374206e6f742062652063616c60448201527f6c6564207468726f7567682064656c656761746563616c6c00000000000000006064820152fd5b918091506003193601126104175761135c612777565b9060243567ffffffffffffffff811161098e573660238201121561098e5761138d90369060248187013591016128ea565b6001600160a01b0391907f000000000000000000000000000000000000000000000000000000000000000083166113c630821415612e0a565b6113e36000805160206131b3833981519152918583541614612e6b565b6113eb613136565b93600080516020613193833981519152885260209460fb865281858a2091168952855260ff84892054168015611650575b61142590613094565b7f4910fdfa16fed3260ed0e7147f7cc6da11a60208b5b9406d12a635614ffd91435460ff161561145e5750505050506107229150612ecc565b85939495169084516352d1902d60e01b815286818981865afa89918161161d575b506114de57855162461bcd60e51b8152808901889052602e60248201527f45524331393637557067726164653a206e657720696d706c656d656e7461746960448201526d6f6e206973206e6f74205555505360901b6064820152608490fd5b96919295949396036115c857506114f485612ecc565b7fbc7cd75a20ee27fd9adebab32041f755214dbc6bffa90cc0225b39da2e5c2d3b8680a28251158015906115c0575b61152f575b5050505080f35b6115ac9385808351956115418761287a565b602787527f416464726573733a206c6f772d6c6576656c2064656c65676174652063616c6c86880152660819985a5b195960ca1b858801528581519101845af4913d156115b6573d61159e611595826128ce565b925192836128ac565b81528681943d92013e612f5c565b5038808080611528565b5060609250612f5c565b506001611523565b825162461bcd60e51b8152908101849052602960248201527f45524331393637557067726164653a20756e737570706f727465642070726f786044820152681a58589b195555525160ba1b6064820152608490fd5b9091508781813d8311611649575b61163581836128ac565b810103126116455751903861147f565b8980fd5b503d61162b565b50611425816033541682611662613136565b1614905061141c565b50503461029857602036600319011261029857611686612777565b9060ff611691613136565b6000805160206131f3833981519152855260fb60209081528386206001600160a01b0392831687529052918420541680156116e9575b6116d090613094565b6101c491166001600160601b0360a01b82541617905580f35b506116d08160335416826116fb613136565b161490506116c7565b5050346102985760203660031901126102985761171f612777565b90611728612d5e565b6000805160206131f38339815191529182845260fb6020528184209160018060a01b038092169283865260205260ff8186205416610785578480f35b90503461041757816003193601126104175761177e612792565b91611787613136565b916000805160206131f3833981519152855260fb60205281852060018060a01b03809416865260205260ff828620541680156117e8575b6117c790613094565b3584526101fb602052832091166001600160601b0360a01b82541617905580f35b506117c78360335416846117fa613136565b161490506117be565b505034610298578160031936011261029857602090516000805160206131f38339815191528152f35b838334610298578160031936011261029857611846613136565b6000805160206131d3833981519152835260fb60209081528284206001600160a01b0392831685528152828420549092919060ff16801561192d575b8015611912575b61189290613094565b6097549460ff8660a01c16156118d857507f5db9ee0a495bf2e6ff9c91a7834c1ba4fdd244a5e8aa4e537bd38aeae4b073aa939460ff60a01b1916609755610cf2613136565b825162461bcd60e51b8152908101849052601460248201527314185d5cd8589b194e881b9bdd081c185d5cd95960621b6044820152606490fd5b50611892816033541682611924613136565b16149050611889565b50611936613136565b6000805160206131f3833981519152855260fb84528183862091168552835260ff8285205416611882565b5050346102985781600319360112610298576101c65490516001600160a01b039091168152602090f35b919050611997366127bc565b92906119a161303d565b6119a9613136565b6101c4546001600160a01b039190821690821603611d2e576080820135918287526101f9956020968088528689205415611cdb573415611c98578651928880850152846119f5826127a8565b1688850152888101356060850152878101356080850152606081013560a08501528560c085015284611a2960a083016127a8565b1660e085015284611a3c60c083016127a8565b1690610100918286015260e0810135603e1982360301811215611c9057019061012085015284611a6b826127a8565b1661014085015288810135601e1982360301811215611c945767ffffffffffffffff9391018035908a01848211611c90578136038113611c9057611ac08691611ace938c61016085015261018084019161301c565b03601f1981018652856128ac565b80611c8a57506101c354905b846101f85416958a52885286892054906101fb895284888b20541688519089820182811086821117611c77578a528b8252348b8301528951938b850185811087821117611c64578b528c85528a519560c0870190811187821017611c64578b528552848b01908152898501918252606085019283526080850193845260a085019586528951630624488560e41b81529889018b90529351602489015292518516604488015291518051851660648801528801516084870152905160a48601525160e060c4860152805161010486018190528794869490938a936101248701939192908801919085905b828210611c425750505050611be88593928492516023198483030160e4850152612855565b03925af18015611c3857611c0e575b600161012d55815183815280610956818601612816565b8290813d8311611c31575b611c2381836128ac565b810103126104175782611bf7565b503d611c19565b82513d86823e3d90fd5b8351811686528c998b99508e9750958601959390930192600190910190611bc3565b634e487b7160e01b8e5260418b5260248efd5b634e487b7160e01b8d5260418a5260248dfd5b90611ada565b8b80fd5b8a80fd5b865162461bcd60e51b8152808701899052601760248201527f476173207061796d656e742069732072657175697265640000000000000000006044820152606490fd5b865162461bcd60e51b8152808701899052602760248201527f54656c65706f72746572204e6f7420617661696c61626c6520666f7220746869604482015266399031b430b4b760c91b6064820152608490fd5b835162461bcd60e51b8152602081850152602c60248201527f4f6e6c792043726f737353796e63476174657761792063616e2063616c6c207460448201526b3434b990333ab731ba34b7b760a11b6064820152608490fd5b919050346104175760208060031936011261041357611da3612777565b916001600160a01b037f00000000000000000000000000000000000000000000000000000000000000008116611ddb30821415612e0a565b611df86000805160206131b3833981519152918383541614612e6b565b611e00613136565b600080516020613193833981519152885260fb85528284892091168852845260ff83882054168015612073575b611e3690613094565b8251908482019282841067ffffffffffffffff851117612060578385528883527f4910fdfa16fed3260ed0e7147f7cc6da11a60208b5b9406d12a635614ffd91435460ff1615611e90575050505050506107229150612ecc565b869293949596169085516352d1902d60e01b815287818a81865afa8a9181612031575b50611f1257865162461bcd60e51b8152808a01899052602e60248201527f45524331393637557067726164653a206e657720696d706c656d656e7461746960448201526d6f6e206973206e6f74205555505360901b6064820152608490fd5b979192939695949703611fdc5750611f2982612ecc565b7fbc7cd75a20ee27fd9adebab32041f755214dbc6bffa90cc0225b39da2e5c2d3b8780a285845115801590611fd5575b611f67575b50505050505080f35b80611fc996845196611f788861287a565b602788527f416464726573733a206c6f772d6c6576656c2064656c65676174652063616c6c87890152660819985a5b195960ca1b868901525190845af4913d156115b6573d61159e611595826128ce565b50388080808085611f5e565b5080611f59565b835162461bcd60e51b8152908101859052602960248201527f45524331393637557067726164653a20756e737570706f727465642070726f786044820152681a58589b195555525160ba1b6064820152608490fd5b9091508881813d8311612059575b61204981836128ac565b81010312611c9457519038611eb3565b503d61203f565b634e487b7160e01b895260418852602489fd5b50611e36826033541683612085613136565b16149050611e2d565b839150346102985782600319360112610298576120a9612792565b906001600160a01b03806120bb613136565b16908316036120cf57906107229135612ce4565b608490602085519162461bcd60e51b8352820152602f60248201527f416363657373436f6e74726f6c3a2063616e206f6e6c792072656e6f756e636560448201526e103937b632b9903337b91039b2b63360891b6064820152fd5b50503461029857602036600319011261029857612145612777565b9060ff612150613136565b6000805160206131f3833981519152855260fb60209081528386206001600160a01b0392831687529052918420541680156121a8575b61218f90613094565b6101c691166001600160601b0360a01b82541617905580f35b5061218f8160335416826121ba613136565b16149050612186565b90503461041757816003193601126104175735906121df612792565b82845260fb6020526121f660018386200154612921565b82845260fb60209081528285206001600160a01b0392831680875291528285205490929060ff161561053c578480f35b905034610417576020366003190112610417573582526101fb6020908152918190205490516001600160a01b039091168152f35b905034610417576020366003190112610417578160209360019235815260fb85522001549051908152f35b9050346104175781600319360112610417578160209360ff923581526101fc85528181206024358252855220541690519015158152f35b5050346102985760209081600319360112610417576122d9612777565b906122e2613136565b6000805160206131f3833981519152855260fb84528185206001600160a01b03918216865284528185205490919060ff168015612355575b61232390613094565b6000805160206132338339815191529384865260fb815282828720941693848752815260ff828720541661110d578580f35b50612323826033541683612367613136565b1614905061231a565b919050346104175760a03660031901126104175761238c612777565b612394612792565b6001600160a01b0391906044358381169081900361268457606435918483169485840361268057608435938185168095036116455789549860ff8a60081c161597888099612673575b801561265c575b1561260257600160ff198c1681178d559a896125f1575b5061243d60ff8d5460081c16612410816130d6565b612419816130d6565b612422816130d6565b6097805460ff60a01b19169055612438816130d6565b6130d6565b61244d612448613136565b612dc1565b61248160ff8d5460081c16612461816130d6565b61246a816130d6565b612473816130d6565b8c61012d55612438816130d6565b612489612d5e565b1561259f5750806102e961249c92612dc1565b600080516020613233833981519152808a5260fb60205289898982200154916000805160206131f38339815191528093818d8d862001557fbd79b86ffe0ab8e8776151514217cd7cacd52c909f66475c3af44e129f0b00ff92838580a46000805160206131d383398151915290818352838c8c818187200154952001558c80a46001600160601b0360a01b94816101c49116868254161790556101c59116848254161790556101c6908382541617905562015f906101c3556101f891825416179055612566578280f35b825461ff0019168355519081527f7f26b83ff96e1f2b6a682f133852f6798a09c465da95921460cefb384740249890602090a138808280f35b60849060208a519162461bcd60e51b8352820152602660248201527f4f776e61626c653a206e6577206f776e657220697320746865207a65726f206160448201526564647265737360d01b6064820152fd5b61ffff1916610101178c55386123fb565b895162461bcd60e51b8152602081840152602e60248201527f496e697469616c697a61626c653a20636f6e747261637420697320616c72656160448201526d191e481a5b9a5d1a585b1a5e995960921b6064820152608490fd5b50303b1580156123e45750600160ff8c16146123e4565b50600160ff8c16106123dd565b8880fd5b8680fd5b90503461041757602036600319011261041757359063ffffffff60e01b82168092036104175760209250637965db0b60e01b82149182156126cd575b50519015158152f35b6301ffc9a760e01b149150386126c4565b505034610298576020366003190112610298576126f9612777565b9060ff612704613136565b6000805160206131f3833981519152855260fb60209081528386206001600160a01b03928316875290529184205416801561275c575b61274390613094565b6101c591166001600160601b0360a01b82541617905580f35b5061274381603354168261276e613136565b1614905061273a565b600435906001600160a01b038216820361278d57565b600080fd5b602435906001600160a01b038216820361278d57565b35906001600160a01b038216820361278d57565b6003199060408183011261278d576004359167ffffffffffffffff831161278d57826101009203011261278d576004019060243590565b60005b8381106128065750506000910152565b81810151838201526020016127f6565b906060519182815260005b8381106128415750826000602080949584010152601f8019910116010190565b806020916080015182828501015201612821565b9060209161286e815180928185528580860191016127f3565b601f01601f1916010190565b6060810190811067ffffffffffffffff82111761289657604052565b634e487b7160e01b600052604160045260246000fd5b90601f8019910116810190811067ffffffffffffffff82111761289657604052565b67ffffffffffffffff811161289657601f01601f191660200190565b9291926128f6826128ce565b9161290460405193846128ac565b82948184528183011161278d578281602093846000960137010152565b612929613136565b9060009080825260209160fb83526040938482209060018060a01b031690818352845260ff85832054161561295f575050505050565b84519261296b8461287a565b602a84528484019086368337845115612c365760308253845192600193841015612c22576078602187015360295b848111612bb85750612b76578651926080840184811067ffffffffffffffff821117612b6257885260428452868401946060368737845115612b4e57603086538451821015612b4e5790607860218601536041915b818311612ae057505050612a9e57612a9a938693612a7e93612a6f604894612a469a519a8b957f416363657373436f6e74726f6c3a206163636f756e74200000000000000000008c88015251809260378801906127f3565b8401917001034b99036b4b9b9b4b733903937b6329607d1b6037840152518093868401906127f3565b010360288101875201856128ac565b5192839262461bcd60e51b845260048401526024830190612855565b0390fd5b60648587519062461bcd60e51b825280600483015260248201527f537472696e67733a20686578206c656e67746820696e73756666696369656e746044820152fd5b909192600f81166010811015612b3a576f181899199a1a9b1b9c1cb0b131b232b360811b901a612b108588612ff5565b5360041c928015612b26576000190191906129ee565b634e487b7160e01b82526011600452602482fd5b634e487b7160e01b83526032600452602483fd5b634e487b7160e01b81526032600452602490fd5b634e487b7160e01b86526041600452602486fd5b60648688519062461bcd60e51b825280600483015260248201527f537472696e67733a20686578206c656e67746820696e73756666696369656e746044820152fd5b90600f81166010811015612c0e576f181899199a1a9b1b9c1cb0b131b232b360811b901a612be68389612ff5565b5360041c908015612bfa5760001901612999565b634e487b7160e01b86526011600452602486fd5b634e487b7160e01b87526032600452602487fd5b634e487b7160e01b85526032600452602485fd5b634e487b7160e01b84526032600452602484fd5b6001600160a01b0390811660008181527fc88390e7e62175be0932452175b6a7222b6b094ab0ef984a5153c620345d8975602052604081205490929060ff1615612c9357505050565b82805260fb6020526040832082845260205260408320600160ff19825416179055612cbc613136565b16917f2f8788117e7eff1d82e926ec794901d17c78024a50270940304540a733656f0d8180a4565b600081815260fb602090815260408083206001600160a01b039586168085529252822054919390929160ff16612d1b575b50505050565b6000805160206132138339815191529082855260fb602052604085208486526020526040852060ff198154169055612d51613136565b169380a438808080612d15565b6033546001600160a01b0390811690612d75613136565b1603612d7d57565b606460405162461bcd60e51b815260206004820152602060248201527f4f776e61626c653a2063616c6c6572206973206e6f7420746865206f776e65726044820152fd5b603380546001600160a01b039283166001600160a01b0319821681179092559091167f8be0079c531659141344cd1fd0a4f28419497f9722a3daafe3b4186f6b6457e0600080a3565b15612e1157565b60405162461bcd60e51b815260206004820152602c60248201527f46756e6374696f6e206d7573742062652063616c6c6564207468726f7567682060448201526b19195b1959d85d1958d85b1b60a21b6064820152608490fd5b15612e7257565b60405162461bcd60e51b815260206004820152602c60248201527f46756e6374696f6e206d7573742062652063616c6c6564207468726f7567682060448201526b6163746976652070726f787960a01b6064820152608490fd5b803b15612f01576000805160206131b383398151915280546001600160a01b0319166001600160a01b03909216919091179055565b60405162461bcd60e51b815260206004820152602d60248201527f455243313936373a206e657720696d706c656d656e746174696f6e206973206e60448201526c1bdd08184818dbdb9d1c9858dd609a1b6064820152608490fd5b91929015612fbe5750815115612f70575090565b3b15612f795790565b60405162461bcd60e51b815260206004820152601d60248201527f416464726573733a2063616c6c20746f206e6f6e2d636f6e74726163740000006044820152606490fd5b825190915015612fd15750805190602001fd5b60405162461bcd60e51b815260206004820152908190612a9a906024830190612855565b908151811015613006570160200190565b634e487b7160e01b600052603260045260246000fd5b908060209392818452848401376000828201840152601f01601f1916010190565b61012d600281541461304f5760029055565b60405162461bcd60e51b815260206004820152601f60248201527f5265656e7472616e637947756172643a207265656e7472616e742063616c6c006044820152606490fd5b1561309b57565b60405162461bcd60e51b8152602060048201526013602482015272556e617574686f72697a65642041636365737360681b6044820152606490fd5b156130dd57565b60405162461bcd60e51b815260206004820152602b60248201527f496e697469616c697a61626c653a20636f6e7472616374206973206e6f74206960448201526a6e697469616c697a696e6760a81b6064820152608490fd5b6097546001600160a01b031633148080613187575b1561315d575036601319013560601c90565b6014361015908161317f575b501561317b5736601319013560601c90565b3390565b905038613169565b50601436101561314b56fe189ab7a9244df0848122154315af71fe140f3db0fe014031783b0946b8c9d2e3360894a13ba1a3210667c828492db98dca3e2076cc3735a920a3ca505d382bbc65d7a28e3265b37a6474929f336521b332c1681b933f6cb9f3376673440d862a7613a25ecc738585a232ad50a301178f12b3ba8887d13e138b523c4269c47689f6391f5c32d9c69d2a47ea670b442974b53935d1edc7fd64eb21e047a839171ba49807205ce4d355092ef5a8a18f56e8913cf4a201fbe287825b095693c21775a26469706673582212208f3f40ae7d62eb46bc2ca75ee6a592faeb7c3e78f775ff591165aeffe0dca0e164736f6c63430008110033","opcodes":"PUSH1 0xA0 PUSH1 0x40 MSTORE CALLVALUE PUSH3 0x49 JUMPI ADDRESS PUSH1 0x80 MSTORE PUSH3 0x18 PUSH3 0x4E JUMP JUMPDEST PUSH3 0x22 PUSH3 0x4E JUMP JUMPDEST PUSH1 0x40 MLOAD PUSH2 0x3288 SWAP1 DUP2 PUSH3 0xF8 DUP3 CODECOPY PUSH1 0x80 MLOAD DUP2 DUP2 DUP2 PUSH2 0x1299 ADD MSTORE DUP2 DUP2 PUSH2 0x1399 ADD MSTORE PUSH2 0x1DAE ADD MSTORE RETURN JUMPDEST PUSH1 0x0 DUP1 REVERT JUMPDEST PUSH1 0x0 SLOAD PUSH1 0xFF DUP2 PUSH1 0x8 SHR AND PUSH3 0xA2 JUMPI PUSH1 0xFF DUP1 DUP3 AND SUB PUSH3 0x6B JUMPI POP JUMP JUMPDEST PUSH1 0xFF SWAP1 DUP2 NOT AND OR PUSH1 0x0 SSTORE PUSH32 0x7F26B83FF96E1F2B6A682F133852F6798A09C465DA95921460CEFB3847402498 PUSH1 0x20 PUSH1 0x40 MLOAD PUSH1 0xFF DUP2 MSTORE LOG1 JUMP JUMPDEST PUSH1 0x40 MLOAD PUSH3 0x461BCD PUSH1 0xE5 SHL DUP2 MSTORE PUSH1 0x20 PUSH1 0x4 DUP3 ADD MSTORE PUSH1 0x27 PUSH1 0x24 DUP3 ADD MSTORE PUSH32 0x496E697469616C697A61626C653A20636F6E747261637420697320696E697469 PUSH1 0x44 DUP3 ADD MSTORE PUSH7 0x616C697A696E67 PUSH1 0xC8 SHL PUSH1 0x64 DUP3 ADD MSTORE PUSH1 0x84 SWAP1 REVERT INVALID PUSH1 0x40 PUSH1 0x80 DUP2 MSTORE PUSH1 0x4 SWAP1 DUP2 CALLDATASIZE LT ISZERO PUSH2 0x20 JUMPI JUMPDEST POP POP CALLDATASIZE ISZERO PUSH2 0x1E JUMPI PUSH1 0x0 DUP1 REVERT JUMPDEST STOP JUMPDEST PUSH1 0x0 SWAP2 DUP3 CALLDATALOAD PUSH1 0xE0 SHR SWAP1 DUP2 PUSH3 0x9FE752 EQ PUSH2 0x26DE JUMPI DUP2 PUSH4 0x1FFC9A7 EQ PUSH2 0x2688 JUMPI DUP2 PUSH4 0x1459457A EQ PUSH2 0x2370 JUMPI DUP2 PUSH4 0x1785F53C EQ PUSH2 0x22BC JUMPI DUP2 PUSH4 0x1908E8A2 EQ PUSH2 0x2285 JUMPI DUP2 PUSH4 0x248A9CA3 EQ PUSH2 0x225A JUMPI DUP2 PUSH4 0x2E0F23C0 EQ PUSH2 0x2226 JUMPI DUP2 PUSH4 0x2F2FF15D EQ PUSH2 0x21C3 JUMPI DUP2 PUSH4 0x32495CE1 EQ PUSH2 0x212A JUMPI DUP2 PUSH4 0x36568ABE EQ PUSH2 0x208E JUMPI DUP2 PUSH4 0x3659CFE6 EQ PUSH2 0x1D86 JUMPI DUP2 PUSH4 0x36C5EDA4 EQ PUSH2 0x198B JUMPI DUP2 PUSH4 0x38073F0C EQ PUSH2 0x1961 JUMPI DUP2 PUSH4 0x3F4BA83A EQ PUSH2 0x182C JUMPI DUP2 PUSH4 0x4460BDD6 EQ PUSH2 0x1803 JUMPI DUP2 PUSH4 0x4835E3CC EQ PUSH2 0x1764 JUMPI DUP2 PUSH4 0x4902E4AA EQ PUSH2 0x1704 JUMPI DUP2 PUSH4 0x4B03285A EQ PUSH2 0x166B JUMPI DUP2 PUSH4 0x4F1EF286 EQ PUSH2 0x1346 JUMPI DUP2 PUSH4 0x52D1902D EQ PUSH2 0x1283 JUMPI DUP2 PUSH4 0x572B6C05 EQ PUSH2 0x124F JUMPI DUP2 PUSH4 0x5C975ABB EQ PUSH2 0x1228 JUMPI DUP2 PUSH4 0x604A172C EQ PUSH2 0x11E2 JUMPI DUP2 PUSH4 0x68FA5D97 EQ PUSH2 0x1166 JUMPI DUP2 PUSH4 0x6B2C0F55 EQ PUSH2 0x1074 JUMPI DUP2 PUSH4 0x6CCAE054 EQ PUSH2 0xFC7 JUMPI DUP2 PUSH4 0x70480275 EQ PUSH2 0xF12 JUMPI DUP2 PUSH4 0x715018A6 EQ PUSH2 0xEB2 JUMPI DUP2 PUSH4 0x75B238FC EQ PUSH2 0xE89 JUMPI DUP2 PUSH4 0x82DC1EC4 EQ PUSH2 0xD81 JUMPI DUP2 PUSH4 0x8456CB59 EQ PUSH2 0xC3D JUMPI DUP2 PUSH4 0x8DA5CB5B EQ PUSH2 0xC14 JUMPI DUP2 PUSH4 0x91D14854 EQ PUSH2 0xBCD JUMPI DUP2 PUSH4 0x95368D2E EQ PUSH2 0xBAD JUMPI DUP2 PUSH4 0x9B3E5803 EQ PUSH2 0xB83 JUMPI DUP2 PUSH4 0xA217FDDF EQ PUSH2 0xB68 JUMPI DUP2 PUSH4 0xB3292FF0 EQ PUSH2 0xB07 JUMPI DUP2 PUSH4 0xB89B22D7 EQ PUSH2 0xADD JUMPI DUP2 PUSH4 0xBD826ED7 EQ PUSH2 0xAB3 JUMPI DUP2 PUSH4 0xC2538293 EQ PUSH2 0xA8A JUMPI DUP2 PUSH4 0xC868EFAA EQ PUSH2 0x816 JUMPI DUP2 PUSH4 0xCE1B815F EQ PUSH2 0x7ED JUMPI DUP2 PUSH4 0xD03C5DA0 EQ PUSH2 0x7C4 JUMPI DUP2 PUSH4 0xD264A803 EQ PUSH2 0x725 JUMPI DUP2 PUSH4 0xD547741F EQ PUSH2 0x6E6 JUMPI DUP2 PUSH4 0xDA742228 EQ PUSH2 0x650 JUMPI DUP2 PUSH4 0xE32BB67B EQ PUSH2 0x5EA JUMPI DUP4 DUP3 PUSH4 0xE42E0EA9 EQ PUSH2 0x590 JUMPI POP DUP2 PUSH4 0xE5110158 EQ PUSH2 0x4DB JUMPI DUP2 PUSH4 0xE63AB1E9 EQ PUSH2 0x4B2 JUMPI DUP2 PUSH4 0xF0AA0916 EQ PUSH2 0x41B JUMPI DUP2 PUSH4 0xF2FDE38B EQ PUSH2 0x29C JUMPI POP PUSH4 0xF72C0D8B SUB PUSH2 0x11 JUMPI CALLVALUE PUSH2 0x298 JUMPI DUP2 PUSH1 0x3 NOT CALLDATASIZE ADD SLT PUSH2 0x298 JUMPI PUSH1 0x20 SWAP1 MLOAD PUSH1 0x0 DUP1 MLOAD PUSH1 0x20 PUSH2 0x3193 DUP4 CODECOPY DUP2 MLOAD SWAP2 MSTORE DUP2 MSTORE RETURN JUMPDEST POP DUP1 REVERT JUMPDEST SWAP2 SWAP1 POP CALLVALUE PUSH2 0x417 JUMPI PUSH1 0x20 SWAP1 DUP2 PUSH1 0x3 NOT CALLDATASIZE ADD SLT PUSH2 0x413 JUMPI PUSH2 0x2BA PUSH2 0x2777 JUMP JUMPDEST SWAP2 PUSH2 0x2C3 PUSH2 0x2D5E JUMP JUMPDEST PUSH2 0x2CB PUSH2 0x2D5E JUMP JUMPDEST PUSH1 0x1 PUSH1 0x1 PUSH1 0xA0 SHL SUB SWAP3 DUP1 DUP5 AND ISZERO PUSH2 0x3C1 JUMPI DUP1 PUSH2 0x2E9 PUSH2 0x2EE SWAP3 PUSH2 0x2DC1 JUMP JUMPDEST PUSH2 0x2C4A JUMP JUMPDEST PUSH2 0x2F6 PUSH2 0x3136 JUMP JUMPDEST SWAP4 DUP4 DUP1 PUSH2 0x301 PUSH2 0x3136 JUMP JUMPDEST AND SWAP6 AND SWAP5 DUP6 SUB PUSH2 0x368 JUMPI POP DUP5 DUP1 MSTORE PUSH1 0xFB DUP2 MSTORE DUP2 DUP6 KECCAK256 DUP5 DUP7 MSTORE DUP2 MSTORE PUSH1 0xFF DUP3 DUP7 KECCAK256 SLOAD AND PUSH2 0x32A JUMPI DUP5 DUP1 RETURN JUMPDEST DUP5 DUP1 MSTORE PUSH1 0xFB DUP2 MSTORE DUP2 DUP6 KECCAK256 DUP5 DUP7 MSTORE SWAP1 MSTORE DUP4 KECCAK256 DUP1 SLOAD PUSH1 0xFF NOT AND SWAP1 SSTORE PUSH2 0x34B PUSH2 0x3136 JUMP JUMPDEST AND SWAP1 DUP3 PUSH1 0x0 DUP1 MLOAD PUSH1 0x20 PUSH2 0x3213 DUP4 CODECOPY DUP2 MLOAD SWAP2 MSTORE DUP2 DUP1 LOG4 CODESIZE DUP1 DUP1 DUP1 DUP5 DUP1 RETURN JUMPDEST SWAP2 MLOAD PUSH3 0x461BCD PUSH1 0xE5 SHL DUP2 MSTORE SWAP2 DUP3 ADD MSTORE PUSH1 0x2F PUSH1 0x24 DUP3 ADD MSTORE PUSH32 0x416363657373436F6E74726F6C3A2063616E206F6E6C792072656E6F756E6365 PUSH1 0x44 DUP3 ADD MSTORE PUSH15 0x103937B632B9903337B91039B2B633 PUSH1 0x89 SHL PUSH1 0x64 DUP3 ADD MSTORE PUSH1 0x84 SWAP1 REVERT JUMPDEST DUP3 MLOAD PUSH3 0x461BCD PUSH1 0xE5 SHL DUP2 MSTORE DUP1 DUP7 ADD DUP4 SWAP1 MSTORE PUSH1 0x26 PUSH1 0x24 DUP3 ADD MSTORE PUSH32 0x4F776E61626C653A206E6577206F776E657220697320746865207A65726F2061 PUSH1 0x44 DUP3 ADD MSTORE PUSH6 0x646472657373 PUSH1 0xD0 SHL PUSH1 0x64 DUP3 ADD MSTORE PUSH1 0x84 SWAP1 REVERT JUMPDEST DUP4 DUP1 REVERT JUMPDEST DUP3 DUP1 REVERT JUMPDEST SWAP1 POP CALLVALUE PUSH2 0x417 JUMPI PUSH1 0x20 CALLDATASIZE PUSH1 0x3 NOT ADD SLT PUSH2 0x417 JUMPI CALLDATALOAD PUSH1 0x1 PUSH1 0x1 PUSH1 0xA0 SHL SUB DUP2 DUP2 AND SWAP3 SWAP2 DUP4 SWAP1 SUB PUSH2 0x413 JUMPI PUSH1 0xFF PUSH2 0x484 SWAP3 PUSH2 0x451 PUSH2 0x3136 JUMP JUMPDEST PUSH1 0x0 DUP1 MLOAD PUSH1 0x20 PUSH2 0x31F3 DUP4 CODECOPY DUP2 MLOAD SWAP2 MSTORE DUP8 MSTORE PUSH1 0xFB PUSH1 0x20 MSTORE DUP4 DUP3 DUP9 KECCAK256 SWAP2 AND DUP8 MSTORE PUSH1 0x20 MSTORE DUP6 KECCAK256 SLOAD AND SWAP1 DUP2 ISZERO PUSH2 0x49B JUMPI JUMPDEST POP PUSH2 0x3094 JUMP JUMPDEST PUSH2 0x1F8 DUP1 SLOAD PUSH1 0x1 PUSH1 0x1 PUSH1 0xA0 SHL SUB NOT AND SWAP1 SWAP2 OR SWAP1 SSTORE DUP1 RETURN JUMPDEST PUSH1 0x33 SLOAD DUP2 AND SWAP2 POP PUSH2 0x4AA PUSH2 0x3136 JUMP JUMPDEST AND EQ CODESIZE PUSH2 0x47E JUMP JUMPDEST POP POP CALLVALUE PUSH2 0x298 JUMPI DUP2 PUSH1 0x3 NOT CALLDATASIZE ADD SLT PUSH2 0x298 JUMPI PUSH1 0x20 SWAP1 MLOAD PUSH1 0x0 DUP1 MLOAD PUSH1 0x20 PUSH2 0x31D3 DUP4 CODECOPY DUP2 MLOAD SWAP2 MSTORE DUP2 MSTORE RETURN JUMPDEST POP POP CALLVALUE PUSH2 0x298 JUMPI PUSH1 0x20 CALLDATASIZE PUSH1 0x3 NOT ADD SLT PUSH2 0x298 JUMPI PUSH2 0x4F6 PUSH2 0x2777 JUMP JUMPDEST SWAP1 PUSH2 0x4FF PUSH2 0x2D5E JUMP JUMPDEST PUSH1 0x0 DUP1 MLOAD PUSH1 0x20 PUSH2 0x3193 DUP4 CODECOPY DUP2 MLOAD SWAP2 MSTORE SWAP2 DUP3 DUP5 MSTORE PUSH1 0xFB PUSH1 0x20 MSTORE DUP2 DUP5 KECCAK256 SWAP2 PUSH1 0x1 DUP1 PUSH1 0xA0 SHL SUB DUP1 SWAP3 AND SWAP3 DUP4 DUP7 MSTORE PUSH1 0x20 MSTORE PUSH1 0xFF DUP2 DUP7 KECCAK256 SLOAD AND ISZERO PUSH2 0x53C JUMPI DUP5 DUP1 RETURN JUMPDEST DUP4 DUP6 MSTORE PUSH1 0xFB PUSH1 0x20 MSTORE DUP1 DUP6 KECCAK256 DUP4 DUP7 MSTORE PUSH1 0x20 MSTORE DUP5 KECCAK256 PUSH1 0x1 PUSH1 0xFF NOT DUP3 SLOAD AND OR SWAP1 SSTORE PUSH2 0x562 PUSH2 0x3136 JUMP JUMPDEST AND SWAP2 PUSH32 0x2F8788117E7EFF1D82E926EC794901D17C78024A50270940304540A733656F0D DUP5 DUP1 LOG4 CODESIZE DUP1 DUP1 DUP1 DUP5 DUP1 RETURN JUMPDEST SWAP2 POP CALLVALUE PUSH2 0x298 JUMPI DUP3 PUSH1 0x3 NOT CALLDATASIZE ADD SLT PUSH2 0x298 JUMPI CALLDATALOAD PUSH1 0x1 PUSH1 0x1 PUSH1 0xA0 SHL SUB DUP2 AND SWAP1 DUP2 SWAP1 SUB PUSH2 0x298 JUMPI DUP2 DUP1 DUP1 SWAP3 PUSH1 0x24 CALLDATALOAD SWAP1 PUSH2 0x5C5 PUSH2 0x2D5E JUMP JUMPDEST DUP3 DUP3 ISZERO PUSH2 0x5E1 JUMPI JUMPDEST CALL ISZERO PUSH2 0x5D7 JUMPI POP DUP1 RETURN JUMPDEST MLOAD SWAP1 RETURNDATASIZE SWAP1 DUP3 RETURNDATACOPY RETURNDATASIZE SWAP1 REVERT JUMPDEST POP PUSH2 0x8FC PUSH2 0x5CD JUMP JUMPDEST SWAP2 SWAP1 POP CALLVALUE PUSH2 0x417 JUMPI PUSH1 0x20 CALLDATASIZE PUSH1 0x3 NOT ADD SLT PUSH2 0x417 JUMPI PUSH2 0x648 SWAP1 PUSH1 0xFF PUSH2 0x60C PUSH2 0x3136 JUMP JUMPDEST PUSH1 0x0 DUP1 MLOAD PUSH1 0x20 PUSH2 0x31F3 DUP4 CODECOPY DUP2 MLOAD SWAP2 MSTORE DUP7 MSTORE PUSH1 0xFB PUSH1 0x20 SWAP1 DUP2 MSTORE DUP4 DUP8 KECCAK256 PUSH1 0x1 PUSH1 0x1 PUSH1 0xA0 SHL SUB SWAP3 DUP4 AND DUP9 MSTORE SWAP1 MSTORE SWAP2 DUP6 KECCAK256 SLOAD AND SWAP1 DUP2 ISZERO PUSH2 0x49B JUMPI POP PUSH2 0x3094 JUMP JUMPDEST CALLDATALOAD PUSH2 0x1C3 SSTORE DUP1 RETURN JUMPDEST POP POP CALLVALUE PUSH2 0x298 JUMPI PUSH1 0x20 CALLDATASIZE PUSH1 0x3 NOT ADD SLT PUSH2 0x298 JUMPI PUSH2 0x66B PUSH2 0x2777 JUMP JUMPDEST PUSH1 0xFF PUSH2 0x675 PUSH2 0x3136 JUMP JUMPDEST PUSH1 0x0 DUP1 MLOAD PUSH1 0x20 PUSH2 0x31F3 DUP4 CODECOPY DUP2 MLOAD SWAP2 MSTORE DUP6 MSTORE PUSH1 0xFB PUSH1 0x20 SWAP1 DUP2 MSTORE DUP5 DUP7 KECCAK256 PUSH1 0x1 PUSH1 0x1 PUSH1 0xA0 SHL SUB SWAP3 DUP4 AND DUP8 MSTORE SWAP1 MSTORE SWAP3 DUP5 KECCAK256 SLOAD AND DUP1 ISZERO PUSH2 0x6CB JUMPI JUMPDEST PUSH2 0x6B4 SWAP1 PUSH2 0x3094 JUMP JUMPDEST AND PUSH1 0x1 PUSH1 0x1 PUSH1 0x60 SHL SUB PUSH1 0xA0 SHL PUSH1 0x97 SLOAD AND OR PUSH1 0x97 SSTORE DUP1 RETURN JUMPDEST POP PUSH2 0x6B4 DUP3 PUSH1 0x33 SLOAD AND DUP4 PUSH2 0x6DD PUSH2 0x3136 JUMP JUMPDEST AND EQ SWAP1 POP PUSH2 0x6AB JUMP JUMPDEST SWAP2 SWAP1 POP CALLVALUE PUSH2 0x417 JUMPI DUP1 PUSH1 0x3 NOT CALLDATASIZE ADD SLT PUSH2 0x417 JUMPI PUSH2 0x722 SWAP2 CALLDATALOAD PUSH2 0x71D PUSH1 0x1 PUSH2 0x70B PUSH2 0x2792 JUMP JUMPDEST SWAP4 DUP4 DUP8 MSTORE PUSH1 0xFB PUSH1 0x20 MSTORE DUP7 KECCAK256 ADD SLOAD PUSH2 0x2921 JUMP JUMPDEST PUSH2 0x2CE4 JUMP JUMPDEST DUP1 RETURN JUMPDEST POP POP CALLVALUE PUSH2 0x298 JUMPI PUSH1 0x20 CALLDATASIZE PUSH1 0x3 NOT ADD SLT PUSH2 0x298 JUMPI PUSH2 0x740 PUSH2 0x2777 JUMP JUMPDEST SWAP1 PUSH2 0x749 PUSH2 0x2D5E JUMP JUMPDEST PUSH1 0x0 DUP1 MLOAD PUSH1 0x20 PUSH2 0x3193 DUP4 CODECOPY DUP2 MLOAD SWAP2 MSTORE SWAP2 DUP3 DUP5 MSTORE PUSH1 0xFB PUSH1 0x20 MSTORE DUP2 DUP5 KECCAK256 SWAP2 PUSH1 0x1 DUP1 PUSH1 0xA0 SHL SUB DUP1 SWAP3 AND SWAP3 DUP4 DUP7 MSTORE PUSH1 0x20 MSTORE PUSH1 0xFF DUP2 DUP7 KECCAK256 SLOAD AND PUSH2 0x785 JUMPI DUP5 DUP1 RETURN JUMPDEST DUP4 DUP6 MSTORE PUSH1 0xFB PUSH1 0x20 MSTORE DUP1 DUP6 KECCAK256 DUP4 DUP7 MSTORE PUSH1 0x20 MSTORE DUP5 KECCAK256 PUSH1 0xFF NOT DUP2 SLOAD AND SWAP1 SSTORE PUSH2 0x7A8 PUSH2 0x3136 JUMP JUMPDEST AND SWAP2 PUSH1 0x0 DUP1 MLOAD PUSH1 0x20 PUSH2 0x3213 DUP4 CODECOPY DUP2 MLOAD SWAP2 MSTORE DUP5 DUP1 LOG4 CODESIZE DUP1 DUP1 DUP1 DUP5 DUP1 RETURN JUMPDEST SWAP1 POP CALLVALUE PUSH2 0x417 JUMPI PUSH1 0x20 CALLDATASIZE PUSH1 0x3 NOT ADD SLT PUSH2 0x417 JUMPI PUSH1 0x20 SWAP3 DUP3 SWAP2 CALLDATALOAD DUP2 MSTORE PUSH2 0x1FA DUP5 MSTORE KECCAK256 SLOAD SWAP1 MLOAD SWAP1 DUP2 MSTORE RETURN JUMPDEST POP POP CALLVALUE PUSH2 0x298 JUMPI DUP2 PUSH1 0x3 NOT CALLDATASIZE ADD SLT PUSH2 0x298 JUMPI PUSH1 0x97 SLOAD SWAP1 MLOAD PUSH1 0x1 PUSH1 0x1 PUSH1 0xA0 SHL SUB SWAP1 SWAP2 AND DUP2 MSTORE PUSH1 0x20 SWAP1 RETURN JUMPDEST DUP4 DUP4 CALLVALUE PUSH2 0x298 JUMPI PUSH1 0x60 CALLDATASIZE PUSH1 0x3 NOT ADD SLT PUSH2 0x298 JUMPI DUP3 CALLDATALOAD SWAP3 PUSH2 0x834 PUSH2 0x2792 JUMP JUMPDEST SWAP3 PUSH1 0x44 CALLDATALOAD SWAP2 PUSH8 0xFFFFFFFFFFFFFFFF DUP1 DUP5 GT PUSH2 0x417 JUMPI CALLDATASIZE PUSH1 0x23 DUP6 ADD SLT ISZERO PUSH2 0x417 JUMPI DUP4 DUP3 ADD CALLDATALOAD DUP2 DUP2 GT PUSH2 0x413 JUMPI PUSH1 0x24 SWAP8 DUP9 DUP7 ADD SWAP6 DUP10 DUP4 CALLDATASIZE SWAP3 ADD ADD GT PUSH2 0x98E JUMPI PUSH2 0x879 PUSH2 0x303D JUMP JUMPDEST PUSH2 0x1F8 SLOAD PUSH1 0x1 PUSH1 0x1 PUSH1 0xA0 SHL SUB SWAP2 SWAP1 DUP3 AND CALLER SUB PUSH2 0xA29 JUMPI DUP1 DUP7 MSTORE PUSH1 0x20 SWAP9 PUSH2 0x1FA DUP11 MSTORE DUP9 DUP8 KECCAK256 SLOAD DUP8 MSTORE PUSH2 0x1FB DUP11 MSTORE DUP3 DUP1 DUP11 DUP10 KECCAK256 SLOAD AND SWAP2 AND SUB PUSH2 0x9CC JUMPI PUSH2 0x8BE CALLDATASIZE DUP5 DUP10 PUSH2 0x28EA JUMP JUMPDEST DUP10 DUP2 MLOAD SWAP2 ADD KECCAK256 SWAP1 DUP1 DUP8 MSTORE PUSH2 0x1FC SWAP1 DUP2 DUP12 MSTORE DUP10 DUP9 KECCAK256 DUP4 DUP10 MSTORE DUP12 MSTORE PUSH1 0xFF DUP11 DUP10 KECCAK256 SLOAD AND PUSH2 0x992 JUMPI DUP8 MSTORE DUP10 MSTORE DUP8 DUP7 KECCAK256 SWAP1 DUP7 MSTORE DUP9 MSTORE DUP7 DUP6 KECCAK256 DUP1 SLOAD PUSH1 0xFF NOT AND PUSH1 0x1 OR SWAP1 SSTORE PUSH2 0x1C4 SLOAD AND DUP1 EXTCODESIZE ISZERO PUSH2 0x98E JUMPI SWAP1 DUP5 SWAP2 DUP10 DUP4 DUP11 PUSH2 0x930 DUP12 MLOAD SWAP11 DUP12 SWAP7 DUP8 SWAP6 DUP7 SWAP5 PUSH4 0xE34381A1 PUSH1 0xE0 SHL DUP7 MSTORE DUP13 DUP7 ADD MSTORE DUP5 ADD SWAP2 PUSH2 0x301C JUMP JUMPDEST SUB SWAP3 GAS CALL DUP1 ISZERO PUSH2 0x984 JUMPI PUSH2 0x95A JUMPI JUMPDEST PUSH1 0x1 PUSH2 0x12D SSTORE DUP5 MLOAD DUP7 DUP2 MSTORE DUP1 PUSH2 0x956 DUP2 DUP10 ADD PUSH2 0x2816 JUMP JUMPDEST SUB SWAP1 RETURN JUMPDEST DUP4 GT PUSH2 0x972 JUMPI POP POP PUSH2 0x956 SWAP4 POP DUP2 MSTORE DUP4 DUP1 DUP1 DUP1 PUSH2 0x93F JUMP JUMPDEST PUSH4 0x4E487B71 PUSH1 0xE0 SHL DUP3 MSTORE PUSH1 0x41 SWAP1 MSTORE DUP5 SWAP1 REVERT JUMPDEST DUP6 MLOAD RETURNDATASIZE DUP6 DUP3 RETURNDATACOPY RETURNDATASIZE SWAP1 REVERT JUMPDEST DUP5 DUP1 REVERT JUMPDEST DUP10 MLOAD PUSH3 0x461BCD PUSH1 0xE5 SHL DUP2 MSTORE DUP1 DUP9 ADD DUP13 SWAP1 MSTORE PUSH1 0x15 DUP2 DUP15 ADD MSTORE PUSH21 0x4D65737361676520616C7265616479207365656E21 PUSH1 0x58 SHL PUSH1 0x44 DUP3 ADD MSTORE PUSH1 0x64 SWAP1 REVERT JUMPDEST DUP8 MLOAD PUSH3 0x461BCD PUSH1 0xE5 SHL DUP2 MSTORE DUP1 DUP7 ADD DUP11 SWAP1 MSTORE PUSH1 0x32 DUP2 DUP13 ADD MSTORE PUSH32 0x54656C65706F727465723A204F726967696E20426C6F636B636861696E204964 PUSH1 0x44 DUP3 ADD MSTORE PUSH18 0x81A5CC81B9BDD081C9959DA5CDD195C9959 PUSH1 0x72 SHL PUSH1 0x64 DUP3 ADD MSTORE PUSH1 0x84 SWAP1 REVERT JUMPDEST DUP8 MLOAD PUSH3 0x461BCD PUSH1 0xE5 SHL DUP2 MSTORE PUSH1 0x20 DUP2 DUP8 ADD MSTORE PUSH1 0x36 DUP2 DUP13 ADD MSTORE PUSH32 0x54656C65706F72746572496D706C3A204F6E6C792054656C65706F7274657220 PUSH1 0x44 DUP3 ADD MSTORE PUSH22 0x31B0B71031B0B636103A3434B990333AB731BA34B7B7 PUSH1 0x51 SHL PUSH1 0x64 DUP3 ADD MSTORE PUSH1 0x84 SWAP1 REVERT JUMPDEST SWAP1 POP CALLVALUE PUSH2 0x417 JUMPI PUSH1 0x20 CALLDATASIZE PUSH1 0x3 NOT ADD SLT PUSH2 0x417 JUMPI PUSH1 0x20 SWAP3 DUP3 SWAP2 CALLDATALOAD DUP2 MSTORE PUSH2 0x1F9 DUP5 MSTORE KECCAK256 SLOAD SWAP1 MLOAD SWAP1 DUP2 MSTORE RETURN JUMPDEST POP POP CALLVALUE PUSH2 0x298 JUMPI DUP2 PUSH1 0x3 NOT CALLDATASIZE ADD SLT PUSH2 0x298 JUMPI PUSH2 0x1C5 SLOAD SWAP1 MLOAD PUSH1 0x1 PUSH1 0x1 PUSH1 0xA0 SHL SUB SWAP1 SWAP2 AND DUP2 MSTORE PUSH1 0x20 SWAP1 RETURN JUMPDEST POP POP CALLVALUE PUSH2 0x298 JUMPI DUP2 PUSH1 0x3 NOT CALLDATASIZE ADD SLT PUSH2 0x298 JUMPI PUSH2 0x1C4 SLOAD SWAP1 MLOAD PUSH1 0x1 PUSH1 0x1 PUSH1 0xA0 SHL SUB SWAP1 SWAP2 AND DUP2 MSTORE PUSH1 0x20 SWAP1 RETURN JUMPDEST POP POP CALLVALUE PUSH2 0x298 JUMPI PUSH1 0x20 CALLDATASIZE PUSH1 0x3 NOT ADD SLT PUSH2 0x298 JUMPI PUSH2 0xB22 PUSH2 0x2777 JUMP JUMPDEST SWAP1 PUSH2 0xB2B PUSH2 0x2D5E JUMP JUMPDEST PUSH1 0x0 DUP1 MLOAD PUSH1 0x20 PUSH2 0x31F3 DUP4 CODECOPY DUP2 MLOAD SWAP2 MSTORE SWAP2 DUP3 DUP5 MSTORE PUSH1 0xFB PUSH1 0x20 MSTORE DUP2 DUP5 KECCAK256 SWAP2 PUSH1 0x1 DUP1 PUSH1 0xA0 SHL SUB DUP1 SWAP3 AND SWAP3 DUP4 DUP7 MSTORE PUSH1 0x20 MSTORE PUSH1 0xFF DUP2 DUP7 KECCAK256 SLOAD AND ISZERO PUSH2 0x53C JUMPI DUP5 DUP1 RETURN JUMPDEST POP POP CALLVALUE PUSH2 0x298 JUMPI DUP2 PUSH1 0x3 NOT CALLDATASIZE ADD SLT PUSH2 0x298 JUMPI MLOAD SWAP1 DUP2 MSTORE PUSH1 0x20 SWAP1 RETURN JUMPDEST POP POP CALLVALUE PUSH2 0x298 JUMPI DUP2 PUSH1 0x3 NOT CALLDATASIZE ADD SLT PUSH2 0x298 JUMPI PUSH2 0x1F8 SLOAD SWAP1 MLOAD PUSH1 0x1 PUSH1 0x1 PUSH1 0xA0 SHL SUB SWAP1 SWAP2 AND DUP2 MSTORE PUSH1 0x20 SWAP1 RETURN JUMPDEST POP POP CALLVALUE PUSH2 0x298 JUMPI DUP2 PUSH1 0x3 NOT CALLDATASIZE ADD SLT PUSH2 0x298 JUMPI PUSH1 0x20 SWAP1 PUSH2 0x1C3 SLOAD SWAP1 MLOAD SWAP1 DUP2 MSTORE RETURN JUMPDEST SWAP1 POP CALLVALUE PUSH2 0x417 JUMPI DUP2 PUSH1 0x3 NOT CALLDATASIZE ADD SLT PUSH2 0x417 JUMPI DUP2 PUSH1 0x20 SWAP4 PUSH1 0xFF SWAP3 PUSH2 0xBEE PUSH2 0x2792 JUMP JUMPDEST SWAP1 CALLDATALOAD DUP3 MSTORE PUSH1 0xFB DUP7 MSTORE DUP3 DUP3 KECCAK256 PUSH1 0x1 PUSH1 0x1 PUSH1 0xA0 SHL SUB SWAP1 SWAP2 AND DUP3 MSTORE DUP6 MSTORE KECCAK256 SLOAD SWAP2 MLOAD SWAP2 AND ISZERO ISZERO DUP2 MSTORE RETURN JUMPDEST POP POP CALLVALUE PUSH2 0x298 JUMPI DUP2 PUSH1 0x3 NOT CALLDATASIZE ADD SLT PUSH2 0x298 JUMPI PUSH1 0x33 SLOAD SWAP1 MLOAD PUSH1 0x1 PUSH1 0x1 PUSH1 0xA0 SHL SUB SWAP1 SWAP2 AND DUP2 MSTORE PUSH1 0x20 SWAP1 RETURN JUMPDEST DUP4 DUP4 CALLVALUE PUSH2 0x298 JUMPI DUP2 PUSH1 0x3 NOT CALLDATASIZE ADD SLT PUSH2 0x298 JUMPI PUSH2 0xC57 PUSH2 0x3136 JUMP JUMPDEST PUSH1 0x0 DUP1 MLOAD PUSH1 0x20 PUSH2 0x31D3 DUP4 CODECOPY DUP2 MLOAD SWAP2 MSTORE DUP4 MSTORE PUSH1 0xFB PUSH1 0x20 SWAP1 DUP2 MSTORE DUP3 DUP5 KECCAK256 PUSH1 0x1 PUSH1 0x1 PUSH1 0xA0 SHL SUB SWAP3 DUP4 AND DUP6 MSTORE DUP2 MSTORE DUP3 DUP5 KECCAK256 SLOAD SWAP1 SWAP3 SWAP2 SWAP1 PUSH1 0xFF AND DUP1 ISZERO PUSH2 0xD4D JUMPI JUMPDEST DUP1 ISZERO PUSH2 0xD32 JUMPI JUMPDEST PUSH2 0xCA3 SWAP1 PUSH2 0x3094 JUMP JUMPDEST PUSH1 0x97 SLOAD SWAP5 PUSH1 0xFF DUP7 PUSH1 0xA0 SHR AND PUSH2 0xCFC JUMPI POP PUSH1 0xFF PUSH1 0xA0 SHL NOT SWAP1 SWAP5 AND PUSH1 0x1 PUSH1 0xA0 SHL OR PUSH1 0x97 SSTORE SWAP2 SWAP3 PUSH32 0x62E78CEA01BEE320CD4E420270B5EA74000D11B0C9F74754EBDBFC544B05A258 SWAP3 SWAP1 PUSH2 0xCF2 PUSH2 0x3136 JUMP JUMPDEST SWAP2 MLOAD SWAP2 AND DUP2 MSTORE LOG1 DUP1 RETURN JUMPDEST DUP3 MLOAD PUSH3 0x461BCD PUSH1 0xE5 SHL DUP2 MSTORE SWAP1 DUP2 ADD DUP5 SWAP1 MSTORE PUSH1 0x10 PUSH1 0x24 DUP3 ADD MSTORE PUSH16 0x14185D5CD8589B194E881C185D5CD959 PUSH1 0x82 SHL PUSH1 0x44 DUP3 ADD MSTORE PUSH1 0x64 SWAP1 REVERT JUMPDEST POP PUSH2 0xCA3 DUP2 PUSH1 0x33 SLOAD AND DUP3 PUSH2 0xD44 PUSH2 0x3136 JUMP JUMPDEST AND EQ SWAP1 POP PUSH2 0xC9A JUMP JUMPDEST POP PUSH2 0xD56 PUSH2 0x3136 JUMP JUMPDEST PUSH1 0x0 DUP1 MLOAD PUSH1 0x20 PUSH2 0x31F3 DUP4 CODECOPY DUP2 MLOAD SWAP2 MSTORE DUP6 MSTORE PUSH1 0xFB DUP5 MSTORE DUP2 DUP4 DUP7 KECCAK256 SWAP2 AND DUP6 MSTORE DUP4 MSTORE PUSH1 0xFF DUP3 DUP6 KECCAK256 SLOAD AND PUSH2 0xC93 JUMP JUMPDEST POP POP CALLVALUE PUSH2 0x298 JUMPI PUSH1 0x20 SWAP1 DUP2 PUSH1 0x3 NOT CALLDATASIZE ADD SLT PUSH2 0x417 JUMPI PUSH2 0xD9E PUSH2 0x2777 JUMP JUMPDEST SWAP1 PUSH2 0xDA7 PUSH2 0x3136 JUMP JUMPDEST PUSH1 0x0 DUP1 MLOAD PUSH1 0x20 PUSH2 0x31F3 DUP4 CODECOPY DUP2 MLOAD SWAP2 MSTORE DUP6 MSTORE PUSH1 0xFB DUP5 MSTORE DUP2 DUP6 KECCAK256 PUSH1 0x1 PUSH1 0x1 PUSH1 0xA0 SHL SUB SWAP2 DUP3 AND DUP7 MSTORE DUP5 MSTORE DUP2 DUP6 KECCAK256 SLOAD SWAP1 SWAP2 SWAP1 PUSH1 0xFF AND DUP1 ISZERO PUSH2 0xE6E JUMPI JUMPDEST PUSH2 0xDE8 SWAP1 PUSH2 0x3094 JUMP JUMPDEST PUSH1 0x0 DUP1 MLOAD PUSH1 0x20 PUSH2 0x31D3 DUP4 CODECOPY DUP2 MLOAD SWAP2 MSTORE SWAP4 DUP5 DUP7 MSTORE PUSH1 0xFB DUP2 MSTORE DUP3 DUP3 DUP8 KECCAK256 SWAP5 AND SWAP4 DUP5 DUP8 MSTORE DUP2 MSTORE PUSH1 0xFF DUP3 DUP8 KECCAK256 SLOAD AND ISZERO PUSH2 0xE1B JUMPI DUP6 DUP1 RETURN JUMPDEST DUP5 DUP7 MSTORE PUSH1 0xFB DUP2 MSTORE DUP2 DUP7 KECCAK256 DUP5 DUP8 MSTORE SWAP1 MSTORE DUP5 KECCAK256 DUP1 SLOAD PUSH1 0xFF NOT AND PUSH1 0x1 OR SWAP1 SSTORE PUSH2 0xE3F PUSH2 0x3136 JUMP JUMPDEST AND SWAP2 PUSH32 0x2F8788117E7EFF1D82E926EC794901D17C78024A50270940304540A733656F0D DUP5 DUP1 LOG4 CODESIZE DUP1 DUP1 DUP1 DUP1 DUP6 DUP1 RETURN JUMPDEST POP PUSH2 0xDE8 DUP3 PUSH1 0x33 SLOAD AND DUP4 PUSH2 0xE80 PUSH2 0x3136 JUMP JUMPDEST AND EQ SWAP1 POP PUSH2 0xDDF JUMP JUMPDEST POP POP CALLVALUE PUSH2 0x298 JUMPI DUP2 PUSH1 0x3 NOT CALLDATASIZE ADD SLT PUSH2 0x298 JUMPI PUSH1 0x20 SWAP1 MLOAD PUSH1 0x0 DUP1 MLOAD PUSH1 0x20 PUSH2 0x3233 DUP4 CODECOPY DUP2 MLOAD SWAP2 MSTORE DUP2 MSTORE RETURN JUMPDEST DUP4 CALLVALUE PUSH2 0xF0F JUMPI DUP1 PUSH1 0x3 NOT CALLDATASIZE ADD SLT PUSH2 0xF0F JUMPI PUSH2 0xECB PUSH2 0x2D5E JUMP JUMPDEST PUSH1 0x33 DUP1 SLOAD PUSH1 0x1 PUSH1 0x1 PUSH1 0xA0 SHL SUB NOT DUP2 AND SWAP1 SWAP2 SSTORE DUP2 SWAP1 PUSH1 0x1 PUSH1 0x1 PUSH1 0xA0 SHL SUB AND PUSH32 0x8BE0079C531659141344CD1FD0A4F28419497F9722A3DAAFE3B4186F6B6457E0 DUP3 DUP1 LOG3 DUP1 RETURN JUMPDEST DUP1 REVERT JUMPDEST POP POP CALLVALUE PUSH2 0x298 JUMPI PUSH1 0x20 SWAP1 DUP2 PUSH1 0x3 NOT CALLDATASIZE ADD SLT PUSH2 0x417 JUMPI PUSH2 0xF2F PUSH2 0x2777 JUMP JUMPDEST SWAP1 PUSH2 0xF38 PUSH2 0x3136 JUMP JUMPDEST PUSH1 0x0 DUP1 MLOAD PUSH1 0x20 PUSH2 0x31F3 DUP4 CODECOPY DUP2 MLOAD SWAP2 MSTORE DUP6 MSTORE PUSH1 0xFB DUP5 MSTORE DUP2 DUP6 KECCAK256 PUSH1 0x1 PUSH1 0x1 PUSH1 0xA0 SHL SUB SWAP2 DUP3 AND DUP7 MSTORE DUP5 MSTORE DUP2 DUP6 KECCAK256 SLOAD SWAP1 SWAP2 SWAP1 PUSH1 0xFF AND DUP1 ISZERO PUSH2 0xFAC JUMPI JUMPDEST PUSH2 0xF79 SWAP1 PUSH2 0x3094 JUMP JUMPDEST PUSH1 0x0 DUP1 MLOAD PUSH1 0x20 PUSH2 0x3233 DUP4 CODECOPY DUP2 MLOAD SWAP2 MSTORE SWAP4 DUP5 DUP7 MSTORE PUSH1 0xFB DUP2 MSTORE DUP3 DUP3 DUP8 KECCAK256 SWAP5 AND SWAP4 DUP5 DUP8 MSTORE DUP2 MSTORE PUSH1 0xFF DUP3 DUP8 KECCAK256 SLOAD AND ISZERO PUSH2 0xE1B JUMPI DUP6 DUP1 RETURN JUMPDEST POP PUSH2 0xF79 DUP3 PUSH1 0x33 SLOAD AND DUP4 PUSH2 0xFBE PUSH2 0x3136 JUMP JUMPDEST AND EQ SWAP1 POP PUSH2 0xF70 JUMP JUMPDEST SWAP2 SWAP1 POP CALLVALUE PUSH2 0x417 JUMPI PUSH1 0x60 CALLDATASIZE PUSH1 0x3 NOT ADD SLT PUSH2 0x417 JUMPI PUSH1 0x20 PUSH2 0xFE5 PUSH2 0x2777 JUMP JUMPDEST PUSH1 0x44 PUSH2 0xFEF PUSH2 0x2792 JUMP JUMPDEST SWAP5 PUSH2 0xFF8 PUSH2 0x2D5E JUMP JUMPDEST DUP5 MLOAD PUSH4 0xA9059CBB PUSH1 0xE0 SHL DUP2 MSTORE PUSH1 0x1 PUSH1 0x1 PUSH1 0xA0 SHL SUB SWAP7 DUP8 AND SWAP2 DUP2 ADD SWAP2 SWAP1 SWAP2 MSTORE DUP2 CALLDATALOAD PUSH1 0x24 DUP3 ADD MSTORE SWAP5 DUP6 SWAP3 DUP4 SWAP2 DUP9 SWAP2 AND GAS CALL SWAP1 DUP2 ISZERO PUSH2 0x106B JUMPI POP PUSH2 0x1037 JUMPI POP DUP1 RETURN JUMPDEST PUSH1 0x20 DUP2 RETURNDATASIZE DUP3 GT PUSH2 0x1063 JUMPI JUMPDEST DUP2 PUSH2 0x104F PUSH1 0x20 SWAP4 DUP4 PUSH2 0x28AC JUMP JUMPDEST DUP2 ADD SUB SLT PUSH2 0x298 JUMPI MLOAD DUP1 ISZERO ISZERO SUB PUSH2 0xF0F JUMPI DUP1 RETURN JUMPDEST RETURNDATASIZE SWAP2 POP PUSH2 0x1042 JUMP JUMPDEST MLOAD RETURNDATASIZE DUP5 DUP3 RETURNDATACOPY RETURNDATASIZE SWAP1 REVERT JUMPDEST POP POP CALLVALUE PUSH2 0x298 JUMPI PUSH1 0x20 SWAP1 DUP2 PUSH1 0x3 NOT CALLDATASIZE ADD SLT PUSH2 0x417 JUMPI PUSH2 0x1091 PUSH2 0x2777 JUMP JUMPDEST SWAP1 PUSH2 0x109A PUSH2 0x3136 JUMP JUMPDEST PUSH1 0x0 DUP1 MLOAD PUSH1 0x20 PUSH2 0x31F3 DUP4 CODECOPY DUP2 MLOAD SWAP2 MSTORE DUP6 MSTORE PUSH1 0xFB DUP5 MSTORE DUP2 DUP6 KECCAK256 PUSH1 0x1 PUSH1 0x1 PUSH1 0xA0 SHL SUB SWAP2 DUP3 AND DUP7 MSTORE DUP5 MSTORE DUP2 DUP6 KECCAK256 SLOAD SWAP1 SWAP2 SWAP1 PUSH1 0xFF AND DUP1 ISZERO PUSH2 0x114B JUMPI JUMPDEST PUSH2 0x10DB SWAP1 PUSH2 0x3094 JUMP JUMPDEST PUSH1 0x0 DUP1 MLOAD PUSH1 0x20 PUSH2 0x31D3 DUP4 CODECOPY DUP2 MLOAD SWAP2 MSTORE SWAP4 DUP5 DUP7 MSTORE PUSH1 0xFB DUP2 MSTORE DUP3 DUP3 DUP8 KECCAK256 SWAP5 AND SWAP4 DUP5 DUP8 MSTORE DUP2 MSTORE PUSH1 0xFF DUP3 DUP8 KECCAK256 SLOAD AND PUSH2 0x110D JUMPI DUP6 DUP1 RETURN JUMPDEST DUP5 DUP7 MSTORE PUSH1 0xFB DUP2 MSTORE DUP2 DUP7 KECCAK256 DUP5 DUP8 MSTORE SWAP1 MSTORE DUP5 KECCAK256 DUP1 SLOAD PUSH1 0xFF NOT AND SWAP1 SSTORE PUSH2 0x112E PUSH2 0x3136 JUMP JUMPDEST AND SWAP2 PUSH1 0x0 DUP1 MLOAD PUSH1 0x20 PUSH2 0x3213 DUP4 CODECOPY DUP2 MLOAD SWAP2 MSTORE DUP5 DUP1 LOG4 CODESIZE DUP1 DUP1 DUP1 DUP1 DUP6 DUP1 RETURN JUMPDEST POP PUSH2 0x10DB DUP3 PUSH1 0x33 SLOAD AND DUP4 PUSH2 0x115D PUSH2 0x3136 JUMP JUMPDEST AND EQ SWAP1 POP PUSH2 0x10D2 JUMP JUMPDEST SWAP1 POP CALLVALUE PUSH2 0x417 JUMPI DUP2 PUSH1 0x3 NOT CALLDATASIZE ADD SLT PUSH2 0x417 JUMPI CALLDATALOAD SWAP1 PUSH1 0x24 CALLDATALOAD PUSH2 0x11C6 PUSH2 0x1188 PUSH2 0x3136 JUMP JUMPDEST PUSH1 0x0 DUP1 MLOAD PUSH1 0x20 PUSH2 0x31F3 DUP4 CODECOPY DUP2 MLOAD SWAP2 MSTORE DUP7 MSTORE PUSH1 0xFB PUSH1 0x20 SWAP1 DUP2 MSTORE DUP5 DUP8 KECCAK256 PUSH1 0x1 PUSH1 0x1 PUSH1 0xA0 SHL SUB SWAP3 DUP4 AND DUP9 MSTORE SWAP1 MSTORE DUP4 DUP7 KECCAK256 SLOAD PUSH1 0xFF AND SWAP1 DUP2 ISZERO PUSH2 0x49B JUMPI POP PUSH2 0x3094 JUMP JUMPDEST DUP3 DUP5 MSTORE PUSH2 0x1F9 PUSH1 0x20 MSTORE DUP1 DUP3 DUP6 KECCAK256 SSTORE DUP4 MSTORE PUSH2 0x1FA PUSH1 0x20 MSTORE DUP3 KECCAK256 SSTORE DUP1 RETURN JUMPDEST SWAP1 POP DUP3 CALLVALUE PUSH2 0xF0F JUMPI POP PUSH1 0x20 PUSH1 0x64 SWAP3 PUSH2 0x11F9 CALLDATASIZE PUSH2 0x27BC JUMP JUMPDEST POP POP MLOAD PUSH3 0x461BCD PUSH1 0xE5 SHL DUP2 MSTORE SWAP2 DUP3 ADD MSTORE PUSH1 0xD PUSH1 0x24 DUP3 ADD MSTORE PUSH13 0x139BDD0814DD5C1C1BDC9D1959 PUSH1 0x9A SHL PUSH1 0x44 DUP3 ADD MSTORE REVERT JUMPDEST POP POP CALLVALUE PUSH2 0x298 JUMPI DUP2 PUSH1 0x3 NOT CALLDATASIZE ADD SLT PUSH2 0x298 JUMPI PUSH1 0x20 SWAP1 PUSH1 0xFF PUSH1 0x97 SLOAD PUSH1 0xA0 SHR AND SWAP1 MLOAD SWAP1 ISZERO ISZERO DUP2 MSTORE RETURN JUMPDEST POP POP CALLVALUE PUSH2 0x298 JUMPI PUSH1 0x20 CALLDATASIZE PUSH1 0x3 NOT ADD SLT PUSH2 0x298 JUMPI PUSH1 0x20 SWAP1 PUSH2 0x126D PUSH2 0x2777 JUMP JUMPDEST PUSH1 0x1 DUP1 PUSH1 0xA0 SHL SUB DUP1 PUSH1 0x97 SLOAD AND SWAP2 AND EQ SWAP1 MLOAD SWAP1 DUP2 MSTORE RETURN JUMPDEST SWAP1 POP DUP3 CALLVALUE PUSH2 0xF0F JUMPI DUP1 PUSH1 0x3 NOT CALLDATASIZE ADD SLT PUSH2 0xF0F JUMPI POP PUSH32 0x0 PUSH1 0x1 PUSH1 0x1 PUSH1 0xA0 SHL SUB AND ADDRESS SUB PUSH2 0x12DE JUMPI PUSH1 0x20 DUP3 MLOAD PUSH1 0x0 DUP1 MLOAD PUSH1 0x20 PUSH2 0x31B3 DUP4 CODECOPY DUP2 MLOAD SWAP2 MSTORE DUP2 MSTORE RETURN JUMPDEST PUSH1 0x20 PUSH1 0x84 SWAP3 MLOAD SWAP2 PUSH3 0x461BCD PUSH1 0xE5 SHL DUP4 MSTORE DUP3 ADD MSTORE PUSH1 0x38 PUSH1 0x24 DUP3 ADD MSTORE PUSH32 0x555550535570677261646561626C653A206D757374206E6F742062652063616C PUSH1 0x44 DUP3 ADD MSTORE PUSH32 0x6C6564207468726F7567682064656C656761746563616C6C0000000000000000 PUSH1 0x64 DUP3 ADD MSTORE REVERT JUMPDEST SWAP2 DUP1 SWAP2 POP PUSH1 0x3 NOT CALLDATASIZE ADD SLT PUSH2 0x417 JUMPI PUSH2 0x135C PUSH2 0x2777 JUMP JUMPDEST SWAP1 PUSH1 0x24 CALLDATALOAD PUSH8 0xFFFFFFFFFFFFFFFF DUP2 GT PUSH2 0x98E JUMPI CALLDATASIZE PUSH1 0x23 DUP3 ADD SLT ISZERO PUSH2 0x98E JUMPI PUSH2 0x138D SWAP1 CALLDATASIZE SWAP1 PUSH1 0x24 DUP2 DUP8 ADD CALLDATALOAD SWAP2 ADD PUSH2 0x28EA JUMP JUMPDEST PUSH1 0x1 PUSH1 0x1 PUSH1 0xA0 SHL SUB SWAP2 SWAP1 PUSH32 0x0 DUP4 AND PUSH2 0x13C6 ADDRESS DUP3 EQ ISZERO PUSH2 0x2E0A JUMP JUMPDEST PUSH2 0x13E3 PUSH1 0x0 DUP1 MLOAD PUSH1 0x20 PUSH2 0x31B3 DUP4 CODECOPY DUP2 MLOAD SWAP2 MSTORE SWAP2 DUP6 DUP4 SLOAD AND EQ PUSH2 0x2E6B JUMP JUMPDEST PUSH2 0x13EB PUSH2 0x3136 JUMP JUMPDEST SWAP4 PUSH1 0x0 DUP1 MLOAD PUSH1 0x20 PUSH2 0x3193 DUP4 CODECOPY DUP2 MLOAD SWAP2 MSTORE DUP9 MSTORE PUSH1 0x20 SWAP5 PUSH1 0xFB DUP7 MSTORE DUP2 DUP6 DUP11 KECCAK256 SWAP2 AND DUP10 MSTORE DUP6 MSTORE PUSH1 0xFF DUP5 DUP10 KECCAK256 SLOAD AND DUP1 ISZERO PUSH2 0x1650 JUMPI JUMPDEST PUSH2 0x1425 SWAP1 PUSH2 0x3094 JUMP JUMPDEST PUSH32 0x4910FDFA16FED3260ED0E7147F7CC6DA11A60208B5B9406D12A635614FFD9143 SLOAD PUSH1 0xFF AND ISZERO PUSH2 0x145E JUMPI POP POP POP POP POP PUSH2 0x722 SWAP2 POP PUSH2 0x2ECC JUMP JUMPDEST DUP6 SWAP4 SWAP5 SWAP6 AND SWAP1 DUP5 MLOAD PUSH4 0x52D1902D PUSH1 0xE0 SHL DUP2 MSTORE DUP7 DUP2 DUP10 DUP2 DUP7 GAS STATICCALL DUP10 SWAP2 DUP2 PUSH2 0x161D JUMPI JUMPDEST POP PUSH2 0x14DE JUMPI DUP6 MLOAD PUSH3 0x461BCD PUSH1 0xE5 SHL DUP2 MSTORE DUP1 DUP10 ADD DUP9 SWAP1 MSTORE PUSH1 0x2E PUSH1 0x24 DUP3 ADD MSTORE PUSH32 0x45524331393637557067726164653A206E657720696D706C656D656E74617469 PUSH1 0x44 DUP3 ADD MSTORE PUSH14 0x6F6E206973206E6F742055555053 PUSH1 0x90 SHL PUSH1 0x64 DUP3 ADD MSTORE PUSH1 0x84 SWAP1 REVERT JUMPDEST SWAP7 SWAP2 SWAP3 SWAP6 SWAP5 SWAP4 SWAP7 SUB PUSH2 0x15C8 JUMPI POP PUSH2 0x14F4 DUP6 PUSH2 0x2ECC JUMP JUMPDEST PUSH32 0xBC7CD75A20EE27FD9ADEBAB32041F755214DBC6BFFA90CC0225B39DA2E5C2D3B DUP7 DUP1 LOG2 DUP3 MLOAD ISZERO DUP1 ISZERO SWAP1 PUSH2 0x15C0 JUMPI JUMPDEST PUSH2 0x152F JUMPI JUMPDEST POP POP POP POP DUP1 RETURN JUMPDEST PUSH2 0x15AC SWAP4 DUP6 DUP1 DUP4 MLOAD SWAP6 PUSH2 0x1541 DUP8 PUSH2 0x287A JUMP JUMPDEST PUSH1 0x27 DUP8 MSTORE PUSH32 0x416464726573733A206C6F772D6C6576656C2064656C65676174652063616C6C DUP7 DUP9 ADD MSTORE PUSH7 0x819985A5B1959 PUSH1 0xCA SHL DUP6 DUP9 ADD MSTORE DUP6 DUP2 MLOAD SWAP2 ADD DUP5 GAS DELEGATECALL SWAP2 RETURNDATASIZE ISZERO PUSH2 0x15B6 JUMPI RETURNDATASIZE PUSH2 0x159E PUSH2 0x1595 DUP3 PUSH2 0x28CE JUMP JUMPDEST SWAP3 MLOAD SWAP3 DUP4 PUSH2 0x28AC JUMP JUMPDEST DUP2 MSTORE DUP7 DUP2 SWAP5 RETURNDATASIZE SWAP3 ADD RETURNDATACOPY PUSH2 0x2F5C JUMP JUMPDEST POP CODESIZE DUP1 DUP1 DUP1 PUSH2 0x1528 JUMP JUMPDEST POP PUSH1 0x60 SWAP3 POP PUSH2 0x2F5C JUMP JUMPDEST POP PUSH1 0x1 PUSH2 0x1523 JUMP JUMPDEST DUP3 MLOAD PUSH3 0x461BCD PUSH1 0xE5 SHL DUP2 MSTORE SWAP1 DUP2 ADD DUP5 SWAP1 MSTORE PUSH1 0x29 PUSH1 0x24 DUP3 ADD MSTORE PUSH32 0x45524331393637557067726164653A20756E737570706F727465642070726F78 PUSH1 0x44 DUP3 ADD MSTORE PUSH9 0x1A58589B1955555251 PUSH1 0xBA SHL PUSH1 0x64 DUP3 ADD MSTORE PUSH1 0x84 SWAP1 REVERT JUMPDEST SWAP1 SWAP2 POP DUP8 DUP2 DUP2 RETURNDATASIZE DUP4 GT PUSH2 0x1649 JUMPI JUMPDEST PUSH2 0x1635 DUP2 DUP4 PUSH2 0x28AC JUMP JUMPDEST DUP2 ADD SUB SLT PUSH2 0x1645 JUMPI MLOAD SWAP1 CODESIZE PUSH2 0x147F JUMP JUMPDEST DUP10 DUP1 REVERT JUMPDEST POP RETURNDATASIZE PUSH2 0x162B JUMP JUMPDEST POP PUSH2 0x1425 DUP2 PUSH1 0x33 SLOAD AND DUP3 PUSH2 0x1662 PUSH2 0x3136 JUMP JUMPDEST AND EQ SWAP1 POP PUSH2 0x141C JUMP JUMPDEST POP POP CALLVALUE PUSH2 0x298 JUMPI PUSH1 0x20 CALLDATASIZE PUSH1 0x3 NOT ADD SLT PUSH2 0x298 JUMPI PUSH2 0x1686 PUSH2 0x2777 JUMP JUMPDEST SWAP1 PUSH1 0xFF PUSH2 0x1691 PUSH2 0x3136 JUMP JUMPDEST PUSH1 0x0 DUP1 MLOAD PUSH1 0x20 PUSH2 0x31F3 DUP4 CODECOPY DUP2 MLOAD SWAP2 MSTORE DUP6 MSTORE PUSH1 0xFB PUSH1 0x20 SWAP1 DUP2 MSTORE DUP4 DUP7 KECCAK256 PUSH1 0x1 PUSH1 0x1 PUSH1 0xA0 SHL SUB SWAP3 DUP4 AND DUP8 MSTORE SWAP1 MSTORE SWAP2 DUP5 KECCAK256 SLOAD AND DUP1 ISZERO PUSH2 0x16E9 JUMPI JUMPDEST PUSH2 0x16D0 SWAP1 PUSH2 0x3094 JUMP JUMPDEST PUSH2 0x1C4 SWAP2 AND PUSH1 0x1 PUSH1 0x1 PUSH1 0x60 SHL SUB PUSH1 0xA0 SHL DUP3 SLOAD AND OR SWAP1 SSTORE DUP1 RETURN JUMPDEST POP PUSH2 0x16D0 DUP2 PUSH1 0x33 SLOAD AND DUP3 PUSH2 0x16FB PUSH2 0x3136 JUMP JUMPDEST AND EQ SWAP1 POP PUSH2 0x16C7 JUMP JUMPDEST POP POP CALLVALUE PUSH2 0x298 JUMPI PUSH1 0x20 CALLDATASIZE PUSH1 0x3 NOT ADD SLT PUSH2 0x298 JUMPI PUSH2 0x171F PUSH2 0x2777 JUMP JUMPDEST SWAP1 PUSH2 0x1728 PUSH2 0x2D5E JUMP JUMPDEST PUSH1 0x0 DUP1 MLOAD PUSH1 0x20 PUSH2 0x31F3 DUP4 CODECOPY DUP2 MLOAD SWAP2 MSTORE SWAP2 DUP3 DUP5 MSTORE PUSH1 0xFB PUSH1 0x20 MSTORE DUP2 DUP5 KECCAK256 SWAP2 PUSH1 0x1 DUP1 PUSH1 0xA0 SHL SUB DUP1 SWAP3 AND SWAP3 DUP4 DUP7 MSTORE PUSH1 0x20 MSTORE PUSH1 0xFF DUP2 DUP7 KECCAK256 SLOAD AND PUSH2 0x785 JUMPI DUP5 DUP1 RETURN JUMPDEST SWAP1 POP CALLVALUE PUSH2 0x417 JUMPI DUP2 PUSH1 0x3 NOT CALLDATASIZE ADD SLT PUSH2 0x417 JUMPI PUSH2 0x177E PUSH2 0x2792 JUMP JUMPDEST SWAP2 PUSH2 0x1787 PUSH2 0x3136 JUMP JUMPDEST SWAP2 PUSH1 0x0 DUP1 MLOAD PUSH1 0x20 PUSH2 0x31F3 DUP4 CODECOPY DUP2 MLOAD SWAP2 MSTORE DUP6 MSTORE PUSH1 0xFB PUSH1 0x20 MSTORE DUP2 DUP6 KECCAK256 PUSH1 0x1 DUP1 PUSH1 0xA0 SHL SUB DUP1 SWAP5 AND DUP7 MSTORE PUSH1 0x20 MSTORE PUSH1 0xFF DUP3 DUP7 KECCAK256 SLOAD AND DUP1 ISZERO PUSH2 0x17E8 JUMPI JUMPDEST PUSH2 0x17C7 SWAP1 PUSH2 0x3094 JUMP JUMPDEST CALLDATALOAD DUP5 MSTORE PUSH2 0x1FB PUSH1 0x20 MSTORE DUP4 KECCAK256 SWAP2 AND PUSH1 0x1 PUSH1 0x1 PUSH1 0x60 SHL SUB PUSH1 0xA0 SHL DUP3 SLOAD AND OR SWAP1 SSTORE DUP1 RETURN JUMPDEST POP PUSH2 0x17C7 DUP4 PUSH1 0x33 SLOAD AND DUP5 PUSH2 0x17FA PUSH2 0x3136 JUMP JUMPDEST AND EQ SWAP1 POP PUSH2 0x17BE JUMP JUMPDEST POP POP CALLVALUE PUSH2 0x298 JUMPI DUP2 PUSH1 0x3 NOT CALLDATASIZE ADD SLT PUSH2 0x298 JUMPI PUSH1 0x20 SWAP1 MLOAD PUSH1 0x0 DUP1 MLOAD PUSH1 0x20 PUSH2 0x31F3 DUP4 CODECOPY DUP2 MLOAD SWAP2 MSTORE DUP2 MSTORE RETURN JUMPDEST DUP4 DUP4 CALLVALUE PUSH2 0x298 JUMPI DUP2 PUSH1 0x3 NOT CALLDATASIZE ADD SLT PUSH2 0x298 JUMPI PUSH2 0x1846 PUSH2 0x3136 JUMP JUMPDEST PUSH1 0x0 DUP1 MLOAD PUSH1 0x20 PUSH2 0x31D3 DUP4 CODECOPY DUP2 MLOAD SWAP2 MSTORE DUP4 MSTORE PUSH1 0xFB PUSH1 0x20 SWAP1 DUP2 MSTORE DUP3 DUP5 KECCAK256 PUSH1 0x1 PUSH1 0x1 PUSH1 0xA0 SHL SUB SWAP3 DUP4 AND DUP6 MSTORE DUP2 MSTORE DUP3 DUP5 KECCAK256 SLOAD SWAP1 SWAP3 SWAP2 SWAP1 PUSH1 0xFF AND DUP1 ISZERO PUSH2 0x192D JUMPI JUMPDEST DUP1 ISZERO PUSH2 0x1912 JUMPI JUMPDEST PUSH2 0x1892 SWAP1 PUSH2 0x3094 JUMP JUMPDEST PUSH1 0x97 SLOAD SWAP5 PUSH1 0xFF DUP7 PUSH1 0xA0 SHR AND ISZERO PUSH2 0x18D8 JUMPI POP PUSH32 0x5DB9EE0A495BF2E6FF9C91A7834C1BA4FDD244A5E8AA4E537BD38AEAE4B073AA SWAP4 SWAP5 PUSH1 0xFF PUSH1 0xA0 SHL NOT AND PUSH1 0x97 SSTORE PUSH2 0xCF2 PUSH2 0x3136 JUMP JUMPDEST DUP3 MLOAD PUSH3 0x461BCD PUSH1 0xE5 SHL DUP2 MSTORE SWAP1 DUP2 ADD DUP5 SWAP1 MSTORE PUSH1 0x14 PUSH1 0x24 DUP3 ADD MSTORE PUSH20 0x14185D5CD8589B194E881B9BDD081C185D5CD959 PUSH1 0x62 SHL PUSH1 0x44 DUP3 ADD MSTORE PUSH1 0x64 SWAP1 REVERT JUMPDEST POP PUSH2 0x1892 DUP2 PUSH1 0x33 SLOAD AND DUP3 PUSH2 0x1924 PUSH2 0x3136 JUMP JUMPDEST AND EQ SWAP1 POP PUSH2 0x1889 JUMP JUMPDEST POP PUSH2 0x1936 PUSH2 0x3136 JUMP JUMPDEST PUSH1 0x0 DUP1 MLOAD PUSH1 0x20 PUSH2 0x31F3 DUP4 CODECOPY DUP2 MLOAD SWAP2 MSTORE DUP6 MSTORE PUSH1 0xFB DUP5 MSTORE DUP2 DUP4 DUP7 KECCAK256 SWAP2 AND DUP6 MSTORE DUP4 MSTORE PUSH1 0xFF DUP3 DUP6 KECCAK256 SLOAD AND PUSH2 0x1882 JUMP JUMPDEST POP POP CALLVALUE PUSH2 0x298 JUMPI DUP2 PUSH1 0x3 NOT CALLDATASIZE ADD SLT PUSH2 0x298 JUMPI PUSH2 0x1C6 SLOAD SWAP1 MLOAD PUSH1 0x1 PUSH1 0x1 PUSH1 0xA0 SHL SUB SWAP1 SWAP2 AND DUP2 MSTORE PUSH1 0x20 SWAP1 RETURN JUMPDEST SWAP2 SWAP1 POP PUSH2 0x1997 CALLDATASIZE PUSH2 0x27BC JUMP JUMPDEST SWAP3 SWAP1 PUSH2 0x19A1 PUSH2 0x303D JUMP JUMPDEST PUSH2 0x19A9 PUSH2 0x3136 JUMP JUMPDEST PUSH2 0x1C4 SLOAD PUSH1 0x1 PUSH1 0x1 PUSH1 0xA0 SHL SUB SWAP2 SWAP1 DUP3 AND SWAP1 DUP3 AND SUB PUSH2 0x1D2E JUMPI PUSH1 0x80 DUP3 ADD CALLDATALOAD SWAP2 DUP3 DUP8 MSTORE PUSH2 0x1F9 SWAP6 PUSH1 0x20 SWAP7 DUP1 DUP9 MSTORE DUP7 DUP10 KECCAK256 SLOAD ISZERO PUSH2 0x1CDB JUMPI CALLVALUE ISZERO PUSH2 0x1C98 JUMPI DUP7 MLOAD SWAP3 DUP9 DUP1 DUP6 ADD MSTORE DUP5 PUSH2 0x19F5 DUP3 PUSH2 0x27A8 JUMP JUMPDEST AND DUP9 DUP6 ADD MSTORE DUP9 DUP2 ADD CALLDATALOAD PUSH1 0x60 DUP6 ADD MSTORE DUP8 DUP2 ADD CALLDATALOAD PUSH1 0x80 DUP6 ADD MSTORE PUSH1 0x60 DUP2 ADD CALLDATALOAD PUSH1 0xA0 DUP6 ADD MSTORE DUP6 PUSH1 0xC0 DUP6 ADD MSTORE DUP5 PUSH2 0x1A29 PUSH1 0xA0 DUP4 ADD PUSH2 0x27A8 JUMP JUMPDEST AND PUSH1 0xE0 DUP6 ADD MSTORE DUP5 PUSH2 0x1A3C PUSH1 0xC0 DUP4 ADD PUSH2 0x27A8 JUMP JUMPDEST AND SWAP1 PUSH2 0x100 SWAP2 DUP3 DUP7 ADD MSTORE PUSH1 0xE0 DUP2 ADD CALLDATALOAD PUSH1 0x3E NOT DUP3 CALLDATASIZE SUB ADD DUP2 SLT ISZERO PUSH2 0x1C90 JUMPI ADD SWAP1 PUSH2 0x120 DUP6 ADD MSTORE DUP5 PUSH2 0x1A6B DUP3 PUSH2 0x27A8 JUMP JUMPDEST AND PUSH2 0x140 DUP6 ADD MSTORE DUP9 DUP2 ADD CALLDATALOAD PUSH1 0x1E NOT DUP3 CALLDATASIZE SUB ADD DUP2 SLT ISZERO PUSH2 0x1C94 JUMPI PUSH8 0xFFFFFFFFFFFFFFFF SWAP4 SWAP2 ADD DUP1 CALLDATALOAD SWAP1 DUP11 ADD DUP5 DUP3 GT PUSH2 0x1C90 JUMPI DUP2 CALLDATASIZE SUB DUP2 SGT PUSH2 0x1C90 JUMPI PUSH2 0x1AC0 DUP7 SWAP2 PUSH2 0x1ACE SWAP4 DUP13 PUSH2 0x160 DUP6 ADD MSTORE PUSH2 0x180 DUP5 ADD SWAP2 PUSH2 0x301C JUMP JUMPDEST SUB PUSH1 0x1F NOT DUP2 ADD DUP7 MSTORE DUP6 PUSH2 0x28AC JUMP JUMPDEST DUP1 PUSH2 0x1C8A JUMPI POP PUSH2 0x1C3 SLOAD SWAP1 JUMPDEST DUP5 PUSH2 0x1F8 SLOAD AND SWAP6 DUP11 MSTORE DUP9 MSTORE DUP7 DUP10 KECCAK256 SLOAD SWAP1 PUSH2 0x1FB DUP10 MSTORE DUP5 DUP9 DUP12 KECCAK256 SLOAD AND DUP9 MLOAD SWAP1 DUP10 DUP3 ADD DUP3 DUP2 LT DUP7 DUP3 GT OR PUSH2 0x1C77 JUMPI DUP11 MSTORE DUP12 DUP3 MSTORE CALLVALUE DUP12 DUP4 ADD MSTORE DUP10 MLOAD SWAP4 DUP12 DUP6 ADD DUP6 DUP2 LT DUP8 DUP3 GT OR PUSH2 0x1C64 JUMPI DUP12 MSTORE DUP13 DUP6 MSTORE DUP11 MLOAD SWAP6 PUSH1 0xC0 DUP8 ADD SWAP1 DUP2 GT DUP8 DUP3 LT OR PUSH2 0x1C64 JUMPI DUP12 MSTORE DUP6 MSTORE DUP5 DUP12 ADD SWAP1 DUP2 MSTORE DUP10 DUP6 ADD SWAP2 DUP3 MSTORE PUSH1 0x60 DUP6 ADD SWAP3 DUP4 MSTORE PUSH1 0x80 DUP6 ADD SWAP4 DUP5 MSTORE PUSH1 0xA0 DUP6 ADD SWAP6 DUP7 MSTORE DUP10 MLOAD PUSH4 0x6244885 PUSH1 0xE4 SHL DUP2 MSTORE SWAP9 DUP10 ADD DUP12 SWAP1 MSTORE SWAP4 MLOAD PUSH1 0x24 DUP10 ADD MSTORE SWAP3 MLOAD DUP6 AND PUSH1 0x44 DUP9 ADD MSTORE SWAP2 MLOAD DUP1 MLOAD DUP6 AND PUSH1 0x64 DUP9 ADD MSTORE DUP9 ADD MLOAD PUSH1 0x84 DUP8 ADD MSTORE SWAP1 MLOAD PUSH1 0xA4 DUP7 ADD MSTORE MLOAD PUSH1 0xE0 PUSH1 0xC4 DUP7 ADD MSTORE DUP1 MLOAD PUSH2 0x104 DUP7 ADD DUP2 SWAP1 MSTORE DUP8 SWAP5 DUP7 SWAP5 SWAP1 SWAP4 DUP11 SWAP4 PUSH2 0x124 DUP8 ADD SWAP4 SWAP2 SWAP3 SWAP1 DUP9 ADD SWAP2 SWAP1 DUP6 SWAP1 JUMPDEST DUP3 DUP3 LT PUSH2 0x1C42 JUMPI POP POP POP POP PUSH2 0x1BE8 DUP6 SWAP4 SWAP3 DUP5 SWAP3 MLOAD PUSH1 0x23 NOT DUP5 DUP4 SUB ADD PUSH1 0xE4 DUP6 ADD MSTORE PUSH2 0x2855 JUMP JUMPDEST SUB SWAP3 GAS CALL DUP1 ISZERO PUSH2 0x1C38 JUMPI PUSH2 0x1C0E JUMPI JUMPDEST PUSH1 0x1 PUSH2 0x12D SSTORE DUP2 MLOAD DUP4 DUP2 MSTORE DUP1 PUSH2 0x956 DUP2 DUP7 ADD PUSH2 0x2816 JUMP JUMPDEST DUP3 SWAP1 DUP2 RETURNDATASIZE DUP4 GT PUSH2 0x1C31 JUMPI JUMPDEST PUSH2 0x1C23 DUP2 DUP4 PUSH2 0x28AC JUMP JUMPDEST DUP2 ADD SUB SLT PUSH2 0x417 JUMPI DUP3 PUSH2 0x1BF7 JUMP JUMPDEST POP RETURNDATASIZE PUSH2 0x1C19 JUMP JUMPDEST DUP3 MLOAD RETURNDATASIZE DUP7 DUP3 RETURNDATACOPY RETURNDATASIZE SWAP1 REVERT JUMPDEST DUP4 MLOAD DUP2 AND DUP7 MSTORE DUP13 SWAP10 DUP12 SWAP10 POP DUP15 SWAP8 POP SWAP6 DUP7 ADD SWAP6 SWAP4 SWAP1 SWAP4 ADD SWAP3 PUSH1 0x1 SWAP1 SWAP2 ADD SWAP1 PUSH2 0x1BC3 JUMP JUMPDEST PUSH4 0x4E487B71 PUSH1 0xE0 SHL DUP15 MSTORE PUSH1 0x41 DUP12 MSTORE PUSH1 0x24 DUP15 REVERT JUMPDEST PUSH4 0x4E487B71 PUSH1 0xE0 SHL DUP14 MSTORE PUSH1 0x41 DUP11 MSTORE PUSH1 0x24 DUP14 REVERT JUMPDEST SWAP1 PUSH2 0x1ADA JUMP JUMPDEST DUP12 DUP1 REVERT JUMPDEST DUP11 DUP1 REVERT JUMPDEST DUP7 MLOAD PUSH3 0x461BCD PUSH1 0xE5 SHL DUP2 MSTORE DUP1 DUP8 ADD DUP10 SWAP1 MSTORE PUSH1 0x17 PUSH1 0x24 DUP3 ADD MSTORE PUSH32 0x476173207061796D656E74206973207265717569726564000000000000000000 PUSH1 0x44 DUP3 ADD MSTORE PUSH1 0x64 SWAP1 REVERT JUMPDEST DUP7 MLOAD PUSH3 0x461BCD PUSH1 0xE5 SHL DUP2 MSTORE DUP1 DUP8 ADD DUP10 SWAP1 MSTORE PUSH1 0x27 PUSH1 0x24 DUP3 ADD MSTORE PUSH32 0x54656C65706F72746572204E6F7420617661696C61626C6520666F7220746869 PUSH1 0x44 DUP3 ADD MSTORE PUSH7 0x399031B430B4B7 PUSH1 0xC9 SHL PUSH1 0x64 DUP3 ADD MSTORE PUSH1 0x84 SWAP1 REVERT JUMPDEST DUP4 MLOAD PUSH3 0x461BCD PUSH1 0xE5 SHL DUP2 MSTORE PUSH1 0x20 DUP2 DUP6 ADD MSTORE PUSH1 0x2C PUSH1 0x24 DUP3 ADD MSTORE PUSH32 0x4F6E6C792043726F737353796E63476174657761792063616E2063616C6C2074 PUSH1 0x44 DUP3 ADD MSTORE PUSH12 0x3434B990333AB731BA34B7B7 PUSH1 0xA1 SHL PUSH1 0x64 DUP3 ADD MSTORE PUSH1 0x84 SWAP1 REVERT JUMPDEST SWAP2 SWAP1 POP CALLVALUE PUSH2 0x417 JUMPI PUSH1 0x20 DUP1 PUSH1 0x3 NOT CALLDATASIZE ADD SLT PUSH2 0x413 JUMPI PUSH2 0x1DA3 PUSH2 0x2777 JUMP JUMPDEST SWAP2 PUSH1 0x1 PUSH1 0x1 PUSH1 0xA0 SHL SUB PUSH32 0x0 DUP2 AND PUSH2 0x1DDB ADDRESS DUP3 EQ ISZERO PUSH2 0x2E0A JUMP JUMPDEST PUSH2 0x1DF8 PUSH1 0x0 DUP1 MLOAD PUSH1 0x20 PUSH2 0x31B3 DUP4 CODECOPY DUP2 MLOAD SWAP2 MSTORE SWAP2 DUP4 DUP4 SLOAD AND EQ PUSH2 0x2E6B JUMP JUMPDEST PUSH2 0x1E00 PUSH2 0x3136 JUMP JUMPDEST PUSH1 0x0 DUP1 MLOAD PUSH1 0x20 PUSH2 0x3193 DUP4 CODECOPY DUP2 MLOAD SWAP2 MSTORE DUP9 MSTORE PUSH1 0xFB DUP6 MSTORE DUP3 DUP5 DUP10 KECCAK256 SWAP2 AND DUP9 MSTORE DUP5 MSTORE PUSH1 0xFF DUP4 DUP9 KECCAK256 SLOAD AND DUP1 ISZERO PUSH2 0x2073 JUMPI JUMPDEST PUSH2 0x1E36 SWAP1 PUSH2 0x3094 JUMP JUMPDEST DUP3 MLOAD SWAP1 DUP5 DUP3 ADD SWAP3 DUP3 DUP5 LT PUSH8 0xFFFFFFFFFFFFFFFF DUP6 GT OR PUSH2 0x2060 JUMPI DUP4 DUP6 MSTORE DUP9 DUP4 MSTORE PUSH32 0x4910FDFA16FED3260ED0E7147F7CC6DA11A60208B5B9406D12A635614FFD9143 SLOAD PUSH1 0xFF AND ISZERO PUSH2 0x1E90 JUMPI POP POP POP POP POP POP PUSH2 0x722 SWAP2 POP PUSH2 0x2ECC JUMP JUMPDEST DUP7 SWAP3 SWAP4 SWAP5 SWAP6 SWAP7 AND SWAP1 DUP6 MLOAD PUSH4 0x52D1902D PUSH1 0xE0 SHL DUP2 MSTORE DUP8 DUP2 DUP11 DUP2 DUP7 GAS STATICCALL DUP11 SWAP2 DUP2 PUSH2 0x2031 JUMPI JUMPDEST POP PUSH2 0x1F12 JUMPI DUP7 MLOAD PUSH3 0x461BCD PUSH1 0xE5 SHL DUP2 MSTORE DUP1 DUP11 ADD DUP10 SWAP1 MSTORE PUSH1 0x2E PUSH1 0x24 DUP3 ADD MSTORE PUSH32 0x45524331393637557067726164653A206E657720696D706C656D656E74617469 PUSH1 0x44 DUP3 ADD MSTORE PUSH14 0x6F6E206973206E6F742055555053 PUSH1 0x90 SHL PUSH1 0x64 DUP3 ADD MSTORE PUSH1 0x84 SWAP1 REVERT JUMPDEST SWAP8 SWAP2 SWAP3 SWAP4 SWAP7 SWAP6 SWAP5 SWAP8 SUB PUSH2 0x1FDC JUMPI POP PUSH2 0x1F29 DUP3 PUSH2 0x2ECC JUMP JUMPDEST PUSH32 0xBC7CD75A20EE27FD9ADEBAB32041F755214DBC6BFFA90CC0225B39DA2E5C2D3B DUP8 DUP1 LOG2 DUP6 DUP5 MLOAD ISZERO DUP1 ISZERO SWAP1 PUSH2 0x1FD5 JUMPI JUMPDEST PUSH2 0x1F67 JUMPI JUMPDEST POP POP POP POP POP POP DUP1 RETURN JUMPDEST DUP1 PUSH2 0x1FC9 SWAP7 DUP5 MLOAD SWAP7 PUSH2 0x1F78 DUP9 PUSH2 0x287A JUMP JUMPDEST PUSH1 0x27 DUP9 MSTORE PUSH32 0x416464726573733A206C6F772D6C6576656C2064656C65676174652063616C6C DUP8 DUP10 ADD MSTORE PUSH7 0x819985A5B1959 PUSH1 0xCA SHL DUP7 DUP10 ADD MSTORE MLOAD SWAP1 DUP5 GAS DELEGATECALL SWAP2 RETURNDATASIZE ISZERO PUSH2 0x15B6 JUMPI RETURNDATASIZE PUSH2 0x159E PUSH2 0x1595 DUP3 PUSH2 0x28CE JUMP JUMPDEST POP CODESIZE DUP1 DUP1 DUP1 DUP1 DUP6 PUSH2 0x1F5E JUMP JUMPDEST POP DUP1 PUSH2 0x1F59 JUMP JUMPDEST DUP4 MLOAD PUSH3 0x461BCD PUSH1 0xE5 SHL DUP2 MSTORE SWAP1 DUP2 ADD DUP6 SWAP1 MSTORE PUSH1 0x29 PUSH1 0x24 DUP3 ADD MSTORE PUSH32 0x45524331393637557067726164653A20756E737570706F727465642070726F78 PUSH1 0x44 DUP3 ADD MSTORE PUSH9 0x1A58589B1955555251 PUSH1 0xBA SHL PUSH1 0x64 DUP3 ADD MSTORE PUSH1 0x84 SWAP1 REVERT JUMPDEST SWAP1 SWAP2 POP DUP9 DUP2 DUP2 RETURNDATASIZE DUP4 GT PUSH2 0x2059 JUMPI JUMPDEST PUSH2 0x2049 DUP2 DUP4 PUSH2 0x28AC JUMP JUMPDEST DUP2 ADD SUB SLT PUSH2 0x1C94 JUMPI MLOAD SWAP1 CODESIZE PUSH2 0x1EB3 JUMP JUMPDEST POP RETURNDATASIZE PUSH2 0x203F JUMP JUMPDEST PUSH4 0x4E487B71 PUSH1 0xE0 SHL DUP10 MSTORE PUSH1 0x41 DUP9 MSTORE PUSH1 0x24 DUP10 REVERT JUMPDEST POP PUSH2 0x1E36 DUP3 PUSH1 0x33 SLOAD AND DUP4 PUSH2 0x2085 PUSH2 0x3136 JUMP JUMPDEST AND EQ SWAP1 POP PUSH2 0x1E2D JUMP JUMPDEST DUP4 SWAP2 POP CALLVALUE PUSH2 0x298 JUMPI DUP3 PUSH1 0x3 NOT CALLDATASIZE ADD SLT PUSH2 0x298 JUMPI PUSH2 0x20A9 PUSH2 0x2792 JUMP JUMPDEST SWAP1 PUSH1 0x1 PUSH1 0x1 PUSH1 0xA0 SHL SUB DUP1 PUSH2 0x20BB PUSH2 0x3136 JUMP JUMPDEST AND SWAP1 DUP4 AND SUB PUSH2 0x20CF JUMPI SWAP1 PUSH2 0x722 SWAP2 CALLDATALOAD PUSH2 0x2CE4 JUMP JUMPDEST PUSH1 0x84 SWAP1 PUSH1 0x20 DUP6 MLOAD SWAP2 PUSH3 0x461BCD PUSH1 0xE5 SHL DUP4 MSTORE DUP3 ADD MSTORE PUSH1 0x2F PUSH1 0x24 DUP3 ADD MSTORE PUSH32 0x416363657373436F6E74726F6C3A2063616E206F6E6C792072656E6F756E6365 PUSH1 0x44 DUP3 ADD MSTORE PUSH15 0x103937B632B9903337B91039B2B633 PUSH1 0x89 SHL PUSH1 0x64 DUP3 ADD MSTORE REVERT JUMPDEST POP POP CALLVALUE PUSH2 0x298 JUMPI PUSH1 0x20 CALLDATASIZE PUSH1 0x3 NOT ADD SLT PUSH2 0x298 JUMPI PUSH2 0x2145 PUSH2 0x2777 JUMP JUMPDEST SWAP1 PUSH1 0xFF PUSH2 0x2150 PUSH2 0x3136 JUMP JUMPDEST PUSH1 0x0 DUP1 MLOAD PUSH1 0x20 PUSH2 0x31F3 DUP4 CODECOPY DUP2 MLOAD SWAP2 MSTORE DUP6 MSTORE PUSH1 0xFB PUSH1 0x20 SWAP1 DUP2 MSTORE DUP4 DUP7 KECCAK256 PUSH1 0x1 PUSH1 0x1 PUSH1 0xA0 SHL SUB SWAP3 DUP4 AND DUP8 MSTORE SWAP1 MSTORE SWAP2 DUP5 KECCAK256 SLOAD AND DUP1 ISZERO PUSH2 0x21A8 JUMPI JUMPDEST PUSH2 0x218F SWAP1 PUSH2 0x3094 JUMP JUMPDEST PUSH2 0x1C6 SWAP2 AND PUSH1 0x1 PUSH1 0x1 PUSH1 0x60 SHL SUB PUSH1 0xA0 SHL DUP3 SLOAD AND OR SWAP1 SSTORE DUP1 RETURN JUMPDEST POP PUSH2 0x218F DUP2 PUSH1 0x33 SLOAD AND DUP3 PUSH2 0x21BA PUSH2 0x3136 JUMP JUMPDEST AND EQ SWAP1 POP PUSH2 0x2186 JUMP JUMPDEST SWAP1 POP CALLVALUE PUSH2 0x417 JUMPI DUP2 PUSH1 0x3 NOT CALLDATASIZE ADD SLT PUSH2 0x417 JUMPI CALLDATALOAD SWAP1 PUSH2 0x21DF PUSH2 0x2792 JUMP JUMPDEST DUP3 DUP5 MSTORE PUSH1 0xFB PUSH1 0x20 MSTORE PUSH2 0x21F6 PUSH1 0x1 DUP4 DUP7 KECCAK256 ADD SLOAD PUSH2 0x2921 JUMP JUMPDEST DUP3 DUP5 MSTORE PUSH1 0xFB PUSH1 0x20 SWAP1 DUP2 MSTORE DUP3 DUP6 KECCAK256 PUSH1 0x1 PUSH1 0x1 PUSH1 0xA0 SHL SUB SWAP3 DUP4 AND DUP1 DUP8 MSTORE SWAP2 MSTORE DUP3 DUP6 KECCAK256 SLOAD SWAP1 SWAP3 SWAP1 PUSH1 0xFF AND ISZERO PUSH2 0x53C JUMPI DUP5 DUP1 RETURN JUMPDEST SWAP1 POP CALLVALUE PUSH2 0x417 JUMPI PUSH1 0x20 CALLDATASIZE PUSH1 0x3 NOT ADD SLT PUSH2 0x417 JUMPI CALLDATALOAD DUP3 MSTORE PUSH2 0x1FB PUSH1 0x20 SWAP1 DUP2 MSTORE SWAP2 DUP2 SWAP1 KECCAK256 SLOAD SWAP1 MLOAD PUSH1 0x1 PUSH1 0x1 PUSH1 0xA0 SHL SUB SWAP1 SWAP2 AND DUP2 MSTORE RETURN JUMPDEST SWAP1 POP CALLVALUE PUSH2 0x417 JUMPI PUSH1 0x20 CALLDATASIZE PUSH1 0x3 NOT ADD SLT PUSH2 0x417 JUMPI DUP2 PUSH1 0x20 SWAP4 PUSH1 0x1 SWAP3 CALLDATALOAD DUP2 MSTORE PUSH1 0xFB DUP6 MSTORE KECCAK256 ADD SLOAD SWAP1 MLOAD SWAP1 DUP2 MSTORE RETURN JUMPDEST SWAP1 POP CALLVALUE PUSH2 0x417 JUMPI DUP2 PUSH1 0x3 NOT CALLDATASIZE ADD SLT PUSH2 0x417 JUMPI DUP2 PUSH1 0x20 SWAP4 PUSH1 0xFF SWAP3 CALLDATALOAD DUP2 MSTORE PUSH2 0x1FC DUP6 MSTORE DUP2 DUP2 KECCAK256 PUSH1 0x24 CALLDATALOAD DUP3 MSTORE DUP6 MSTORE KECCAK256 SLOAD AND SWAP1 MLOAD SWAP1 ISZERO ISZERO DUP2 MSTORE RETURN JUMPDEST POP POP CALLVALUE PUSH2 0x298 JUMPI PUSH1 0x20 SWAP1 DUP2 PUSH1 0x3 NOT CALLDATASIZE ADD SLT PUSH2 0x417 JUMPI PUSH2 0x22D9 PUSH2 0x2777 JUMP JUMPDEST SWAP1 PUSH2 0x22E2 PUSH2 0x3136 JUMP JUMPDEST PUSH1 0x0 DUP1 MLOAD PUSH1 0x20 PUSH2 0x31F3 DUP4 CODECOPY DUP2 MLOAD SWAP2 MSTORE DUP6 MSTORE PUSH1 0xFB DUP5 MSTORE DUP2 DUP6 KECCAK256 PUSH1 0x1 PUSH1 0x1 PUSH1 0xA0 SHL SUB SWAP2 DUP3 AND DUP7 MSTORE DUP5 MSTORE DUP2 DUP6 KECCAK256 SLOAD SWAP1 SWAP2 SWAP1 PUSH1 0xFF AND DUP1 ISZERO PUSH2 0x2355 JUMPI JUMPDEST PUSH2 0x2323 SWAP1 PUSH2 0x3094 JUMP JUMPDEST PUSH1 0x0 DUP1 MLOAD PUSH1 0x20 PUSH2 0x3233 DUP4 CODECOPY DUP2 MLOAD SWAP2 MSTORE SWAP4 DUP5 DUP7 MSTORE PUSH1 0xFB DUP2 MSTORE DUP3 DUP3 DUP8 KECCAK256 SWAP5 AND SWAP4 DUP5 DUP8 MSTORE DUP2 MSTORE PUSH1 0xFF DUP3 DUP8 KECCAK256 SLOAD AND PUSH2 0x110D JUMPI DUP6 DUP1 RETURN JUMPDEST POP PUSH2 0x2323 DUP3 PUSH1 0x33 SLOAD AND DUP4 PUSH2 0x2367 PUSH2 0x3136 JUMP JUMPDEST AND EQ SWAP1 POP PUSH2 0x231A JUMP JUMPDEST SWAP2 SWAP1 POP CALLVALUE PUSH2 0x417 JUMPI PUSH1 0xA0 CALLDATASIZE PUSH1 0x3 NOT ADD SLT PUSH2 0x417 JUMPI PUSH2 0x238C PUSH2 0x2777 JUMP JUMPDEST PUSH2 0x2394 PUSH2 0x2792 JUMP JUMPDEST PUSH1 0x1 PUSH1 0x1 PUSH1 0xA0 SHL SUB SWAP2 SWAP1 PUSH1 0x44 CALLDATALOAD DUP4 DUP2 AND SWAP1 DUP2 SWAP1 SUB PUSH2 0x2684 JUMPI PUSH1 0x64 CALLDATALOAD SWAP2 DUP5 DUP4 AND SWAP5 DUP6 DUP5 SUB PUSH2 0x2680 JUMPI PUSH1 0x84 CALLDATALOAD SWAP4 DUP2 DUP6 AND DUP1 SWAP6 SUB PUSH2 0x1645 JUMPI DUP10 SLOAD SWAP9 PUSH1 0xFF DUP11 PUSH1 0x8 SHR AND ISZERO SWAP8 DUP9 DUP1 SWAP10 PUSH2 0x2673 JUMPI JUMPDEST DUP1 ISZERO PUSH2 0x265C JUMPI JUMPDEST ISZERO PUSH2 0x2602 JUMPI PUSH1 0x1 PUSH1 0xFF NOT DUP13 AND DUP2 OR DUP14 SSTORE SWAP11 DUP10 PUSH2 0x25F1 JUMPI JUMPDEST POP PUSH2 0x243D PUSH1 0xFF DUP14 SLOAD PUSH1 0x8 SHR AND PUSH2 0x2410 DUP2 PUSH2 0x30D6 JUMP JUMPDEST PUSH2 0x2419 DUP2 PUSH2 0x30D6 JUMP JUMPDEST PUSH2 0x2422 DUP2 PUSH2 0x30D6 JUMP JUMPDEST PUSH1 0x97 DUP1 SLOAD PUSH1 0xFF PUSH1 0xA0 SHL NOT AND SWAP1 SSTORE PUSH2 0x2438 DUP2 PUSH2 0x30D6 JUMP JUMPDEST PUSH2 0x30D6 JUMP JUMPDEST PUSH2 0x244D PUSH2 0x2448 PUSH2 0x3136 JUMP JUMPDEST PUSH2 0x2DC1 JUMP JUMPDEST PUSH2 0x2481 PUSH1 0xFF DUP14 SLOAD PUSH1 0x8 SHR AND PUSH2 0x2461 DUP2 PUSH2 0x30D6 JUMP JUMPDEST PUSH2 0x246A DUP2 PUSH2 0x30D6 JUMP JUMPDEST PUSH2 0x2473 DUP2 PUSH2 0x30D6 JUMP JUMPDEST DUP13 PUSH2 0x12D SSTORE PUSH2 0x2438 DUP2 PUSH2 0x30D6 JUMP JUMPDEST PUSH2 0x2489 PUSH2 0x2D5E JUMP JUMPDEST ISZERO PUSH2 0x259F JUMPI POP DUP1 PUSH2 0x2E9 PUSH2 0x249C SWAP3 PUSH2 0x2DC1 JUMP JUMPDEST PUSH1 0x0 DUP1 MLOAD PUSH1 0x20 PUSH2 0x3233 DUP4 CODECOPY DUP2 MLOAD SWAP2 MSTORE DUP1 DUP11 MSTORE PUSH1 0xFB PUSH1 0x20 MSTORE DUP10 DUP10 DUP10 DUP3 KECCAK256 ADD SLOAD SWAP2 PUSH1 0x0 DUP1 MLOAD PUSH1 0x20 PUSH2 0x31F3 DUP4 CODECOPY DUP2 MLOAD SWAP2 MSTORE DUP1 SWAP4 DUP2 DUP14 DUP14 DUP7 KECCAK256 ADD SSTORE PUSH32 0xBD79B86FFE0AB8E8776151514217CD7CACD52C909F66475C3AF44E129F0B00FF SWAP3 DUP4 DUP6 DUP1 LOG4 PUSH1 0x0 DUP1 MLOAD PUSH1 0x20 PUSH2 0x31D3 DUP4 CODECOPY DUP2 MLOAD SWAP2 MSTORE SWAP1 DUP2 DUP4 MSTORE DUP4 DUP13 DUP13 DUP2 DUP2 DUP8 KECCAK256 ADD SLOAD SWAP6 KECCAK256 ADD SSTORE DUP13 DUP1 LOG4 PUSH1 0x1 PUSH1 0x1 PUSH1 0x60 SHL SUB PUSH1 0xA0 SHL SWAP5 DUP2 PUSH2 0x1C4 SWAP2 AND DUP7 DUP3 SLOAD AND OR SWAP1 SSTORE PUSH2 0x1C5 SWAP2 AND DUP5 DUP3 SLOAD AND OR SWAP1 SSTORE PUSH2 0x1C6 SWAP1 DUP4 DUP3 SLOAD AND OR SWAP1 SSTORE PUSH3 0x15F90 PUSH2 0x1C3 SSTORE PUSH2 0x1F8 SWAP2 DUP3 SLOAD AND OR SWAP1 SSTORE PUSH2 0x2566 JUMPI DUP3 DUP1 RETURN JUMPDEST DUP3 SLOAD PUSH2 0xFF00 NOT AND DUP4 SSTORE MLOAD SWAP1 DUP2 MSTORE PUSH32 0x7F26B83FF96E1F2B6A682F133852F6798A09C465DA95921460CEFB3847402498 SWAP1 PUSH1 0x20 SWAP1 LOG1 CODESIZE DUP1 DUP3 DUP1 RETURN JUMPDEST PUSH1 0x84 SWAP1 PUSH1 0x20 DUP11 MLOAD SWAP2 PUSH3 0x461BCD PUSH1 0xE5 SHL DUP4 MSTORE DUP3 ADD MSTORE PUSH1 0x26 PUSH1 0x24 DUP3 ADD MSTORE PUSH32 0x4F776E61626C653A206E6577206F776E657220697320746865207A65726F2061 PUSH1 0x44 DUP3 ADD MSTORE PUSH6 0x646472657373 PUSH1 0xD0 SHL PUSH1 0x64 DUP3 ADD MSTORE REVERT JUMPDEST PUSH2 0xFFFF NOT AND PUSH2 0x101 OR DUP13 SSTORE CODESIZE PUSH2 0x23FB JUMP JUMPDEST DUP10 MLOAD PUSH3 0x461BCD PUSH1 0xE5 SHL DUP2 MSTORE PUSH1 0x20 DUP2 DUP5 ADD MSTORE PUSH1 0x2E PUSH1 0x24 DUP3 ADD MSTORE PUSH32 0x496E697469616C697A61626C653A20636F6E747261637420697320616C726561 PUSH1 0x44 DUP3 ADD MSTORE PUSH14 0x191E481A5B9A5D1A585B1A5E9959 PUSH1 0x92 SHL PUSH1 0x64 DUP3 ADD MSTORE PUSH1 0x84 SWAP1 REVERT JUMPDEST POP ADDRESS EXTCODESIZE ISZERO DUP1 ISZERO PUSH2 0x23E4 JUMPI POP PUSH1 0x1 PUSH1 0xFF DUP13 AND EQ PUSH2 0x23E4 JUMP JUMPDEST POP PUSH1 0x1 PUSH1 0xFF DUP13 AND LT PUSH2 0x23DD JUMP JUMPDEST DUP9 DUP1 REVERT JUMPDEST DUP7 DUP1 REVERT JUMPDEST SWAP1 POP CALLVALUE PUSH2 0x417 JUMPI PUSH1 0x20 CALLDATASIZE PUSH1 0x3 NOT ADD SLT PUSH2 0x417 JUMPI CALLDATALOAD SWAP1 PUSH4 0xFFFFFFFF PUSH1 0xE0 SHL DUP3 AND DUP1 SWAP3 SUB PUSH2 0x417 JUMPI PUSH1 0x20 SWAP3 POP PUSH4 0x7965DB0B PUSH1 0xE0 SHL DUP3 EQ SWAP2 DUP3 ISZERO PUSH2 0x26CD JUMPI JUMPDEST POP MLOAD SWAP1 ISZERO ISZERO DUP2 MSTORE RETURN JUMPDEST PUSH4 0x1FFC9A7 PUSH1 0xE0 SHL EQ SWAP2 POP CODESIZE PUSH2 0x26C4 JUMP JUMPDEST POP POP CALLVALUE PUSH2 0x298 JUMPI PUSH1 0x20 CALLDATASIZE PUSH1 0x3 NOT ADD SLT PUSH2 0x298 JUMPI PUSH2 0x26F9 PUSH2 0x2777 JUMP JUMPDEST SWAP1 PUSH1 0xFF PUSH2 0x2704 PUSH2 0x3136 JUMP JUMPDEST PUSH1 0x0 DUP1 MLOAD PUSH1 0x20 PUSH2 0x31F3 DUP4 CODECOPY DUP2 MLOAD SWAP2 MSTORE DUP6 MSTORE PUSH1 0xFB PUSH1 0x20 SWAP1 DUP2 MSTORE DUP4 DUP7 KECCAK256 PUSH1 0x1 PUSH1 0x1 PUSH1 0xA0 SHL SUB SWAP3 DUP4 AND DUP8 MSTORE SWAP1 MSTORE SWAP2 DUP5 KECCAK256 SLOAD AND DUP1 ISZERO PUSH2 0x275C JUMPI JUMPDEST PUSH2 0x2743 SWAP1 PUSH2 0x3094 JUMP JUMPDEST PUSH2 0x1C5 SWAP2 AND PUSH1 0x1 PUSH1 0x1 PUSH1 0x60 SHL SUB PUSH1 0xA0 SHL DUP3 SLOAD AND OR SWAP1 SSTORE DUP1 RETURN JUMPDEST POP PUSH2 0x2743 DUP2 PUSH1 0x33 SLOAD AND DUP3 PUSH2 0x276E PUSH2 0x3136 JUMP JUMPDEST AND EQ SWAP1 POP PUSH2 0x273A JUMP JUMPDEST PUSH1 0x4 CALLDATALOAD SWAP1 PUSH1 0x1 PUSH1 0x1 PUSH1 0xA0 SHL SUB DUP3 AND DUP3 SUB PUSH2 0x278D JUMPI JUMP JUMPDEST PUSH1 0x0 DUP1 REVERT JUMPDEST PUSH1 0x24 CALLDATALOAD SWAP1 PUSH1 0x1 PUSH1 0x1 PUSH1 0xA0 SHL SUB DUP3 AND DUP3 SUB PUSH2 0x278D JUMPI JUMP JUMPDEST CALLDATALOAD SWAP1 PUSH1 0x1 PUSH1 0x1 PUSH1 0xA0 SHL SUB DUP3 AND DUP3 SUB PUSH2 0x278D JUMPI JUMP JUMPDEST PUSH1 0x3 NOT SWAP1 PUSH1 0x40 DUP2 DUP4 ADD SLT PUSH2 0x278D JUMPI PUSH1 0x4 CALLDATALOAD SWAP2 PUSH8 0xFFFFFFFFFFFFFFFF DUP4 GT PUSH2 0x278D JUMPI DUP3 PUSH2 0x100 SWAP3 SUB ADD SLT PUSH2 0x278D JUMPI PUSH1 0x4 ADD SWAP1 PUSH1 0x24 CALLDATALOAD SWAP1 JUMP JUMPDEST PUSH1 0x0 JUMPDEST DUP4 DUP2 LT PUSH2 0x2806 JUMPI POP POP PUSH1 0x0 SWAP2 ADD MSTORE JUMP JUMPDEST DUP2 DUP2 ADD MLOAD DUP4 DUP3 ADD MSTORE PUSH1 0x20 ADD PUSH2 0x27F6 JUMP JUMPDEST SWAP1 PUSH1 0x60 MLOAD SWAP2 DUP3 DUP2 MSTORE PUSH1 0x0 JUMPDEST DUP4 DUP2 LT PUSH2 0x2841 JUMPI POP DUP3 PUSH1 0x0 PUSH1 0x20 DUP1 SWAP5 SWAP6 DUP5 ADD ADD MSTORE PUSH1 0x1F DUP1 NOT SWAP2 ADD AND ADD ADD SWAP1 JUMP JUMPDEST DUP1 PUSH1 0x20 SWAP2 PUSH1 0x80 ADD MLOAD DUP3 DUP3 DUP6 ADD ADD MSTORE ADD PUSH2 0x2821 JUMP JUMPDEST SWAP1 PUSH1 0x20 SWAP2 PUSH2 0x286E DUP2 MLOAD DUP1 SWAP3 DUP2 DUP6 MSTORE DUP6 DUP1 DUP7 ADD SWAP2 ADD PUSH2 0x27F3 JUMP JUMPDEST PUSH1 0x1F ADD PUSH1 0x1F NOT AND ADD ADD SWAP1 JUMP JUMPDEST PUSH1 0x60 DUP2 ADD SWAP1 DUP2 LT PUSH8 0xFFFFFFFFFFFFFFFF DUP3 GT OR PUSH2 0x2896 JUMPI PUSH1 0x40 MSTORE JUMP JUMPDEST PUSH4 0x4E487B71 PUSH1 0xE0 SHL PUSH1 0x0 MSTORE PUSH1 0x41 PUSH1 0x4 MSTORE PUSH1 0x24 PUSH1 0x0 REVERT JUMPDEST SWAP1 PUSH1 0x1F DUP1 NOT SWAP2 ADD AND DUP2 ADD SWAP1 DUP2 LT PUSH8 0xFFFFFFFFFFFFFFFF DUP3 GT OR PUSH2 0x2896 JUMPI PUSH1 0x40 MSTORE JUMP JUMPDEST PUSH8 0xFFFFFFFFFFFFFFFF DUP2 GT PUSH2 0x2896 JUMPI PUSH1 0x1F ADD PUSH1 0x1F NOT AND PUSH1 0x20 ADD SWAP1 JUMP JUMPDEST SWAP3 SWAP2 SWAP3 PUSH2 0x28F6 DUP3 PUSH2 0x28CE JUMP JUMPDEST SWAP2 PUSH2 0x2904 PUSH1 0x40 MLOAD SWAP4 DUP5 PUSH2 0x28AC JUMP JUMPDEST DUP3 SWAP5 DUP2 DUP5 MSTORE DUP2 DUP4 ADD GT PUSH2 0x278D JUMPI DUP3 DUP2 PUSH1 0x20 SWAP4 DUP5 PUSH1 0x0 SWAP7 ADD CALLDATACOPY ADD ADD MSTORE JUMP JUMPDEST PUSH2 0x2929 PUSH2 0x3136 JUMP JUMPDEST SWAP1 PUSH1 0x0 SWAP1 DUP1 DUP3 MSTORE PUSH1 0x20 SWAP2 PUSH1 0xFB DUP4 MSTORE PUSH1 0x40 SWAP4 DUP5 DUP3 KECCAK256 SWAP1 PUSH1 0x1 DUP1 PUSH1 0xA0 SHL SUB AND SWAP1 DUP2 DUP4 MSTORE DUP5 MSTORE PUSH1 0xFF DUP6 DUP4 KECCAK256 SLOAD AND ISZERO PUSH2 0x295F JUMPI POP POP POP POP POP JUMP JUMPDEST DUP5 MLOAD SWAP3 PUSH2 0x296B DUP5 PUSH2 0x287A JUMP JUMPDEST PUSH1 0x2A DUP5 MSTORE DUP5 DUP5 ADD SWAP1 DUP7 CALLDATASIZE DUP4 CALLDATACOPY DUP5 MLOAD ISZERO PUSH2 0x2C36 JUMPI PUSH1 0x30 DUP3 MSTORE8 DUP5 MLOAD SWAP3 PUSH1 0x1 SWAP4 DUP5 LT ISZERO PUSH2 0x2C22 JUMPI PUSH1 0x78 PUSH1 0x21 DUP8 ADD MSTORE8 PUSH1 0x29 JUMPDEST DUP5 DUP2 GT PUSH2 0x2BB8 JUMPI POP PUSH2 0x2B76 JUMPI DUP7 MLOAD SWAP3 PUSH1 0x80 DUP5 ADD DUP5 DUP2 LT PUSH8 0xFFFFFFFFFFFFFFFF DUP3 GT OR PUSH2 0x2B62 JUMPI DUP9 MSTORE PUSH1 0x42 DUP5 MSTORE DUP7 DUP5 ADD SWAP5 PUSH1 0x60 CALLDATASIZE DUP8 CALLDATACOPY DUP5 MLOAD ISZERO PUSH2 0x2B4E JUMPI PUSH1 0x30 DUP7 MSTORE8 DUP5 MLOAD DUP3 LT ISZERO PUSH2 0x2B4E JUMPI SWAP1 PUSH1 0x78 PUSH1 0x21 DUP7 ADD MSTORE8 PUSH1 0x41 SWAP2 JUMPDEST DUP2 DUP4 GT PUSH2 0x2AE0 JUMPI POP POP POP PUSH2 0x2A9E JUMPI PUSH2 0x2A9A SWAP4 DUP7 SWAP4 PUSH2 0x2A7E SWAP4 PUSH2 0x2A6F PUSH1 0x48 SWAP5 PUSH2 0x2A46 SWAP11 MLOAD SWAP11 DUP12 SWAP6 PUSH32 0x416363657373436F6E74726F6C3A206163636F756E7420000000000000000000 DUP13 DUP9 ADD MSTORE MLOAD DUP1 SWAP3 PUSH1 0x37 DUP9 ADD SWAP1 PUSH2 0x27F3 JUMP JUMPDEST DUP5 ADD SWAP2 PUSH17 0x1034B99036B4B9B9B4B733903937B6329 PUSH1 0x7D SHL PUSH1 0x37 DUP5 ADD MSTORE MLOAD DUP1 SWAP4 DUP7 DUP5 ADD SWAP1 PUSH2 0x27F3 JUMP JUMPDEST ADD SUB PUSH1 0x28 DUP2 ADD DUP8 MSTORE ADD DUP6 PUSH2 0x28AC JUMP JUMPDEST MLOAD SWAP3 DUP4 SWAP3 PUSH3 0x461BCD PUSH1 0xE5 SHL DUP5 MSTORE PUSH1 0x4 DUP5 ADD MSTORE PUSH1 0x24 DUP4 ADD SWAP1 PUSH2 0x2855 JUMP JUMPDEST SUB SWAP1 REVERT JUMPDEST PUSH1 0x64 DUP6 DUP8 MLOAD SWAP1 PUSH3 0x461BCD PUSH1 0xE5 SHL DUP3 MSTORE DUP1 PUSH1 0x4 DUP4 ADD MSTORE PUSH1 0x24 DUP3 ADD MSTORE PUSH32 0x537472696E67733A20686578206C656E67746820696E73756666696369656E74 PUSH1 0x44 DUP3 ADD MSTORE REVERT JUMPDEST SWAP1 SWAP2 SWAP3 PUSH1 0xF DUP2 AND PUSH1 0x10 DUP2 LT ISZERO PUSH2 0x2B3A JUMPI PUSH16 0x181899199A1A9B1B9C1CB0B131B232B3 PUSH1 0x81 SHL SWAP1 BYTE PUSH2 0x2B10 DUP6 DUP9 PUSH2 0x2FF5 JUMP JUMPDEST MSTORE8 PUSH1 0x4 SHR SWAP3 DUP1 ISZERO PUSH2 0x2B26 JUMPI PUSH1 0x0 NOT ADD SWAP2 SWAP1 PUSH2 0x29EE JUMP JUMPDEST PUSH4 0x4E487B71 PUSH1 0xE0 SHL DUP3 MSTORE PUSH1 0x11 PUSH1 0x4 MSTORE PUSH1 0x24 DUP3 REVERT JUMPDEST PUSH4 0x4E487B71 PUSH1 0xE0 SHL DUP4 MSTORE PUSH1 0x32 PUSH1 0x4 MSTORE PUSH1 0x24 DUP4 REVERT JUMPDEST PUSH4 0x4E487B71 PUSH1 0xE0 SHL DUP2 MSTORE PUSH1 0x32 PUSH1 0x4 MSTORE PUSH1 0x24 SWAP1 REVERT JUMPDEST PUSH4 0x4E487B71 PUSH1 0xE0 SHL DUP7 MSTORE PUSH1 0x41 PUSH1 0x4 MSTORE PUSH1 0x24 DUP7 REVERT JUMPDEST PUSH1 0x64 DUP7 DUP9 MLOAD SWAP1 PUSH3 0x461BCD PUSH1 0xE5 SHL DUP3 MSTORE DUP1 PUSH1 0x4 DUP4 ADD MSTORE PUSH1 0x24 DUP3 ADD MSTORE PUSH32 0x537472696E67733A20686578206C656E67746820696E73756666696369656E74 PUSH1 0x44 DUP3 ADD MSTORE REVERT JUMPDEST SWAP1 PUSH1 0xF DUP2 AND PUSH1 0x10 DUP2 LT ISZERO PUSH2 0x2C0E JUMPI PUSH16 0x181899199A1A9B1B9C1CB0B131B232B3 PUSH1 0x81 SHL SWAP1 BYTE PUSH2 0x2BE6 DUP4 DUP10 PUSH2 0x2FF5 JUMP JUMPDEST MSTORE8 PUSH1 0x4 SHR SWAP1 DUP1 ISZERO PUSH2 0x2BFA JUMPI PUSH1 0x0 NOT ADD PUSH2 0x2999 JUMP JUMPDEST PUSH4 0x4E487B71 PUSH1 0xE0 SHL DUP7 MSTORE PUSH1 0x11 PUSH1 0x4 MSTORE PUSH1 0x24 DUP7 REVERT JUMPDEST PUSH4 0x4E487B71 PUSH1 0xE0 SHL DUP8 MSTORE PUSH1 0x32 PUSH1 0x4 MSTORE PUSH1 0x24 DUP8 REVERT JUMPDEST PUSH4 0x4E487B71 PUSH1 0xE0 SHL DUP6 MSTORE PUSH1 0x32 PUSH1 0x4 MSTORE PUSH1 0x24 DUP6 REVERT JUMPDEST PUSH4 0x4E487B71 PUSH1 0xE0 SHL DUP5 MSTORE PUSH1 0x32 PUSH1 0x4 MSTORE PUSH1 0x24 DUP5 REVERT JUMPDEST PUSH1 0x1 PUSH1 0x1 PUSH1 0xA0 SHL SUB SWAP1 DUP2 AND PUSH1 0x0 DUP2 DUP2 MSTORE PUSH32 0xC88390E7E62175BE0932452175B6A7222B6B094AB0EF984A5153C620345D8975 PUSH1 0x20 MSTORE PUSH1 0x40 DUP2 KECCAK256 SLOAD SWAP1 SWAP3 SWAP1 PUSH1 0xFF AND ISZERO PUSH2 0x2C93 JUMPI POP POP POP JUMP JUMPDEST DUP3 DUP1 MSTORE PUSH1 0xFB PUSH1 0x20 MSTORE PUSH1 0x40 DUP4 KECCAK256 DUP3 DUP5 MSTORE PUSH1 0x20 MSTORE PUSH1 0x40 DUP4 KECCAK256 PUSH1 0x1 PUSH1 0xFF NOT DUP3 SLOAD AND OR SWAP1 SSTORE PUSH2 0x2CBC PUSH2 0x3136 JUMP JUMPDEST AND SWAP2 PUSH32 0x2F8788117E7EFF1D82E926EC794901D17C78024A50270940304540A733656F0D DUP2 DUP1 LOG4 JUMP JUMPDEST PUSH1 0x0 DUP2 DUP2 MSTORE PUSH1 0xFB PUSH1 0x20 SWAP1 DUP2 MSTORE PUSH1 0x40 DUP1 DUP4 KECCAK256 PUSH1 0x1 PUSH1 0x1 PUSH1 0xA0 SHL SUB SWAP6 DUP7 AND DUP1 DUP6 MSTORE SWAP3 MSTORE DUP3 KECCAK256 SLOAD SWAP2 SWAP4 SWAP1 SWAP3 SWAP2 PUSH1 0xFF AND PUSH2 0x2D1B JUMPI JUMPDEST POP POP POP POP JUMP JUMPDEST PUSH1 0x0 DUP1 MLOAD PUSH1 0x20 PUSH2 0x3213 DUP4 CODECOPY DUP2 MLOAD SWAP2 MSTORE SWAP1 DUP3 DUP6 MSTORE PUSH1 0xFB PUSH1 0x20 MSTORE PUSH1 0x40 DUP6 KECCAK256 DUP5 DUP7 MSTORE PUSH1 0x20 MSTORE PUSH1 0x40 DUP6 KECCAK256 PUSH1 0xFF NOT DUP2 SLOAD AND SWAP1 SSTORE PUSH2 0x2D51 PUSH2 0x3136 JUMP JUMPDEST AND SWAP4 DUP1 LOG4 CODESIZE DUP1 DUP1 DUP1 PUSH2 0x2D15 JUMP JUMPDEST PUSH1 0x33 SLOAD PUSH1 0x1 PUSH1 0x1 PUSH1 0xA0 SHL SUB SWAP1 DUP2 AND SWAP1 PUSH2 0x2D75 PUSH2 0x3136 JUMP JUMPDEST AND SUB PUSH2 0x2D7D JUMPI JUMP JUMPDEST PUSH1 0x64 PUSH1 0x40 MLOAD PUSH3 0x461BCD PUSH1 0xE5 SHL DUP2 MSTORE PUSH1 0x20 PUSH1 0x4 DUP3 ADD MSTORE PUSH1 0x20 PUSH1 0x24 DUP3 ADD MSTORE PUSH32 0x4F776E61626C653A2063616C6C6572206973206E6F7420746865206F776E6572 PUSH1 0x44 DUP3 ADD MSTORE REVERT JUMPDEST PUSH1 0x33 DUP1 SLOAD PUSH1 0x1 PUSH1 0x1 PUSH1 0xA0 SHL SUB SWAP3 DUP4 AND PUSH1 0x1 PUSH1 0x1 PUSH1 0xA0 SHL SUB NOT DUP3 AND DUP2 OR SWAP1 SWAP3 SSTORE SWAP1 SWAP2 AND PUSH32 0x8BE0079C531659141344CD1FD0A4F28419497F9722A3DAAFE3B4186F6B6457E0 PUSH1 0x0 DUP1 LOG3 JUMP JUMPDEST ISZERO PUSH2 0x2E11 JUMPI JUMP JUMPDEST PUSH1 0x40 MLOAD PUSH3 0x461BCD PUSH1 0xE5 SHL DUP2 MSTORE PUSH1 0x20 PUSH1 0x4 DUP3 ADD MSTORE PUSH1 0x2C PUSH1 0x24 DUP3 ADD MSTORE PUSH32 0x46756E6374696F6E206D7573742062652063616C6C6564207468726F75676820 PUSH1 0x44 DUP3 ADD MSTORE PUSH12 0x19195B1959D85D1958D85B1B PUSH1 0xA2 SHL PUSH1 0x64 DUP3 ADD MSTORE PUSH1 0x84 SWAP1 REVERT JUMPDEST ISZERO PUSH2 0x2E72 JUMPI JUMP JUMPDEST PUSH1 0x40 MLOAD PUSH3 0x461BCD PUSH1 0xE5 SHL DUP2 MSTORE PUSH1 0x20 PUSH1 0x4 DUP3 ADD MSTORE PUSH1 0x2C PUSH1 0x24 DUP3 ADD MSTORE PUSH32 0x46756E6374696F6E206D7573742062652063616C6C6564207468726F75676820 PUSH1 0x44 DUP3 ADD MSTORE PUSH12 0x6163746976652070726F7879 PUSH1 0xA0 SHL PUSH1 0x64 DUP3 ADD MSTORE PUSH1 0x84 SWAP1 REVERT JUMPDEST DUP1 EXTCODESIZE ISZERO PUSH2 0x2F01 JUMPI PUSH1 0x0 DUP1 MLOAD PUSH1 0x20 PUSH2 0x31B3 DUP4 CODECOPY DUP2 MLOAD SWAP2 MSTORE DUP1 SLOAD PUSH1 0x1 PUSH1 0x1 PUSH1 0xA0 SHL SUB NOT AND PUSH1 0x1 PUSH1 0x1 PUSH1 0xA0 SHL SUB SWAP1 SWAP3 AND SWAP2 SWAP1 SWAP2 OR SWAP1 SSTORE JUMP JUMPDEST PUSH1 0x40 MLOAD PUSH3 0x461BCD PUSH1 0xE5 SHL DUP2 MSTORE PUSH1 0x20 PUSH1 0x4 DUP3 ADD MSTORE PUSH1 0x2D PUSH1 0x24 DUP3 ADD MSTORE PUSH32 0x455243313936373A206E657720696D706C656D656E746174696F6E206973206E PUSH1 0x44 DUP3 ADD MSTORE PUSH13 0x1BDD08184818DBDB9D1C9858DD PUSH1 0x9A SHL PUSH1 0x64 DUP3 ADD MSTORE PUSH1 0x84 SWAP1 REVERT JUMPDEST SWAP2 SWAP3 SWAP1 ISZERO PUSH2 0x2FBE JUMPI POP DUP2 MLOAD ISZERO PUSH2 0x2F70 JUMPI POP SWAP1 JUMP JUMPDEST EXTCODESIZE ISZERO PUSH2 0x2F79 JUMPI SWAP1 JUMP JUMPDEST PUSH1 0x40 MLOAD PUSH3 0x461BCD PUSH1 0xE5 SHL DUP2 MSTORE PUSH1 0x20 PUSH1 0x4 DUP3 ADD MSTORE PUSH1 0x1D PUSH1 0x24 DUP3 ADD MSTORE PUSH32 0x416464726573733A2063616C6C20746F206E6F6E2D636F6E7472616374000000 PUSH1 0x44 DUP3 ADD MSTORE PUSH1 0x64 SWAP1 REVERT JUMPDEST DUP3 MLOAD SWAP1 SWAP2 POP ISZERO PUSH2 0x2FD1 JUMPI POP DUP1 MLOAD SWAP1 PUSH1 0x20 ADD REVERT JUMPDEST PUSH1 0x40 MLOAD PUSH3 0x461BCD PUSH1 0xE5 SHL DUP2 MSTORE PUSH1 0x20 PUSH1 0x4 DUP3 ADD MSTORE SWAP1 DUP2 SWAP1 PUSH2 0x2A9A SWAP1 PUSH1 0x24 DUP4 ADD SWAP1 PUSH2 0x2855 JUMP JUMPDEST SWAP1 DUP2 MLOAD DUP2 LT ISZERO PUSH2 0x3006 JUMPI ADD PUSH1 0x20 ADD SWAP1 JUMP JUMPDEST PUSH4 0x4E487B71 PUSH1 0xE0 SHL PUSH1 0x0 MSTORE PUSH1 0x32 PUSH1 0x4 MSTORE PUSH1 0x24 PUSH1 0x0 REVERT JUMPDEST SWAP1 DUP1 PUSH1 0x20 SWAP4 SWAP3 DUP2 DUP5 MSTORE DUP5 DUP5 ADD CALLDATACOPY PUSH1 0x0 DUP3 DUP3 ADD DUP5 ADD MSTORE PUSH1 0x1F ADD PUSH1 0x1F NOT AND ADD ADD SWAP1 JUMP JUMPDEST PUSH2 0x12D PUSH1 0x2 DUP2 SLOAD EQ PUSH2 0x304F JUMPI PUSH1 0x2 SWAP1 SSTORE JUMP JUMPDEST PUSH1 0x40 MLOAD PUSH3 0x461BCD PUSH1 0xE5 SHL DUP2 MSTORE PUSH1 0x20 PUSH1 0x4 DUP3 ADD MSTORE PUSH1 0x1F PUSH1 0x24 DUP3 ADD MSTORE PUSH32 0x5265656E7472616E637947756172643A207265656E7472616E742063616C6C00 PUSH1 0x44 DUP3 ADD MSTORE PUSH1 0x64 SWAP1 REVERT JUMPDEST ISZERO PUSH2 0x309B JUMPI JUMP JUMPDEST PUSH1 0x40 MLOAD PUSH3 0x461BCD PUSH1 0xE5 SHL DUP2 MSTORE PUSH1 0x20 PUSH1 0x4 DUP3 ADD MSTORE PUSH1 0x13 PUSH1 0x24 DUP3 ADD MSTORE PUSH19 0x556E617574686F72697A656420416363657373 PUSH1 0x68 SHL PUSH1 0x44 DUP3 ADD MSTORE PUSH1 0x64 SWAP1 REVERT JUMPDEST ISZERO PUSH2 0x30DD JUMPI JUMP JUMPDEST PUSH1 0x40 MLOAD PUSH3 0x461BCD PUSH1 0xE5 SHL DUP2 MSTORE PUSH1 0x20 PUSH1 0x4 DUP3 ADD MSTORE PUSH1 0x2B PUSH1 0x24 DUP3 ADD MSTORE PUSH32 0x496E697469616C697A61626C653A20636F6E7472616374206973206E6F742069 PUSH1 0x44 DUP3 ADD MSTORE PUSH11 0x6E697469616C697A696E67 PUSH1 0xA8 SHL PUSH1 0x64 DUP3 ADD MSTORE PUSH1 0x84 SWAP1 REVERT JUMPDEST PUSH1 0x97 SLOAD PUSH1 0x1 PUSH1 0x1 PUSH1 0xA0 SHL SUB AND CALLER EQ DUP1 DUP1 PUSH2 0x3187 JUMPI JUMPDEST ISZERO PUSH2 0x315D JUMPI POP CALLDATASIZE PUSH1 0x13 NOT ADD CALLDATALOAD PUSH1 0x60 SHR SWAP1 JUMP JUMPDEST PUSH1 0x14 CALLDATASIZE LT ISZERO SWAP1 DUP2 PUSH2 0x317F JUMPI JUMPDEST POP ISZERO PUSH2 0x317B JUMPI CALLDATASIZE PUSH1 0x13 NOT ADD CALLDATALOAD PUSH1 0x60 SHR SWAP1 JUMP JUMPDEST CALLER SWAP1 JUMP JUMPDEST SWAP1 POP CODESIZE PUSH2 0x3169 JUMP JUMPDEST POP PUSH1 0x14 CALLDATASIZE LT ISZERO PUSH2 0x314B JUMP INVALID XOR SWAP11 0xB7 0xA9 0x24 0x4D CREATE DUP5 DUP2 0x22 ISZERO NUMBER ISZERO 0xAF PUSH18 0xFE140F3DB0FE014031783B0946B8C9D2E336 ADDMOD SWAP5 LOG1 EXTCODESIZE LOG1 LOG3 0x21 MOD PUSH8 0xC828492DB98DCA3E KECCAK256 PUSH23 0xCC3735A920A3CA505D382BBC65D7A28E3265B37A647492 SWAP16 CALLER PUSH6 0x21B332C1681B SWAP4 EXTCODEHASH PUSH13 0xB9F3376673440D862A7613A25E 0xCC PUSH20 0x8585A232AD50A301178F12B3BA8887D13E138B52 EXTCODECOPY TIMESTAMP PUSH10 0xC47689F6391F5C32D9C6 SWAP14 0x2A SELFBALANCE 0xEA PUSH8 0xB442974B53935D1 0xED 0xC7 REVERT PUSH5 0xEB21E047A8 CODECOPY OR SHL LOG4 SWAP9 SMOD KECCAK256 0x5C 0xE4 0xD3 SSTORE MULMOD 0x2E CREATE2 0xA8 LOG1 DUP16 JUMP 0xE8 SWAP2 EXTCODECOPY DELEGATECALL LOG2 ADD 0xFB 0xE2 DUP8 DUP3 JUMPDEST MULMOD JUMP SWAP4 0xC2 OR PUSH22 0xA26469706673582212208F3F40AE7D62EB46BC2CA75E 0xE6 0xA5 SWAP3 STATICCALL 0xEB PUSH29 0x3E78F775FF591165AEFFE0DCA0E164736F6C6343000811003300000000 "},"gasEstimates":{"creation":{"codeDepositCost":"2587200","executionCost":"infinite","totalCost":"infinite"},"external":{"ADMIN_ROLE()":"818","DEFAULT_ADMIN_ROLE()":"939","PAUSER_ROLE()":"1285","SUPER_ADMIN_ROLE()":"510","UPGRADER_ROLE()":"1345","addAdmin(address)":"infinite","addPauser(address)":"infinite","addSuperAdmin(address)":"infinite","addUpgrader(address)":"infinite","crossSyncGatewayAddress()":"3110","defaultGasLimit()":"3001","executeSendMessage((address,uint256,uint256,uint256,uint256,address,address,(address,bytes)),uint256)":"infinite","getFee((address,uint256,uint256,uint256,uint256,address,address,(address,bytes)),uint256)":"842","getRoleAdmin(bytes32)":"2455","getTrustedForwarder()":"3198","grantRole(bytes32,address)":"infinite","hasRole(bytes32,address)":"3215","initialize(address,address,address,address,address)":"infinite","isTrustedForwarder(address)":"2818","messageSeen(bytes32,bytes32)":"2505","nativeCurrencyAddress()":"2560","nativeCurrencyWrappedAddress()":"3132","owner()":"2978","pause()":"infinite","paused()":"2755","proxiableUUID()":"infinite","receiveTeleporterMessage(bytes32,address,bytes)":"infinite","removeAdmin(address)":"infinite","removePauser(address)":"infinite","removeSuperAdmin(address)":"infinite","removeUpgrader(address)":"infinite","renounceOwnership()":"30986","renounceRole(bytes32,address)":"infinite","rescueEther(address,uint256)":"infinite","rescueFunds(address,address,uint256)":"infinite","revokeRole(bytes32,address)":"infinite","setCrossSyncGatewayAddress(address)":"infinite","setDefaultGasLimit(uint256)":"infinite","setNativeCurrencyAddress(address)":"infinite","setNativeCurrencyWrappedAddress(address)":"infinite","setTeleporterChainImplAddress(uint256,address)":"infinite","setTeleporterDestBlockchainId(uint256,bytes32)":"infinite","setTeleporterGateWayAddress(address)":"infinite","setTrustedForwarder(address)":"infinite","supportsInterface(bytes4)":"314","teleporterChainImplAddress(uint256)":"2495","teleporterDestBlockchainId(uint256)":"3197","teleporterDestBlockchainIdToChainId(bytes32)":"3263","teleporterMessenger()":"3044","transferOwnership(address)":"infinite","unpause()":"infinite","upgradeTo(address)":"infinite","upgradeToAndCall(address,bytes)":"infinite"}},"methodIdentifiers":{"ADMIN_ROLE()":"75b238fc","DEFAULT_ADMIN_ROLE()":"a217fddf","PAUSER_ROLE()":"e63ab1e9","SUPER_ADMIN_ROLE()":"4460bdd6","UPGRADER_ROLE()":"f72c0d8b","addAdmin(address)":"70480275","addPauser(address)":"82dc1ec4","addSuperAdmin(address)":"b3292ff0","addUpgrader(address)":"e5110158","crossSyncGatewayAddress()":"b89b22d7","defaultGasLimit()":"95368d2e","executeSendMessage((address,uint256,uint256,uint256,uint256,address,address,(address,bytes)),uint256)":"36c5eda4","getFee((address,uint256,uint256,uint256,uint256,address,address,(address,bytes)),uint256)":"604a172c","getRoleAdmin(bytes32)":"248a9ca3","getTrustedForwarder()":"ce1b815f","grantRole(bytes32,address)":"2f2ff15d","hasRole(bytes32,address)":"91d14854","initialize(address,address,address,address,address)":"1459457a","isTrustedForwarder(address)":"572b6c05","messageSeen(bytes32,bytes32)":"1908e8a2","nativeCurrencyAddress()":"38073f0c","nativeCurrencyWrappedAddress()":"bd826ed7","owner()":"8da5cb5b","pause()":"8456cb59","paused()":"5c975abb","proxiableUUID()":"52d1902d","receiveTeleporterMessage(bytes32,address,bytes)":"c868efaa","removeAdmin(address)":"1785f53c","removePauser(address)":"6b2c0f55","removeSuperAdmin(address)":"4902e4aa","removeUpgrader(address)":"d264a803","renounceOwnership()":"715018a6","renounceRole(bytes32,address)":"36568abe","rescueEther(address,uint256)":"e42e0ea9","rescueFunds(address,address,uint256)":"6ccae054","revokeRole(bytes32,address)":"d547741f","setCrossSyncGatewayAddress(address)":"4b03285a","setDefaultGasLimit(uint256)":"e32bb67b","setNativeCurrencyAddress(address)":"32495ce1","setNativeCurrencyWrappedAddress(address)":"009fe752","setTeleporterChainImplAddress(uint256,address)":"4835e3cc","setTeleporterDestBlockchainId(uint256,bytes32)":"68fa5d97","setTeleporterGateWayAddress(address)":"f0aa0916","setTrustedForwarder(address)":"da742228","supportsInterface(bytes4)":"01ffc9a7","teleporterChainImplAddress(uint256)":"2e0f23c0","teleporterDestBlockchainId(uint256)":"c2538293","teleporterDestBlockchainIdToChainId(bytes32)":"d03c5da0","teleporterMessenger()":"9b3e5803","transferOwnership(address)":"f2fde38b","unpause()":"3f4ba83a","upgradeTo(address)":"3659cfe6","upgradeToAndCall(address,bytes)":"4f1ef286"}},"storageLayout":{"storage":[{"astId":1082,"contract":"contracts/MessagingImpls/TeleporterImpl.sol:TeleporterImpl","label":"_initialized","offset":0,"slot":"0","type":"t_uint8"},{"astId":1085,"contract":"contracts/MessagingImpls/TeleporterImpl.sol:TeleporterImpl","label":"_initializing","offset":1,"slot":"0","type":"t_bool"},{"astId":2079,"contract":"contracts/MessagingImpls/TeleporterImpl.sol:TeleporterImpl","label":"__gap","offset":0,"slot":"1","type":"t_array(t_uint256)50_storage"},{"astId":589,"contract":"contracts/MessagingImpls/TeleporterImpl.sol:TeleporterImpl","label":"_owner","offset":0,"slot":"51","type":"t_address"},{"astId":709,"contract":"contracts/MessagingImpls/TeleporterImpl.sol:TeleporterImpl","label":"__gap","offset":0,"slot":"52","type":"t_array(t_uint256)49_storage"},{"astId":5398,"contract":"contracts/MessagingImpls/TeleporterImpl.sol:TeleporterImpl","label":"__gap","offset":0,"slot":"101","type":"t_array(t_uint256)50_storage"},{"astId":5275,"contract":"contracts/MessagingImpls/TeleporterImpl.sol:TeleporterImpl","label":"_trustedForwarder","offset":0,"slot":"151","type":"t_address"},{"astId":1401,"contract":"contracts/MessagingImpls/TeleporterImpl.sol:TeleporterImpl","label":"_paused","offset":20,"slot":"151","type":"t_bool"},{"astId":1506,"contract":"contracts/MessagingImpls/TeleporterImpl.sol:TeleporterImpl","label":"__gap","offset":0,"slot":"152","type":"t_array(t_uint256)49_storage"},{"astId":2462,"contract":"contracts/MessagingImpls/TeleporterImpl.sol:TeleporterImpl","label":"__gap","offset":0,"slot":"201","type":"t_array(t_uint256)50_storage"},{"astId":184,"contract":"contracts/MessagingImpls/TeleporterImpl.sol:TeleporterImpl","label":"_roles","offset":0,"slot":"251","type":"t_mapping(t_bytes32,t_struct(RoleData)179_storage)"},{"astId":479,"contract":"contracts/MessagingImpls/TeleporterImpl.sol:TeleporterImpl","label":"__gap","offset":0,"slot":"252","type":"t_array(t_uint256)49_storage"},{"astId":1521,"contract":"contracts/MessagingImpls/TeleporterImpl.sol:TeleporterImpl","label":"_status","offset":0,"slot":"301","type":"t_uint256"},{"astId":1590,"contract":"contracts/MessagingImpls/TeleporterImpl.sol:TeleporterImpl","label":"__gap","offset":0,"slot":"302","type":"t_array(t_uint256)49_storage"},{"astId":1064,"contract":"contracts/MessagingImpls/TeleporterImpl.sol:TeleporterImpl","label":"__gap","offset":0,"slot":"351","type":"t_array(t_uint256)50_storage"},{"astId":1379,"contract":"contracts/MessagingImpls/TeleporterImpl.sol:TeleporterImpl","label":"__gap","offset":0,"slot":"401","type":"t_array(t_uint256)50_storage"},{"astId":4400,"contract":"contracts/MessagingImpls/TeleporterImpl.sol:TeleporterImpl","label":"defaultGasLimit","offset":0,"slot":"451","type":"t_uint256"},{"astId":4402,"contract":"contracts/MessagingImpls/TeleporterImpl.sol:TeleporterImpl","label":"crossSyncGatewayAddress","offset":0,"slot":"452","type":"t_address"},{"astId":4404,"contract":"contracts/MessagingImpls/TeleporterImpl.sol:TeleporterImpl","label":"nativeCurrencyWrappedAddress","offset":0,"slot":"453","type":"t_address"},{"astId":4406,"contract":"contracts/MessagingImpls/TeleporterImpl.sol:TeleporterImpl","label":"nativeCurrencyAddress","offset":0,"slot":"454","type":"t_address"},{"astId":5002,"contract":"contracts/MessagingImpls/TeleporterImpl.sol:TeleporterImpl","label":"__gap","offset":0,"slot":"455","type":"t_array(t_uint256)49_storage"},{"astId":4073,"contract":"contracts/MessagingImpls/TeleporterImpl.sol:TeleporterImpl","label":"teleporterMessenger","offset":0,"slot":"504","type":"t_contract(ITeleporterMessenger)5267"},{"astId":4077,"contract":"contracts/MessagingImpls/TeleporterImpl.sol:TeleporterImpl","label":"teleporterDestBlockchainId","offset":0,"slot":"505","type":"t_mapping(t_uint256,t_bytes32)"},{"astId":4081,"contract":"contracts/MessagingImpls/TeleporterImpl.sol:TeleporterImpl","label":"teleporterDestBlockchainIdToChainId","offset":0,"slot":"506","type":"t_mapping(t_bytes32,t_uint256)"},{"astId":4085,"contract":"contracts/MessagingImpls/TeleporterImpl.sol:TeleporterImpl","label":"teleporterChainImplAddress","offset":0,"slot":"507","type":"t_mapping(t_uint256,t_address)"},{"astId":4091,"contract":"contracts/MessagingImpls/TeleporterImpl.sol:TeleporterImpl","label":"messageSeen","offset":0,"slot":"508","type":"t_mapping(t_bytes32,t_mapping(t_bytes32,t_bool))"}],"types":{"t_address":{"encoding":"inplace","label":"address","numberOfBytes":"20"},"t_array(t_uint256)49_storage":{"base":"t_uint256","encoding":"inplace","label":"uint256[49]","numberOfBytes":"1568"},"t_array(t_uint256)50_storage":{"base":"t_uint256","encoding":"inplace","label":"uint256[50]","numberOfBytes":"1600"},"t_bool":{"encoding":"inplace","label":"bool","numberOfBytes":"1"},"t_bytes32":{"encoding":"inplace","label":"bytes32","numberOfBytes":"32"},"t_contract(ITeleporterMessenger)5267":{"encoding":"inplace","label":"contract ITeleporterMessenger","numberOfBytes":"20"},"t_mapping(t_address,t_bool)":{"encoding":"mapping","key":"t_address","label":"mapping(address => bool)","numberOfBytes":"32","value":"t_bool"},"t_mapping(t_bytes32,t_bool)":{"encoding":"mapping","key":"t_bytes32","label":"mapping(bytes32 => bool)","numberOfBytes":"32","value":"t_bool"},"t_mapping(t_bytes32,t_mapping(t_bytes32,t_bool))":{"encoding":"mapping","key":"t_bytes32","label":"mapping(bytes32 => mapping(bytes32 => bool))","numberOfBytes":"32","value":"t_mapping(t_bytes32,t_bool)"},"t_mapping(t_bytes32,t_struct(RoleData)179_storage)":{"encoding":"mapping","key":"t_bytes32","label":"mapping(bytes32 => struct AccessControlUpgradeable.RoleData)","numberOfBytes":"32","value":"t_struct(RoleData)179_storage"},"t_mapping(t_bytes32,t_uint256)":{"encoding":"mapping","key":"t_bytes32","label":"mapping(bytes32 => uint256)","numberOfBytes":"32","value":"t_uint256"},"t_mapping(t_uint256,t_address)":{"encoding":"mapping","key":"t_uint256","label":"mapping(uint256 => address)","numberOfBytes":"32","value":"t_address"},"t_mapping(t_uint256,t_bytes32)":{"encoding":"mapping","key":"t_uint256","label":"mapping(uint256 => bytes32)","numberOfBytes":"32","value":"t_bytes32"},"t_struct(RoleData)179_storage":{"encoding":"inplace","label":"struct AccessControlUpgradeable.RoleData","members":[{"astId":176,"contract":"contracts/MessagingImpls/TeleporterImpl.sol:TeleporterImpl","label":"members","offset":0,"slot":"0","type":"t_mapping(t_address,t_bool)"},{"astId":178,"contract":"contracts/MessagingImpls/TeleporterImpl.sol:TeleporterImpl","label":"adminRole","offset":0,"slot":"1","type":"t_bytes32"}],"numberOfBytes":"64"},"t_uint256":{"encoding":"inplace","label":"uint256","numberOfBytes":"32"},"t_uint8":{"encoding":"inplace","label":"uint8","numberOfBytes":"1"}}},"userdoc":{"kind":"user","methods":{"getTrustedForwarder()":{"notice":":warning: **Warning** :warning: The Forwarder can have a full control over your Recipient. Only trust verified Forwarder.Method is not a required method to allow Recipients to trust multiple Forwarders. Not recommended yet."},"isTrustedForwarder(address)":{"notice":":warning: **Warning** :warning: The Forwarder can have a full control over your Recipient. Only trust verified Forwarder."}},"version":1}}}}