{
  "_format": "hh-sol-artifact-1",
  "contractName": "WormholeImpl",
  "sourceName": "contracts/MessagingImpls/WormholeImpl.sol",
  "abi": [
    {
      "inputs": [],
      "stateMutability": "nonpayable",
      "type": "constructor"
    },
    {
      "anonymous": false,
      "inputs": [
        {
          "indexed": false,
          "internalType": "address",
          "name": "previousAdmin",
          "type": "address"
        },
        {
          "indexed": false,
          "internalType": "address",
          "name": "newAdmin",
          "type": "address"
        }
      ],
      "name": "AdminChanged",
      "type": "event"
    },
    {
      "anonymous": false,
      "inputs": [
        {
          "indexed": true,
          "internalType": "address",
          "name": "beacon",
          "type": "address"
        }
      ],
      "name": "BeaconUpgraded",
      "type": "event"
    },
    {
      "anonymous": false,
      "inputs": [
        {
          "indexed": false,
          "internalType": "uint8",
          "name": "version",
          "type": "uint8"
        }
      ],
      "name": "Initialized",
      "type": "event"
    },
    {
      "anonymous": false,
      "inputs": [
        {
          "indexed": true,
          "internalType": "address",
          "name": "previousOwner",
          "type": "address"
        },
        {
          "indexed": true,
          "internalType": "address",
          "name": "newOwner",
          "type": "address"
        }
      ],
      "name": "OwnershipTransferred",
      "type": "event"
    },
    {
      "anonymous": false,
      "inputs": [
        {
          "indexed": false,
          "internalType": "address",
          "name": "account",
          "type": "address"
        }
      ],
      "name": "Paused",
      "type": "event"
    },
    {
      "anonymous": false,
      "inputs": [
        {
          "indexed": true,
          "internalType": "bytes32",
          "name": "role",
          "type": "bytes32"
        },
        {
          "indexed": true,
          "internalType": "bytes32",
          "name": "previousAdminRole",
          "type": "bytes32"
        },
        {
          "indexed": true,
          "internalType": "bytes32",
          "name": "newAdminRole",
          "type": "bytes32"
        }
      ],
      "name": "RoleAdminChanged",
      "type": "event"
    },
    {
      "anonymous": false,
      "inputs": [
        {
          "indexed": true,
          "internalType": "bytes32",
          "name": "role",
          "type": "bytes32"
        },
        {
          "indexed": true,
          "internalType": "address",
          "name": "account",
          "type": "address"
        },
        {
          "indexed": true,
          "internalType": "address",
          "name": "sender",
          "type": "address"
        }
      ],
      "name": "RoleGranted",
      "type": "event"
    },
    {
      "anonymous": false,
      "inputs": [
        {
          "indexed": true,
          "internalType": "bytes32",
          "name": "role",
          "type": "bytes32"
        },
        {
          "indexed": true,
          "internalType": "address",
          "name": "account",
          "type": "address"
        },
        {
          "indexed": true,
          "internalType": "address",
          "name": "sender",
          "type": "address"
        }
      ],
      "name": "RoleRevoked",
      "type": "event"
    },
    {
      "anonymous": false,
      "inputs": [
        {
          "indexed": false,
          "internalType": "address",
          "name": "account",
          "type": "address"
        }
      ],
      "name": "Unpaused",
      "type": "event"
    },
    {
      "anonymous": false,
      "inputs": [
        {
          "indexed": true,
          "internalType": "address",
          "name": "implementation",
          "type": "address"
        }
      ],
      "name": "Upgraded",
      "type": "event"
    },
    {
      "inputs": [],
      "name": "ADMIN_ROLE",
      "outputs": [
        {
          "internalType": "bytes32",
          "name": "",
          "type": "bytes32"
        }
      ],
      "stateMutability": "view",
      "type": "function"
    },
    {
      "inputs": [],
      "name": "DEFAULT_ADMIN_ROLE",
      "outputs": [
        {
          "internalType": "bytes32",
          "name": "",
          "type": "bytes32"
        }
      ],
      "stateMutability": "view",
      "type": "function"
    },
    {
      "inputs": [],
      "name": "PAUSER_ROLE",
      "outputs": [
        {
          "internalType": "bytes32",
          "name": "",
          "type": "bytes32"
        }
      ],
      "stateMutability": "view",
      "type": "function"
    },
    {
      "inputs": [],
      "name": "SUPER_ADMIN_ROLE",
      "outputs": [
        {
          "internalType": "bytes32",
          "name": "",
          "type": "bytes32"
        }
      ],
      "stateMutability": "view",
      "type": "function"
    },
    {
      "inputs": [],
      "name": "UPGRADER_ROLE",
      "outputs": [
        {
          "internalType": "bytes32",
          "name": "",
          "type": "bytes32"
        }
      ],
      "stateMutability": "view",
      "type": "function"
    },
    {
      "inputs": [
        {
          "internalType": "address",
          "name": "_admin",
          "type": "address"
        }
      ],
      "name": "addAdmin",
      "outputs": [],
      "stateMutability": "nonpayable",
      "type": "function"
    },
    {
      "inputs": [
        {
          "internalType": "address",
          "name": "account",
          "type": "address"
        }
      ],
      "name": "addPauser",
      "outputs": [],
      "stateMutability": "nonpayable",
      "type": "function"
    },
    {
      "inputs": [
        {
          "internalType": "address",
          "name": "_superAdmin",
          "type": "address"
        }
      ],
      "name": "addSuperAdmin",
      "outputs": [],
      "stateMutability": "nonpayable",
      "type": "function"
    },
    {
      "inputs": [
        {
          "internalType": "address",
          "name": "_upgrader",
          "type": "address"
        }
      ],
      "name": "addUpgrader",
      "outputs": [],
      "stateMutability": "nonpayable",
      "type": "function"
    },
    {
      "inputs": [],
      "name": "crossSyncGatewayAddress",
      "outputs": [
        {
          "internalType": "address",
          "name": "",
          "type": "address"
        }
      ],
      "stateMutability": "view",
      "type": "function"
    },
    {
      "inputs": [],
      "name": "defaultGasLimit",
      "outputs": [
        {
          "internalType": "uint256",
          "name": "",
          "type": "uint256"
        }
      ],
      "stateMutability": "view",
      "type": "function"
    },
    {
      "inputs": [
        {
          "components": [
            {
              "internalType": "address",
              "name": "sender",
              "type": "address"
            },
            {
              "internalType": "uint256",
              "name": "nonce",
              "type": "uint256"
            },
            {
              "internalType": "uint256",
              "name": "messagingRouteId",
              "type": "uint256"
            },
            {
              "internalType": "uint256",
              "name": "sourceChainId",
              "type": "uint256"
            },
            {
              "internalType": "uint256",
              "name": "destinationChainId",
              "type": "uint256"
            },
            {
              "internalType": "address",
              "name": "sourceGatewayAddress",
              "type": "address"
            },
            {
              "internalType": "address",
              "name": "destinationGatewayAddress",
              "type": "address"
            },
            {
              "components": [
                {
                  "internalType": "address",
                  "name": "to",
                  "type": "address"
                },
                {
                  "internalType": "bytes",
                  "name": "data",
                  "type": "bytes"
                }
              ],
              "internalType": "struct ICrossSyncGateway.MessagingPayload",
              "name": "payload",
              "type": "tuple"
            }
          ],
          "internalType": "struct IMessagingImpl.ICrossSyncMessagingData",
          "name": "_data",
          "type": "tuple"
        },
        {
          "internalType": "uint256",
          "name": "_gasLimit",
          "type": "uint256"
        }
      ],
      "name": "executeSendMessage",
      "outputs": [
        {
          "internalType": "bytes",
          "name": "",
          "type": "bytes"
        }
      ],
      "stateMutability": "payable",
      "type": "function"
    },
    {
      "inputs": [
        {
          "components": [
            {
              "internalType": "address",
              "name": "sender",
              "type": "address"
            },
            {
              "internalType": "uint256",
              "name": "nonce",
              "type": "uint256"
            },
            {
              "internalType": "uint256",
              "name": "messagingRouteId",
              "type": "uint256"
            },
            {
              "internalType": "uint256",
              "name": "sourceChainId",
              "type": "uint256"
            },
            {
              "internalType": "uint256",
              "name": "destinationChainId",
              "type": "uint256"
            },
            {
              "internalType": "address",
              "name": "sourceGatewayAddress",
              "type": "address"
            },
            {
              "internalType": "address",
              "name": "destinationGatewayAddress",
              "type": "address"
            },
            {
              "components": [
                {
                  "internalType": "address",
                  "name": "to",
                  "type": "address"
                },
                {
                  "internalType": "bytes",
                  "name": "data",
                  "type": "bytes"
                }
              ],
              "internalType": "struct ICrossSyncGateway.MessagingPayload",
              "name": "payload",
              "type": "tuple"
            }
          ],
          "internalType": "struct IMessagingImpl.ICrossSyncMessagingData",
          "name": "_data",
          "type": "tuple"
        },
        {
          "internalType": "uint256",
          "name": "_gasLimit",
          "type": "uint256"
        }
      ],
      "name": "getFee",
      "outputs": [
        {
          "internalType": "uint256",
          "name": "",
          "type": "uint256"
        }
      ],
      "stateMutability": "view",
      "type": "function"
    },
    {
      "inputs": [
        {
          "internalType": "bytes32",
          "name": "role",
          "type": "bytes32"
        }
      ],
      "name": "getRoleAdmin",
      "outputs": [
        {
          "internalType": "bytes32",
          "name": "",
          "type": "bytes32"
        }
      ],
      "stateMutability": "view",
      "type": "function"
    },
    {
      "inputs": [],
      "name": "getTrustedForwarder",
      "outputs": [
        {
          "internalType": "address",
          "name": "forwarder",
          "type": "address"
        }
      ],
      "stateMutability": "view",
      "type": "function"
    },
    {
      "inputs": [
        {
          "internalType": "bytes32",
          "name": "role",
          "type": "bytes32"
        },
        {
          "internalType": "address",
          "name": "account",
          "type": "address"
        }
      ],
      "name": "grantRole",
      "outputs": [],
      "stateMutability": "nonpayable",
      "type": "function"
    },
    {
      "inputs": [
        {
          "internalType": "bytes32",
          "name": "role",
          "type": "bytes32"
        },
        {
          "internalType": "address",
          "name": "account",
          "type": "address"
        }
      ],
      "name": "hasRole",
      "outputs": [
        {
          "internalType": "bool",
          "name": "",
          "type": "bool"
        }
      ],
      "stateMutability": "view",
      "type": "function"
    },
    {
      "inputs": [
        {
          "internalType": "address",
          "name": "_crossSyncGatewayAddress",
          "type": "address"
        },
        {
          "internalType": "address",
          "name": "_nativeCurrencyWrappedAddress",
          "type": "address"
        },
        {
          "internalType": "address",
          "name": "_nativeCurrencyAddress",
          "type": "address"
        },
        {
          "internalType": "address",
          "name": "_owner",
          "type": "address"
        },
        {
          "internalType": "address",
          "name": "_wormholeRelayerAddress",
          "type": "address"
        }
      ],
      "name": "initialize",
      "outputs": [],
      "stateMutability": "nonpayable",
      "type": "function"
    },
    {
      "inputs": [
        {
          "internalType": "address",
          "name": "forwarder",
          "type": "address"
        }
      ],
      "name": "isTrustedForwarder",
      "outputs": [
        {
          "internalType": "bool",
          "name": "",
          "type": "bool"
        }
      ],
      "stateMutability": "view",
      "type": "function"
    },
    {
      "inputs": [
        {
          "internalType": "bytes32",
          "name": "",
          "type": "bytes32"
        },
        {
          "internalType": "bytes32",
          "name": "",
          "type": "bytes32"
        }
      ],
      "name": "messageSeen",
      "outputs": [
        {
          "internalType": "bool",
          "name": "",
          "type": "bool"
        }
      ],
      "stateMutability": "view",
      "type": "function"
    },
    {
      "inputs": [],
      "name": "nativeCurrencyAddress",
      "outputs": [
        {
          "internalType": "address",
          "name": "",
          "type": "address"
        }
      ],
      "stateMutability": "view",
      "type": "function"
    },
    {
      "inputs": [],
      "name": "nativeCurrencyWrappedAddress",
      "outputs": [
        {
          "internalType": "address",
          "name": "",
          "type": "address"
        }
      ],
      "stateMutability": "view",
      "type": "function"
    },
    {
      "inputs": [],
      "name": "owner",
      "outputs": [
        {
          "internalType": "address",
          "name": "",
          "type": "address"
        }
      ],
      "stateMutability": "view",
      "type": "function"
    },
    {
      "inputs": [],
      "name": "pause",
      "outputs": [],
      "stateMutability": "nonpayable",
      "type": "function"
    },
    {
      "inputs": [],
      "name": "paused",
      "outputs": [
        {
          "internalType": "bool",
          "name": "",
          "type": "bool"
        }
      ],
      "stateMutability": "view",
      "type": "function"
    },
    {
      "inputs": [],
      "name": "proxiableUUID",
      "outputs": [
        {
          "internalType": "bytes32",
          "name": "",
          "type": "bytes32"
        }
      ],
      "stateMutability": "view",
      "type": "function"
    },
    {
      "inputs": [
        {
          "internalType": "bytes",
          "name": "payload",
          "type": "bytes"
        },
        {
          "internalType": "bytes[]",
          "name": "additionalVaas",
          "type": "bytes[]"
        },
        {
          "internalType": "bytes32",
          "name": "sourceAddress",
          "type": "bytes32"
        },
        {
          "internalType": "uint16",
          "name": "sourceChain",
          "type": "uint16"
        },
        {
          "internalType": "bytes32",
          "name": "deliveryHash",
          "type": "bytes32"
        }
      ],
      "name": "receiveWormholeMessages",
      "outputs": [],
      "stateMutability": "payable",
      "type": "function"
    },
    {
      "inputs": [
        {
          "internalType": "address",
          "name": "_admin",
          "type": "address"
        }
      ],
      "name": "removeAdmin",
      "outputs": [],
      "stateMutability": "nonpayable",
      "type": "function"
    },
    {
      "inputs": [
        {
          "internalType": "address",
          "name": "_pauser",
          "type": "address"
        }
      ],
      "name": "removePauser",
      "outputs": [],
      "stateMutability": "nonpayable",
      "type": "function"
    },
    {
      "inputs": [
        {
          "internalType": "address",
          "name": "_superAdmin",
          "type": "address"
        }
      ],
      "name": "removeSuperAdmin",
      "outputs": [],
      "stateMutability": "nonpayable",
      "type": "function"
    },
    {
      "inputs": [
        {
          "internalType": "address",
          "name": "_upgrader",
          "type": "address"
        }
      ],
      "name": "removeUpgrader",
      "outputs": [],
      "stateMutability": "nonpayable",
      "type": "function"
    },
    {
      "inputs": [],
      "name": "renounceOwnership",
      "outputs": [],
      "stateMutability": "nonpayable",
      "type": "function"
    },
    {
      "inputs": [
        {
          "internalType": "bytes32",
          "name": "role",
          "type": "bytes32"
        },
        {
          "internalType": "address",
          "name": "account",
          "type": "address"
        }
      ],
      "name": "renounceRole",
      "outputs": [],
      "stateMutability": "nonpayable",
      "type": "function"
    },
    {
      "inputs": [
        {
          "internalType": "address payable",
          "name": "userAddress",
          "type": "address"
        },
        {
          "internalType": "uint256",
          "name": "amount",
          "type": "uint256"
        }
      ],
      "name": "rescueEther",
      "outputs": [],
      "stateMutability": "nonpayable",
      "type": "function"
    },
    {
      "inputs": [
        {
          "internalType": "address",
          "name": "token",
          "type": "address"
        },
        {
          "internalType": "address",
          "name": "userAddress",
          "type": "address"
        },
        {
          "internalType": "uint256",
          "name": "amount",
          "type": "uint256"
        }
      ],
      "name": "rescueFunds",
      "outputs": [],
      "stateMutability": "nonpayable",
      "type": "function"
    },
    {
      "inputs": [
        {
          "internalType": "bytes32",
          "name": "role",
          "type": "bytes32"
        },
        {
          "internalType": "address",
          "name": "account",
          "type": "address"
        }
      ],
      "name": "revokeRole",
      "outputs": [],
      "stateMutability": "nonpayable",
      "type": "function"
    },
    {
      "inputs": [
        {
          "internalType": "address",
          "name": "_crossSyncGatewayAddress",
          "type": "address"
        }
      ],
      "name": "setCrossSyncGatewayAddress",
      "outputs": [],
      "stateMutability": "nonpayable",
      "type": "function"
    },
    {
      "inputs": [
        {
          "internalType": "uint256",
          "name": "_defaultGasLimit",
          "type": "uint256"
        }
      ],
      "name": "setDefaultGasLimit",
      "outputs": [],
      "stateMutability": "nonpayable",
      "type": "function"
    },
    {
      "inputs": [
        {
          "internalType": "address",
          "name": "_nativeCurrencyAddress",
          "type": "address"
        }
      ],
      "name": "setNativeCurrencyAddress",
      "outputs": [],
      "stateMutability": "nonpayable",
      "type": "function"
    },
    {
      "inputs": [
        {
          "internalType": "address",
          "name": "_nativeCurrencyWrappedAddress",
          "type": "address"
        }
      ],
      "name": "setNativeCurrencyWrappedAddress",
      "outputs": [],
      "stateMutability": "nonpayable",
      "type": "function"
    },
    {
      "inputs": [
        {
          "internalType": "address",
          "name": "_newtrustedForwarder",
          "type": "address"
        }
      ],
      "name": "setTrustedForwarder",
      "outputs": [],
      "stateMutability": "nonpayable",
      "type": "function"
    },
    {
      "inputs": [
        {
          "internalType": "uint256",
          "name": "_chainId",
          "type": "uint256"
        },
        {
          "internalType": "uint16",
          "name": "_wormholeChainId",
          "type": "uint16"
        }
      ],
      "name": "setWormholeChainId",
      "outputs": [],
      "stateMutability": "nonpayable",
      "type": "function"
    },
    {
      "inputs": [
        {
          "internalType": "uint256",
          "name": "_chainId",
          "type": "uint256"
        },
        {
          "internalType": "address",
          "name": "_wormholeChainImplAddress",
          "type": "address"
        }
      ],
      "name": "setWormholeChainImplAddress",
      "outputs": [],
      "stateMutability": "nonpayable",
      "type": "function"
    },
    {
      "inputs": [
        {
          "internalType": "contract IWormholeRelayer",
          "name": "_wormholeRelayer",
          "type": "address"
        }
      ],
      "name": "setWormholeRelayer",
      "outputs": [],
      "stateMutability": "nonpayable",
      "type": "function"
    },
    {
      "inputs": [
        {
          "internalType": "bytes4",
          "name": "interfaceId",
          "type": "bytes4"
        }
      ],
      "name": "supportsInterface",
      "outputs": [
        {
          "internalType": "bool",
          "name": "",
          "type": "bool"
        }
      ],
      "stateMutability": "view",
      "type": "function"
    },
    {
      "inputs": [
        {
          "internalType": "address",
          "name": "newOwner",
          "type": "address"
        }
      ],
      "name": "transferOwnership",
      "outputs": [],
      "stateMutability": "nonpayable",
      "type": "function"
    },
    {
      "inputs": [],
      "name": "unpause",
      "outputs": [],
      "stateMutability": "nonpayable",
      "type": "function"
    },
    {
      "inputs": [
        {
          "internalType": "address",
          "name": "newImplementation",
          "type": "address"
        }
      ],
      "name": "upgradeTo",
      "outputs": [],
      "stateMutability": "nonpayable",
      "type": "function"
    },
    {
      "inputs": [
        {
          "internalType": "address",
          "name": "newImplementation",
          "type": "address"
        },
        {
          "internalType": "bytes",
          "name": "data",
          "type": "bytes"
        }
      ],
      "name": "upgradeToAndCall",
      "outputs": [],
      "stateMutability": "payable",
      "type": "function"
    },
    {
      "inputs": [
        {
          "internalType": "uint256",
          "name": "",
          "type": "uint256"
        }
      ],
      "name": "wormholeChainId",
      "outputs": [
        {
          "internalType": "uint16",
          "name": "",
          "type": "uint16"
        }
      ],
      "stateMutability": "view",
      "type": "function"
    },
    {
      "inputs": [
        {
          "internalType": "uint16",
          "name": "",
          "type": "uint16"
        }
      ],
      "name": "wormholeChainIdToChainId",
      "outputs": [
        {
          "internalType": "uint256",
          "name": "",
          "type": "uint256"
        }
      ],
      "stateMutability": "view",
      "type": "function"
    },
    {
      "inputs": [
        {
          "internalType": "uint256",
          "name": "",
          "type": "uint256"
        }
      ],
      "name": "wormholeChainImplAddress",
      "outputs": [
        {
          "internalType": "address",
          "name": "",
          "type": "address"
        }
      ],
      "stateMutability": "view",
      "type": "function"
    },
    {
      "inputs": [],
      "name": "wormholeRelayer",
      "outputs": [
        {
          "internalType": "contract IWormholeRelayer",
          "name": "",
          "type": "address"
        }
      ],
      "stateMutability": "view",
      "type": "function"
    },
    {
      "stateMutability": "payable",
      "type": "receive"
    }
  ],
  "bytecode": "0x60a060405234620000495730608052620000186200004e565b620000226200004e565b6040516134a09081620000f882396080518181816110e6015281816114e20152611e160152f35b600080fd5b60005460ff8160081c16620000a25760ff808216036200006b5750565b60ff90811916176000557f7f26b83ff96e1f2b6a682f133852f6798a09c465da95921460cefb3847402498602060405160ff8152a1565b60405162461bcd60e51b815260206004820152602760248201527f496e697469616c697a61626c653a20636f6e747261637420697320696e697469604482015266616c697a696e6760c81b6064820152608490fdfe6080604052600436101561001b575b361561001957600080fd5b005b6000803560e01c80629fe7521461282e57806301ffc9a7146127d75780631459457a146124c65780631785f53c146123d55780631908e8a21461239b5780632290720414612304578063248a9ca3146122d75780632f2ff15d1461222d57806332495ce11461219457806336568abe146120f75780633659cfe614611df157806336c5eda414611aa857806338073f0c14611a7e5780633f4ba83a1461194857806341abd987146119195780634460bdd6146118f05780634902e4aa1461184d5780634b03285a146117b45780634f1ef286146114a1578063529dca321461119757806352d1902d146110d3578063572b6c051461109d5780635c975abb14611077578063604a172c146110175780636b2c0f5514610f1a5780636ccae05414610e715780637048027514610db8578063715018a614610d5a57806375b238fc14610d3157806382dc1ec414610c305780638456cb5914610aed5780638da5cb5b14610ac457806391d1485414610a7857806395368d2e14610a59578063a217fddf14610a3d578063a8090a5814610a00578063b3292ff014610988578063b89b22d71461095e578063bd826ed714610934578063ce1b815f1461090b578063d264a8031461084e578063d345718a146107a9578063d547741f14610768578063da25b7251461073e578063da742228146106a6578063dae4ba1d14610672578063e159378d146105ea578063e32bb67b1461056b578063e42e0ea91461050a578063e511015814610449578063e63ab1e914610420578063f2fde38b146102985763f72c0d8b1461026d575061000e565b3461029557806003193601126102955760206040516000805160206133ab8339815191528152f35b80fd5b50346102955760208060031936011261041c576102b36128c7565b6102bb612e76565b6102c3612e76565b6001600160a01b0390808216156103c857806102e16102e692612ed9565b612d74565b6102ee61332e565b9181806102f961332e565b16931692830361036c576000805260fb8152604060002083600052815260ff60406000205416610327578380f35b6000805260fb81526040600020908360005252604060002060ff19815416905561034f61332e565b1690600060008051602061342b8339815191528180a43880808380f35b6084906040519062461bcd60e51b82526004820152602f60248201527f416363657373436f6e74726f6c3a2063616e206f6e6c792072656e6f756e636560448201526e103937b632b9903337b91039b2b63360891b6064820152fd5b60405162461bcd60e51b815260048101849052602660248201527f4f776e61626c653a206e6577206f776e657220697320746865207a65726f206160448201526564647265737360d01b6064820152608490fd5b5080fd5b503461029557806003193601126102955760206040516000805160206133eb8339815191528152f35b5034610295576020366003190112610295576104636128c7565b61046b612e76565b6001600160a01b0390811660008181527f775ac87777436f29b0cd5453bf5db4da15d8938d0ef70de831d2edd17651cf6760205260409020546000805160206133ab833981519152929060ff16156104c1578380f35b8260005260fb6020526040600020826000526020526040600020600160ff198254161790556104ee61332e565b169160008051602061338b833981519152600080a43880808380f35b503461029557604036600319011261029557806004356001600160a01b03811690819003610568578180809260243590610542612e76565b82821561055f575bf1156105535780f35b604051903d90823e3d90fd5b506108fc61054a565b50fd5b5034610295576020366003190112610295576105c961058861332e565b60008051602061340b833981519152835260fb6020526040832060018060a01b0380921660005260205260ff604060002054169081156105d3575b50613206565b6004356101c35580f35b603354811691506105e261332e565b1614386105c3565b5034610295576020366003190112610295576004356001600160a01b038181169182900361066e576106579061061e61332e565b60008051602061340b833981519152855260fb6020528160408620911660005260205260ff604060002054169081156105d35750613206565b6101f880546001600160a01b031916909117905580f35b8280fd5b50346102955760203660031901126102955760209060043581526101fb8252604060018060a01b0391205416604051908152f35b5034610295576020366003190112610295576106c06128c7565b6106c861332e565b9060008051602061340b833981519152835260fb6020526040832060018060a01b0380931660005260205260ff604060002054168015610723575b61070c90613206565b166001600160601b0360a01b609754161760975580f35b5061070c82603354168361073561332e565b16149050610703565b50346102955780600319360112610295576101f8546040516001600160a01b039091168152602090f35b5034610295576040366003190112610295576107a66004356107886128dd565b9080845260fb6020526107a16001604086200154612a4b565b612dfc565b80f35b5034610295576040366003190112610295576107c36128dd565b6107cb61332e565b60008051602061340b833981519152835260fb6020526040832060018060a01b0380921660005260205260ff604060002054168015610833575b61080e90613206565b60043583526101fb6020526040832091166001600160601b0360a01b82541617905580f35b5061080e81603354168261084561332e565b16149050610805565b5034610295576020366003190112610295576108686128c7565b610870612e76565b6001600160a01b0390811660008181527f775ac87777436f29b0cd5453bf5db4da15d8938d0ef70de831d2edd17651cf6760205260409020546000805160206133ab833981519152929060ff166108c5578380f35b8260005260fb602052604060002082600052602052604060002060ff1981541690556108ef61332e565b169160008051602061342b833981519152600080a43880808380f35b50346102955780600319360112610295576097546040516001600160a01b039091168152602090f35b50346102955780600319360112610295576101c5546040516001600160a01b039091168152602090f35b50346102955780600319360112610295576101c4546040516001600160a01b039091168152602090f35b5034610295576020366003190112610295576109a26128c7565b6109aa612e76565b6001600160a01b0390811660008181527fdefa081d5f5dff63cf62175586defc42bfa6070dce21008582b31b585449defd602052604090205460008051602061340b833981519152929060ff16156104c1578380f35b50346102955760203660031901126102955760043561ffff8116809103610a385781604091602093526101fa83522054604051908152f35b600080fd5b5034610295578060031936011261029557602090604051908152f35b503461029557806003193601126102955760206101c354604051908152f35b5034610295576040366003190112610295576040610a946128dd565b91600435815260fb602052209060018060a01b0316600052602052602060ff604060002054166040519015158152f35b50346102955780600319360112610295576033546040516001600160a01b039091168152602090f35b5034610295578060031936011261029557610b0661332e565b6000805160206133eb833981519152825260209060fb82526040832060018060a01b03809216600052825260ff604060002054168015610bf8575b8015610bdd575b610b5190613206565b60975460ff8160a01c16610ba55760ff60a01b1916600160a01b176097557f62e78cea01bee320cd4e420270b5ea74000d11b0c9f74754ebdbfc544b05a2589190610b9a61332e565b60405191168152a180f35b60405162461bcd60e51b815260048101849052601060248201526f14185d5cd8589b194e881c185d5cd95960821b6044820152606490fd5b50610b51816033541682610bef61332e565b16149050610b48565b50610c0161332e565b60008051602061340b833981519152845260fb835281604085209116600052825260ff60406000205416610b41565b50346102955760208060031936011261041c57610c4b6128c7565b610c5361332e565b60008051602061340b833981519152845260fb835260408085206001600160a01b039283166000908152908552205460ff168015610d16575b610c9590613206565b6000805160206133eb833981519152928360005260fb815281604060002093169283600052815260ff6040600020541615610cce578480f35b8360005260fb815260406000209083600052526040600020600160ff19825416179055610cf961332e565b169160008051602061338b833981519152600080a4388080808480f35b50610c95816033541682610d2861332e565b16149050610c8c565b5034610295578060031936011261029557602060405160008051602061344b8339815191528152f35b5034610295578060031936011261029557610d73612e76565b603380546001600160a01b031981169091556000906001600160a01b03167f8be0079c531659141344cd1fd0a4f28419497f9722a3daafe3b4186f6b6457e08280a380f35b50346102955760208060031936011261041c57610dd36128c7565b610ddb61332e565b60008051602061340b833981519152845260fb835260408085206001600160a01b039283166000908152908552205460ff168015610e56575b610e1d90613206565b60008051602061344b833981519152928360005260fb815281604060002093169283600052815260ff6040600020541615610cce578480f35b50610e1d816033541682610e6861332e565b16149050610e14565b503461029557606036600319011261029557806020610e8e6128c7565b6044610e986128dd565b91610ea1612e76565b60405163a9059cbb60e01b81526001600160a01b039384166004820152823560248201529485938492165af18015610f0f57610edb575080f35b6020813d8211610f07575b81610ef3602093836129b8565b8101031261041c5751801515036102955780f35b3d9150610ee6565b6040513d84823e3d90fd5b50346102955760208060031936011261041c57610f356128c7565b610f3d61332e565b60008051602061340b833981519152845260fb835260408085206001600160a01b039283166000908152908552205460ff168015610ffc575b610f7f90613206565b6000805160206133eb833981519152928360005260fb815281604060002093169283600052815260ff60406000205416610fb7578480f35b8360005260fb81526040600020908360005252604060002060ff198154169055610fdf61332e565b169160008051602061342b833981519152600080a4388080808480f35b50610f7f81603354168261100e61332e565b16149050610f76565b5034610295576110696020916080604061103036612907565b920135928381526101f980875261ffff936110518585852054161515613134565b8061107157506101c354945b82528652205416613248565b604051908152f35b9461105d565b5034610295578060031936011261029557602060ff60975460a01c166040519015158152f35b50346102955760203660031901126102955760206110b96128c7565b6097546040516001600160a01b0392831691909216148152f35b50346102955780600319360112610295577f00000000000000000000000000000000000000000000000000000000000000006001600160a01b0316300361112c5760206040516000805160206133cb8339815191528152f35b60405162461bcd60e51b815260206004820152603860248201527f555550535570677261646561626c653a206d757374206e6f742062652063616c60448201527f6c6564207468726f7567682064656c656761746563616c6c00000000000000006064820152608490fd5b5060a03660031901126102955767ffffffffffffffff60043581811161066e573660238201121561066e5780600401359180831161135b57602491828101908385369201011161149d57823593828511611499573660238601121561149957846004013594838611611486578560051b8560405197602098899161121d838601836129b8565b815201918301019136831161148257868101915b838310611458575050505060643561ffff8116809103611454576084356112566131af565b6101f8546001600160a01b039290831633036113ea5788526101fa8752604088205488526101fb8752816040892054166044350361139b576112993684866129f6565b878151910120908089526101fc9081895260408a20838b52895260ff60408b20541661135f578952875260408089209189529087528720805460ff191660011790556101c454879392911690813b1561135b5783611313976040519889958694859363e34381a160e01b855260048501528a84019161318e565b03925af180156113505761132c575b83600161012d5580f35b821161133e5750604052388080611322565b634e487b7160e01b8352604160045282fd5b6040513d86823e3d90fd5b8380fd5b60405162461bcd60e51b8152600481018a90526015818a0152744d65737361676520616c7265616479207365656e2160581b6044820152606490fd5b608487876040519162461bcd60e51b83526004830152808201527f576f726d686f6c65496d706c3a20496e76616c696420736f75726365206164646044820152637265737360e01b6064820152fd5b60405162461bcd60e51b8152600481018990526039818901527f576f726d686f6c65496d706c3a204f6e6c7920576f726d686f6c6552656c617960448201527f65722063616e2063616c6c20746869732066756e6374696f6e000000000000006064820152608490fd5b8680fd5b823587811161147e57899161147383928b3691870101612a2d565b815201920191611231565b8a80fd5b8880fd5b634e487b7160e01b875260416004528487fd5b8580fd5b8480fd5b506040366003190112610295576114b66128c7565b60243567ffffffffffffffff811161066e576114d6903690600401612a2d565b6001600160a01b0391907f0000000000000000000000000000000000000000000000000000000000000000831661150f30821415612f22565b61152c6000805160206133cb833981519152918583541614612f83565b61153461332e565b936000805160206133ab833981519152865260209460fb8652816040882091168752855260ff6040872054168015611799575b61157090613206565b7f4910fdfa16fed3260ed0e7147f7cc6da11a60208b5b9406d12a635614ffd91435460ff16156115a7575050506107a69150612fe4565b8316906040516352d1902d60e01b81528581600481865afa879181611766575b506116285760405162461bcd60e51b815260048101879052602e60248201527f45524331393637557067726164653a206e657720696d706c656d656e7461746960448201526d6f6e206973206e6f74205555505360901b6064820152608490fd5b949293940361170f5761163a84612fe4565b7fbc7cd75a20ee27fd9adebab32041f755214dbc6bffa90cc0225b39da2e5c2d3b8580a2815115801590611707575b611674575b50505080f35b6116f59284806040519461168786612986565b602786527f416464726573733a206c6f772d6c6576656c2064656c65676174652063616c6c85870152660819985a5b195960ca1b60408701528481519101845af4903d156116fe573d6116d9816129da565b906116e760405192836129b8565b81528681943d92013e613074565b5038808061166e565b60609250613074565b506001611669565b60405162461bcd60e51b815260048101839052602960248201527f45524331393637557067726164653a20756e737570706f727465642070726f786044820152681a58589b195555525160ba1b6064820152608490fd5b9091508681813d8311611792575b61177e81836129b8565b8101031261178e575190386115c7565b8780fd5b503d611774565b506115708160335416826117ab61332e565b16149050611567565b5034610295576020366003190112610295576117ce6128c7565b6117d661332e565b60008051602061340b833981519152835260fb602090815260408085206001600160a01b03938416865290915283205460ff168015611832575b61181990613206565b6101c491166001600160601b0360a01b82541617905580f35b5061181981603354168261184461332e565b16149050611810565b5034610295576020366003190112610295576118676128c7565b61186f612e76565b60008051602061340b83398151915280835260fb602090815260408085206001600160a01b0394851680875292528420549192909160ff166118af578380f35b82845260fb602052604084208285526020526040842060ff1981541690556118d561332e565b169160008051602061342b8339815191528480a43880808380f35b5034610295578060031936011261029557602060405160008051602061340b8339815191528152f35b50346102955760203660031901126102955761ffff604060209260043581526101f98452205416604051908152f35b503461029557806003193601126102955761196161332e565b6000805160206133eb833981519152825260fb602090815260408084206001600160a01b039384168552825283205490919060ff168015611a48575b8015611a2d575b6119ad90613206565b60975460ff8160a01c16156119f15760ff60a01b19166097557f5db9ee0a495bf2e6ff9c91a7834c1ba4fdd244a5e8aa4e537bd38aeae4b073aa9190610b9a61332e565b60405162461bcd60e51b815260048101849052601460248201527314185d5cd8589b194e881b9bdd081c185d5cd95960621b6044820152606490fd5b506119ad816033541682611a3f61332e565b161490506119a4565b50611a5161332e565b60008051602061340b833981519152845260fb8352816040852091168452825260ff60408420541661199d565b50346102955780600319360112610295576101c6546040516001600160a01b039091168152602090f35b50611ab236612907565b90611abb6131af565b611ac361332e565b6101c4546001600160a01b03908116911603611d9757608081013583526101f9602052611af961ffff6040852054161515613134565b604051602080820152916001600160a01b03611b14836128f3565b1660408401526020820135606084015260408201356080840152606082013560a0840152608082013560c084015260018060a01b03611b5560a084016128f3565b1660e08401526001600160a01b03611b6f60c084016128f3565b16610100908185015260e0830135603e19843603018112156114995761012085019190915282016001600160a01b03611ba7826128f3565b166101408501526020810135601e1982360301811215611499570160208135910167ffffffffffffffff821161149957813603811361149957611bfc8591611c0a93604061016085015261018084019161318e565b03601f1981018552846129b8565b80611d9157506101c354915b608082013584526101f9602052611c358361ffff604087205416613248565b9182341115611d5657611ca893602093608060018060a01b036101f8541693013587526101f9855261ffff6040882054166101fb865260018060a01b0360408920541692604051978896879586946347f66e8160e11b86526004860152602485015260a0604485015260a4840190612961565b90896064840152608483015203925af18015610f0f57611d16575b50600161012d5560405190602082528160605191826020830152805b838110611cff575091604092838284010152601f80199101168101030190f35b608081015185820160400152849250602001611cdf565b6020813d602011611d4e575b81611d2f602093836129b8565b8101031261041c575167ffffffffffffffff8116036102955738611cc3565b3d9150611d22565b60405162461bcd60e51b8152602060048201526013602482015272476173207061796d656e74206973206c65737360681b6044820152606490fd5b91611c16565b60405162461bcd60e51b815260206004820152602c60248201527f4f6e6c792043726f737353796e63476174657761792063616e2063616c6c207460448201526b3434b990333ab731ba34b7b760a11b6064820152608490fd5b50346102955760208060031936011261041c57611e0c6128c7565b6001600160a01b037f00000000000000000000000000000000000000000000000000000000000000008116611e4330821415612f22565b611e606000805160206133cb833981519152918383541614612f83565b611e6861332e565b6000805160206133ab833981519152865260fb8552826040872091168652845260ff60408620541680156120dc575b611ea090613206565b604051908482019282841067ffffffffffffffff8511176120c8578360405286835260ff7f4910fdfa16fed3260ed0e7147f7cc6da11a60208b5b9406d12a635614ffd91435416600014611efc57505050506107a69150612fe4565b8492939416906040516352d1902d60e01b81528681600481865afa889181612099575b50611f805760405162461bcd60e51b815260048101889052602e60248201527f45524331393637557067726164653a206e657720696d706c656d656e7461746960448201526d6f6e206973206e6f74205555505360901b6064820152608490fd5b959394950361204257611f9282612fe4565b7fbc7cd75a20ee27fd9adebab32041f755214dbc6bffa90cc0225b39da2e5c2d3b8680a28483511580159061203b575b611fcf575b505050505080f35b806120309560405195611fe187612986565b602787527f416464726573733a206c6f772d6c6576656c2064656c65676174652063616c6c86880152660819985a5b195960ca1b60408801525190845af4903d156116fe573d6116d9816129da565b503880808084611fc7565b5080611fc2565b60405162461bcd60e51b815260048101849052602960248201527f45524331393637557067726164653a20756e737570706f727465642070726f786044820152681a58589b195555525160ba1b6064820152608490fd5b9091508781813d83116120c1575b6120b181836129b8565b8101031261148257519038611f1f565b503d6120a7565b634e487b7160e01b87526041600452602487fd5b50611ea08260335416836120ee61332e565b16149050611e97565b5034610295576040366003190112610295576121116128dd565b6001600160a01b038061212261332e565b1690821603612137576107a690600435612dfc565b60405162461bcd60e51b815260206004820152602f60248201527f416363657373436f6e74726f6c3a2063616e206f6e6c792072656e6f756e636560448201526e103937b632b9903337b91039b2b63360891b6064820152608490fd5b5034610295576020366003190112610295576121ae6128c7565b6121b661332e565b60008051602061340b833981519152835260fb602090815260408085206001600160a01b03938416865290915283205460ff168015612212575b6121f990613206565b6101c691166001600160601b0360a01b82541617905580f35b506121f981603354168261222461332e565b161490506121f0565b50346102955760403660031901126102955760043561224a6128dd565b81835260fb6020526122626001604085200154612a4b565b81835260fb602090815260408085206001600160a01b03938416808752925284205490919060ff1615612293578380f35b82845260fb6020526040842082855260205260408420600160ff198254161790556122bc61332e565b169160008051602061338b8339815191528480a43880808380f35b50346102955760203660031901126102955760016040602092600435815260fb8452200154604051908152f35b50346102955760403660031901126102955760043560243561ffff811680910361066e5761237361233361332e565b60008051602061340b833981519152855260fb602090815260408087206001600160a01b03938416885290915285205460ff169081156105d35750613206565b8183526101f9602052604083208161ffff1982541617905582526101fa602052604082205580f35b50346102955760403660031901126102955760ff604060209260043581526101fc8452818120602435825284522054166040519015158152f35b50346102955760208060031936011261041c576123f06128c7565b6123f861332e565b60008051602061340b833981519152845260fb835260408085206001600160a01b039283168652845284205460ff1680156124ab575b61243790613206565b60008051602061344b8339815191529283855260fb81528160408620931692838652815260ff60408620541661246b578480f35b83855260fb81526040852090838652526040842060ff19815416905561248f61332e565b169160008051602061342b8339815191528480a4388080808480f35b506124378160335416826124bd61332e565b1614905061242e565b50346102955760a0366003190112610295576124e06128c7565b6124e86128dd565b6044356001600160a01b03818116939184900361149d576064359381851693848603611454576084359280841680940361178e5787549660ff8860081c1615968780986127ca575b80156127b3575b1561275757600198888a60ff198316178c55612746575b5061259060ff8b5460081c16612563816132ce565b61256c816132ce565b612575816132ce565b6097805460ff60a01b1916905561258b816132ce565b6132ce565b6125a061259b61332e565b612ed9565b6125d460ff8b5460081c166125b4816132ce565b6125bd816132ce565b6125c6816132ce565b8a61012d5561258b816132ce565b6125dc612e76565b156126f257806102e16125ee92612ed9565b60008051602061344b83398151915280895260fb60205288886040822001549160008051602061340b8339815191528093818c6040862001557fbd79b86ffe0ab8e8776151514217cd7cacd52c909f66475c3af44e129f0b00ff92838580a46000805160206133eb83398151915290818352838b6040818187200154952001558b80a46001600160601b0360a01b94816101c49116868254161790556101c59116848254161790556101c6908382541617905562015f906101c3556101f8918254161790556126bb575080f35b60207f7f26b83ff96e1f2b6a682f133852f6798a09c465da95921460cefb38474024989161ff00198454168455604051908152a180f35b60405162461bcd60e51b815260206004820152602660248201527f4f776e61626c653a206e6577206f776e657220697320746865207a65726f206160448201526564647265737360d01b6064820152608490fd5b61ffff1916610101178a553861254e565b60405162461bcd60e51b815260206004820152602e60248201527f496e697469616c697a61626c653a20636f6e747261637420697320616c72656160448201526d191e481a5b9a5d1a585b1a5e995960921b6064820152608490fd5b50303b1580156125375750600160ff8a1614612537565b50600160ff8a1610612530565b50346102955760203660031901126102955760043563ffffffff60e01b811680910361041c57602090637965db0b60e01b811490811561281d575b506040519015158152f35b6301ffc9a760e01b14905082612812565b5034610295576020366003190112610295576128486128c7565b61285061332e565b60008051602061340b833981519152835260fb602090815260408085206001600160a01b03938416865290915283205460ff1680156128ac575b61289390613206565b6101c591166001600160601b0360a01b82541617905580f35b506128938160335416826128be61332e565b1614905061288a565b600435906001600160a01b0382168203610a3857565b602435906001600160a01b0382168203610a3857565b35906001600160a01b0382168203610a3857565b60031990604081830112610a38576004359167ffffffffffffffff8311610a38578261010092030112610a38576004019060243590565b60005b8381106129515750506000910152565b8181015183820152602001612941565b9060209161297a8151809281855285808601910161293e565b601f01601f1916010190565b6060810190811067ffffffffffffffff8211176129a257604052565b634e487b7160e01b600052604160045260246000fd5b90601f8019910116810190811067ffffffffffffffff8211176129a257604052565b67ffffffffffffffff81116129a257601f01601f191660200190565b929192612a02826129da565b91612a1060405193846129b8565b829481845281830111610a38578281602093846000960137010152565b9080601f83011215610a3857816020612a48933591016129f6565b90565b612a5361332e565b9060009080825260209160fb83526040938482209060018060a01b031690818352845260ff858320541615612a89575050505050565b845192612a9584612986565b602a84528484019086368337845115612d605760308253845192600193841015612d4c576078602187015360295b848111612ce25750612ca0578651926080840184811067ffffffffffffffff821117612c8c57885260428452868401946060368737845115612c7857603086538451821015612c785790607860218601536041915b818311612c0a57505050612bc857612bc4938693612ba893612b99604894612b709a519a8b957f416363657373436f6e74726f6c3a206163636f756e74200000000000000000008c880152518092603788019061293e565b8401917001034b99036b4b9b9b4b733903937b6329607d1b60378401525180938684019061293e565b010360288101875201856129b8565b5192839262461bcd60e51b845260048401526024830190612961565b0390fd5b60648587519062461bcd60e51b825280600483015260248201527f537472696e67733a20686578206c656e67746820696e73756666696369656e746044820152fd5b909192600f81166010811015612c64576f181899199a1a9b1b9c1cb0b131b232b360811b901a612c3a858861310d565b5360041c928015612c5057600019019190612b18565b634e487b7160e01b82526011600452602482fd5b634e487b7160e01b83526032600452602483fd5b634e487b7160e01b81526032600452602490fd5b634e487b7160e01b86526041600452602486fd5b60648688519062461bcd60e51b825280600483015260248201527f537472696e67733a20686578206c656e67746820696e73756666696369656e746044820152fd5b90600f81166010811015612d38576f181899199a1a9b1b9c1cb0b131b232b360811b901a612d10838961310d565b5360041c908015612d245760001901612ac3565b634e487b7160e01b86526011600452602486fd5b634e487b7160e01b87526032600452602487fd5b634e487b7160e01b85526032600452602485fd5b634e487b7160e01b84526032600452602484fd5b6001600160a01b0390811660008181527fc88390e7e62175be0932452175b6a7222b6b094ab0ef984a5153c620345d8975602052604081205490929060ff1615612dbd57505050565b82805260fb6020526040832082845260205260408320600160ff19825416179055612de661332e565b169160008051602061338b8339815191528180a4565b600081815260fb602090815260408083206001600160a01b039586168085529252822054919390929160ff16612e33575b50505050565b60008051602061342b8339815191529082855260fb602052604085208486526020526040852060ff198154169055612e6961332e565b169380a438808080612e2d565b6033546001600160a01b0390811690612e8d61332e565b1603612e9557565b606460405162461bcd60e51b815260206004820152602060248201527f4f776e61626c653a2063616c6c6572206973206e6f7420746865206f776e65726044820152fd5b603380546001600160a01b039283166001600160a01b0319821681179092559091167f8be0079c531659141344cd1fd0a4f28419497f9722a3daafe3b4186f6b6457e0600080a3565b15612f2957565b60405162461bcd60e51b815260206004820152602c60248201527f46756e6374696f6e206d7573742062652063616c6c6564207468726f7567682060448201526b19195b1959d85d1958d85b1b60a21b6064820152608490fd5b15612f8a57565b60405162461bcd60e51b815260206004820152602c60248201527f46756e6374696f6e206d7573742062652063616c6c6564207468726f7567682060448201526b6163746976652070726f787960a01b6064820152608490fd5b803b15613019576000805160206133cb83398151915280546001600160a01b0319166001600160a01b03909216919091179055565b60405162461bcd60e51b815260206004820152602d60248201527f455243313936373a206e657720696d706c656d656e746174696f6e206973206e60448201526c1bdd08184818dbdb9d1c9858dd609a1b6064820152608490fd5b919290156130d65750815115613088575090565b3b156130915790565b60405162461bcd60e51b815260206004820152601d60248201527f416464726573733a2063616c6c20746f206e6f6e2d636f6e74726163740000006044820152606490fd5b8251909150156130e95750805190602001fd5b60405162461bcd60e51b815260206004820152908190612bc4906024830190612961565b90815181101561311e570160200190565b634e487b7160e01b600052603260045260246000fd5b1561313b57565b60405162461bcd60e51b815260206004820152602560248201527f576f726d686f6c65204e6f7420617661696c61626c6520666f7220746869732060448201526431b430b4b760d91b6064820152608490fd5b908060209392818452848401376000828201840152601f01601f1916010190565b61012d60028154146131c15760029055565b60405162461bcd60e51b815260206004820152601f60248201527f5265656e7472616e637947756172643a207265656e7472616e742063616c6c006044820152606490fd5b1561320d57565b60405162461bcd60e51b8152602060048201526013602482015272556e617574686f72697a65642041636365737360681b6044820152606490fd5b60018060a01b036101f8541661ffff606460409384938451968794859363c23ee3c360e01b85521660048401526000602484015260448301525afa9081156132c457600091613298575b50905090565b82813d83116132bd575b6132ac81836129b8565b810103126102955750518038613292565b503d6132a2565b513d6000823e3d90fd5b156132d557565b60405162461bcd60e51b815260206004820152602b60248201527f496e697469616c697a61626c653a20636f6e7472616374206973206e6f74206960448201526a6e697469616c697a696e6760a81b6064820152608490fd5b6097546001600160a01b03163314808061337f575b15613355575036601319013560601c90565b60143610159081613377575b50156133735736601319013560601c90565b3390565b905038613361565b50601436101561334356fe2f8788117e7eff1d82e926ec794901d17c78024a50270940304540a733656f0d189ab7a9244df0848122154315af71fe140f3db0fe014031783b0946b8c9d2e3360894a13ba1a3210667c828492db98dca3e2076cc3735a920a3ca505d382bbc65d7a28e3265b37a6474929f336521b332c1681b933f6cb9f3376673440d862a7613a25ecc738585a232ad50a301178f12b3ba8887d13e138b523c4269c47689f6391f5c32d9c69d2a47ea670b442974b53935d1edc7fd64eb21e047a839171ba49807205ce4d355092ef5a8a18f56e8913cf4a201fbe287825b095693c21775a2646970667358221220486b903316e043cca8cc67b2f2d6110de54b92938e25577431670c0684ad80ef64736f6c63430008110033",
  "linkReferences": {},
  "deployedLinkReferences": {}
}