{
  "_format": "hh-sol-artifact-1",
  "contractName": "WormholeImpl",
  "sourceName": "contracts/MessagingImpls/WormholeImpl.sol",
  "abi": [
    {
      "inputs": [],
      "stateMutability": "nonpayable",
      "type": "constructor"
    },
    {
      "anonymous": false,
      "inputs": [
        {
          "indexed": false,
          "internalType": "address",
          "name": "previousAdmin",
          "type": "address"
        },
        {
          "indexed": false,
          "internalType": "address",
          "name": "newAdmin",
          "type": "address"
        }
      ],
      "name": "AdminChanged",
      "type": "event"
    },
    {
      "anonymous": false,
      "inputs": [
        {
          "indexed": true,
          "internalType": "address",
          "name": "beacon",
          "type": "address"
        }
      ],
      "name": "BeaconUpgraded",
      "type": "event"
    },
    {
      "anonymous": false,
      "inputs": [
        {
          "indexed": false,
          "internalType": "uint8",
          "name": "version",
          "type": "uint8"
        }
      ],
      "name": "Initialized",
      "type": "event"
    },
    {
      "anonymous": false,
      "inputs": [
        {
          "indexed": true,
          "internalType": "address",
          "name": "previousOwner",
          "type": "address"
        },
        {
          "indexed": true,
          "internalType": "address",
          "name": "newOwner",
          "type": "address"
        }
      ],
      "name": "OwnershipTransferred",
      "type": "event"
    },
    {
      "anonymous": false,
      "inputs": [
        {
          "indexed": false,
          "internalType": "address",
          "name": "account",
          "type": "address"
        }
      ],
      "name": "Paused",
      "type": "event"
    },
    {
      "anonymous": false,
      "inputs": [
        {
          "indexed": true,
          "internalType": "bytes32",
          "name": "role",
          "type": "bytes32"
        },
        {
          "indexed": true,
          "internalType": "bytes32",
          "name": "previousAdminRole",
          "type": "bytes32"
        },
        {
          "indexed": true,
          "internalType": "bytes32",
          "name": "newAdminRole",
          "type": "bytes32"
        }
      ],
      "name": "RoleAdminChanged",
      "type": "event"
    },
    {
      "anonymous": false,
      "inputs": [
        {
          "indexed": true,
          "internalType": "bytes32",
          "name": "role",
          "type": "bytes32"
        },
        {
          "indexed": true,
          "internalType": "address",
          "name": "account",
          "type": "address"
        },
        {
          "indexed": true,
          "internalType": "address",
          "name": "sender",
          "type": "address"
        }
      ],
      "name": "RoleGranted",
      "type": "event"
    },
    {
      "anonymous": false,
      "inputs": [
        {
          "indexed": true,
          "internalType": "bytes32",
          "name": "role",
          "type": "bytes32"
        },
        {
          "indexed": true,
          "internalType": "address",
          "name": "account",
          "type": "address"
        },
        {
          "indexed": true,
          "internalType": "address",
          "name": "sender",
          "type": "address"
        }
      ],
      "name": "RoleRevoked",
      "type": "event"
    },
    {
      "anonymous": false,
      "inputs": [
        {
          "indexed": false,
          "internalType": "address",
          "name": "account",
          "type": "address"
        }
      ],
      "name": "Unpaused",
      "type": "event"
    },
    {
      "anonymous": false,
      "inputs": [
        {
          "indexed": true,
          "internalType": "address",
          "name": "implementation",
          "type": "address"
        }
      ],
      "name": "Upgraded",
      "type": "event"
    },
    {
      "inputs": [],
      "name": "ADMIN_ROLE",
      "outputs": [
        {
          "internalType": "bytes32",
          "name": "",
          "type": "bytes32"
        }
      ],
      "stateMutability": "view",
      "type": "function"
    },
    {
      "inputs": [],
      "name": "DEFAULT_ADMIN_ROLE",
      "outputs": [
        {
          "internalType": "bytes32",
          "name": "",
          "type": "bytes32"
        }
      ],
      "stateMutability": "view",
      "type": "function"
    },
    {
      "inputs": [],
      "name": "PAUSER_ROLE",
      "outputs": [
        {
          "internalType": "bytes32",
          "name": "",
          "type": "bytes32"
        }
      ],
      "stateMutability": "view",
      "type": "function"
    },
    {
      "inputs": [],
      "name": "SUPER_ADMIN_ROLE",
      "outputs": [
        {
          "internalType": "bytes32",
          "name": "",
          "type": "bytes32"
        }
      ],
      "stateMutability": "view",
      "type": "function"
    },
    {
      "inputs": [],
      "name": "UPGRADER_ROLE",
      "outputs": [
        {
          "internalType": "bytes32",
          "name": "",
          "type": "bytes32"
        }
      ],
      "stateMutability": "view",
      "type": "function"
    },
    {
      "inputs": [
        {
          "internalType": "address",
          "name": "_admin",
          "type": "address"
        }
      ],
      "name": "addAdmin",
      "outputs": [],
      "stateMutability": "nonpayable",
      "type": "function"
    },
    {
      "inputs": [
        {
          "internalType": "address",
          "name": "account",
          "type": "address"
        }
      ],
      "name": "addPauser",
      "outputs": [],
      "stateMutability": "nonpayable",
      "type": "function"
    },
    {
      "inputs": [
        {
          "internalType": "address",
          "name": "_superAdmin",
          "type": "address"
        }
      ],
      "name": "addSuperAdmin",
      "outputs": [],
      "stateMutability": "nonpayable",
      "type": "function"
    },
    {
      "inputs": [
        {
          "internalType": "address",
          "name": "_upgrader",
          "type": "address"
        }
      ],
      "name": "addUpgrader",
      "outputs": [],
      "stateMutability": "nonpayable",
      "type": "function"
    },
    {
      "inputs": [],
      "name": "crossSyncGatewayAddress",
      "outputs": [
        {
          "internalType": "address",
          "name": "",
          "type": "address"
        }
      ],
      "stateMutability": "view",
      "type": "function"
    },
    {
      "inputs": [
        {
          "components": [
            {
              "internalType": "address",
              "name": "sender",
              "type": "address"
            },
            {
              "internalType": "uint256",
              "name": "nonce",
              "type": "uint256"
            },
            {
              "internalType": "uint256",
              "name": "messagingRouteId",
              "type": "uint256"
            },
            {
              "internalType": "uint256",
              "name": "sourceChainId",
              "type": "uint256"
            },
            {
              "internalType": "uint256",
              "name": "destinationChainId",
              "type": "uint256"
            },
            {
              "internalType": "address",
              "name": "sourceGatewayAddress",
              "type": "address"
            },
            {
              "internalType": "address",
              "name": "destinationGatewayAddress",
              "type": "address"
            },
            {
              "components": [
                {
                  "internalType": "address",
                  "name": "to",
                  "type": "address"
                },
                {
                  "internalType": "bytes",
                  "name": "data",
                  "type": "bytes"
                }
              ],
              "internalType": "struct ICrossSyncGateway.MessagingPayload",
              "name": "payload",
              "type": "tuple"
            }
          ],
          "internalType": "struct IMessagingImpl.ICrossSyncMessagingData",
          "name": "_data",
          "type": "tuple"
        }
      ],
      "name": "executeSendMessage",
      "outputs": [
        {
          "internalType": "bytes",
          "name": "",
          "type": "bytes"
        }
      ],
      "stateMutability": "payable",
      "type": "function"
    },
    {
      "inputs": [
        {
          "internalType": "bytes32",
          "name": "role",
          "type": "bytes32"
        }
      ],
      "name": "getRoleAdmin",
      "outputs": [
        {
          "internalType": "bytes32",
          "name": "",
          "type": "bytes32"
        }
      ],
      "stateMutability": "view",
      "type": "function"
    },
    {
      "inputs": [],
      "name": "getTrustedForwarder",
      "outputs": [
        {
          "internalType": "address",
          "name": "forwarder",
          "type": "address"
        }
      ],
      "stateMutability": "view",
      "type": "function"
    },
    {
      "inputs": [
        {
          "internalType": "bytes32",
          "name": "role",
          "type": "bytes32"
        },
        {
          "internalType": "address",
          "name": "account",
          "type": "address"
        }
      ],
      "name": "grantRole",
      "outputs": [],
      "stateMutability": "nonpayable",
      "type": "function"
    },
    {
      "inputs": [
        {
          "internalType": "bytes32",
          "name": "role",
          "type": "bytes32"
        },
        {
          "internalType": "address",
          "name": "account",
          "type": "address"
        }
      ],
      "name": "hasRole",
      "outputs": [
        {
          "internalType": "bool",
          "name": "",
          "type": "bool"
        }
      ],
      "stateMutability": "view",
      "type": "function"
    },
    {
      "inputs": [
        {
          "internalType": "address",
          "name": "_crossSyncGatewayAddress",
          "type": "address"
        },
        {
          "internalType": "address",
          "name": "_nativeCurrencyWrappedAddress",
          "type": "address"
        },
        {
          "internalType": "address",
          "name": "_nativeCurrencyAddress",
          "type": "address"
        },
        {
          "internalType": "address",
          "name": "_owner",
          "type": "address"
        },
        {
          "internalType": "address",
          "name": "_wormholeRelayerAddress",
          "type": "address"
        }
      ],
      "name": "initialize",
      "outputs": [],
      "stateMutability": "nonpayable",
      "type": "function"
    },
    {
      "inputs": [
        {
          "internalType": "address",
          "name": "forwarder",
          "type": "address"
        }
      ],
      "name": "isTrustedForwarder",
      "outputs": [
        {
          "internalType": "bool",
          "name": "",
          "type": "bool"
        }
      ],
      "stateMutability": "view",
      "type": "function"
    },
    {
      "inputs": [],
      "name": "nativeCurrencyAddress",
      "outputs": [
        {
          "internalType": "address",
          "name": "",
          "type": "address"
        }
      ],
      "stateMutability": "view",
      "type": "function"
    },
    {
      "inputs": [],
      "name": "nativeCurrencyWrappedAddress",
      "outputs": [
        {
          "internalType": "address",
          "name": "",
          "type": "address"
        }
      ],
      "stateMutability": "view",
      "type": "function"
    },
    {
      "inputs": [],
      "name": "owner",
      "outputs": [
        {
          "internalType": "address",
          "name": "",
          "type": "address"
        }
      ],
      "stateMutability": "view",
      "type": "function"
    },
    {
      "inputs": [],
      "name": "pause",
      "outputs": [],
      "stateMutability": "nonpayable",
      "type": "function"
    },
    {
      "inputs": [],
      "name": "paused",
      "outputs": [
        {
          "internalType": "bool",
          "name": "",
          "type": "bool"
        }
      ],
      "stateMutability": "view",
      "type": "function"
    },
    {
      "inputs": [],
      "name": "proxiableUUID",
      "outputs": [
        {
          "internalType": "bytes32",
          "name": "",
          "type": "bytes32"
        }
      ],
      "stateMutability": "view",
      "type": "function"
    },
    {
      "inputs": [
        {
          "internalType": "uint16",
          "name": "targetChain",
          "type": "uint16"
        }
      ],
      "name": "quoteCrossChainFee",
      "outputs": [
        {
          "internalType": "uint256",
          "name": "cost",
          "type": "uint256"
        }
      ],
      "stateMutability": "view",
      "type": "function"
    },
    {
      "inputs": [
        {
          "internalType": "address",
          "name": "_admin",
          "type": "address"
        }
      ],
      "name": "removeAdmin",
      "outputs": [],
      "stateMutability": "nonpayable",
      "type": "function"
    },
    {
      "inputs": [
        {
          "internalType": "address",
          "name": "_pauser",
          "type": "address"
        }
      ],
      "name": "removePauser",
      "outputs": [],
      "stateMutability": "nonpayable",
      "type": "function"
    },
    {
      "inputs": [
        {
          "internalType": "address",
          "name": "_superAdmin",
          "type": "address"
        }
      ],
      "name": "removeSuperAdmin",
      "outputs": [],
      "stateMutability": "nonpayable",
      "type": "function"
    },
    {
      "inputs": [
        {
          "internalType": "address",
          "name": "_upgrader",
          "type": "address"
        }
      ],
      "name": "removeUpgrader",
      "outputs": [],
      "stateMutability": "nonpayable",
      "type": "function"
    },
    {
      "inputs": [],
      "name": "renounceOwnership",
      "outputs": [],
      "stateMutability": "nonpayable",
      "type": "function"
    },
    {
      "inputs": [
        {
          "internalType": "bytes32",
          "name": "role",
          "type": "bytes32"
        },
        {
          "internalType": "address",
          "name": "account",
          "type": "address"
        }
      ],
      "name": "renounceRole",
      "outputs": [],
      "stateMutability": "nonpayable",
      "type": "function"
    },
    {
      "inputs": [
        {
          "internalType": "address payable",
          "name": "userAddress",
          "type": "address"
        },
        {
          "internalType": "uint256",
          "name": "amount",
          "type": "uint256"
        }
      ],
      "name": "rescueEther",
      "outputs": [],
      "stateMutability": "nonpayable",
      "type": "function"
    },
    {
      "inputs": [
        {
          "internalType": "address",
          "name": "token",
          "type": "address"
        },
        {
          "internalType": "address",
          "name": "userAddress",
          "type": "address"
        },
        {
          "internalType": "uint256",
          "name": "amount",
          "type": "uint256"
        }
      ],
      "name": "rescueFunds",
      "outputs": [],
      "stateMutability": "nonpayable",
      "type": "function"
    },
    {
      "inputs": [
        {
          "internalType": "bytes32",
          "name": "role",
          "type": "bytes32"
        },
        {
          "internalType": "address",
          "name": "account",
          "type": "address"
        }
      ],
      "name": "revokeRole",
      "outputs": [],
      "stateMutability": "nonpayable",
      "type": "function"
    },
    {
      "inputs": [
        {
          "internalType": "address",
          "name": "_crossSyncGatewayAddress",
          "type": "address"
        }
      ],
      "name": "setCrossSyncGatewayAddress",
      "outputs": [],
      "stateMutability": "nonpayable",
      "type": "function"
    },
    {
      "inputs": [
        {
          "internalType": "address",
          "name": "_nativeCurrencyAddress",
          "type": "address"
        }
      ],
      "name": "setNativeCurrencyAddress",
      "outputs": [],
      "stateMutability": "nonpayable",
      "type": "function"
    },
    {
      "inputs": [
        {
          "internalType": "address",
          "name": "_nativeCurrencyWrappedAddress",
          "type": "address"
        }
      ],
      "name": "setNativeCurrencyWrappedAddress",
      "outputs": [],
      "stateMutability": "nonpayable",
      "type": "function"
    },
    {
      "inputs": [
        {
          "internalType": "address",
          "name": "_newtrustedForwarder",
          "type": "address"
        }
      ],
      "name": "setTrustedForwarder",
      "outputs": [],
      "stateMutability": "nonpayable",
      "type": "function"
    },
    {
      "inputs": [
        {
          "internalType": "uint256",
          "name": "_chainId",
          "type": "uint256"
        },
        {
          "internalType": "uint16",
          "name": "_wormholeChainId",
          "type": "uint16"
        }
      ],
      "name": "setWormholeChainId",
      "outputs": [],
      "stateMutability": "nonpayable",
      "type": "function"
    },
    {
      "inputs": [
        {
          "internalType": "uint256",
          "name": "newGasLimit",
          "type": "uint256"
        }
      ],
      "name": "setWormholeGasLimit",
      "outputs": [],
      "stateMutability": "nonpayable",
      "type": "function"
    },
    {
      "inputs": [
        {
          "internalType": "contract IWormholeRelayer",
          "name": "_wormholeRelayer",
          "type": "address"
        }
      ],
      "name": "setWormholeRelayer",
      "outputs": [],
      "stateMutability": "nonpayable",
      "type": "function"
    },
    {
      "inputs": [
        {
          "internalType": "bytes4",
          "name": "interfaceId",
          "type": "bytes4"
        }
      ],
      "name": "supportsInterface",
      "outputs": [
        {
          "internalType": "bool",
          "name": "",
          "type": "bool"
        }
      ],
      "stateMutability": "view",
      "type": "function"
    },
    {
      "inputs": [
        {
          "internalType": "address",
          "name": "newOwner",
          "type": "address"
        }
      ],
      "name": "transferOwnership",
      "outputs": [],
      "stateMutability": "nonpayable",
      "type": "function"
    },
    {
      "inputs": [],
      "name": "unpause",
      "outputs": [],
      "stateMutability": "nonpayable",
      "type": "function"
    },
    {
      "inputs": [
        {
          "internalType": "address",
          "name": "newImplementation",
          "type": "address"
        }
      ],
      "name": "upgradeTo",
      "outputs": [],
      "stateMutability": "nonpayable",
      "type": "function"
    },
    {
      "inputs": [
        {
          "internalType": "address",
          "name": "newImplementation",
          "type": "address"
        },
        {
          "internalType": "bytes",
          "name": "data",
          "type": "bytes"
        }
      ],
      "name": "upgradeToAndCall",
      "outputs": [],
      "stateMutability": "payable",
      "type": "function"
    },
    {
      "inputs": [
        {
          "internalType": "uint256",
          "name": "",
          "type": "uint256"
        }
      ],
      "name": "wormholeChainId",
      "outputs": [
        {
          "internalType": "uint16",
          "name": "",
          "type": "uint16"
        }
      ],
      "stateMutability": "view",
      "type": "function"
    },
    {
      "inputs": [],
      "name": "wormholeRelayer",
      "outputs": [
        {
          "internalType": "contract IWormholeRelayer",
          "name": "",
          "type": "address"
        }
      ],
      "stateMutability": "view",
      "type": "function"
    },
    {
      "stateMutability": "payable",
      "type": "receive"
    }
  ],
  "bytecode": "0x60a060405234620000495730608052620000186200004e565b620000226200004e565b604051612cac9081620000f88239608051818181610eb501528181610fdf015261193c0152f35b600080fd5b60005460ff8160081c16620000a25760ff808216036200006b5750565b60ff90811916176000557f7f26b83ff96e1f2b6a682f133852f6798a09c465da95921460cefb3847402498602060405160ff8152a1565b60405162461bcd60e51b815260206004820152602760248201527f496e697469616c697a61626c653a20636f6e747261637420697320696e697469604482015266616c697a696e6760c81b6064820152608490fdfe604060808152600436101561001d575b50361561001b57600080fd5b005b60003560e01c80629fe752146121c757806301ffc9a7146121725780631459457a14611e5b5780631785f53c14611da55780632290720414611d1c578063248a9ca314611cee5780632f2ff15d14611c8957806332495ce114611bf057806336568abe14611b555780633659cfe61461191357806338073f0c146118e95780633f4ba83a146117af57806341abd9871461177f5780634460bdd61461175657806346961bff146113995780634902e4aa146113385780634b03285a1461129f5780634f1ef28614610f6357806352d1902d14610ea1578063572b6c0514610e6e5780635c975abb14610e475780636b2c0f5514610d6c5780636ccae05414610cce5780637048027514610c17578063715018a614610bba57806375b238fc14610b915780637b0b29a614610b5e57806382dc1ec414610a7f5780638456cb591461093b5780638da5cb5b1461091257806391d14854146108c9578063a217fddf146108ad578063b3292ff01461084b578063b55a83bb146107e4578063b89b22d7146107ba578063bd826ed714610790578063ce1b815f14610767578063d264a803146106b6578063d547741f14610678578063da25b7251461064e578063da742228146105b0578063e159378d14610515578063e42e0ea9146104ba578063e511015814610405578063e63ab1e9146103dc578063f2fde38b146102535763f72c0d8b0361000f573461024e57600036600319011261024e5760209051600080516020612bd78339815191528152f35b600080fd5b503461024e576020908160031936011261024e5761026f612260565b90610278612791565b610280612791565b6001600160a01b039180831615610389578061029e6102a3926127f4565b61266b565b6102ab612b7a565b9282806102b6612b7a565b16941693840361032f576000805260fb81528160002084600052815260ff8260002054166102e057005b6000805260fb81528160002090846000525260002060ff198154169055610305612b7a565b169060007ff6391f5c32d9c69d2a47ea670b442974b53935d1edc7fd64eb21e047a839171b8180a4005b608491519062461bcd60e51b82526004820152602f60248201527f416363657373436f6e74726f6c3a2063616e206f6e6c792072656e6f756e636560448201526e103937b632b9903337b91039b2b63360891b6064820152fd5b815162461bcd60e51b815260048101859052602660248201527f4f776e61626c653a206e6577206f776e657220697320746865207a65726f206160448201526564647265737360d01b6064820152608490fd5b503461024e57600036600319011261024e5760209051600080516020612c178339815191528152f35b503461024e57602036600319011261024e5761041f612260565b90610428612791565b600080516020612bd7833981519152918260005260fb602052816000209160018060a01b03809216928360005260205260ff8160002054161561046757005b8360005260fb6020528060002083600052602052600020600160ff19825416179055610491612b7a565b16917f2f8788117e7eff1d82e926ec794901d17c78024a50270940304540a733656f0d600080a4005b503461024e578060031936011261024e576004356001600160a01b0381169081900361024e57600080808093602435906104f2612791565b82821561050c575bf11561050257005b513d6000823e3d90fd5b506108fc6104fa565b503461024e57602036600319011261024e576004356001600160a01b03818116929183900361024e5760ff6105839261054c612b7a565b600080516020612c3783398151915260005260fb602052838260002091166000526020526000205416908115610599575b50612a4f565b6101f780546001600160a01b0319169091179055005b603354811691506105a8612b7a565b16143861057d565b503461024e57602036600319011261024e576105ca612260565b60ff6105d4612b7a565b92600080516020612c3783398151915260005260fb6020528060002060018060a01b0380951660005260205260002054168015610633575b61061590612a4f565b166bffffffffffffffffffffffff60a01b6097541617609755600080f35b50610615826033541683610645612b7a565b1614905061060c565b503461024e57600036600319011261024e576101f75490516001600160a01b039091168152602090f35b503461024e578060031936011261024e5761001b906004356106b1600161069d612276565b938360005260fb6020526000200154612342565b612705565b503461024e57602036600319011261024e576106d0612260565b906106d9612791565b600080516020612bd7833981519152918260005260fb602052816000209160018060a01b03809216928360005260205260ff81600020541661071757005b8360005260fb602052806000208360005260205260002060ff19815416905561073e612b7a565b16917ff6391f5c32d9c69d2a47ea670b442974b53935d1edc7fd64eb21e047a839171b600080a4005b503461024e57600036600319011261024e5760975490516001600160a01b039091168152602090f35b503461024e57600036600319011261024e576101c45490516001600160a01b039091168152602090f35b503461024e57600036600319011261024e576101c35490516001600160a01b039091168152602090f35b503461024e57602036600319011261024e576108429060ff610804612b7a565b91600080516020612c3783398151915260005260fb6020528060002060018060a01b0380941660005260205260002054169081156105995750612a4f565b6004356101f955005b503461024e57602036600319011261024e57610865612260565b9061086e612791565b600080516020612c37833981519152918260005260fb602052816000209160018060a01b03809216928360005260205260ff8160002054161561046757005b503461024e57600036600319011261024e576020905160008152f35b503461024e578060031936011261024e576020906108e5612276565b60043560005260fb8352816000209060018060a01b0316600052825260ff81600020541690519015158152f35b503461024e57600036600319011261024e5760335490516001600160a01b039091168152602090f35b503461024e57600036600319011261024e57610955612b7a565b90600080516020612c1783398151915260005260209060fb82528060002060018060a01b03809416600052825260ff8160002054168015610a47575b8015610a2c575b6109a190612a4f565b6097549260ff8460a01c166109f55760ff60a01b19909316600160a01b176097557f62e78cea01bee320cd4e420270b5ea74000d11b0c9f74754ebdbfc544b05a258926109ec612b7a565b915191168152a1005b815162461bcd60e51b815260048101849052601060248201526f14185d5cd8589b194e881c185d5cd95960821b6044820152606490fd5b506109a1836033541684610a3e612b7a565b16149050610998565b50610a50612b7a565b600080516020612c3783398151915260005260fb835283826000209116600052825260ff816000205416610991565b503461024e576020908160031936011261024e57610a9b612260565b90610aa4612b7a565b90600080516020612c3783398151915260005260fb84528060002060018060a01b03809316600052845260ff8160002054168015610b43575b610ae690612a4f565b600080516020612c17833981519152938460005260fb8152828260002094169384600052815260ff82600020541615610b1b57005b8460005260fb815281600020908460005252600020600160ff19825416179055610491612b7a565b50610ae6826033541683610b55612b7a565b16149050610add565b503461024e57602036600319011261024e576004359061ffff8216820361024e57610b8a602092612a91565b9051908152f35b503461024e57600036600319011261024e5760209051600080516020612c578339815191528152f35b3461024e57600036600319011261024e57610bd3612791565b603380546001600160a01b031981169091556000906001600160a01b03167f8be0079c531659141344cd1fd0a4f28419497f9722a3daafe3b4186f6b6457e08280a3005b503461024e576020908160031936011261024e57610c33612260565b90610c3c612b7a565b90600080516020612c3783398151915260005260fb84528060002060018060a01b03809316600052845260ff8160002054168015610cb3575b610c7e90612a4f565b600080516020612c57833981519152938460005260fb8152828260002094169384600052815260ff82600020541615610b1b57005b50610c7e826033541683610cc5612b7a565b16149050610c75565b503461024e57606036600319011261024e576000906020610ced612260565b6044610cf7612276565b91610d00612791565b845163a9059cbb60e01b81526001600160a01b039384166004820152823560248201529586938492165af19081156105025750610d3957005b6020813d8211610d64575b81610d5160209383612304565b8101031261024e57518015150361024e57005b3d9150610d44565b503461024e576020908160031936011261024e57610d88612260565b90610d91612b7a565b90600080516020612c3783398151915260005260fb84528060002060018060a01b03809316600052845260ff8160002054168015610e2c575b610dd390612a4f565b600080516020612c17833981519152938460005260fb8152828260002094169384600052815260ff826000205416610e0757005b8460005260fb81528160002090846000525260002060ff19815416905561073e612b7a565b50610dd3826033541683610e3e612b7a565b16149050610dca565b503461024e57600036600319011261024e5760209060ff60975460a01c1690519015158152f35b503461024e57602036600319011261024e57602090610e8b612260565b60018060a01b0380609754169116149051908152f35b503461024e57600036600319011261024e577f00000000000000000000000000000000000000000000000000000000000000006001600160a01b03163003610efa5760209051600080516020612bf78339815191528152f35b5162461bcd60e51b815260206004820152603860248201527f555550535570677261646561626c653a206d757374206e6f742062652063616c60448201527f6c6564207468726f7567682064656c656761746563616c6c00000000000000006064820152608490fd5b508060031936011261024e57610f77612260565b6024359167ffffffffffffffff831161024e573660238401121561024e57826004013590610fa482612326565b610fb082519182612304565b82815260209283820195366024838301011161024e578160009260248793018937830101526001600160a01b037f000000000000000000000000000000000000000000000000000000000000000081169061100d3083141561283d565b61102a600080516020612bf783398151915292828454161461289e565b611032612b7a565b600080516020612bd783398151915260005260fb865281856000209116600052855260ff8460002054168015611284575b61106c90612a4f565b7f4910fdfa16fed3260ed0e7147f7cc6da11a60208b5b9406d12a635614ffd91435460ff16156110a557505050505061001b91506128ff565b8592939495169084516352d1902d60e01b81528681600481865afa60009181611255575b5061112957855162461bcd60e51b815260048101889052602e60248201527f45524331393637557067726164653a206e657720696d706c656d656e7461746960448201526d6f6e206973206e6f74205555505360901b6064820152608490fd5b95949395036111ff5761113b826128ff565b7fbc7cd75a20ee27fd9adebab32041f755214dbc6bffa90cc0225b39da2e5c2d3b600080a28351158015906111f7575b61117157005b60008061001b96845196611184886122e8565b602788527f416464726573733a206c6f772d6c6576656c2064656c65676174652063616c6c87890152660819985a5b195960ca1b868901525190845af4913d156111ed573d6111de6111d582612326565b92519283612304565b8152600081943d92013e61298f565b506060925061298f565b50600161116b565b825162461bcd60e51b815260048101859052602960248201527f45524331393637557067726164653a20756e737570706f727465642070726f786044820152681a58589b195555525160ba1b6064820152608490fd5b9091508781813d831161127d575b61126d8183612304565b8101031261024e575190386110c9565b503d611263565b5061106c816033541682611296612b7a565b16149050611063565b503461024e57602036600319011261024e576112b9612260565b9060ff6112c4612b7a565b91600080516020612c3783398151915260005260fb6020528060002060018060a01b038094166000526020526000205416801561131d575b61130590612a4f565b6101c380546001600160a01b03191691909216179055005b5061130581603354168261132f612b7a565b161490506112fc565b503461024e57602036600319011261024e57611352612260565b9061135b612791565b600080516020612c37833981519152918260005260fb602052816000209160018060a01b03809216928360005260205260ff81600020541661071757005b5060031960203682011261024e5760043567ffffffffffffffff811161024e57803603610100809382011261024e57600261012d541461171257600261012d556113e1612b7a565b6101c3546001600160a01b039081169116036116b95760848201356000526101f88060205261141761ffff866000205416612a91565b938434111561167f578551602080820152926001600160a01b0361143d6004870161228c565b16848801526024850135606085015260448501356080850152606485013560a0850152608485013560c08501526001600160a01b0361147e60a4870161228c565b1660e08501526001600160a01b0361149860c4870161228c565b168483015260e4850135906042190181121561024e5761012084019190915283016001600160a01b036114cd6004830161228c565b1661014084015260248101356022198236030181121561024e570167ffffffffffffffff60048201351161024e57602481019060048101353603821361024e5761155a91846101a092896101608301526101809260048201358484015260048201359085840137600084600483013584010152601f60048119920135011681010390810185520183612304565b60018060a01b036101f7541690608484013560005260205260c461ffff86600020541693013560018060a01b03811680910361024e576115c9946020946101f9548851978896879586946347f66e8160e11b86526004860152602485015260a0604485015260a48401906122c3565b9060006064840152608483015203925af1801561167457611634575b50600161012d55805190602082528160605180602083015260005b81811061161e57506000828201840152601f01601f19168101030190f35b6080810151858201850152849250602001611600565b6020813d60201161166c575b8161164d60209383612304565b8101031261024e575167ffffffffffffffff81160361024e57386115e5565b3d9150611640565b82513d6000823e3d90fd5b855162461bcd60e51b8152602060048201526013602482015272476173207061796d656e74206973206c65737360681b6044820152606490fd5b835162461bcd60e51b815260206004820152602c60248201527f4f6e6c792043726f737353796e63476174657761792063616e2063616c6c207460448201526b3434b990333ab731ba34b7b760a11b6064820152608490fd5b835162461bcd60e51b815260206004820152601f60248201527f5265656e7472616e637947756172643a207265656e7472616e742063616c6c006044820152606490fd5b503461024e57600036600319011261024e5760209051600080516020612c378339815191528152f35b503461024e57602036600319011261024e576020906004356000526101f8825261ffff8160002054169051908152f35b503461024e57600036600319011261024e576117c9612b7a565b90600080516020612c1783398151915260005260209060fb82528060002060018060a01b03809416600052825260ff81600020541680156118b1575b8015611896575b61181590612a4f565b6097549260ff8460a01c161561185b5760ff60a01b199093166097557f5db9ee0a495bf2e6ff9c91a7834c1ba4fdd244a5e8aa4e537bd38aeae4b073aa926109ec612b7a565b815162461bcd60e51b815260048101849052601460248201527314185d5cd8589b194e881b9bdd081c185d5cd95960621b6044820152606490fd5b506118158360335416846118a8612b7a565b1614905061180c565b506118ba612b7a565b600080516020612c3783398151915260005260fb835283826000209116600052825260ff816000205416611805565b503461024e57600036600319011261024e576101c55490516001600160a01b039091168152602090f35b503461024e5760208060031936011261024e5761192e612260565b6001600160a01b03929091907f000000000000000000000000000000000000000000000000000000000000000084166119693082141561283d565b611986600080516020612bf783398151915291868354161461289e565b61198e612b7a565b600080516020612bd783398151915260005260fb845285836000209116600052835260ff8260002054168015611b3a575b6119c890612a4f565b8151908382019582871067ffffffffffffffff881117611b2457868452600083527f4910fdfa16fed3260ed0e7147f7cc6da11a60208b5b9406d12a635614ffd91435460ff1615611a2257505050505061001b91506128ff565b8592939495169084516352d1902d60e01b81528681600481865afa60009181611af5575b50611aa657855162461bcd60e51b815260048101889052602e60248201527f45524331393637557067726164653a206e657720696d706c656d656e7461746960448201526d6f6e206973206e6f74205555505360901b6064820152608490fd5b95949395036111ff57611ab8826128ff565b7fbc7cd75a20ee27fd9adebab32041f755214dbc6bffa90cc0225b39da2e5c2d3b600080a2835115801590611aed5761117157005b50600061116b565b9091508781813d8311611b1d575b611b0d8183612304565b8101031261024e57519038611a46565b503d611b03565b634e487b7160e01b600052604160045260246000fd5b506119c8856033541686611b4c612b7a565b161490506119bf565b503461024e578060031936011261024e57611b6e612276565b906001600160a01b0380611b80612b7a565b1690831603611b955761001b82600435612705565b5162461bcd60e51b815260206004820152602f60248201527f416363657373436f6e74726f6c3a2063616e206f6e6c792072656e6f756e636560448201526e103937b632b9903337b91039b2b63360891b6064820152608490fd5b503461024e57602036600319011261024e57611c0a612260565b9060ff611c15612b7a565b91600080516020612c3783398151915260005260fb6020528060002060018060a01b0380941660005260205260002054168015611c6e575b611c5690612a4f565b6101c580546001600160a01b03191691909216179055005b50611c56816033541682611c80612b7a565b16149050611c4d565b503461024e578060031936011261024e5760043590611ca6612276565b8260005260fb602052611cbf6001836000200154612342565b8260005260fb602052816000209160018060a01b03809216928360005260205260ff8160002054161561046757005b503461024e57602036600319011261024e5760209060043560005260fb825260018160002001549051908152f35b503461024e578060031936011261024e576024359061ffff821680920361024e57611d88611d48612b7a565b600080516020612c3783398151915260005260fb6020528260002060018060a01b0380921660005260205260ff8360002054169081156105995750612a4f565b60043560009081526101f860205220805461ffff19169091179055005b503461024e576020908160031936011261024e57611dc1612260565b90611dca612b7a565b90600080516020612c3783398151915260005260fb84528060002060018060a01b03809316600052845260ff8160002054168015611e40575b611e0c90612a4f565b600080516020612c57833981519152938460005260fb8152828260002094169384600052815260ff826000205416610e0757005b50611e0c826033541683611e52612b7a565b16149050611e03565b503461024e5760a036600319011261024e57611e75612260565b90611e7e612276565b6044356001600160a01b03818116949185900361024e57606435948186169384870361024e576084359280841680940361024e576000549760ff8960081c161596878098612165575b801561214e575b156120f357600199888b60ff198316176000556120e1575b50611f2960ff60005460081c16611efc81612b1a565b611f0581612b1a565b611f0e81612b1a565b6097805460ff60a01b19169055611f2481612b1a565b612b1a565b611f39611f34612b7a565b6127f4565b611f6e60ff60005460081c16611f4e81612b1a565b611f5781612b1a565b611f6081612b1a565b8b61012d55611f2481612b1a565b611f76612791565b1561208e578061029e611f88926127f4565b600080516020612c578339815191528060005260fb6020528888600020015490600080516020612c378339815191528092818c8c60002001557fbd79b86ffe0ab8e8776151514217cd7cacd52c909f66475c3af44e129f0b00ff9283600080a4600080516020612c1783398151915260008181528a81208c01805490859055929080a46bffffffffffffffffffffffff60a01b94816101c39116868254161790556101c49116848254161790556101c590838254161790556101f79182541617905561c3506101f95561205757005b7f7f26b83ff96e1f2b6a682f133852f6798a09c465da95921460cefb38474024989160209161ff00196000541660005551908152a1005b875162461bcd60e51b815260206004820152602660248201527f4f776e61626c653a206e6577206f776e657220697320746865207a65726f206160448201526564647265737360d01b6064820152608490fd5b61ffff19166101011760005538611ee6565b885162461bcd60e51b815260206004820152602e60248201527f496e697469616c697a61626c653a20636f6e747261637420697320616c72656160448201526d191e481a5b9a5d1a585b1a5e995960921b6064820152608490fd5b50303b158015611ece5750600160ff8b1614611ece565b50600160ff8b1610611ec7565b503461024e57602036600319011261024e5760043563ffffffff60e01b811680910361024e57602091637965db0b60e01b82149182156121b6575b50519015158152f35b6301ffc9a760e01b149150386121ad565b503461024e57602036600319011261024e576121e1612260565b9060ff6121ec612b7a565b91600080516020612c3783398151915260005260fb6020528060002060018060a01b0380941660005260205260002054168015612245575b61222d90612a4f565b6101c480546001600160a01b03191691909216179055005b5061222d816033541682612257612b7a565b16149050612224565b600435906001600160a01b038216820361024e57565b602435906001600160a01b038216820361024e57565b35906001600160a01b038216820361024e57565b60005b8381106122b35750506000910152565b81810151838201526020016122a3565b906020916122dc815180928185528580860191016122a0565b601f01601f1916010190565b6060810190811067ffffffffffffffff821117611b2457604052565b90601f8019910116810190811067ffffffffffffffff821117611b2457604052565b67ffffffffffffffff8111611b2457601f01601f191660200190565b61234a612b7a565b9060009080825260209160fb83526040938482209060018060a01b031690818352845260ff858320541615612380575050505050565b84519261238c846122e8565b602a845284840190863683378451156126575760308253845192600193841015612643576078602187015360295b8481116125d95750612597578651926080840184811067ffffffffffffffff8211176125835788526042845286840194606036873784511561256f5760308653845182101561256f5790607860218601536041915b818311612501575050506124bf576124bb93869361249f936124906048946124679a519a8b957f416363657373436f6e74726f6c3a206163636f756e74200000000000000000008c88015251809260378801906122a0565b8401917001034b99036b4b9b9b4b733903937b6329607d1b6037840152518093868401906122a0565b01036028810187520185612304565b5192839262461bcd60e51b8452600484015260248301906122c3565b0390fd5b60648587519062461bcd60e51b825280600483015260248201527f537472696e67733a20686578206c656e67746820696e73756666696369656e746044820152fd5b909192600f8116601081101561255b576f181899199a1a9b1b9c1cb0b131b232b360811b901a6125318588612a28565b5360041c9280156125475760001901919061240f565b634e487b7160e01b82526011600452602482fd5b634e487b7160e01b83526032600452602483fd5b634e487b7160e01b81526032600452602490fd5b634e487b7160e01b86526041600452602486fd5b60648688519062461bcd60e51b825280600483015260248201527f537472696e67733a20686578206c656e67746820696e73756666696369656e746044820152fd5b90600f8116601081101561262f576f181899199a1a9b1b9c1cb0b131b232b360811b901a6126078389612a28565b5360041c90801561261b57600019016123ba565b634e487b7160e01b86526011600452602486fd5b634e487b7160e01b87526032600452602487fd5b634e487b7160e01b85526032600452602485fd5b634e487b7160e01b84526032600452602484fd5b6001600160a01b0390811660008181527fc88390e7e62175be0932452175b6a7222b6b094ab0ef984a5153c620345d8975602052604081205490929060ff16156126b457505050565b82805260fb6020526040832082845260205260408320600160ff198254161790556126dd612b7a565b16917f2f8788117e7eff1d82e926ec794901d17c78024a50270940304540a733656f0d8180a4565b600081815260fb602090815260408083206001600160a01b039586168085529252822054919390929160ff1661273c575b50505050565b7ff6391f5c32d9c69d2a47ea670b442974b53935d1edc7fd64eb21e047a839171b9082855260fb602052604085208486526020526040852060ff198154169055612784612b7a565b169380a438808080612736565b6033546001600160a01b03908116906127a8612b7a565b16036127b057565b606460405162461bcd60e51b815260206004820152602060248201527f4f776e61626c653a2063616c6c6572206973206e6f7420746865206f776e65726044820152fd5b603380546001600160a01b039283166001600160a01b0319821681179092559091167f8be0079c531659141344cd1fd0a4f28419497f9722a3daafe3b4186f6b6457e0600080a3565b1561284457565b60405162461bcd60e51b815260206004820152602c60248201527f46756e6374696f6e206d7573742062652063616c6c6564207468726f7567682060448201526b19195b1959d85d1958d85b1b60a21b6064820152608490fd5b156128a557565b60405162461bcd60e51b815260206004820152602c60248201527f46756e6374696f6e206d7573742062652063616c6c6564207468726f7567682060448201526b6163746976652070726f787960a01b6064820152608490fd5b803b1561293457600080516020612bf783398151915280546001600160a01b0319166001600160a01b03909216919091179055565b60405162461bcd60e51b815260206004820152602d60248201527f455243313936373a206e657720696d706c656d656e746174696f6e206973206e60448201526c1bdd08184818dbdb9d1c9858dd609a1b6064820152608490fd5b919290156129f157508151156129a3575090565b3b156129ac5790565b60405162461bcd60e51b815260206004820152601d60248201527f416464726573733a2063616c6c20746f206e6f6e2d636f6e74726163740000006044820152606490fd5b825190915015612a045750805190602001fd5b60405162461bcd60e51b8152602060048201529081906124bb9060248301906122c3565b908151811015612a39570160200190565b634e487b7160e01b600052603260045260246000fd5b15612a5657565b60405162461bcd60e51b8152602060048201526013602482015272556e617574686f72697a65642041636365737360681b6044820152606490fd5b6101f7546101f9546040805163c23ee3c360e01b815261ffff9094166004850152600060248501526044840191909152908190839060649082906001600160a01b03165afa90811561050257600091612aeb575b50905090565b82813d8311612b13575b612aff8183612304565b81010312612b105750518038612ae5565b80fd5b503d612af5565b15612b2157565b60405162461bcd60e51b815260206004820152602b60248201527f496e697469616c697a61626c653a20636f6e7472616374206973206e6f74206960448201526a6e697469616c697a696e6760a81b6064820152608490fd5b6097546001600160a01b031633148080612bcb575b15612ba1575036601319013560601c90565b60143610159081612bc3575b5015612bbf5736601319013560601c90565b3390565b905038612bad565b506014361015612b8f56fe189ab7a9244df0848122154315af71fe140f3db0fe014031783b0946b8c9d2e3360894a13ba1a3210667c828492db98dca3e2076cc3735a920a3ca505d382bbc65d7a28e3265b37a6474929f336521b332c1681b933f6cb9f3376673440d862a7613a25ecc738585a232ad50a301178f12b3ba8887d13e138b523c4269c47689a49807205ce4d355092ef5a8a18f56e8913cf4a201fbe287825b095693c21775a2646970667358221220660446d96052c13e853c60ea8a40bdb734f20f6b8cd8e1e258b3e1696863f7ff64736f6c63430008110033",
  "linkReferences": {},
  "deployedLinkReferences": {}
}