{
  "_format": "hh-sol-artifact-1",
  "contractName": "AxelarImpl",
  "sourceName": "contracts/MessagingImpls/AxelarImpl.sol",
  "abi": [
    {
      "inputs": [],
      "stateMutability": "nonpayable",
      "type": "constructor"
    },
    {
      "anonymous": false,
      "inputs": [
        {
          "indexed": false,
          "internalType": "address",
          "name": "previousAdmin",
          "type": "address"
        },
        {
          "indexed": false,
          "internalType": "address",
          "name": "newAdmin",
          "type": "address"
        }
      ],
      "name": "AdminChanged",
      "type": "event"
    },
    {
      "anonymous": false,
      "inputs": [
        {
          "indexed": true,
          "internalType": "address",
          "name": "beacon",
          "type": "address"
        }
      ],
      "name": "BeaconUpgraded",
      "type": "event"
    },
    {
      "anonymous": false,
      "inputs": [
        {
          "indexed": false,
          "internalType": "uint8",
          "name": "version",
          "type": "uint8"
        }
      ],
      "name": "Initialized",
      "type": "event"
    },
    {
      "anonymous": false,
      "inputs": [
        {
          "indexed": true,
          "internalType": "address",
          "name": "previousOwner",
          "type": "address"
        },
        {
          "indexed": true,
          "internalType": "address",
          "name": "newOwner",
          "type": "address"
        }
      ],
      "name": "OwnershipTransferred",
      "type": "event"
    },
    {
      "anonymous": false,
      "inputs": [
        {
          "indexed": false,
          "internalType": "address",
          "name": "account",
          "type": "address"
        }
      ],
      "name": "Paused",
      "type": "event"
    },
    {
      "anonymous": false,
      "inputs": [
        {
          "indexed": true,
          "internalType": "bytes32",
          "name": "role",
          "type": "bytes32"
        },
        {
          "indexed": true,
          "internalType": "bytes32",
          "name": "previousAdminRole",
          "type": "bytes32"
        },
        {
          "indexed": true,
          "internalType": "bytes32",
          "name": "newAdminRole",
          "type": "bytes32"
        }
      ],
      "name": "RoleAdminChanged",
      "type": "event"
    },
    {
      "anonymous": false,
      "inputs": [
        {
          "indexed": true,
          "internalType": "bytes32",
          "name": "role",
          "type": "bytes32"
        },
        {
          "indexed": true,
          "internalType": "address",
          "name": "account",
          "type": "address"
        },
        {
          "indexed": true,
          "internalType": "address",
          "name": "sender",
          "type": "address"
        }
      ],
      "name": "RoleGranted",
      "type": "event"
    },
    {
      "anonymous": false,
      "inputs": [
        {
          "indexed": true,
          "internalType": "bytes32",
          "name": "role",
          "type": "bytes32"
        },
        {
          "indexed": true,
          "internalType": "address",
          "name": "account",
          "type": "address"
        },
        {
          "indexed": true,
          "internalType": "address",
          "name": "sender",
          "type": "address"
        }
      ],
      "name": "RoleRevoked",
      "type": "event"
    },
    {
      "anonymous": false,
      "inputs": [
        {
          "indexed": false,
          "internalType": "address",
          "name": "account",
          "type": "address"
        }
      ],
      "name": "Unpaused",
      "type": "event"
    },
    {
      "anonymous": false,
      "inputs": [
        {
          "indexed": true,
          "internalType": "address",
          "name": "implementation",
          "type": "address"
        }
      ],
      "name": "Upgraded",
      "type": "event"
    },
    {
      "inputs": [],
      "name": "ADMIN_ROLE",
      "outputs": [
        {
          "internalType": "bytes32",
          "name": "",
          "type": "bytes32"
        }
      ],
      "stateMutability": "view",
      "type": "function"
    },
    {
      "inputs": [],
      "name": "DEFAULT_ADMIN_ROLE",
      "outputs": [
        {
          "internalType": "bytes32",
          "name": "",
          "type": "bytes32"
        }
      ],
      "stateMutability": "view",
      "type": "function"
    },
    {
      "inputs": [],
      "name": "PAUSER_ROLE",
      "outputs": [
        {
          "internalType": "bytes32",
          "name": "",
          "type": "bytes32"
        }
      ],
      "stateMutability": "view",
      "type": "function"
    },
    {
      "inputs": [],
      "name": "SUPER_ADMIN_ROLE",
      "outputs": [
        {
          "internalType": "bytes32",
          "name": "",
          "type": "bytes32"
        }
      ],
      "stateMutability": "view",
      "type": "function"
    },
    {
      "inputs": [],
      "name": "UPGRADER_ROLE",
      "outputs": [
        {
          "internalType": "bytes32",
          "name": "",
          "type": "bytes32"
        }
      ],
      "stateMutability": "view",
      "type": "function"
    },
    {
      "inputs": [
        {
          "internalType": "address",
          "name": "_admin",
          "type": "address"
        }
      ],
      "name": "addAdmin",
      "outputs": [],
      "stateMutability": "nonpayable",
      "type": "function"
    },
    {
      "inputs": [
        {
          "internalType": "address",
          "name": "account",
          "type": "address"
        }
      ],
      "name": "addPauser",
      "outputs": [],
      "stateMutability": "nonpayable",
      "type": "function"
    },
    {
      "inputs": [
        {
          "internalType": "address",
          "name": "_superAdmin",
          "type": "address"
        }
      ],
      "name": "addSuperAdmin",
      "outputs": [],
      "stateMutability": "nonpayable",
      "type": "function"
    },
    {
      "inputs": [
        {
          "internalType": "address",
          "name": "_upgrader",
          "type": "address"
        }
      ],
      "name": "addUpgrader",
      "outputs": [],
      "stateMutability": "nonpayable",
      "type": "function"
    },
    {
      "inputs": [
        {
          "internalType": "uint256",
          "name": "",
          "type": "uint256"
        }
      ],
      "name": "axelarChainImplAddress",
      "outputs": [
        {
          "internalType": "address",
          "name": "",
          "type": "address"
        }
      ],
      "stateMutability": "view",
      "type": "function"
    },
    {
      "inputs": [
        {
          "internalType": "uint256",
          "name": "",
          "type": "uint256"
        }
      ],
      "name": "axelarChainName",
      "outputs": [
        {
          "internalType": "string",
          "name": "",
          "type": "string"
        }
      ],
      "stateMutability": "view",
      "type": "function"
    },
    {
      "inputs": [
        {
          "internalType": "string",
          "name": "",
          "type": "string"
        }
      ],
      "name": "axelarChainNameToChainId",
      "outputs": [
        {
          "internalType": "uint256",
          "name": "",
          "type": "uint256"
        }
      ],
      "stateMutability": "view",
      "type": "function"
    },
    {
      "inputs": [],
      "name": "crossSyncGatewayAddress",
      "outputs": [
        {
          "internalType": "address",
          "name": "",
          "type": "address"
        }
      ],
      "stateMutability": "view",
      "type": "function"
    },
    {
      "inputs": [],
      "name": "defaultGasLimit",
      "outputs": [
        {
          "internalType": "uint256",
          "name": "",
          "type": "uint256"
        }
      ],
      "stateMutability": "view",
      "type": "function"
    },
    {
      "inputs": [
        {
          "internalType": "bytes32",
          "name": "commandId",
          "type": "bytes32"
        },
        {
          "internalType": "string",
          "name": "sourceChain",
          "type": "string"
        },
        {
          "internalType": "string",
          "name": "sourceAddress",
          "type": "string"
        },
        {
          "internalType": "bytes",
          "name": "payload",
          "type": "bytes"
        }
      ],
      "name": "execute",
      "outputs": [],
      "stateMutability": "nonpayable",
      "type": "function"
    },
    {
      "inputs": [
        {
          "components": [
            {
              "internalType": "address",
              "name": "sender",
              "type": "address"
            },
            {
              "internalType": "uint256",
              "name": "nonce",
              "type": "uint256"
            },
            {
              "internalType": "uint256",
              "name": "messagingRouteId",
              "type": "uint256"
            },
            {
              "internalType": "uint256",
              "name": "sourceChainId",
              "type": "uint256"
            },
            {
              "internalType": "uint256",
              "name": "destinationChainId",
              "type": "uint256"
            },
            {
              "internalType": "address",
              "name": "sourceGatewayAddress",
              "type": "address"
            },
            {
              "internalType": "address",
              "name": "destinationGatewayAddress",
              "type": "address"
            },
            {
              "components": [
                {
                  "internalType": "address",
                  "name": "to",
                  "type": "address"
                },
                {
                  "internalType": "bytes",
                  "name": "data",
                  "type": "bytes"
                }
              ],
              "internalType": "struct ICrossSyncGateway.MessagingPayload",
              "name": "payload",
              "type": "tuple"
            }
          ],
          "internalType": "struct IMessagingImpl.ICrossSyncMessagingData",
          "name": "_data",
          "type": "tuple"
        },
        {
          "internalType": "uint256",
          "name": "_gasLimit",
          "type": "uint256"
        }
      ],
      "name": "executeSendMessage",
      "outputs": [
        {
          "internalType": "bytes",
          "name": "",
          "type": "bytes"
        }
      ],
      "stateMutability": "payable",
      "type": "function"
    },
    {
      "inputs": [],
      "name": "gasService",
      "outputs": [
        {
          "internalType": "contract IAxelarGasService",
          "name": "",
          "type": "address"
        }
      ],
      "stateMutability": "view",
      "type": "function"
    },
    {
      "inputs": [],
      "name": "gateway",
      "outputs": [
        {
          "internalType": "contract IAxelarGateway",
          "name": "",
          "type": "address"
        }
      ],
      "stateMutability": "view",
      "type": "function"
    },
    {
      "inputs": [
        {
          "components": [
            {
              "internalType": "address",
              "name": "sender",
              "type": "address"
            },
            {
              "internalType": "uint256",
              "name": "nonce",
              "type": "uint256"
            },
            {
              "internalType": "uint256",
              "name": "messagingRouteId",
              "type": "uint256"
            },
            {
              "internalType": "uint256",
              "name": "sourceChainId",
              "type": "uint256"
            },
            {
              "internalType": "uint256",
              "name": "destinationChainId",
              "type": "uint256"
            },
            {
              "internalType": "address",
              "name": "sourceGatewayAddress",
              "type": "address"
            },
            {
              "internalType": "address",
              "name": "destinationGatewayAddress",
              "type": "address"
            },
            {
              "components": [
                {
                  "internalType": "address",
                  "name": "to",
                  "type": "address"
                },
                {
                  "internalType": "bytes",
                  "name": "data",
                  "type": "bytes"
                }
              ],
              "internalType": "struct ICrossSyncGateway.MessagingPayload",
              "name": "payload",
              "type": "tuple"
            }
          ],
          "internalType": "struct IMessagingImpl.ICrossSyncMessagingData",
          "name": "_data",
          "type": "tuple"
        },
        {
          "internalType": "uint256",
          "name": "_gasLimit",
          "type": "uint256"
        }
      ],
      "name": "getFee",
      "outputs": [
        {
          "internalType": "uint256",
          "name": "",
          "type": "uint256"
        }
      ],
      "stateMutability": "view",
      "type": "function"
    },
    {
      "inputs": [
        {
          "internalType": "bytes32",
          "name": "role",
          "type": "bytes32"
        }
      ],
      "name": "getRoleAdmin",
      "outputs": [
        {
          "internalType": "bytes32",
          "name": "",
          "type": "bytes32"
        }
      ],
      "stateMutability": "view",
      "type": "function"
    },
    {
      "inputs": [],
      "name": "getTrustedForwarder",
      "outputs": [
        {
          "internalType": "address",
          "name": "forwarder",
          "type": "address"
        }
      ],
      "stateMutability": "view",
      "type": "function"
    },
    {
      "inputs": [
        {
          "internalType": "bytes32",
          "name": "role",
          "type": "bytes32"
        },
        {
          "internalType": "address",
          "name": "account",
          "type": "address"
        }
      ],
      "name": "grantRole",
      "outputs": [],
      "stateMutability": "nonpayable",
      "type": "function"
    },
    {
      "inputs": [
        {
          "internalType": "bytes32",
          "name": "role",
          "type": "bytes32"
        },
        {
          "internalType": "address",
          "name": "account",
          "type": "address"
        }
      ],
      "name": "hasRole",
      "outputs": [
        {
          "internalType": "bool",
          "name": "",
          "type": "bool"
        }
      ],
      "stateMutability": "view",
      "type": "function"
    },
    {
      "inputs": [
        {
          "internalType": "address",
          "name": "_crossSyncGatewayAddress",
          "type": "address"
        },
        {
          "internalType": "address",
          "name": "_nativeCurrencyWrappedAddress",
          "type": "address"
        },
        {
          "internalType": "address",
          "name": "_nativeCurrencyAddress",
          "type": "address"
        },
        {
          "internalType": "address",
          "name": "_owner",
          "type": "address"
        },
        {
          "internalType": "address",
          "name": "_axelarGatewayAddress",
          "type": "address"
        },
        {
          "internalType": "address",
          "name": "_axelarGasServiceAddress",
          "type": "address"
        }
      ],
      "name": "initialize",
      "outputs": [],
      "stateMutability": "nonpayable",
      "type": "function"
    },
    {
      "inputs": [
        {
          "internalType": "address",
          "name": "forwarder",
          "type": "address"
        }
      ],
      "name": "isTrustedForwarder",
      "outputs": [
        {
          "internalType": "bool",
          "name": "",
          "type": "bool"
        }
      ],
      "stateMutability": "view",
      "type": "function"
    },
    {
      "inputs": [],
      "name": "nativeCurrencyAddress",
      "outputs": [
        {
          "internalType": "address",
          "name": "",
          "type": "address"
        }
      ],
      "stateMutability": "view",
      "type": "function"
    },
    {
      "inputs": [],
      "name": "nativeCurrencyWrappedAddress",
      "outputs": [
        {
          "internalType": "address",
          "name": "",
          "type": "address"
        }
      ],
      "stateMutability": "view",
      "type": "function"
    },
    {
      "inputs": [],
      "name": "owner",
      "outputs": [
        {
          "internalType": "address",
          "name": "",
          "type": "address"
        }
      ],
      "stateMutability": "view",
      "type": "function"
    },
    {
      "inputs": [],
      "name": "pause",
      "outputs": [],
      "stateMutability": "nonpayable",
      "type": "function"
    },
    {
      "inputs": [],
      "name": "paused",
      "outputs": [
        {
          "internalType": "bool",
          "name": "",
          "type": "bool"
        }
      ],
      "stateMutability": "view",
      "type": "function"
    },
    {
      "inputs": [],
      "name": "proxiableUUID",
      "outputs": [
        {
          "internalType": "bytes32",
          "name": "",
          "type": "bytes32"
        }
      ],
      "stateMutability": "view",
      "type": "function"
    },
    {
      "inputs": [
        {
          "internalType": "address",
          "name": "_admin",
          "type": "address"
        }
      ],
      "name": "removeAdmin",
      "outputs": [],
      "stateMutability": "nonpayable",
      "type": "function"
    },
    {
      "inputs": [
        {
          "internalType": "address",
          "name": "_pauser",
          "type": "address"
        }
      ],
      "name": "removePauser",
      "outputs": [],
      "stateMutability": "nonpayable",
      "type": "function"
    },
    {
      "inputs": [
        {
          "internalType": "address",
          "name": "_superAdmin",
          "type": "address"
        }
      ],
      "name": "removeSuperAdmin",
      "outputs": [],
      "stateMutability": "nonpayable",
      "type": "function"
    },
    {
      "inputs": [
        {
          "internalType": "address",
          "name": "_upgrader",
          "type": "address"
        }
      ],
      "name": "removeUpgrader",
      "outputs": [],
      "stateMutability": "nonpayable",
      "type": "function"
    },
    {
      "inputs": [],
      "name": "renounceOwnership",
      "outputs": [],
      "stateMutability": "nonpayable",
      "type": "function"
    },
    {
      "inputs": [
        {
          "internalType": "bytes32",
          "name": "role",
          "type": "bytes32"
        },
        {
          "internalType": "address",
          "name": "account",
          "type": "address"
        }
      ],
      "name": "renounceRole",
      "outputs": [],
      "stateMutability": "nonpayable",
      "type": "function"
    },
    {
      "inputs": [
        {
          "internalType": "address payable",
          "name": "userAddress",
          "type": "address"
        },
        {
          "internalType": "uint256",
          "name": "amount",
          "type": "uint256"
        }
      ],
      "name": "rescueEther",
      "outputs": [],
      "stateMutability": "nonpayable",
      "type": "function"
    },
    {
      "inputs": [
        {
          "internalType": "address",
          "name": "token",
          "type": "address"
        },
        {
          "internalType": "address",
          "name": "userAddress",
          "type": "address"
        },
        {
          "internalType": "uint256",
          "name": "amount",
          "type": "uint256"
        }
      ],
      "name": "rescueFunds",
      "outputs": [],
      "stateMutability": "nonpayable",
      "type": "function"
    },
    {
      "inputs": [
        {
          "internalType": "bytes32",
          "name": "role",
          "type": "bytes32"
        },
        {
          "internalType": "address",
          "name": "account",
          "type": "address"
        }
      ],
      "name": "revokeRole",
      "outputs": [],
      "stateMutability": "nonpayable",
      "type": "function"
    },
    {
      "inputs": [
        {
          "internalType": "uint256",
          "name": "_chainId",
          "type": "uint256"
        },
        {
          "internalType": "address",
          "name": "_implAddress",
          "type": "address"
        }
      ],
      "name": "setAxelarChainImplAddress",
      "outputs": [],
      "stateMutability": "nonpayable",
      "type": "function"
    },
    {
      "inputs": [
        {
          "internalType": "uint256",
          "name": "_chainId",
          "type": "uint256"
        },
        {
          "internalType": "string",
          "name": "_chainName",
          "type": "string"
        }
      ],
      "name": "setAxelarChainName",
      "outputs": [],
      "stateMutability": "nonpayable",
      "type": "function"
    },
    {
      "inputs": [
        {
          "internalType": "contract IAxelarGasService",
          "name": "_gasService",
          "type": "address"
        }
      ],
      "name": "setAxelarGasService",
      "outputs": [],
      "stateMutability": "nonpayable",
      "type": "function"
    },
    {
      "inputs": [
        {
          "internalType": "contract IAxelarGateway",
          "name": "_gateway",
          "type": "address"
        }
      ],
      "name": "setAxelarGateway",
      "outputs": [],
      "stateMutability": "nonpayable",
      "type": "function"
    },
    {
      "inputs": [
        {
          "internalType": "address",
          "name": "_crossSyncGatewayAddress",
          "type": "address"
        }
      ],
      "name": "setCrossSyncGatewayAddress",
      "outputs": [],
      "stateMutability": "nonpayable",
      "type": "function"
    },
    {
      "inputs": [
        {
          "internalType": "uint256",
          "name": "_defaultGasLimit",
          "type": "uint256"
        }
      ],
      "name": "setDefaultGasLimit",
      "outputs": [],
      "stateMutability": "nonpayable",
      "type": "function"
    },
    {
      "inputs": [
        {
          "internalType": "address",
          "name": "_nativeCurrencyAddress",
          "type": "address"
        }
      ],
      "name": "setNativeCurrencyAddress",
      "outputs": [],
      "stateMutability": "nonpayable",
      "type": "function"
    },
    {
      "inputs": [
        {
          "internalType": "address",
          "name": "_nativeCurrencyWrappedAddress",
          "type": "address"
        }
      ],
      "name": "setNativeCurrencyWrappedAddress",
      "outputs": [],
      "stateMutability": "nonpayable",
      "type": "function"
    },
    {
      "inputs": [
        {
          "internalType": "address",
          "name": "_newtrustedForwarder",
          "type": "address"
        }
      ],
      "name": "setTrustedForwarder",
      "outputs": [],
      "stateMutability": "nonpayable",
      "type": "function"
    },
    {
      "inputs": [
        {
          "internalType": "bytes4",
          "name": "interfaceId",
          "type": "bytes4"
        }
      ],
      "name": "supportsInterface",
      "outputs": [
        {
          "internalType": "bool",
          "name": "",
          "type": "bool"
        }
      ],
      "stateMutability": "view",
      "type": "function"
    },
    {
      "inputs": [
        {
          "internalType": "address",
          "name": "newOwner",
          "type": "address"
        }
      ],
      "name": "transferOwnership",
      "outputs": [],
      "stateMutability": "nonpayable",
      "type": "function"
    },
    {
      "inputs": [],
      "name": "unpause",
      "outputs": [],
      "stateMutability": "nonpayable",
      "type": "function"
    },
    {
      "inputs": [
        {
          "internalType": "address",
          "name": "newImplementation",
          "type": "address"
        }
      ],
      "name": "upgradeTo",
      "outputs": [],
      "stateMutability": "nonpayable",
      "type": "function"
    },
    {
      "inputs": [
        {
          "internalType": "address",
          "name": "newImplementation",
          "type": "address"
        },
        {
          "internalType": "bytes",
          "name": "data",
          "type": "bytes"
        }
      ],
      "name": "upgradeToAndCall",
      "outputs": [],
      "stateMutability": "payable",
      "type": "function"
    },
    {
      "stateMutability": "payable",
      "type": "receive"
    }
  ],
  "bytecode": "0x60a060405234620000495730608052620000186200004e565b620000226200004e565b6040516135599081620000f8823960805181818161135f0152818161145d0152611e670152f35b600080fd5b60005460ff8160081c16620000a25760ff808216036200006b5750565b60ff90811916176000557f7f26b83ff96e1f2b6a682f133852f6798a09c465da95921460cefb3847402498602060405160ff8152a1565b60405162461bcd60e51b815260206004820152602760248201527f496e697469616c697a61626c653a20636f6e747261637420697320696e697469604482015266616c697a696e6760c81b6064820152608490fdfe60406080815260049081361015610020575b5050361561001e57600080fd5b005b600091823560e01c80629fe7521461285157806301ffc9a7146127fc57806308dab0a41461261e578063116191b6146125f4578063146e66b5146125175780631785f53c14612425578063197d972e146123d9578063214ac8d41461235b578063248a9ca3146123315780632f2ff15d1461228d57806332495ce1146121f457806336568abe146121585780633659cfe614611e4057806336c5eda414611aa357806338073f0c14611a795780633f4ba83a146119435780634460bdd61461191a5780634902e4aa146118b65783816349160658146117ce575080634b03285a146117355780634f1ef2861461140c57806352d1902d1461134a578063572b6c05146113165780635c975abb146112ef578063604a172c146112aa5780636a22d8cc146112805780636b2c0f55146111865780636ccae054146110da5780637048027514611022578063715018a614610fc457806375b238fc14610f9b57806382dc1ec414610e9d5780638456cb5914610d585780638da5cb5b14610d2f57806391d1485414610cea57806395368d2e14610cca578063a217fddf14610caf578063b3292ff014610c4a578063b89b22d714610c20578063bd826ed714610bf6578063c29a070c14610b96578063cc2a9a5b1461085a578063ce1b815f14610831578063d264a80314610789578063d547741f1461074b578063da742228146106b5578063e32bb67b1461063857838163e42e0ea9146105dd57508063e47d1c6e1461053d578063e511015814610491578063e63ab1e914610468578063f2fde38b146102e5578063f72c0d8b146102b85763fefbbd62146102825750610011565b346102b45760203660031901126102b4573582526101fc6020908152918190205490516001600160a01b039091168152f35b8280fd5b5050346102e157816003193601126102e157602090516000805160206134648339815191528152f35b5080fd5b5090346102b45760209081600319360112610464576103026128ea565b9161030b612e5a565b610313612e5a565b6001600160a01b039280841615610412578061033161033692612ebd565b612d58565b61033e6133e7565b9383806103496133e7565b1695169485036103b957506000805260fb81528160002084600052815260ff826000205416610376578480f35b6000805260fb81528160002090846000525260002060ff19815416905561039b6133e7565b169060006000805160206134e48339815191528180a4388080808480f35b915162461bcd60e51b815291820152602f60248201527f416363657373436f6e74726f6c3a2063616e206f6e6c792072656e6f756e636560448201526e103937b632b9903337b91039b2b63360891b6064820152608490fd5b825162461bcd60e51b8152808601839052602660248201527f4f776e61626c653a206e6577206f776e657220697320746865207a65726f206160448201526564647265737360d01b6064820152608490fd5b8380fd5b5050346102e157816003193601126102e157602090516000805160206134a48339815191528152f35b5050346102e15760203660031901126102e1576104ac6128ea565b906104b5612e5a565b600080516020613464833981519152918260005260fb602052816000209160018060a01b03809216928360005260205260ff816000205416156104f6578480f35b8360005260fb6020528060002083600052602052600020600160ff198254161790556105206133e7565b1691600080516020613444833981519152600080a4388080808480f35b50346102b457816003193601126102b457610556612900565b9161055f6133e7565b916000805160206134c4833981519152855260fb60205281852060018060a01b0380941660005260205260ff82600020541680156105c2575b6105a190613345565b3584526101fc602052832091166001600160601b0360a01b82541617905580f35b506105a18360335416846105d46133e7565b16149050610598565b919050346102e157826003193601126102e157356001600160a01b038116908190036102e1578180809260243590610613612e5a565b82821561062f575bf115610625575080f35b51903d90823e3d90fd5b506108fc61061b565b5090346102b45760203660031901126102b4576106969060ff6106596133e7565b916000805160206134c4833981519152865260fb60205280862060018060a01b03809416600052602052600020541690811561069e575b50613345565b356101c35580f35b603354811691506106ad6133e7565b161438610690565b5050346102e15760203660031901126102e1576106d06128ea565b60ff6106da6133e7565b926000805160206134c4833981519152855260fb60205280852060018060a01b0380951660005260205260002054168015610730575b61071990613345565b166001600160601b0360a01b609754161760975580f35b506107198260335416836107426133e7565b16149050610710565b5090346102b457806003193601126102b4576107869135610781600161076f612900565b9383875260fb60205286200154612ae4565b612de0565b80f35b5050346102e15760203660031901126102e1576107a46128ea565b906107ad612e5a565b600080516020613464833981519152918260005260fb602052816000209160018060a01b03809216928360005260205260ff8160002054166107ed578480f35b8360005260fb602052806000208360005260205260002060ff1981541690556108146133e7565b16916000805160206134e4833981519152600080a4388080808480f35b5050346102e157816003193601126102e15760975490516001600160a01b039091168152602090f35b509190346102e15760c03660031901126102e1576108766128ea565b61087e612900565b906044356001600160a01b0381811691829003610b91576064359181831694858403610b915760843592808416809403610b915760a43594818616809603610b915789549a60ff8c60081c161598898d819b610b83575b508015610b64575b15610b0a578b9c8a60019d8e60ff19841617815561097b9260ff92610af9575b5061093d82825460081c1661091181613387565b61091a81613387565b61092381613387565b8360a01b196097541660975561093881613387565b613387565b61094d6109486133e7565b612ebd565b5460081c1661095b81613387565b61096481613387565b61096d81613387565b8d61012d5561093881613387565b610983612e5a565b15610aa757508061033161099692612ebd565b6000805160206135048339815191528060005260fb60205289896000200154906000805160206134c48339815191528092818d8d60002001557fbd79b86ffe0ab8e8776151514217cd7cacd52c909f66475c3af44e129f0b00ff9283600080a46000805160206134a483398151915260008181528b81208d01805490859055929080a46001600160601b0360a01b95816101c49116878254161790556101c59116858254161790556101c6908482541617905562015f906101c3556101f890838254161790556101f991825416179055610a6e578280f35b825461ff0019168355519081527f7f26b83ff96e1f2b6a682f133852f6798a09c465da95921460cefb384740249890602090a138808280f35b60849060208b519162461bcd60e51b8352820152602660248201527f4f776e61626c653a206e6577206f776e657220697320746865207a65726f206160448201526564647265737360d01b6064820152fd5b61ffff1916610101178155386108fd565b8a5162461bcd60e51b8152602081840152602e60248201527f496e697469616c697a61626c653a20636f6e747261637420697320616c72656160448201526d191e481a5b9a5d1a585b1a5e995960921b6064820152608490fd5b50303b158d81610b75575b506108dd565b6001915060ff16148d610b6f565b6001915060ff16108d6108d5565b600080fd5b509134610bf3576020366003190112610bf3578235906001600160401b038211610bf357506020610bce8194610be0933691016129e1565b81845193828580945193849201612a39565b81016101fb815203019020549051908152f35b80fd5b5050346102e157816003193601126102e1576101c55490516001600160a01b039091168152602090f35b5050346102e157816003193601126102e1576101c45490516001600160a01b039091168152602090f35b5050346102e15760203660031901126102e157610c656128ea565b90610c6e612e5a565b6000805160206134c4833981519152918260005260fb602052816000209160018060a01b03809216928360005260205260ff816000205416156104f6578480f35b5050346102e157816003193601126102e15751908152602090f35b5050346102e157816003193601126102e1576020906101c3549051908152f35b50346102b457816003193601126102b45781602093610d07612900565b9235815260fb8552209060018060a01b0316600052825260ff81600020541690519015158152f35b5050346102e157816003193601126102e15760335490516001600160a01b039091168152602090f35b509190346102e157816003193601126102e157610d736133e7565b906000805160206134a4833981519152835260209160fb835281842060018060a01b03809216600052835260ff8260002054168015610e67575b8015610e4c575b610dbd90613345565b6097549460ff8660a01c16610e16575060ff60a01b19909416600160a01b1760975591927f62e78cea01bee320cd4e420270b5ea74000d11b0c9f74754ebdbfc544b05a2589290610e0c6133e7565b915191168152a180f35b825162461bcd60e51b8152908101849052601060248201526f14185d5cd8589b194e881c185d5cd95960821b6044820152606490fd5b50610dbd816033541682610e5e6133e7565b16149050610db4565b50610e706133e7565b6000805160206134c4833981519152855260fb8452818386209116600052835260ff826000205416610dad565b5050346102e157602090816003193601126102b457610eba6128ea565b90610ec36133e7565b906000805160206134c4833981519152855260fb845280852060018060a01b03809316600052845260ff8160002054168015610f80575b610f0390613345565b6000805160206134a4833981519152938460005260fb8152828260002094169384600052815260ff82600020541615610f3a578580f35b8460005260fb815281600020908460005252600020600160ff19825416179055610f626133e7565b1691600080516020613444833981519152600080a438808080808580f35b50610f03826033541683610f926133e7565b16149050610efa565b5050346102e157816003193601126102e157602090516000805160206135048339815191528152f35b8334610bf35780600319360112610bf357610fdd612e5a565b603380546001600160a01b031981169091556000906001600160a01b03167f8be0079c531659141344cd1fd0a4f28419497f9722a3daafe3b4186f6b6457e08280a380f35b5050346102e157602090816003193601126102b45761103f6128ea565b906110486133e7565b906000805160206134c4833981519152855260fb845280852060018060a01b03809316600052845260ff81600020541680156110bf575b61108890613345565b600080516020613504833981519152938460005260fb8152828260002094169384600052815260ff82600020541615610f3a578580f35b506110888260335416836110d16133e7565b1614905061107f565b5090346102b45760603660031901126102b45760206110f76128ea565b6044611101612900565b9461110a612e5a565b845163a9059cbb60e01b81526001600160a01b03968716918101919091528135602482015294859283918891165af190811561117d5750611149575080f35b6020813d8211611175575b816111616020938361296e565b810103126102e1575180151503610bf35780f35b3d9150611154565b513d84823e3d90fd5b5050346102e157602090816003193601126102b4576111a36128ea565b906111ac6133e7565b906000805160206134c4833981519152855260fb845280852060018060a01b03809316600052845260ff8160002054168015611265575b6111ec90613345565b6000805160206134a4833981519152938460005260fb8152828260002094169384600052815260ff826000205416611222578580f35b8460005260fb81528160002090846000525260002060ff1981541690556112476133e7565b16916000805160206134e4833981519152600080a438808080808580f35b506111ec8260335416836112776133e7565b161490506111e3565b5050346102e157816003193601126102e1576101f95490516001600160a01b039091168152602090f35b508234610bf3575060206064926112c036612a81565b50505162461bcd60e51b815291820152600d60248201526c139bdd0814dd5c1c1bdc9d1959609a1b6044820152fd5b5050346102e157816003193601126102e15760209060ff60975460a01c1690519015158152f35b5050346102e15760203660031901126102e1576020906113346128ea565b60018060a01b0380609754169116149051908152f35b508234610bf35780600319360112610bf357507f00000000000000000000000000000000000000000000000000000000000000006001600160a01b031630036113a457602082516000805160206134848339815191528152f35b6020608492519162461bcd60e51b8352820152603860248201527f555550535570677261646561626c653a206d757374206e6f742062652063616c60448201527f6c6564207468726f7567682064656c656761746563616c6c00000000000000006064820152fd5b5090806003193601126102b4576114216128ea565b906024356001600160401b03811161173157366023820112156117315761145190369060248187013591016129aa565b6001600160a01b0391907f0000000000000000000000000000000000000000000000000000000000000000831661148a30821415612f06565b6114a7600080516020613484833981519152918583541614612f67565b6114af6133e7565b93600080516020613464833981519152885260209460fb865281858a209116600052855260ff8460002054168015611716575b6114eb90613345565b7f4910fdfa16fed3260ed0e7147f7cc6da11a60208b5b9406d12a635614ffd91435460ff16156115245750505050506107869150612fc8565b85939495169084516352d1902d60e01b815286818981865afa600091816116e7575b506115a557855162461bcd60e51b8152808901889052602e60248201527f45524331393637557067726164653a206e657720696d706c656d656e7461746960448201526d6f6e206973206e6f74205555505360901b6064820152608490fd5b969192959493960361169257506115bb85612fc8565b7fbc7cd75a20ee27fd9adebab32041f755214dbc6bffa90cc0225b39da2e5c2d3b600080a282511580159061168a575b6115f7575b5050505080f35b6116769360008083519561160a87612953565b602787527f416464726573733a206c6f772d6c6576656c2064656c65676174652063616c6c86880152660819985a5b195960ca1b858801528581519101845af4913d15611680573d61166761165e8261298f565b9251928361296e565b8152600081943d92013e613058565b50388080806115f0565b5060609250613058565b5060016115eb565b825162461bcd60e51b8152908101849052602960248201527f45524331393637557067726164653a20756e737570706f727465642070726f786044820152681a58589b195555525160ba1b6064820152608490fd5b90918882813d831161170f575b6116fe818361296e565b81010312610bf35750519038611546565b503d6116f4565b506114eb8160335416826117286133e7565b161490506114e2565b8480fd5b5050346102e15760203660031901126102e1576117506128ea565b9060ff61175b6133e7565b916000805160206134c4833981519152855260fb60205280852060018060a01b03809416600052602052600020541680156117b3575b61179a90613345565b6101c491166001600160601b0360a01b82541617905580f35b5061179a8160335416826117c56133e7565b16149050611791565b929050346118b25760803660031901126118b2576001600160401b03602435818111611731576118019036908501612ab7565b50506044358181116117315761181a9036908501612ab7565b50506064359081116118ad576118339036908401612ab7565b61183e93919361323c565b6101c4546001600160a01b0316803b156118a957602086809461187a87519889968795869463e34381a160e01b86528501526024840191613186565b03925af190811561117d5750611895575b50600161012d5580f35b61189e9061292a565b610bf357803861188b565b8580fd5b505050fd5b5050fd5b5050346102e15760203660031901126102e1576118d16128ea565b906118da612e5a565b6000805160206134c4833981519152918260005260fb602052816000209160018060a01b03809216928360005260205260ff8160002054166107ed578480f35b5050346102e157816003193601126102e157602090516000805160206134c48339815191528152f35b509190346102e157816003193601126102e15761195e6133e7565b906000805160206134a4833981519152835260209160fb835281842060018060a01b03809216600052835260ff8260002054168015611a43575b8015611a28575b6119a890613345565b6097549460ff8660a01c16156119ee57507f5db9ee0a495bf2e6ff9c91a7834c1ba4fdd244a5e8aa4e537bd38aeae4b073aa939460ff60a01b1916609755610e0c6133e7565b825162461bcd60e51b8152908101849052601460248201527314185d5cd8589b194e881b9bdd081c185d5cd95960621b6044820152606490fd5b506119a8816033541682611a3a6133e7565b1614905061199f565b50611a4c6133e7565b6000805160206134c4833981519152855260fb8452818386209116600052835260ff826000205416611998565b5050346102e157816003193601126102e1576101c65490516001600160a01b039091168152602090f35b5091611aae36612a81565b5092611ab861323c565b611ac06133e7565b6101c4546001600160a01b03939190841690841603611de8573415611da557835192602095868086015281611af482612916565b16868601528681013560608601526080938682013585870152606082013560a087015284820135918260c088015283611b2f60a08301612916565b1660e088015260c081019084611b4483612916565b169061010091828a015260e0810135603e1982360301811215611da157019061012089015284611b7382612916565b1661014089015289810135601e1982360301811215611d78570189810190356001600160401b038111611d78578036038213611d78578891611bc1918b610160850152610180840191613186565b0396611bd5601f199889810183528261296e565b846101f954168487526101fa90818c528a882093358781168103611d9d57611bfc90613293565b93611c056133e7565b823b15611d99578c51630c93e3bb60e01b8152308189015260a06024820152928a92849283918291908d90611c6990611c5990611c469060a48701906131a7565b6003199d8e878303016044880152612a5c565b8c8582030160648601528b612a5c565b91166084830152039134905af18015611d8f57611d7c575b50856101f854169487528a52611ca3898720956101fc8c528a88205416613293565b843b15611d7857611cdd9593611cfc889694606094611ced89958f519b8c9a8b998a98631c92115f60e01b8a5289015260648801906131a7565b9084878303016024880152612a5c565b91848303016044850152612a5c565b03925af18015611d6e57611d5a575b50509290600161012d55825193828593845260605191828286015260005b838110611d46575050600084830186015250601f01168101030190f35b818101518882018801528795508201611d29565b611d64829161292a565b610bf35780611d0b565b85513d84823e3d90fd5b8680fd5b611d889097919761292a565b9538611c81565b8b513d8a823e3d90fd5b8980fd5b8880fd5b8780fd5b835162461bcd60e51b8152602081840152601760248201527f476173207061796d656e742069732072657175697265640000000000000000006044820152606490fd5b835162461bcd60e51b8152602081840152602c60248201527f4f6e6c792043726f737353796e63476174657761792063616e2063616c6c207460448201526b3434b990333ab731ba34b7b760a11b6064820152608490fd5b5090346102b45760208060031936011261046457611e5c6128ea565b916001600160a01b037f00000000000000000000000000000000000000000000000000000000000000008116611e9430821415612f06565b611eb1600080516020613484833981519152918383541614612f67565b611eb96133e7565b600080516020613464833981519152885260fb85528284892091168852845260ff8388205416801561213d575b611eef90613345565b825190848201928284106001600160401b0385111761212a578385528883527f4910fdfa16fed3260ed0e7147f7cc6da11a60208b5b9406d12a635614ffd91435460ff1615611f48575050505050506107869150612fc8565b869293949596169085516352d1902d60e01b815287818a81865afa8a91816120f7575b50611fca57865162461bcd60e51b8152808a01899052602e60248201527f45524331393637557067726164653a206e657720696d706c656d656e7461746960448201526d6f6e206973206e6f74205555505360901b6064820152608490fd5b9791929396959497036120a25750611fe182612fc8565b7fbc7cd75a20ee27fd9adebab32041f755214dbc6bffa90cc0225b39da2e5c2d3b8780a28584511580159061209b575b61201f575b50505050505080f35b8061208f9684519661203088612953565b602788527f416464726573733a206c6f772d6c6576656c2064656c65676174652063616c6c87890152660819985a5b195960ca1b868901525190845af4913d15611680573d61208161165e8261298f565b81528681943d92013e613058565b50388080808085612016565b5080612011565b835162461bcd60e51b8152908101859052602960248201527f45524331393637557067726164653a20756e737570706f727465642070726f786044820152681a58589b195555525160ba1b6064820152608490fd5b9091508881813d8311612123575b61210f818361296e565b8101031261211f57519038611f6b565b8a80fd5b503d612105565b634e487b7160e01b895260418852602489fd5b50611eef82603354168361214f6133e7565b16149050611ee6565b508290346102e157826003193601126102e157612173612900565b906001600160a01b03806121856133e7565b169083160361219957906107869135612de0565b608490602085519162461bcd60e51b8352820152602f60248201527f416363657373436f6e74726f6c3a2063616e206f6e6c792072656e6f756e636560448201526e103937b632b9903337b91039b2b63360891b6064820152fd5b5050346102e15760203660031901126102e15761220f6128ea565b9060ff61221a6133e7565b6000805160206134c4833981519152855260fb60209081528386206001600160a01b039283168752905291842054168015612272575b61225990613345565b6101c691166001600160601b0360a01b82541617905580f35b506122598160335416826122846133e7565b16149050612250565b50346102b457816003193601126102b45735906122a8612900565b82845260fb6020526122bf60018386200154612ae4565b82845260fb60209081528285206001600160a01b0392831680875291528285205490929060ff16156122ef578480f35b83855260fb6020528085208386526020528420600160ff198254161790556123156133e7565b16916000805160206134448339815191528480a4388080808480f35b50346102b45760203660031901126102b4578160209360019235815260fb85522001549051908152f35b50346102b45760203660031901126102b457356001600160a01b0381811692918390036104645760ff6123c2926123906133e7565b6000805160206134c4833981519152875260fb60205283828820911687526020528520541690811561069e5750613345565b6101f880546001600160a01b031916909117905580f35b50346102b45760203660031901126102b457356001600160a01b0381811692918390036104645760ff61240e926123906133e7565b6101f980546001600160a01b031916909117905580f35b5050346102e157602090816003193601126102b4576124426128ea565b9061244b6133e7565b6000805160206134c4833981519152855260fb84528185206001600160a01b03918216865284528185205490919060ff1680156124fc575b61248c90613345565b6000805160206135048339815191529384865260fb815282828720941693848752815260ff82872054166124be578580f35b84865260fb815281862084875290528420805460ff191690556124df6133e7565b16916000805160206134e48339815191528480a438808080808580f35b5061248c82603354168361250e6133e7565b16149050612483565b5090346102b45760209182600319360112610464573583526101fa8252808320815193849181815490612549826129ff565b928386526001928884821691826000146125ca57505060011461258c575b858861258889612579848a038561296e565b51928284938452830190612a5c565b0390f35b87945081939291528383205b8284106125b2575050508201018161257961258838612567565b8054848a018601528895508794909301928101612598565b60ff19168882015294151560051b8701909401945085935061257992506125889150389050612567565b5050346102e157816003193601126102e1576101f85490516001600160a01b039091168152602090f35b508290346102e157826003193601126102e1578035906001600160401b03906024358281116117315761265490369083016129e1565b9061265d6133e7565b6000805160206134c4833981519152865260fb60209081528787206001600160a01b0392831688528152878720549094916126a29160ff169081156127e55750613345565b8486526101fa84528686209183519182116127d257506126c282546129ff565b601f811161278f575b5083601f8211600114612728579181879892869461270e98999161271d575b508160011b916000199060031b1c19161790555b5193828580945193849201612a39565b81016101fb8152030190205580f35b90508501518a6126ea565b82875284872090601f198316885b8181106127785750928694926001928261270e9a9b9c961061275f575b5050811b0190556126fe565b87015160001960f88460031b161c191690558a80612753565b91928760018192868a015181550194019201612736565b828752848720601f830160051c8101918684106127c8575b601f0160051c01905b8181106127bd57506126cb565b8781556001016127b0565b90915081906127a7565b634e487b7160e01b875260419052602486fd5b603354811691506127f46133e7565b161489610690565b50346102b45760203660031901126102b457359063ffffffff60e01b82168092036102b45760209250637965db0b60e01b8214918215612840575b50519015158152f35b6301ffc9a760e01b14915038612837565b5050346102e15760203660031901126102e15761286c6128ea565b9060ff6128776133e7565b6000805160206134c4833981519152855260fb60209081528386206001600160a01b0392831687529052918420541680156128cf575b6128b690613345565b6101c591166001600160601b0360a01b82541617905580f35b506128b68160335416826128e16133e7565b161490506128ad565b600435906001600160a01b0382168203610b9157565b602435906001600160a01b0382168203610b9157565b35906001600160a01b0382168203610b9157565b6001600160401b03811161293d57604052565b634e487b7160e01b600052604160045260246000fd5b606081019081106001600160401b0382111761293d57604052565b90601f801991011681019081106001600160401b0382111761293d57604052565b6001600160401b03811161293d57601f01601f191660200190565b9291926129b68261298f565b916129c4604051938461296e565b829481845281830111610b91578281602093846000960137010152565b9080601f83011215610b91578160206129fc933591016129aa565b90565b90600182811c92168015612a2f575b6020831014612a1957565b634e487b7160e01b600052602260045260246000fd5b91607f1691612a0e565b60005b838110612a4c5750506000910152565b8181015183820152602001612a3c565b90602091612a7581518092818552858086019101612a39565b601f01601f1916010190565b60031990604081830112610b9157600435916001600160401b038311610b91578261010092030112610b91576004019060243590565b9181601f84011215610b91578235916001600160401b038311610b915760208381860195010111610b9157565b612aec6133e7565b9060009080825260209160fb83526040938482209060018060a01b031690818352845260ff858320541615612b22575050505050565b90845192612b2f84612953565b602a84528484019086368337845115612d445760308253845193600194851015612cb257607860218701536029905b858211612cee57612b7091501561313b565b865192608084018481106001600160401b03821117612cda57885260428452868401946060368737845115612cc657603086538451811015612cc65790607860218601536041915b808311612c6c57612c1489612c688c612c4c60488d8d8d612c3d8e612bdd8f1561313b565b87519a8b957f416363657373436f6e74726f6c3a206163636f756e74200000000000000000008c8801525180926037880190612a39565b8401917001034b99036b4b9b9b4b733903937b6329607d1b603784015251809386840190612a39565b0103602881018752018561296e565b5192839262461bcd60e51b845260048401526024830190612a5c565b0390fd5b909192600f81166010811015612cb257612cab91906f181899199a1a9b1b9c1cb0b131b232b360811b901a612ca186896130f1565b5360041c93613118565b9190612bb8565b634e487b7160e01b84526032600452602484fd5b634e487b7160e01b82526032600452602482fd5b634e487b7160e01b82526041600452602482fd5b600f81166010811015612d3057612d2a91906f181899199a1a9b1b9c1cb0b131b232b360811b901a612d20848a6130f1565b5360041c91613118565b90612b5e565b634e487b7160e01b86526032600452602486fd5b634e487b7160e01b83526032600452602483fd5b6001600160a01b0390811660008181527fc88390e7e62175be0932452175b6a7222b6b094ab0ef984a5153c620345d8975602052604081205490929060ff1615612da157505050565b82805260fb6020526040832082845260205260408320600160ff19825416179055612dca6133e7565b16916000805160206134448339815191528180a4565b600081815260fb602090815260408083206001600160a01b039586168085529252822054919390929160ff16612e17575b50505050565b6000805160206134e48339815191529082855260fb602052604085208486526020526040852060ff198154169055612e4d6133e7565b169380a438808080612e11565b6033546001600160a01b0390811690612e716133e7565b1603612e7957565b606460405162461bcd60e51b815260206004820152602060248201527f4f776e61626c653a2063616c6c6572206973206e6f7420746865206f776e65726044820152fd5b603380546001600160a01b039283166001600160a01b0319821681179092559091167f8be0079c531659141344cd1fd0a4f28419497f9722a3daafe3b4186f6b6457e0600080a3565b15612f0d57565b60405162461bcd60e51b815260206004820152602c60248201527f46756e6374696f6e206d7573742062652063616c6c6564207468726f7567682060448201526b19195b1959d85d1958d85b1b60a21b6064820152608490fd5b15612f6e57565b60405162461bcd60e51b815260206004820152602c60248201527f46756e6374696f6e206d7573742062652063616c6c6564207468726f7567682060448201526b6163746976652070726f787960a01b6064820152608490fd5b803b15612ffd5760008051602061348483398151915280546001600160a01b0319166001600160a01b03909216919091179055565b60405162461bcd60e51b815260206004820152602d60248201527f455243313936373a206e657720696d706c656d656e746174696f6e206973206e60448201526c1bdd08184818dbdb9d1c9858dd609a1b6064820152608490fd5b919290156130ba575081511561306c575090565b3b156130755790565b60405162461bcd60e51b815260206004820152601d60248201527f416464726573733a2063616c6c20746f206e6f6e2d636f6e74726163740000006044820152606490fd5b8251909150156130cd5750805190602001fd5b60405162461bcd60e51b815260206004820152908190612c68906024830190612a5c565b908151811015613102570160200190565b634e487b7160e01b600052603260045260246000fd5b8015613125576000190190565b634e487b7160e01b600052601160045260246000fd5b1561314257565b606460405162461bcd60e51b815260206004820152602060248201527f537472696e67733a20686578206c656e67746820696e73756666696369656e746044820152fd5b908060209392818452848401376000828201840152601f01601f1916010190565b90600092918054916131b8836129ff565b91828252600193848116908160001461321957506001146131d95750505050565b90919394506000526020928360002092846000945b838610613205575050505001019038808080612e11565b8054858701830152940193859082016131ee565b9294505050602093945060ff191683830152151560051b01019038808080612e11565b61012d600281541461324e5760029055565b60405162461bcd60e51b815260206004820152601f60248201527f5265656e7472616e637947756172643a207265656e7472616e742063616c6c006044820152606490fd5b604051906001600160a01b03166132a982612953565b602a8252602082016040368237825115613102576030905381516001908110156131025790607860218401536029915b8083116132ec57506129fc91501561313b565b90600f811690601082101561333057613329916f181899199a1a9b1b9c1cb0b131b232b360811b901a61331f85876130f1565b5360041c92613118565b91906132d9565b60246000634e487b7160e01b81526032600452fd5b1561334c57565b60405162461bcd60e51b8152602060048201526013602482015272556e617574686f72697a65642041636365737360681b6044820152606490fd5b1561338e57565b60405162461bcd60e51b815260206004820152602b60248201527f496e697469616c697a61626c653a20636f6e7472616374206973206e6f74206960448201526a6e697469616c697a696e6760a81b6064820152608490fd5b6097546001600160a01b031633148080613438575b1561340e575036601319013560601c90565b60143610159081613430575b501561342c5736601319013560601c90565b3390565b90503861341a565b5060143610156133fc56fe2f8788117e7eff1d82e926ec794901d17c78024a50270940304540a733656f0d189ab7a9244df0848122154315af71fe140f3db0fe014031783b0946b8c9d2e3360894a13ba1a3210667c828492db98dca3e2076cc3735a920a3ca505d382bbc65d7a28e3265b37a6474929f336521b332c1681b933f6cb9f3376673440d862a7613a25ecc738585a232ad50a301178f12b3ba8887d13e138b523c4269c47689f6391f5c32d9c69d2a47ea670b442974b53935d1edc7fd64eb21e047a839171ba49807205ce4d355092ef5a8a18f56e8913cf4a201fbe287825b095693c21775a26469706673582212201dbd8b47d59142715df0c4f5d9cb8b44c20e6b84b1fdbfc49e1d67703562488c64736f6c63430008110033",
  "linkReferences": {},
  "deployedLinkReferences": {}
}