{
  "_format": "hh-sol-artifact-1",
  "contractName": "AxelarImpl",
  "sourceName": "contracts/MessagingImpls/AxelarImpl.sol",
  "abi": [
    {
      "inputs": [],
      "stateMutability": "nonpayable",
      "type": "constructor"
    },
    {
      "anonymous": false,
      "inputs": [
        {
          "indexed": false,
          "internalType": "address",
          "name": "previousAdmin",
          "type": "address"
        },
        {
          "indexed": false,
          "internalType": "address",
          "name": "newAdmin",
          "type": "address"
        }
      ],
      "name": "AdminChanged",
      "type": "event"
    },
    {
      "anonymous": false,
      "inputs": [
        {
          "indexed": true,
          "internalType": "address",
          "name": "beacon",
          "type": "address"
        }
      ],
      "name": "BeaconUpgraded",
      "type": "event"
    },
    {
      "anonymous": false,
      "inputs": [
        {
          "indexed": false,
          "internalType": "uint8",
          "name": "version",
          "type": "uint8"
        }
      ],
      "name": "Initialized",
      "type": "event"
    },
    {
      "anonymous": false,
      "inputs": [
        {
          "indexed": true,
          "internalType": "address",
          "name": "previousOwner",
          "type": "address"
        },
        {
          "indexed": true,
          "internalType": "address",
          "name": "newOwner",
          "type": "address"
        }
      ],
      "name": "OwnershipTransferred",
      "type": "event"
    },
    {
      "anonymous": false,
      "inputs": [
        {
          "indexed": false,
          "internalType": "address",
          "name": "account",
          "type": "address"
        }
      ],
      "name": "Paused",
      "type": "event"
    },
    {
      "anonymous": false,
      "inputs": [
        {
          "indexed": true,
          "internalType": "bytes32",
          "name": "role",
          "type": "bytes32"
        },
        {
          "indexed": true,
          "internalType": "bytes32",
          "name": "previousAdminRole",
          "type": "bytes32"
        },
        {
          "indexed": true,
          "internalType": "bytes32",
          "name": "newAdminRole",
          "type": "bytes32"
        }
      ],
      "name": "RoleAdminChanged",
      "type": "event"
    },
    {
      "anonymous": false,
      "inputs": [
        {
          "indexed": true,
          "internalType": "bytes32",
          "name": "role",
          "type": "bytes32"
        },
        {
          "indexed": true,
          "internalType": "address",
          "name": "account",
          "type": "address"
        },
        {
          "indexed": true,
          "internalType": "address",
          "name": "sender",
          "type": "address"
        }
      ],
      "name": "RoleGranted",
      "type": "event"
    },
    {
      "anonymous": false,
      "inputs": [
        {
          "indexed": true,
          "internalType": "bytes32",
          "name": "role",
          "type": "bytes32"
        },
        {
          "indexed": true,
          "internalType": "address",
          "name": "account",
          "type": "address"
        },
        {
          "indexed": true,
          "internalType": "address",
          "name": "sender",
          "type": "address"
        }
      ],
      "name": "RoleRevoked",
      "type": "event"
    },
    {
      "anonymous": false,
      "inputs": [
        {
          "indexed": false,
          "internalType": "address",
          "name": "account",
          "type": "address"
        }
      ],
      "name": "Unpaused",
      "type": "event"
    },
    {
      "anonymous": false,
      "inputs": [
        {
          "indexed": true,
          "internalType": "address",
          "name": "implementation",
          "type": "address"
        }
      ],
      "name": "Upgraded",
      "type": "event"
    },
    {
      "inputs": [],
      "name": "ADMIN_ROLE",
      "outputs": [
        {
          "internalType": "bytes32",
          "name": "",
          "type": "bytes32"
        }
      ],
      "stateMutability": "view",
      "type": "function"
    },
    {
      "inputs": [],
      "name": "DEFAULT_ADMIN_ROLE",
      "outputs": [
        {
          "internalType": "bytes32",
          "name": "",
          "type": "bytes32"
        }
      ],
      "stateMutability": "view",
      "type": "function"
    },
    {
      "inputs": [],
      "name": "PAUSER_ROLE",
      "outputs": [
        {
          "internalType": "bytes32",
          "name": "",
          "type": "bytes32"
        }
      ],
      "stateMutability": "view",
      "type": "function"
    },
    {
      "inputs": [],
      "name": "SUPER_ADMIN_ROLE",
      "outputs": [
        {
          "internalType": "bytes32",
          "name": "",
          "type": "bytes32"
        }
      ],
      "stateMutability": "view",
      "type": "function"
    },
    {
      "inputs": [],
      "name": "UPGRADER_ROLE",
      "outputs": [
        {
          "internalType": "bytes32",
          "name": "",
          "type": "bytes32"
        }
      ],
      "stateMutability": "view",
      "type": "function"
    },
    {
      "inputs": [
        {
          "internalType": "address",
          "name": "_admin",
          "type": "address"
        }
      ],
      "name": "addAdmin",
      "outputs": [],
      "stateMutability": "nonpayable",
      "type": "function"
    },
    {
      "inputs": [
        {
          "internalType": "address",
          "name": "account",
          "type": "address"
        }
      ],
      "name": "addPauser",
      "outputs": [],
      "stateMutability": "nonpayable",
      "type": "function"
    },
    {
      "inputs": [
        {
          "internalType": "address",
          "name": "_superAdmin",
          "type": "address"
        }
      ],
      "name": "addSuperAdmin",
      "outputs": [],
      "stateMutability": "nonpayable",
      "type": "function"
    },
    {
      "inputs": [
        {
          "internalType": "address",
          "name": "_upgrader",
          "type": "address"
        }
      ],
      "name": "addUpgrader",
      "outputs": [],
      "stateMutability": "nonpayable",
      "type": "function"
    },
    {
      "inputs": [
        {
          "internalType": "uint256",
          "name": "",
          "type": "uint256"
        }
      ],
      "name": "axelarChainName",
      "outputs": [
        {
          "internalType": "string",
          "name": "",
          "type": "string"
        }
      ],
      "stateMutability": "view",
      "type": "function"
    },
    {
      "inputs": [],
      "name": "crossSyncGatewayAddress",
      "outputs": [
        {
          "internalType": "address",
          "name": "",
          "type": "address"
        }
      ],
      "stateMutability": "view",
      "type": "function"
    },
    {
      "inputs": [
        {
          "components": [
            {
              "internalType": "address",
              "name": "sender",
              "type": "address"
            },
            {
              "internalType": "uint256",
              "name": "nonce",
              "type": "uint256"
            },
            {
              "internalType": "uint256",
              "name": "messagingRouteId",
              "type": "uint256"
            },
            {
              "internalType": "uint256",
              "name": "sourceChainId",
              "type": "uint256"
            },
            {
              "internalType": "uint256",
              "name": "destinationChainId",
              "type": "uint256"
            },
            {
              "internalType": "address",
              "name": "sourceGatewayAddress",
              "type": "address"
            },
            {
              "internalType": "address",
              "name": "destinationGatewayAddress",
              "type": "address"
            },
            {
              "components": [
                {
                  "internalType": "address",
                  "name": "to",
                  "type": "address"
                },
                {
                  "internalType": "bytes",
                  "name": "data",
                  "type": "bytes"
                }
              ],
              "internalType": "struct ICrossSyncGateway.MessagingPayload",
              "name": "payload",
              "type": "tuple"
            }
          ],
          "internalType": "struct IMessagingImpl.ICrossSyncMessagingData",
          "name": "_data",
          "type": "tuple"
        }
      ],
      "name": "executeSendMessage",
      "outputs": [
        {
          "internalType": "bytes",
          "name": "",
          "type": "bytes"
        }
      ],
      "stateMutability": "payable",
      "type": "function"
    },
    {
      "inputs": [],
      "name": "gasService",
      "outputs": [
        {
          "internalType": "contract IAxelarGasService",
          "name": "",
          "type": "address"
        }
      ],
      "stateMutability": "view",
      "type": "function"
    },
    {
      "inputs": [],
      "name": "gateway",
      "outputs": [
        {
          "internalType": "contract IAxelarGateway",
          "name": "",
          "type": "address"
        }
      ],
      "stateMutability": "view",
      "type": "function"
    },
    {
      "inputs": [
        {
          "internalType": "bytes32",
          "name": "role",
          "type": "bytes32"
        }
      ],
      "name": "getRoleAdmin",
      "outputs": [
        {
          "internalType": "bytes32",
          "name": "",
          "type": "bytes32"
        }
      ],
      "stateMutability": "view",
      "type": "function"
    },
    {
      "inputs": [],
      "name": "getTrustedForwarder",
      "outputs": [
        {
          "internalType": "address",
          "name": "forwarder",
          "type": "address"
        }
      ],
      "stateMutability": "view",
      "type": "function"
    },
    {
      "inputs": [
        {
          "internalType": "bytes32",
          "name": "role",
          "type": "bytes32"
        },
        {
          "internalType": "address",
          "name": "account",
          "type": "address"
        }
      ],
      "name": "grantRole",
      "outputs": [],
      "stateMutability": "nonpayable",
      "type": "function"
    },
    {
      "inputs": [
        {
          "internalType": "bytes32",
          "name": "role",
          "type": "bytes32"
        },
        {
          "internalType": "address",
          "name": "account",
          "type": "address"
        }
      ],
      "name": "hasRole",
      "outputs": [
        {
          "internalType": "bool",
          "name": "",
          "type": "bool"
        }
      ],
      "stateMutability": "view",
      "type": "function"
    },
    {
      "inputs": [
        {
          "internalType": "address",
          "name": "_crossSyncGatewayAddress",
          "type": "address"
        },
        {
          "internalType": "address",
          "name": "_nativeCurrencyWrappedAddress",
          "type": "address"
        },
        {
          "internalType": "address",
          "name": "_nativeCurrencyAddress",
          "type": "address"
        },
        {
          "internalType": "address",
          "name": "_owner",
          "type": "address"
        },
        {
          "internalType": "address",
          "name": "_axelarGatewayAddress",
          "type": "address"
        },
        {
          "internalType": "address",
          "name": "_axelarGasServiceAddress",
          "type": "address"
        }
      ],
      "name": "initialize",
      "outputs": [],
      "stateMutability": "nonpayable",
      "type": "function"
    },
    {
      "inputs": [
        {
          "internalType": "address",
          "name": "forwarder",
          "type": "address"
        }
      ],
      "name": "isTrustedForwarder",
      "outputs": [
        {
          "internalType": "bool",
          "name": "",
          "type": "bool"
        }
      ],
      "stateMutability": "view",
      "type": "function"
    },
    {
      "inputs": [],
      "name": "nativeCurrencyAddress",
      "outputs": [
        {
          "internalType": "address",
          "name": "",
          "type": "address"
        }
      ],
      "stateMutability": "view",
      "type": "function"
    },
    {
      "inputs": [],
      "name": "nativeCurrencyWrappedAddress",
      "outputs": [
        {
          "internalType": "address",
          "name": "",
          "type": "address"
        }
      ],
      "stateMutability": "view",
      "type": "function"
    },
    {
      "inputs": [],
      "name": "owner",
      "outputs": [
        {
          "internalType": "address",
          "name": "",
          "type": "address"
        }
      ],
      "stateMutability": "view",
      "type": "function"
    },
    {
      "inputs": [],
      "name": "pause",
      "outputs": [],
      "stateMutability": "nonpayable",
      "type": "function"
    },
    {
      "inputs": [],
      "name": "paused",
      "outputs": [
        {
          "internalType": "bool",
          "name": "",
          "type": "bool"
        }
      ],
      "stateMutability": "view",
      "type": "function"
    },
    {
      "inputs": [],
      "name": "proxiableUUID",
      "outputs": [
        {
          "internalType": "bytes32",
          "name": "",
          "type": "bytes32"
        }
      ],
      "stateMutability": "view",
      "type": "function"
    },
    {
      "inputs": [
        {
          "internalType": "address",
          "name": "_admin",
          "type": "address"
        }
      ],
      "name": "removeAdmin",
      "outputs": [],
      "stateMutability": "nonpayable",
      "type": "function"
    },
    {
      "inputs": [
        {
          "internalType": "address",
          "name": "_pauser",
          "type": "address"
        }
      ],
      "name": "removePauser",
      "outputs": [],
      "stateMutability": "nonpayable",
      "type": "function"
    },
    {
      "inputs": [
        {
          "internalType": "address",
          "name": "_superAdmin",
          "type": "address"
        }
      ],
      "name": "removeSuperAdmin",
      "outputs": [],
      "stateMutability": "nonpayable",
      "type": "function"
    },
    {
      "inputs": [
        {
          "internalType": "address",
          "name": "_upgrader",
          "type": "address"
        }
      ],
      "name": "removeUpgrader",
      "outputs": [],
      "stateMutability": "nonpayable",
      "type": "function"
    },
    {
      "inputs": [],
      "name": "renounceOwnership",
      "outputs": [],
      "stateMutability": "nonpayable",
      "type": "function"
    },
    {
      "inputs": [
        {
          "internalType": "bytes32",
          "name": "role",
          "type": "bytes32"
        },
        {
          "internalType": "address",
          "name": "account",
          "type": "address"
        }
      ],
      "name": "renounceRole",
      "outputs": [],
      "stateMutability": "nonpayable",
      "type": "function"
    },
    {
      "inputs": [
        {
          "internalType": "address payable",
          "name": "userAddress",
          "type": "address"
        },
        {
          "internalType": "uint256",
          "name": "amount",
          "type": "uint256"
        }
      ],
      "name": "rescueEther",
      "outputs": [],
      "stateMutability": "nonpayable",
      "type": "function"
    },
    {
      "inputs": [
        {
          "internalType": "address",
          "name": "token",
          "type": "address"
        },
        {
          "internalType": "address",
          "name": "userAddress",
          "type": "address"
        },
        {
          "internalType": "uint256",
          "name": "amount",
          "type": "uint256"
        }
      ],
      "name": "rescueFunds",
      "outputs": [],
      "stateMutability": "nonpayable",
      "type": "function"
    },
    {
      "inputs": [
        {
          "internalType": "bytes32",
          "name": "role",
          "type": "bytes32"
        },
        {
          "internalType": "address",
          "name": "account",
          "type": "address"
        }
      ],
      "name": "revokeRole",
      "outputs": [],
      "stateMutability": "nonpayable",
      "type": "function"
    },
    {
      "inputs": [
        {
          "internalType": "uint256",
          "name": "_chainId",
          "type": "uint256"
        },
        {
          "internalType": "string",
          "name": "_chainName",
          "type": "string"
        }
      ],
      "name": "setAxelarChainName",
      "outputs": [],
      "stateMutability": "nonpayable",
      "type": "function"
    },
    {
      "inputs": [
        {
          "internalType": "contract IAxelarGasService",
          "name": "_gasService",
          "type": "address"
        }
      ],
      "name": "setAxelarGasService",
      "outputs": [],
      "stateMutability": "nonpayable",
      "type": "function"
    },
    {
      "inputs": [
        {
          "internalType": "contract IAxelarGateway",
          "name": "_gateway",
          "type": "address"
        }
      ],
      "name": "setAxelarGateway",
      "outputs": [],
      "stateMutability": "nonpayable",
      "type": "function"
    },
    {
      "inputs": [
        {
          "internalType": "address",
          "name": "_crossSyncGatewayAddress",
          "type": "address"
        }
      ],
      "name": "setCrossSyncGatewayAddress",
      "outputs": [],
      "stateMutability": "nonpayable",
      "type": "function"
    },
    {
      "inputs": [
        {
          "internalType": "address",
          "name": "_nativeCurrencyAddress",
          "type": "address"
        }
      ],
      "name": "setNativeCurrencyAddress",
      "outputs": [],
      "stateMutability": "nonpayable",
      "type": "function"
    },
    {
      "inputs": [
        {
          "internalType": "address",
          "name": "_nativeCurrencyWrappedAddress",
          "type": "address"
        }
      ],
      "name": "setNativeCurrencyWrappedAddress",
      "outputs": [],
      "stateMutability": "nonpayable",
      "type": "function"
    },
    {
      "inputs": [
        {
          "internalType": "address",
          "name": "_newtrustedForwarder",
          "type": "address"
        }
      ],
      "name": "setTrustedForwarder",
      "outputs": [],
      "stateMutability": "nonpayable",
      "type": "function"
    },
    {
      "inputs": [
        {
          "internalType": "bytes4",
          "name": "interfaceId",
          "type": "bytes4"
        }
      ],
      "name": "supportsInterface",
      "outputs": [
        {
          "internalType": "bool",
          "name": "",
          "type": "bool"
        }
      ],
      "stateMutability": "view",
      "type": "function"
    },
    {
      "inputs": [
        {
          "internalType": "address",
          "name": "newOwner",
          "type": "address"
        }
      ],
      "name": "transferOwnership",
      "outputs": [],
      "stateMutability": "nonpayable",
      "type": "function"
    },
    {
      "inputs": [],
      "name": "unpause",
      "outputs": [],
      "stateMutability": "nonpayable",
      "type": "function"
    },
    {
      "inputs": [
        {
          "internalType": "address",
          "name": "newImplementation",
          "type": "address"
        }
      ],
      "name": "upgradeTo",
      "outputs": [],
      "stateMutability": "nonpayable",
      "type": "function"
    },
    {
      "inputs": [
        {
          "internalType": "address",
          "name": "newImplementation",
          "type": "address"
        },
        {
          "internalType": "bytes",
          "name": "data",
          "type": "bytes"
        }
      ],
      "name": "upgradeToAndCall",
      "outputs": [],
      "stateMutability": "payable",
      "type": "function"
    },
    {
      "stateMutability": "payable",
      "type": "receive"
    }
  ],
  "bytecode": "0x60a060405234620000495730608052620000186200004e565b620000226200004e565b6040516131ad9081620000f882396080518181816110f3015281816111f30152611b920152f35b600080fd5b60005460ff8160081c16620000a25760ff808216036200006b5750565b60ff90811916176000557f7f26b83ff96e1f2b6a682f133852f6798a09c465da95921460cefb3847402498602060405160ff8152a1565b60405162461bcd60e51b815260206004820152602760248201527f496e697469616c697a61626c653a20636f6e747261637420697320696e697469604482015266616c697a696e6760c81b6064820152608490fdfe60406080815260049081361015610020575b5050361561001e57600080fd5b005b600091823560e01c9081629fe7521461258257816301ffc9a71461252c57816308dab0a414612367578163116191b61461233d578163146e66b51461225f5781631785f53c1461216d578163197d972e14612120578163214ac8d414612089578163248a9ca31461205e5781632f2ff15d14611fb957816332495ce114611f2057816336568abe14611e845781633659cfe614611b6a57816338073f0c14611b405781633f4ba83a14611a0b5781634460bdd6146119e257816346961bff146115c85781634902e4aa146115645781634b03285a146114cb5781634f1ef286146111a057816352d1902d146110dd578163572b6c05146110a95781635c975abb146110825781636a22d8cc146110585781636b2c0f5514610f5e5781636ccae05414610eb15781637048027514610df9578163715018a614610d9857816375b238fc14610d6f57816382dc1ec414610c715781638456cb5914610b2d5781638da5cb5b14610b0457816391d1485414610abe578163a217fddf14610aa3578163b3292ff014610a3e578163b89b22d714610a14578163bd826ed7146109ea578163cc2a9a5b146106b7578163ce1b815f1461068e578163d264a803146105e6578163d547741f146105a7578163da7422281461051157838263e42e0ea9146104b757508163e51101581461040b578163e63ab1e9146103e2578163f2fde38b1461025a575063f72c0d8b036100115734610256578160031936011261025657602090516000805160206130b88339815191528152f35b5080fd5b919050346103de57602090816003193601126103da5761027861261b565b91610281612b0f565b610289612b0f565b6001600160a01b03928084161561038857806102a76102ac92612b72565b612a0d565b6102b461303b565b9383806102bf61303b565b16951694850361032f57506000805260fb81528160002084600052815260ff8260002054166102ec578480f35b6000805260fb81528160002090846000525260002060ff19815416905561031161303b565b169060006000805160206131388339815191528180a4388080808480f35b915162461bcd60e51b815291820152602f60248201527f416363657373436f6e74726f6c3a2063616e206f6e6c792072656e6f756e636560448201526e103937b632b9903337b91039b2b63360891b6064820152608490fd5b825162461bcd60e51b8152808601839052602660248201527f4f776e61626c653a206e6577206f776e657220697320746865207a65726f206160448201526564647265737360d01b6064820152608490fd5b8380fd5b8280fd5b505034610256578160031936011261025657602090516000805160206130f88339815191528152f35b5050346102565760203660031901126102565761042661261b565b9061042f612b0f565b6000805160206130b8833981519152918260005260fb602052816000209160018060a01b03809216928360005260205260ff81600020541615610470578480f35b8360005260fb6020528060002083600052602052600020600160ff1982541617905561049a61303b565b1691600080516020613098833981519152600080a4388080808480f35b915034610256578260031936011261025657356001600160a01b038116908190036102565781808092602435906104ec612b0f565b828215610508575bf1156104fe575080f35b51903d90823e3d90fd5b506108fc6104f4565b5050346102565760203660031901126102565761052c61261b565b60ff61053661303b565b92600080516020613118833981519152855260fb60205280852060018060a01b038095166000526020526000205416801561058c575b61057590612f99565b166001600160601b0360a01b609754161760975580f35b5061057582603354168361059e61303b565b1614905061056c565b919050346103de57806003193601126103de576105e391356105de60016105cc612631565b9383875260fb60205286200154612798565b612a95565b80f35b5050346102565760203660031901126102565761060161261b565b9061060a612b0f565b6000805160206130b8833981519152918260005260fb602052816000209160018060a01b03809216928360005260205260ff81600020541661064a578480f35b8360005260fb602052806000208360005260205260002060ff19815416905561067161303b565b1691600080516020613138833981519152600080a4388080808480f35b50503461025657816003193601126102565760975490516001600160a01b039091168152602090f35b8383346102565760c0366003190112610256576106d261261b565b6106da612631565b906044356001600160a01b03818116918290036109e55760643591818316948584036109e557608435928084168094036109e55760a435948186168096036109e55789549a60ff8c60081c161598898d819b6109d7575b5080156109b8575b1561095e578b9c8a60019d8e60ff1984161781556107d79260ff9261094d575b5061079982825460081c1661076d81612fdb565b61077681612fdb565b61077f81612fdb565b8360a01b196097541660975561079481612fdb565b612fdb565b6107a96107a461303b565b612b72565b5460081c166107b781612fdb565b6107c081612fdb565b6107c981612fdb565b8d61012d5561079481612fdb565b6107df612b0f565b156108fb5750806102a76107f292612b72565b6000805160206131588339815191528060005260fb60205289896000200154906000805160206131188339815191528092818d8d60002001557fbd79b86ffe0ab8e8776151514217cd7cacd52c909f66475c3af44e129f0b00ff9283600080a46000805160206130f883398151915260008181528b81208d01805490859055929080a46001600160601b0360a01b95816101c39116878254161790556101c49116858254161790556101c590848254161790556101f790838254161790556101f8918254161790556108c2578280f35b825461ff0019168355519081527f7f26b83ff96e1f2b6a682f133852f6798a09c465da95921460cefb384740249890602090a181808280f35b60849060208b519162461bcd60e51b8352820152602660248201527f4f776e61626c653a206e6577206f776e657220697320746865207a65726f206160448201526564647265737360d01b6064820152fd5b61ffff191661010117815538610759565b8a5162461bcd60e51b8152602081840152602e60248201527f496e697469616c697a61626c653a20636f6e747261637420697320616c72656160448201526d191e481a5b9a5d1a585b1a5e995960921b6064820152608490fd5b50303b158d816109c9575b50610739565b6001915060ff16148d6109c3565b6001915060ff16108d610731565b600080fd5b5050346102565781600319360112610256576101c45490516001600160a01b039091168152602090f35b5050346102565781600319360112610256576101c35490516001600160a01b039091168152602090f35b50503461025657602036600319011261025657610a5961261b565b90610a62612b0f565b600080516020613118833981519152918260005260fb602052816000209160018060a01b03809216928360005260205260ff81600020541615610470578480f35b50503461025657816003193601126102565751908152602090f35b9050346103de57816003193601126103de5781602093610adc612631565b9235815260fb8552209060018060a01b0316600052825260ff81600020541690519015158152f35b50503461025657816003193601126102565760335490516001600160a01b039091168152602090f35b838334610256578160031936011261025657610b4761303b565b906000805160206130f8833981519152835260209160fb835281842060018060a01b03809216600052835260ff8260002054168015610c3b575b8015610c20575b610b9190612f99565b6097549460ff8660a01c16610bea575060ff60a01b19909416600160a01b1760975591927f62e78cea01bee320cd4e420270b5ea74000d11b0c9f74754ebdbfc544b05a2589290610be061303b565b915191168152a180f35b825162461bcd60e51b8152908101849052601060248201526f14185d5cd8589b194e881c185d5cd95960821b6044820152606490fd5b50610b91816033541682610c3261303b565b16149050610b88565b50610c4461303b565b600080516020613118833981519152855260fb8452818386209116600052835260ff826000205416610b81565b50503461025657602090816003193601126103de57610c8e61261b565b90610c9761303b565b90600080516020613118833981519152855260fb845280852060018060a01b03809316600052845260ff8160002054168015610d54575b610cd790612f99565b6000805160206130f8833981519152938460005260fb8152828260002094169384600052815260ff82600020541615610d0e578580f35b8460005260fb815281600020908460005252600020600160ff19825416179055610d3661303b565b1691600080516020613098833981519152600080a438808080808580f35b50610cd7826033541683610d6661303b565b16149050610cce565b505034610256578160031936011261025657602090516000805160206131588339815191528152f35b8334610df65780600319360112610df657610db1612b0f565b603380546001600160a01b031981169091556000906001600160a01b03167f8be0079c531659141344cd1fd0a4f28419497f9722a3daafe3b4186f6b6457e08280a380f35b80fd5b50503461025657602090816003193601126103de57610e1661261b565b90610e1f61303b565b90600080516020613118833981519152855260fb845280852060018060a01b03809316600052845260ff8160002054168015610e96575b610e5f90612f99565b600080516020613158833981519152938460005260fb8152828260002094169384600052815260ff82600020541615610d0e578580f35b50610e5f826033541683610ea861303b565b16149050610e56565b919050346103de5760603660031901126103de576020610ecf61261b565b6044610ed9612631565b94610ee2612b0f565b845163a9059cbb60e01b81526001600160a01b03968716918101919091528135602482015294859283918891165af1908115610f555750610f21575080f35b6020813d8211610f4d575b81610f39602093836126a1565b81010312610256575180151503610df65780f35b3d9150610f2c565b513d84823e3d90fd5b50503461025657602090816003193601126103de57610f7b61261b565b90610f8461303b565b90600080516020613118833981519152855260fb845280852060018060a01b03809316600052845260ff816000205416801561103d575b610fc490612f99565b6000805160206130f8833981519152938460005260fb8152828260002094169384600052815260ff826000205416610ffa578580f35b8460005260fb81528160002090846000525260002060ff19815416905561101f61303b565b1691600080516020613138833981519152600080a438808080808580f35b50610fc482603354168361104f61303b565b16149050610fbb565b5050346102565781600319360112610256576101f85490516001600160a01b039091168152602090f35b50503461025657816003193601126102565760209060ff60975460a01c1690519015158152f35b505034610256576020366003190112610256576020906110c761261b565b60018060a01b0380609754169116149051908152f35b90508234610df65780600319360112610df657507f00000000000000000000000000000000000000000000000000000000000000006001600160a01b0316300361113857602082516000805160206130d88339815191528152f35b6020608492519162461bcd60e51b8352820152603860248201527f555550535570677261646561626c653a206d757374206e6f742062652063616c60448201527f6c6564207468726f7567682064656c656761746563616c6c00000000000000006064820152fd5b918091506003193601126103de576111b661261b565b9060243567ffffffffffffffff81116114c757366023820112156114c7576111e790369060248187013591016126df565b6001600160a01b0391907f0000000000000000000000000000000000000000000000000000000000000000831661122030821415612bbb565b61123d6000805160206130d8833981519152918583541614612c1c565b61124561303b565b936000805160206130b8833981519152885260209460fb865281858a209116600052855260ff84600020541680156114ac575b61128190612f99565b7f4910fdfa16fed3260ed0e7147f7cc6da11a60208b5b9406d12a635614ffd91435460ff16156112ba5750505050506105e39150612c7d565b85939495169084516352d1902d60e01b815286818981865afa6000918161147d575b5061133b57855162461bcd60e51b8152808901889052602e60248201527f45524331393637557067726164653a206e657720696d706c656d656e7461746960448201526d6f6e206973206e6f74205555505360901b6064820152608490fd5b9691929594939603611428575061135185612c7d565b7fbc7cd75a20ee27fd9adebab32041f755214dbc6bffa90cc0225b39da2e5c2d3b600080a2825115801590611420575b61138d575b5050505080f35b61140c936000808351956113a087612685565b602787527f416464726573733a206c6f772d6c6576656c2064656c65676174652063616c6c86880152660819985a5b195960ca1b858801528581519101845af4913d15611416573d6113fd6113f4826126c3565b925192836126a1565b8152600081943d92013e612d0d565b5038808080611386565b5060609250612d0d565b506001611381565b825162461bcd60e51b8152908101849052602960248201527f45524331393637557067726164653a20756e737570706f727465642070726f786044820152681a58589b195555525160ba1b6064820152608490fd5b90918882813d83116114a5575b61149481836126a1565b81010312610df657505190386112dc565b503d61148a565b506112818160335416826114be61303b565b16149050611278565b8480fd5b505034610256576020366003190112610256576114e661261b565b9060ff6114f161303b565b91600080516020613118833981519152855260fb60205280852060018060a01b0380941660005260205260002054168015611549575b61153090612f99565b6101c391166001600160601b0360a01b82541617905580f35b5061153081603354168261155b61303b565b16149050611527565b5050346102565760203660031901126102565761157f61261b565b90611588612b0f565b600080516020613118833981519152918260005260fb602052816000209160018060a01b03809216928360005260205260ff81600020541661064a578480f35b828460209260031984813601126103de5767ffffffffffffffff92823584811161025657803603906101009485858401126103da5761012d94600286541461199f576002865561161661303b565b6101c3546001600160a01b039190821690821603611947573415611904578951908b8083015280611648868601612647565b168b8301526024850135606083015260809860448601358a840152606486013560a08401526084860135958660c08501528261168660a48301612647565b1660e085015260c48101978361169b8a612647565b168584015260e48201359060421901811215611900570190610120840152816116c5868301612647565b166101408401526024810135602219823603018112156118fc5701996024858c01359b01908b116118f8578a360381136118f857908a8d928d61016086015289610180918383880152836101a0948592838a01378701015284601f19601f819f011681010390810185520161173a90846126a1565b806101f854168689526101f98093528c89209061175689612e3b565b61175f90612ee4565b9161176861303b565b823b156118f457918f91898d94876117c86117b88d6117a998519a8b998a988998630c93e3bb60e01b8a5230908a015260a060248a015260a4890190612e4f565b91878303016044880152612773565b8d8582030160648601528c612773565b91166084830152039134905af180156118ea576118d7575b506101f754169487528b526117ff6117fa8b882096612e3b565b612ee4565b843b156118d35761183a959361185988969460609461184a8f958a96519b8c9a8b998a98631c92115f60e01b8a528901526064880190612e4f565b9084878303016024880152612773565b91848303016044850152612773565b03925af180156118c9576118b5575b5050600190558251848152606051818601819052909485939260005b8381106118a1575050600084830186015250601f01168101030190f35b818101518882018801528795508201611884565b6118bf829161265b565b610df65780611868565b86513d84823e3d90fd5b8680fd5b6118e39098919861265b565b968d6117e0565b8d513d8b823e3d90fd5b8b80fd5b8780fd5b8880fd5b8980fd5b895162461bcd60e51b81528084018c9052601760248201527f476173207061796d656e742069732072657175697265640000000000000000006044820152606490fd5b895162461bcd60e51b81528084018c9052602c60248201527f4f6e6c792043726f737353796e63476174657761792063616e2063616c6c207460448201526b3434b990333ab731ba34b7b760a11b6064820152608490fd5b885162461bcd60e51b81528083018b9052601f60248201527f5265656e7472616e637947756172643a207265656e7472616e742063616c6c006044820152606490fd5b505034610256578160031936011261025657602090516000805160206131188339815191528152f35b838334610256578160031936011261025657611a2561303b565b6000805160206130f8833981519152835260fb60209081528284206001600160a01b0392831685528152828420549092919060ff168015611b0c575b8015611af1575b611a7190612f99565b6097549460ff8660a01c1615611ab757507f5db9ee0a495bf2e6ff9c91a7834c1ba4fdd244a5e8aa4e537bd38aeae4b073aa939460ff60a01b1916609755610be061303b565b825162461bcd60e51b8152908101849052601460248201527314185d5cd8589b194e881b9bdd081c185d5cd95960621b6044820152606490fd5b50611a71816033541682611b0361303b565b16149050611a68565b50611b1561303b565b600080516020613118833981519152855260fb84528183862091168552835260ff8285205416611a61565b5050346102565781600319360112610256576101c55490516001600160a01b039091168152602090f35b919050346103de576020806003193601126103da57611b8761261b565b916001600160a01b037f00000000000000000000000000000000000000000000000000000000000000008116611bbf30821415612bbb565b611bdc6000805160206130d8833981519152918383541614612c1c565b611be461303b565b6000805160206130b8833981519152885260fb85528284892091168852845260ff83882054168015611e69575b611c1a90612f99565b8251908482019282841067ffffffffffffffff851117611e56578385528883527f4910fdfa16fed3260ed0e7147f7cc6da11a60208b5b9406d12a635614ffd91435460ff1615611c74575050505050506105e39150612c7d565b869293949596169085516352d1902d60e01b815287818a81865afa8a9181611e23575b50611cf657865162461bcd60e51b8152808a01899052602e60248201527f45524331393637557067726164653a206e657720696d706c656d656e7461746960448201526d6f6e206973206e6f74205555505360901b6064820152608490fd5b979192939695949703611dce5750611d0d82612c7d565b7fbc7cd75a20ee27fd9adebab32041f755214dbc6bffa90cc0225b39da2e5c2d3b8780a285845115801590611dc7575b611d4b575b50505050505080f35b80611dbb96845196611d5c88612685565b602788527f416464726573733a206c6f772d6c6576656c2064656c65676174652063616c6c87890152660819985a5b195960ca1b868901525190845af4913d15611416573d611dad6113f4826126c3565b81528681943d92013e612d0d565b50388080808085611d42565b5080611d3d565b835162461bcd60e51b8152908101859052602960248201527f45524331393637557067726164653a20756e737570706f727465642070726f786044820152681a58589b195555525160ba1b6064820152608490fd5b9091508881813d8311611e4f575b611e3b81836126a1565b81010312611e4b57519038611c97565b8a80fd5b503d611e31565b634e487b7160e01b895260418852602489fd5b50611c1a826033541683611e7b61303b565b16149050611c11565b83915034610256578260031936011261025657611e9f612631565b906001600160a01b0380611eb161303b565b1690831603611ec557906105e39135612a95565b608490602085519162461bcd60e51b8352820152602f60248201527f416363657373436f6e74726f6c3a2063616e206f6e6c792072656e6f756e636560448201526e103937b632b9903337b91039b2b63360891b6064820152fd5b50503461025657602036600319011261025657611f3b61261b565b9060ff611f4661303b565b600080516020613118833981519152855260fb60209081528386206001600160a01b039283168752905291842054168015611f9e575b611f8590612f99565b6101c591166001600160601b0360a01b82541617905580f35b50611f85816033541682611fb061303b565b16149050611f7c565b9050346103de57816003193601126103de573590611fd5612631565b82845260fb602052611fec60018386200154612798565b82845260fb60209081528285206001600160a01b0392831680875291528285205490929060ff161561201c578480f35b83855260fb6020528085208386526020528420600160ff1982541617905561204261303b565b16916000805160206130988339815191528480a4388080808480f35b9050346103de5760203660031901126103de578160209360019235815260fb85522001549051908152f35b9050346103de5760203660031901126103de57356001600160a01b0381811692918390036103da5760ff6120f2926120bf61303b565b600080516020613118833981519152875260fb602052838288209116875260205285205416908115612109575b50612f99565b6101f780546001600160a01b031916909117905580f35b6033548116915061211861303b565b1614386120ec565b9050346103de5760203660031901126103de57356001600160a01b0381811692918390036103da5760ff612156926120bf61303b565b6101f880546001600160a01b031916909117905580f35b50503461025657602090816003193601126103de5761218a61261b565b9061219361303b565b600080516020613118833981519152855260fb84528185206001600160a01b03918216865284528185205490919060ff168015612244575b6121d490612f99565b6000805160206131588339815191529384865260fb815282828720941693848752815260ff8287205416612206578580f35b84865260fb815281862084875290528420805460ff1916905561222761303b565b16916000805160206131388339815191528480a438808080808580f35b506121d482603354168361225661303b565b161490506121cb565b919050346103de57602091826003193601126103da573583526101f9825280832081519384918181549061229282612716565b928386526001928884821691826000146123135750506001146122d5575b85886122d1896122c2848a03856126a1565b51928284938452830190612773565b0390f35b87945081939291528383205b8284106122fb57505050820101816122c26122d1386122b0565b8054848a0186015288955087949093019281016122e1565b60ff19168882015294151560051b870190940194508593506122c292506122d191503890506122b0565b5050346102565781600319360112610256576101f75490516001600160a01b039091168152602090f35b8391503461025657826003193601126102565767ffffffffffffffff6024358181116103da57366023820112156103da576123ab90369060248186013591016126df565b936123b461303b565b600080516020613118833981519152855260fb60209081528286206001600160a01b0392831687528152828620549092916123f99160ff169081156125155750612f99565b833585526101f98252842092855192831161250257506124198354612716565b601f81116124bf575b5080601f831160011461245d5750839482939492612452575b50508160011b916000199060031b1c191617905580f35b01519050848061243b565b90601f198316958486528286209286905b8882106124a75750508360019596971061248e575b505050811b01905580f35b015160001960f88460031b161c19169055848080612483565b8060018596829496860151815501950193019061246e565b838552818520601f840160051c8101918385106124f8575b601f0160051c01905b8181106124ed5750612422565b8581556001016124e0565b90915081906124d7565b634e487b7160e01b855260419052602484fd5b6033548116915061252461303b565b1614886120ec565b9050346103de5760203660031901126103de57359063ffffffff60e01b82168092036103de5760209250637965db0b60e01b8214918215612571575b50519015158152f35b6301ffc9a760e01b14915038612568565b5050346102565760203660031901126102565761259d61261b565b9060ff6125a861303b565b600080516020613118833981519152855260fb60209081528386206001600160a01b039283168752905291842054168015612600575b6125e790612f99565b6101c491166001600160601b0360a01b82541617905580f35b506125e781603354168261261261303b565b161490506125de565b600435906001600160a01b03821682036109e557565b602435906001600160a01b03821682036109e557565b35906001600160a01b03821682036109e557565b67ffffffffffffffff811161266f57604052565b634e487b7160e01b600052604160045260246000fd5b6060810190811067ffffffffffffffff82111761266f57604052565b90601f8019910116810190811067ffffffffffffffff82111761266f57604052565b67ffffffffffffffff811161266f57601f01601f191660200190565b9291926126eb826126c3565b916126f960405193846126a1565b8294818452818301116109e5578281602093846000960137010152565b90600182811c92168015612746575b602083101461273057565b634e487b7160e01b600052602260045260246000fd5b91607f1691612725565b60005b8381106127635750506000910152565b8181015183820152602001612753565b9060209161278c81518092818552858086019101612750565b601f01601f1916010190565b6127a061303b565b9060009080825260209160fb83526040938482209060018060a01b031690818352845260ff8583205416156127d6575050505050565b908451926127e384612685565b602a845284840190863683378451156129f9576030825384519360019485101561296757607860218701536029905b8582116129a357612824915015612df0565b8651926080840184811067ffffffffffffffff82111761298f5788526042845286840194606036873784511561297b5760308653845181101561297b5790607860218601536041915b808311612921576128c98961291d8c61290160488d8d8d6128f28e6128928f15612df0565b87519a8b957f416363657373436f6e74726f6c3a206163636f756e74200000000000000000008c8801525180926037880190612750565b8401917001034b99036b4b9b9b4b733903937b6329607d1b603784015251809386840190612750565b010360288101875201856126a1565b5192839262461bcd60e51b845260048401526024830190612773565b0390fd5b909192600f811660108110156129675761296091906f181899199a1a9b1b9c1cb0b131b232b360811b901a6129568689612da6565b5360041c93612dcd565b919061286d565b634e487b7160e01b84526032600452602484fd5b634e487b7160e01b82526032600452602482fd5b634e487b7160e01b82526041600452602482fd5b600f811660108110156129e5576129df91906f181899199a1a9b1b9c1cb0b131b232b360811b901a6129d5848a612da6565b5360041c91612dcd565b90612812565b634e487b7160e01b86526032600452602486fd5b634e487b7160e01b83526032600452602483fd5b6001600160a01b0390811660008181527fc88390e7e62175be0932452175b6a7222b6b094ab0ef984a5153c620345d8975602052604081205490929060ff1615612a5657505050565b82805260fb6020526040832082845260205260408320600160ff19825416179055612a7f61303b565b16916000805160206130988339815191528180a4565b600081815260fb602090815260408083206001600160a01b039586168085529252822054919390929160ff16612acc575b50505050565b6000805160206131388339815191529082855260fb602052604085208486526020526040852060ff198154169055612b0261303b565b169380a438808080612ac6565b6033546001600160a01b0390811690612b2661303b565b1603612b2e57565b606460405162461bcd60e51b815260206004820152602060248201527f4f776e61626c653a2063616c6c6572206973206e6f7420746865206f776e65726044820152fd5b603380546001600160a01b039283166001600160a01b0319821681179092559091167f8be0079c531659141344cd1fd0a4f28419497f9722a3daafe3b4186f6b6457e0600080a3565b15612bc257565b60405162461bcd60e51b815260206004820152602c60248201527f46756e6374696f6e206d7573742062652063616c6c6564207468726f7567682060448201526b19195b1959d85d1958d85b1b60a21b6064820152608490fd5b15612c2357565b60405162461bcd60e51b815260206004820152602c60248201527f46756e6374696f6e206d7573742062652063616c6c6564207468726f7567682060448201526b6163746976652070726f787960a01b6064820152608490fd5b803b15612cb2576000805160206130d883398151915280546001600160a01b0319166001600160a01b03909216919091179055565b60405162461bcd60e51b815260206004820152602d60248201527f455243313936373a206e657720696d706c656d656e746174696f6e206973206e60448201526c1bdd08184818dbdb9d1c9858dd609a1b6064820152608490fd5b91929015612d6f5750815115612d21575090565b3b15612d2a5790565b60405162461bcd60e51b815260206004820152601d60248201527f416464726573733a2063616c6c20746f206e6f6e2d636f6e74726163740000006044820152606490fd5b825190915015612d825750805190602001fd5b60405162461bcd60e51b81526020600482015290819061291d906024830190612773565b908151811015612db7570160200190565b634e487b7160e01b600052603260045260246000fd5b8015612dda576000190190565b634e487b7160e01b600052601160045260246000fd5b15612df757565b606460405162461bcd60e51b815260206004820152602060248201527f537472696e67733a20686578206c656e67746820696e73756666696369656e746044820152fd5b356001600160a01b03811681036109e55790565b9060009291805491612e6083612716565b918282526001938481169081600014612ec15750600114612e815750505050565b90919394506000526020928360002092846000945b838610612ead575050505001019038808080612ac6565b805485870183015294019385908201612e96565b9294505050602093945060ff191683830152151560051b01019038808080612ac6565b604051906001600160a01b0316612efa82612685565b602a8252602082016040368237825115612db757603090538151600190811015612db75790607860218401536029915b808311612f405750612f3d915015612df0565b90565b90600f8116906010821015612f8457612f7d916f181899199a1a9b1b9c1cb0b131b232b360811b901a612f738587612da6565b5360041c92612dcd565b9190612f2a565b60246000634e487b7160e01b81526032600452fd5b15612fa057565b60405162461bcd60e51b8152602060048201526013602482015272556e617574686f72697a65642041636365737360681b6044820152606490fd5b15612fe257565b60405162461bcd60e51b815260206004820152602b60248201527f496e697469616c697a61626c653a20636f6e7472616374206973206e6f74206960448201526a6e697469616c697a696e6760a81b6064820152608490fd5b6097546001600160a01b03163314808061308c575b15613062575036601319013560601c90565b60143610159081613084575b50156130805736601319013560601c90565b3390565b90503861306e565b50601436101561305056fe2f8788117e7eff1d82e926ec794901d17c78024a50270940304540a733656f0d189ab7a9244df0848122154315af71fe140f3db0fe014031783b0946b8c9d2e3360894a13ba1a3210667c828492db98dca3e2076cc3735a920a3ca505d382bbc65d7a28e3265b37a6474929f336521b332c1681b933f6cb9f3376673440d862a7613a25ecc738585a232ad50a301178f12b3ba8887d13e138b523c4269c47689f6391f5c32d9c69d2a47ea670b442974b53935d1edc7fd64eb21e047a839171ba49807205ce4d355092ef5a8a18f56e8913cf4a201fbe287825b095693c21775a2646970667358221220b650cce4ad3ae0f98ca8bf64ced620f59be2b266ccf9576c446e4fc08ab48f0164736f6c63430008110033",
  "linkReferences": {},
  "deployedLinkReferences": {}
}