{
  "_format": "hh-sol-artifact-1",
  "contractName": "AxelarImpl",
  "sourceName": "contracts/MessagingImpls/AxelarImpl.sol",
  "abi": [
    {
      "inputs": [],
      "stateMutability": "nonpayable",
      "type": "constructor"
    },
    {
      "anonymous": false,
      "inputs": [
        {
          "indexed": false,
          "internalType": "address",
          "name": "previousAdmin",
          "type": "address"
        },
        {
          "indexed": false,
          "internalType": "address",
          "name": "newAdmin",
          "type": "address"
        }
      ],
      "name": "AdminChanged",
      "type": "event"
    },
    {
      "anonymous": false,
      "inputs": [
        {
          "indexed": true,
          "internalType": "address",
          "name": "beacon",
          "type": "address"
        }
      ],
      "name": "BeaconUpgraded",
      "type": "event"
    },
    {
      "anonymous": false,
      "inputs": [
        {
          "indexed": false,
          "internalType": "uint8",
          "name": "version",
          "type": "uint8"
        }
      ],
      "name": "Initialized",
      "type": "event"
    },
    {
      "anonymous": false,
      "inputs": [
        {
          "indexed": true,
          "internalType": "address",
          "name": "previousOwner",
          "type": "address"
        },
        {
          "indexed": true,
          "internalType": "address",
          "name": "newOwner",
          "type": "address"
        }
      ],
      "name": "OwnershipTransferred",
      "type": "event"
    },
    {
      "anonymous": false,
      "inputs": [
        {
          "indexed": false,
          "internalType": "address",
          "name": "account",
          "type": "address"
        }
      ],
      "name": "Paused",
      "type": "event"
    },
    {
      "anonymous": false,
      "inputs": [
        {
          "indexed": true,
          "internalType": "bytes32",
          "name": "role",
          "type": "bytes32"
        },
        {
          "indexed": true,
          "internalType": "bytes32",
          "name": "previousAdminRole",
          "type": "bytes32"
        },
        {
          "indexed": true,
          "internalType": "bytes32",
          "name": "newAdminRole",
          "type": "bytes32"
        }
      ],
      "name": "RoleAdminChanged",
      "type": "event"
    },
    {
      "anonymous": false,
      "inputs": [
        {
          "indexed": true,
          "internalType": "bytes32",
          "name": "role",
          "type": "bytes32"
        },
        {
          "indexed": true,
          "internalType": "address",
          "name": "account",
          "type": "address"
        },
        {
          "indexed": true,
          "internalType": "address",
          "name": "sender",
          "type": "address"
        }
      ],
      "name": "RoleGranted",
      "type": "event"
    },
    {
      "anonymous": false,
      "inputs": [
        {
          "indexed": true,
          "internalType": "bytes32",
          "name": "role",
          "type": "bytes32"
        },
        {
          "indexed": true,
          "internalType": "address",
          "name": "account",
          "type": "address"
        },
        {
          "indexed": true,
          "internalType": "address",
          "name": "sender",
          "type": "address"
        }
      ],
      "name": "RoleRevoked",
      "type": "event"
    },
    {
      "anonymous": false,
      "inputs": [
        {
          "indexed": false,
          "internalType": "address",
          "name": "account",
          "type": "address"
        }
      ],
      "name": "Unpaused",
      "type": "event"
    },
    {
      "anonymous": false,
      "inputs": [
        {
          "indexed": true,
          "internalType": "address",
          "name": "implementation",
          "type": "address"
        }
      ],
      "name": "Upgraded",
      "type": "event"
    },
    {
      "inputs": [],
      "name": "ADMIN_ROLE",
      "outputs": [
        {
          "internalType": "bytes32",
          "name": "",
          "type": "bytes32"
        }
      ],
      "stateMutability": "view",
      "type": "function"
    },
    {
      "inputs": [],
      "name": "DEFAULT_ADMIN_ROLE",
      "outputs": [
        {
          "internalType": "bytes32",
          "name": "",
          "type": "bytes32"
        }
      ],
      "stateMutability": "view",
      "type": "function"
    },
    {
      "inputs": [],
      "name": "PAUSER_ROLE",
      "outputs": [
        {
          "internalType": "bytes32",
          "name": "",
          "type": "bytes32"
        }
      ],
      "stateMutability": "view",
      "type": "function"
    },
    {
      "inputs": [],
      "name": "SUPER_ADMIN_ROLE",
      "outputs": [
        {
          "internalType": "bytes32",
          "name": "",
          "type": "bytes32"
        }
      ],
      "stateMutability": "view",
      "type": "function"
    },
    {
      "inputs": [],
      "name": "UPGRADER_ROLE",
      "outputs": [
        {
          "internalType": "bytes32",
          "name": "",
          "type": "bytes32"
        }
      ],
      "stateMutability": "view",
      "type": "function"
    },
    {
      "inputs": [
        {
          "internalType": "address",
          "name": "_admin",
          "type": "address"
        }
      ],
      "name": "addAdmin",
      "outputs": [],
      "stateMutability": "nonpayable",
      "type": "function"
    },
    {
      "inputs": [
        {
          "internalType": "address",
          "name": "account",
          "type": "address"
        }
      ],
      "name": "addPauser",
      "outputs": [],
      "stateMutability": "nonpayable",
      "type": "function"
    },
    {
      "inputs": [
        {
          "internalType": "address",
          "name": "_superAdmin",
          "type": "address"
        }
      ],
      "name": "addSuperAdmin",
      "outputs": [],
      "stateMutability": "nonpayable",
      "type": "function"
    },
    {
      "inputs": [
        {
          "internalType": "address",
          "name": "_upgrader",
          "type": "address"
        }
      ],
      "name": "addUpgrader",
      "outputs": [],
      "stateMutability": "nonpayable",
      "type": "function"
    },
    {
      "inputs": [
        {
          "internalType": "uint256",
          "name": "",
          "type": "uint256"
        }
      ],
      "name": "axelarChainImplAddress",
      "outputs": [
        {
          "internalType": "address",
          "name": "",
          "type": "address"
        }
      ],
      "stateMutability": "view",
      "type": "function"
    },
    {
      "inputs": [
        {
          "internalType": "uint256",
          "name": "",
          "type": "uint256"
        }
      ],
      "name": "axelarChainName",
      "outputs": [
        {
          "internalType": "string",
          "name": "",
          "type": "string"
        }
      ],
      "stateMutability": "view",
      "type": "function"
    },
    {
      "inputs": [
        {
          "internalType": "string",
          "name": "",
          "type": "string"
        }
      ],
      "name": "axelarChainNameToChainId",
      "outputs": [
        {
          "internalType": "uint256",
          "name": "",
          "type": "uint256"
        }
      ],
      "stateMutability": "view",
      "type": "function"
    },
    {
      "inputs": [],
      "name": "crossSyncGatewayAddress",
      "outputs": [
        {
          "internalType": "address",
          "name": "",
          "type": "address"
        }
      ],
      "stateMutability": "view",
      "type": "function"
    },
    {
      "inputs": [],
      "name": "defaultGasLimit",
      "outputs": [
        {
          "internalType": "uint256",
          "name": "",
          "type": "uint256"
        }
      ],
      "stateMutability": "view",
      "type": "function"
    },
    {
      "inputs": [
        {
          "internalType": "bytes32",
          "name": "commandId",
          "type": "bytes32"
        },
        {
          "internalType": "string",
          "name": "sourceChain",
          "type": "string"
        },
        {
          "internalType": "string",
          "name": "sourceAddress",
          "type": "string"
        },
        {
          "internalType": "bytes",
          "name": "payload",
          "type": "bytes"
        }
      ],
      "name": "execute",
      "outputs": [],
      "stateMutability": "nonpayable",
      "type": "function"
    },
    {
      "inputs": [
        {
          "components": [
            {
              "internalType": "address",
              "name": "sender",
              "type": "address"
            },
            {
              "internalType": "uint256",
              "name": "nonce",
              "type": "uint256"
            },
            {
              "internalType": "uint256",
              "name": "messagingRouteId",
              "type": "uint256"
            },
            {
              "internalType": "uint256",
              "name": "sourceChainId",
              "type": "uint256"
            },
            {
              "internalType": "uint256",
              "name": "destinationChainId",
              "type": "uint256"
            },
            {
              "internalType": "address",
              "name": "sourceGatewayAddress",
              "type": "address"
            },
            {
              "internalType": "address",
              "name": "destinationGatewayAddress",
              "type": "address"
            },
            {
              "components": [
                {
                  "internalType": "address",
                  "name": "to",
                  "type": "address"
                },
                {
                  "internalType": "bytes",
                  "name": "data",
                  "type": "bytes"
                }
              ],
              "internalType": "struct ICrossSyncGateway.MessagingPayload",
              "name": "payload",
              "type": "tuple"
            }
          ],
          "internalType": "struct IMessagingImpl.ICrossSyncMessagingData",
          "name": "_data",
          "type": "tuple"
        },
        {
          "internalType": "uint256",
          "name": "_gasLimit",
          "type": "uint256"
        }
      ],
      "name": "executeSendMessage",
      "outputs": [
        {
          "internalType": "bytes",
          "name": "",
          "type": "bytes"
        }
      ],
      "stateMutability": "payable",
      "type": "function"
    },
    {
      "inputs": [],
      "name": "gasService",
      "outputs": [
        {
          "internalType": "contract IAxelarGasService",
          "name": "",
          "type": "address"
        }
      ],
      "stateMutability": "view",
      "type": "function"
    },
    {
      "inputs": [],
      "name": "gateway",
      "outputs": [
        {
          "internalType": "contract IAxelarGateway",
          "name": "",
          "type": "address"
        }
      ],
      "stateMutability": "view",
      "type": "function"
    },
    {
      "inputs": [
        {
          "components": [
            {
              "internalType": "address",
              "name": "sender",
              "type": "address"
            },
            {
              "internalType": "uint256",
              "name": "nonce",
              "type": "uint256"
            },
            {
              "internalType": "uint256",
              "name": "messagingRouteId",
              "type": "uint256"
            },
            {
              "internalType": "uint256",
              "name": "sourceChainId",
              "type": "uint256"
            },
            {
              "internalType": "uint256",
              "name": "destinationChainId",
              "type": "uint256"
            },
            {
              "internalType": "address",
              "name": "sourceGatewayAddress",
              "type": "address"
            },
            {
              "internalType": "address",
              "name": "destinationGatewayAddress",
              "type": "address"
            },
            {
              "components": [
                {
                  "internalType": "address",
                  "name": "to",
                  "type": "address"
                },
                {
                  "internalType": "bytes",
                  "name": "data",
                  "type": "bytes"
                }
              ],
              "internalType": "struct ICrossSyncGateway.MessagingPayload",
              "name": "payload",
              "type": "tuple"
            }
          ],
          "internalType": "struct IMessagingImpl.ICrossSyncMessagingData",
          "name": "_data",
          "type": "tuple"
        },
        {
          "internalType": "uint256",
          "name": "_gasLimit",
          "type": "uint256"
        }
      ],
      "name": "getFee",
      "outputs": [
        {
          "internalType": "uint256",
          "name": "",
          "type": "uint256"
        }
      ],
      "stateMutability": "view",
      "type": "function"
    },
    {
      "inputs": [
        {
          "internalType": "bytes32",
          "name": "role",
          "type": "bytes32"
        }
      ],
      "name": "getRoleAdmin",
      "outputs": [
        {
          "internalType": "bytes32",
          "name": "",
          "type": "bytes32"
        }
      ],
      "stateMutability": "view",
      "type": "function"
    },
    {
      "inputs": [],
      "name": "getTrustedForwarder",
      "outputs": [
        {
          "internalType": "address",
          "name": "forwarder",
          "type": "address"
        }
      ],
      "stateMutability": "view",
      "type": "function"
    },
    {
      "inputs": [
        {
          "internalType": "bytes32",
          "name": "role",
          "type": "bytes32"
        },
        {
          "internalType": "address",
          "name": "account",
          "type": "address"
        }
      ],
      "name": "grantRole",
      "outputs": [],
      "stateMutability": "nonpayable",
      "type": "function"
    },
    {
      "inputs": [
        {
          "internalType": "bytes32",
          "name": "role",
          "type": "bytes32"
        },
        {
          "internalType": "address",
          "name": "account",
          "type": "address"
        }
      ],
      "name": "hasRole",
      "outputs": [
        {
          "internalType": "bool",
          "name": "",
          "type": "bool"
        }
      ],
      "stateMutability": "view",
      "type": "function"
    },
    {
      "inputs": [
        {
          "internalType": "address",
          "name": "_crossSyncGatewayAddress",
          "type": "address"
        },
        {
          "internalType": "address",
          "name": "_nativeCurrencyWrappedAddress",
          "type": "address"
        },
        {
          "internalType": "address",
          "name": "_nativeCurrencyAddress",
          "type": "address"
        },
        {
          "internalType": "address",
          "name": "_owner",
          "type": "address"
        },
        {
          "internalType": "address",
          "name": "_axelarGatewayAddress",
          "type": "address"
        },
        {
          "internalType": "address",
          "name": "_axelarGasServiceAddress",
          "type": "address"
        }
      ],
      "name": "initialize",
      "outputs": [],
      "stateMutability": "nonpayable",
      "type": "function"
    },
    {
      "inputs": [
        {
          "internalType": "address",
          "name": "forwarder",
          "type": "address"
        }
      ],
      "name": "isTrustedForwarder",
      "outputs": [
        {
          "internalType": "bool",
          "name": "",
          "type": "bool"
        }
      ],
      "stateMutability": "view",
      "type": "function"
    },
    {
      "inputs": [],
      "name": "nativeCurrencyAddress",
      "outputs": [
        {
          "internalType": "address",
          "name": "",
          "type": "address"
        }
      ],
      "stateMutability": "view",
      "type": "function"
    },
    {
      "inputs": [],
      "name": "nativeCurrencyWrappedAddress",
      "outputs": [
        {
          "internalType": "address",
          "name": "",
          "type": "address"
        }
      ],
      "stateMutability": "view",
      "type": "function"
    },
    {
      "inputs": [],
      "name": "owner",
      "outputs": [
        {
          "internalType": "address",
          "name": "",
          "type": "address"
        }
      ],
      "stateMutability": "view",
      "type": "function"
    },
    {
      "inputs": [],
      "name": "pause",
      "outputs": [],
      "stateMutability": "nonpayable",
      "type": "function"
    },
    {
      "inputs": [],
      "name": "paused",
      "outputs": [
        {
          "internalType": "bool",
          "name": "",
          "type": "bool"
        }
      ],
      "stateMutability": "view",
      "type": "function"
    },
    {
      "inputs": [],
      "name": "proxiableUUID",
      "outputs": [
        {
          "internalType": "bytes32",
          "name": "",
          "type": "bytes32"
        }
      ],
      "stateMutability": "view",
      "type": "function"
    },
    {
      "inputs": [
        {
          "internalType": "address",
          "name": "_admin",
          "type": "address"
        }
      ],
      "name": "removeAdmin",
      "outputs": [],
      "stateMutability": "nonpayable",
      "type": "function"
    },
    {
      "inputs": [
        {
          "internalType": "address",
          "name": "_pauser",
          "type": "address"
        }
      ],
      "name": "removePauser",
      "outputs": [],
      "stateMutability": "nonpayable",
      "type": "function"
    },
    {
      "inputs": [
        {
          "internalType": "address",
          "name": "_superAdmin",
          "type": "address"
        }
      ],
      "name": "removeSuperAdmin",
      "outputs": [],
      "stateMutability": "nonpayable",
      "type": "function"
    },
    {
      "inputs": [
        {
          "internalType": "address",
          "name": "_upgrader",
          "type": "address"
        }
      ],
      "name": "removeUpgrader",
      "outputs": [],
      "stateMutability": "nonpayable",
      "type": "function"
    },
    {
      "inputs": [],
      "name": "renounceOwnership",
      "outputs": [],
      "stateMutability": "nonpayable",
      "type": "function"
    },
    {
      "inputs": [
        {
          "internalType": "bytes32",
          "name": "role",
          "type": "bytes32"
        },
        {
          "internalType": "address",
          "name": "account",
          "type": "address"
        }
      ],
      "name": "renounceRole",
      "outputs": [],
      "stateMutability": "nonpayable",
      "type": "function"
    },
    {
      "inputs": [
        {
          "internalType": "address payable",
          "name": "userAddress",
          "type": "address"
        },
        {
          "internalType": "uint256",
          "name": "amount",
          "type": "uint256"
        }
      ],
      "name": "rescueEther",
      "outputs": [],
      "stateMutability": "nonpayable",
      "type": "function"
    },
    {
      "inputs": [
        {
          "internalType": "address",
          "name": "token",
          "type": "address"
        },
        {
          "internalType": "address",
          "name": "userAddress",
          "type": "address"
        },
        {
          "internalType": "uint256",
          "name": "amount",
          "type": "uint256"
        }
      ],
      "name": "rescueFunds",
      "outputs": [],
      "stateMutability": "nonpayable",
      "type": "function"
    },
    {
      "inputs": [
        {
          "internalType": "bytes32",
          "name": "role",
          "type": "bytes32"
        },
        {
          "internalType": "address",
          "name": "account",
          "type": "address"
        }
      ],
      "name": "revokeRole",
      "outputs": [],
      "stateMutability": "nonpayable",
      "type": "function"
    },
    {
      "inputs": [
        {
          "internalType": "uint256",
          "name": "_chainId",
          "type": "uint256"
        },
        {
          "internalType": "address",
          "name": "_implAddress",
          "type": "address"
        }
      ],
      "name": "setAxelarChainImplAddress",
      "outputs": [],
      "stateMutability": "nonpayable",
      "type": "function"
    },
    {
      "inputs": [
        {
          "internalType": "uint256",
          "name": "_chainId",
          "type": "uint256"
        },
        {
          "internalType": "string",
          "name": "_chainName",
          "type": "string"
        }
      ],
      "name": "setAxelarChainName",
      "outputs": [],
      "stateMutability": "nonpayable",
      "type": "function"
    },
    {
      "inputs": [
        {
          "internalType": "contract IAxelarGasService",
          "name": "_gasService",
          "type": "address"
        }
      ],
      "name": "setAxelarGasService",
      "outputs": [],
      "stateMutability": "nonpayable",
      "type": "function"
    },
    {
      "inputs": [
        {
          "internalType": "contract IAxelarGateway",
          "name": "_gateway",
          "type": "address"
        }
      ],
      "name": "setAxelarGateway",
      "outputs": [],
      "stateMutability": "nonpayable",
      "type": "function"
    },
    {
      "inputs": [
        {
          "internalType": "address",
          "name": "_crossSyncGatewayAddress",
          "type": "address"
        }
      ],
      "name": "setCrossSyncGatewayAddress",
      "outputs": [],
      "stateMutability": "nonpayable",
      "type": "function"
    },
    {
      "inputs": [
        {
          "internalType": "uint256",
          "name": "_defaultGasLimit",
          "type": "uint256"
        }
      ],
      "name": "setDefaultGasLimit",
      "outputs": [],
      "stateMutability": "nonpayable",
      "type": "function"
    },
    {
      "inputs": [
        {
          "internalType": "address",
          "name": "_nativeCurrencyAddress",
          "type": "address"
        }
      ],
      "name": "setNativeCurrencyAddress",
      "outputs": [],
      "stateMutability": "nonpayable",
      "type": "function"
    },
    {
      "inputs": [
        {
          "internalType": "address",
          "name": "_nativeCurrencyWrappedAddress",
          "type": "address"
        }
      ],
      "name": "setNativeCurrencyWrappedAddress",
      "outputs": [],
      "stateMutability": "nonpayable",
      "type": "function"
    },
    {
      "inputs": [
        {
          "internalType": "address",
          "name": "_newtrustedForwarder",
          "type": "address"
        }
      ],
      "name": "setTrustedForwarder",
      "outputs": [],
      "stateMutability": "nonpayable",
      "type": "function"
    },
    {
      "inputs": [
        {
          "internalType": "bytes4",
          "name": "interfaceId",
          "type": "bytes4"
        }
      ],
      "name": "supportsInterface",
      "outputs": [
        {
          "internalType": "bool",
          "name": "",
          "type": "bool"
        }
      ],
      "stateMutability": "view",
      "type": "function"
    },
    {
      "inputs": [
        {
          "internalType": "address",
          "name": "newOwner",
          "type": "address"
        }
      ],
      "name": "transferOwnership",
      "outputs": [],
      "stateMutability": "nonpayable",
      "type": "function"
    },
    {
      "inputs": [],
      "name": "unpause",
      "outputs": [],
      "stateMutability": "nonpayable",
      "type": "function"
    },
    {
      "inputs": [
        {
          "internalType": "address",
          "name": "newImplementation",
          "type": "address"
        }
      ],
      "name": "upgradeTo",
      "outputs": [],
      "stateMutability": "nonpayable",
      "type": "function"
    },
    {
      "inputs": [
        {
          "internalType": "address",
          "name": "newImplementation",
          "type": "address"
        },
        {
          "internalType": "bytes",
          "name": "data",
          "type": "bytes"
        }
      ],
      "name": "upgradeToAndCall",
      "outputs": [],
      "stateMutability": "payable",
      "type": "function"
    },
    {
      "stateMutability": "payable",
      "type": "receive"
    }
  ],
  "bytecode": "0x60a060405234620000495730608052620000186200004e565b620000226200004e565b6040516137ca9081620000f882396080518181816113310152818161142f01526120d40152f35b600080fd5b60005460ff8160081c16620000a25760ff808216036200006b5750565b60ff90811916176000557f7f26b83ff96e1f2b6a682f133852f6798a09c465da95921460cefb3847402498602060405160ff8152a1565b60405162461bcd60e51b815260206004820152602760248201527f496e697469616c697a61626c653a20636f6e747261637420697320696e697469604482015266616c697a696e6760c81b6064820152608490fdfe604060808152600436101561001d575b50361561001b57600080fd5b005b600090813560e01c80629fe75214612aab57806301ffc9a714612a5457806308dab0a41461288f578063116191b614612866578063146e66b5146127885780631785f53c14612697578063197d972e14612649578063214ac8d4146125c9578063248a9ca31461259e5780632f2ff15d146124f857806332495ce11461246057806336568abe146123c45780633659cfe6146120ad57806336c5eda414611d1357806338073f0c14611cea5780633f4ba83a14611bb65780634460bdd614611b8e5780634902e4aa14611b2b578063491606581461179e5780634b03285a146117065780634f1ef286146113df57806352d1902d1461131c578063572b6c05146112e95780635c975abb146112c3578063604a172c1461127f5780636a22d8cc146112565780636b2c0f551461115d578281636ccae054146110bb575080637048027514611004578063715018a614610fa657806375b238fc14610f7e57806382dc1ec414610e815780638456cb5914610d425780638da5cb5b14610d1a57806391d1485414610cd357806395368d2e14610cb4578063a217fddf14610c9a578063b3292ff014610c36578063b89b22d714610c0d578063bd826ed714610be4578063c29a070c14610b83578063cc2a9a5b14610852578063ce1b815f1461082a578063d264a80314610783578063d547741f14610744578063da742228146106af578063e32bb67b14610631578063e42e0ea9146105d5578063e47d1c6e14610533578063e511015814610488578063e63ab1e914610460578063f2fde38b146102dd578063f72c0d8b146102b55763fefbbd621461027d575061000f565b346102b15760203660031901126102b15760043582526101fc6020908152918190205490516001600160a01b039091168152f35b5080fd5b50346102b157816003193601126102b157602090516000805160206136d58339815191528152f35b50346102b1576020908160031936011261045c576102f9612b43565b906103026130b3565b61030a6130b3565b6001600160a01b039180831615610409578061032861032d92613116565b612fb1565b610335613658565b928280610340613658565b1694169384036103af576000805260fb81528160002084600052815260ff82600020541661036c578480f35b6000805260fb81528160002090846000525260002060ff198154169055610391613658565b169060006000805160206137558339815191528180a4388080808480f35b608491519062461bcd60e51b82526004820152602f60248201527f416363657373436f6e74726f6c3a2063616e206f6e6c792072656e6f756e636560448201526e103937b632b9903337b91039b2b63360891b6064820152fd5b815162461bcd60e51b815260048101859052602660248201527f4f776e61626c653a206e6577206f776e657220697320746865207a65726f206160448201526564647265737360d01b6064820152608490fd5b8280fd5b50346102b157816003193601126102b157602090516000805160206137158339815191528152f35b50346102b15760203660031901126102b1576104a2612b43565b906104ab6130b3565b6000805160206136d5833981519152918260005260fb602052816000209160018060a01b03809216928360005260205260ff816000205416156104ec578480f35b8360005260fb6020528060002083600052602052600020600160ff19825416179055610516613658565b16916000805160206136b5833981519152600080a4388080808480f35b50346102b157806003193601126102b15761054c612b59565b90610555613658565b90600080516020613735833981519152845260fb60205280842060018060a01b0380931660005260205260ff81600020541680156105ba575b6105979061359e565b60043584526101fc602052832091166001600160601b0360a01b82541617905580f35b506105978260335416836105cc613658565b1614905061058e565b50346102b157806003193601126102b157816004356001600160a01b038116908190036102b157818080926024359061060c6130b3565b828215610628575bf11561061e575080f35b51903d90823e3d90fd5b506108fc610614565b50346102b15760203660031901126102b15761068e9060ff610651613658565b91600080516020613735833981519152855260fb60205280852060018060a01b038094166000526020526000205416908115610698575b5061359e565b6004356101c35580f35b603354811691506106a7613658565b161438610688565b50346102b15760203660031901126102b1576106c9612b43565b60ff6106d3613658565b92600080516020613735833981519152855260fb60205280852060018060a01b0380951660005260205260002054168015610729575b6107129061359e565b166001600160601b0360a01b609754161760975580f35b5061071282603354168361073b613658565b16149050610709565b50346102b157806003193601126102b1576107809060043561077b6001610769612b59565b9383875260fb60205286200154612d3d565b613039565b80f35b50346102b15760203660031901126102b15761079d612b43565b906107a66130b3565b6000805160206136d5833981519152918260005260fb602052816000209160018060a01b03809216928360005260205260ff8160002054166107e6578480f35b8360005260fb602052806000208360005260205260002060ff19815416905561080d613658565b1691600080516020613755833981519152600080a4388080808480f35b50346102b157816003193601126102b15760975490516001600160a01b039091168152602090f35b50346102b15760c03660031901126102b15761086c612b43565b90610875612b59565b916044356001600160a01b038181169291839003610b7e576064359481861693848703610b7e5760843591838316809303610b7e5760a43593808516809503610b7e5789549860ff8a60081c161597888099610b71575b8015610b5a575b15610aff57600160ff198c1681178d559a89610aee575b5061092c60ff8d5460081c166108ff816135f8565b610908816135f8565b610911816135f8565b6097805460ff60a01b19169055610927816135f8565b6135f8565b61093c610937613658565b613116565b61097060ff8d5460081c16610950816135f8565b610959816135f8565b610962816135f8565b8c61012d55610927816135f8565b6109786130b3565b15610a9b578061032861098a92613116565b6000805160206137758339815191528060005260fb60205289896000200154906000805160206137358339815191528092818d8d60002001557fbd79b86ffe0ab8e8776151514217cd7cacd52c909f66475c3af44e129f0b00ff9283600080a460008051602061371583398151915260008181528b81208d01805490859055929080a46001600160601b0360a01b95816101c49116878254161790556101c59116858254161790556101c6908482541617905562015f906101c3556101f890838254161790556101f991825416179055610a62578280f35b825461ff0019168355519081527f7f26b83ff96e1f2b6a682f133852f6798a09c465da95921460cefb384740249890602090a138808280f35b885162461bcd60e51b815260206004820152602660248201527f4f776e61626c653a206e6577206f776e657220697320746865207a65726f206160448201526564647265737360d01b6064820152608490fd5b61ffff1916610101178c55386108ea565b895162461bcd60e51b815260206004820152602e60248201527f496e697469616c697a61626c653a20636f6e747261637420697320616c72656160448201526d191e481a5b9a5d1a585b1a5e995960921b6064820152608490fd5b50303b1580156108d35750600160ff8c16146108d3565b50600160ff8c16106108cc565b600080fd5b50346102b15760203660031901126102b157600435916001600160401b038311610be15750610bce6020610bbc81943690600401612c3a565b81845193828580945193849201612c92565b81016101fb815203019020549051908152f35b80fd5b50346102b157816003193601126102b1576101c55490516001600160a01b039091168152602090f35b50346102b157816003193601126102b1576101c45490516001600160a01b039091168152602090f35b50346102b15760203660031901126102b157610c50612b43565b90610c596130b3565b600080516020613735833981519152918260005260fb602052816000209160018060a01b03809216928360005260205260ff816000205416156104ec578480f35b50346102b157816003193601126102b15751908152602090f35b50346102b157816003193601126102b1576020906101c3549051908152f35b50346102b157806003193601126102b15760209181610cf0612b59565b91600435815260fb8552209060018060a01b0316600052825260ff81600020541690519015158152f35b50346102b157816003193601126102b15760335490516001600160a01b039091168152602090f35b50346102b157816003193601126102b157610d5b613658565b90600080516020613715833981519152835260209160fb835281842060018060a01b03809216600052835260ff8260002054168015610e4b575b8015610e30575b610da59061359e565b60975460ff8160a01c16610df95760ff60a01b1916600160a01b176097557f62e78cea01bee320cd4e420270b5ea74000d11b0c9f74754ebdbfc544b05a258929190610def613658565b915191168152a180f35b825162461bcd60e51b815260048101859052601060248201526f14185d5cd8589b194e881c185d5cd95960821b6044820152606490fd5b50610da5816033541682610e42613658565b16149050610d9c565b50610e54613658565b600080516020613735833981519152855260fb8452818386209116600052835260ff826000205416610d95565b50346102b1576020908160031936011261045c57610e9d612b43565b90610ea6613658565b90600080516020613735833981519152855260fb845280852060018060a01b03809316600052845260ff8160002054168015610f63575b610ee69061359e565b600080516020613715833981519152938460005260fb8152828260002094169384600052815260ff82600020541615610f1d578580f35b8460005260fb815281600020908460005252600020600160ff19825416179055610f45613658565b16916000805160206136b5833981519152600080a438808080808580f35b50610ee6826033541683610f75613658565b16149050610edd565b50346102b157816003193601126102b157602090516000805160206137758339815191528152f35b8234610be15780600319360112610be157610fbf6130b3565b603380546001600160a01b031981169091556000906001600160a01b03167f8be0079c531659141344cd1fd0a4f28419497f9722a3daafe3b4186f6b6457e08280a380f35b50346102b1576020908160031936011261045c57611020612b43565b90611029613658565b90600080516020613735833981519152855260fb845280852060018060a01b03809316600052845260ff81600020541680156110a0575b6110699061359e565b600080516020613775833981519152938460005260fb8152828260002094169384600052815260ff82600020541615610f1d578580f35b506110698260335416836110b2613658565b16149050611060565b80833461115a57606036600319011261115a5760206110d8612b43565b60446110e2612b59565b916110eb6130b3565b845163a9059cbb60e01b81526001600160a01b039384166004820152823560248201529586938492165af19081156111515750611126575080f35b6111469060203d811161114a575b61113e8183612bc7565b8101906135e0565b5080f35b503d611134565b513d84823e3d90fd5b50fd5b50346102b1576020908160031936011261045c57611179612b43565b90611182613658565b90600080516020613735833981519152855260fb845280852060018060a01b03809316600052845260ff816000205416801561123b575b6111c29061359e565b600080516020613715833981519152938460005260fb8152828260002094169384600052815260ff8260002054166111f8578580f35b8460005260fb81528160002090846000525260002060ff19815416905561121d613658565b1691600080516020613755833981519152600080a438808080808580f35b506111c282603354168361124d613658565b161490506111b9565b50346102b157816003193601126102b1576101f95490516001600160a01b039091168152602090f35b50346102b15760649061129136612cda565b50505162461bcd60e51b815260206004820152600d60248201526c139bdd0814dd5c1c1bdc9d1959609a1b6044820152fd5b50346102b157816003193601126102b15760209060ff60975460a01c1690519015158152f35b50346102b15760203660031901126102b157602090611306612b43565b60018060a01b0380609754169116149051908152f35b509034610be15780600319360112610be157507f00000000000000000000000000000000000000000000000000000000000000006001600160a01b0316300361137657602090516000805160206136f58339815191528152f35b5162461bcd60e51b815260206004820152603860248201527f555550535570677261646561626c653a206d757374206e6f742062652063616c60448201527f6c6564207468726f7567682064656c656761746563616c6c00000000000000006064820152608490fd5b50806003193601126102b1576113f3612b43565b6024356001600160401b038111611702573660238201121561170257611423903690602481600401359101612c03565b6001600160a01b0392907f0000000000000000000000000000000000000000000000000000000000000000841661145c3082141561315f565b6114796000805160206136f58339815191529186835416146131c0565b611481613658565b946000805160206136d5833981519152875260209560fb8752818589209116600052865260ff84600020541680156116e7575b6114bd9061359e565b7f4910fdfa16fed3260ed0e7147f7cc6da11a60208b5b9406d12a635614ffd91435460ff16156114f557505050506107809150613221565b849394169084516352d1902d60e01b81528681600481865afa600091816116b8575b5061157757855162461bcd60e51b815260048101889052602e60248201527f45524331393637557067726164653a206e657720696d706c656d656e7461746960448201526d6f6e206973206e6f74205555505360901b6064820152608490fd5b959395949294036116625761158b85613221565b7fbc7cd75a20ee27fd9adebab32041f755214dbc6bffa90cc0225b39da2e5c2d3b600080a282511580159061165a575b6115c7575b5050505080f35b611646936000808351956115da87612bac565b602787527f416464726573733a206c6f772d6c6576656c2064656c65676174652063616c6c86880152660819985a5b195960ca1b858801528581519101845af4913d15611650573d61163761162e82612be8565b92519283612bc7565b8152600081943d92013e6132b1565b50388080806115c0565b50606092506132b1565b5060016115bb565b815162461bcd60e51b815260048101849052602960248201527f45524331393637557067726164653a20756e737570706f727465642070726f786044820152681a58589b195555525160ba1b6064820152608490fd5b90918882813d83116116e0575b6116cf8183612bc7565b81010312610be15750519038611517565b503d6116c5565b506114bd8160335416826116f9613658565b161490506114b4565b8380fd5b50346102b15760203660031901126102b157611720612b43565b9060ff61172b613658565b91600080516020613735833981519152855260fb60205280852060018060a01b0380941660005260205260002054168015611783575b61176a9061359e565b6101c491166001600160601b0360a01b82541617905580f35b5061176a816033541682611795613658565b16149050611761565b509034610be1576080366003190112610be1576001600160401b039160243583811161045c576117d2903690600401612d10565b6044929192358581116119b4576117ed903690600401612d10565b919095606435908111611b2757611808903690600401612d10565b929094611813613495565b61181b613658565b6101f8546001600160a01b039490851692918516839003611ad05761184136858c612c03565b60208151910151906001600160601b0319918281169160148110611abb575b505090508751828482376020818481016101fb815203019020548a526101fc60205285888b2054169060601c03611a6057916118dc91896020946118ee6118a98c8b3691612c03565b8781519101209d8b5198899788968795635f6970c360e01b875260043560048801526080602488015260848701916133df565b848103600319016044860152916133df565b8d606483015203925af1908115611a56578691611a37575b50156119f35760043585526101fd958660205283862081875260205260ff84872054166119b85785966004358752602052838620908652602052828520600160ff198254161790556101c4541692833b156119b45761198593859283855180978195829463e34381a160e01b84526020600485015260248401916133df565b03925af190811561115157506119a0575b50600161012d5580f35b6119a990612b83565b610be1578038611996565b8480fd5b835162461bcd60e51b815260206004820152601460248201527326b2b9b9b0b3b29030b63932b0b23c9039b2b2b760611b6044820152606490fd5b825162461bcd60e51b815260206004820152601e60248201527f4e6f7420417070726f766564204279204178656c6172204761746577617900006044820152606490fd5b611a50915060203d60201161114a5761113e8183612bc7565b38611906565b84513d88823e3d90fd5b865162461bcd60e51b815260206004820152602e60248201527f536f757263652061646472657373206973206e6f7420612063726f737353796e60448201526d6320496d706c204164647265737360901b6064820152608490fd5b8391925060140360031b1b1616803880611860565b865162461bcd60e51b815260206004820152602a60248201527f4f6e6c79204178656c617220476174657761792063616e2063616c6c207468696044820152693990333ab731ba34b7b760b11b6064820152608490fd5b8580fd5b50346102b15760203660031901126102b157611b45612b43565b90611b4e6130b3565b600080516020613735833981519152918260005260fb602052816000209160018060a01b03809216928360005260205260ff8160002054166107e6578480f35b50346102b157816003193601126102b157602090516000805160206137358339815191528152f35b50346102b157816003193601126102b157611bcf613658565b90600080516020613715833981519152835260209160fb835281842060018060a01b03809216600052835260ff8260002054168015611cb4575b8015611c99575b611c199061359e565b60975460ff8160a01c1615611c5e5760ff60a01b19166097557f5db9ee0a495bf2e6ff9c91a7834c1ba4fdd244a5e8aa4e537bd38aeae4b073aa929190610def613658565b825162461bcd60e51b815260048101859052601460248201527314185d5cd8589b194e881b9bdd081c185d5cd95960621b6044820152606490fd5b50611c19816033541682611cab613658565b16149050611c10565b50611cbd613658565b600080516020613735833981519152855260fb8452818386209116600052835260ff826000205416611c09565b50346102b157816003193601126102b1576101c65490516001600160a01b039091168152602090f35b50611d1d36612cda565b50611d26613495565b611d2e613658565b6101c4546001600160a01b03919082169082160361205457341561201057825193602094858082015282611d6185612b6f565b16858201528584013560608201526080928585013584830152606085013560a083015283850135908160c084015280611d9c60a08801612b6f565b1660e084015260c086019581611db188612b6f565b1690610100918286015260e0810135603e198236030181121561200c57019061012085015281611de082612b6f565b1661014085015288810135601e1982360301811215611b27570188810190356001600160401b038111611b27578036038213611b27578491611e2e918a6101608501526101808401916133df565b0395611e42601f1997888101865285612bc7565b816101f954168386526101fa90818b528987209235848116810361200857611e69906134ec565b92611e72613658565b823b15612004578792611eb38a93611ec6938f611ed68b915198899788968796630c93e3bb60e01b885230600489015260a0602489015260a4880190613400565b6003199d8e888303016044890152612cb5565b908c868303016064870152612cb5565b91166084830152039134905af18015611ffa57611fe7575b50826101f854169386528952611f10888620926101fc8b5289872054166134ec565b93833b15611b275785611f5c9593611f6b829694611f4c948d51998a9889978896631c92115f60e01b8852606060048901526064880190613400565b9084878303016024880152612cb5565b91848303016044850152612cb5565b03925af18015611fdd57611fc9575b50509290600161012d55825193828593845260605191828286015260005b838110611fb5575050600084830186015250601f01168101030190f35b818101518882018801528795508201611f98565b611fd38291612b83565b610be15780611f7a565b85513d84823e3d90fd5b611ff390969196612b83565b9438611eee565b8a513d89823e3d90fd5b8880fd5b8780fd5b8680fd5b825162461bcd60e51b815260206004820152601760248201527f476173207061796d656e742069732072657175697265640000000000000000006044820152606490fd5b825162461bcd60e51b815260206004820152602c60248201527f4f6e6c792043726f737353796e63476174657761792063616e2063616c6c207460448201526b3434b990333ab731ba34b7b760a11b6064820152608490fd5b50346102b1576020908160031936011261045c576120c9612b43565b906001600160a01b037f000000000000000000000000000000000000000000000000000000000000000081166121013082141561315f565b61211e6000805160206136f58339815191529183835416146131c0565b612126613658565b6000805160206136d5833981519152875260fb86528284882091168752855260ff838720541680156123a9575b61215c9061359e565b825190858201928284106001600160401b03851117612395578385528783527f4910fdfa16fed3260ed0e7147f7cc6da11a60208b5b9406d12a635614ffd91435460ff16156121b45750505050506107809150613221565b8592939495169085516352d1902d60e01b81528781600481865afa899181612362575b5061223757865162461bcd60e51b815260048101899052602e60248201527f45524331393637557067726164653a206e657720696d706c656d656e7461746960448201526d6f6e206973206e6f74205555505360901b6064820152608490fd5b9694969593950361230c5761224b82613221565b7fbc7cd75a20ee27fd9adebab32041f755214dbc6bffa90cc0225b39da2e5c2d3b8780a285845115801590612305575b612289575b50505050505080f35b806122f99684519661229a88612bac565b602788527f416464726573733a206c6f772d6c6576656c2064656c65676174652063616c6c87890152660819985a5b195960ca1b868901525190845af4913d15611650573d6122eb61162e82612be8565b81528681943d92013e6132b1565b50388080808085612280565b508061227b565b825162461bcd60e51b815260048101859052602960248201527f45524331393637557067726164653a20756e737570706f727465642070726f786044820152681a58589b195555525160ba1b6064820152608490fd5b9091508881813d831161238e575b61237a8183612bc7565b8101031261238a575190386121d7565b8980fd5b503d612370565b634e487b7160e01b88526041600452602488fd5b5061215c8260335416836123bb613658565b16149050612153565b50346102b157806003193601126102b1576123dd612b59565b906001600160a01b03806123ef613658565b1690831603612405575061078090600435613039565b5162461bcd60e51b815260206004820152602f60248201527f416363657373436f6e74726f6c3a2063616e206f6e6c792072656e6f756e636560448201526e103937b632b9903337b91039b2b63360891b6064820152608490fd5b50346102b15760203660031901126102b15761247a612b43565b9060ff612485613658565b600080516020613735833981519152855260fb60209081528386206001600160a01b0392831687529052918420541680156124dd575b6124c49061359e565b6101c691166001600160601b0360a01b82541617905580f35b506124c48160335416826124ef613658565b161490506124bb565b50346102b157806003193601126102b15760043590612515612b59565b82845260fb60205261252c60018386200154612d3d565b82845260fb60209081528285206001600160a01b0392831680875291528285205490929060ff161561255c578480f35b83855260fb6020528085208386526020528420600160ff19825416179055612582613658565b16916000805160206136b58339815191528480a4388080808480f35b50346102b15760203660031901126102b157600181602093600435815260fb85522001549051908152f35b50346102b15760203660031901126102b1576004356001600160a01b0381811692918390036117025760ff61263292612600613658565b600080516020613735833981519152875260fb602052838288209116875260205285205416908115610698575061359e565b6101f880546001600160a01b031916909117905580f35b50346102b15760203660031901126102b1576004356001600160a01b0381811692918390036117025760ff61268092612600613658565b6101f980546001600160a01b031916909117905580f35b50346102b1576020908160031936011261045c576126b3612b43565b906126bc613658565b600080516020613735833981519152855260fb84528185206001600160a01b03918216865284528185205490919060ff16801561276d575b6126fd9061359e565b6000805160206137758339815191529384865260fb815282828720941693848752815260ff828720541661272f578580f35b84865260fb815281862084875290528420805460ff19169055612750613658565b16916000805160206137558339815191528480a438808080808580f35b506126fd82603354168361277f613658565b161490506126f4565b50346102b1576020908160031936011261045c5760043583526101fa82528083208151938491818154906127bb82612c58565b9283865260019288848216918260001461283c5750506001146127fe575b85886127fa896127eb848a0385612bc7565b51928284938452830190612cb5565b0390f35b87945081939291528383205b82841061282457505050820101816127eb6127fa386127d9565b8054848a01860152889550879490930192810161280a565b60ff19168882015294151560051b870190940194508593506127eb92506127fa91503890506127d9565b50346102b157816003193601126102b1576101f85490516001600160a01b039091168152602090f35b509034610be15781600319360112610be1576004356001600160401b03602435818111611702576128c4903690600401612c3a565b6128cc613658565b600080516020613735833981519152855260fb60209081528686206001600160a01b0392831687528152868620549093916129119160ff16908115610698575061359e565b8385526101fa8352858520908251908111612a40576129308254612c58565b601f81116129fd575b5083601f8211600114612996579181879892869461297c98999161298b575b508160011b916000199060031b1c19161790555b5193828580945193849201612c92565b81016101fb8152030190205580f35b905085015138612958565b82875284872090601f198316885b8181106129e65750928694926001928261297c9a9b9c96106129cd575b5050811b01905561296c565b87015160001960f88460031b161c1916905538806129c1565b91928760018192868a0151815501940192016129a4565b828752848720601f830160051c810191868410612a36575b601f0160051c01905b818110612a2b5750612939565b878155600101612a1e565b9091508190612a15565b634e487b7160e01b86526041600452602486fd5b50346102b15760203660031901126102b1576004359063ffffffff60e01b821680920361045c5760209250637965db0b60e01b8214918215612a9a575b50519015158152f35b6301ffc9a760e01b14915038612a91565b50346102b15760203660031901126102b157612ac5612b43565b9060ff612ad0613658565b600080516020613735833981519152855260fb60209081528386206001600160a01b039283168752905291842054168015612b28575b612b0f9061359e565b6101c591166001600160601b0360a01b82541617905580f35b50612b0f816033541682612b3a613658565b16149050612b06565b600435906001600160a01b0382168203610b7e57565b602435906001600160a01b0382168203610b7e57565b35906001600160a01b0382168203610b7e57565b6001600160401b038111612b9657604052565b634e487b7160e01b600052604160045260246000fd5b606081019081106001600160401b03821117612b9657604052565b90601f801991011681019081106001600160401b03821117612b9657604052565b6001600160401b038111612b9657601f01601f191660200190565b929192612c0f82612be8565b91612c1d6040519384612bc7565b829481845281830111610b7e578281602093846000960137010152565b9080601f83011215610b7e57816020612c5593359101612c03565b90565b90600182811c92168015612c88575b6020831014612c7257565b634e487b7160e01b600052602260045260246000fd5b91607f1691612c67565b60005b838110612ca55750506000910152565b8181015183820152602001612c95565b90602091612cce81518092818552858086019101612c92565b601f01601f1916010190565b60031990604081830112610b7e57600435916001600160401b038311610b7e578261010092030112610b7e576004019060243590565b9181601f84011215610b7e578235916001600160401b038311610b7e5760208381860195010111610b7e57565b612d45613658565b9060009080825260209160fb83526040938482209060018060a01b031690818352845260ff858320541615612d7b575050505050565b90845192612d8884612bac565b602a84528484019086368337845115612f9d5760308253845193600194851015612f0b57607860218701536029905b858211612f4757612dc9915015613394565b865192608084018481106001600160401b03821117612f3357885260428452868401946060368737845115612f1f57603086538451811015612f1f5790607860218601536041915b808311612ec557612e6d89612ec18c612ea560488d8d8d612e968e612e368f15613394565b87519a8b957f416363657373436f6e74726f6c3a206163636f756e74200000000000000000008c8801525180926037880190612c92565b8401917001034b99036b4b9b9b4b733903937b6329607d1b603784015251809386840190612c92565b01036028810187520185612bc7565b5192839262461bcd60e51b845260048401526024830190612cb5565b0390fd5b909192600f81166010811015612f0b57612f0491906f181899199a1a9b1b9c1cb0b131b232b360811b901a612efa868961334a565b5360041c93613371565b9190612e11565b634e487b7160e01b84526032600452602484fd5b634e487b7160e01b82526032600452602482fd5b634e487b7160e01b82526041600452602482fd5b600f81166010811015612f8957612f8391906f181899199a1a9b1b9c1cb0b131b232b360811b901a612f79848a61334a565b5360041c91613371565b90612db7565b634e487b7160e01b86526032600452602486fd5b634e487b7160e01b83526032600452602483fd5b6001600160a01b0390811660008181527fc88390e7e62175be0932452175b6a7222b6b094ab0ef984a5153c620345d8975602052604081205490929060ff1615612ffa57505050565b82805260fb6020526040832082845260205260408320600160ff19825416179055613023613658565b16916000805160206136b58339815191528180a4565b600081815260fb602090815260408083206001600160a01b039586168085529252822054919390929160ff16613070575b50505050565b6000805160206137558339815191529082855260fb602052604085208486526020526040852060ff1981541690556130a6613658565b169380a43880808061306a565b6033546001600160a01b03908116906130ca613658565b16036130d257565b606460405162461bcd60e51b815260206004820152602060248201527f4f776e61626c653a2063616c6c6572206973206e6f7420746865206f776e65726044820152fd5b603380546001600160a01b039283166001600160a01b0319821681179092559091167f8be0079c531659141344cd1fd0a4f28419497f9722a3daafe3b4186f6b6457e0600080a3565b1561316657565b60405162461bcd60e51b815260206004820152602c60248201527f46756e6374696f6e206d7573742062652063616c6c6564207468726f7567682060448201526b19195b1959d85d1958d85b1b60a21b6064820152608490fd5b156131c757565b60405162461bcd60e51b815260206004820152602c60248201527f46756e6374696f6e206d7573742062652063616c6c6564207468726f7567682060448201526b6163746976652070726f787960a01b6064820152608490fd5b803b15613256576000805160206136f583398151915280546001600160a01b0319166001600160a01b03909216919091179055565b60405162461bcd60e51b815260206004820152602d60248201527f455243313936373a206e657720696d706c656d656e746174696f6e206973206e60448201526c1bdd08184818dbdb9d1c9858dd609a1b6064820152608490fd5b9192901561331357508151156132c5575090565b3b156132ce5790565b60405162461bcd60e51b815260206004820152601d60248201527f416464726573733a2063616c6c20746f206e6f6e2d636f6e74726163740000006044820152606490fd5b8251909150156133265750805190602001fd5b60405162461bcd60e51b815260206004820152908190612ec1906024830190612cb5565b90815181101561335b570160200190565b634e487b7160e01b600052603260045260246000fd5b801561337e576000190190565b634e487b7160e01b600052601160045260246000fd5b1561339b57565b606460405162461bcd60e51b815260206004820152602060248201527f537472696e67733a20686578206c656e67746820696e73756666696369656e746044820152fd5b908060209392818452848401376000828201840152601f01601f1916010190565b906000929180549161341183612c58565b91828252600193848116908160001461347257506001146134325750505050565b90919394506000526020928360002092846000945b83861061345e57505050500101903880808061306a565b805485870183015294019385908201613447565b9294505050602093945060ff191683830152151560051b0101903880808061306a565b61012d60028154146134a75760029055565b60405162461bcd60e51b815260206004820152601f60248201527f5265656e7472616e637947756172643a207265656e7472616e742063616c6c006044820152606490fd5b604051906001600160a01b031661350282612bac565b602a825260208201604036823782511561335b5760309053815160019081101561335b5790607860218401536029915b8083116135455750612c55915015613394565b90600f811690601082101561358957613582916f181899199a1a9b1b9c1cb0b131b232b360811b901a613578858761334a565b5360041c92613371565b9190613532565b60246000634e487b7160e01b81526032600452fd5b156135a557565b60405162461bcd60e51b8152602060048201526013602482015272556e617574686f72697a65642041636365737360681b6044820152606490fd5b90816020910312610b7e57518015158103610b7e5790565b156135ff57565b60405162461bcd60e51b815260206004820152602b60248201527f496e697469616c697a61626c653a20636f6e7472616374206973206e6f74206960448201526a6e697469616c697a696e6760a81b6064820152608490fd5b6097546001600160a01b0316331480806136a9575b1561367f575036601319013560601c90565b601436101590816136a1575b501561369d5736601319013560601c90565b3390565b90503861368b565b50601436101561366d56fe2f8788117e7eff1d82e926ec794901d17c78024a50270940304540a733656f0d189ab7a9244df0848122154315af71fe140f3db0fe014031783b0946b8c9d2e3360894a13ba1a3210667c828492db98dca3e2076cc3735a920a3ca505d382bbc65d7a28e3265b37a6474929f336521b332c1681b933f6cb9f3376673440d862a7613a25ecc738585a232ad50a301178f12b3ba8887d13e138b523c4269c47689f6391f5c32d9c69d2a47ea670b442974b53935d1edc7fd64eb21e047a839171ba49807205ce4d355092ef5a8a18f56e8913cf4a201fbe287825b095693c21775a26469706673582212203148c79249e03472fec2059f5aafdfef5d7d8b85a60fd76edef7aac944ea622a64736f6c63430008110033",
  "linkReferences": {},
  "deployedLinkReferences": {}
}