{
  "_format": "hh-sol-artifact-1",
  "contractName": "TeleporterImpl",
  "sourceName": "contracts/MessagingImpls/TeleporterImpl.sol",
  "abi": [
    {
      "inputs": [],
      "stateMutability": "nonpayable",
      "type": "constructor"
    },
    {
      "anonymous": false,
      "inputs": [
        {
          "indexed": false,
          "internalType": "address",
          "name": "previousAdmin",
          "type": "address"
        },
        {
          "indexed": false,
          "internalType": "address",
          "name": "newAdmin",
          "type": "address"
        }
      ],
      "name": "AdminChanged",
      "type": "event"
    },
    {
      "anonymous": false,
      "inputs": [
        {
          "indexed": true,
          "internalType": "address",
          "name": "beacon",
          "type": "address"
        }
      ],
      "name": "BeaconUpgraded",
      "type": "event"
    },
    {
      "anonymous": false,
      "inputs": [
        {
          "indexed": false,
          "internalType": "uint8",
          "name": "version",
          "type": "uint8"
        }
      ],
      "name": "Initialized",
      "type": "event"
    },
    {
      "anonymous": false,
      "inputs": [
        {
          "indexed": true,
          "internalType": "address",
          "name": "previousOwner",
          "type": "address"
        },
        {
          "indexed": true,
          "internalType": "address",
          "name": "newOwner",
          "type": "address"
        }
      ],
      "name": "OwnershipTransferred",
      "type": "event"
    },
    {
      "anonymous": false,
      "inputs": [
        {
          "indexed": false,
          "internalType": "address",
          "name": "account",
          "type": "address"
        }
      ],
      "name": "Paused",
      "type": "event"
    },
    {
      "anonymous": false,
      "inputs": [
        {
          "indexed": true,
          "internalType": "bytes32",
          "name": "role",
          "type": "bytes32"
        },
        {
          "indexed": true,
          "internalType": "bytes32",
          "name": "previousAdminRole",
          "type": "bytes32"
        },
        {
          "indexed": true,
          "internalType": "bytes32",
          "name": "newAdminRole",
          "type": "bytes32"
        }
      ],
      "name": "RoleAdminChanged",
      "type": "event"
    },
    {
      "anonymous": false,
      "inputs": [
        {
          "indexed": true,
          "internalType": "bytes32",
          "name": "role",
          "type": "bytes32"
        },
        {
          "indexed": true,
          "internalType": "address",
          "name": "account",
          "type": "address"
        },
        {
          "indexed": true,
          "internalType": "address",
          "name": "sender",
          "type": "address"
        }
      ],
      "name": "RoleGranted",
      "type": "event"
    },
    {
      "anonymous": false,
      "inputs": [
        {
          "indexed": true,
          "internalType": "bytes32",
          "name": "role",
          "type": "bytes32"
        },
        {
          "indexed": true,
          "internalType": "address",
          "name": "account",
          "type": "address"
        },
        {
          "indexed": true,
          "internalType": "address",
          "name": "sender",
          "type": "address"
        }
      ],
      "name": "RoleRevoked",
      "type": "event"
    },
    {
      "anonymous": false,
      "inputs": [
        {
          "indexed": false,
          "internalType": "address",
          "name": "account",
          "type": "address"
        }
      ],
      "name": "Unpaused",
      "type": "event"
    },
    {
      "anonymous": false,
      "inputs": [
        {
          "indexed": true,
          "internalType": "address",
          "name": "implementation",
          "type": "address"
        }
      ],
      "name": "Upgraded",
      "type": "event"
    },
    {
      "inputs": [],
      "name": "ADMIN_ROLE",
      "outputs": [
        {
          "internalType": "bytes32",
          "name": "",
          "type": "bytes32"
        }
      ],
      "stateMutability": "view",
      "type": "function"
    },
    {
      "inputs": [],
      "name": "DEFAULT_ADMIN_ROLE",
      "outputs": [
        {
          "internalType": "bytes32",
          "name": "",
          "type": "bytes32"
        }
      ],
      "stateMutability": "view",
      "type": "function"
    },
    {
      "inputs": [],
      "name": "PAUSER_ROLE",
      "outputs": [
        {
          "internalType": "bytes32",
          "name": "",
          "type": "bytes32"
        }
      ],
      "stateMutability": "view",
      "type": "function"
    },
    {
      "inputs": [],
      "name": "SUPER_ADMIN_ROLE",
      "outputs": [
        {
          "internalType": "bytes32",
          "name": "",
          "type": "bytes32"
        }
      ],
      "stateMutability": "view",
      "type": "function"
    },
    {
      "inputs": [],
      "name": "UPGRADER_ROLE",
      "outputs": [
        {
          "internalType": "bytes32",
          "name": "",
          "type": "bytes32"
        }
      ],
      "stateMutability": "view",
      "type": "function"
    },
    {
      "inputs": [
        {
          "internalType": "address",
          "name": "_admin",
          "type": "address"
        }
      ],
      "name": "addAdmin",
      "outputs": [],
      "stateMutability": "nonpayable",
      "type": "function"
    },
    {
      "inputs": [
        {
          "internalType": "address",
          "name": "account",
          "type": "address"
        }
      ],
      "name": "addPauser",
      "outputs": [],
      "stateMutability": "nonpayable",
      "type": "function"
    },
    {
      "inputs": [
        {
          "internalType": "address",
          "name": "_superAdmin",
          "type": "address"
        }
      ],
      "name": "addSuperAdmin",
      "outputs": [],
      "stateMutability": "nonpayable",
      "type": "function"
    },
    {
      "inputs": [
        {
          "internalType": "address",
          "name": "_upgrader",
          "type": "address"
        }
      ],
      "name": "addUpgrader",
      "outputs": [],
      "stateMutability": "nonpayable",
      "type": "function"
    },
    {
      "inputs": [],
      "name": "crossSyncGatewayAddress",
      "outputs": [
        {
          "internalType": "address",
          "name": "",
          "type": "address"
        }
      ],
      "stateMutability": "view",
      "type": "function"
    },
    {
      "inputs": [],
      "name": "defaultGasLimit",
      "outputs": [
        {
          "internalType": "uint256",
          "name": "",
          "type": "uint256"
        }
      ],
      "stateMutability": "view",
      "type": "function"
    },
    {
      "inputs": [
        {
          "components": [
            {
              "internalType": "address",
              "name": "sender",
              "type": "address"
            },
            {
              "internalType": "uint256",
              "name": "nonce",
              "type": "uint256"
            },
            {
              "internalType": "uint256",
              "name": "messagingRouteId",
              "type": "uint256"
            },
            {
              "internalType": "uint256",
              "name": "sourceChainId",
              "type": "uint256"
            },
            {
              "internalType": "uint256",
              "name": "destinationChainId",
              "type": "uint256"
            },
            {
              "internalType": "address",
              "name": "sourceGatewayAddress",
              "type": "address"
            },
            {
              "internalType": "address",
              "name": "destinationGatewayAddress",
              "type": "address"
            },
            {
              "components": [
                {
                  "internalType": "address",
                  "name": "to",
                  "type": "address"
                },
                {
                  "internalType": "bytes",
                  "name": "data",
                  "type": "bytes"
                }
              ],
              "internalType": "struct ICrossSyncGateway.MessagingPayload",
              "name": "payload",
              "type": "tuple"
            }
          ],
          "internalType": "struct IMessagingImpl.ICrossSyncMessagingData",
          "name": "_data",
          "type": "tuple"
        },
        {
          "internalType": "uint256",
          "name": "_gasLimit",
          "type": "uint256"
        }
      ],
      "name": "executeSendMessage",
      "outputs": [
        {
          "internalType": "bytes",
          "name": "",
          "type": "bytes"
        }
      ],
      "stateMutability": "payable",
      "type": "function"
    },
    {
      "inputs": [
        {
          "components": [
            {
              "internalType": "address",
              "name": "sender",
              "type": "address"
            },
            {
              "internalType": "uint256",
              "name": "nonce",
              "type": "uint256"
            },
            {
              "internalType": "uint256",
              "name": "messagingRouteId",
              "type": "uint256"
            },
            {
              "internalType": "uint256",
              "name": "sourceChainId",
              "type": "uint256"
            },
            {
              "internalType": "uint256",
              "name": "destinationChainId",
              "type": "uint256"
            },
            {
              "internalType": "address",
              "name": "sourceGatewayAddress",
              "type": "address"
            },
            {
              "internalType": "address",
              "name": "destinationGatewayAddress",
              "type": "address"
            },
            {
              "components": [
                {
                  "internalType": "address",
                  "name": "to",
                  "type": "address"
                },
                {
                  "internalType": "bytes",
                  "name": "data",
                  "type": "bytes"
                }
              ],
              "internalType": "struct ICrossSyncGateway.MessagingPayload",
              "name": "payload",
              "type": "tuple"
            }
          ],
          "internalType": "struct IMessagingImpl.ICrossSyncMessagingData",
          "name": "_data",
          "type": "tuple"
        },
        {
          "internalType": "uint256",
          "name": "_gasLimit",
          "type": "uint256"
        }
      ],
      "name": "getFee",
      "outputs": [
        {
          "internalType": "uint256",
          "name": "",
          "type": "uint256"
        }
      ],
      "stateMutability": "view",
      "type": "function"
    },
    {
      "inputs": [
        {
          "internalType": "bytes32",
          "name": "role",
          "type": "bytes32"
        }
      ],
      "name": "getRoleAdmin",
      "outputs": [
        {
          "internalType": "bytes32",
          "name": "",
          "type": "bytes32"
        }
      ],
      "stateMutability": "view",
      "type": "function"
    },
    {
      "inputs": [],
      "name": "getTrustedForwarder",
      "outputs": [
        {
          "internalType": "address",
          "name": "forwarder",
          "type": "address"
        }
      ],
      "stateMutability": "view",
      "type": "function"
    },
    {
      "inputs": [
        {
          "internalType": "bytes32",
          "name": "role",
          "type": "bytes32"
        },
        {
          "internalType": "address",
          "name": "account",
          "type": "address"
        }
      ],
      "name": "grantRole",
      "outputs": [],
      "stateMutability": "nonpayable",
      "type": "function"
    },
    {
      "inputs": [
        {
          "internalType": "bytes32",
          "name": "role",
          "type": "bytes32"
        },
        {
          "internalType": "address",
          "name": "account",
          "type": "address"
        }
      ],
      "name": "hasRole",
      "outputs": [
        {
          "internalType": "bool",
          "name": "",
          "type": "bool"
        }
      ],
      "stateMutability": "view",
      "type": "function"
    },
    {
      "inputs": [
        {
          "internalType": "address",
          "name": "_crossSyncGatewayAddress",
          "type": "address"
        },
        {
          "internalType": "address",
          "name": "_nativeCurrencyWrappedAddress",
          "type": "address"
        },
        {
          "internalType": "address",
          "name": "_nativeCurrencyAddress",
          "type": "address"
        },
        {
          "internalType": "address",
          "name": "_owner",
          "type": "address"
        },
        {
          "internalType": "address",
          "name": "_teleporterAddress",
          "type": "address"
        }
      ],
      "name": "initialize",
      "outputs": [],
      "stateMutability": "nonpayable",
      "type": "function"
    },
    {
      "inputs": [
        {
          "internalType": "address",
          "name": "forwarder",
          "type": "address"
        }
      ],
      "name": "isTrustedForwarder",
      "outputs": [
        {
          "internalType": "bool",
          "name": "",
          "type": "bool"
        }
      ],
      "stateMutability": "view",
      "type": "function"
    },
    {
      "inputs": [
        {
          "internalType": "bytes32",
          "name": "",
          "type": "bytes32"
        },
        {
          "internalType": "bytes32",
          "name": "",
          "type": "bytes32"
        }
      ],
      "name": "messageSeen",
      "outputs": [
        {
          "internalType": "bool",
          "name": "",
          "type": "bool"
        }
      ],
      "stateMutability": "view",
      "type": "function"
    },
    {
      "inputs": [],
      "name": "nativeCurrencyAddress",
      "outputs": [
        {
          "internalType": "address",
          "name": "",
          "type": "address"
        }
      ],
      "stateMutability": "view",
      "type": "function"
    },
    {
      "inputs": [],
      "name": "nativeCurrencyWrappedAddress",
      "outputs": [
        {
          "internalType": "address",
          "name": "",
          "type": "address"
        }
      ],
      "stateMutability": "view",
      "type": "function"
    },
    {
      "inputs": [],
      "name": "owner",
      "outputs": [
        {
          "internalType": "address",
          "name": "",
          "type": "address"
        }
      ],
      "stateMutability": "view",
      "type": "function"
    },
    {
      "inputs": [],
      "name": "pause",
      "outputs": [],
      "stateMutability": "nonpayable",
      "type": "function"
    },
    {
      "inputs": [],
      "name": "paused",
      "outputs": [
        {
          "internalType": "bool",
          "name": "",
          "type": "bool"
        }
      ],
      "stateMutability": "view",
      "type": "function"
    },
    {
      "inputs": [],
      "name": "proxiableUUID",
      "outputs": [
        {
          "internalType": "bytes32",
          "name": "",
          "type": "bytes32"
        }
      ],
      "stateMutability": "view",
      "type": "function"
    },
    {
      "inputs": [
        {
          "internalType": "bytes32",
          "name": "originChainID",
          "type": "bytes32"
        },
        {
          "internalType": "address",
          "name": "originSenderAddress",
          "type": "address"
        },
        {
          "internalType": "bytes",
          "name": "message",
          "type": "bytes"
        }
      ],
      "name": "receiveTeleporterMessage",
      "outputs": [
        {
          "internalType": "bytes",
          "name": "",
          "type": "bytes"
        }
      ],
      "stateMutability": "nonpayable",
      "type": "function"
    },
    {
      "inputs": [
        {
          "internalType": "address",
          "name": "_admin",
          "type": "address"
        }
      ],
      "name": "removeAdmin",
      "outputs": [],
      "stateMutability": "nonpayable",
      "type": "function"
    },
    {
      "inputs": [
        {
          "internalType": "address",
          "name": "_pauser",
          "type": "address"
        }
      ],
      "name": "removePauser",
      "outputs": [],
      "stateMutability": "nonpayable",
      "type": "function"
    },
    {
      "inputs": [
        {
          "internalType": "address",
          "name": "_superAdmin",
          "type": "address"
        }
      ],
      "name": "removeSuperAdmin",
      "outputs": [],
      "stateMutability": "nonpayable",
      "type": "function"
    },
    {
      "inputs": [
        {
          "internalType": "address",
          "name": "_upgrader",
          "type": "address"
        }
      ],
      "name": "removeUpgrader",
      "outputs": [],
      "stateMutability": "nonpayable",
      "type": "function"
    },
    {
      "inputs": [],
      "name": "renounceOwnership",
      "outputs": [],
      "stateMutability": "nonpayable",
      "type": "function"
    },
    {
      "inputs": [
        {
          "internalType": "bytes32",
          "name": "role",
          "type": "bytes32"
        },
        {
          "internalType": "address",
          "name": "account",
          "type": "address"
        }
      ],
      "name": "renounceRole",
      "outputs": [],
      "stateMutability": "nonpayable",
      "type": "function"
    },
    {
      "inputs": [
        {
          "internalType": "address payable",
          "name": "userAddress",
          "type": "address"
        },
        {
          "internalType": "uint256",
          "name": "amount",
          "type": "uint256"
        }
      ],
      "name": "rescueEther",
      "outputs": [],
      "stateMutability": "nonpayable",
      "type": "function"
    },
    {
      "inputs": [
        {
          "internalType": "address",
          "name": "token",
          "type": "address"
        },
        {
          "internalType": "address",
          "name": "userAddress",
          "type": "address"
        },
        {
          "internalType": "uint256",
          "name": "amount",
          "type": "uint256"
        }
      ],
      "name": "rescueFunds",
      "outputs": [],
      "stateMutability": "nonpayable",
      "type": "function"
    },
    {
      "inputs": [
        {
          "internalType": "bytes32",
          "name": "role",
          "type": "bytes32"
        },
        {
          "internalType": "address",
          "name": "account",
          "type": "address"
        }
      ],
      "name": "revokeRole",
      "outputs": [],
      "stateMutability": "nonpayable",
      "type": "function"
    },
    {
      "inputs": [
        {
          "internalType": "address",
          "name": "_crossSyncGatewayAddress",
          "type": "address"
        }
      ],
      "name": "setCrossSyncGatewayAddress",
      "outputs": [],
      "stateMutability": "nonpayable",
      "type": "function"
    },
    {
      "inputs": [
        {
          "internalType": "uint256",
          "name": "_defaultGasLimit",
          "type": "uint256"
        }
      ],
      "name": "setDefaultGasLimit",
      "outputs": [],
      "stateMutability": "nonpayable",
      "type": "function"
    },
    {
      "inputs": [
        {
          "internalType": "address",
          "name": "_nativeCurrencyAddress",
          "type": "address"
        }
      ],
      "name": "setNativeCurrencyAddress",
      "outputs": [],
      "stateMutability": "nonpayable",
      "type": "function"
    },
    {
      "inputs": [
        {
          "internalType": "address",
          "name": "_nativeCurrencyWrappedAddress",
          "type": "address"
        }
      ],
      "name": "setNativeCurrencyWrappedAddress",
      "outputs": [],
      "stateMutability": "nonpayable",
      "type": "function"
    },
    {
      "inputs": [
        {
          "internalType": "uint256",
          "name": "_chainId",
          "type": "uint256"
        },
        {
          "internalType": "address",
          "name": "_chainImplAddress",
          "type": "address"
        }
      ],
      "name": "setTeleporterChainImplAddress",
      "outputs": [],
      "stateMutability": "nonpayable",
      "type": "function"
    },
    {
      "inputs": [
        {
          "internalType": "uint256",
          "name": "_chainId",
          "type": "uint256"
        },
        {
          "internalType": "bytes32",
          "name": "_blockchainId",
          "type": "bytes32"
        }
      ],
      "name": "setTeleporterDestBlockchainId",
      "outputs": [],
      "stateMutability": "nonpayable",
      "type": "function"
    },
    {
      "inputs": [
        {
          "internalType": "contract ITeleporterMessenger",
          "name": "_messenger",
          "type": "address"
        }
      ],
      "name": "setTeleporterGateWayAddress",
      "outputs": [],
      "stateMutability": "nonpayable",
      "type": "function"
    },
    {
      "inputs": [
        {
          "internalType": "address",
          "name": "_newtrustedForwarder",
          "type": "address"
        }
      ],
      "name": "setTrustedForwarder",
      "outputs": [],
      "stateMutability": "nonpayable",
      "type": "function"
    },
    {
      "inputs": [
        {
          "internalType": "bytes4",
          "name": "interfaceId",
          "type": "bytes4"
        }
      ],
      "name": "supportsInterface",
      "outputs": [
        {
          "internalType": "bool",
          "name": "",
          "type": "bool"
        }
      ],
      "stateMutability": "view",
      "type": "function"
    },
    {
      "inputs": [
        {
          "internalType": "uint256",
          "name": "",
          "type": "uint256"
        }
      ],
      "name": "teleporterChainImplAddress",
      "outputs": [
        {
          "internalType": "address",
          "name": "",
          "type": "address"
        }
      ],
      "stateMutability": "view",
      "type": "function"
    },
    {
      "inputs": [
        {
          "internalType": "uint256",
          "name": "",
          "type": "uint256"
        }
      ],
      "name": "teleporterDestBlockchainId",
      "outputs": [
        {
          "internalType": "bytes32",
          "name": "",
          "type": "bytes32"
        }
      ],
      "stateMutability": "view",
      "type": "function"
    },
    {
      "inputs": [
        {
          "internalType": "bytes32",
          "name": "",
          "type": "bytes32"
        }
      ],
      "name": "teleporterDestBlockchainIdToChainId",
      "outputs": [
        {
          "internalType": "uint256",
          "name": "",
          "type": "uint256"
        }
      ],
      "stateMutability": "view",
      "type": "function"
    },
    {
      "inputs": [],
      "name": "teleporterMessenger",
      "outputs": [
        {
          "internalType": "contract ITeleporterMessenger",
          "name": "",
          "type": "address"
        }
      ],
      "stateMutability": "view",
      "type": "function"
    },
    {
      "inputs": [
        {
          "internalType": "address",
          "name": "newOwner",
          "type": "address"
        }
      ],
      "name": "transferOwnership",
      "outputs": [],
      "stateMutability": "nonpayable",
      "type": "function"
    },
    {
      "inputs": [],
      "name": "unpause",
      "outputs": [],
      "stateMutability": "nonpayable",
      "type": "function"
    },
    {
      "inputs": [
        {
          "internalType": "address",
          "name": "newImplementation",
          "type": "address"
        }
      ],
      "name": "upgradeTo",
      "outputs": [],
      "stateMutability": "nonpayable",
      "type": "function"
    },
    {
      "inputs": [
        {
          "internalType": "address",
          "name": "newImplementation",
          "type": "address"
        },
        {
          "internalType": "bytes",
          "name": "data",
          "type": "bytes"
        }
      ],
      "name": "upgradeToAndCall",
      "outputs": [],
      "stateMutability": "payable",
      "type": "function"
    },
    {
      "stateMutability": "payable",
      "type": "receive"
    }
  ],
  "bytecode": "0x60a060405234620000495730608052620000186200004e565b620000226200004e565b604051612ff59081620000f88239608051818181611121015281816112490152611c130152f35b600080fd5b60005460ff8160081c16620000a25760ff808216036200006b5750565b60ff90811916176000557f7f26b83ff96e1f2b6a682f133852f6798a09c465da95921460cefb3847402498602060405160ff8152a1565b60405162461bcd60e51b815260206004820152602760248201527f496e697469616c697a61626c653a20636f6e747261637420697320696e697469604482015266616c697a696e6760c81b6064820152608490fdfe60406080815260049081361015610020575b5050361561001e57600080fd5b005b600091823560e01c9081629fe7521461248257816301ffc9a71461242c5781631459457a146121105781631785f53c1461205c5781631908e8a214612025578163248a9ca314611ffa5781632e0f23c014611fc65781632f2ff15d14611f6357816332495ce114611eca57816336568abe14611e2e5781633659cfe614611beb57816336c5eda41461183d57816338073f0c146118135781633f4ba83a146116de5781634460bdd6146116b55781634835e3cc146116165781634902e4aa146115b65781634b03285a1461151d5781634f1ef286146111ce57816352d1902d1461110b578163572b6c05146110d75781635c975abb146110b0578163604a172c1461106a57816368fa5d9714610fee5781636b2c0f5514610efc5781636ccae05414610e4f5781637048027514610d9a578163715018a614610d3d57816375b238fc14610d1457816382dc1ec414610c0c5781638456cb5914610ac85781638da5cb5b14610a9f57816391d1485414610a5857816395368d2e14610a385781639b3e580314610a0e578163a217fddf146109f3578163b3292ff014610992578163b89b22d714610968578163bd826ed71461093e578163c253829314610915578163c868efaa14610816578163ce1b815f146107ed578163d03c5da0146107c4578163d264a80314610725578163d547741f146106e6578163da74222814610650578163e32bb67b146105ea57838263e42e0ea91461059057508163e5110158146104db578163e63ab1e9146104b2578163f0aa09161461041b578163f2fde38b1461029c575063f72c0d8b03610011573461029857816003193601126102985760209051600080516020612f008339815191528152f35b5080fd5b919050346104175760209081600319360112610413576102ba61251b565b916102c3612acb565b6102cb612acb565b6001600160a01b0392808416156103c157806102e96102ee92612b2e565b6129b7565b6102f6612ea3565b938380610301612ea3565b169516948503610368575084805260fb8152818520848652815260ff828620541661032a578480f35b84805260fb815281852084865290528320805460ff1916905561034b612ea3565b169082600080516020612f808339815191528180a4388080808480f35b915162461bcd60e51b815291820152602f60248201527f416363657373436f6e74726f6c3a2063616e206f6e6c792072656e6f756e636560448201526e103937b632b9903337b91039b2b63360891b6064820152608490fd5b825162461bcd60e51b8152808601839052602660248201527f4f776e61626c653a206e6577206f776e657220697320746865207a65726f206160448201526564647265737360d01b6064820152608490fd5b8380fd5b8280fd5b90503461041757602036600319011261041757356001600160a01b0381811692918390036104135760ff61048492610451612ea3565b600080516020612f60833981519152875260fb60205283828820911687526020528520541690811561049b575b50612e01565b6101f880546001600160a01b031916909117905580f35b603354811691506104aa612ea3565b16143861047e565b50503461029857816003193601126102985760209051600080516020612f408339815191528152f35b505034610298576020366003190112610298576104f661251b565b906104ff612acb565b600080516020612f008339815191529182845260fb6020528184209160018060a01b038092169283865260205260ff81862054161561053c578480f35b83855260fb6020528085208386526020528420600160ff19825416179055610562612ea3565b16917f2f8788117e7eff1d82e926ec794901d17c78024a50270940304540a733656f0d8480a4388080808480f35b915034610298578260031936011261029857356001600160a01b038116908190036102985781808092602435906105c5612acb565b8282156105e1575bf1156105d7575080f35b51903d90823e3d90fd5b506108fc6105cd565b91905034610417576020366003190112610417576106489060ff61060c612ea3565b600080516020612f60833981519152865260fb60209081528387206001600160a01b0392831688529052918520541690811561049b5750612e01565b356101c35580f35b5050346102985760203660031901126102985761066b61251b565b60ff610675612ea3565b600080516020612f60833981519152855260fb60209081528486206001600160a01b0392831687529052928420541680156106cb575b6106b490612e01565b166001600160601b0360a01b609754161760975580f35b506106b48260335416836106dd612ea3565b161490506106ab565b91905034610417578060031936011261041757610722913561071d600161070b612536565b9383875260fb6020528620015461268e565b612a51565b80f35b5050346102985760203660031901126102985761074061251b565b90610749612acb565b600080516020612f008339815191529182845260fb6020528184209160018060a01b038092169283865260205260ff8186205416610785578480f35b83855260fb602052808520838652602052842060ff1981541690556107a8612ea3565b1691600080516020612f808339815191528480a4388080808480f35b9050346104175760203660031901126104175760209282913581526101fa845220549051908152f35b50503461029857816003193601126102985760975490516001600160a01b039091168152602090f35b82843461091257606036600319011261091257610831612536565b506044359267ffffffffffffffff8085116104175736602386011215610417578482013581811161041357366024828801011161041357610870612daa565b6101c4546001600160a01b031690813b1561090e579584918697836108b2985180998195829463e34381a160e01b845260208b85015260248085019201612d89565b03925af18015610904576108de575b84600161012d555160208152806108da602082016125ba565b0390f35b83116108f15750508152818080806108c1565b634e487b7160e01b825260419052602490fd5b85513d85823e3d90fd5b8480fd5b80fd5b9050346104175760203660031901126104175760209282913581526101f9845220549051908152f35b5050346102985781600319360112610298576101c55490516001600160a01b039091168152602090f35b5050346102985781600319360112610298576101c45490516001600160a01b039091168152602090f35b505034610298576020366003190112610298576109ad61251b565b906109b6612acb565b600080516020612f608339815191529182845260fb6020528184209160018060a01b038092169283865260205260ff81862054161561053c578480f35b50503461029857816003193601126102985751908152602090f35b5050346102985781600319360112610298576101f85490516001600160a01b039091168152602090f35b5050346102985781600319360112610298576020906101c3549051908152f35b9050346104175781600319360112610417578160209360ff92610a79612536565b9035825260fb86528282206001600160a01b039091168252855220549151911615158152f35b50503461029857816003193601126102985760335490516001600160a01b039091168152602090f35b838334610298578160031936011261029857610ae2612ea3565b600080516020612f40833981519152835260fb60209081528284206001600160a01b0392831685528152828420549092919060ff168015610bd8575b8015610bbd575b610b2e90612e01565b6097549460ff8660a01c16610b87575060ff60a01b19909416600160a01b1760975591927f62e78cea01bee320cd4e420270b5ea74000d11b0c9f74754ebdbfc544b05a2589290610b7d612ea3565b915191168152a180f35b825162461bcd60e51b8152908101849052601060248201526f14185d5cd8589b194e881c185d5cd95960821b6044820152606490fd5b50610b2e816033541682610bcf612ea3565b16149050610b25565b50610be1612ea3565b600080516020612f60833981519152855260fb84528183862091168552835260ff8285205416610b1e565b505034610298576020908160031936011261041757610c2961251b565b90610c32612ea3565b600080516020612f60833981519152855260fb84528185206001600160a01b03918216865284528185205490919060ff168015610cf9575b610c7390612e01565b600080516020612f408339815191529384865260fb815282828720941693848752815260ff828720541615610ca6578580f35b84865260fb815281862084875290528420805460ff19166001179055610cca612ea3565b16917f2f8788117e7eff1d82e926ec794901d17c78024a50270940304540a733656f0d8480a438808080808580f35b50610c73826033541683610d0b612ea3565b16149050610c6a565b50503461029857816003193601126102985760209051600080516020612fa08339815191528152f35b8334610912578060031936011261091257610d56612acb565b603380546001600160a01b0319811690915581906001600160a01b03167f8be0079c531659141344cd1fd0a4f28419497f9722a3daafe3b4186f6b6457e08280a380f35b505034610298576020908160031936011261041757610db761251b565b90610dc0612ea3565b600080516020612f60833981519152855260fb84528185206001600160a01b03918216865284528185205490919060ff168015610e34575b610e0190612e01565b600080516020612fa08339815191529384865260fb815282828720941693848752815260ff828720541615610ca6578580f35b50610e01826033541683610e46612ea3565b16149050610df8565b91905034610417576060366003190112610417576020610e6d61251b565b6044610e77612536565b94610e80612acb565b845163a9059cbb60e01b81526001600160a01b03968716918101919091528135602482015294859283918891165af1908115610ef35750610ebf575080f35b6020813d8211610eeb575b81610ed760209383612650565b810103126102985751801515036109125780f35b3d9150610eca565b513d84823e3d90fd5b505034610298576020908160031936011261041757610f1961251b565b90610f22612ea3565b600080516020612f60833981519152855260fb84528185206001600160a01b03918216865284528185205490919060ff168015610fd3575b610f6390612e01565b600080516020612f408339815191529384865260fb815282828720941693848752815260ff8287205416610f95578580f35b84865260fb815281862084875290528420805460ff19169055610fb6612ea3565b1691600080516020612f808339815191528480a438808080808580f35b50610f63826033541683610fe5612ea3565b16149050610f5a565b905034610417578160031936011261041757359060243561104e611010612ea3565b600080516020612f60833981519152865260fb60209081528487206001600160a01b03928316885290528386205460ff1690811561049b5750612e01565b8284526101f9602052808285205583526101fa60205282205580f35b905082346109125750602060649261108136612560565b50505162461bcd60e51b815291820152600d60248201526c139bdd0814dd5c1c1bdc9d1959609a1b6044820152fd5b50503461029857816003193601126102985760209060ff60975460a01c1690519015158152f35b505034610298576020366003190112610298576020906110f561251b565b60018060a01b0380609754169116149051908152f35b90508234610912578060031936011261091257507f00000000000000000000000000000000000000000000000000000000000000006001600160a01b031630036111665760208251600080516020612f208339815191528152f35b6020608492519162461bcd60e51b8352820152603860248201527f555550535570677261646561626c653a206d757374206e6f742062652063616c60448201527f6c6564207468726f7567682064656c656761746563616c6c00000000000000006064820152fd5b91809150600319360112610417576111e461251b565b906024359067ffffffffffffffff821161090e573660238301121561090e578184013561121081612672565b61121c83519182612650565b81815286602094858301933660248284010111610417578060248893018637830101526001600160a01b037f000000000000000000000000000000000000000000000000000000000000000081169061127730831415612b77565b611294600080516020612f20833981519152928284541614612bd8565b61129c612ea3565b600080516020612f008339815191528a5260fb875281868b2091168a52865260ff858a2054168015611502575b6112d290612e01565b7f4910fdfa16fed3260ed0e7147f7cc6da11a60208b5b9406d12a635614ffd91435460ff161561130c575050505050506107229150612c39565b869293949596169085516352d1902d60e01b815287818a81865afa8a91816114cf575b5061138e57865162461bcd60e51b8152808a01899052602e60248201527f45524331393637557067726164653a206e657720696d706c656d656e7461746960448201526d6f6e206973206e6f74205555505360901b6064820152608490fd5b97919293969594970361147a57506113a582612c39565b7fbc7cd75a20ee27fd9adebab32041f755214dbc6bffa90cc0225b39da2e5c2d3b8780a285845115801590611472575b6113e3575b50505050505080f35b8061145c968451966113f48861261e565b602788527f416464726573733a206c6f772d6c6576656c2064656c65676174652063616c6c87890152660819985a5b195960ca1b868901525190845af4913d15611468573d61144e61144582612672565b92519283612650565b81528681943d92013e612cc9565b503880808080856113da565b5060609250612cc9565b5060016113d5565b835162461bcd60e51b8152908101859052602960248201527f45524331393637557067726164653a20756e737570706f727465642070726f786044820152681a58589b195555525160ba1b6064820152608490fd5b9091508881813d83116114fb575b6114e78183612650565b810103126114f75751903861132f565b8a80fd5b503d6114dd565b506112d2816033541682611514612ea3565b161490506112c9565b5050346102985760203660031901126102985761153861251b565b9060ff611543612ea3565b600080516020612f60833981519152855260fb60209081528386206001600160a01b03928316875290529184205416801561159b575b61158290612e01565b6101c491166001600160601b0360a01b82541617905580f35b506115828160335416826115ad612ea3565b16149050611579565b505034610298576020366003190112610298576115d161251b565b906115da612acb565b600080516020612f608339815191529182845260fb6020528184209160018060a01b038092169283865260205260ff8186205416610785578480f35b905034610417578160031936011261041757611630612536565b91611639612ea3565b91600080516020612f60833981519152855260fb60205281852060018060a01b03809416865260205260ff8286205416801561169a575b61167990612e01565b3584526101fb602052832091166001600160601b0360a01b82541617905580f35b506116798360335416846116ac612ea3565b16149050611670565b50503461029857816003193601126102985760209051600080516020612f608339815191528152f35b8383346102985781600319360112610298576116f8612ea3565b600080516020612f40833981519152835260fb60209081528284206001600160a01b0392831685528152828420549092919060ff1680156117df575b80156117c4575b61174490612e01565b6097549460ff8660a01c161561178a57507f5db9ee0a495bf2e6ff9c91a7834c1ba4fdd244a5e8aa4e537bd38aeae4b073aa939460ff60a01b1916609755610b7d612ea3565b825162461bcd60e51b8152908101849052601460248201527314185d5cd8589b194e881b9bdd081c185d5cd95960621b6044820152606490fd5b506117448160335416826117d6612ea3565b1614905061173b565b506117e8612ea3565b600080516020612f60833981519152855260fb84528183862091168552835260ff8285205416611734565b5050346102985781600319360112610298576101c65490516001600160a01b039091168152602090f35b91905061184936612560565b9290611853612daa565b61185b612ea3565b6101c4546001600160a01b039190821690821603611b93576080820135918287526101f9956020968088528689205415611b40578651928880850152846118a18261254c565b1688850152888101356060850152878101356080850152606081013560a08501528560c0850152846118d560a0830161254c565b1660e0850152846118e860c0830161254c565b1690610100918286015260e0810135603e1982360301811215611b3c570190610120850152846119178261254c565b1661014085015288810135601e19823603018112156114f75767ffffffffffffffff9391018035908a01848211611b3c578136038113611b3c5761196c869161197a938c610160850152610180840191612d89565b03601f198101865285612650565b80611b3657506101c354905b846101f85416958a52885286892054906101fb895284888b20541688519089820182811086821117611b23578a528b8252348b8301528951938b850185811087821117611b10578b528c85528a519560c0870190811187821017611b10578b528552848b01908152898501918252606085019283526080850193845260a085019586528951630624488560e41b81529889018b90529351602489015292518516604488015291518051851660648801528801516084870152905160a48601525160e060c4860152805161010486018190528794869490938a936101248701939192908801919085905b828210611aee5750505050611a948593928492516023198483030160e48501526125f9565b03925af18015611ae457611aba575b600161012d558151838152806108da8186016125ba565b8290813d8311611add575b611acf8183612650565b810103126104175782611aa3565b503d611ac5565b82513d86823e3d90fd5b8351811686528c998b99508e9750958601959390930192600190910190611a6f565b634e487b7160e01b8e5260418b5260248efd5b634e487b7160e01b8d5260418a5260248dfd5b90611986565b8b80fd5b865162461bcd60e51b8152808701899052602760248201527f54656c65706f72746572204e6f7420617661696c61626c6520666f7220746869604482015266399031b430b4b760c91b6064820152608490fd5b835162461bcd60e51b8152602081850152602c60248201527f4f6e6c792043726f737353796e63476174657761792063616e2063616c6c207460448201526b3434b990333ab731ba34b7b760a11b6064820152608490fd5b919050346104175760208060031936011261041357611c0861251b565b916001600160a01b037f00000000000000000000000000000000000000000000000000000000000000008116611c4030821415612b77565b611c5d600080516020612f20833981519152918383541614612bd8565b611c65612ea3565b600080516020612f00833981519152885260fb85528284892091168852845260ff83882054168015611e13575b611c9b90612e01565b8251908482019282841067ffffffffffffffff851117611e00578385528883527f4910fdfa16fed3260ed0e7147f7cc6da11a60208b5b9406d12a635614ffd91435460ff1615611cf5575050505050506107229150612c39565b869293949596169085516352d1902d60e01b815287818a81865afa8a9181611dd1575b50611d7757865162461bcd60e51b8152808a01899052602e60248201527f45524331393637557067726164653a206e657720696d706c656d656e7461746960448201526d6f6e206973206e6f74205555505360901b6064820152608490fd5b97919293969594970361147a5750611d8e82612c39565b7fbc7cd75a20ee27fd9adebab32041f755214dbc6bffa90cc0225b39da2e5c2d3b8780a285845115801590611dca576113e35750505050505080f35b50806113d5565b9091508881813d8311611df9575b611de98183612650565b810103126114f757519038611d18565b503d611ddf565b634e487b7160e01b895260418852602489fd5b50611c9b826033541683611e25612ea3565b16149050611c92565b83915034610298578260031936011261029857611e49612536565b906001600160a01b0380611e5b612ea3565b1690831603611e6f57906107229135612a51565b608490602085519162461bcd60e51b8352820152602f60248201527f416363657373436f6e74726f6c3a2063616e206f6e6c792072656e6f756e636560448201526e103937b632b9903337b91039b2b63360891b6064820152fd5b50503461029857602036600319011261029857611ee561251b565b9060ff611ef0612ea3565b600080516020612f60833981519152855260fb60209081528386206001600160a01b039283168752905291842054168015611f48575b611f2f90612e01565b6101c691166001600160601b0360a01b82541617905580f35b50611f2f816033541682611f5a612ea3565b16149050611f26565b9050346104175781600319360112610417573590611f7f612536565b82845260fb602052611f966001838620015461268e565b82845260fb60209081528285206001600160a01b0392831680875291528285205490929060ff161561053c578480f35b905034610417576020366003190112610417573582526101fb6020908152918190205490516001600160a01b039091168152f35b905034610417576020366003190112610417578160209360019235815260fb85522001549051908152f35b9050346104175781600319360112610417578160209360ff923581526101fc85528181206024358252855220541690519015158152f35b50503461029857602090816003193601126104175761207961251b565b90612082612ea3565b600080516020612f60833981519152855260fb84528185206001600160a01b03918216865284528185205490919060ff1680156120f5575b6120c390612e01565b600080516020612fa08339815191529384865260fb815282828720941693848752815260ff8287205416610f95578580f35b506120c3826033541683612107612ea3565b161490506120ba565b919050346104175760a03660031901126104175761212c61251b565b612134612536565b6001600160a01b0391906044358381169081900361242857606435918483169485840361242457608435938185168095036124205789549860ff8a60081c161597888099612413575b80156123fc575b156123a257600160ff198c1681178d559a89612391575b506121dd60ff8d5460081c166121b081612e43565b6121b981612e43565b6121c281612e43565b6097805460ff60a01b191690556121d881612e43565b612e43565b6121ed6121e8612ea3565b612b2e565b61222160ff8d5460081c1661220181612e43565b61220a81612e43565b61221381612e43565b8c61012d556121d881612e43565b612229612acb565b1561233f5750806102e961223c92612b2e565b600080516020612fa0833981519152808a5260fb6020528989898220015491600080516020612f608339815191528093818d8d862001557fbd79b86ffe0ab8e8776151514217cd7cacd52c909f66475c3af44e129f0b00ff92838580a4600080516020612f4083398151915290818352838c8c818187200154952001558c80a46001600160601b0360a01b94816101c49116868254161790556101c59116848254161790556101c6908382541617905562015f906101c3556101f891825416179055612306578280f35b825461ff0019168355519081527f7f26b83ff96e1f2b6a682f133852f6798a09c465da95921460cefb384740249890602090a138808280f35b60849060208a519162461bcd60e51b8352820152602660248201527f4f776e61626c653a206e6577206f776e657220697320746865207a65726f206160448201526564647265737360d01b6064820152fd5b61ffff1916610101178c553861219b565b895162461bcd60e51b8152602081840152602e60248201527f496e697469616c697a61626c653a20636f6e747261637420697320616c72656160448201526d191e481a5b9a5d1a585b1a5e995960921b6064820152608490fd5b50303b1580156121845750600160ff8c1614612184565b50600160ff8c161061217d565b8980fd5b8880fd5b8680fd5b90503461041757602036600319011261041757359063ffffffff60e01b82168092036104175760209250637965db0b60e01b8214918215612471575b50519015158152f35b6301ffc9a760e01b14915038612468565b5050346102985760203660031901126102985761249d61251b565b9060ff6124a8612ea3565b600080516020612f60833981519152855260fb60209081528386206001600160a01b039283168752905291842054168015612500575b6124e790612e01565b6101c591166001600160601b0360a01b82541617905580f35b506124e7816033541682612512612ea3565b161490506124de565b600435906001600160a01b038216820361253157565b600080fd5b602435906001600160a01b038216820361253157565b35906001600160a01b038216820361253157565b60031990604081830112612531576004359167ffffffffffffffff8311612531578261010092030112612531576004019060243590565b60005b8381106125aa5750506000910152565b818101518382015260200161259a565b906060519182815260005b8381106125e55750826000602080949584010152601f8019910116010190565b8060209160800151828285010152016125c5565b9060209161261281518092818552858086019101612597565b601f01601f1916010190565b6060810190811067ffffffffffffffff82111761263a57604052565b634e487b7160e01b600052604160045260246000fd5b90601f8019910116810190811067ffffffffffffffff82111761263a57604052565b67ffffffffffffffff811161263a57601f01601f191660200190565b612696612ea3565b9060009080825260209160fb83526040938482209060018060a01b031690818352845260ff8583205416156126cc575050505050565b8451926126d88461261e565b602a845284840190863683378451156129a3576030825384519260019384101561298f576078602187015360295b84811161292557506128e3578651926080840184811067ffffffffffffffff8211176128cf578852604284528684019460603687378451156128bb576030865384518210156128bb5790607860218601536041915b81831161284d5750505061280b576128079386936127eb936127dc6048946127b39a519a8b957f416363657373436f6e74726f6c3a206163636f756e74200000000000000000008c8801525180926037880190612597565b8401917001034b99036b4b9b9b4b733903937b6329607d1b603784015251809386840190612597565b01036028810187520185612650565b5192839262461bcd60e51b8452600484015260248301906125f9565b0390fd5b60648587519062461bcd60e51b825280600483015260248201527f537472696e67733a20686578206c656e67746820696e73756666696369656e746044820152fd5b909192600f811660108110156128a7576f181899199a1a9b1b9c1cb0b131b232b360811b901a61287d8588612d62565b5360041c9280156128935760001901919061275b565b634e487b7160e01b82526011600452602482fd5b634e487b7160e01b83526032600452602483fd5b634e487b7160e01b81526032600452602490fd5b634e487b7160e01b86526041600452602486fd5b60648688519062461bcd60e51b825280600483015260248201527f537472696e67733a20686578206c656e67746820696e73756666696369656e746044820152fd5b90600f8116601081101561297b576f181899199a1a9b1b9c1cb0b131b232b360811b901a6129538389612d62565b5360041c9080156129675760001901612706565b634e487b7160e01b86526011600452602486fd5b634e487b7160e01b87526032600452602487fd5b634e487b7160e01b85526032600452602485fd5b634e487b7160e01b84526032600452602484fd5b6001600160a01b0390811660008181527fc88390e7e62175be0932452175b6a7222b6b094ab0ef984a5153c620345d8975602052604081205490929060ff1615612a0057505050565b82805260fb6020526040832082845260205260408320600160ff19825416179055612a29612ea3565b16917f2f8788117e7eff1d82e926ec794901d17c78024a50270940304540a733656f0d8180a4565b600081815260fb602090815260408083206001600160a01b039586168085529252822054919390929160ff16612a88575b50505050565b600080516020612f808339815191529082855260fb602052604085208486526020526040852060ff198154169055612abe612ea3565b169380a438808080612a82565b6033546001600160a01b0390811690612ae2612ea3565b1603612aea57565b606460405162461bcd60e51b815260206004820152602060248201527f4f776e61626c653a2063616c6c6572206973206e6f7420746865206f776e65726044820152fd5b603380546001600160a01b039283166001600160a01b0319821681179092559091167f8be0079c531659141344cd1fd0a4f28419497f9722a3daafe3b4186f6b6457e0600080a3565b15612b7e57565b60405162461bcd60e51b815260206004820152602c60248201527f46756e6374696f6e206d7573742062652063616c6c6564207468726f7567682060448201526b19195b1959d85d1958d85b1b60a21b6064820152608490fd5b15612bdf57565b60405162461bcd60e51b815260206004820152602c60248201527f46756e6374696f6e206d7573742062652063616c6c6564207468726f7567682060448201526b6163746976652070726f787960a01b6064820152608490fd5b803b15612c6e57600080516020612f2083398151915280546001600160a01b0319166001600160a01b03909216919091179055565b60405162461bcd60e51b815260206004820152602d60248201527f455243313936373a206e657720696d706c656d656e746174696f6e206973206e60448201526c1bdd08184818dbdb9d1c9858dd609a1b6064820152608490fd5b91929015612d2b5750815115612cdd575090565b3b15612ce65790565b60405162461bcd60e51b815260206004820152601d60248201527f416464726573733a2063616c6c20746f206e6f6e2d636f6e74726163740000006044820152606490fd5b825190915015612d3e5750805190602001fd5b60405162461bcd60e51b8152602060048201529081906128079060248301906125f9565b908151811015612d73570160200190565b634e487b7160e01b600052603260045260246000fd5b908060209392818452848401376000828201840152601f01601f1916010190565b61012d6002815414612dbc5760029055565b60405162461bcd60e51b815260206004820152601f60248201527f5265656e7472616e637947756172643a207265656e7472616e742063616c6c006044820152606490fd5b15612e0857565b60405162461bcd60e51b8152602060048201526013602482015272556e617574686f72697a65642041636365737360681b6044820152606490fd5b15612e4a57565b60405162461bcd60e51b815260206004820152602b60248201527f496e697469616c697a61626c653a20636f6e7472616374206973206e6f74206960448201526a6e697469616c697a696e6760a81b6064820152608490fd5b6097546001600160a01b031633148080612ef4575b15612eca575036601319013560601c90565b60143610159081612eec575b5015612ee85736601319013560601c90565b3390565b905038612ed6565b506014361015612eb856fe189ab7a9244df0848122154315af71fe140f3db0fe014031783b0946b8c9d2e3360894a13ba1a3210667c828492db98dca3e2076cc3735a920a3ca505d382bbc65d7a28e3265b37a6474929f336521b332c1681b933f6cb9f3376673440d862a7613a25ecc738585a232ad50a301178f12b3ba8887d13e138b523c4269c47689f6391f5c32d9c69d2a47ea670b442974b53935d1edc7fd64eb21e047a839171ba49807205ce4d355092ef5a8a18f56e8913cf4a201fbe287825b095693c21775a26469706673582212205fc95faa4e83def50085f9d5a7d2c933478a203cc3e02587139f208db85e390a64736f6c63430008110033",
  "linkReferences": {},
  "deployedLinkReferences": {}
}