{
  "_format": "hh-sol-artifact-1",
  "contractName": "Client",
  "sourceName": "@chainlink/contracts-ccip/src/v0.8/ccip/libraries/Client.sol",
  "abi": [
    {
      "inputs": [],
      "name": "EVM_EXTRA_ARGS_V1_TAG",
      "outputs": [
        {
          "internalType": "bytes4",
          "name": "",
          "type": "bytes4"
        }
      ],
      "stateMutability": "view",
      "type": "function"
    }
  ],
  "bytecode": "0x60808060405234601857607b908161001e823930815050f35b600080fdfe6080806040526004361015601257600080fd5b60003560e01c633ab8c0d014602657600080fd5b60003660031901126040576397a657c960e01b8152602090f35b600080fdfea2646970667358221220a63b854bbb54cdff5e133bf3a4863806fb7f0242ec18b0d462d239e242e820c064736f6c63430008110033",
  "linkReferences": {},
  "deployedLinkReferences": {}
}