{
  "_format": "hh-sol-artifact-1",
  "contractName": "HyperlaneImpl",
  "sourceName": "contracts/MessagingImpls/HyperlaneImpl.sol",
  "abi": [
    {
      "inputs": [],
      "stateMutability": "nonpayable",
      "type": "constructor"
    },
    {
      "anonymous": false,
      "inputs": [
        {
          "indexed": false,
          "internalType": "address",
          "name": "previousAdmin",
          "type": "address"
        },
        {
          "indexed": false,
          "internalType": "address",
          "name": "newAdmin",
          "type": "address"
        }
      ],
      "name": "AdminChanged",
      "type": "event"
    },
    {
      "anonymous": false,
      "inputs": [
        {
          "indexed": true,
          "internalType": "address",
          "name": "beacon",
          "type": "address"
        }
      ],
      "name": "BeaconUpgraded",
      "type": "event"
    },
    {
      "anonymous": false,
      "inputs": [
        {
          "indexed": false,
          "internalType": "uint8",
          "name": "version",
          "type": "uint8"
        }
      ],
      "name": "Initialized",
      "type": "event"
    },
    {
      "anonymous": false,
      "inputs": [
        {
          "indexed": true,
          "internalType": "address",
          "name": "previousOwner",
          "type": "address"
        },
        {
          "indexed": true,
          "internalType": "address",
          "name": "newOwner",
          "type": "address"
        }
      ],
      "name": "OwnershipTransferred",
      "type": "event"
    },
    {
      "anonymous": false,
      "inputs": [
        {
          "indexed": false,
          "internalType": "address",
          "name": "account",
          "type": "address"
        }
      ],
      "name": "Paused",
      "type": "event"
    },
    {
      "anonymous": false,
      "inputs": [
        {
          "indexed": true,
          "internalType": "bytes32",
          "name": "role",
          "type": "bytes32"
        },
        {
          "indexed": true,
          "internalType": "bytes32",
          "name": "previousAdminRole",
          "type": "bytes32"
        },
        {
          "indexed": true,
          "internalType": "bytes32",
          "name": "newAdminRole",
          "type": "bytes32"
        }
      ],
      "name": "RoleAdminChanged",
      "type": "event"
    },
    {
      "anonymous": false,
      "inputs": [
        {
          "indexed": true,
          "internalType": "bytes32",
          "name": "role",
          "type": "bytes32"
        },
        {
          "indexed": true,
          "internalType": "address",
          "name": "account",
          "type": "address"
        },
        {
          "indexed": true,
          "internalType": "address",
          "name": "sender",
          "type": "address"
        }
      ],
      "name": "RoleGranted",
      "type": "event"
    },
    {
      "anonymous": false,
      "inputs": [
        {
          "indexed": true,
          "internalType": "bytes32",
          "name": "role",
          "type": "bytes32"
        },
        {
          "indexed": true,
          "internalType": "address",
          "name": "account",
          "type": "address"
        },
        {
          "indexed": true,
          "internalType": "address",
          "name": "sender",
          "type": "address"
        }
      ],
      "name": "RoleRevoked",
      "type": "event"
    },
    {
      "anonymous": false,
      "inputs": [
        {
          "indexed": false,
          "internalType": "address",
          "name": "account",
          "type": "address"
        }
      ],
      "name": "Unpaused",
      "type": "event"
    },
    {
      "anonymous": false,
      "inputs": [
        {
          "indexed": true,
          "internalType": "address",
          "name": "implementation",
          "type": "address"
        }
      ],
      "name": "Upgraded",
      "type": "event"
    },
    {
      "inputs": [],
      "name": "ADMIN_ROLE",
      "outputs": [
        {
          "internalType": "bytes32",
          "name": "",
          "type": "bytes32"
        }
      ],
      "stateMutability": "view",
      "type": "function"
    },
    {
      "inputs": [],
      "name": "DEFAULT_ADMIN_ROLE",
      "outputs": [
        {
          "internalType": "bytes32",
          "name": "",
          "type": "bytes32"
        }
      ],
      "stateMutability": "view",
      "type": "function"
    },
    {
      "inputs": [],
      "name": "PAUSER_ROLE",
      "outputs": [
        {
          "internalType": "bytes32",
          "name": "",
          "type": "bytes32"
        }
      ],
      "stateMutability": "view",
      "type": "function"
    },
    {
      "inputs": [],
      "name": "SUPER_ADMIN_ROLE",
      "outputs": [
        {
          "internalType": "bytes32",
          "name": "",
          "type": "bytes32"
        }
      ],
      "stateMutability": "view",
      "type": "function"
    },
    {
      "inputs": [],
      "name": "UPGRADER_ROLE",
      "outputs": [
        {
          "internalType": "bytes32",
          "name": "",
          "type": "bytes32"
        }
      ],
      "stateMutability": "view",
      "type": "function"
    },
    {
      "inputs": [
        {
          "internalType": "address",
          "name": "_admin",
          "type": "address"
        }
      ],
      "name": "addAdmin",
      "outputs": [],
      "stateMutability": "nonpayable",
      "type": "function"
    },
    {
      "inputs": [
        {
          "internalType": "address",
          "name": "account",
          "type": "address"
        }
      ],
      "name": "addPauser",
      "outputs": [],
      "stateMutability": "nonpayable",
      "type": "function"
    },
    {
      "inputs": [
        {
          "internalType": "address",
          "name": "_superAdmin",
          "type": "address"
        }
      ],
      "name": "addSuperAdmin",
      "outputs": [],
      "stateMutability": "nonpayable",
      "type": "function"
    },
    {
      "inputs": [
        {
          "internalType": "address",
          "name": "_upgrader",
          "type": "address"
        }
      ],
      "name": "addUpgrader",
      "outputs": [],
      "stateMutability": "nonpayable",
      "type": "function"
    },
    {
      "inputs": [],
      "name": "crossSyncGatewayAddress",
      "outputs": [
        {
          "internalType": "address",
          "name": "",
          "type": "address"
        }
      ],
      "stateMutability": "view",
      "type": "function"
    },
    {
      "inputs": [],
      "name": "defaultGasLimit",
      "outputs": [
        {
          "internalType": "uint256",
          "name": "",
          "type": "uint256"
        }
      ],
      "stateMutability": "view",
      "type": "function"
    },
    {
      "inputs": [
        {
          "components": [
            {
              "internalType": "address",
              "name": "sender",
              "type": "address"
            },
            {
              "internalType": "uint256",
              "name": "nonce",
              "type": "uint256"
            },
            {
              "internalType": "uint256",
              "name": "messagingRouteId",
              "type": "uint256"
            },
            {
              "internalType": "uint256",
              "name": "sourceChainId",
              "type": "uint256"
            },
            {
              "internalType": "uint256",
              "name": "destinationChainId",
              "type": "uint256"
            },
            {
              "internalType": "address",
              "name": "sourceGatewayAddress",
              "type": "address"
            },
            {
              "internalType": "address",
              "name": "destinationGatewayAddress",
              "type": "address"
            },
            {
              "components": [
                {
                  "internalType": "address",
                  "name": "to",
                  "type": "address"
                },
                {
                  "internalType": "bytes",
                  "name": "data",
                  "type": "bytes"
                }
              ],
              "internalType": "struct ICrossSyncGateway.MessagingPayload",
              "name": "payload",
              "type": "tuple"
            }
          ],
          "internalType": "struct IMessagingImpl.ICrossSyncMessagingData",
          "name": "_data",
          "type": "tuple"
        },
        {
          "internalType": "uint256",
          "name": "_gasLimit",
          "type": "uint256"
        }
      ],
      "name": "executeSendMessage",
      "outputs": [
        {
          "internalType": "bytes",
          "name": "",
          "type": "bytes"
        }
      ],
      "stateMutability": "payable",
      "type": "function"
    },
    {
      "inputs": [
        {
          "components": [
            {
              "internalType": "address",
              "name": "sender",
              "type": "address"
            },
            {
              "internalType": "uint256",
              "name": "nonce",
              "type": "uint256"
            },
            {
              "internalType": "uint256",
              "name": "messagingRouteId",
              "type": "uint256"
            },
            {
              "internalType": "uint256",
              "name": "sourceChainId",
              "type": "uint256"
            },
            {
              "internalType": "uint256",
              "name": "destinationChainId",
              "type": "uint256"
            },
            {
              "internalType": "address",
              "name": "sourceGatewayAddress",
              "type": "address"
            },
            {
              "internalType": "address",
              "name": "destinationGatewayAddress",
              "type": "address"
            },
            {
              "components": [
                {
                  "internalType": "address",
                  "name": "to",
                  "type": "address"
                },
                {
                  "internalType": "bytes",
                  "name": "data",
                  "type": "bytes"
                }
              ],
              "internalType": "struct ICrossSyncGateway.MessagingPayload",
              "name": "payload",
              "type": "tuple"
            }
          ],
          "internalType": "struct IMessagingImpl.ICrossSyncMessagingData",
          "name": "_data",
          "type": "tuple"
        },
        {
          "internalType": "uint256",
          "name": "_gasLimit",
          "type": "uint256"
        }
      ],
      "name": "getFee",
      "outputs": [
        {
          "internalType": "uint256",
          "name": "",
          "type": "uint256"
        }
      ],
      "stateMutability": "view",
      "type": "function"
    },
    {
      "inputs": [
        {
          "internalType": "bytes32",
          "name": "role",
          "type": "bytes32"
        }
      ],
      "name": "getRoleAdmin",
      "outputs": [
        {
          "internalType": "bytes32",
          "name": "",
          "type": "bytes32"
        }
      ],
      "stateMutability": "view",
      "type": "function"
    },
    {
      "inputs": [],
      "name": "getTrustedForwarder",
      "outputs": [
        {
          "internalType": "address",
          "name": "forwarder",
          "type": "address"
        }
      ],
      "stateMutability": "view",
      "type": "function"
    },
    {
      "inputs": [
        {
          "internalType": "bytes32",
          "name": "role",
          "type": "bytes32"
        },
        {
          "internalType": "address",
          "name": "account",
          "type": "address"
        }
      ],
      "name": "grantRole",
      "outputs": [],
      "stateMutability": "nonpayable",
      "type": "function"
    },
    {
      "inputs": [
        {
          "internalType": "uint32",
          "name": "_origin",
          "type": "uint32"
        },
        {
          "internalType": "bytes32",
          "name": "_sender",
          "type": "bytes32"
        },
        {
          "internalType": "bytes",
          "name": "_body",
          "type": "bytes"
        }
      ],
      "name": "handle",
      "outputs": [],
      "stateMutability": "nonpayable",
      "type": "function"
    },
    {
      "inputs": [
        {
          "internalType": "bytes32",
          "name": "role",
          "type": "bytes32"
        },
        {
          "internalType": "address",
          "name": "account",
          "type": "address"
        }
      ],
      "name": "hasRole",
      "outputs": [
        {
          "internalType": "bool",
          "name": "",
          "type": "bool"
        }
      ],
      "stateMutability": "view",
      "type": "function"
    },
    {
      "inputs": [
        {
          "internalType": "uint256",
          "name": "",
          "type": "uint256"
        }
      ],
      "name": "hyperlaneChainDomain",
      "outputs": [
        {
          "internalType": "uint32",
          "name": "",
          "type": "uint32"
        }
      ],
      "stateMutability": "view",
      "type": "function"
    },
    {
      "inputs": [
        {
          "internalType": "uint32",
          "name": "",
          "type": "uint32"
        }
      ],
      "name": "hyperlaneChainDomainToChainId",
      "outputs": [
        {
          "internalType": "uint256",
          "name": "",
          "type": "uint256"
        }
      ],
      "stateMutability": "view",
      "type": "function"
    },
    {
      "inputs": [
        {
          "internalType": "uint256",
          "name": "",
          "type": "uint256"
        }
      ],
      "name": "hyperlaneChainImplAddress",
      "outputs": [
        {
          "internalType": "address",
          "name": "",
          "type": "address"
        }
      ],
      "stateMutability": "view",
      "type": "function"
    },
    {
      "inputs": [],
      "name": "hyperlaneMailBox",
      "outputs": [
        {
          "internalType": "contract HyperlaneMailBox",
          "name": "",
          "type": "address"
        }
      ],
      "stateMutability": "view",
      "type": "function"
    },
    {
      "inputs": [
        {
          "internalType": "address",
          "name": "_crossSyncGatewayAddress",
          "type": "address"
        },
        {
          "internalType": "address",
          "name": "_nativeCurrencyWrappedAddress",
          "type": "address"
        },
        {
          "internalType": "address",
          "name": "_nativeCurrencyAddress",
          "type": "address"
        },
        {
          "internalType": "address",
          "name": "_owner",
          "type": "address"
        },
        {
          "internalType": "address",
          "name": "_hyperlaneMailBoxAddress",
          "type": "address"
        }
      ],
      "name": "initialize",
      "outputs": [],
      "stateMutability": "nonpayable",
      "type": "function"
    },
    {
      "inputs": [
        {
          "internalType": "address",
          "name": "forwarder",
          "type": "address"
        }
      ],
      "name": "isTrustedForwarder",
      "outputs": [
        {
          "internalType": "bool",
          "name": "",
          "type": "bool"
        }
      ],
      "stateMutability": "view",
      "type": "function"
    },
    {
      "inputs": [],
      "name": "nativeCurrencyAddress",
      "outputs": [
        {
          "internalType": "address",
          "name": "",
          "type": "address"
        }
      ],
      "stateMutability": "view",
      "type": "function"
    },
    {
      "inputs": [],
      "name": "nativeCurrencyWrappedAddress",
      "outputs": [
        {
          "internalType": "address",
          "name": "",
          "type": "address"
        }
      ],
      "stateMutability": "view",
      "type": "function"
    },
    {
      "inputs": [],
      "name": "owner",
      "outputs": [
        {
          "internalType": "address",
          "name": "",
          "type": "address"
        }
      ],
      "stateMutability": "view",
      "type": "function"
    },
    {
      "inputs": [],
      "name": "pause",
      "outputs": [],
      "stateMutability": "nonpayable",
      "type": "function"
    },
    {
      "inputs": [],
      "name": "paused",
      "outputs": [
        {
          "internalType": "bool",
          "name": "",
          "type": "bool"
        }
      ],
      "stateMutability": "view",
      "type": "function"
    },
    {
      "inputs": [],
      "name": "proxiableUUID",
      "outputs": [
        {
          "internalType": "bytes32",
          "name": "",
          "type": "bytes32"
        }
      ],
      "stateMutability": "view",
      "type": "function"
    },
    {
      "inputs": [
        {
          "internalType": "address",
          "name": "_admin",
          "type": "address"
        }
      ],
      "name": "removeAdmin",
      "outputs": [],
      "stateMutability": "nonpayable",
      "type": "function"
    },
    {
      "inputs": [
        {
          "internalType": "address",
          "name": "_pauser",
          "type": "address"
        }
      ],
      "name": "removePauser",
      "outputs": [],
      "stateMutability": "nonpayable",
      "type": "function"
    },
    {
      "inputs": [
        {
          "internalType": "address",
          "name": "_superAdmin",
          "type": "address"
        }
      ],
      "name": "removeSuperAdmin",
      "outputs": [],
      "stateMutability": "nonpayable",
      "type": "function"
    },
    {
      "inputs": [
        {
          "internalType": "address",
          "name": "_upgrader",
          "type": "address"
        }
      ],
      "name": "removeUpgrader",
      "outputs": [],
      "stateMutability": "nonpayable",
      "type": "function"
    },
    {
      "inputs": [],
      "name": "renounceOwnership",
      "outputs": [],
      "stateMutability": "nonpayable",
      "type": "function"
    },
    {
      "inputs": [
        {
          "internalType": "bytes32",
          "name": "role",
          "type": "bytes32"
        },
        {
          "internalType": "address",
          "name": "account",
          "type": "address"
        }
      ],
      "name": "renounceRole",
      "outputs": [],
      "stateMutability": "nonpayable",
      "type": "function"
    },
    {
      "inputs": [
        {
          "internalType": "address payable",
          "name": "userAddress",
          "type": "address"
        },
        {
          "internalType": "uint256",
          "name": "amount",
          "type": "uint256"
        }
      ],
      "name": "rescueEther",
      "outputs": [],
      "stateMutability": "nonpayable",
      "type": "function"
    },
    {
      "inputs": [
        {
          "internalType": "address",
          "name": "token",
          "type": "address"
        },
        {
          "internalType": "address",
          "name": "userAddress",
          "type": "address"
        },
        {
          "internalType": "uint256",
          "name": "amount",
          "type": "uint256"
        }
      ],
      "name": "rescueFunds",
      "outputs": [],
      "stateMutability": "nonpayable",
      "type": "function"
    },
    {
      "inputs": [
        {
          "internalType": "bytes32",
          "name": "role",
          "type": "bytes32"
        },
        {
          "internalType": "address",
          "name": "account",
          "type": "address"
        }
      ],
      "name": "revokeRole",
      "outputs": [],
      "stateMutability": "nonpayable",
      "type": "function"
    },
    {
      "inputs": [
        {
          "internalType": "address",
          "name": "_crossSyncGatewayAddress",
          "type": "address"
        }
      ],
      "name": "setCrossSyncGatewayAddress",
      "outputs": [],
      "stateMutability": "nonpayable",
      "type": "function"
    },
    {
      "inputs": [
        {
          "internalType": "uint256",
          "name": "_defaultGasLimit",
          "type": "uint256"
        }
      ],
      "name": "setDefaultGasLimit",
      "outputs": [],
      "stateMutability": "nonpayable",
      "type": "function"
    },
    {
      "inputs": [
        {
          "internalType": "uint256",
          "name": "_chainId",
          "type": "uint256"
        },
        {
          "internalType": "uint32",
          "name": "_chainDomain",
          "type": "uint32"
        }
      ],
      "name": "setHyperlaneChainDomain",
      "outputs": [],
      "stateMutability": "nonpayable",
      "type": "function"
    },
    {
      "inputs": [
        {
          "internalType": "uint256",
          "name": "_chainId",
          "type": "uint256"
        },
        {
          "internalType": "address",
          "name": "_chainImplAddress",
          "type": "address"
        }
      ],
      "name": "setHyperlaneChainImplAddress",
      "outputs": [],
      "stateMutability": "nonpayable",
      "type": "function"
    },
    {
      "inputs": [
        {
          "internalType": "contract HyperlaneMailBox",
          "name": "_mailBox",
          "type": "address"
        }
      ],
      "name": "setHyperlaneMailBox",
      "outputs": [],
      "stateMutability": "nonpayable",
      "type": "function"
    },
    {
      "inputs": [
        {
          "internalType": "address",
          "name": "_nativeCurrencyAddress",
          "type": "address"
        }
      ],
      "name": "setNativeCurrencyAddress",
      "outputs": [],
      "stateMutability": "nonpayable",
      "type": "function"
    },
    {
      "inputs": [
        {
          "internalType": "address",
          "name": "_nativeCurrencyWrappedAddress",
          "type": "address"
        }
      ],
      "name": "setNativeCurrencyWrappedAddress",
      "outputs": [],
      "stateMutability": "nonpayable",
      "type": "function"
    },
    {
      "inputs": [
        {
          "internalType": "address",
          "name": "_newtrustedForwarder",
          "type": "address"
        }
      ],
      "name": "setTrustedForwarder",
      "outputs": [],
      "stateMutability": "nonpayable",
      "type": "function"
    },
    {
      "inputs": [
        {
          "internalType": "bytes4",
          "name": "interfaceId",
          "type": "bytes4"
        }
      ],
      "name": "supportsInterface",
      "outputs": [
        {
          "internalType": "bool",
          "name": "",
          "type": "bool"
        }
      ],
      "stateMutability": "view",
      "type": "function"
    },
    {
      "inputs": [
        {
          "internalType": "address",
          "name": "newOwner",
          "type": "address"
        }
      ],
      "name": "transferOwnership",
      "outputs": [],
      "stateMutability": "nonpayable",
      "type": "function"
    },
    {
      "inputs": [],
      "name": "unpause",
      "outputs": [],
      "stateMutability": "nonpayable",
      "type": "function"
    },
    {
      "inputs": [
        {
          "internalType": "address",
          "name": "newImplementation",
          "type": "address"
        }
      ],
      "name": "upgradeTo",
      "outputs": [],
      "stateMutability": "nonpayable",
      "type": "function"
    },
    {
      "inputs": [
        {
          "internalType": "address",
          "name": "newImplementation",
          "type": "address"
        },
        {
          "internalType": "bytes",
          "name": "data",
          "type": "bytes"
        }
      ],
      "name": "upgradeToAndCall",
      "outputs": [],
      "stateMutability": "payable",
      "type": "function"
    },
    {
      "stateMutability": "payable",
      "type": "receive"
    }
  ],
  "bytecode": "0x60a060405234620000495730608052620000186200004e565b620000226200004e565b6040516134ec9081620000f8823960805181818161132a0152818161142a0152611d460152f35b600080fd5b60005460ff8160081c16620000a25760ff808216036200006b5750565b60ff90811916176000557f7f26b83ff96e1f2b6a682f133852f6798a09c465da95921460cefb3847402498602060405160ff8152a1565b60405162461bcd60e51b815260206004820152602760248201527f496e697469616c697a61626c653a20636f6e747261637420697320696e697469604482015266616c697a696e6760c81b6064820152608490fdfe6040610100815260049081361015610021575b5050361561001f57600080fd5b005b600091823560e01c9081629fe7521461275057816301ffc9a7146126fa5781630c960a11146126c65781631459457a146123b25781631785f53c146122c0578163248a9ca31461229557816326a11fe0146122005781632f2ff15d1461215b57816332495ce1146120c257816336568abe146120265781633659cfe614611d1e57816336c5eda4146119f557816338073f0c146119cb5781633f4ba83a146118965781634460bdd61461186d5781634902e4aa146117ce5781634aa8705e146117995781634b03285a146117005781634f1ef286146113d757816352d1902d1461131457816356d5d475146110ec578163572b6c05146110b85781635c975abb14611091578163604a172c14610f765781636b2c0f5514610e7c5781636ccae05414610dcf5781637048027514610d17578163715018a614610cb657816375b238fc14610c8d57816382dc1ec414610b8f5781638456cb5914610a4b5781638da5cb5b14610a2257816391d14854146109dc57816395368d2e146109bc578163990501061461093b5781639de272721461090c578163a217fddf146108f1578163b3292ff01461088c578163b89b22d714610862578163bd826ed714610838578163c822ef3b1461080e578163ce1b815f146107e5578163d264a8031461073d578163d547741f146106fe578163da74222814610668578163e19b8776146105c7578163e32bb67b1461054957838263e42e0ea9146104ef57508163e511015814610443578163e63ab1e91461041a578163f2fde38b14610292575063f72c0d8b03610012573461028e578160031936011261028e57602090516000805160206133f78339815191528152f35b5080fd5b919050346104165760209081600319360112610412576102b06127e9565b916102b9612da1565b6102c1612da1565b6001600160a01b0392808416156103c057806102df6102e492612e04565b612c9f565b6102ec61337a565b9383806102f761337a565b16951694850361036757506000805260fb81528160002084600052815260ff826000205416610324578480f35b6000805260fb81528160002090846000525260002060ff19815416905561034961337a565b169060006000805160206134778339815191528180a4388080808480f35b915162461bcd60e51b815291820152602f60248201527f416363657373436f6e74726f6c3a2063616e206f6e6c792072656e6f756e636560448201526e103937b632b9903337b91039b2b63360891b6064820152608490fd5b825162461bcd60e51b8152808601839052602660248201527f4f776e61626c653a206e6577206f776e657220697320746865207a65726f206160448201526564647265737360d01b6064820152608490fd5b8380fd5b8280fd5b50503461028e578160031936011261028e57602090516000805160206134378339815191528152f35b50503461028e57602036600319011261028e5761045e6127e9565b90610467612da1565b6000805160206133f7833981519152918260005260fb602052816000209160018060a01b03809216928360005260205260ff816000205416156104a8578480f35b8360005260fb6020528060002083600052602052600020600160ff198254161790556104d261337a565b16916000805160206133d7833981519152600080a4388080808480f35b91503461028e578260031936011261028e57356001600160a01b0381169081900361028e578180809260243590610524612da1565b828215610540575bf115610536575080f35b51903d90823e3d90fd5b506108fc61052c565b91905034610416576020366003190112610416576105a89060ff61056b61337a565b91600080516020613457833981519152865260fb60205280862060018060a01b0380941660005260205260002054169081156105b0575b506132d8565b356101c35580f35b603354811691506105bf61337a565b1614386105a2565b9050346104165781600319360112610416576105e16127ff565b916105ea61337a565b91600080516020613457833981519152855260fb60205281852060018060a01b0380941660005260205260ff826000205416801561064d575b61062c906132d8565b3584526101fb602052832091166001600160601b0360a01b82541617905580f35b5061062c83603354168461065f61337a565b16149050610623565b50503461028e57602036600319011261028e576106836127e9565b60ff61068d61337a565b92600080516020613457833981519152855260fb60205280852060018060a01b03809516600052602052600020541680156106e3575b6106cc906132d8565b166001600160601b0360a01b609754161760975580f35b506106cc8260335416836106f561337a565b161490506106c3565b9190503461041657806003193601126104165761073a913561073560016107236127ff565b9383875260fb60205286200154612976565b612d27565b80f35b50503461028e57602036600319011261028e576107586127e9565b90610761612da1565b6000805160206133f7833981519152918260005260fb602052816000209160018060a01b03809216928360005260205260ff8160002054166107a1578480f35b8360005260fb602052806000208360005260205260002060ff1981541690556107c861337a565b1691600080516020613477833981519152600080a4388080808480f35b50503461028e578160031936011261028e5760975490516001600160a01b039091168152602090f35b50503461028e578160031936011261028e576101f85490516001600160a01b039091168152602090f35b50503461028e578160031936011261028e576101c55490516001600160a01b039091168152602090f35b50503461028e578160031936011261028e576101c45490516001600160a01b039091168152602090f35b50503461028e57602036600319011261028e576108a76127e9565b906108b0612da1565b600080516020613457833981519152918260005260fb602052816000209160018060a01b03809216928360005260205260ff816000205416156104a8578480f35b50503461028e578160031936011261028e5751908152602090f35b905034610416576020366003190112610416578160209363ffffffff923581526101f985522054169051908152f35b90503461041657602036600319011261041657356001600160a01b0381811692918390036104125760ff6109a59261097161337a565b600080516020613457833981519152875260fb60205283828820911660005260205260002054169081156105b057506132d8565b6101f880546001600160a01b031916909117905580f35b50503461028e578160031936011261028e576020906101c3549051908152f35b905034610416578160031936011261041657816020936109fa6127ff565b9235815260fb8552209060018060a01b0316600052825260ff81600020541690519015158152f35b50503461028e578160031936011261028e5760335490516001600160a01b039091168152602090f35b83833461028e578160031936011261028e57610a6561337a565b90600080516020613437833981519152835260209160fb835281842060018060a01b03809216600052835260ff8260002054168015610b59575b8015610b3e575b610aaf906132d8565b6097549460ff8660a01c16610b08575060ff60a01b19909416600160a01b1760975591927f62e78cea01bee320cd4e420270b5ea74000d11b0c9f74754ebdbfc544b05a2589290610afe61337a565b915191168152a180f35b825162461bcd60e51b8152908101849052601060248201526f14185d5cd8589b194e881c185d5cd95960821b6044820152606490fd5b50610aaf816033541682610b5061337a565b16149050610aa6565b50610b6261337a565b600080516020613457833981519152855260fb8452818386209116600052835260ff826000205416610a9f565b50503461028e576020908160031936011261041657610bac6127e9565b90610bb561337a565b90600080516020613457833981519152855260fb845280852060018060a01b03809316600052845260ff8160002054168015610c72575b610bf5906132d8565b600080516020613437833981519152938460005260fb8152828260002094169384600052815260ff82600020541615610c2c578580f35b8460005260fb815281600020908460005252600020600160ff19825416179055610c5461337a565b16916000805160206133d7833981519152600080a438808080808580f35b50610bf5826033541683610c8461337a565b16149050610bec565b50503461028e578160031936011261028e57602090516000805160206134978339815191528152f35b8334610d145780600319360112610d1457610ccf612da1565b603380546001600160a01b031981169091556000906001600160a01b03167f8be0079c531659141344cd1fd0a4f28419497f9722a3daafe3b4186f6b6457e08280a380f35b80fd5b50503461028e576020908160031936011261041657610d346127e9565b90610d3d61337a565b90600080516020613457833981519152855260fb845280852060018060a01b03809316600052845260ff8160002054168015610db4575b610d7d906132d8565b600080516020613497833981519152938460005260fb8152828260002094169384600052815260ff82600020541615610c2c578580f35b50610d7d826033541683610dc661337a565b16149050610d74565b91905034610416576060366003190112610416576020610ded6127e9565b6044610df76127ff565b94610e00612da1565b845163a9059cbb60e01b81526001600160a01b03968716918101919091528135602482015294859283918891165af1908115610e735750610e3f575080f35b6020813d8211610e6b575b81610e5760209383612901565b8101031261028e575180151503610d145780f35b3d9150610e4a565b513d84823e3d90fd5b50503461028e576020908160031936011261041657610e996127e9565b90610ea261337a565b90600080516020613457833981519152855260fb845280852060018060a01b03809316600052845260ff8160002054168015610f5b575b610ee2906132d8565b600080516020613437833981519152938460005260fb8152828260002094169384600052815260ff826000205416610f18578580f35b8460005260fb81528160002090846000525260002060ff198154169055610f3d61337a565b1691600080516020613477833981519152600080a438808080808580f35b50610ee2826033541683610f6d61337a565b16149050610ed9565b83833461028e57610f863661283c565b90936080850135948585526101f995602096879381855261103061101663ffffffff610fb8818b8d205416151561305f565b895198610fd98a610fcb8a8c83016130db565b03601f1981018c528b612901565b806110875750610fec6101c354976131bf565b9060018060a01b0395866101f85416978d5289528a8c205416946101fb89528a8c20541696613260565b885163f7ccd32160e01b81529788968795869586016131d3565b03915afa92831561107c5792611048575b5051908152f35b9091508281813d8311611075575b6110608183612901565b8101031261107057519083611041565b600080fd5b503d611056565b8251903d90823e3d90fd5b610fec90976131bf565b50503461028e578160031936011261028e5760209060ff60975460a01c1690519015158152f35b50503461028e57602036600319011261028e576020906110d66127e9565b60018060a01b0380609754169116149051908152f35b9190503461041657606036600319011261041657611108612829565b67ffffffffffffffff9260443591848311611218573660238401121561121857828201359485116112185760249283810190848736920101116113105761114d613209565b6101f8546001600160a01b039290831633036112a85763ffffffff1687526020916101fb83528086892054168535036112565761118b36888461293f565b8381519101208089526101fc9081855260ff888b20541661121c5789528352858820805460ff191660011790556101c4548895949116929190833b15611218576111ee86928851998a978896879563e34381a160e01b87528601528401916130ba565b03925af1908115610e735750611209575b50600161012d5580f35b611212906128bb565b386111ff565b8580fd5b875162461bcd60e51b8152808701869052601581890152744d65737361676520616c7265616479207365656e2160581b6044820152606490fd5b855162461bcd60e51b81528085018490526027818701527f48797065726c616e65496d706c3a2053656e646572206973206e6f74207265676044820152661a5cdd195c995960ca1b6064820152608490fd5b855162461bcd60e51b8152602081860152603b818701527f48797065726c616e65496d706c3a204f6e6c792048797065726c616e654d616960448201527f6c426f782063616e2063616c6c20746869732066756e6374696f6e00000000006064820152608490fd5b8680fd5b90508234610d145780600319360112610d1457507f00000000000000000000000000000000000000000000000000000000000000006001600160a01b0316300361136f57602082516000805160206134178339815191528152f35b6020608492519162461bcd60e51b8352820152603860248201527f555550535570677261646561626c653a206d757374206e6f742062652063616c60448201527f6c6564207468726f7567682064656c656761746563616c6c00000000000000006064820152fd5b91809150600319360112610416576113ed6127e9565b9060243567ffffffffffffffff81116116fc57366023820112156116fc5761141e903690602481870135910161293f565b6001600160a01b0391907f0000000000000000000000000000000000000000000000000000000000000000831661145730821415612e4d565b611474600080516020613417833981519152918583541614612eae565b61147c61337a565b936000805160206133f7833981519152885260209460fb865281858a2091168952855260ff848920541680156116e1575b6114b6906132d8565b7f4910fdfa16fed3260ed0e7147f7cc6da11a60208b5b9406d12a635614ffd91435460ff16156114ef57505050505061073a9150612f0f565b85939495169084516352d1902d60e01b815286818981865afa8991816116ae575b5061156f57855162461bcd60e51b8152808901889052602e60248201527f45524331393637557067726164653a206e657720696d706c656d656e7461746960448201526d6f6e206973206e6f74205555505360901b6064820152608490fd5b9691929594939603611659575061158585612f0f565b7fbc7cd75a20ee27fd9adebab32041f755214dbc6bffa90cc0225b39da2e5c2d3b8680a2825115801590611651575b6115c0575b5050505080f35b61163d9385808351956115d2876128e5565b602787527f416464726573733a206c6f772d6c6576656c2064656c65676174652063616c6c86880152660819985a5b195960ca1b858801528581519101845af4913d15611647573d61162f61162682612923565b92519283612901565b81528681943d92013e612f9f565b50388080806115b9565b5060609250612f9f565b5060016115b4565b825162461bcd60e51b8152908101849052602960248201527f45524331393637557067726164653a20756e737570706f727465642070726f786044820152681a58589b195555525160ba1b6064820152608490fd5b9091508781813d83116116da575b6116c68183612901565b810103126116d657519038611510565b8980fd5b503d6116bc565b506114b68160335416826116f361337a565b161490506114ad565b8480fd5b50503461028e57602036600319011261028e5761171b6127e9565b9060ff61172661337a565b600080516020613457833981519152855260fb60209081528386206001600160a01b03928316875290529184205416801561177e575b611765906132d8565b6101c491166001600160601b0360a01b82541617905580f35b5061176581603354168261179061337a565b1614905061175c565b50503461028e57602036600319011261028e578060209263ffffffff6117bd612829565b1681526101fa845220549051908152f35b50503461028e57602036600319011261028e576117e96127e9565b906117f2612da1565b6000805160206134578339815191529182845260fb6020528184209160018060a01b038092169283865260205260ff818620541661182e578480f35b83855260fb602052808520838652602052842060ff19815416905561185161337a565b16916000805160206134778339815191528480a4388080808480f35b50503461028e578160031936011261028e57602090516000805160206134578339815191528152f35b83833461028e578160031936011261028e576118b061337a565b600080516020613437833981519152835260fb60209081528284206001600160a01b0392831685528152828420549092919060ff168015611997575b801561197c575b6118fc906132d8565b6097549460ff8660a01c161561194257507f5db9ee0a495bf2e6ff9c91a7834c1ba4fdd244a5e8aa4e537bd38aeae4b073aa939460ff60a01b1916609755610afe61337a565b825162461bcd60e51b8152908101849052601460248201527314185d5cd8589b194e881b9bdd081c185d5cd95960621b6044820152606490fd5b506118fc81603354168261198e61337a565b161490506118f3565b506119a061337a565b600080516020613457833981519152855260fb84528183862091168552835260ff82852054166118ec565b50503461028e578160031936011261028e576101c65490516001600160a01b039091168152602090f35b8383611a003661283c565b90611a09613209565b611a1161337a565b6101c4546001600160a01b039190821690821603611cc6576080820135908186526101f9602060e0528060e0515263ffffffff97611a5589888a205416151561305f565b3415611c815786519586611a6d8760e05183016130db565b0360a052601f1960c05260c05160a051018752611a8c60a05188612901565b80611c775750611a9f6101c354956131bf565b988992846101f8541695808b528160e051528a89611ad4888d878186205416946101fb8060805260e05152205416978b613260565b96611af58d51988993849363f7ccd32160e01b855260e051968b86016131d3565b03818a5afa948515611c6d578b95611c33575b50844710611bd757918a9b91611b39938c9a9b9c5260e051528a892054169460805160e051528a8920541696613260565b843b1561131057611b5e9089519889978896879563122bba3560e21b875286016131d3565b03925af18015611bcb57611bbc575b50600161012d5580519060e05182526060518060e051840152835b818110611ba85750808483859384010152601f60c0519101168101030190f35b806080015183828601015260e05101611b88565b611bc5906128bb565b82611b6d565b505051903d90823e3d90fd5b895162461bcd60e51b815260e05181860152602f60248201527f496e73756666696369656e742066756e647320746f2073656e64206d6573736160448201526e6765206173207065722071756f746560881b6064820152608490fd5b90945060e0513d60e05111611c66575b611c4d8183612901565b8160e0519181010312611c625751938c611b08565b8a80fd5b503d611c43565b8a513d8d823e3d90fd5b611a9f90956131bf565b60649087519062461bcd60e51b825260e05190820152601760248201527f476173207061796d656e742069732072657175697265640000000000000000006044820152fd5b835162461bcd60e51b8152602081880152602c60248201527f4f6e6c792043726f737353796e63476174657761792063616e2063616c6c207460448201526b3434b990333ab731ba34b7b760a11b6064820152608490fd5b919050346104165760208060031936011261041257611d3b6127e9565b916001600160a01b037f00000000000000000000000000000000000000000000000000000000000000008116611d7330821415612e4d565b611d90600080516020613417833981519152918383541614612eae565b611d9861337a565b6000805160206133f7833981519152885260fb85528284892091168852845260ff8388205416801561200b575b611dce906132d8565b8251908482019282841067ffffffffffffffff851117611ff8578385528883527f4910fdfa16fed3260ed0e7147f7cc6da11a60208b5b9406d12a635614ffd91435460ff1615611e285750505050505061073a9150612f0f565b869293949596169085516352d1902d60e01b815287818a81865afa8a9181611fc9575b50611eaa57865162461bcd60e51b8152808a01899052602e60248201527f45524331393637557067726164653a206e657720696d706c656d656e7461746960448201526d6f6e206973206e6f74205555505360901b6064820152608490fd5b979192939695949703611f745750611ec182612f0f565b7fbc7cd75a20ee27fd9adebab32041f755214dbc6bffa90cc0225b39da2e5c2d3b8780a285845115801590611f6d575b611eff575b50505050505080f35b80611f6196845196611f10886128e5565b602788527f416464726573733a206c6f772d6c6576656c2064656c65676174652063616c6c87890152660819985a5b195960ca1b868901525190845af4913d15611647573d61162f61162682612923565b50388080808085611ef6565b5080611ef1565b835162461bcd60e51b8152908101859052602960248201527f45524331393637557067726164653a20756e737570706f727465642070726f786044820152681a58589b195555525160ba1b6064820152608490fd5b9091508881813d8311611ff1575b611fe18183612901565b81010312611c6257519038611e4b565b503d611fd7565b634e487b7160e01b895260418852602489fd5b50611dce82603354168361201d61337a565b16149050611dc5565b8391503461028e578260031936011261028e576120416127ff565b906001600160a01b038061205361337a565b1690831603612067579061073a9135612d27565b608490602085519162461bcd60e51b8352820152602f60248201527f416363657373436f6e74726f6c3a2063616e206f6e6c792072656e6f756e636560448201526e103937b632b9903337b91039b2b63360891b6064820152fd5b50503461028e57602036600319011261028e576120dd6127e9565b9060ff6120e861337a565b600080516020613457833981519152855260fb60209081528386206001600160a01b039283168752905291842054168015612140575b612127906132d8565b6101c691166001600160601b0360a01b82541617905580f35b5061212781603354168261215261337a565b1614905061211e565b90503461041657816003193601126104165735906121776127ff565b82845260fb60205261218e60018386200154612976565b82845260fb60209081528285206001600160a01b0392831680875291528285205490929060ff16156121be578480f35b83855260fb6020528085208386526020528420600160ff198254161790556121e461337a565b16916000805160206133d78339815191528480a4388080808480f35b905034610416578160031936011261041657359060243563ffffffff81168091036104125761226e61223061337a565b600080516020613457833981519152865260fb60209081528487206001600160a01b03928316885290528386205460ff169081156105b057506132d8565b8284526101f96020528184208163ffffffff1982541617905583526101fa60205282205580f35b905034610416576020366003190112610416578160209360019235815260fb85522001549051908152f35b50503461028e5760209081600319360112610416576122dd6127e9565b906122e661337a565b600080516020613457833981519152855260fb84528185206001600160a01b03918216865284528185205490919060ff168015612397575b612327906132d8565b6000805160206134978339815191529384865260fb815282828720941693848752815260ff8287205416612359578580f35b84865260fb815281862084875290528420805460ff1916905561237a61337a565b16916000805160206134778339815191528480a438808080808580f35b506123278260335416836123a961337a565b1614905061231e565b919050346104165760a0366003190112610416576123ce6127e9565b6123d66127ff565b6001600160a01b039190604435838116908190036113105760643591848316948584036126c257608435938185168095036116d65789549860ff8a60081c1615978880996126b5575b801561269e575b1561264457600160ff198c1681178d559a89612633575b5061247f60ff8d5460081c166124528161331a565b61245b8161331a565b6124648161331a565b6097805460ff60a01b1916905561247a8161331a565b61331a565b61248f61248a61337a565b612e04565b6124c360ff8d5460081c166124a38161331a565b6124ac8161331a565b6124b58161331a565b8c61012d5561247a8161331a565b6124cb612da1565b156125e15750806102df6124de92612e04565b600080516020613497833981519152808a5260fb60205289898982200154916000805160206134578339815191528093818d8d862001557fbd79b86ffe0ab8e8776151514217cd7cacd52c909f66475c3af44e129f0b00ff92838580a460008051602061343783398151915290818352838c8c818187200154952001558c80a46001600160601b0360a01b94816101c49116868254161790556101c59116848254161790556101c6908382541617905562015f906101c3556101f8918254161790556125a8578280f35b825461ff0019168355519081527f7f26b83ff96e1f2b6a682f133852f6798a09c465da95921460cefb384740249890602090a138808280f35b60849060208a519162461bcd60e51b8352820152602660248201527f4f776e61626c653a206e6577206f776e657220697320746865207a65726f206160448201526564647265737360d01b6064820152fd5b61ffff1916610101178c553861243d565b895162461bcd60e51b8152602081840152602e60248201527f496e697469616c697a61626c653a20636f6e747261637420697320616c72656160448201526d191e481a5b9a5d1a585b1a5e995960921b6064820152608490fd5b50303b1580156124265750600160ff8c1614612426565b50600160ff8c161061241f565b8880fd5b905034610416576020366003190112610416573582526101fb6020908152918190205490516001600160a01b039091168152f35b90503461041657602036600319011261041657359063ffffffff60e01b82168092036104165760209250637965db0b60e01b821491821561273f575b50519015158152f35b6301ffc9a760e01b14915038612736565b50503461028e57602036600319011261028e5761276b6127e9565b9060ff61277661337a565b600080516020613457833981519152855260fb60209081528386206001600160a01b0392831687529052918420541680156127ce575b6127b5906132d8565b6101c591166001600160601b0360a01b82541617905580f35b506127b58160335416826127e061337a565b161490506127ac565b600435906001600160a01b038216820361107057565b602435906001600160a01b038216820361107057565b35906001600160a01b038216820361107057565b6004359063ffffffff8216820361107057565b60031990604081830112611070576004359167ffffffffffffffff8311611070578261010092030112611070576004019060243590565b60005b8381106128865750506000910152565b8181015183820152602001612876565b906020916128af81518092818552858086019101612873565b601f01601f1916010190565b67ffffffffffffffff81116128cf57604052565b634e487b7160e01b600052604160045260246000fd5b6060810190811067ffffffffffffffff8211176128cf57604052565b90601f8019910116810190811067ffffffffffffffff8211176128cf57604052565b67ffffffffffffffff81116128cf57601f01601f191660200190565b92919261294b82612923565b916129596040519384612901565b829481845281830111611070578281602093846000960137010152565b61297e61337a565b9060009080825260209160fb83526040938482209060018060a01b031690818352845260ff8583205416156129b4575050505050565b8451926129c0846128e5565b602a84528484019086368337845115612c8b5760308253845192600193841015612c77576078602187015360295b848111612c0d5750612bcb578651926080840184811067ffffffffffffffff821117612bb757885260428452868401946060368737845115612ba357603086538451821015612ba35790607860218601536041915b818311612b3557505050612af357612aef938693612ad393612ac4604894612a9b9a519a8b957f416363657373436f6e74726f6c3a206163636f756e74200000000000000000008c8801525180926037880190612873565b8401917001034b99036b4b9b9b4b733903937b6329607d1b603784015251809386840190612873565b01036028810187520185612901565b5192839262461bcd60e51b845260048401526024830190612896565b0390fd5b60648587519062461bcd60e51b825280600483015260248201527f537472696e67733a20686578206c656e67746820696e73756666696369656e746044820152fd5b909192600f81166010811015612b8f576f181899199a1a9b1b9c1cb0b131b232b360811b901a612b658588613038565b5360041c928015612b7b57600019019190612a43565b634e487b7160e01b82526011600452602482fd5b634e487b7160e01b83526032600452602483fd5b634e487b7160e01b81526032600452602490fd5b634e487b7160e01b86526041600452602486fd5b60648688519062461bcd60e51b825280600483015260248201527f537472696e67733a20686578206c656e67746820696e73756666696369656e746044820152fd5b90600f81166010811015612c63576f181899199a1a9b1b9c1cb0b131b232b360811b901a612c3b8389613038565b5360041c908015612c4f57600019016129ee565b634e487b7160e01b86526011600452602486fd5b634e487b7160e01b87526032600452602487fd5b634e487b7160e01b85526032600452602485fd5b634e487b7160e01b84526032600452602484fd5b6001600160a01b0390811660008181527fc88390e7e62175be0932452175b6a7222b6b094ab0ef984a5153c620345d8975602052604081205490929060ff1615612ce857505050565b82805260fb6020526040832082845260205260408320600160ff19825416179055612d1161337a565b16916000805160206133d78339815191528180a4565b600081815260fb602090815260408083206001600160a01b039586168085529252822054919390929160ff16612d5e575b50505050565b6000805160206134778339815191529082855260fb602052604085208486526020526040852060ff198154169055612d9461337a565b169380a438808080612d58565b6033546001600160a01b0390811690612db861337a565b1603612dc057565b606460405162461bcd60e51b815260206004820152602060248201527f4f776e61626c653a2063616c6c6572206973206e6f7420746865206f776e65726044820152fd5b603380546001600160a01b039283166001600160a01b0319821681179092559091167f8be0079c531659141344cd1fd0a4f28419497f9722a3daafe3b4186f6b6457e0600080a3565b15612e5457565b60405162461bcd60e51b815260206004820152602c60248201527f46756e6374696f6e206d7573742062652063616c6c6564207468726f7567682060448201526b19195b1959d85d1958d85b1b60a21b6064820152608490fd5b15612eb557565b60405162461bcd60e51b815260206004820152602c60248201527f46756e6374696f6e206d7573742062652063616c6c6564207468726f7567682060448201526b6163746976652070726f787960a01b6064820152608490fd5b803b15612f445760008051602061341783398151915280546001600160a01b0319166001600160a01b03909216919091179055565b60405162461bcd60e51b815260206004820152602d60248201527f455243313936373a206e657720696d706c656d656e746174696f6e206973206e60448201526c1bdd08184818dbdb9d1c9858dd609a1b6064820152608490fd5b919290156130015750815115612fb3575090565b3b15612fbc5790565b60405162461bcd60e51b815260206004820152601d60248201527f416464726573733a2063616c6c20746f206e6f6e2d636f6e74726163740000006044820152606490fd5b8251909150156130145750805190602001fd5b60405162461bcd60e51b815260206004820152908190612aef906024830190612896565b908151811015613049570160200190565b634e487b7160e01b600052603260045260246000fd5b1561306657565b60405162461bcd60e51b815260206004820152602660248201527f48797065726c616e65204e6f7420617661696c61626c6520666f7220746869736044820152651031b430b4b760d11b6064820152608490fd5b908060209392818452848401376000828201840152601f01601f1916010190565b60208152906001600160a01b0390816130f382612815565b166020840152602081013560408401526040810135606084015260608101356080840152608081013560a08401528161312e60a08301612815565b1660c08401528161314160c08301612815565b1660e084015260e0810135603e19823603018112156110705701906101008084015261316c82612815565b166101208301526020810135601e198236030181121561107057016020813591019067ffffffffffffffff8111611070578036038213611070576101608360406101406131bc96015201916130ba565b90565b356001600160a01b03811681036110705790565b926131bc949263ffffffff6131fb931685526020850152608060408501526080840190612896565b916060818403910152612896565b61012d600281541461321b5760029055565b60405162461bcd60e51b815260206004820152601f60248201527f5265656e7472616e637947756172643a207265656e7472616e742063616c6c006044820152606490fd5b604051602081019181831067ffffffffffffffff8411176128cf57826132c86076936131bc9560405260008152604051968794600160f01b60208701526000602287015260428601526001600160601b03199060601b16606285015251809285850190612873565b8101036056810184520182612901565b156132df57565b60405162461bcd60e51b8152602060048201526013602482015272556e617574686f72697a65642041636365737360681b6044820152606490fd5b1561332157565b60405162461bcd60e51b815260206004820152602b60248201527f496e697469616c697a61626c653a20636f6e7472616374206973206e6f74206960448201526a6e697469616c697a696e6760a81b6064820152608490fd5b6097546001600160a01b0316331480806133cb575b156133a1575036601319013560601c90565b601436101590816133c3575b50156133bf5736601319013560601c90565b3390565b9050386133ad565b50601436101561338f56fe2f8788117e7eff1d82e926ec794901d17c78024a50270940304540a733656f0d189ab7a9244df0848122154315af71fe140f3db0fe014031783b0946b8c9d2e3360894a13ba1a3210667c828492db98dca3e2076cc3735a920a3ca505d382bbc65d7a28e3265b37a6474929f336521b332c1681b933f6cb9f3376673440d862a7613a25ecc738585a232ad50a301178f12b3ba8887d13e138b523c4269c47689f6391f5c32d9c69d2a47ea670b442974b53935d1edc7fd64eb21e047a839171ba49807205ce4d355092ef5a8a18f56e8913cf4a201fbe287825b095693c21775a2646970667358221220a888d4f555081ba86e105e5b42f74cfea220d9830953d685efd2bc6a838e04f964736f6c63430008110033",
  "linkReferences": {},
  "deployedLinkReferences": {}
}