{
  "_format": "hh-sol-artifact-1",
  "contractName": "HyperlaneImpl",
  "sourceName": "contracts/MessagingImpls/HyperlaneImpl.sol",
  "abi": [
    {
      "inputs": [],
      "stateMutability": "nonpayable",
      "type": "constructor"
    },
    {
      "anonymous": false,
      "inputs": [
        {
          "indexed": false,
          "internalType": "address",
          "name": "previousAdmin",
          "type": "address"
        },
        {
          "indexed": false,
          "internalType": "address",
          "name": "newAdmin",
          "type": "address"
        }
      ],
      "name": "AdminChanged",
      "type": "event"
    },
    {
      "anonymous": false,
      "inputs": [
        {
          "indexed": true,
          "internalType": "address",
          "name": "beacon",
          "type": "address"
        }
      ],
      "name": "BeaconUpgraded",
      "type": "event"
    },
    {
      "anonymous": false,
      "inputs": [
        {
          "indexed": false,
          "internalType": "uint8",
          "name": "version",
          "type": "uint8"
        }
      ],
      "name": "Initialized",
      "type": "event"
    },
    {
      "anonymous": false,
      "inputs": [
        {
          "indexed": true,
          "internalType": "address",
          "name": "previousOwner",
          "type": "address"
        },
        {
          "indexed": true,
          "internalType": "address",
          "name": "newOwner",
          "type": "address"
        }
      ],
      "name": "OwnershipTransferred",
      "type": "event"
    },
    {
      "anonymous": false,
      "inputs": [
        {
          "indexed": false,
          "internalType": "address",
          "name": "account",
          "type": "address"
        }
      ],
      "name": "Paused",
      "type": "event"
    },
    {
      "anonymous": false,
      "inputs": [
        {
          "indexed": true,
          "internalType": "bytes32",
          "name": "role",
          "type": "bytes32"
        },
        {
          "indexed": true,
          "internalType": "bytes32",
          "name": "previousAdminRole",
          "type": "bytes32"
        },
        {
          "indexed": true,
          "internalType": "bytes32",
          "name": "newAdminRole",
          "type": "bytes32"
        }
      ],
      "name": "RoleAdminChanged",
      "type": "event"
    },
    {
      "anonymous": false,
      "inputs": [
        {
          "indexed": true,
          "internalType": "bytes32",
          "name": "role",
          "type": "bytes32"
        },
        {
          "indexed": true,
          "internalType": "address",
          "name": "account",
          "type": "address"
        },
        {
          "indexed": true,
          "internalType": "address",
          "name": "sender",
          "type": "address"
        }
      ],
      "name": "RoleGranted",
      "type": "event"
    },
    {
      "anonymous": false,
      "inputs": [
        {
          "indexed": true,
          "internalType": "bytes32",
          "name": "role",
          "type": "bytes32"
        },
        {
          "indexed": true,
          "internalType": "address",
          "name": "account",
          "type": "address"
        },
        {
          "indexed": true,
          "internalType": "address",
          "name": "sender",
          "type": "address"
        }
      ],
      "name": "RoleRevoked",
      "type": "event"
    },
    {
      "anonymous": false,
      "inputs": [
        {
          "indexed": false,
          "internalType": "address",
          "name": "account",
          "type": "address"
        }
      ],
      "name": "Unpaused",
      "type": "event"
    },
    {
      "anonymous": false,
      "inputs": [
        {
          "indexed": true,
          "internalType": "address",
          "name": "implementation",
          "type": "address"
        }
      ],
      "name": "Upgraded",
      "type": "event"
    },
    {
      "inputs": [],
      "name": "ADMIN_ROLE",
      "outputs": [
        {
          "internalType": "bytes32",
          "name": "",
          "type": "bytes32"
        }
      ],
      "stateMutability": "view",
      "type": "function"
    },
    {
      "inputs": [],
      "name": "DEFAULT_ADMIN_ROLE",
      "outputs": [
        {
          "internalType": "bytes32",
          "name": "",
          "type": "bytes32"
        }
      ],
      "stateMutability": "view",
      "type": "function"
    },
    {
      "inputs": [],
      "name": "PAUSER_ROLE",
      "outputs": [
        {
          "internalType": "bytes32",
          "name": "",
          "type": "bytes32"
        }
      ],
      "stateMutability": "view",
      "type": "function"
    },
    {
      "inputs": [],
      "name": "SUPER_ADMIN_ROLE",
      "outputs": [
        {
          "internalType": "bytes32",
          "name": "",
          "type": "bytes32"
        }
      ],
      "stateMutability": "view",
      "type": "function"
    },
    {
      "inputs": [],
      "name": "UPGRADER_ROLE",
      "outputs": [
        {
          "internalType": "bytes32",
          "name": "",
          "type": "bytes32"
        }
      ],
      "stateMutability": "view",
      "type": "function"
    },
    {
      "inputs": [
        {
          "internalType": "address",
          "name": "_admin",
          "type": "address"
        }
      ],
      "name": "addAdmin",
      "outputs": [],
      "stateMutability": "nonpayable",
      "type": "function"
    },
    {
      "inputs": [
        {
          "internalType": "address",
          "name": "account",
          "type": "address"
        }
      ],
      "name": "addPauser",
      "outputs": [],
      "stateMutability": "nonpayable",
      "type": "function"
    },
    {
      "inputs": [
        {
          "internalType": "address",
          "name": "_superAdmin",
          "type": "address"
        }
      ],
      "name": "addSuperAdmin",
      "outputs": [],
      "stateMutability": "nonpayable",
      "type": "function"
    },
    {
      "inputs": [
        {
          "internalType": "address",
          "name": "_upgrader",
          "type": "address"
        }
      ],
      "name": "addUpgrader",
      "outputs": [],
      "stateMutability": "nonpayable",
      "type": "function"
    },
    {
      "inputs": [],
      "name": "crossSyncGatewayAddress",
      "outputs": [
        {
          "internalType": "address",
          "name": "",
          "type": "address"
        }
      ],
      "stateMutability": "view",
      "type": "function"
    },
    {
      "inputs": [
        {
          "components": [
            {
              "internalType": "address",
              "name": "sender",
              "type": "address"
            },
            {
              "internalType": "uint256",
              "name": "nonce",
              "type": "uint256"
            },
            {
              "internalType": "uint256",
              "name": "messagingRouteId",
              "type": "uint256"
            },
            {
              "internalType": "uint256",
              "name": "sourceChainId",
              "type": "uint256"
            },
            {
              "internalType": "uint256",
              "name": "destinationChainId",
              "type": "uint256"
            },
            {
              "internalType": "address",
              "name": "sourceGatewayAddress",
              "type": "address"
            },
            {
              "internalType": "address",
              "name": "destinationGatewayAddress",
              "type": "address"
            },
            {
              "components": [
                {
                  "internalType": "address",
                  "name": "to",
                  "type": "address"
                },
                {
                  "internalType": "bytes",
                  "name": "data",
                  "type": "bytes"
                }
              ],
              "internalType": "struct ICrossSyncGateway.MessagingPayload",
              "name": "payload",
              "type": "tuple"
            }
          ],
          "internalType": "struct IMessagingImpl.ICrossSyncMessagingData",
          "name": "_data",
          "type": "tuple"
        }
      ],
      "name": "executeSendMessage",
      "outputs": [
        {
          "internalType": "bytes",
          "name": "",
          "type": "bytes"
        }
      ],
      "stateMutability": "payable",
      "type": "function"
    },
    {
      "inputs": [
        {
          "internalType": "bytes32",
          "name": "role",
          "type": "bytes32"
        }
      ],
      "name": "getRoleAdmin",
      "outputs": [
        {
          "internalType": "bytes32",
          "name": "",
          "type": "bytes32"
        }
      ],
      "stateMutability": "view",
      "type": "function"
    },
    {
      "inputs": [],
      "name": "getTrustedForwarder",
      "outputs": [
        {
          "internalType": "address",
          "name": "forwarder",
          "type": "address"
        }
      ],
      "stateMutability": "view",
      "type": "function"
    },
    {
      "inputs": [
        {
          "internalType": "bytes32",
          "name": "role",
          "type": "bytes32"
        },
        {
          "internalType": "address",
          "name": "account",
          "type": "address"
        }
      ],
      "name": "grantRole",
      "outputs": [],
      "stateMutability": "nonpayable",
      "type": "function"
    },
    {
      "inputs": [
        {
          "internalType": "bytes32",
          "name": "role",
          "type": "bytes32"
        },
        {
          "internalType": "address",
          "name": "account",
          "type": "address"
        }
      ],
      "name": "hasRole",
      "outputs": [
        {
          "internalType": "bool",
          "name": "",
          "type": "bool"
        }
      ],
      "stateMutability": "view",
      "type": "function"
    },
    {
      "inputs": [
        {
          "internalType": "uint256",
          "name": "",
          "type": "uint256"
        }
      ],
      "name": "hyperlaneChainDomain",
      "outputs": [
        {
          "internalType": "uint32",
          "name": "",
          "type": "uint32"
        }
      ],
      "stateMutability": "view",
      "type": "function"
    },
    {
      "inputs": [],
      "name": "hyperlaneInterchainGasPaymaster",
      "outputs": [
        {
          "internalType": "contract IInterchainGasPaymaster",
          "name": "",
          "type": "address"
        }
      ],
      "stateMutability": "view",
      "type": "function"
    },
    {
      "inputs": [],
      "name": "hyperlaneMailBox",
      "outputs": [
        {
          "internalType": "contract HyperlaneMailBox",
          "name": "",
          "type": "address"
        }
      ],
      "stateMutability": "view",
      "type": "function"
    },
    {
      "inputs": [
        {
          "internalType": "address",
          "name": "_crossSyncGatewayAddress",
          "type": "address"
        },
        {
          "internalType": "address",
          "name": "_nativeCurrencyWrappedAddress",
          "type": "address"
        },
        {
          "internalType": "address",
          "name": "_nativeCurrencyAddress",
          "type": "address"
        },
        {
          "internalType": "address",
          "name": "_owner",
          "type": "address"
        },
        {
          "internalType": "address",
          "name": "_hyperlaneMailBoxAddress",
          "type": "address"
        },
        {
          "internalType": "address",
          "name": "_hyperlaneGasPaymasterAddress",
          "type": "address"
        }
      ],
      "name": "initialize",
      "outputs": [],
      "stateMutability": "nonpayable",
      "type": "function"
    },
    {
      "inputs": [
        {
          "internalType": "address",
          "name": "forwarder",
          "type": "address"
        }
      ],
      "name": "isTrustedForwarder",
      "outputs": [
        {
          "internalType": "bool",
          "name": "",
          "type": "bool"
        }
      ],
      "stateMutability": "view",
      "type": "function"
    },
    {
      "inputs": [],
      "name": "nativeCurrencyAddress",
      "outputs": [
        {
          "internalType": "address",
          "name": "",
          "type": "address"
        }
      ],
      "stateMutability": "view",
      "type": "function"
    },
    {
      "inputs": [],
      "name": "nativeCurrencyWrappedAddress",
      "outputs": [
        {
          "internalType": "address",
          "name": "",
          "type": "address"
        }
      ],
      "stateMutability": "view",
      "type": "function"
    },
    {
      "inputs": [],
      "name": "owner",
      "outputs": [
        {
          "internalType": "address",
          "name": "",
          "type": "address"
        }
      ],
      "stateMutability": "view",
      "type": "function"
    },
    {
      "inputs": [],
      "name": "pause",
      "outputs": [],
      "stateMutability": "nonpayable",
      "type": "function"
    },
    {
      "inputs": [],
      "name": "paused",
      "outputs": [
        {
          "internalType": "bool",
          "name": "",
          "type": "bool"
        }
      ],
      "stateMutability": "view",
      "type": "function"
    },
    {
      "inputs": [],
      "name": "proxiableUUID",
      "outputs": [
        {
          "internalType": "bytes32",
          "name": "",
          "type": "bytes32"
        }
      ],
      "stateMutability": "view",
      "type": "function"
    },
    {
      "inputs": [
        {
          "internalType": "address",
          "name": "_admin",
          "type": "address"
        }
      ],
      "name": "removeAdmin",
      "outputs": [],
      "stateMutability": "nonpayable",
      "type": "function"
    },
    {
      "inputs": [
        {
          "internalType": "address",
          "name": "_pauser",
          "type": "address"
        }
      ],
      "name": "removePauser",
      "outputs": [],
      "stateMutability": "nonpayable",
      "type": "function"
    },
    {
      "inputs": [
        {
          "internalType": "address",
          "name": "_superAdmin",
          "type": "address"
        }
      ],
      "name": "removeSuperAdmin",
      "outputs": [],
      "stateMutability": "nonpayable",
      "type": "function"
    },
    {
      "inputs": [
        {
          "internalType": "address",
          "name": "_upgrader",
          "type": "address"
        }
      ],
      "name": "removeUpgrader",
      "outputs": [],
      "stateMutability": "nonpayable",
      "type": "function"
    },
    {
      "inputs": [],
      "name": "renounceOwnership",
      "outputs": [],
      "stateMutability": "nonpayable",
      "type": "function"
    },
    {
      "inputs": [
        {
          "internalType": "bytes32",
          "name": "role",
          "type": "bytes32"
        },
        {
          "internalType": "address",
          "name": "account",
          "type": "address"
        }
      ],
      "name": "renounceRole",
      "outputs": [],
      "stateMutability": "nonpayable",
      "type": "function"
    },
    {
      "inputs": [
        {
          "internalType": "address payable",
          "name": "userAddress",
          "type": "address"
        },
        {
          "internalType": "uint256",
          "name": "amount",
          "type": "uint256"
        }
      ],
      "name": "rescueEther",
      "outputs": [],
      "stateMutability": "nonpayable",
      "type": "function"
    },
    {
      "inputs": [
        {
          "internalType": "address",
          "name": "token",
          "type": "address"
        },
        {
          "internalType": "address",
          "name": "userAddress",
          "type": "address"
        },
        {
          "internalType": "uint256",
          "name": "amount",
          "type": "uint256"
        }
      ],
      "name": "rescueFunds",
      "outputs": [],
      "stateMutability": "nonpayable",
      "type": "function"
    },
    {
      "inputs": [
        {
          "internalType": "bytes32",
          "name": "role",
          "type": "bytes32"
        },
        {
          "internalType": "address",
          "name": "account",
          "type": "address"
        }
      ],
      "name": "revokeRole",
      "outputs": [],
      "stateMutability": "nonpayable",
      "type": "function"
    },
    {
      "inputs": [
        {
          "internalType": "address",
          "name": "_crossSyncGatewayAddress",
          "type": "address"
        }
      ],
      "name": "setCrossSyncGatewayAddress",
      "outputs": [],
      "stateMutability": "nonpayable",
      "type": "function"
    },
    {
      "inputs": [
        {
          "internalType": "uint256",
          "name": "_chainId",
          "type": "uint256"
        },
        {
          "internalType": "uint32",
          "name": "_chainDomain",
          "type": "uint32"
        }
      ],
      "name": "setHyperlaneChainDomain",
      "outputs": [],
      "stateMutability": "nonpayable",
      "type": "function"
    },
    {
      "inputs": [
        {
          "internalType": "uint256",
          "name": "newGasLimit",
          "type": "uint256"
        }
      ],
      "name": "setHyperlaneGasLimit",
      "outputs": [],
      "stateMutability": "nonpayable",
      "type": "function"
    },
    {
      "inputs": [
        {
          "internalType": "contract IInterchainGasPaymaster",
          "name": "_paymaster",
          "type": "address"
        }
      ],
      "name": "setHyperlaneInterchainGasPaymaster",
      "outputs": [],
      "stateMutability": "nonpayable",
      "type": "function"
    },
    {
      "inputs": [
        {
          "internalType": "contract HyperlaneMailBox",
          "name": "_mailBox",
          "type": "address"
        }
      ],
      "name": "setHyperlaneMailBox",
      "outputs": [],
      "stateMutability": "nonpayable",
      "type": "function"
    },
    {
      "inputs": [
        {
          "internalType": "address",
          "name": "_nativeCurrencyAddress",
          "type": "address"
        }
      ],
      "name": "setNativeCurrencyAddress",
      "outputs": [],
      "stateMutability": "nonpayable",
      "type": "function"
    },
    {
      "inputs": [
        {
          "internalType": "address",
          "name": "_nativeCurrencyWrappedAddress",
          "type": "address"
        }
      ],
      "name": "setNativeCurrencyWrappedAddress",
      "outputs": [],
      "stateMutability": "nonpayable",
      "type": "function"
    },
    {
      "inputs": [
        {
          "internalType": "address",
          "name": "_newtrustedForwarder",
          "type": "address"
        }
      ],
      "name": "setTrustedForwarder",
      "outputs": [],
      "stateMutability": "nonpayable",
      "type": "function"
    },
    {
      "inputs": [
        {
          "internalType": "bytes4",
          "name": "interfaceId",
          "type": "bytes4"
        }
      ],
      "name": "supportsInterface",
      "outputs": [
        {
          "internalType": "bool",
          "name": "",
          "type": "bool"
        }
      ],
      "stateMutability": "view",
      "type": "function"
    },
    {
      "inputs": [
        {
          "internalType": "address",
          "name": "newOwner",
          "type": "address"
        }
      ],
      "name": "transferOwnership",
      "outputs": [],
      "stateMutability": "nonpayable",
      "type": "function"
    },
    {
      "inputs": [],
      "name": "unpause",
      "outputs": [],
      "stateMutability": "nonpayable",
      "type": "function"
    },
    {
      "inputs": [
        {
          "internalType": "address",
          "name": "newImplementation",
          "type": "address"
        }
      ],
      "name": "upgradeTo",
      "outputs": [],
      "stateMutability": "nonpayable",
      "type": "function"
    },
    {
      "inputs": [
        {
          "internalType": "address",
          "name": "newImplementation",
          "type": "address"
        },
        {
          "internalType": "bytes",
          "name": "data",
          "type": "bytes"
        }
      ],
      "name": "upgradeToAndCall",
      "outputs": [],
      "stateMutability": "payable",
      "type": "function"
    },
    {
      "stateMutability": "payable",
      "type": "receive"
    }
  ],
  "bytecode": "0x60a060405234620000495730608052620000186200004e565b620000226200004e565b604051612d429081620000f8823960805181818161125d0152818161138a0152611d770152f35b600080fd5b60005460ff8160081c16620000a25760ff808216036200006b5750565b60ff90811916176000557f7f26b83ff96e1f2b6a682f133852f6798a09c465da95921460cefb3847402498602060405160ff8152a1565b60405162461bcd60e51b815260206004820152602760248201527f496e697469616c697a61626c653a20636f6e747261637420697320696e697469604482015266616c697a696e6760c81b6064820152608490fdfe6080604052600436101561001b575b361561001957600080fd5b005b60003560e01c80629fe752146122d157806301ffc9a71461227b5780631785f53c146121c6578063248a9ca31461219757806326a11fe0146121105780632f2ff15d146120a957806332495ce11461201b57806336568abe14611f7f5780633659cfe614611d5257806338073f0c14611d285780633f4ba83a14611be257806341b8604014611b995780634460bdd614611b7057806346961bff1461173f5780634902e4aa146116dd5780634b03285a1461164f5780634f1ef2861461130e57806352d1902d1461124a578063572b6c05146112155780635c975abb146111ef5780636b2c0f55146111125780636ccae054146110775780636f8c6879146110045780637048027514610f4e578063715018a614610ef157806375b238fc14610ec857806382dc1ec414610de75780638456cb5914610c965780638da5cb5b14610c6d57806391d1485414610c205780639905010614610b915780639de2727214610b5e578063a217fddf14610b42578063b3292ff014610adf578063b89b22d714610ab5578063bd826ed714610a8b578063c822ef3b14610a61578063cc2a9a5b1461072c578063ce1b815f14610703578063cfe3174f146106d9578063d264a80314610612578063d547741f146105d3578063da7422281461053c578063e42e0ea9146104df578063e511015814610414578063e63ab1e9146103eb578063f2fde38b1461025d5763f72c0d8b0361000e5734610258576000366003190112610258576020604051600080516020612c4d8339815191528152f35b600080fd5b34610258576020806003193601126102585761027761235f565b61027f612890565b610287612890565b6001600160a01b03908082161561039757806102a56102aa926128f3565b61276a565b6102b2612bf0565b9181806102bd612bf0565b16931692830361033b576000805260fb8152604060002083600052815260ff604060002054166102e957005b6000805260fb81526040600020908360005252604060002060ff198154169055610311612bf0565b169060007ff6391f5c32d9c69d2a47ea670b442974b53935d1edc7fd64eb21e047a839171b8180a4005b6084906040519062461bcd60e51b82526004820152602f60248201527f416363657373436f6e74726f6c3a2063616e206f6e6c792072656e6f756e636560448201526e103937b632b9903337b91039b2b63360891b6064820152fd5b60405162461bcd60e51b815260048101849052602660248201527f4f776e61626c653a206e6577206f776e657220697320746865207a65726f206160448201526564647265737360d01b6064820152608490fd5b34610258576000366003190112610258576020604051600080516020612cad8339815191528152f35b346102585760203660031901126102585761042d61235f565b610435612890565b6001600160a01b0390811660008181527f775ac87777436f29b0cd5453bf5db4da15d8938d0ef70de831d2edd17651cf676020526040902054600080516020612c4d833981519152929060ff161561048957005b8260005260fb6020526040600020826000526020526040600020600160ff198254161790556104b6612bf0565b16917f2f8788117e7eff1d82e926ec794901d17c78024a50270940304540a733656f0d600080a4005b34610258576040366003190112610258576004356001600160a01b038116908190036102585760008080809360243590610517612890565b828215610533575bf11561052757005b6040513d6000823e3d90fd5b506108fc61051f565b346102585760203660031901126102585761055561235f565b61055d612bf0565b6001600160a01b039081166000908152600080516020612c6d833981519152602052604090205490919060ff1680156105b8575b61059a90612b4e565b166bffffffffffffffffffffffff60a01b6097541617609755600080f35b5061059a8260335416836105ca612bf0565b16149050610591565b34610258576040366003190112610258576100196004356105f2612375565b908060005260fb60205261060d600160406000200154612441565b612804565b346102585760203660031901126102585761062b61235f565b610633612890565b6001600160a01b0390811660008181527f775ac87777436f29b0cd5453bf5db4da15d8938d0ef70de831d2edd17651cf676020526040902054600080516020612c4d833981519152929060ff1661068657005b8260005260fb602052604060002082600052602052604060002060ff1981541690556106b0612bf0565b16917ff6391f5c32d9c69d2a47ea670b442974b53935d1edc7fd64eb21e047a839171b600080a4005b34610258576000366003190112610258576101f8546040516001600160a01b039091168152602090f35b34610258576000366003190112610258576097546040516001600160a01b039091168152602090f35b346102585760c03660031901126102585761074561235f565b61074d612375565b906044356001600160a01b03818116929183900361025857606435938185169384860361025857608435918383168093036102585760a43593808516809503610258576000549760ff8960081c161597888099610a54575b8015610a3d575b156109e157600199898b60ff198316176000556109cf575b5061080760ff60005460081c166107da81612b90565b6107e381612b90565b6107ec81612b90565b6097805460ff60a01b1916905561080281612b90565b612b90565b610817610812612bf0565b6128f3565b61084c60ff60005460081c1661082c81612b90565b61083581612b90565b61083e81612b90565b8b61012d5561080281612b90565b610854612890565b1561097b57806102a5610866926128f3565b600080516020612ced8339815191528060005260fb602052886040600020015490600080516020612ccd8339815191528092818c604060002001557fbd79b86ffe0ab8e8776151514217cd7cacd52c909f66475c3af44e129f0b00ff9283600080a4600080516020612cad8339815191526000818152604081208c01805490859055929080a46bffffffffffffffffffffffff60a01b95816101c39116878254161790556101c49116858254161790556101c590848254161790556101f790838254161790556101f89182541617905561c3506101f95561094357005b60207f7f26b83ff96e1f2b6a682f133852f6798a09c465da95921460cefb38474024989161ff001960005416600055604051908152a1005b60405162461bcd60e51b815260206004820152602660248201527f4f776e61626c653a206e6577206f776e657220697320746865207a65726f206160448201526564647265737360d01b6064820152608490fd5b61ffff1916610101176000558a6107c4565b60405162461bcd60e51b815260206004820152602e60248201527f496e697469616c697a61626c653a20636f6e747261637420697320616c72656160448201526d191e481a5b9a5d1a585b1a5e995960921b6064820152608490fd5b50303b1580156107ac5750600160ff8b16146107ac565b50600160ff8b16106107a5565b34610258576000366003190112610258576101f7546040516001600160a01b039091168152602090f35b34610258576000366003190112610258576101c4546040516001600160a01b039091168152602090f35b34610258576000366003190112610258576101c3546040516001600160a01b039091168152602090f35b3461025857602036600319011261025857610af861235f565b610b00612890565b6001600160a01b039081166000818152600080516020612c6d8339815191526020526040902054600080516020612ccd833981519152929060ff161561048957005b3461025857600036600319011261025857602060405160008152f35b34610258576020366003190112610258576004356000526101fa602052602063ffffffff60406000205416604051908152f35b34610258576020366003190112610258576004356001600160a01b038181169182900361025857610bf390610bc4612bf0565b81166000908152600080516020612c6d833981519152602052604090205460ff16908115610c09575b50612b4e565b6101f780546001600160a01b0319169091179055005b60335481169150610c18612bf0565b161483610bed565b3461025857604036600319011261025857610c39612375565b60043560005260fb60205260406000209060018060a01b0316600052602052602060ff604060002054166040519015158152f35b34610258576000366003190112610258576033546040516001600160a01b039091168152602090f35b3461025857600036600319011261025857610caf612bf0565b6001600160a01b0390811660009081527fc81858b0fc5e8d7d2c7a341b4e13a62a27b51e1da1072bf5f7fee8fdef673e94602090815260409091205460ff168015610dad575b8015610d92575b610d0590612b4e565b6097549160ff8360a01c16610d5a5760ff60a01b19909216600160a01b176097557f62e78cea01bee320cd4e420270b5ea74000d11b0c9f74754ebdbfc544b05a25891610d50612bf0565b60405191168152a1005b60405162461bcd60e51b815260048101839052601060248201526f14185d5cd8589b194e881c185d5cd95960821b6044820152606490fd5b50610d05826033541683610da4612bf0565b16149050610cfc565b50610db6612bf0565b600080516020612ccd83398151915260005260fb82528260406000209116600052815260ff60406000205416610cf5565b346102585760208060031936011261025857610e0161235f565b610e09612bf0565b600080516020612ccd833981519152600090815260fb845260408082206001600160a01b039384168352855290205460ff168015610ead575b610e4b90612b4e565b600080516020612cad833981519152928360005260fb815281604060002093169283600052815260ff6040600020541615610e8257005b8360005260fb815260406000209083600052526040600020600160ff198254161790556104b6612bf0565b50610e4b816033541682610ebf612bf0565b16149050610e42565b34610258576000366003190112610258576020604051600080516020612ced8339815191528152f35b3461025857600036600319011261025857610f0a612890565b603380546001600160a01b031981169091556000906001600160a01b03167f8be0079c531659141344cd1fd0a4f28419497f9722a3daafe3b4186f6b6457e08280a3005b346102585760208060031936011261025857610f6861235f565b610f70612bf0565b600080516020612ccd833981519152600090815260fb845260408082206001600160a01b039384168352855290205460ff168015610fe9575b610fb290612b4e565b600080516020612ced833981519152928360005260fb815281604060002093169283600052815260ff6040600020541615610e8257005b50610fb2816033541682610ffb612bf0565b16149050610fa9565b3461025857602036600319011261025857611057611020612bf0565b6001600160a01b039081166000908152600080516020612c6d833981519152602052604090205460ff169081156110605750612b4e565b6004356101f955005b6033548116915061106f612bf0565b161482610bed565b34610258576060366003190112610258576000602061109461235f565b604461109e612375565b916110a7612890565b60405163a9059cbb60e01b81526001600160a01b039384166004820152823560248201529485938492165af18015610527576110df57005b6020813d821161110a575b816110f760209383612403565b8101031261025857518015150361025857005b3d91506110ea565b34610258576020806003193601126102585761112c61235f565b611134612bf0565b600080516020612ccd833981519152600090815260fb845260408082206001600160a01b039384168352855290205460ff1680156111d4575b61117690612b4e565b600080516020612cad833981519152928360005260fb815281604060002093169283600052815260ff604060002054166111ac57005b8360005260fb81526040600020908360005252604060002060ff1981541690556106b0612bf0565b506111768160335416826111e6612bf0565b1614905061116d565b3461025857600036600319011261025857602060ff60975460a01c166040519015158152f35b3461025857602036600319011261025857602061123061235f565b6097546040516001600160a01b0392831691909216148152f35b34610258576000366003190112610258577f00000000000000000000000000000000000000000000000000000000000000006001600160a01b031630036112a3576020604051600080516020612c8d8339815191528152f35b60405162461bcd60e51b815260206004820152603860248201527f555550535570677261646561626c653a206d757374206e6f742062652063616c60448201527f6c6564207468726f7567682064656c656761746563616c6c00000000000000006064820152608490fd5b60403660031901126102585761132261235f565b6024359067ffffffffffffffff8211610258573660238301121561025857816004013561134e81612425565b61135b6040519182612403565b818152602091828201943660248383010111610258578160009260248693018837830101526001600160a01b037f00000000000000000000000000000000000000000000000000000000000000008116906113b83083141561293c565b6113d5600080516020612c8d83398151915292828454161461299d565b6113dd612bf0565b600080516020612c4d83398151915260005260fb85528160406000209116600052845260ff604060002054168015611634575b61141990612b4e565b7f4910fdfa16fed3260ed0e7147f7cc6da11a60208b5b9406d12a635614ffd91435460ff1615611451575050505061001991506129fe565b8492939416906040516352d1902d60e01b81528581600481865afa60009181611605575b506114d65760405162461bcd60e51b815260048101879052602e60248201527f45524331393637557067726164653a206e657720696d706c656d656e7461746960448201526d6f6e206973206e6f74205555505360901b6064820152608490fd5b949394036115ae576114e7826129fe565b7fbc7cd75a20ee27fd9adebab32041f755214dbc6bffa90cc0225b39da2e5c2d3b600080a28251158015906115a6575b61151d57005b6000806100199560405195611531876123e7565b602787527f416464726573733a206c6f772d6c6576656c2064656c65676174652063616c6c86880152660819985a5b195960ca1b60408801525190845af4903d1561159d573d61158081612425565b9061158e6040519283612403565b8152600081943d92013e612a8e565b60609250612a8e565b506001611517565b60405162461bcd60e51b815260048101849052602960248201527f45524331393637557067726164653a20756e737570706f727465642070726f786044820152681a58589b195555525160ba1b6064820152608490fd5b9091508681813d831161162d575b61161d8183612403565b8101031261025857519088611475565b503d611613565b50611419816033541682611646612bf0565b16149050611410565b346102585760203660031901126102585761166861235f565b611670612bf0565b6001600160a01b039081166000908152600080516020612c6d833981519152602052604090205460ff1680156116c2575b6116aa90612b4e565b6101c380546001600160a01b03191691909216179055005b506116aa8160335416826116d4612bf0565b161490506116a1565b34610258576020366003190112610258576116f661235f565b6116fe612890565b6001600160a01b039081166000818152600080516020612c6d8339815191526020526040902054600080516020612ccd833981519152929060ff1661068657005b6003196020368201126102585760043567ffffffffffffffff811161025857803603610100809382011261025857600261012d5414611b2b57600261012d55611786612bf0565b6101c3546001600160a01b03908116911603611ad1573415611a8c57604051602080820152926001600160a01b036117c06004850161238b565b1660408501526024830135606085015260448301356080850152606483013560a0850152608483013560c08501526001600160a01b0361180260a4850161238b565b1660e085015260c48301916001600160a01b0361181e8461238b565b168583015260e484013590604219018112156102585761012085019190915282016001600160a01b036118536004830161238b565b16610140850152602481013560221982360301811215610258570160246004820135910167ffffffffffffffff8211610258578136038113610258576118cc91604061016087015285610180918083830152806101a094858401376000828201850152601f01601f191681010390810186520184612403565b60018060a01b036101f754169260848301356000526101fa60205263ffffffff6040600020541691359360018060a01b0385168503610258576119459460006020946040519788958694859363fa31de0160e01b8552600485015260018060a01b031660248401526060604484015260648301906123c2565b03925af191821561052757600092611a58575b50608460018060a01b036101f854169101356000526101fa60205263ffffffff604060002054166101f9549261198c612bf0565b90833b15610258576000936084926040519687958694630237e58360e31b865260048601526024850152604484015260018060a01b0316606483015234905af1801561052757611a2a575b50600161012d55604051602081526060518060208301528160005b828110611a1357508160006040809484010152601f80199101168101030190f35b6080810151848201604001528391506020016119f2565b67ffffffffffffffff8111611a4257604052806119d7565b634e487b7160e01b600052604160045260246000fd5b9091506020813d602011611a84575b81611a7460209383612403565b8101031261025857519082611958565b3d9150611a67565b60405162461bcd60e51b815260206004820152601760248201527f476173207061796d656e742069732072657175697265640000000000000000006044820152606490fd5b60405162461bcd60e51b815260206004820152602c60248201527f4f6e6c792043726f737353796e63476174657761792063616e2063616c6c207460448201526b3434b990333ab731ba34b7b760a11b6064820152608490fd5b60405162461bcd60e51b815260206004820152601f60248201527f5265656e7472616e637947756172643a207265656e7472616e742063616c6c006044820152606490fd5b34610258576000366003190112610258576020604051600080516020612ccd8339815191528152f35b34610258576020366003190112610258576004356001600160a01b038181169182900361025857611bcc90610bc4612bf0565b6101f880546001600160a01b0319169091179055005b3461025857600036600319011261025857611bfb612bf0565b6001600160a01b0390811660009081527fc81858b0fc5e8d7d2c7a341b4e13a62a27b51e1da1072bf5f7fee8fdef673e94602090815260409091205460ff168015611cee575b8015611cd3575b611c5190612b4e565b6097549160ff8360a01c1615611c975760ff60a01b199092166097557f5db9ee0a495bf2e6ff9c91a7834c1ba4fdd244a5e8aa4e537bd38aeae4b073aa91610d50612bf0565b60405162461bcd60e51b815260048101839052601460248201527314185d5cd8589b194e881b9bdd081c185d5cd95960621b6044820152606490fd5b50611c51826033541683611ce5612bf0565b16149050611c48565b50611cf7612bf0565b600080516020612ccd83398151915260005260fb82528260406000209116600052815260ff60406000205416611c41565b34610258576000366003190112610258576101c5546040516001600160a01b039091168152602090f35b346102585760208060031936011261025857611d6c61235f565b6001600160a01b03917f00000000000000000000000000000000000000000000000000000000000000008316611da43082141561293c565b611dc1600080516020612c8d83398151915291858354161461299d565b611dc9612bf0565b600080516020612c4d83398151915260005260fb83528460406000209116600052825260ff604060002054168015611f64575b611e0590612b4e565b604051908282019482861067ffffffffffffffff871117611a4257856040526000835260ff7f4910fdfa16fed3260ed0e7147f7cc6da11a60208b5b9406d12a635614ffd91435416600014611e62575050505061001991506129fe565b8492939416906040516352d1902d60e01b81528581600481865afa60009181611f35575b50611ee75760405162461bcd60e51b815260048101879052602e60248201527f45524331393637557067726164653a206e657720696d706c656d656e7461746960448201526d6f6e206973206e6f74205555505360901b6064820152608490fd5b949394036115ae57611ef8826129fe565b7fbc7cd75a20ee27fd9adebab32041f755214dbc6bffa90cc0225b39da2e5c2d3b600080a2825115801590611f2d5761151d57005b506000611517565b9091508681813d8311611f5d575b611f4d8183612403565b8101031261025857519088611e86565b503d611f43565b50611e05846033541685611f76612bf0565b16149050611dfc565b3461025857604036600319011261025857611f98612375565b6001600160a01b0380611fa9612bf0565b1690821603611fbe5761001990600435612804565b60405162461bcd60e51b815260206004820152602f60248201527f416363657373436f6e74726f6c3a2063616e206f6e6c792072656e6f756e636560448201526e103937b632b9903337b91039b2b63360891b6064820152608490fd5b346102585760203660031901126102585761203461235f565b61203c612bf0565b6001600160a01b039081166000908152600080516020612c6d833981519152602052604090205460ff16801561208e575b61207690612b4e565b6101c580546001600160a01b03191691909216179055005b506120768160335416826120a0612bf0565b1614905061206d565b34610258576040366003190112610258576004356120c5612375565b8160005260fb6020526120df600160406000200154612441565b8160005260fb60205260406000209060018060a01b03809116918260005260205260ff604060002054161561048957005b346102585760403660031901126102585760243563ffffffff81168091036102585761217461213d612bf0565b6001600160a01b039081166000908152600080516020612c6d833981519152602052604090205460ff16908115610c095750612b4e565b6004356000526101fa60205260406000209063ffffffff19825416179055600080f35b346102585760203660031901126102585760043560005260fb6020526020600160406000200154604051908152f35b3461025857602080600319360112610258576121e061235f565b6121e8612bf0565b600080516020612ccd833981519152600090815260fb845260408082206001600160a01b039384168352855290205460ff168015612260575b61222a90612b4e565b600080516020612ced833981519152928360005260fb815281604060002093169283600052815260ff604060002054166111ac57005b5061222a816033541682612272612bf0565b16149050612221565b346102585760203660031901126102585760043563ffffffff60e01b811680910361025857602090637965db0b60e01b81149081156122c0575b506040519015158152f35b6301ffc9a760e01b149050826122b5565b34610258576020366003190112610258576122ea61235f565b6122f2612bf0565b6001600160a01b039081166000908152600080516020612c6d833981519152602052604090205460ff168015612344575b61232c90612b4e565b6101c480546001600160a01b03191691909216179055005b5061232c816033541682612356612bf0565b16149050612323565b600435906001600160a01b038216820361025857565b602435906001600160a01b038216820361025857565b35906001600160a01b038216820361025857565b60005b8381106123b25750506000910152565b81810151838201526020016123a2565b906020916123db8151809281855285808601910161239f565b601f01601f1916010190565b6060810190811067ffffffffffffffff821117611a4257604052565b90601f8019910116810190811067ffffffffffffffff821117611a4257604052565b67ffffffffffffffff8111611a4257601f01601f191660200190565b612449612bf0565b9060009080825260209160fb83526040938482209060018060a01b031690818352845260ff85832054161561247f575050505050565b84519261248b846123e7565b602a845284840190863683378451156127565760308253845192600193841015612742576078602187015360295b8481116126d85750612696578651926080840184811067ffffffffffffffff8211176126825788526042845286840194606036873784511561266e5760308653845182101561266e5790607860218601536041915b818311612600575050506125be576125ba93869361259e9361258f6048946125669a519a8b957f416363657373436f6e74726f6c3a206163636f756e74200000000000000000008c880152518092603788019061239f565b8401917001034b99036b4b9b9b4b733903937b6329607d1b60378401525180938684019061239f565b01036028810187520185612403565b5192839262461bcd60e51b8452600484015260248301906123c2565b0390fd5b60648587519062461bcd60e51b825280600483015260248201527f537472696e67733a20686578206c656e67746820696e73756666696369656e746044820152fd5b909192600f8116601081101561265a576f181899199a1a9b1b9c1cb0b131b232b360811b901a6126308588612b27565b5360041c9280156126465760001901919061250e565b634e487b7160e01b82526011600452602482fd5b634e487b7160e01b83526032600452602483fd5b634e487b7160e01b81526032600452602490fd5b634e487b7160e01b86526041600452602486fd5b60648688519062461bcd60e51b825280600483015260248201527f537472696e67733a20686578206c656e67746820696e73756666696369656e746044820152fd5b90600f8116601081101561272e576f181899199a1a9b1b9c1cb0b131b232b360811b901a6127068389612b27565b5360041c90801561271a57600019016124b9565b634e487b7160e01b86526011600452602486fd5b634e487b7160e01b87526032600452602487fd5b634e487b7160e01b85526032600452602485fd5b634e487b7160e01b84526032600452602484fd5b6001600160a01b0390811660008181527fc88390e7e62175be0932452175b6a7222b6b094ab0ef984a5153c620345d8975602052604081205490929060ff16156127b357505050565b82805260fb6020526040832082845260205260408320600160ff198254161790556127dc612bf0565b16917f2f8788117e7eff1d82e926ec794901d17c78024a50270940304540a733656f0d8180a4565b600081815260fb602090815260408083206001600160a01b039586168085529252822054919390929160ff1661283b575b50505050565b7ff6391f5c32d9c69d2a47ea670b442974b53935d1edc7fd64eb21e047a839171b9082855260fb602052604085208486526020526040852060ff198154169055612883612bf0565b169380a438808080612835565b6033546001600160a01b03908116906128a7612bf0565b16036128af57565b606460405162461bcd60e51b815260206004820152602060248201527f4f776e61626c653a2063616c6c6572206973206e6f7420746865206f776e65726044820152fd5b603380546001600160a01b039283166001600160a01b0319821681179092559091167f8be0079c531659141344cd1fd0a4f28419497f9722a3daafe3b4186f6b6457e0600080a3565b1561294357565b60405162461bcd60e51b815260206004820152602c60248201527f46756e6374696f6e206d7573742062652063616c6c6564207468726f7567682060448201526b19195b1959d85d1958d85b1b60a21b6064820152608490fd5b156129a457565b60405162461bcd60e51b815260206004820152602c60248201527f46756e6374696f6e206d7573742062652063616c6c6564207468726f7567682060448201526b6163746976652070726f787960a01b6064820152608490fd5b803b15612a3357600080516020612c8d83398151915280546001600160a01b0319166001600160a01b03909216919091179055565b60405162461bcd60e51b815260206004820152602d60248201527f455243313936373a206e657720696d706c656d656e746174696f6e206973206e60448201526c1bdd08184818dbdb9d1c9858dd609a1b6064820152608490fd5b91929015612af05750815115612aa2575090565b3b15612aab5790565b60405162461bcd60e51b815260206004820152601d60248201527f416464726573733a2063616c6c20746f206e6f6e2d636f6e74726163740000006044820152606490fd5b825190915015612b035750805190602001fd5b60405162461bcd60e51b8152602060048201529081906125ba9060248301906123c2565b908151811015612b38570160200190565b634e487b7160e01b600052603260045260246000fd5b15612b5557565b60405162461bcd60e51b8152602060048201526013602482015272556e617574686f72697a65642041636365737360681b6044820152606490fd5b15612b9757565b60405162461bcd60e51b815260206004820152602b60248201527f496e697469616c697a61626c653a20636f6e7472616374206973206e6f74206960448201526a6e697469616c697a696e6760a81b6064820152608490fd5b6097546001600160a01b031633148080612c41575b15612c17575036601319013560601c90565b60143610159081612c39575b5015612c355736601319013560601c90565b3390565b905038612c23565b506014361015612c0556fe189ab7a9244df0848122154315af71fe140f3db0fe014031783b0946b8c9d2e3defa081d5f5dff63cf62175586defc42bfa6070dce21008582b31b585449defd360894a13ba1a3210667c828492db98dca3e2076cc3735a920a3ca505d382bbc65d7a28e3265b37a6474929f336521b332c1681b933f6cb9f3376673440d862a7613a25ecc738585a232ad50a301178f12b3ba8887d13e138b523c4269c47689a49807205ce4d355092ef5a8a18f56e8913cf4a201fbe287825b095693c21775a264697066735822122012e92f82b8b3ece267e0a6986d17dcd734521835052a67561f7406ffe13f69ac64736f6c63430008110033",
  "linkReferences": {},
  "deployedLinkReferences": {}
}