{
  "_format": "hh-sol-artifact-1",
  "contractName": "StandardHookMetadata",
  "sourceName": "contracts/MessagingImpls/HyperlaneImpl.sol",
  "abi": [
    {
      "inputs": [],
      "name": "VARIANT",
      "outputs": [
        {
          "internalType": "uint16",
          "name": "",
          "type": "uint16"
        }
      ],
      "stateMutability": "view",
      "type": "function"
    }
  ],
  "bytecode": "0x608080604052346018576075908161001e823930815050f35b600080fdfe6080806040526004361015601257600080fd5b60003560e01c632641895314602657600080fd5b6000366003190112603a5780600160209252f35b600080fdfea2646970667358221220ef4dfbf459eb461df49fb55a61310314b8ba40f5795de3ac3c76a26defaa6b3464736f6c63430008110033",
  "linkReferences": {},
  "deployedLinkReferences": {}
}