{
  "_format": "hh-sol-artifact-1",
  "contractName": "ChainlinkCCIPImpl",
  "sourceName": "contracts/MessagingImpls/ChainlinkCCIPImpl.sol",
  "abi": [
    {
      "inputs": [],
      "stateMutability": "nonpayable",
      "type": "constructor"
    },
    {
      "anonymous": false,
      "inputs": [
        {
          "indexed": false,
          "internalType": "address",
          "name": "previousAdmin",
          "type": "address"
        },
        {
          "indexed": false,
          "internalType": "address",
          "name": "newAdmin",
          "type": "address"
        }
      ],
      "name": "AdminChanged",
      "type": "event"
    },
    {
      "anonymous": false,
      "inputs": [
        {
          "indexed": true,
          "internalType": "address",
          "name": "beacon",
          "type": "address"
        }
      ],
      "name": "BeaconUpgraded",
      "type": "event"
    },
    {
      "anonymous": false,
      "inputs": [
        {
          "indexed": false,
          "internalType": "uint8",
          "name": "version",
          "type": "uint8"
        }
      ],
      "name": "Initialized",
      "type": "event"
    },
    {
      "anonymous": false,
      "inputs": [
        {
          "indexed": true,
          "internalType": "address",
          "name": "previousOwner",
          "type": "address"
        },
        {
          "indexed": true,
          "internalType": "address",
          "name": "newOwner",
          "type": "address"
        }
      ],
      "name": "OwnershipTransferred",
      "type": "event"
    },
    {
      "anonymous": false,
      "inputs": [
        {
          "indexed": false,
          "internalType": "address",
          "name": "account",
          "type": "address"
        }
      ],
      "name": "Paused",
      "type": "event"
    },
    {
      "anonymous": false,
      "inputs": [
        {
          "indexed": true,
          "internalType": "bytes32",
          "name": "role",
          "type": "bytes32"
        },
        {
          "indexed": true,
          "internalType": "bytes32",
          "name": "previousAdminRole",
          "type": "bytes32"
        },
        {
          "indexed": true,
          "internalType": "bytes32",
          "name": "newAdminRole",
          "type": "bytes32"
        }
      ],
      "name": "RoleAdminChanged",
      "type": "event"
    },
    {
      "anonymous": false,
      "inputs": [
        {
          "indexed": true,
          "internalType": "bytes32",
          "name": "role",
          "type": "bytes32"
        },
        {
          "indexed": true,
          "internalType": "address",
          "name": "account",
          "type": "address"
        },
        {
          "indexed": true,
          "internalType": "address",
          "name": "sender",
          "type": "address"
        }
      ],
      "name": "RoleGranted",
      "type": "event"
    },
    {
      "anonymous": false,
      "inputs": [
        {
          "indexed": true,
          "internalType": "bytes32",
          "name": "role",
          "type": "bytes32"
        },
        {
          "indexed": true,
          "internalType": "address",
          "name": "account",
          "type": "address"
        },
        {
          "indexed": true,
          "internalType": "address",
          "name": "sender",
          "type": "address"
        }
      ],
      "name": "RoleRevoked",
      "type": "event"
    },
    {
      "anonymous": false,
      "inputs": [
        {
          "indexed": false,
          "internalType": "address",
          "name": "account",
          "type": "address"
        }
      ],
      "name": "Unpaused",
      "type": "event"
    },
    {
      "anonymous": false,
      "inputs": [
        {
          "indexed": true,
          "internalType": "address",
          "name": "implementation",
          "type": "address"
        }
      ],
      "name": "Upgraded",
      "type": "event"
    },
    {
      "inputs": [],
      "name": "ADMIN_ROLE",
      "outputs": [
        {
          "internalType": "bytes32",
          "name": "",
          "type": "bytes32"
        }
      ],
      "stateMutability": "view",
      "type": "function"
    },
    {
      "inputs": [],
      "name": "DEFAULT_ADMIN_ROLE",
      "outputs": [
        {
          "internalType": "bytes32",
          "name": "",
          "type": "bytes32"
        }
      ],
      "stateMutability": "view",
      "type": "function"
    },
    {
      "inputs": [],
      "name": "PAUSER_ROLE",
      "outputs": [
        {
          "internalType": "bytes32",
          "name": "",
          "type": "bytes32"
        }
      ],
      "stateMutability": "view",
      "type": "function"
    },
    {
      "inputs": [],
      "name": "SUPER_ADMIN_ROLE",
      "outputs": [
        {
          "internalType": "bytes32",
          "name": "",
          "type": "bytes32"
        }
      ],
      "stateMutability": "view",
      "type": "function"
    },
    {
      "inputs": [],
      "name": "UPGRADER_ROLE",
      "outputs": [
        {
          "internalType": "bytes32",
          "name": "",
          "type": "bytes32"
        }
      ],
      "stateMutability": "view",
      "type": "function"
    },
    {
      "inputs": [
        {
          "internalType": "address",
          "name": "_admin",
          "type": "address"
        }
      ],
      "name": "addAdmin",
      "outputs": [],
      "stateMutability": "nonpayable",
      "type": "function"
    },
    {
      "inputs": [
        {
          "internalType": "address",
          "name": "account",
          "type": "address"
        }
      ],
      "name": "addPauser",
      "outputs": [],
      "stateMutability": "nonpayable",
      "type": "function"
    },
    {
      "inputs": [
        {
          "internalType": "address",
          "name": "_superAdmin",
          "type": "address"
        }
      ],
      "name": "addSuperAdmin",
      "outputs": [],
      "stateMutability": "nonpayable",
      "type": "function"
    },
    {
      "inputs": [
        {
          "internalType": "address",
          "name": "_upgrader",
          "type": "address"
        }
      ],
      "name": "addUpgrader",
      "outputs": [],
      "stateMutability": "nonpayable",
      "type": "function"
    },
    {
      "inputs": [
        {
          "internalType": "uint256",
          "name": "",
          "type": "uint256"
        }
      ],
      "name": "chainlinkCcipChainSelector",
      "outputs": [
        {
          "internalType": "uint64",
          "name": "",
          "type": "uint64"
        }
      ],
      "stateMutability": "view",
      "type": "function"
    },
    {
      "inputs": [],
      "name": "chainlinkCcipRouter",
      "outputs": [
        {
          "internalType": "contract IRouterClient",
          "name": "",
          "type": "address"
        }
      ],
      "stateMutability": "view",
      "type": "function"
    },
    {
      "inputs": [],
      "name": "crossSyncGatewayAddress",
      "outputs": [
        {
          "internalType": "address",
          "name": "",
          "type": "address"
        }
      ],
      "stateMutability": "view",
      "type": "function"
    },
    {
      "inputs": [
        {
          "components": [
            {
              "internalType": "address",
              "name": "sender",
              "type": "address"
            },
            {
              "internalType": "uint256",
              "name": "nonce",
              "type": "uint256"
            },
            {
              "internalType": "uint256",
              "name": "messagingRouteId",
              "type": "uint256"
            },
            {
              "internalType": "uint256",
              "name": "sourceChainId",
              "type": "uint256"
            },
            {
              "internalType": "uint256",
              "name": "destinationChainId",
              "type": "uint256"
            },
            {
              "internalType": "address",
              "name": "sourceGatewayAddress",
              "type": "address"
            },
            {
              "internalType": "address",
              "name": "destinationGatewayAddress",
              "type": "address"
            },
            {
              "components": [
                {
                  "internalType": "address",
                  "name": "to",
                  "type": "address"
                },
                {
                  "internalType": "bytes",
                  "name": "data",
                  "type": "bytes"
                }
              ],
              "internalType": "struct ICrossSyncGateway.MessagingPayload",
              "name": "payload",
              "type": "tuple"
            }
          ],
          "internalType": "struct IMessagingImpl.ICrossSyncMessagingData",
          "name": "_data",
          "type": "tuple"
        }
      ],
      "name": "executeSendMessage",
      "outputs": [
        {
          "internalType": "bytes",
          "name": "",
          "type": "bytes"
        }
      ],
      "stateMutability": "payable",
      "type": "function"
    },
    {
      "inputs": [
        {
          "internalType": "bytes32",
          "name": "role",
          "type": "bytes32"
        }
      ],
      "name": "getRoleAdmin",
      "outputs": [
        {
          "internalType": "bytes32",
          "name": "",
          "type": "bytes32"
        }
      ],
      "stateMutability": "view",
      "type": "function"
    },
    {
      "inputs": [],
      "name": "getTrustedForwarder",
      "outputs": [
        {
          "internalType": "address",
          "name": "forwarder",
          "type": "address"
        }
      ],
      "stateMutability": "view",
      "type": "function"
    },
    {
      "inputs": [
        {
          "internalType": "bytes32",
          "name": "role",
          "type": "bytes32"
        },
        {
          "internalType": "address",
          "name": "account",
          "type": "address"
        }
      ],
      "name": "grantRole",
      "outputs": [],
      "stateMutability": "nonpayable",
      "type": "function"
    },
    {
      "inputs": [
        {
          "internalType": "bytes32",
          "name": "role",
          "type": "bytes32"
        },
        {
          "internalType": "address",
          "name": "account",
          "type": "address"
        }
      ],
      "name": "hasRole",
      "outputs": [
        {
          "internalType": "bool",
          "name": "",
          "type": "bool"
        }
      ],
      "stateMutability": "view",
      "type": "function"
    },
    {
      "inputs": [
        {
          "internalType": "address",
          "name": "_crossSyncGatewayAddress",
          "type": "address"
        },
        {
          "internalType": "address",
          "name": "_nativeCurrencyWrappedAddress",
          "type": "address"
        },
        {
          "internalType": "address",
          "name": "_nativeCurrencyAddress",
          "type": "address"
        },
        {
          "internalType": "address",
          "name": "_owner",
          "type": "address"
        },
        {
          "internalType": "address",
          "name": "_chainlinkRouterAddress",
          "type": "address"
        }
      ],
      "name": "initialize",
      "outputs": [],
      "stateMutability": "nonpayable",
      "type": "function"
    },
    {
      "inputs": [
        {
          "internalType": "address",
          "name": "forwarder",
          "type": "address"
        }
      ],
      "name": "isTrustedForwarder",
      "outputs": [
        {
          "internalType": "bool",
          "name": "",
          "type": "bool"
        }
      ],
      "stateMutability": "view",
      "type": "function"
    },
    {
      "inputs": [],
      "name": "nativeCurrencyAddress",
      "outputs": [
        {
          "internalType": "address",
          "name": "",
          "type": "address"
        }
      ],
      "stateMutability": "view",
      "type": "function"
    },
    {
      "inputs": [],
      "name": "nativeCurrencyWrappedAddress",
      "outputs": [
        {
          "internalType": "address",
          "name": "",
          "type": "address"
        }
      ],
      "stateMutability": "view",
      "type": "function"
    },
    {
      "inputs": [],
      "name": "owner",
      "outputs": [
        {
          "internalType": "address",
          "name": "",
          "type": "address"
        }
      ],
      "stateMutability": "view",
      "type": "function"
    },
    {
      "inputs": [],
      "name": "pause",
      "outputs": [],
      "stateMutability": "nonpayable",
      "type": "function"
    },
    {
      "inputs": [],
      "name": "paused",
      "outputs": [
        {
          "internalType": "bool",
          "name": "",
          "type": "bool"
        }
      ],
      "stateMutability": "view",
      "type": "function"
    },
    {
      "inputs": [],
      "name": "proxiableUUID",
      "outputs": [
        {
          "internalType": "bytes32",
          "name": "",
          "type": "bytes32"
        }
      ],
      "stateMutability": "view",
      "type": "function"
    },
    {
      "inputs": [
        {
          "internalType": "address",
          "name": "_admin",
          "type": "address"
        }
      ],
      "name": "removeAdmin",
      "outputs": [],
      "stateMutability": "nonpayable",
      "type": "function"
    },
    {
      "inputs": [
        {
          "internalType": "address",
          "name": "_pauser",
          "type": "address"
        }
      ],
      "name": "removePauser",
      "outputs": [],
      "stateMutability": "nonpayable",
      "type": "function"
    },
    {
      "inputs": [
        {
          "internalType": "address",
          "name": "_superAdmin",
          "type": "address"
        }
      ],
      "name": "removeSuperAdmin",
      "outputs": [],
      "stateMutability": "nonpayable",
      "type": "function"
    },
    {
      "inputs": [
        {
          "internalType": "address",
          "name": "_upgrader",
          "type": "address"
        }
      ],
      "name": "removeUpgrader",
      "outputs": [],
      "stateMutability": "nonpayable",
      "type": "function"
    },
    {
      "inputs": [],
      "name": "renounceOwnership",
      "outputs": [],
      "stateMutability": "nonpayable",
      "type": "function"
    },
    {
      "inputs": [
        {
          "internalType": "bytes32",
          "name": "role",
          "type": "bytes32"
        },
        {
          "internalType": "address",
          "name": "account",
          "type": "address"
        }
      ],
      "name": "renounceRole",
      "outputs": [],
      "stateMutability": "nonpayable",
      "type": "function"
    },
    {
      "inputs": [
        {
          "internalType": "address payable",
          "name": "userAddress",
          "type": "address"
        },
        {
          "internalType": "uint256",
          "name": "amount",
          "type": "uint256"
        }
      ],
      "name": "rescueEther",
      "outputs": [],
      "stateMutability": "nonpayable",
      "type": "function"
    },
    {
      "inputs": [
        {
          "internalType": "address",
          "name": "token",
          "type": "address"
        },
        {
          "internalType": "address",
          "name": "userAddress",
          "type": "address"
        },
        {
          "internalType": "uint256",
          "name": "amount",
          "type": "uint256"
        }
      ],
      "name": "rescueFunds",
      "outputs": [],
      "stateMutability": "nonpayable",
      "type": "function"
    },
    {
      "inputs": [
        {
          "internalType": "bytes32",
          "name": "role",
          "type": "bytes32"
        },
        {
          "internalType": "address",
          "name": "account",
          "type": "address"
        }
      ],
      "name": "revokeRole",
      "outputs": [],
      "stateMutability": "nonpayable",
      "type": "function"
    },
    {
      "inputs": [
        {
          "internalType": "uint256",
          "name": "_chainId",
          "type": "uint256"
        },
        {
          "internalType": "uint64",
          "name": "_chainSelector",
          "type": "uint64"
        }
      ],
      "name": "setChainlinkCcipChainSelector",
      "outputs": [],
      "stateMutability": "nonpayable",
      "type": "function"
    },
    {
      "inputs": [
        {
          "internalType": "contract IRouterClient",
          "name": "_router",
          "type": "address"
        }
      ],
      "name": "setChainlinkCcipRouter",
      "outputs": [],
      "stateMutability": "nonpayable",
      "type": "function"
    },
    {
      "inputs": [
        {
          "internalType": "address",
          "name": "_crossSyncGatewayAddress",
          "type": "address"
        }
      ],
      "name": "setCrossSyncGatewayAddress",
      "outputs": [],
      "stateMutability": "nonpayable",
      "type": "function"
    },
    {
      "inputs": [
        {
          "internalType": "address",
          "name": "_nativeCurrencyAddress",
          "type": "address"
        }
      ],
      "name": "setNativeCurrencyAddress",
      "outputs": [],
      "stateMutability": "nonpayable",
      "type": "function"
    },
    {
      "inputs": [
        {
          "internalType": "address",
          "name": "_nativeCurrencyWrappedAddress",
          "type": "address"
        }
      ],
      "name": "setNativeCurrencyWrappedAddress",
      "outputs": [],
      "stateMutability": "nonpayable",
      "type": "function"
    },
    {
      "inputs": [
        {
          "internalType": "address",
          "name": "_newtrustedForwarder",
          "type": "address"
        }
      ],
      "name": "setTrustedForwarder",
      "outputs": [],
      "stateMutability": "nonpayable",
      "type": "function"
    },
    {
      "inputs": [
        {
          "internalType": "bytes4",
          "name": "interfaceId",
          "type": "bytes4"
        }
      ],
      "name": "supportsInterface",
      "outputs": [
        {
          "internalType": "bool",
          "name": "",
          "type": "bool"
        }
      ],
      "stateMutability": "view",
      "type": "function"
    },
    {
      "inputs": [
        {
          "internalType": "address",
          "name": "newOwner",
          "type": "address"
        }
      ],
      "name": "transferOwnership",
      "outputs": [],
      "stateMutability": "nonpayable",
      "type": "function"
    },
    {
      "inputs": [],
      "name": "unpause",
      "outputs": [],
      "stateMutability": "nonpayable",
      "type": "function"
    },
    {
      "inputs": [
        {
          "internalType": "address",
          "name": "newImplementation",
          "type": "address"
        }
      ],
      "name": "upgradeTo",
      "outputs": [],
      "stateMutability": "nonpayable",
      "type": "function"
    },
    {
      "inputs": [
        {
          "internalType": "address",
          "name": "newImplementation",
          "type": "address"
        },
        {
          "internalType": "bytes",
          "name": "data",
          "type": "bytes"
        }
      ],
      "name": "upgradeToAndCall",
      "outputs": [],
      "stateMutability": "payable",
      "type": "function"
    },
    {
      "stateMutability": "payable",
      "type": "receive"
    }
  ],
  "bytecode": "0x60a060405234620000495730608052620000186200004e565b620000226200004e565b604051612dfd9081620000f88239608051818181610ddd01528181610f090152611a3b0152f35b600080fd5b60005460ff8160081c16620000a25760ff808216036200006b5750565b60ff90811916176000557f7f26b83ff96e1f2b6a682f133852f6798a09c465da95921460cefb3847402498602060405160ff8152a1565b60405162461bcd60e51b815260206004820152602760248201527f496e697469616c697a61626c653a20636f6e747261637420697320696e697469604482015266616c697a696e6760c81b6064820152608490fdfe6080604052600436101561001b575b361561001957600080fd5b005b60003560e01c80629fe7521461233f578062fdf486146122c857806301ffc9a7146122725780631459457a14611f5e5780631785f53c14611ea9578063248a9ca314611e7a5780632f2ff15d14611e1357806332495ce114611d8557806336568abe14611ce95780633659cfe614611a1657806338073f0c146119ec5780633f4ba83a146118a65780634460bdd61461187d57806346961bff146113635780634902e4aa146113015780634b03285a146112735780634bcdcd81146111ce5780634f1ef28614610e8e57806352d1902d14610dca578063572b6c0514610d955780635c975abb14610d6f5780636b2c0f5514610c925780636ccae05414610bf75780637048027514610b41578063715018a614610ae457806375b238fc14610abb57806382dc1ec4146109da5780638456cb591461088957806388c18978146108535780638da5cb5b1461082a57806391d14854146107dd578063a217fddf146107c1578063b3292ff01461075e578063b89b22d714610734578063bd826ed71461070a578063ce1b815f146106e1578063d264a8031461061a578063d547741f146105db578063da74222814610544578063dc561d881461051a578063e42e0ea9146104bd578063e5110158146103f2578063e63ab1e9146103c9578063f2fde38b1461023b5763f72c0d8b0361000e5734610236576000366003190112610236576020604051600080516020612d088339815191528152f35b600080fd5b3461023657602080600319360112610236576102556123cd565b61025d61294b565b61026561294b565b6001600160a01b0390808216156103755780610283610288926129ae565b612825565b610290612cab565b91818061029b612cab565b169316928303610319576000805260fb8152604060002083600052815260ff604060002054166102c757005b6000805260fb81526040600020908360005252604060002060ff1981541690556102ef612cab565b169060007ff6391f5c32d9c69d2a47ea670b442974b53935d1edc7fd64eb21e047a839171b8180a4005b6084906040519062461bcd60e51b82526004820152602f60248201527f416363657373436f6e74726f6c3a2063616e206f6e6c792072656e6f756e636560448201526e103937b632b9903337b91039b2b63360891b6064820152fd5b60405162461bcd60e51b815260048101849052602660248201527f4f776e61626c653a206e6577206f776e657220697320746865207a65726f206160448201526564647265737360d01b6064820152608490fd5b34610236576000366003190112610236576020604051600080516020612d688339815191528152f35b346102365760203660031901126102365761040b6123cd565b61041361294b565b6001600160a01b0390811660008181527f775ac87777436f29b0cd5453bf5db4da15d8938d0ef70de831d2edd17651cf676020526040902054600080516020612d08833981519152929060ff161561046757005b8260005260fb6020526040600020826000526020526040600020600160ff19825416179055610494612cab565b16917f2f8788117e7eff1d82e926ec794901d17c78024a50270940304540a733656f0d600080a4005b34610236576040366003190112610236576004356001600160a01b0381169081900361023657600080808093602435906104f561294b565b828215610511575bf11561050557005b6040513d6000823e3d90fd5b506108fc6104fd565b34610236576000366003190112610236576101f7546040516001600160a01b039091168152602090f35b346102365760203660031901126102365761055d6123cd565b610565612cab565b6001600160a01b039081166000908152600080516020612d28833981519152602052604090205490919060ff1680156105c0575b6105a290612c09565b166bffffffffffffffffffffffff60a01b6097541617609755600080f35b506105a28260335416836105d2612cab565b16149050610599565b34610236576040366003190112610236576100196004356105fa6123e3565b908060005260fb6020526106156001604060002001546124fd565b6128bf565b34610236576020366003190112610236576106336123cd565b61063b61294b565b6001600160a01b0390811660008181527f775ac87777436f29b0cd5453bf5db4da15d8938d0ef70de831d2edd17651cf676020526040902054600080516020612d08833981519152929060ff1661068e57005b8260005260fb602052604060002082600052602052604060002060ff1981541690556106b8612cab565b16917ff6391f5c32d9c69d2a47ea670b442974b53935d1edc7fd64eb21e047a839171b600080a4005b34610236576000366003190112610236576097546040516001600160a01b039091168152602090f35b34610236576000366003190112610236576101c4546040516001600160a01b039091168152602090f35b34610236576000366003190112610236576101c3546040516001600160a01b039091168152602090f35b34610236576020366003190112610236576107776123cd565b61077f61294b565b6001600160a01b039081166000818152600080516020612d288339815191526020526040902054600080516020612d88833981519152929060ff161561046757005b3461023657600036600319011261023657602060405160008152f35b34610236576040366003190112610236576107f66123e3565b60043560005260fb60205260406000209060018060a01b0316600052602052602060ff604060002054166040519015158152f35b34610236576000366003190112610236576033546040516001600160a01b039091168152602090f35b34610236576020366003190112610236576004356000526101f860205260206001600160401b0360406000205416604051908152f35b34610236576000366003190112610236576108a2612cab565b6001600160a01b0390811660009081527fc81858b0fc5e8d7d2c7a341b4e13a62a27b51e1da1072bf5f7fee8fdef673e94602090815260409091205460ff1680156109a0575b8015610985575b6108f890612c09565b6097549160ff8360a01c1661094d5760ff60a01b19909216600160a01b176097557f62e78cea01bee320cd4e420270b5ea74000d11b0c9f74754ebdbfc544b05a25891610943612cab565b60405191168152a1005b60405162461bcd60e51b815260048101839052601060248201526f14185d5cd8589b194e881c185d5cd95960821b6044820152606490fd5b506108f8826033541683610997612cab565b161490506108ef565b506109a9612cab565b600080516020612d8883398151915260005260fb82528260406000209116600052815260ff604060002054166108e8565b3461023657602080600319360112610236576109f46123cd565b6109fc612cab565b600080516020612d88833981519152600090815260fb845260408082206001600160a01b039384168352855290205460ff168015610aa0575b610a3e90612c09565b600080516020612d68833981519152928360005260fb815281604060002093169283600052815260ff6040600020541615610a7557005b8360005260fb815260406000209083600052526040600020600160ff19825416179055610494612cab565b50610a3e816033541682610ab2612cab565b16149050610a35565b34610236576000366003190112610236576020604051600080516020612da88339815191528152f35b3461023657600036600319011261023657610afd61294b565b603380546001600160a01b031981169091556000906001600160a01b03167f8be0079c531659141344cd1fd0a4f28419497f9722a3daafe3b4186f6b6457e08280a3005b346102365760208060031936011261023657610b5b6123cd565b610b63612cab565b600080516020612d88833981519152600090815260fb845260408082206001600160a01b039384168352855290205460ff168015610bdc575b610ba590612c09565b600080516020612da8833981519152928360005260fb815281604060002093169283600052815260ff6040600020541615610a7557005b50610ba5816033541682610bee612cab565b16149050610b9c565b346102365760603660031901126102365760006020610c146123cd565b6044610c1e6123e3565b91610c2761294b565b60405163a9059cbb60e01b81526001600160a01b039384166004820152823560248201529485938492165af1801561050557610c5f57005b6020813d8211610c8a575b81610c77602093836124c1565b8101031261023657518015150361023657005b3d9150610c6a565b346102365760208060031936011261023657610cac6123cd565b610cb4612cab565b600080516020612d88833981519152600090815260fb845260408082206001600160a01b039384168352855290205460ff168015610d54575b610cf690612c09565b600080516020612d68833981519152928360005260fb815281604060002093169283600052815260ff60406000205416610d2c57005b8360005260fb81526040600020908360005252604060002060ff1981541690556106b8612cab565b50610cf6816033541682610d66612cab565b16149050610ced565b3461023657600036600319011261023657602060ff60975460a01c166040519015158152f35b34610236576020366003190112610236576020610db06123cd565b6097546040516001600160a01b0392831691909216148152f35b34610236576000366003190112610236577f00000000000000000000000000000000000000000000000000000000000000006001600160a01b03163003610e23576020604051600080516020612d488339815191528152f35b60405162461bcd60e51b815260206004820152603860248201527f555550535570677261646561626c653a206d757374206e6f742062652063616c60448201527f6c6564207468726f7567682064656c656761746563616c6c00000000000000006064820152608490fd5b604036600319011261023657610ea26123cd565b602435906001600160401b0382116102365736602383011215610236578160040135610ecd816124e2565b610eda60405191826124c1565b818152602091828201943660248383010111610236578160009260248693018837830101526001600160a01b037f0000000000000000000000000000000000000000000000000000000000000000811690610f37308314156129f7565b610f54600080516020612d48833981519152928284541614612a58565b610f5c612cab565b600080516020612d0883398151915260005260fb85528160406000209116600052845260ff6040600020541680156111b3575b610f9890612c09565b7f4910fdfa16fed3260ed0e7147f7cc6da11a60208b5b9406d12a635614ffd91435460ff1615610fd057505050506100199150612ab9565b8492939416906040516352d1902d60e01b81528581600481865afa60009181611184575b506110555760405162461bcd60e51b815260048101879052602e60248201527f45524331393637557067726164653a206e657720696d706c656d656e7461746960448201526d6f6e206973206e6f74205555505360901b6064820152608490fd5b9493940361112d5761106682612ab9565b7fbc7cd75a20ee27fd9adebab32041f755214dbc6bffa90cc0225b39da2e5c2d3b600080a2825115801590611125575b61109c57005b60008061001995604051956110b0876124a6565b602787527f416464726573733a206c6f772d6c6576656c2064656c65676174652063616c6c86880152660819985a5b195960ca1b60408801525190845af4903d1561111c573d6110ff816124e2565b9061110d60405192836124c1565b8152600081943d92013e612b49565b60609250612b49565b506001611096565b60405162461bcd60e51b815260048101849052602960248201527f45524331393637557067726164653a20756e737570706f727465642070726f786044820152681a58589b195555525160ba1b6064820152608490fd5b9091508681813d83116111ac575b61119c81836124c1565b8101031261023657519088610ff4565b503d611192565b50610f988160335416826111c5612cab565b16149050610f8f565b34610236576040366003190112610236576024356001600160401b038116809103610236576112366111fe612cab565b6001600160a01b039081166000908152600080516020612d28833981519152602052604090205460ff1690811561125c575b50612c09565b6004356000526101f86020526040600020906001600160401b0319825416179055600080f35b6033548116915061126b612cab565b161483611230565b346102365760203660031901126102365761128c6123cd565b611294612cab565b6001600160a01b039081166000908152600080516020612d28833981519152602052604090205460ff1680156112e6575b6112ce90612c09565b6101c380546001600160a01b03191691909216179055005b506112ce8160335416826112f8612cab565b161490506112c5565b346102365760203660031901126102365761131a6123cd565b61132261294b565b6001600160a01b039081166000818152600080516020612d288339815191526020526040902054600080516020612d88833981519152929060ff1661068e57005b600319602036820112610236576004356001600160401b038111610236576101008136039283011261023657600261012d541461183857600261012d556113a8612cab565b6101c3546001600160a01b039081169116036117de57341561179957604051602080820152906001600160a01b036113e2600483016123f9565b166040830152602481013560608084019190915260448201356080840152606482013560a0840152608482013560c0840152926001600160a01b0361142960a484016123f9565b1660e08401526001600160a01b0361144360c484016123f9565b1661010084015260e482013590604219018112156102365761010061012084015281016001600160a01b0361147a600483016123f9565b16610140840152602481013560221982360301811215610236570160248101906001600160401b03600482013511610236576004810135360382136102365761150791846101a09260406101608301526101809260048201358484015260048201359085840137600084600483013584010152601f600481199201350116810103908101855201836124c1565b60c48101356001600160a01b03811692908390036102365783608060405161152e81612455565b82815282602082015282604082015260008382015201526040519260208401526020835261155b83612470565b604051906115688261248b565b600082526040519361157985612470565b62030d4085526020850160008152604051956397a657c960e01b60208801525160248701525115156044860152604485528460808101106001600160401b0360808701111761178357608085939293016040526115d860808601612455565b608085015260a0840191825260c0840190815260e0840191600083526101008501858152608460018060a01b036101f754169501356000526101f86020526001600160401b03604060002054169361167361165d6080604051998a986396f4e9f960e01b8a5260048a0152604060248a0152015160a0604489015260e4880190612430565b9351936043199485888303016064890152612430565b935193838682030160848701526020808651928381520195019060005b81811061175557505090516001600160a01b031660a4860152505183830390910160c484015260209391839182916116c791612430565b039134905af180156105055761172a575b50600161012d556040519060208252518060208301528160005b82811061171357508160006040809484010152601f80199101168101030190f35b6080810151848201604001528391506020016116f2565b602090813d831161174e575b61174081836124c1565b8101031261023657816116d8565b503d611736565b825180516001600160a01b03168852602090810151818901528a985060409097019690920191600101611690565b634e487b7160e01b600052604160045260246000fd5b60405162461bcd60e51b815260206004820152601760248201527f476173207061796d656e742069732072657175697265640000000000000000006044820152606490fd5b60405162461bcd60e51b815260206004820152602c60248201527f4f6e6c792043726f737353796e63476174657761792063616e2063616c6c207460448201526b3434b990333ab731ba34b7b760a11b6064820152608490fd5b60405162461bcd60e51b815260206004820152601f60248201527f5265656e7472616e637947756172643a207265656e7472616e742063616c6c006044820152606490fd5b34610236576000366003190112610236576020604051600080516020612d888339815191528152f35b34610236576000366003190112610236576118bf612cab565b6001600160a01b0390811660009081527fc81858b0fc5e8d7d2c7a341b4e13a62a27b51e1da1072bf5f7fee8fdef673e94602090815260409091205460ff1680156119b2575b8015611997575b61191590612c09565b6097549160ff8360a01c161561195b5760ff60a01b199092166097557f5db9ee0a495bf2e6ff9c91a7834c1ba4fdd244a5e8aa4e537bd38aeae4b073aa91610943612cab565b60405162461bcd60e51b815260048101839052601460248201527314185d5cd8589b194e881b9bdd081c185d5cd95960621b6044820152606490fd5b506119158260335416836119a9612cab565b1614905061190c565b506119bb612cab565b600080516020612d8883398151915260005260fb82528260406000209116600052815260ff60406000205416611905565b34610236576000366003190112610236576101c5546040516001600160a01b039091168152602090f35b346102365760208060031936011261023657611a306123cd565b906001600160a01b037f00000000000000000000000000000000000000000000000000000000000000008116611a68308214156129f7565b611a85600080516020612d48833981519152918383541614612a58565b611a8d612cab565b600080516020612d0883398151915260005260fb84528260406000209116600052835260ff604060002054168015611cce575b611ac990612c09565b60405191611ad68361248b565b600083527f4910fdfa16fed3260ed0e7147f7cc6da11a60208b5b9406d12a635614ffd91435460ff1615611b11575050505061001990612ab9565b8416906040516352d1902d60e01b81528481600481865afa60009181611c9f575b50611b935760405162461bcd60e51b815260048101869052602e60248201527f45524331393637557067726164653a206e657720696d706c656d656e7461746960448201526d6f6e206973206e6f74205555505360901b6064820152608490fd5b93929303611c4857611ba484612ab9565b7fbc7cd75a20ee27fd9adebab32041f755214dbc6bffa90cc0225b39da2e5c2d3b600080a2815115801590611c40575b611bda57005b6100199260008060405194611bee866124a6565b602786527f416464726573733a206c6f772d6c6576656c2064656c65676174652063616c6c85870152660819985a5b195960ca1b60408701528481519101845af4903d1561111c573d6110ff816124e2565b506000611bd4565b60405162461bcd60e51b815260048101839052602960248201527f45524331393637557067726164653a20756e737570706f727465642070726f786044820152681a58589b195555525160ba1b6064820152608490fd5b9091508581813d8311611cc7575b611cb781836124c1565b8101031261023657519087611b32565b503d611cad565b50611ac9826033541683611ce0612cab565b16149050611ac0565b3461023657604036600319011261023657611d026123e3565b6001600160a01b0380611d13612cab565b1690821603611d2857610019906004356128bf565b60405162461bcd60e51b815260206004820152602f60248201527f416363657373436f6e74726f6c3a2063616e206f6e6c792072656e6f756e636560448201526e103937b632b9903337b91039b2b63360891b6064820152608490fd5b3461023657602036600319011261023657611d9e6123cd565b611da6612cab565b6001600160a01b039081166000908152600080516020612d28833981519152602052604090205460ff168015611df8575b611de090612c09565b6101c580546001600160a01b03191691909216179055005b50611de0816033541682611e0a612cab565b16149050611dd7565b3461023657604036600319011261023657600435611e2f6123e3565b8160005260fb602052611e496001604060002001546124fd565b8160005260fb60205260406000209060018060a01b03809116918260005260205260ff604060002054161561046757005b346102365760203660031901126102365760043560005260fb6020526020600160406000200154604051908152f35b346102365760208060031936011261023657611ec36123cd565b611ecb612cab565b600080516020612d88833981519152600090815260fb845260408082206001600160a01b039384168352855290205460ff168015611f43575b611f0d90612c09565b600080516020612da8833981519152928360005260fb815281604060002093169283600052815260ff60406000205416610d2c57005b50611f0d816033541682611f55612cab565b16149050611f04565b346102365760a036600319011261023657611f776123cd565b611f7f6123e3565b6044356001600160a01b0381811693918490036102365760643593818516938486036102365760843592808416809403610236576000549660ff8860081c161596878098612265575b801561224e575b156121f257600198888a60ff198316176000556121e0575b5061202a60ff60005460081c16611ffd81612c4b565b61200681612c4b565b61200f81612c4b565b6097805460ff60a01b1916905561202581612c4b565b612c4b565b61203a612035612cab565b6129ae565b61206f60ff60005460081c1661204f81612c4b565b61205881612c4b565b61206181612c4b565b8a61012d5561202581612c4b565b61207761294b565b1561218c5780610283612089926129ae565b600080516020612da88339815191528060005260fb602052876040600020015490600080516020612d888339815191528092818b604060002001557fbd79b86ffe0ab8e8776151514217cd7cacd52c909f66475c3af44e129f0b00ff9283600080a4600080516020612d688339815191526000818152604081208b01805490859055929080a46bffffffffffffffffffffffff60a01b94816101c39116868254161790556101c49116848254161790556101c590838254161790556101f79182541617905561215457005b60207f7f26b83ff96e1f2b6a682f133852f6798a09c465da95921460cefb38474024989161ff001960005416600055604051908152a1005b60405162461bcd60e51b815260206004820152602660248201527f4f776e61626c653a206e6577206f776e657220697320746865207a65726f206160448201526564647265737360d01b6064820152608490fd5b61ffff19166101011760005589611fe7565b60405162461bcd60e51b815260206004820152602e60248201527f496e697469616c697a61626c653a20636f6e747261637420697320616c72656160448201526d191e481a5b9a5d1a585b1a5e995960921b6064820152608490fd5b50303b158015611fcf5750600160ff8a1614611fcf565b50600160ff8a1610611fc8565b346102365760203660031901126102365760043563ffffffff60e01b811680910361023657602090637965db0b60e01b81149081156122b7575b506040519015158152f35b6301ffc9a760e01b149050826122ac565b34610236576020366003190112610236576004356001600160a01b038181169182900361023657612329906122fb612cab565b81166000908152600080516020612d28833981519152602052604090205460ff1690811561125c5750612c09565b6101f780546001600160a01b0319169091179055005b34610236576020366003190112610236576123586123cd565b612360612cab565b6001600160a01b039081166000908152600080516020612d28833981519152602052604090205460ff1680156123b2575b61239a90612c09565b6101c480546001600160a01b03191691909216179055005b5061239a8160335416826123c4612cab565b16149050612391565b600435906001600160a01b038216820361023657565b602435906001600160a01b038216820361023657565b35906001600160a01b038216820361023657565b60005b8381106124205750506000910152565b8181015183820152602001612410565b906020916124498151809281855285808601910161240d565b601f01601f1916010190565b60a081019081106001600160401b0382111761178357604052565b604081019081106001600160401b0382111761178357604052565b602081019081106001600160401b0382111761178357604052565b606081019081106001600160401b0382111761178357604052565b90601f801991011681019081106001600160401b0382111761178357604052565b6001600160401b03811161178357601f01601f191660200190565b612505612cab565b9060009080825260209160fb83526040938482209060018060a01b031690818352845260ff85832054161561253b575050505050565b845192612547846124a6565b602a8452848401908636833784511561281157603082538451926001938410156127fd576078602187015360295b848111612793575061275157865192608084018481106001600160401b0382111761273d57885260428452868401946060368737845115612729576030865384518210156127295790607860218601536041915b8183116126bb57505050612679576126759386936126599361264a6048946126219a519a8b957f416363657373436f6e74726f6c3a206163636f756e74200000000000000000008c880152518092603788019061240d565b8401917001034b99036b4b9b9b4b733903937b6329607d1b60378401525180938684019061240d565b010360288101875201856124c1565b5192839262461bcd60e51b845260048401526024830190612430565b0390fd5b60648587519062461bcd60e51b825280600483015260248201527f537472696e67733a20686578206c656e67746820696e73756666696369656e746044820152fd5b909192600f81166010811015612715576f181899199a1a9b1b9c1cb0b131b232b360811b901a6126eb8588612be2565b5360041c928015612701576000190191906125c9565b634e487b7160e01b82526011600452602482fd5b634e487b7160e01b83526032600452602483fd5b634e487b7160e01b81526032600452602490fd5b634e487b7160e01b86526041600452602486fd5b60648688519062461bcd60e51b825280600483015260248201527f537472696e67733a20686578206c656e67746820696e73756666696369656e746044820152fd5b90600f811660108110156127e9576f181899199a1a9b1b9c1cb0b131b232b360811b901a6127c18389612be2565b5360041c9080156127d55760001901612575565b634e487b7160e01b86526011600452602486fd5b634e487b7160e01b87526032600452602487fd5b634e487b7160e01b85526032600452602485fd5b634e487b7160e01b84526032600452602484fd5b6001600160a01b0390811660008181527fc88390e7e62175be0932452175b6a7222b6b094ab0ef984a5153c620345d8975602052604081205490929060ff161561286e57505050565b82805260fb6020526040832082845260205260408320600160ff19825416179055612897612cab565b16917f2f8788117e7eff1d82e926ec794901d17c78024a50270940304540a733656f0d8180a4565b600081815260fb602090815260408083206001600160a01b039586168085529252822054919390929160ff166128f6575b50505050565b7ff6391f5c32d9c69d2a47ea670b442974b53935d1edc7fd64eb21e047a839171b9082855260fb602052604085208486526020526040852060ff19815416905561293e612cab565b169380a4388080806128f0565b6033546001600160a01b0390811690612962612cab565b160361296a57565b606460405162461bcd60e51b815260206004820152602060248201527f4f776e61626c653a2063616c6c6572206973206e6f7420746865206f776e65726044820152fd5b603380546001600160a01b039283166001600160a01b0319821681179092559091167f8be0079c531659141344cd1fd0a4f28419497f9722a3daafe3b4186f6b6457e0600080a3565b156129fe57565b60405162461bcd60e51b815260206004820152602c60248201527f46756e6374696f6e206d7573742062652063616c6c6564207468726f7567682060448201526b19195b1959d85d1958d85b1b60a21b6064820152608490fd5b15612a5f57565b60405162461bcd60e51b815260206004820152602c60248201527f46756e6374696f6e206d7573742062652063616c6c6564207468726f7567682060448201526b6163746976652070726f787960a01b6064820152608490fd5b803b15612aee57600080516020612d4883398151915280546001600160a01b0319166001600160a01b03909216919091179055565b60405162461bcd60e51b815260206004820152602d60248201527f455243313936373a206e657720696d706c656d656e746174696f6e206973206e60448201526c1bdd08184818dbdb9d1c9858dd609a1b6064820152608490fd5b91929015612bab5750815115612b5d575090565b3b15612b665790565b60405162461bcd60e51b815260206004820152601d60248201527f416464726573733a2063616c6c20746f206e6f6e2d636f6e74726163740000006044820152606490fd5b825190915015612bbe5750805190602001fd5b60405162461bcd60e51b815260206004820152908190612675906024830190612430565b908151811015612bf3570160200190565b634e487b7160e01b600052603260045260246000fd5b15612c1057565b60405162461bcd60e51b8152602060048201526013602482015272556e617574686f72697a65642041636365737360681b6044820152606490fd5b15612c5257565b60405162461bcd60e51b815260206004820152602b60248201527f496e697469616c697a61626c653a20636f6e7472616374206973206e6f74206960448201526a6e697469616c697a696e6760a81b6064820152608490fd5b6097546001600160a01b031633148080612cfc575b15612cd2575036601319013560601c90565b60143610159081612cf4575b5015612cf05736601319013560601c90565b3390565b905038612cde565b506014361015612cc056fe189ab7a9244df0848122154315af71fe140f3db0fe014031783b0946b8c9d2e3defa081d5f5dff63cf62175586defc42bfa6070dce21008582b31b585449defd360894a13ba1a3210667c828492db98dca3e2076cc3735a920a3ca505d382bbc65d7a28e3265b37a6474929f336521b332c1681b933f6cb9f3376673440d862a7613a25ecc738585a232ad50a301178f12b3ba8887d13e138b523c4269c47689a49807205ce4d355092ef5a8a18f56e8913cf4a201fbe287825b095693c21775a2646970667358221220020bb7d42aa8ee0f0f69a26e5d3944a5847af1f5dc8a63c46f05e133fec22dc664736f6c63430008110033",
  "linkReferences": {},
  "deployedLinkReferences": {}
}