{
  "_format": "hh-sol-artifact-1",
  "contractName": "ChainlinkCCIPImpl",
  "sourceName": "contracts/MessagingImpls/ChainlinkCCIPImpl.sol",
  "abi": [
    {
      "inputs": [],
      "stateMutability": "nonpayable",
      "type": "constructor"
    },
    {
      "anonymous": false,
      "inputs": [
        {
          "indexed": false,
          "internalType": "address",
          "name": "previousAdmin",
          "type": "address"
        },
        {
          "indexed": false,
          "internalType": "address",
          "name": "newAdmin",
          "type": "address"
        }
      ],
      "name": "AdminChanged",
      "type": "event"
    },
    {
      "anonymous": false,
      "inputs": [
        {
          "indexed": true,
          "internalType": "address",
          "name": "beacon",
          "type": "address"
        }
      ],
      "name": "BeaconUpgraded",
      "type": "event"
    },
    {
      "anonymous": false,
      "inputs": [
        {
          "indexed": false,
          "internalType": "uint8",
          "name": "version",
          "type": "uint8"
        }
      ],
      "name": "Initialized",
      "type": "event"
    },
    {
      "anonymous": false,
      "inputs": [
        {
          "indexed": true,
          "internalType": "address",
          "name": "previousOwner",
          "type": "address"
        },
        {
          "indexed": true,
          "internalType": "address",
          "name": "newOwner",
          "type": "address"
        }
      ],
      "name": "OwnershipTransferred",
      "type": "event"
    },
    {
      "anonymous": false,
      "inputs": [
        {
          "indexed": false,
          "internalType": "address",
          "name": "account",
          "type": "address"
        }
      ],
      "name": "Paused",
      "type": "event"
    },
    {
      "anonymous": false,
      "inputs": [
        {
          "indexed": true,
          "internalType": "bytes32",
          "name": "role",
          "type": "bytes32"
        },
        {
          "indexed": true,
          "internalType": "bytes32",
          "name": "previousAdminRole",
          "type": "bytes32"
        },
        {
          "indexed": true,
          "internalType": "bytes32",
          "name": "newAdminRole",
          "type": "bytes32"
        }
      ],
      "name": "RoleAdminChanged",
      "type": "event"
    },
    {
      "anonymous": false,
      "inputs": [
        {
          "indexed": true,
          "internalType": "bytes32",
          "name": "role",
          "type": "bytes32"
        },
        {
          "indexed": true,
          "internalType": "address",
          "name": "account",
          "type": "address"
        },
        {
          "indexed": true,
          "internalType": "address",
          "name": "sender",
          "type": "address"
        }
      ],
      "name": "RoleGranted",
      "type": "event"
    },
    {
      "anonymous": false,
      "inputs": [
        {
          "indexed": true,
          "internalType": "bytes32",
          "name": "role",
          "type": "bytes32"
        },
        {
          "indexed": true,
          "internalType": "address",
          "name": "account",
          "type": "address"
        },
        {
          "indexed": true,
          "internalType": "address",
          "name": "sender",
          "type": "address"
        }
      ],
      "name": "RoleRevoked",
      "type": "event"
    },
    {
      "anonymous": false,
      "inputs": [
        {
          "indexed": false,
          "internalType": "address",
          "name": "account",
          "type": "address"
        }
      ],
      "name": "Unpaused",
      "type": "event"
    },
    {
      "anonymous": false,
      "inputs": [
        {
          "indexed": true,
          "internalType": "address",
          "name": "implementation",
          "type": "address"
        }
      ],
      "name": "Upgraded",
      "type": "event"
    },
    {
      "inputs": [],
      "name": "ADMIN_ROLE",
      "outputs": [
        {
          "internalType": "bytes32",
          "name": "",
          "type": "bytes32"
        }
      ],
      "stateMutability": "view",
      "type": "function"
    },
    {
      "inputs": [],
      "name": "DEFAULT_ADMIN_ROLE",
      "outputs": [
        {
          "internalType": "bytes32",
          "name": "",
          "type": "bytes32"
        }
      ],
      "stateMutability": "view",
      "type": "function"
    },
    {
      "inputs": [],
      "name": "PAUSER_ROLE",
      "outputs": [
        {
          "internalType": "bytes32",
          "name": "",
          "type": "bytes32"
        }
      ],
      "stateMutability": "view",
      "type": "function"
    },
    {
      "inputs": [],
      "name": "SUPER_ADMIN_ROLE",
      "outputs": [
        {
          "internalType": "bytes32",
          "name": "",
          "type": "bytes32"
        }
      ],
      "stateMutability": "view",
      "type": "function"
    },
    {
      "inputs": [],
      "name": "UPGRADER_ROLE",
      "outputs": [
        {
          "internalType": "bytes32",
          "name": "",
          "type": "bytes32"
        }
      ],
      "stateMutability": "view",
      "type": "function"
    },
    {
      "inputs": [
        {
          "internalType": "address",
          "name": "_admin",
          "type": "address"
        }
      ],
      "name": "addAdmin",
      "outputs": [],
      "stateMutability": "nonpayable",
      "type": "function"
    },
    {
      "inputs": [
        {
          "internalType": "address",
          "name": "account",
          "type": "address"
        }
      ],
      "name": "addPauser",
      "outputs": [],
      "stateMutability": "nonpayable",
      "type": "function"
    },
    {
      "inputs": [
        {
          "internalType": "address",
          "name": "_superAdmin",
          "type": "address"
        }
      ],
      "name": "addSuperAdmin",
      "outputs": [],
      "stateMutability": "nonpayable",
      "type": "function"
    },
    {
      "inputs": [
        {
          "internalType": "address",
          "name": "_upgrader",
          "type": "address"
        }
      ],
      "name": "addUpgrader",
      "outputs": [],
      "stateMutability": "nonpayable",
      "type": "function"
    },
    {
      "inputs": [
        {
          "components": [
            {
              "internalType": "bytes32",
              "name": "messageId",
              "type": "bytes32"
            },
            {
              "internalType": "uint64",
              "name": "sourceChainSelector",
              "type": "uint64"
            },
            {
              "internalType": "bytes",
              "name": "sender",
              "type": "bytes"
            },
            {
              "internalType": "bytes",
              "name": "data",
              "type": "bytes"
            },
            {
              "components": [
                {
                  "internalType": "address",
                  "name": "token",
                  "type": "address"
                },
                {
                  "internalType": "uint256",
                  "name": "amount",
                  "type": "uint256"
                }
              ],
              "internalType": "struct Client.EVMTokenAmount[]",
              "name": "destTokenAmounts",
              "type": "tuple[]"
            }
          ],
          "internalType": "struct Client.Any2EVMMessage",
          "name": "message",
          "type": "tuple"
        }
      ],
      "name": "ccipReceive",
      "outputs": [],
      "stateMutability": "nonpayable",
      "type": "function"
    },
    {
      "inputs": [
        {
          "internalType": "uint256",
          "name": "",
          "type": "uint256"
        }
      ],
      "name": "chainlinkCcipChainImplAddress",
      "outputs": [
        {
          "internalType": "address",
          "name": "",
          "type": "address"
        }
      ],
      "stateMutability": "view",
      "type": "function"
    },
    {
      "inputs": [
        {
          "internalType": "uint256",
          "name": "",
          "type": "uint256"
        }
      ],
      "name": "chainlinkCcipChainSelector",
      "outputs": [
        {
          "internalType": "uint64",
          "name": "",
          "type": "uint64"
        }
      ],
      "stateMutability": "view",
      "type": "function"
    },
    {
      "inputs": [
        {
          "internalType": "uint64",
          "name": "",
          "type": "uint64"
        }
      ],
      "name": "chainlinkCcipChainSelectorToChainId",
      "outputs": [
        {
          "internalType": "uint256",
          "name": "",
          "type": "uint256"
        }
      ],
      "stateMutability": "view",
      "type": "function"
    },
    {
      "inputs": [],
      "name": "chainlinkCcipRouter",
      "outputs": [
        {
          "internalType": "contract IRouterClient",
          "name": "",
          "type": "address"
        }
      ],
      "stateMutability": "view",
      "type": "function"
    },
    {
      "inputs": [],
      "name": "crossSyncGatewayAddress",
      "outputs": [
        {
          "internalType": "address",
          "name": "",
          "type": "address"
        }
      ],
      "stateMutability": "view",
      "type": "function"
    },
    {
      "inputs": [],
      "name": "defaultGasLimit",
      "outputs": [
        {
          "internalType": "uint256",
          "name": "",
          "type": "uint256"
        }
      ],
      "stateMutability": "view",
      "type": "function"
    },
    {
      "inputs": [
        {
          "components": [
            {
              "internalType": "address",
              "name": "sender",
              "type": "address"
            },
            {
              "internalType": "uint256",
              "name": "nonce",
              "type": "uint256"
            },
            {
              "internalType": "uint256",
              "name": "messagingRouteId",
              "type": "uint256"
            },
            {
              "internalType": "uint256",
              "name": "sourceChainId",
              "type": "uint256"
            },
            {
              "internalType": "uint256",
              "name": "destinationChainId",
              "type": "uint256"
            },
            {
              "internalType": "address",
              "name": "sourceGatewayAddress",
              "type": "address"
            },
            {
              "internalType": "address",
              "name": "destinationGatewayAddress",
              "type": "address"
            },
            {
              "components": [
                {
                  "internalType": "address",
                  "name": "to",
                  "type": "address"
                },
                {
                  "internalType": "bytes",
                  "name": "data",
                  "type": "bytes"
                }
              ],
              "internalType": "struct ICrossSyncGateway.MessagingPayload",
              "name": "payload",
              "type": "tuple"
            }
          ],
          "internalType": "struct IMessagingImpl.ICrossSyncMessagingData",
          "name": "_data",
          "type": "tuple"
        },
        {
          "internalType": "uint256",
          "name": "_gasLimit",
          "type": "uint256"
        }
      ],
      "name": "executeSendMessage",
      "outputs": [
        {
          "internalType": "bytes",
          "name": "",
          "type": "bytes"
        }
      ],
      "stateMutability": "payable",
      "type": "function"
    },
    {
      "inputs": [
        {
          "components": [
            {
              "internalType": "address",
              "name": "sender",
              "type": "address"
            },
            {
              "internalType": "uint256",
              "name": "nonce",
              "type": "uint256"
            },
            {
              "internalType": "uint256",
              "name": "messagingRouteId",
              "type": "uint256"
            },
            {
              "internalType": "uint256",
              "name": "sourceChainId",
              "type": "uint256"
            },
            {
              "internalType": "uint256",
              "name": "destinationChainId",
              "type": "uint256"
            },
            {
              "internalType": "address",
              "name": "sourceGatewayAddress",
              "type": "address"
            },
            {
              "internalType": "address",
              "name": "destinationGatewayAddress",
              "type": "address"
            },
            {
              "components": [
                {
                  "internalType": "address",
                  "name": "to",
                  "type": "address"
                },
                {
                  "internalType": "bytes",
                  "name": "data",
                  "type": "bytes"
                }
              ],
              "internalType": "struct ICrossSyncGateway.MessagingPayload",
              "name": "payload",
              "type": "tuple"
            }
          ],
          "internalType": "struct IMessagingImpl.ICrossSyncMessagingData",
          "name": "_data",
          "type": "tuple"
        },
        {
          "internalType": "uint256",
          "name": "_gasLimit",
          "type": "uint256"
        }
      ],
      "name": "getFee",
      "outputs": [
        {
          "internalType": "uint256",
          "name": "",
          "type": "uint256"
        }
      ],
      "stateMutability": "view",
      "type": "function"
    },
    {
      "inputs": [
        {
          "internalType": "bytes32",
          "name": "role",
          "type": "bytes32"
        }
      ],
      "name": "getRoleAdmin",
      "outputs": [
        {
          "internalType": "bytes32",
          "name": "",
          "type": "bytes32"
        }
      ],
      "stateMutability": "view",
      "type": "function"
    },
    {
      "inputs": [],
      "name": "getTrustedForwarder",
      "outputs": [
        {
          "internalType": "address",
          "name": "forwarder",
          "type": "address"
        }
      ],
      "stateMutability": "view",
      "type": "function"
    },
    {
      "inputs": [
        {
          "internalType": "bytes32",
          "name": "role",
          "type": "bytes32"
        },
        {
          "internalType": "address",
          "name": "account",
          "type": "address"
        }
      ],
      "name": "grantRole",
      "outputs": [],
      "stateMutability": "nonpayable",
      "type": "function"
    },
    {
      "inputs": [
        {
          "internalType": "bytes32",
          "name": "role",
          "type": "bytes32"
        },
        {
          "internalType": "address",
          "name": "account",
          "type": "address"
        }
      ],
      "name": "hasRole",
      "outputs": [
        {
          "internalType": "bool",
          "name": "",
          "type": "bool"
        }
      ],
      "stateMutability": "view",
      "type": "function"
    },
    {
      "inputs": [
        {
          "internalType": "address",
          "name": "_crossSyncGatewayAddress",
          "type": "address"
        },
        {
          "internalType": "address",
          "name": "_nativeCurrencyWrappedAddress",
          "type": "address"
        },
        {
          "internalType": "address",
          "name": "_nativeCurrencyAddress",
          "type": "address"
        },
        {
          "internalType": "address",
          "name": "_owner",
          "type": "address"
        },
        {
          "internalType": "address",
          "name": "_chainlinkRouterAddress",
          "type": "address"
        }
      ],
      "name": "initialize",
      "outputs": [],
      "stateMutability": "nonpayable",
      "type": "function"
    },
    {
      "inputs": [
        {
          "internalType": "address",
          "name": "forwarder",
          "type": "address"
        }
      ],
      "name": "isTrustedForwarder",
      "outputs": [
        {
          "internalType": "bool",
          "name": "",
          "type": "bool"
        }
      ],
      "stateMutability": "view",
      "type": "function"
    },
    {
      "inputs": [
        {
          "internalType": "bytes32",
          "name": "",
          "type": "bytes32"
        },
        {
          "internalType": "bytes32",
          "name": "",
          "type": "bytes32"
        }
      ],
      "name": "messageSeen",
      "outputs": [
        {
          "internalType": "bool",
          "name": "",
          "type": "bool"
        }
      ],
      "stateMutability": "view",
      "type": "function"
    },
    {
      "inputs": [],
      "name": "nativeCurrencyAddress",
      "outputs": [
        {
          "internalType": "address",
          "name": "",
          "type": "address"
        }
      ],
      "stateMutability": "view",
      "type": "function"
    },
    {
      "inputs": [],
      "name": "nativeCurrencyWrappedAddress",
      "outputs": [
        {
          "internalType": "address",
          "name": "",
          "type": "address"
        }
      ],
      "stateMutability": "view",
      "type": "function"
    },
    {
      "inputs": [],
      "name": "owner",
      "outputs": [
        {
          "internalType": "address",
          "name": "",
          "type": "address"
        }
      ],
      "stateMutability": "view",
      "type": "function"
    },
    {
      "inputs": [],
      "name": "pause",
      "outputs": [],
      "stateMutability": "nonpayable",
      "type": "function"
    },
    {
      "inputs": [],
      "name": "paused",
      "outputs": [
        {
          "internalType": "bool",
          "name": "",
          "type": "bool"
        }
      ],
      "stateMutability": "view",
      "type": "function"
    },
    {
      "inputs": [],
      "name": "proxiableUUID",
      "outputs": [
        {
          "internalType": "bytes32",
          "name": "",
          "type": "bytes32"
        }
      ],
      "stateMutability": "view",
      "type": "function"
    },
    {
      "inputs": [
        {
          "internalType": "address",
          "name": "_admin",
          "type": "address"
        }
      ],
      "name": "removeAdmin",
      "outputs": [],
      "stateMutability": "nonpayable",
      "type": "function"
    },
    {
      "inputs": [
        {
          "internalType": "address",
          "name": "_pauser",
          "type": "address"
        }
      ],
      "name": "removePauser",
      "outputs": [],
      "stateMutability": "nonpayable",
      "type": "function"
    },
    {
      "inputs": [
        {
          "internalType": "address",
          "name": "_superAdmin",
          "type": "address"
        }
      ],
      "name": "removeSuperAdmin",
      "outputs": [],
      "stateMutability": "nonpayable",
      "type": "function"
    },
    {
      "inputs": [
        {
          "internalType": "address",
          "name": "_upgrader",
          "type": "address"
        }
      ],
      "name": "removeUpgrader",
      "outputs": [],
      "stateMutability": "nonpayable",
      "type": "function"
    },
    {
      "inputs": [],
      "name": "renounceOwnership",
      "outputs": [],
      "stateMutability": "nonpayable",
      "type": "function"
    },
    {
      "inputs": [
        {
          "internalType": "bytes32",
          "name": "role",
          "type": "bytes32"
        },
        {
          "internalType": "address",
          "name": "account",
          "type": "address"
        }
      ],
      "name": "renounceRole",
      "outputs": [],
      "stateMutability": "nonpayable",
      "type": "function"
    },
    {
      "inputs": [
        {
          "internalType": "address payable",
          "name": "userAddress",
          "type": "address"
        },
        {
          "internalType": "uint256",
          "name": "amount",
          "type": "uint256"
        }
      ],
      "name": "rescueEther",
      "outputs": [],
      "stateMutability": "nonpayable",
      "type": "function"
    },
    {
      "inputs": [
        {
          "internalType": "address",
          "name": "token",
          "type": "address"
        },
        {
          "internalType": "address",
          "name": "userAddress",
          "type": "address"
        },
        {
          "internalType": "uint256",
          "name": "amount",
          "type": "uint256"
        }
      ],
      "name": "rescueFunds",
      "outputs": [],
      "stateMutability": "nonpayable",
      "type": "function"
    },
    {
      "inputs": [
        {
          "internalType": "bytes32",
          "name": "role",
          "type": "bytes32"
        },
        {
          "internalType": "address",
          "name": "account",
          "type": "address"
        }
      ],
      "name": "revokeRole",
      "outputs": [],
      "stateMutability": "nonpayable",
      "type": "function"
    },
    {
      "inputs": [
        {
          "internalType": "uint256",
          "name": "_chainId",
          "type": "uint256"
        },
        {
          "internalType": "address",
          "name": "_implAddress",
          "type": "address"
        }
      ],
      "name": "setChainlinkCcipChainImplAddress",
      "outputs": [],
      "stateMutability": "nonpayable",
      "type": "function"
    },
    {
      "inputs": [
        {
          "internalType": "uint256",
          "name": "_chainId",
          "type": "uint256"
        },
        {
          "internalType": "uint64",
          "name": "_chainSelector",
          "type": "uint64"
        }
      ],
      "name": "setChainlinkCcipChainSelector",
      "outputs": [],
      "stateMutability": "nonpayable",
      "type": "function"
    },
    {
      "inputs": [
        {
          "internalType": "contract IRouterClient",
          "name": "_router",
          "type": "address"
        }
      ],
      "name": "setChainlinkCcipRouter",
      "outputs": [],
      "stateMutability": "nonpayable",
      "type": "function"
    },
    {
      "inputs": [
        {
          "internalType": "address",
          "name": "_crossSyncGatewayAddress",
          "type": "address"
        }
      ],
      "name": "setCrossSyncGatewayAddress",
      "outputs": [],
      "stateMutability": "nonpayable",
      "type": "function"
    },
    {
      "inputs": [
        {
          "internalType": "uint256",
          "name": "_defaultGasLimit",
          "type": "uint256"
        }
      ],
      "name": "setDefaultGasLimit",
      "outputs": [],
      "stateMutability": "nonpayable",
      "type": "function"
    },
    {
      "inputs": [
        {
          "internalType": "address",
          "name": "_nativeCurrencyAddress",
          "type": "address"
        }
      ],
      "name": "setNativeCurrencyAddress",
      "outputs": [],
      "stateMutability": "nonpayable",
      "type": "function"
    },
    {
      "inputs": [
        {
          "internalType": "address",
          "name": "_nativeCurrencyWrappedAddress",
          "type": "address"
        }
      ],
      "name": "setNativeCurrencyWrappedAddress",
      "outputs": [],
      "stateMutability": "nonpayable",
      "type": "function"
    },
    {
      "inputs": [
        {
          "internalType": "address",
          "name": "_newtrustedForwarder",
          "type": "address"
        }
      ],
      "name": "setTrustedForwarder",
      "outputs": [],
      "stateMutability": "nonpayable",
      "type": "function"
    },
    {
      "inputs": [
        {
          "internalType": "bytes4",
          "name": "interfaceId",
          "type": "bytes4"
        }
      ],
      "name": "supportsInterface",
      "outputs": [
        {
          "internalType": "bool",
          "name": "",
          "type": "bool"
        }
      ],
      "stateMutability": "pure",
      "type": "function"
    },
    {
      "inputs": [
        {
          "internalType": "address",
          "name": "newOwner",
          "type": "address"
        }
      ],
      "name": "transferOwnership",
      "outputs": [],
      "stateMutability": "nonpayable",
      "type": "function"
    },
    {
      "inputs": [],
      "name": "unpause",
      "outputs": [],
      "stateMutability": "nonpayable",
      "type": "function"
    },
    {
      "inputs": [
        {
          "internalType": "address",
          "name": "newImplementation",
          "type": "address"
        }
      ],
      "name": "upgradeTo",
      "outputs": [],
      "stateMutability": "nonpayable",
      "type": "function"
    },
    {
      "inputs": [
        {
          "internalType": "address",
          "name": "newImplementation",
          "type": "address"
        },
        {
          "internalType": "bytes",
          "name": "data",
          "type": "bytes"
        }
      ],
      "name": "upgradeToAndCall",
      "outputs": [],
      "stateMutability": "payable",
      "type": "function"
    },
    {
      "stateMutability": "payable",
      "type": "receive"
    }
  ],
  "bytecode": "0x60a060405234620000495730608052620000186200004e565b620000226200004e565b6040516134829081620000f882396080518181816112c3015281816113c20152611c230152f35b600080fd5b60005460ff8160081c16620000a25760ff808216036200006b5750565b60ff90811916176000557f7f26b83ff96e1f2b6a682f133852f6798a09c465da95921460cefb3847402498602060405160ff8152a1565b60405162461bcd60e51b815260206004820152602760248201527f496e697469616c697a61626c653a20636f6e747261637420697320696e697469604482015266616c697a696e6760c81b6064820152608490fdfe60406080815260049081361015610020575b5050361561001e57600080fd5b005b600091823560e01c9081629fe7521461258b578162fdf4861461250c57816301ffc9a7146124b65781631459457a146121a25781631785f53c146120ee5781631908e8a2146120b7578163248a9ca31461208c5781632ad22aa414611fed5781632f2ff15d14611f4857816332495ce114611eaf57816336568abe14611e135781633659cfe614611bfb57816336c5eda4146119eb57816338073f0c146119c15781633f4ba83a1461188c5781634460bdd6146118635781634902e4aa146117c45781634b03285a1461172b5781634bcdcd81146116905781634f1ef2861461137057816352d1902d146112ad578163572b6c05146112795781635c975abb14611252578163604a172c1461114a5781636b2c0f55146110585781636ccae05414610fab5781637048027514610ef6578163715018a614610e9657816375b238fc14610e6d5781637fc3233314610e3957816382dc1ec414610d435781638456cb5914610bff57816385572ffb1461097357816388c18978146109415781638da5cb5b1461091857816391d14854146108d257816395368d2e146108b2578163a217fddf14610897578163b0d80c1714610858578163b3292ff0146107f3578163b89b22d7146107c9578163bd826ed71461079f578163ce1b815f14610776578163d264a803146106ce578163d547741f1461068f578163da742228146105f9578163dc561d88146105cf578163e32bb67b14610551578163e42e0ea9146104f6578163e51101581461044a578163e63ab1e914610421578163f2fde38b14610299575063f72c0d8b0361001157346102955781600319360112610295576020905160008051602061338d8339815191528152f35b5080fd5b9190503461041d5760209081600319360112610419576102b7612624565b916102c0612c01565b6102c8612c01565b6001600160a01b0392808416156103c757806102e66102eb92612c64565b612aff565b6102f3613310565b9383806102fe613310565b16951694850361036e57506000805260fb81528160002084600052815260ff82600020541661032b578480f35b6000805260fb81528160002090846000525260002060ff198154169055610350613310565b1690600060008051602061340d8339815191528180a4388080808480f35b915162461bcd60e51b815291820152602f60248201527f416363657373436f6e74726f6c3a2063616e206f6e6c792072656e6f756e636560448201526e103937b632b9903337b91039b2b63360891b6064820152608490fd5b825162461bcd60e51b8152808601839052602660248201527f4f776e61626c653a206e6577206f776e657220697320746865207a65726f206160448201526564647265737360d01b6064820152608490fd5b8380fd5b8280fd5b505034610295578160031936011261029557602090516000805160206133cd8339815191528152f35b50503461029557602036600319011261029557610465612624565b9061046e612c01565b60008051602061338d833981519152918260005260fb602052816000209160018060a01b03809216928360005260205260ff816000205416156104af578480f35b8360005260fb6020528060002083600052602052600020600160ff198254161790556104d9613310565b169160008051602061336d833981519152600080a4388080808480f35b50503461029557806003193601126102955781808080610514612624565b60243590610520612c01565b82908215610547575b6001600160a01b031690f11561053d575080f35b51903d90823e3d90fd5b6108fc9150610529565b9190503461041d57602036600319011261041d576105b09060ff610573613310565b916000805160206133ed833981519152865260fb60205280862060018060a01b0380941660005260205260002054169081156105b8575b5061323c565b356101c35580f35b603354811691506105c7613310565b1614386105aa565b5050346102955781600319360112610295576101f85490516001600160a01b039091168152602090f35b50503461029557602036600319011261029557610614612624565b60ff61061e613310565b926000805160206133ed833981519152855260fb60205280852060018060a01b0380951660005260205260002054168015610674575b61065d9061323c565b166001600160601b0360a01b609754161760975580f35b5061065d826033541683610686613310565b16149050610654565b9190503461041d578060031936011261041d576106cb91356106c660016106b461263a565b9383875260fb602052862001546127d7565b612b87565b80f35b505034610295576020366003190112610295576106e9612624565b906106f2612c01565b60008051602061338d833981519152918260005260fb602052816000209160018060a01b03809216928360005260205260ff816000205416610732578480f35b8360005260fb602052806000208360005260205260002060ff198154169055610759613310565b169160008051602061340d833981519152600080a4388080808480f35b50503461029557816003193601126102955760975490516001600160a01b039091168152602090f35b5050346102955781600319360112610295576101c55490516001600160a01b039091168152602090f35b5050346102955781600319360112610295576101c45490516001600160a01b039091168152602090f35b5050346102955760203660031901126102955761080e612624565b90610817612c01565b6000805160206133ed833981519152918260005260fb602052816000209160018060a01b03809216928360005260205260ff816000205416156104af578480f35b90503461041d57602036600319011261041d57356001600160401b03811680910361089257828291602094526101fa845220549051908152f35b600080fd5b50503461029557816003193601126102955751908152602090f35b5050346102955781600319360112610295576020906101c3549051908152f35b90503461041d578160031936011261041d57816020936108f061263a565b9235815260fb8552209060018060a01b0316600052825260ff81600020541690519015158152f35b50503461029557816003193601126102955760335490516001600160a01b039091168152602090f35b90503461041d57602036600319011261041d57816020936001600160401b03923581526101f985522054169051908152f35b9190503461041d576020916003198381360112610bfb576001600160401b03908235828111610bf75760a0818501928236030112610bf7576109b36130ec565b6109bb613310565b6101f8546001600160a01b039190821690821603610b9c5760648201916109ec6109e5848661327e565b36916127a0565b8881519101208435808b526101fc90818b52898c20838d528b5260ff8a8d205416610b61578b528952878a20908a528852868920805460ff1916600117905587610a39604483018661327e565b9080929181010312610b5d5782610a51602492612650565b16910135858116809103610b5d5789526101fa88528689205489526101fb885281878a20541603610b0457879291610a8e916101c454169261327e565b8291923b156104195783610abd988851998a958694859363e34381a160e01b85528b8501526024840191612f1f565b03925af18015610afa57610ad6575b84600161012d5580f35b8311610ae757505238808080610acc565b634e487b7160e01b845260419052602483fd5b83513d87823e3d90fd5b855162461bcd60e51b8152808601889052602d60248201527f4f6e6c7920436861696e6c696e6b43434950496d706c2063616e2063616c6c2060448201526c3a3434b990333ab731ba34b7b760991b6064820152608490fd5b8980fd5b895162461bcd60e51b8152808a018c905260156024820152744d65737361676520416c7265616479205365656e2160581b6044820152606490fd5b855162461bcd60e51b8152808601889052602f60248201527f4f6e6c7920436861696e6c696e6b43434950526f757465722063616e2063616c60448201526e36103a3434b990333ab731ba34b7b760891b6064820152608490fd5b8680fd5b8480fd5b838334610295578160031936011261029557610c19613310565b6000805160206133cd833981519152835260fb60209081528284206001600160a01b0392831685528152828420549092919060ff168015610d0f575b8015610cf4575b610c659061323c565b6097549460ff8660a01c16610cbe575060ff60a01b19909416600160a01b1760975591927f62e78cea01bee320cd4e420270b5ea74000d11b0c9f74754ebdbfc544b05a2589290610cb4613310565b915191168152a180f35b825162461bcd60e51b8152908101849052601060248201526f14185d5cd8589b194e881c185d5cd95960821b6044820152606490fd5b50610c65816033541682610d06613310565b16149050610c5c565b50610d18613310565b6000805160206133ed833981519152855260fb84528183862091168552835260ff8285205416610c55565b505034610295576020908160031936011261041d57610d60612624565b90610d69613310565b6000805160206133ed833981519152855260fb84528185206001600160a01b03918216865284528185205490919060ff168015610e1e575b610daa9061323c565b6000805160206133cd8339815191529384865260fb815282828720941693848752815260ff828720541615610ddd578580f35b84865260fb815281862084875290528420805460ff19166001179055610e01613310565b169160008051602061336d8339815191528480a438808080808580f35b50610daa826033541683610e30613310565b16149050610da1565b90503461041d57602036600319011261041d573582526101fb6020908152918190205490516001600160a01b039091168152f35b5050346102955781600319360112610295576020905160008051602061342d8339815191528152f35b8334610ef35780600319360112610ef357610eaf612c01565b603380546001600160a01b0319811690915581906001600160a01b03167f8be0079c531659141344cd1fd0a4f28419497f9722a3daafe3b4186f6b6457e08280a380f35b80fd5b505034610295576020908160031936011261041d57610f13612624565b90610f1c613310565b6000805160206133ed833981519152855260fb84528185206001600160a01b03918216865284528185205490919060ff168015610f90575b610f5d9061323c565b60008051602061342d8339815191529384865260fb815282828720941693848752815260ff828720541615610ddd578580f35b50610f5d826033541683610fa2613310565b16149050610f54565b9190503461041d57606036600319011261041d576020610fc9612624565b6044610fd361263a565b94610fdc612c01565b845163a9059cbb60e01b81526001600160a01b03968716918101919091528135602482015294859283918891165af190811561104f575061101b575080f35b6020813d8211611047575b8161103360209383612764565b81010312610295575180151503610ef35780f35b3d9150611026565b513d84823e3d90fd5b505034610295576020908160031936011261041d57611075612624565b9061107e613310565b6000805160206133ed833981519152855260fb84528185206001600160a01b03918216865284528185205490919060ff16801561112f575b6110bf9061323c565b6000805160206133cd8339815191529384865260fb815282828720941693848752815260ff82872054166110f1578580f35b84865260fb815281862084875290528420805460ff19169055611112613310565b169160008051602061340d8339815191528480a438808080808580f35b506110bf826033541683611141613310565b161490506110b6565b838334610295576111fb6111b3936111a561116436612664565b9092856080850135928389526111d06101f99160209b8c98848a526111988d6001600160401b039788912054161515612ebf565b8b519889918b8301612f40565b03601f198101895288612764565b858b526101fb8852898b20546001600160a01b0397908816613143565b946101f8541693895285528688205416908651958694859384936320487ded60e01b85528401613023565b03915afa928315611247578093611215575b505051908152f35b909192508382813d8311611240575b61122e8183612764565b81010312610ef357505190838061120d565b503d611224565b8251903d90823e3d90fd5b50503461029557816003193601126102955760209060ff60975460a01c1690519015158152f35b50503461029557602036600319011261029557602090611297612624565b60018060a01b0380609754169116149051908152f35b90508234610ef35780600319360112610ef357507f00000000000000000000000000000000000000000000000000000000000000006001600160a01b0316300361130857602082516000805160206133ad8339815191528152f35b6020608492519162461bcd60e51b8352820152603860248201527f555550535570677261646561626c653a206d757374206e6f742062652063616c60448201527f6c6564207468726f7567682064656c656761746563616c6c00000000000000006064820152fd5b9180915060031936011261041d57611386612624565b906024356001600160401b038111610bfb5736602382011215610bfb576113b690369060248187013591016127a0565b6001600160a01b0391907f000000000000000000000000000000000000000000000000000000000000000083166113ef30821415612cad565b61140c6000805160206133ad833981519152918583541614612d0e565b611414613310565b9360008051602061338d833981519152885260209460fb865281858a2091168952855260ff84892054168015611675575b61144e9061323c565b7f4910fdfa16fed3260ed0e7147f7cc6da11a60208b5b9406d12a635614ffd91435460ff16156114875750505050506106cb9150612d6f565b85939495169084516352d1902d60e01b815286818981865afa899181611646575b5061150757855162461bcd60e51b8152808901889052602e60248201527f45524331393637557067726164653a206e657720696d706c656d656e7461746960448201526d6f6e206973206e6f74205555505360901b6064820152608490fd5b96919295949396036115f1575061151d85612d6f565b7fbc7cd75a20ee27fd9adebab32041f755214dbc6bffa90cc0225b39da2e5c2d3b8680a28251158015906115e9575b611558575b5050505080f35b6115d593858083519561156a87612749565b602787527f416464726573733a206c6f772d6c6576656c2064656c65676174652063616c6c86880152660819985a5b195960ca1b858801528581519101845af4913d156115df573d6115c76115be82612785565b92519283612764565b81528681943d92013e612dff565b5038808080611551565b5060609250612dff565b50600161154c565b825162461bcd60e51b8152908101849052602960248201527f45524331393637557067726164653a20756e737570706f727465642070726f786044820152681a58589b195555525160ba1b6064820152608490fd5b9091508781813d831161166e575b61165e8183612764565b81010312610b5d575190386114a8565b503d611654565b5061144e816033541682611687613310565b16149050611445565b90503461041d578160031936011261041d5735906024356001600160401b038116809103610419576117016116c3613310565b6000805160206133ed833981519152865260fb60209081528487206001600160a01b03928316885290528386205460ff169081156105b8575061323c565b8284526101f9602052818420816001600160401b031982541617905583526101fa60205282205580f35b50503461029557602036600319011261029557611746612624565b9060ff611751613310565b6000805160206133ed833981519152855260fb60209081528386206001600160a01b0392831687529052918420541680156117a9575b6117909061323c565b6101c491166001600160601b0360a01b82541617905580f35b506117908160335416826117bb613310565b16149050611787565b505034610295576020366003190112610295576117df612624565b906117e8612c01565b6000805160206133ed8339815191529182845260fb6020528184209160018060a01b038092169283865260205260ff8186205416611824578480f35b83855260fb602052808520838652602052842060ff198154169055611847613310565b169160008051602061340d8339815191528480a4388080808480f35b505034610295578160031936011261029557602090516000805160206133ed8339815191528152f35b8383346102955781600319360112610295576118a6613310565b6000805160206133cd833981519152835260fb60209081528284206001600160a01b0392831685528152828420549092919060ff16801561198d575b8015611972575b6118f29061323c565b6097549460ff8660a01c161561193857507f5db9ee0a495bf2e6ff9c91a7834c1ba4fdd244a5e8aa4e537bd38aeae4b073aa939460ff60a01b1916609755610cb4613310565b825162461bcd60e51b8152908101849052601460248201527314185d5cd8589b194e881b9bdd081c185d5cd95960621b6044820152606490fd5b506118f2816033541682611984613310565b161490506118e9565b50611996613310565b6000805160206133ed833981519152855260fb84528183862091168552835260ff82852054166118e2565b5050346102955781600319360112610295576101c65490516001600160a01b039091168152602090f35b90506119f636612664565b919093611a016130ec565b611a09613310565b6101c4546001600160a01b03939190841690841603611ba357608092838701358084526101f997602098808a526001600160401b0391611a4f838b892054161515612ebf565b3415611b605789518b95949392918190611a6b90828901612f40565b0399601f199a8b81018352611a809083612764565b8489526101fb8752858c8a20541691611a9892613143565b936101f85416928752845288862054169388518095819482936396f4e9f960e01b8452830191611ac792613023565b039134905af18015611b5657908691611b2d575b50509091600161012d55835194859281845260605191828186015281955b838710611b175750508394508582601f949501015201168101030190f35b8681015189880189015295810195889550611af9565b813d8311611b4f575b611b408183612764565b81010312610ef3578438611adb565b503d611b36565b85513d84823e3d90fd5b895162461bcd60e51b81528087018c9052601760248201527f476173207061796d656e742069732072657175697265640000000000000000006044820152606490fd5b608490602086519162461bcd60e51b8352820152602c60248201527f4f6e6c792043726f737353796e63476174657761792063616e2063616c6c207460448201526b3434b990333ab731ba34b7b760a11b6064820152fd5b9190503461041d5760208060031936011261041957611c18612624565b916001600160a01b037f00000000000000000000000000000000000000000000000000000000000000008116611c5030821415612cad565b611c6d6000805160206133ad833981519152918383541614612d0e565b611c75613310565b60008051602061338d833981519152885260fb85528284892091168852845260ff83882054168015611df8575b611cab9061323c565b825191611cb78361272e565b8783527f4910fdfa16fed3260ed0e7147f7cc6da11a60208b5b9406d12a635614ffd91435460ff1615611cf35750505050506106cb9150612d6f565b85939495169084516352d1902d60e01b815286818981865afa899181611dc9575b50611d7357855162461bcd60e51b8152808901889052602e60248201527f45524331393637557067726164653a206e657720696d706c656d656e7461746960448201526d6f6e206973206e6f74205555505360901b6064820152608490fd5b96919295949396036115f15750611d8985612d6f565b7fbc7cd75a20ee27fd9adebab32041f755214dbc6bffa90cc0225b39da2e5c2d3b8680a2825115801590611dc257611558575050505080f35b508461154c565b9091508781813d8311611df1575b611de18183612764565b81010312610b5d57519038611d14565b503d611dd7565b50611cab826033541683611e0a613310565b16149050611ca2565b83915034610295578260031936011261029557611e2e61263a565b906001600160a01b0380611e40613310565b1690831603611e5457906106cb9135612b87565b608490602085519162461bcd60e51b8352820152602f60248201527f416363657373436f6e74726f6c3a2063616e206f6e6c792072656e6f756e636560448201526e103937b632b9903337b91039b2b63360891b6064820152fd5b50503461029557602036600319011261029557611eca612624565b9060ff611ed5613310565b6000805160206133ed833981519152855260fb60209081528386206001600160a01b039283168752905291842054168015611f2d575b611f149061323c565b6101c691166001600160601b0360a01b82541617905580f35b50611f14816033541682611f3f613310565b16149050611f0b565b90503461041d578160031936011261041d573590611f6461263a565b82845260fb602052611f7b600183862001546127d7565b82845260fb60209081528285206001600160a01b0392831680875291528285205490929060ff1615611fab578480f35b83855260fb6020528085208386526020528420600160ff19825416179055611fd1613310565b169160008051602061336d8339815191528480a4388080808480f35b90503461041d578160031936011261041d5761200761263a565b91612010613310565b916000805160206133ed833981519152855260fb60205281852060018060a01b03809416865260205260ff82862054168015612071575b6120509061323c565b3584526101fb602052832091166001600160601b0360a01b82541617905580f35b50612050836033541684612083613310565b16149050612047565b90503461041d57602036600319011261041d578160209360019235815260fb85522001549051908152f35b90503461041d578160031936011261041d578160209360ff923581526101fc85528181206024358252855220541690519015158152f35b505034610295576020908160031936011261041d5761210b612624565b90612114613310565b6000805160206133ed833981519152855260fb84528185206001600160a01b03918216865284528185205490919060ff168015612187575b6121559061323c565b60008051602061342d8339815191529384865260fb815282828720941693848752815260ff82872054166110f1578580f35b50612155826033541683612199613310565b1614905061214c565b9190503461041d5760a036600319011261041d576121be612624565b6121c661263a565b6001600160a01b03919060443583811690819003610bf75760643591848316948584036124b25760843593818516809503610b5d5789549860ff8a60081c1615978880996124a5575b801561248e575b1561243457600160ff198c1681178d559a89612423575b5061226f60ff8d5460081c16612242816132b0565b61224b816132b0565b612254816132b0565b6097805460ff60a01b1916905561226a816132b0565b6132b0565b61227f61227a613310565b612c64565b6122b360ff8d5460081c16612293816132b0565b61229c816132b0565b6122a5816132b0565b8c61012d5561226a816132b0565b6122bb612c01565b156123d15750806102e66122ce92612c64565b60008051602061342d833981519152808a5260fb60205289898982200154916000805160206133ed8339815191528093818d8d862001557fbd79b86ffe0ab8e8776151514217cd7cacd52c909f66475c3af44e129f0b00ff92838580a46000805160206133cd83398151915290818352838c8c818187200154952001558c80a46001600160601b0360a01b94816101c49116868254161790556101c59116848254161790556101c6908382541617905562015f906101c3556101f891825416179055612398578280f35b825461ff0019168355519081527f7f26b83ff96e1f2b6a682f133852f6798a09c465da95921460cefb384740249890602090a138808280f35b60849060208a519162461bcd60e51b8352820152602660248201527f4f776e61626c653a206e6577206f776e657220697320746865207a65726f206160448201526564647265737360d01b6064820152fd5b61ffff1916610101178c553861222d565b895162461bcd60e51b8152602081840152602e60248201527f496e697469616c697a61626c653a20636f6e747261637420697320616c72656160448201526d191e481a5b9a5d1a585b1a5e995960921b6064820152608490fd5b50303b1580156122165750600160ff8c1614612216565b50600160ff8c161061220f565b8880fd5b90503461041d57602036600319011261041d57359063ffffffff60e01b821680920361041d57602092506385572ffb60e01b82149182156124fb575b50519015158152f35b6301ffc9a760e01b149150386124f2565b90503461041d57602036600319011261041d57356001600160a01b0381811692918390036104195760ff61257492612542613310565b6000805160206133ed833981519152875260fb6020528382882091168752602052852054169081156105b8575061323c565b6101f880546001600160a01b031916909117905580f35b505034610295576020366003190112610295576125a6612624565b9060ff6125b1613310565b6000805160206133ed833981519152855260fb60209081528386206001600160a01b039283168752905291842054168015612609575b6125f09061323c565b6101c591166001600160601b0360a01b82541617905580f35b506125f081603354168261261b613310565b161490506125e7565b600435906001600160a01b038216820361089257565b602435906001600160a01b038216820361089257565b35906001600160a01b038216820361089257565b6003199060408183011261089257600435916001600160401b038311610892578261010092030112610892576004019060243590565b60005b8381106126ad5750506000910152565b818101518382015260200161269d565b906020916126d68151809281855285808601910161269a565b601f01601f1916010190565b60a081019081106001600160401b038211176126fd57604052565b634e487b7160e01b600052604160045260246000fd5b604081019081106001600160401b038211176126fd57604052565b602081019081106001600160401b038211176126fd57604052565b606081019081106001600160401b038211176126fd57604052565b90601f801991011681019081106001600160401b038211176126fd57604052565b6001600160401b0381116126fd57601f01601f191660200190565b9291926127ac82612785565b916127ba6040519384612764565b829481845281830111610892578281602093846000960137010152565b6127df613310565b9060009080825260209160fb83526040938482209060018060a01b031690818352845260ff858320541615612815575050505050565b84519261282184612749565b602a84528484019086368337845115612aeb5760308253845192600193841015612ad7576078602187015360295b848111612a6d5750612a2b57865192608084018481106001600160401b03821117612a1757885260428452868401946060368737845115612a0357603086538451821015612a035790607860218601536041915b818311612995575050506129535761294f938693612933936129246048946128fb9a519a8b957f416363657373436f6e74726f6c3a206163636f756e74200000000000000000008c880152518092603788019061269a565b8401917001034b99036b4b9b9b4b733903937b6329607d1b60378401525180938684019061269a565b01036028810187520185612764565b5192839262461bcd60e51b8452600484015260248301906126bd565b0390fd5b60648587519062461bcd60e51b825280600483015260248201527f537472696e67733a20686578206c656e67746820696e73756666696369656e746044820152fd5b909192600f811660108110156129ef576f181899199a1a9b1b9c1cb0b131b232b360811b901a6129c58588612e98565b5360041c9280156129db576000190191906128a3565b634e487b7160e01b82526011600452602482fd5b634e487b7160e01b83526032600452602483fd5b634e487b7160e01b81526032600452602490fd5b634e487b7160e01b86526041600452602486fd5b60648688519062461bcd60e51b825280600483015260248201527f537472696e67733a20686578206c656e67746820696e73756666696369656e746044820152fd5b90600f81166010811015612ac3576f181899199a1a9b1b9c1cb0b131b232b360811b901a612a9b8389612e98565b5360041c908015612aaf576000190161284f565b634e487b7160e01b86526011600452602486fd5b634e487b7160e01b87526032600452602487fd5b634e487b7160e01b85526032600452602485fd5b634e487b7160e01b84526032600452602484fd5b6001600160a01b0390811660008181527fc88390e7e62175be0932452175b6a7222b6b094ab0ef984a5153c620345d8975602052604081205490929060ff1615612b4857505050565b82805260fb6020526040832082845260205260408320600160ff19825416179055612b71613310565b169160008051602061336d8339815191528180a4565b600081815260fb602090815260408083206001600160a01b039586168085529252822054919390929160ff16612bbe575b50505050565b60008051602061340d8339815191529082855260fb602052604085208486526020526040852060ff198154169055612bf4613310565b169380a438808080612bb8565b6033546001600160a01b0390811690612c18613310565b1603612c2057565b606460405162461bcd60e51b815260206004820152602060248201527f4f776e61626c653a2063616c6c6572206973206e6f7420746865206f776e65726044820152fd5b603380546001600160a01b039283166001600160a01b0319821681179092559091167f8be0079c531659141344cd1fd0a4f28419497f9722a3daafe3b4186f6b6457e0600080a3565b15612cb457565b60405162461bcd60e51b815260206004820152602c60248201527f46756e6374696f6e206d7573742062652063616c6c6564207468726f7567682060448201526b19195b1959d85d1958d85b1b60a21b6064820152608490fd5b15612d1557565b60405162461bcd60e51b815260206004820152602c60248201527f46756e6374696f6e206d7573742062652063616c6c6564207468726f7567682060448201526b6163746976652070726f787960a01b6064820152608490fd5b803b15612da4576000805160206133ad83398151915280546001600160a01b0319166001600160a01b03909216919091179055565b60405162461bcd60e51b815260206004820152602d60248201527f455243313936373a206e657720696d706c656d656e746174696f6e206973206e60448201526c1bdd08184818dbdb9d1c9858dd609a1b6064820152608490fd5b91929015612e615750815115612e13575090565b3b15612e1c5790565b60405162461bcd60e51b815260206004820152601d60248201527f416464726573733a2063616c6c20746f206e6f6e2d636f6e74726163740000006044820152606490fd5b825190915015612e745750805190602001fd5b60405162461bcd60e51b81526020600482015290819061294f9060248301906126bd565b908151811015612ea9570160200190565b634e487b7160e01b600052603260045260246000fd5b15612ec657565b60405162461bcd60e51b815260206004820152602b60248201527f436861696e6c696e6b2043434950204e6f7420617661696c61626c6520666f7260448201526a103a3434b99031b430b4b760a91b6064820152608490fd5b908060209392818452848401376000828201840152601f01601f1916010190565b60208152906001600160a01b039081612f5882612650565b166020840152602081013560408401526040810135606084015260608101356080840152608081013560a084015281612f9360a08301612650565b1660c084015281612fa660c08301612650565b1660e084015260e0810135603e198236030181121561089257019061010080840152612fd182612650565b166101208301526020810135601e19823603018112156108925701602081359101906001600160401b038111610892578036038213610892576101608360406101406130209601520191612f1f565b90565b906001600160401b039093929316815260406020918183820152613052855160a08484015260e08301906126bd565b9161306e8487015193603f1994858583030160608601526126bd565b8187015194848483030160808501528080875193848152019601926000905b8382106130c357505050505060c06080613020959660018060a01b0360608201511660a0850152015192828503019101526126bd565b845180516001600160a01b0316895283015188840152968701969382019360019091019061308d565b61012d60028154146130fe5760029055565b60405162461bcd60e51b815260206004820152601f60248201527f5265656e7472616e637947756172643a207265656e7472616e742063616c6c006044820152606490fd5b91604092835191613153836126e2565b60608352606060208401526060858401526060608060009485838201520152801560001461323657506101c354925b84519160018060a01b031660208301526020825261319f82612713565b8451916131ab8361272e565b8383528551946131ba86612713565b8552602085018481528651956397a657c960e01b602088015251602487015251151560448601526044855260808501958587106001600160401b0388111761322257869052613208866126e2565b855260a084015260c083015260e082015261010081015290565b634e487b7160e01b85526041600452602485fd5b92613182565b1561324357565b60405162461bcd60e51b8152602060048201526013602482015272556e617574686f72697a65642041636365737360681b6044820152606490fd5b903590601e198136030182121561089257018035906001600160401b0382116108925760200191813603831361089257565b156132b757565b60405162461bcd60e51b815260206004820152602b60248201527f496e697469616c697a61626c653a20636f6e7472616374206973206e6f74206960448201526a6e697469616c697a696e6760a81b6064820152608490fd5b6097546001600160a01b031633148080613361575b15613337575036601319013560601c90565b60143610159081613359575b50156133555736601319013560601c90565b3390565b905038613343565b50601436101561332556fe2f8788117e7eff1d82e926ec794901d17c78024a50270940304540a733656f0d189ab7a9244df0848122154315af71fe140f3db0fe014031783b0946b8c9d2e3360894a13ba1a3210667c828492db98dca3e2076cc3735a920a3ca505d382bbc65d7a28e3265b37a6474929f336521b332c1681b933f6cb9f3376673440d862a7613a25ecc738585a232ad50a301178f12b3ba8887d13e138b523c4269c47689f6391f5c32d9c69d2a47ea670b442974b53935d1edc7fd64eb21e047a839171ba49807205ce4d355092ef5a8a18f56e8913cf4a201fbe287825b095693c21775a264697066735822122074fc1d783d93e160ec6c5819bddcdb26f1317125f9a1e7719b264b040b3d14e464736f6c63430008110033",
  "linkReferences": {},
  "deployedLinkReferences": {}
}