{
  "_format": "hh-sol-artifact-1",
  "contractName": "ConnextImpl",
  "sourceName": "contracts/MessagingImpls/ConnextImpl.sol",
  "abi": [
    {
      "inputs": [],
      "stateMutability": "nonpayable",
      "type": "constructor"
    },
    {
      "anonymous": false,
      "inputs": [
        {
          "indexed": false,
          "internalType": "address",
          "name": "previousAdmin",
          "type": "address"
        },
        {
          "indexed": false,
          "internalType": "address",
          "name": "newAdmin",
          "type": "address"
        }
      ],
      "name": "AdminChanged",
      "type": "event"
    },
    {
      "anonymous": false,
      "inputs": [
        {
          "indexed": true,
          "internalType": "address",
          "name": "beacon",
          "type": "address"
        }
      ],
      "name": "BeaconUpgraded",
      "type": "event"
    },
    {
      "anonymous": false,
      "inputs": [
        {
          "indexed": false,
          "internalType": "uint8",
          "name": "version",
          "type": "uint8"
        }
      ],
      "name": "Initialized",
      "type": "event"
    },
    {
      "anonymous": false,
      "inputs": [
        {
          "indexed": true,
          "internalType": "address",
          "name": "previousOwner",
          "type": "address"
        },
        {
          "indexed": true,
          "internalType": "address",
          "name": "newOwner",
          "type": "address"
        }
      ],
      "name": "OwnershipTransferred",
      "type": "event"
    },
    {
      "anonymous": false,
      "inputs": [
        {
          "indexed": false,
          "internalType": "address",
          "name": "account",
          "type": "address"
        }
      ],
      "name": "Paused",
      "type": "event"
    },
    {
      "anonymous": false,
      "inputs": [
        {
          "indexed": true,
          "internalType": "bytes32",
          "name": "role",
          "type": "bytes32"
        },
        {
          "indexed": true,
          "internalType": "bytes32",
          "name": "previousAdminRole",
          "type": "bytes32"
        },
        {
          "indexed": true,
          "internalType": "bytes32",
          "name": "newAdminRole",
          "type": "bytes32"
        }
      ],
      "name": "RoleAdminChanged",
      "type": "event"
    },
    {
      "anonymous": false,
      "inputs": [
        {
          "indexed": true,
          "internalType": "bytes32",
          "name": "role",
          "type": "bytes32"
        },
        {
          "indexed": true,
          "internalType": "address",
          "name": "account",
          "type": "address"
        },
        {
          "indexed": true,
          "internalType": "address",
          "name": "sender",
          "type": "address"
        }
      ],
      "name": "RoleGranted",
      "type": "event"
    },
    {
      "anonymous": false,
      "inputs": [
        {
          "indexed": true,
          "internalType": "bytes32",
          "name": "role",
          "type": "bytes32"
        },
        {
          "indexed": true,
          "internalType": "address",
          "name": "account",
          "type": "address"
        },
        {
          "indexed": true,
          "internalType": "address",
          "name": "sender",
          "type": "address"
        }
      ],
      "name": "RoleRevoked",
      "type": "event"
    },
    {
      "anonymous": false,
      "inputs": [
        {
          "indexed": false,
          "internalType": "address",
          "name": "account",
          "type": "address"
        }
      ],
      "name": "Unpaused",
      "type": "event"
    },
    {
      "anonymous": false,
      "inputs": [
        {
          "indexed": true,
          "internalType": "address",
          "name": "implementation",
          "type": "address"
        }
      ],
      "name": "Upgraded",
      "type": "event"
    },
    {
      "inputs": [],
      "name": "ADMIN_ROLE",
      "outputs": [
        {
          "internalType": "bytes32",
          "name": "",
          "type": "bytes32"
        }
      ],
      "stateMutability": "view",
      "type": "function"
    },
    {
      "inputs": [],
      "name": "DEFAULT_ADMIN_ROLE",
      "outputs": [
        {
          "internalType": "bytes32",
          "name": "",
          "type": "bytes32"
        }
      ],
      "stateMutability": "view",
      "type": "function"
    },
    {
      "inputs": [],
      "name": "PAUSER_ROLE",
      "outputs": [
        {
          "internalType": "bytes32",
          "name": "",
          "type": "bytes32"
        }
      ],
      "stateMutability": "view",
      "type": "function"
    },
    {
      "inputs": [],
      "name": "SUPER_ADMIN_ROLE",
      "outputs": [
        {
          "internalType": "bytes32",
          "name": "",
          "type": "bytes32"
        }
      ],
      "stateMutability": "view",
      "type": "function"
    },
    {
      "inputs": [],
      "name": "UPGRADER_ROLE",
      "outputs": [
        {
          "internalType": "bytes32",
          "name": "",
          "type": "bytes32"
        }
      ],
      "stateMutability": "view",
      "type": "function"
    },
    {
      "inputs": [
        {
          "internalType": "address",
          "name": "_admin",
          "type": "address"
        }
      ],
      "name": "addAdmin",
      "outputs": [],
      "stateMutability": "nonpayable",
      "type": "function"
    },
    {
      "inputs": [
        {
          "internalType": "address",
          "name": "account",
          "type": "address"
        }
      ],
      "name": "addPauser",
      "outputs": [],
      "stateMutability": "nonpayable",
      "type": "function"
    },
    {
      "inputs": [
        {
          "internalType": "address",
          "name": "_superAdmin",
          "type": "address"
        }
      ],
      "name": "addSuperAdmin",
      "outputs": [],
      "stateMutability": "nonpayable",
      "type": "function"
    },
    {
      "inputs": [
        {
          "internalType": "address",
          "name": "_upgrader",
          "type": "address"
        }
      ],
      "name": "addUpgrader",
      "outputs": [],
      "stateMutability": "nonpayable",
      "type": "function"
    },
    {
      "inputs": [],
      "name": "connext",
      "outputs": [
        {
          "internalType": "contract IConnext",
          "name": "",
          "type": "address"
        }
      ],
      "stateMutability": "view",
      "type": "function"
    },
    {
      "inputs": [
        {
          "internalType": "uint256",
          "name": "",
          "type": "uint256"
        }
      ],
      "name": "connextChainImplAddress",
      "outputs": [
        {
          "internalType": "address",
          "name": "",
          "type": "address"
        }
      ],
      "stateMutability": "view",
      "type": "function"
    },
    {
      "inputs": [
        {
          "internalType": "uint256",
          "name": "",
          "type": "uint256"
        }
      ],
      "name": "connextDestDomain",
      "outputs": [
        {
          "internalType": "uint32",
          "name": "",
          "type": "uint32"
        }
      ],
      "stateMutability": "view",
      "type": "function"
    },
    {
      "inputs": [
        {
          "internalType": "uint32",
          "name": "",
          "type": "uint32"
        }
      ],
      "name": "connextDestDomainToChainId",
      "outputs": [
        {
          "internalType": "uint256",
          "name": "",
          "type": "uint256"
        }
      ],
      "stateMutability": "view",
      "type": "function"
    },
    {
      "inputs": [],
      "name": "crossSyncGatewayAddress",
      "outputs": [
        {
          "internalType": "address",
          "name": "",
          "type": "address"
        }
      ],
      "stateMutability": "view",
      "type": "function"
    },
    {
      "inputs": [],
      "name": "defaultGasLimit",
      "outputs": [
        {
          "internalType": "uint256",
          "name": "",
          "type": "uint256"
        }
      ],
      "stateMutability": "view",
      "type": "function"
    },
    {
      "inputs": [
        {
          "components": [
            {
              "internalType": "address",
              "name": "sender",
              "type": "address"
            },
            {
              "internalType": "uint256",
              "name": "nonce",
              "type": "uint256"
            },
            {
              "internalType": "uint256",
              "name": "messagingRouteId",
              "type": "uint256"
            },
            {
              "internalType": "uint256",
              "name": "sourceChainId",
              "type": "uint256"
            },
            {
              "internalType": "uint256",
              "name": "destinationChainId",
              "type": "uint256"
            },
            {
              "internalType": "address",
              "name": "sourceGatewayAddress",
              "type": "address"
            },
            {
              "internalType": "address",
              "name": "destinationGatewayAddress",
              "type": "address"
            },
            {
              "components": [
                {
                  "internalType": "address",
                  "name": "to",
                  "type": "address"
                },
                {
                  "internalType": "bytes",
                  "name": "data",
                  "type": "bytes"
                }
              ],
              "internalType": "struct ICrossSyncGateway.MessagingPayload",
              "name": "payload",
              "type": "tuple"
            }
          ],
          "internalType": "struct IMessagingImpl.ICrossSyncMessagingData",
          "name": "_data",
          "type": "tuple"
        },
        {
          "internalType": "uint256",
          "name": "_gasLimit",
          "type": "uint256"
        }
      ],
      "name": "executeSendMessage",
      "outputs": [
        {
          "internalType": "bytes",
          "name": "",
          "type": "bytes"
        }
      ],
      "stateMutability": "payable",
      "type": "function"
    },
    {
      "inputs": [
        {
          "components": [
            {
              "internalType": "address",
              "name": "sender",
              "type": "address"
            },
            {
              "internalType": "uint256",
              "name": "nonce",
              "type": "uint256"
            },
            {
              "internalType": "uint256",
              "name": "messagingRouteId",
              "type": "uint256"
            },
            {
              "internalType": "uint256",
              "name": "sourceChainId",
              "type": "uint256"
            },
            {
              "internalType": "uint256",
              "name": "destinationChainId",
              "type": "uint256"
            },
            {
              "internalType": "address",
              "name": "sourceGatewayAddress",
              "type": "address"
            },
            {
              "internalType": "address",
              "name": "destinationGatewayAddress",
              "type": "address"
            },
            {
              "components": [
                {
                  "internalType": "address",
                  "name": "to",
                  "type": "address"
                },
                {
                  "internalType": "bytes",
                  "name": "data",
                  "type": "bytes"
                }
              ],
              "internalType": "struct ICrossSyncGateway.MessagingPayload",
              "name": "payload",
              "type": "tuple"
            }
          ],
          "internalType": "struct IMessagingImpl.ICrossSyncMessagingData",
          "name": "_data",
          "type": "tuple"
        },
        {
          "internalType": "uint256",
          "name": "_gasLimit",
          "type": "uint256"
        }
      ],
      "name": "getFee",
      "outputs": [
        {
          "internalType": "uint256",
          "name": "",
          "type": "uint256"
        }
      ],
      "stateMutability": "view",
      "type": "function"
    },
    {
      "inputs": [
        {
          "internalType": "bytes32",
          "name": "role",
          "type": "bytes32"
        }
      ],
      "name": "getRoleAdmin",
      "outputs": [
        {
          "internalType": "bytes32",
          "name": "",
          "type": "bytes32"
        }
      ],
      "stateMutability": "view",
      "type": "function"
    },
    {
      "inputs": [],
      "name": "getTrustedForwarder",
      "outputs": [
        {
          "internalType": "address",
          "name": "forwarder",
          "type": "address"
        }
      ],
      "stateMutability": "view",
      "type": "function"
    },
    {
      "inputs": [
        {
          "internalType": "bytes32",
          "name": "role",
          "type": "bytes32"
        },
        {
          "internalType": "address",
          "name": "account",
          "type": "address"
        }
      ],
      "name": "grantRole",
      "outputs": [],
      "stateMutability": "nonpayable",
      "type": "function"
    },
    {
      "inputs": [
        {
          "internalType": "bytes32",
          "name": "role",
          "type": "bytes32"
        },
        {
          "internalType": "address",
          "name": "account",
          "type": "address"
        }
      ],
      "name": "hasRole",
      "outputs": [
        {
          "internalType": "bool",
          "name": "",
          "type": "bool"
        }
      ],
      "stateMutability": "view",
      "type": "function"
    },
    {
      "inputs": [
        {
          "internalType": "address",
          "name": "_crossSyncGatewayAddress",
          "type": "address"
        },
        {
          "internalType": "address",
          "name": "_nativeCurrencyWrappedAddress",
          "type": "address"
        },
        {
          "internalType": "address",
          "name": "_nativeCurrencyAddress",
          "type": "address"
        },
        {
          "internalType": "address",
          "name": "_owner",
          "type": "address"
        },
        {
          "internalType": "address",
          "name": "_connextGatewayAddress",
          "type": "address"
        }
      ],
      "name": "initialize",
      "outputs": [],
      "stateMutability": "nonpayable",
      "type": "function"
    },
    {
      "inputs": [
        {
          "internalType": "address",
          "name": "forwarder",
          "type": "address"
        }
      ],
      "name": "isTrustedForwarder",
      "outputs": [
        {
          "internalType": "bool",
          "name": "",
          "type": "bool"
        }
      ],
      "stateMutability": "view",
      "type": "function"
    },
    {
      "inputs": [
        {
          "internalType": "bytes32",
          "name": "",
          "type": "bytes32"
        },
        {
          "internalType": "bytes32",
          "name": "",
          "type": "bytes32"
        }
      ],
      "name": "messageSeen",
      "outputs": [
        {
          "internalType": "bool",
          "name": "",
          "type": "bool"
        }
      ],
      "stateMutability": "view",
      "type": "function"
    },
    {
      "inputs": [],
      "name": "nativeCurrencyAddress",
      "outputs": [
        {
          "internalType": "address",
          "name": "",
          "type": "address"
        }
      ],
      "stateMutability": "view",
      "type": "function"
    },
    {
      "inputs": [],
      "name": "nativeCurrencyWrappedAddress",
      "outputs": [
        {
          "internalType": "address",
          "name": "",
          "type": "address"
        }
      ],
      "stateMutability": "view",
      "type": "function"
    },
    {
      "inputs": [],
      "name": "owner",
      "outputs": [
        {
          "internalType": "address",
          "name": "",
          "type": "address"
        }
      ],
      "stateMutability": "view",
      "type": "function"
    },
    {
      "inputs": [],
      "name": "pause",
      "outputs": [],
      "stateMutability": "nonpayable",
      "type": "function"
    },
    {
      "inputs": [],
      "name": "paused",
      "outputs": [
        {
          "internalType": "bool",
          "name": "",
          "type": "bool"
        }
      ],
      "stateMutability": "view",
      "type": "function"
    },
    {
      "inputs": [],
      "name": "proxiableUUID",
      "outputs": [
        {
          "internalType": "bytes32",
          "name": "",
          "type": "bytes32"
        }
      ],
      "stateMutability": "view",
      "type": "function"
    },
    {
      "inputs": [
        {
          "internalType": "address",
          "name": "_admin",
          "type": "address"
        }
      ],
      "name": "removeAdmin",
      "outputs": [],
      "stateMutability": "nonpayable",
      "type": "function"
    },
    {
      "inputs": [
        {
          "internalType": "address",
          "name": "_pauser",
          "type": "address"
        }
      ],
      "name": "removePauser",
      "outputs": [],
      "stateMutability": "nonpayable",
      "type": "function"
    },
    {
      "inputs": [
        {
          "internalType": "address",
          "name": "_superAdmin",
          "type": "address"
        }
      ],
      "name": "removeSuperAdmin",
      "outputs": [],
      "stateMutability": "nonpayable",
      "type": "function"
    },
    {
      "inputs": [
        {
          "internalType": "address",
          "name": "_upgrader",
          "type": "address"
        }
      ],
      "name": "removeUpgrader",
      "outputs": [],
      "stateMutability": "nonpayable",
      "type": "function"
    },
    {
      "inputs": [],
      "name": "renounceOwnership",
      "outputs": [],
      "stateMutability": "nonpayable",
      "type": "function"
    },
    {
      "inputs": [
        {
          "internalType": "bytes32",
          "name": "role",
          "type": "bytes32"
        },
        {
          "internalType": "address",
          "name": "account",
          "type": "address"
        }
      ],
      "name": "renounceRole",
      "outputs": [],
      "stateMutability": "nonpayable",
      "type": "function"
    },
    {
      "inputs": [
        {
          "internalType": "address payable",
          "name": "userAddress",
          "type": "address"
        },
        {
          "internalType": "uint256",
          "name": "amount",
          "type": "uint256"
        }
      ],
      "name": "rescueEther",
      "outputs": [],
      "stateMutability": "nonpayable",
      "type": "function"
    },
    {
      "inputs": [
        {
          "internalType": "address",
          "name": "token",
          "type": "address"
        },
        {
          "internalType": "address",
          "name": "userAddress",
          "type": "address"
        },
        {
          "internalType": "uint256",
          "name": "amount",
          "type": "uint256"
        }
      ],
      "name": "rescueFunds",
      "outputs": [],
      "stateMutability": "nonpayable",
      "type": "function"
    },
    {
      "inputs": [
        {
          "internalType": "bytes32",
          "name": "role",
          "type": "bytes32"
        },
        {
          "internalType": "address",
          "name": "account",
          "type": "address"
        }
      ],
      "name": "revokeRole",
      "outputs": [],
      "stateMutability": "nonpayable",
      "type": "function"
    },
    {
      "inputs": [
        {
          "internalType": "uint256",
          "name": "_chainId",
          "type": "uint256"
        },
        {
          "internalType": "address",
          "name": "_chainImplAddress",
          "type": "address"
        }
      ],
      "name": "setConnextChainImplAddress",
      "outputs": [],
      "stateMutability": "nonpayable",
      "type": "function"
    },
    {
      "inputs": [
        {
          "internalType": "uint256",
          "name": "_chainId",
          "type": "uint256"
        },
        {
          "internalType": "uint32",
          "name": "_chainDomain",
          "type": "uint32"
        }
      ],
      "name": "setConnextDestChainDomain",
      "outputs": [],
      "stateMutability": "nonpayable",
      "type": "function"
    },
    {
      "inputs": [
        {
          "internalType": "contract IConnext",
          "name": "_connext",
          "type": "address"
        }
      ],
      "name": "setConnextGateWayAddress",
      "outputs": [],
      "stateMutability": "nonpayable",
      "type": "function"
    },
    {
      "inputs": [
        {
          "internalType": "address",
          "name": "_crossSyncGatewayAddress",
          "type": "address"
        }
      ],
      "name": "setCrossSyncGatewayAddress",
      "outputs": [],
      "stateMutability": "nonpayable",
      "type": "function"
    },
    {
      "inputs": [
        {
          "internalType": "uint256",
          "name": "_defaultGasLimit",
          "type": "uint256"
        }
      ],
      "name": "setDefaultGasLimit",
      "outputs": [],
      "stateMutability": "nonpayable",
      "type": "function"
    },
    {
      "inputs": [
        {
          "internalType": "address",
          "name": "_nativeCurrencyAddress",
          "type": "address"
        }
      ],
      "name": "setNativeCurrencyAddress",
      "outputs": [],
      "stateMutability": "nonpayable",
      "type": "function"
    },
    {
      "inputs": [
        {
          "internalType": "address",
          "name": "_nativeCurrencyWrappedAddress",
          "type": "address"
        }
      ],
      "name": "setNativeCurrencyWrappedAddress",
      "outputs": [],
      "stateMutability": "nonpayable",
      "type": "function"
    },
    {
      "inputs": [
        {
          "internalType": "address",
          "name": "_newtrustedForwarder",
          "type": "address"
        }
      ],
      "name": "setTrustedForwarder",
      "outputs": [],
      "stateMutability": "nonpayable",
      "type": "function"
    },
    {
      "inputs": [
        {
          "internalType": "bytes4",
          "name": "interfaceId",
          "type": "bytes4"
        }
      ],
      "name": "supportsInterface",
      "outputs": [
        {
          "internalType": "bool",
          "name": "",
          "type": "bool"
        }
      ],
      "stateMutability": "view",
      "type": "function"
    },
    {
      "inputs": [
        {
          "internalType": "address",
          "name": "newOwner",
          "type": "address"
        }
      ],
      "name": "transferOwnership",
      "outputs": [],
      "stateMutability": "nonpayable",
      "type": "function"
    },
    {
      "inputs": [],
      "name": "unpause",
      "outputs": [],
      "stateMutability": "nonpayable",
      "type": "function"
    },
    {
      "inputs": [
        {
          "internalType": "address",
          "name": "newImplementation",
          "type": "address"
        }
      ],
      "name": "upgradeTo",
      "outputs": [],
      "stateMutability": "nonpayable",
      "type": "function"
    },
    {
      "inputs": [
        {
          "internalType": "address",
          "name": "newImplementation",
          "type": "address"
        },
        {
          "internalType": "bytes",
          "name": "data",
          "type": "bytes"
        }
      ],
      "name": "upgradeToAndCall",
      "outputs": [],
      "stateMutability": "payable",
      "type": "function"
    },
    {
      "inputs": [
        {
          "internalType": "bytes32",
          "name": "_transferId",
          "type": "bytes32"
        },
        {
          "internalType": "uint256",
          "name": "_amount",
          "type": "uint256"
        },
        {
          "internalType": "address",
          "name": "_asset",
          "type": "address"
        },
        {
          "internalType": "address",
          "name": "_originSender",
          "type": "address"
        },
        {
          "internalType": "uint32",
          "name": "_origin",
          "type": "uint32"
        },
        {
          "internalType": "bytes",
          "name": "_callData",
          "type": "bytes"
        }
      ],
      "name": "xReceive",
      "outputs": [
        {
          "internalType": "bytes",
          "name": "",
          "type": "bytes"
        }
      ],
      "stateMutability": "nonpayable",
      "type": "function"
    },
    {
      "stateMutability": "payable",
      "type": "receive"
    }
  ],
  "bytecode": "0x60a060405234620000495730608052620000186200004e565b620000226200004e565b6040516131f59081620000f8823960805181818161137d0152818161147d0152611cf90152f35b600080fd5b60005460ff8160081c16620000a25760ff808216036200006b5750565b60ff90811916176000557f7f26b83ff96e1f2b6a682f133852f6798a09c465da95921460cefb3847402498602060405160ff8152a1565b60405162461bcd60e51b815260206004820152602760248201527f496e697469616c697a61626c653a20636f6e747261637420697320696e697469604482015266616c697a696e6760c81b6064820152608490fdfe60406080815260049081361015610020575b5050361561001e57600080fd5b005b600090813560e01c80629fe7521461262057806301ffc9a7146125ca5780631459457a146122bb5780631785f53c146122085780631908e8a2146121d1578063248a9ca3146121a65780632d2448861461216f5780632f2ff15d1461210c57806332495ce11461207457806336568abe14611fd95780633659cfe614611cd157806336c5eda4146119cb57806338073f0c146119a25780633f4ba83a1461186e5780634460bdd6146118465780634902e4aa146117e75780634b03285a1461174f5780634f1ef2861461142a57806352d1902d14611367578063572b6c05146113345780635c975abb1461130e578063604a172c146112c8578063636fce4e146112495780636b2c0f55146111585780636ccae054146110ab5780637048027514610ff7578063715018a614610f9757806375b238fc14610f6f57806377b8f0a614610f3b57806382dc1ec414610e345780638456cb5914610cf15780638da5cb5b14610cc957806391d1485414610c8257806395368d2e14610c63578063a217fddf14610c49578063b3292ff014610be9578063b89b22d714610bc0578063bd826ed714610b97578063c6b3b71e14610af8578063ce1b815f14610ad0578063d264a80314610a32578063d547741f146109f3578063da7422281461095e578063de4b054814610935578063e32bb67b146108b8578063e39d1f1a14610889578063e42e0ea91461082e578063e51101581461077a578063e63ab1e914610752578063f2fde38b146105db578063f385a2391461052a578063f72c0d8b146105025763fd614f41146102735750610011565b346104fe5760c03660031901126104fe5782359261028f6126e9565b506102986126ff565b926084359163ffffffff83168093036104fe5760a4359267ffffffffffffffff908185116104fa57366023860112156104fa57848301359082821161040557602498898701968a8436920101116104f6576102f1612faa565b6101f8546001600160a01b0392908316330361049b5786526020986101fa8a528887205487526101fb8a5282808a8920541691160361044457610335368489612857565b898151910120908087526101fc90818b528988208389528b5260ff8a8920541661040957875289528786209086528852868520805460ff191660011790556101c45416803b156104055790849189838a6103a78b519a8b968795869463e34381a160e01b86528c860152840191612f89565b03925af180156103fb576103d1575b600161012d558451868152806103cd818901612783565b0390f35b83116103e95750506103cd93508152388080806103b6565b634e487b7160e01b8252604190528490fd5b85513d85823e3d90fd5b8480fd5b895162461bcd60e51b81528088018c90526016818e015275204d65737361676520616c7265616479207365656e2160501b6044820152606490fd5b875162461bcd60e51b81528086018a9052602c818c01527f436f6e6e657874496d706c3a204f726967696e20646f6d61696e206973206e6f60448201526b1d081c9959da5cdd195c995960a21b6064820152608490fd5b885162461bcd60e51b81526020818801526030818d01527f436f6e6e657874496d706c3a204f6e6c7920436f6e6e6578742063616e20636160448201526f3636103a3434b990333ab731ba34b7b760811b6064820152608490fd5b8580fd5b8380fd5b5080fd5b50346104fe57816003193601126104fe57602090516000805160206131008339815191528152f35b5082346105d757816003193601126105d757359060243563ffffffff81168091036104fa5761059961055a6130a3565b600080516020613160833981519152865260fb60209081528487206001600160a01b03928316885290528386205460ff169081156105c0575b50613001565b8284526101f96020528184208163ffffffff1982541617905583526101fa60205282205580f35b603354811691506105cf6130a3565b161486610593565b8280fd5b508290346105d757602090816003193601126104fa576105f96126b8565b91610602612ccb565b61060a612ccb565b6001600160a01b039280841615610700578061062861062d92612d2e565b612bb7565b6106356130a3565b9383806106406130a3565b1695169485036106a7575084805260fb8152818520848652815260ff8286205416610669578480f35b84805260fb815281852084865290528320805460ff1916905561068a6130a3565b1690826000805160206131808339815191528180a4818080808480f35b915162461bcd60e51b815291820152602f60248201527f416363657373436f6e74726f6c3a2063616e206f6e6c792072656e6f756e636560448201526e103937b632b9903337b91039b2b63360891b6064820152608490fd5b825162461bcd60e51b8152808601839052602660248201527f4f776e61626c653a206e6577206f776e657220697320746865207a65726f206160448201526564647265737360d01b6064820152608490fd5b50346104fe57816003193601126104fe57602090516000805160206131408339815191528152f35b50346104fe5760203660031901126104fe576107946126b8565b9061079d612ccb565b6000805160206131008339815191529182845260fb6020528184209160018060a01b038092169283865260205260ff8186205416156107da578480f35b83855260fb6020528085208386526020528420600160ff198254161790556108006130a3565b16917f2f8788117e7eff1d82e926ec794901d17c78024a50270940304540a733656f0d8480a4818080808480f35b508183346104fe57826003193601126104fe57356001600160a01b038116908190036104fe578180809260243590610864612ccb565b828215610880575bf115610876575080f35b51903d90823e3d90fd5b506108fc61086c565b5082346105d75760203660031901126105d7578160209363ffffffff923581526101f985522054169051908152f35b508290346105d75760203660031901126105d7576109169060ff6108da6130a3565b600080516020613160833981519152865260fb60209081528387206001600160a01b0392831688529052918520541690811561091e5750613001565b356101c35580f35b6033548116915061092d6130a3565b161484610593565b50346104fe57816003193601126104fe576101f85490516001600160a01b039091168152602090f35b50346104fe5760203660031901126104fe576109786126b8565b60ff6109826130a3565b600080516020613160833981519152855260fb60209081528486206001600160a01b0392831687529052928420541680156109d8575b6109c190613001565b166001600160601b0360a01b609754161760975580f35b506109c18260335416836109ea6130a3565b161490506109b8565b508290346105d757806003193601126105d757610a2f9135610a2a6001610a186126d3565b9383875260fb6020528620015461288e565b612c51565b80f35b50346104fe5760203660031901126104fe57610a4c6126b8565b90610a55612ccb565b6000805160206131008339815191529182845260fb6020528184209160018060a01b038092169283865260205260ff8186205416610a91578480f35b83855260fb602052808520838652602052842060ff198154169055610ab46130a3565b16916000805160206131808339815191528480a4818080808480f35b50346104fe57816003193601126104fe5760975490516001600160a01b039091168152602090f35b5082346105d757816003193601126105d757610b126126d3565b91610b1b6130a3565b91600080516020613160833981519152855260fb60205281852060018060a01b03809416865260205260ff82862054168015610b7c575b610b5b90613001565b3584526101fb602052832091166001600160601b0360a01b82541617905580f35b50610b5b836033541684610b8e6130a3565b16149050610b52565b50346104fe57816003193601126104fe576101c55490516001600160a01b039091168152602090f35b50346104fe57816003193601126104fe576101c45490516001600160a01b039091168152602090f35b50346104fe5760203660031901126104fe57610c036126b8565b90610c0c612ccb565b6000805160206131608339815191529182845260fb6020528184209160018060a01b038092169283865260205260ff8186205416156107da578480f35b50346104fe57816003193601126104fe5751908152602090f35b50346104fe57816003193601126104fe576020906101c3549051908152f35b5082346105d757816003193601126105d7578160209360ff92610ca36126d3565b9035825260fb86528282206001600160a01b039091168252855220549151911615158152f35b50346104fe57816003193601126104fe5760335490516001600160a01b039091168152602090f35b50346104fe57816003193601126104fe57610d0a6130a3565b600080516020613140833981519152835260fb60209081528284206001600160a01b0392831685528152828420549092919060ff168015610e00575b8015610de5575b610d5690613001565b6097549460ff8660a01c16610daf575060ff60a01b19909416600160a01b1760975591927f62e78cea01bee320cd4e420270b5ea74000d11b0c9f74754ebdbfc544b05a2589290610da56130a3565b915191168152a180f35b825162461bcd60e51b8152908101849052601060248201526f14185d5cd8589b194e881c185d5cd95960821b6044820152606490fd5b50610d56816033541682610df76130a3565b16149050610d4d565b50610e096130a3565b600080516020613160833981519152855260fb84528183862091168552835260ff8285205416610d46565b50346104fe57602090816003193601126105d757610e506126b8565b90610e596130a3565b600080516020613160833981519152855260fb84528185206001600160a01b03918216865284528185205490919060ff168015610f20575b610e9a90613001565b6000805160206131408339815191529384865260fb815282828720941693848752815260ff828720541615610ecd578580f35b84865260fb815281862084875290528420805460ff19166001179055610ef16130a3565b16917f2f8788117e7eff1d82e926ec794901d17c78024a50270940304540a733656f0d8480a481808080808580f35b50610e9a826033541683610f326130a3565b16149050610e91565b5082346105d75760203660031901126105d7573582526101fb6020908152918190205490516001600160a01b039091168152f35b50346104fe57816003193601126104fe57602090516000805160206131a08339815191528152f35b8234610ff45780600319360112610ff457610fb0612ccb565b603380546001600160a01b0319811690915581906001600160a01b03167f8be0079c531659141344cd1fd0a4f28419497f9722a3daafe3b4186f6b6457e08280a380f35b80fd5b50346104fe57602090816003193601126105d7576110136126b8565b9061101c6130a3565b600080516020613160833981519152855260fb84528185206001600160a01b03918216865284528185205490919060ff168015611090575b61105d90613001565b6000805160206131a08339815191529384865260fb815282828720941693848752815260ff828720541615610ecd578580f35b5061105d8260335416836110a26130a3565b16149050611054565b508290346105d75760603660031901126105d75760206110c96126b8565b60446110d36126d3565b946110dc612ccb565b845163a9059cbb60e01b81526001600160a01b03968716918101919091528135602482015294859283918891165af190811561114f575061111b575080f35b6020813d8211611147575b8161113360209383612819565b810103126104fe575180151503610ff45780f35b3d9150611126565b513d84823e3d90fd5b50346104fe57602090816003193601126105d7576111746126b8565b9061117d6130a3565b600080516020613160833981519152855260fb84528185206001600160a01b03918216865284528185205490919060ff16801561122e575b6111be90613001565b6000805160206131408339815191529384865260fb815282828720941693848752815260ff82872054166111f0578580f35b84865260fb815281862084875290528420805460ff191690556112116130a3565b16916000805160206131808339815191528480a481808080808580f35b506111be8260335416836112406130a3565b161490506111b5565b5082346105d75760203660031901126105d757356001600160a01b0381811692918390036104fa5760ff6112b19261127f6130a3565b600080516020613160833981519152875260fb60205283828820911687526020528520541690811561091e5750613001565b6101f880546001600160a01b031916909117905580f35b50919034610ff4575060206064926112df36612729565b50505162461bcd60e51b815291820152600d60248201526c139bdd0814dd5c1c1bdc9d1959609a1b6044820152fd5b50346104fe57816003193601126104fe5760209060ff60975460a01c1690519015158152f35b50346104fe5760203660031901126104fe576020906113516126b8565b60018060a01b0380609754169116149051908152f35b50919034610ff45780600319360112610ff457507f00000000000000000000000000000000000000000000000000000000000000006001600160a01b031630036113c257602082516000805160206131208339815191528152f35b6020608492519162461bcd60e51b8352820152603860248201527f555550535570677261646561626c653a206d757374206e6f742062652063616c60448201527f6c6564207468726f7567682064656c656761746563616c6c00000000000000006064820152fd5b508083916003193601126105d7576114406126b8565b9060243567ffffffffffffffff81116104055736602382011215610405576114719036906024818701359101612857565b6001600160a01b0391907f000000000000000000000000000000000000000000000000000000000000000083166114aa30821415612d77565b6114c7600080516020613120833981519152918583541614612dd8565b6114cf6130a3565b93600080516020613100833981519152885260209460fb865281858a2091168952855260ff84892054168015611734575b61150990613001565b7f4910fdfa16fed3260ed0e7147f7cc6da11a60208b5b9406d12a635614ffd91435460ff1615611542575050505050610a2f9150612e39565b85939495169084516352d1902d60e01b815286818981865afa899181611701575b506115c257855162461bcd60e51b8152808901889052602e60248201527f45524331393637557067726164653a206e657720696d706c656d656e7461746960448201526d6f6e206973206e6f74205555505360901b6064820152608490fd5b96919295949396036116ac57506115d885612e39565b7fbc7cd75a20ee27fd9adebab32041f755214dbc6bffa90cc0225b39da2e5c2d3b8680a28251158015906116a4575b611613575b5050505080f35b611690938580835195611625876127e7565b602787527f416464726573733a206c6f772d6c6576656c2064656c65676174652063616c6c86880152660819985a5b195960ca1b858801528581519101845af4913d1561169a573d6116826116798261283b565b92519283612819565b81528681943d92013e612ec9565b508180808061160c565b5060609250612ec9565b506001611607565b825162461bcd60e51b8152908101849052602960248201527f45524331393637557067726164653a20756e737570706f727465642070726f786044820152681a58589b195555525160ba1b6064820152608490fd5b9091508781813d831161172d575b6117198183612819565b810103126117295751908a611563565b8980fd5b503d61170f565b506115098160335416826117466130a3565b16149050611500565b50346104fe5760203660031901126104fe576117696126b8565b9060ff6117746130a3565b600080516020613160833981519152855260fb60209081528386206001600160a01b0392831687529052918420541680156117cc575b6117b390613001565b6101c491166001600160601b0360a01b82541617905580f35b506117b38160335416826117de6130a3565b161490506117aa565b50346104fe5760203660031901126104fe576118016126b8565b9061180a612ccb565b6000805160206131608339815191529182845260fb6020528184209160018060a01b038092169283865260205260ff8186205416610a91578480f35b50346104fe57816003193601126104fe57602090516000805160206131608339815191528152f35b50346104fe57816003193601126104fe576118876130a3565b600080516020613140833981519152835260fb60209081528284206001600160a01b0392831685528152828420549092919060ff16801561196e575b8015611953575b6118d390613001565b6097549460ff8660a01c161561191957507f5db9ee0a495bf2e6ff9c91a7834c1ba4fdd244a5e8aa4e537bd38aeae4b073aa939460ff60a01b1916609755610da56130a3565b825162461bcd60e51b8152908101849052601460248201527314185d5cd8589b194e881b9bdd081c185d5cd95960621b6044820152606490fd5b506118d38160335416826119656130a3565b161490506118ca565b506119776130a3565b600080516020613160833981519152855260fb84528183862091168552835260ff82852054166118c3565b50346104fe57816003193601126104fe576101c65490516001600160a01b039091168152602090f35b5082906119d736612729565b506119e0612faa565b6119e86130a3565b6101c4546001600160a01b03929190831690831603611c79576080810135908186526101f99160209583875263ffffffff80878a20541615611c2a573415611be757865193888086015286611a3c82612715565b1688860152888101356060860152878101356080860152606081013560a08601528360c086015286611a7060a08301612715565b1660e086015286611a8360c08301612715565b1690610100918287015260e0810135603e1982360301811215611be357019061012086015286611ab282612715565b1661014086015288810135601e1982360301811215611bdf570188810195903567ffffffffffffffff8111611bdf578036038713611bdf5785611b068b98611b14938c610160850152610180840191612f89565b03601f198101875286612819565b866101f85416938a5285528689205416906101fb8552611b8386888b20541694611b3c6130a3565b978951988997889687966345560b5d60e11b885287015260248601528c60448601521660648401528a608484015261012c60a484015260e060c484015260e48301906127c2565b039134905af18015611bd557611bab575b600161012d558151838152806103cd818601612783565b8290813d8311611bce575b611bc08183612819565b810103126105d75782611b94565b503d611bb6565b82513d86823e3d90fd5b8a80fd5b8b80fd5b865162461bcd60e51b8152808301899052601760248201527f476173207061796d656e742069732072657175697265640000000000000000006044820152606490fd5b865162461bcd60e51b81528083018990526024808201527f436f6e6e657874204e6f7420617661696c61626c6520666f72207468697320636044820152633430b4b760e11b6064820152608490fd5b825162461bcd60e51b8152602081860152602c60248201527f4f6e6c792043726f737353796e63476174657761792063616e2063616c6c207460448201526b3434b990333ab731ba34b7b760a11b6064820152608490fd5b508290346105d7576020806003193601126104fa57611cee6126b8565b916001600160a01b037f00000000000000000000000000000000000000000000000000000000000000008116611d2630821415612d77565b611d43600080516020613120833981519152918383541614612dd8565b611d4b6130a3565b600080516020613100833981519152885260fb85528284892091168852845260ff83882054168015611fbe575b611d8190613001565b8251908482019282841067ffffffffffffffff851117611fab578385528883527f4910fdfa16fed3260ed0e7147f7cc6da11a60208b5b9406d12a635614ffd91435460ff1615611ddb57505050505050610a2f9150612e39565b869293949596169085516352d1902d60e01b815287818a81865afa8a9181611f7c575b50611e5d57865162461bcd60e51b8152808a01899052602e60248201527f45524331393637557067726164653a206e657720696d706c656d656e7461746960448201526d6f6e206973206e6f74205555505360901b6064820152608490fd5b979192939695949703611f275750611e7482612e39565b7fbc7cd75a20ee27fd9adebab32041f755214dbc6bffa90cc0225b39da2e5c2d3b8780a285845115801590611f20575b611eb2575b50505050505080f35b80611f1496845196611ec3886127e7565b602788527f416464726573733a206c6f772d6c6576656c2064656c65676174652063616c6c87890152660819985a5b195960ca1b868901525190845af4913d1561169a573d6116826116798261283b565b50818080808085611ea9565b5080611ea4565b835162461bcd60e51b8152908101859052602960248201527f45524331393637557067726164653a20756e737570706f727465642070726f786044820152681a58589b195555525160ba1b6064820152608490fd5b9091508881813d8311611fa4575b611f948183612819565b81010312611bdf5751908b611dfe565b503d611f8a565b634e487b7160e01b895260418852602489fd5b50611d81826033541683611fd06130a3565b16149050611d78565b5091346104fe57826003193601126104fe57611ff36126d3565b906001600160a01b03806120056130a3565b16908316036120195790610a2f9135612c51565b608490602085519162461bcd60e51b8352820152602f60248201527f416363657373436f6e74726f6c3a2063616e206f6e6c792072656e6f756e636560448201526e103937b632b9903337b91039b2b63360891b6064820152fd5b50346104fe5760203660031901126104fe5761208e6126b8565b9060ff6120996130a3565b600080516020613160833981519152855260fb60209081528386206001600160a01b0392831687529052918420541680156120f1575b6120d890613001565b6101c691166001600160601b0360a01b82541617905580f35b506120d88160335416826121036130a3565b161490506120cf565b5082346105d757816003193601126105d75735906121286126d3565b82845260fb60205261213f6001838620015461288e565b82845260fb60209081528285206001600160a01b0392831680875291528285205490929060ff16156107da578480f35b5082346105d75760203660031901126105d7573563ffffffff81168091036105d757828291602094526101fa845220549051908152f35b5082346105d75760203660031901126105d7578160209360019235815260fb85522001549051908152f35b5082346105d757816003193601126105d7578160209360ff923581526101fc85528181206024358252855220541690519015158152f35b50346104fe57602090816003193601126105d7576122246126b8565b9061222d6130a3565b600080516020613160833981519152855260fb84528185206001600160a01b03918216865284528185205490919060ff1680156122a0575b61226e90613001565b6000805160206131a08339815191529384865260fb815282828720941693848752815260ff82872054166111f0578580f35b5061226e8260335416836122b26130a3565b16149050612265565b508290346105d75760a03660031901126105d7576122d76126b8565b916122e06126d3565b926122e96126e9565b936122f26126ff565b946001600160a01b0360843581811693908490036125c65788549760ff8960081c1615968780986125b9575b80156125a2575b1561254857600199888b60ff198316178d55612537575b5061237e60ff8c5460081c1661235181613043565b61235a81613043565b61236381613043565b6097805460ff60a01b1916905561237981613043565b613043565b61238e6123896130a3565b612d2e565b6123c260ff8c5460081c166123a281613043565b6123ab81613043565b6123b481613043565b8b61012d5561237981613043565b6123ca612ccb565b838216156124e55750806106286123e092612d2e565b6000805160206131a0833981519152808a5260fb60205289898982200154916000805160206131608339815191528093818d8d862001557fbd79b86ffe0ab8e8776151514217cd7cacd52c909f66475c3af44e129f0b00ff92838580a460008051602061314083398151915290818352838c8c818187200154952001558c80a46001600160601b0360a01b94826101c4911686825416179055816101c59116858254161790556101c691168382541617905562015f906101c3556101f8918254161790556124ac578280f35b825461ff0019168355519081527f7f26b83ff96e1f2b6a682f133852f6798a09c465da95921460cefb384740249890602090a181808280f35b60849060208a519162461bcd60e51b8352820152602660248201527f4f776e61626c653a206e6577206f776e657220697320746865207a65726f206160448201526564647265737360d01b6064820152fd5b61ffff1916610101178b558b61233c565b60849060208a519162461bcd60e51b8352820152602e60248201527f496e697469616c697a61626c653a20636f6e747261637420697320616c72656160448201526d191e481a5b9a5d1a585b1a5e995960921b6064820152fd5b50303b1580156123255750600160ff8b1614612325565b50600160ff8b161061231e565b8880fd5b5082346105d75760203660031901126105d757359063ffffffff60e01b82168092036105d75760209250637965db0b60e01b821491821561260f575b50519015158152f35b6301ffc9a760e01b14915083612606565b50346104fe5760203660031901126104fe5761263a6126b8565b9060ff6126456130a3565b600080516020613160833981519152855260fb60209081528386206001600160a01b03928316875290529184205416801561269d575b61268490613001565b6101c591166001600160601b0360a01b82541617905580f35b506126848160335416826126af6130a3565b1614905061267b565b600435906001600160a01b03821682036126ce57565b600080fd5b602435906001600160a01b03821682036126ce57565b604435906001600160a01b03821682036126ce57565b606435906001600160a01b03821682036126ce57565b35906001600160a01b03821682036126ce57565b600319906040818301126126ce576004359167ffffffffffffffff83116126ce5782610100920301126126ce576004019060243590565b60005b8381106127735750506000910152565b8181015183820152602001612763565b906060519182815260005b8381106127ae5750826000602080949584010152601f8019910116010190565b80602091608001518282850101520161278e565b906020916127db81518092818552858086019101612760565b601f01601f1916010190565b6060810190811067ffffffffffffffff82111761280357604052565b634e487b7160e01b600052604160045260246000fd5b90601f8019910116810190811067ffffffffffffffff82111761280357604052565b67ffffffffffffffff811161280357601f01601f191660200190565b9291926128638261283b565b916128716040519384612819565b8294818452818301116126ce578281602093846000960137010152565b6128966130a3565b9060009080825260209160fb83526040938482209060018060a01b031690818352845260ff8583205416156128cc575050505050565b8451926128d8846127e7565b602a84528484019086368337845115612ba35760308253845192600193841015612b8f576078602187015360295b848111612b255750612ae3578651926080840184811067ffffffffffffffff821117612acf57885260428452868401946060368737845115612abb57603086538451821015612abb5790607860218601536041915b818311612a4d57505050612a0b57612a079386936129eb936129dc6048946129b39a519a8b957f416363657373436f6e74726f6c3a206163636f756e74200000000000000000008c8801525180926037880190612760565b8401917001034b99036b4b9b9b4b733903937b6329607d1b603784015251809386840190612760565b01036028810187520185612819565b5192839262461bcd60e51b8452600484015260248301906127c2565b0390fd5b60648587519062461bcd60e51b825280600483015260248201527f537472696e67733a20686578206c656e67746820696e73756666696369656e746044820152fd5b909192600f81166010811015612aa7576f181899199a1a9b1b9c1cb0b131b232b360811b901a612a7d8588612f62565b5360041c928015612a935760001901919061295b565b634e487b7160e01b82526011600452602482fd5b634e487b7160e01b83526032600452602483fd5b634e487b7160e01b81526032600452602490fd5b634e487b7160e01b86526041600452602486fd5b60648688519062461bcd60e51b825280600483015260248201527f537472696e67733a20686578206c656e67746820696e73756666696369656e746044820152fd5b90600f81166010811015612b7b576f181899199a1a9b1b9c1cb0b131b232b360811b901a612b538389612f62565b5360041c908015612b675760001901612906565b634e487b7160e01b86526011600452602486fd5b634e487b7160e01b87526032600452602487fd5b634e487b7160e01b85526032600452602485fd5b634e487b7160e01b84526032600452602484fd5b6001600160a01b0390811660008181527fc88390e7e62175be0932452175b6a7222b6b094ab0ef984a5153c620345d8975602052604081205490929060ff1615612c0057505050565b82805260fb6020526040832082845260205260408320600160ff19825416179055612c296130a3565b16917f2f8788117e7eff1d82e926ec794901d17c78024a50270940304540a733656f0d8180a4565b600081815260fb602090815260408083206001600160a01b039586168085529252822054919390929160ff16612c88575b50505050565b6000805160206131808339815191529082855260fb602052604085208486526020526040852060ff198154169055612cbe6130a3565b169380a438808080612c82565b6033546001600160a01b0390811690612ce26130a3565b1603612cea57565b606460405162461bcd60e51b815260206004820152602060248201527f4f776e61626c653a2063616c6c6572206973206e6f7420746865206f776e65726044820152fd5b603380546001600160a01b039283166001600160a01b0319821681179092559091167f8be0079c531659141344cd1fd0a4f28419497f9722a3daafe3b4186f6b6457e0600080a3565b15612d7e57565b60405162461bcd60e51b815260206004820152602c60248201527f46756e6374696f6e206d7573742062652063616c6c6564207468726f7567682060448201526b19195b1959d85d1958d85b1b60a21b6064820152608490fd5b15612ddf57565b60405162461bcd60e51b815260206004820152602c60248201527f46756e6374696f6e206d7573742062652063616c6c6564207468726f7567682060448201526b6163746976652070726f787960a01b6064820152608490fd5b803b15612e6e5760008051602061312083398151915280546001600160a01b0319166001600160a01b03909216919091179055565b60405162461bcd60e51b815260206004820152602d60248201527f455243313936373a206e657720696d706c656d656e746174696f6e206973206e60448201526c1bdd08184818dbdb9d1c9858dd609a1b6064820152608490fd5b91929015612f2b5750815115612edd575090565b3b15612ee65790565b60405162461bcd60e51b815260206004820152601d60248201527f416464726573733a2063616c6c20746f206e6f6e2d636f6e74726163740000006044820152606490fd5b825190915015612f3e5750805190602001fd5b60405162461bcd60e51b815260206004820152908190612a079060248301906127c2565b908151811015612f73570160200190565b634e487b7160e01b600052603260045260246000fd5b908060209392818452848401376000828201840152601f01601f1916010190565b61012d6002815414612fbc5760029055565b60405162461bcd60e51b815260206004820152601f60248201527f5265656e7472616e637947756172643a207265656e7472616e742063616c6c006044820152606490fd5b1561300857565b60405162461bcd60e51b8152602060048201526013602482015272556e617574686f72697a65642041636365737360681b6044820152606490fd5b1561304a57565b60405162461bcd60e51b815260206004820152602b60248201527f496e697469616c697a61626c653a20636f6e7472616374206973206e6f74206960448201526a6e697469616c697a696e6760a81b6064820152608490fd5b6097546001600160a01b0316331480806130f4575b156130ca575036601319013560601c90565b601436101590816130ec575b50156130e85736601319013560601c90565b3390565b9050386130d6565b5060143610156130b856fe189ab7a9244df0848122154315af71fe140f3db0fe014031783b0946b8c9d2e3360894a13ba1a3210667c828492db98dca3e2076cc3735a920a3ca505d382bbc65d7a28e3265b37a6474929f336521b332c1681b933f6cb9f3376673440d862a7613a25ecc738585a232ad50a301178f12b3ba8887d13e138b523c4269c47689f6391f5c32d9c69d2a47ea670b442974b53935d1edc7fd64eb21e047a839171ba49807205ce4d355092ef5a8a18f56e8913cf4a201fbe287825b095693c21775a2646970667358221220e3e0d98df15fdf9ae85020857e39bd61e7bad68ba0d87eb114ae8eead367fd5564736f6c63430008110033",
  "linkReferences": {},
  "deployedLinkReferences": {}
}