{
  "_format": "hh-sol-artifact-1",
  "contractName": "ConnextImpl",
  "sourceName": "contracts/MessagingImpls/ConnextImpl.sol",
  "abi": [
    {
      "inputs": [],
      "stateMutability": "nonpayable",
      "type": "constructor"
    },
    {
      "anonymous": false,
      "inputs": [
        {
          "indexed": false,
          "internalType": "address",
          "name": "previousAdmin",
          "type": "address"
        },
        {
          "indexed": false,
          "internalType": "address",
          "name": "newAdmin",
          "type": "address"
        }
      ],
      "name": "AdminChanged",
      "type": "event"
    },
    {
      "anonymous": false,
      "inputs": [
        {
          "indexed": true,
          "internalType": "address",
          "name": "beacon",
          "type": "address"
        }
      ],
      "name": "BeaconUpgraded",
      "type": "event"
    },
    {
      "anonymous": false,
      "inputs": [
        {
          "indexed": false,
          "internalType": "uint8",
          "name": "version",
          "type": "uint8"
        }
      ],
      "name": "Initialized",
      "type": "event"
    },
    {
      "anonymous": false,
      "inputs": [
        {
          "indexed": true,
          "internalType": "address",
          "name": "previousOwner",
          "type": "address"
        },
        {
          "indexed": true,
          "internalType": "address",
          "name": "newOwner",
          "type": "address"
        }
      ],
      "name": "OwnershipTransferred",
      "type": "event"
    },
    {
      "anonymous": false,
      "inputs": [
        {
          "indexed": false,
          "internalType": "address",
          "name": "account",
          "type": "address"
        }
      ],
      "name": "Paused",
      "type": "event"
    },
    {
      "anonymous": false,
      "inputs": [
        {
          "indexed": true,
          "internalType": "bytes32",
          "name": "role",
          "type": "bytes32"
        },
        {
          "indexed": true,
          "internalType": "bytes32",
          "name": "previousAdminRole",
          "type": "bytes32"
        },
        {
          "indexed": true,
          "internalType": "bytes32",
          "name": "newAdminRole",
          "type": "bytes32"
        }
      ],
      "name": "RoleAdminChanged",
      "type": "event"
    },
    {
      "anonymous": false,
      "inputs": [
        {
          "indexed": true,
          "internalType": "bytes32",
          "name": "role",
          "type": "bytes32"
        },
        {
          "indexed": true,
          "internalType": "address",
          "name": "account",
          "type": "address"
        },
        {
          "indexed": true,
          "internalType": "address",
          "name": "sender",
          "type": "address"
        }
      ],
      "name": "RoleGranted",
      "type": "event"
    },
    {
      "anonymous": false,
      "inputs": [
        {
          "indexed": true,
          "internalType": "bytes32",
          "name": "role",
          "type": "bytes32"
        },
        {
          "indexed": true,
          "internalType": "address",
          "name": "account",
          "type": "address"
        },
        {
          "indexed": true,
          "internalType": "address",
          "name": "sender",
          "type": "address"
        }
      ],
      "name": "RoleRevoked",
      "type": "event"
    },
    {
      "anonymous": false,
      "inputs": [
        {
          "indexed": false,
          "internalType": "address",
          "name": "account",
          "type": "address"
        }
      ],
      "name": "Unpaused",
      "type": "event"
    },
    {
      "anonymous": false,
      "inputs": [
        {
          "indexed": true,
          "internalType": "address",
          "name": "implementation",
          "type": "address"
        }
      ],
      "name": "Upgraded",
      "type": "event"
    },
    {
      "inputs": [],
      "name": "ADMIN_ROLE",
      "outputs": [
        {
          "internalType": "bytes32",
          "name": "",
          "type": "bytes32"
        }
      ],
      "stateMutability": "view",
      "type": "function"
    },
    {
      "inputs": [],
      "name": "DEFAULT_ADMIN_ROLE",
      "outputs": [
        {
          "internalType": "bytes32",
          "name": "",
          "type": "bytes32"
        }
      ],
      "stateMutability": "view",
      "type": "function"
    },
    {
      "inputs": [],
      "name": "PAUSER_ROLE",
      "outputs": [
        {
          "internalType": "bytes32",
          "name": "",
          "type": "bytes32"
        }
      ],
      "stateMutability": "view",
      "type": "function"
    },
    {
      "inputs": [],
      "name": "SUPER_ADMIN_ROLE",
      "outputs": [
        {
          "internalType": "bytes32",
          "name": "",
          "type": "bytes32"
        }
      ],
      "stateMutability": "view",
      "type": "function"
    },
    {
      "inputs": [],
      "name": "UPGRADER_ROLE",
      "outputs": [
        {
          "internalType": "bytes32",
          "name": "",
          "type": "bytes32"
        }
      ],
      "stateMutability": "view",
      "type": "function"
    },
    {
      "inputs": [
        {
          "internalType": "address",
          "name": "_admin",
          "type": "address"
        }
      ],
      "name": "addAdmin",
      "outputs": [],
      "stateMutability": "nonpayable",
      "type": "function"
    },
    {
      "inputs": [
        {
          "internalType": "address",
          "name": "account",
          "type": "address"
        }
      ],
      "name": "addPauser",
      "outputs": [],
      "stateMutability": "nonpayable",
      "type": "function"
    },
    {
      "inputs": [
        {
          "internalType": "address",
          "name": "_superAdmin",
          "type": "address"
        }
      ],
      "name": "addSuperAdmin",
      "outputs": [],
      "stateMutability": "nonpayable",
      "type": "function"
    },
    {
      "inputs": [
        {
          "internalType": "address",
          "name": "_upgrader",
          "type": "address"
        }
      ],
      "name": "addUpgrader",
      "outputs": [],
      "stateMutability": "nonpayable",
      "type": "function"
    },
    {
      "inputs": [],
      "name": "connext",
      "outputs": [
        {
          "internalType": "contract IConnext",
          "name": "",
          "type": "address"
        }
      ],
      "stateMutability": "view",
      "type": "function"
    },
    {
      "inputs": [
        {
          "internalType": "uint256",
          "name": "",
          "type": "uint256"
        }
      ],
      "name": "connextDestDomain",
      "outputs": [
        {
          "internalType": "uint32",
          "name": "",
          "type": "uint32"
        }
      ],
      "stateMutability": "view",
      "type": "function"
    },
    {
      "inputs": [],
      "name": "crossSyncGatewayAddress",
      "outputs": [
        {
          "internalType": "address",
          "name": "",
          "type": "address"
        }
      ],
      "stateMutability": "view",
      "type": "function"
    },
    {
      "inputs": [
        {
          "components": [
            {
              "internalType": "address",
              "name": "sender",
              "type": "address"
            },
            {
              "internalType": "uint256",
              "name": "nonce",
              "type": "uint256"
            },
            {
              "internalType": "uint256",
              "name": "messagingRouteId",
              "type": "uint256"
            },
            {
              "internalType": "uint256",
              "name": "sourceChainId",
              "type": "uint256"
            },
            {
              "internalType": "uint256",
              "name": "destinationChainId",
              "type": "uint256"
            },
            {
              "internalType": "address",
              "name": "sourceGatewayAddress",
              "type": "address"
            },
            {
              "internalType": "address",
              "name": "destinationGatewayAddress",
              "type": "address"
            },
            {
              "components": [
                {
                  "internalType": "address",
                  "name": "to",
                  "type": "address"
                },
                {
                  "internalType": "bytes",
                  "name": "data",
                  "type": "bytes"
                }
              ],
              "internalType": "struct ICrossSyncGateway.MessagingPayload",
              "name": "payload",
              "type": "tuple"
            }
          ],
          "internalType": "struct IMessagingImpl.ICrossSyncMessagingData",
          "name": "_data",
          "type": "tuple"
        }
      ],
      "name": "executeSendMessage",
      "outputs": [
        {
          "internalType": "bytes",
          "name": "",
          "type": "bytes"
        }
      ],
      "stateMutability": "payable",
      "type": "function"
    },
    {
      "inputs": [
        {
          "internalType": "bytes32",
          "name": "role",
          "type": "bytes32"
        }
      ],
      "name": "getRoleAdmin",
      "outputs": [
        {
          "internalType": "bytes32",
          "name": "",
          "type": "bytes32"
        }
      ],
      "stateMutability": "view",
      "type": "function"
    },
    {
      "inputs": [],
      "name": "getTrustedForwarder",
      "outputs": [
        {
          "internalType": "address",
          "name": "forwarder",
          "type": "address"
        }
      ],
      "stateMutability": "view",
      "type": "function"
    },
    {
      "inputs": [
        {
          "internalType": "bytes32",
          "name": "role",
          "type": "bytes32"
        },
        {
          "internalType": "address",
          "name": "account",
          "type": "address"
        }
      ],
      "name": "grantRole",
      "outputs": [],
      "stateMutability": "nonpayable",
      "type": "function"
    },
    {
      "inputs": [
        {
          "internalType": "bytes32",
          "name": "role",
          "type": "bytes32"
        },
        {
          "internalType": "address",
          "name": "account",
          "type": "address"
        }
      ],
      "name": "hasRole",
      "outputs": [
        {
          "internalType": "bool",
          "name": "",
          "type": "bool"
        }
      ],
      "stateMutability": "view",
      "type": "function"
    },
    {
      "inputs": [
        {
          "internalType": "address",
          "name": "_crossSyncGatewayAddress",
          "type": "address"
        },
        {
          "internalType": "address",
          "name": "_nativeCurrencyWrappedAddress",
          "type": "address"
        },
        {
          "internalType": "address",
          "name": "_nativeCurrencyAddress",
          "type": "address"
        },
        {
          "internalType": "address",
          "name": "_owner",
          "type": "address"
        },
        {
          "internalType": "address",
          "name": "_connextGatewayAddress",
          "type": "address"
        }
      ],
      "name": "initialize",
      "outputs": [],
      "stateMutability": "nonpayable",
      "type": "function"
    },
    {
      "inputs": [
        {
          "internalType": "address",
          "name": "forwarder",
          "type": "address"
        }
      ],
      "name": "isTrustedForwarder",
      "outputs": [
        {
          "internalType": "bool",
          "name": "",
          "type": "bool"
        }
      ],
      "stateMutability": "view",
      "type": "function"
    },
    {
      "inputs": [],
      "name": "nativeCurrencyAddress",
      "outputs": [
        {
          "internalType": "address",
          "name": "",
          "type": "address"
        }
      ],
      "stateMutability": "view",
      "type": "function"
    },
    {
      "inputs": [],
      "name": "nativeCurrencyWrappedAddress",
      "outputs": [
        {
          "internalType": "address",
          "name": "",
          "type": "address"
        }
      ],
      "stateMutability": "view",
      "type": "function"
    },
    {
      "inputs": [],
      "name": "owner",
      "outputs": [
        {
          "internalType": "address",
          "name": "",
          "type": "address"
        }
      ],
      "stateMutability": "view",
      "type": "function"
    },
    {
      "inputs": [],
      "name": "pause",
      "outputs": [],
      "stateMutability": "nonpayable",
      "type": "function"
    },
    {
      "inputs": [],
      "name": "paused",
      "outputs": [
        {
          "internalType": "bool",
          "name": "",
          "type": "bool"
        }
      ],
      "stateMutability": "view",
      "type": "function"
    },
    {
      "inputs": [],
      "name": "proxiableUUID",
      "outputs": [
        {
          "internalType": "bytes32",
          "name": "",
          "type": "bytes32"
        }
      ],
      "stateMutability": "view",
      "type": "function"
    },
    {
      "inputs": [
        {
          "internalType": "address",
          "name": "_admin",
          "type": "address"
        }
      ],
      "name": "removeAdmin",
      "outputs": [],
      "stateMutability": "nonpayable",
      "type": "function"
    },
    {
      "inputs": [
        {
          "internalType": "address",
          "name": "_pauser",
          "type": "address"
        }
      ],
      "name": "removePauser",
      "outputs": [],
      "stateMutability": "nonpayable",
      "type": "function"
    },
    {
      "inputs": [
        {
          "internalType": "address",
          "name": "_superAdmin",
          "type": "address"
        }
      ],
      "name": "removeSuperAdmin",
      "outputs": [],
      "stateMutability": "nonpayable",
      "type": "function"
    },
    {
      "inputs": [
        {
          "internalType": "address",
          "name": "_upgrader",
          "type": "address"
        }
      ],
      "name": "removeUpgrader",
      "outputs": [],
      "stateMutability": "nonpayable",
      "type": "function"
    },
    {
      "inputs": [],
      "name": "renounceOwnership",
      "outputs": [],
      "stateMutability": "nonpayable",
      "type": "function"
    },
    {
      "inputs": [
        {
          "internalType": "bytes32",
          "name": "role",
          "type": "bytes32"
        },
        {
          "internalType": "address",
          "name": "account",
          "type": "address"
        }
      ],
      "name": "renounceRole",
      "outputs": [],
      "stateMutability": "nonpayable",
      "type": "function"
    },
    {
      "inputs": [
        {
          "internalType": "address payable",
          "name": "userAddress",
          "type": "address"
        },
        {
          "internalType": "uint256",
          "name": "amount",
          "type": "uint256"
        }
      ],
      "name": "rescueEther",
      "outputs": [],
      "stateMutability": "nonpayable",
      "type": "function"
    },
    {
      "inputs": [
        {
          "internalType": "address",
          "name": "token",
          "type": "address"
        },
        {
          "internalType": "address",
          "name": "userAddress",
          "type": "address"
        },
        {
          "internalType": "uint256",
          "name": "amount",
          "type": "uint256"
        }
      ],
      "name": "rescueFunds",
      "outputs": [],
      "stateMutability": "nonpayable",
      "type": "function"
    },
    {
      "inputs": [
        {
          "internalType": "bytes32",
          "name": "role",
          "type": "bytes32"
        },
        {
          "internalType": "address",
          "name": "account",
          "type": "address"
        }
      ],
      "name": "revokeRole",
      "outputs": [],
      "stateMutability": "nonpayable",
      "type": "function"
    },
    {
      "inputs": [
        {
          "internalType": "uint256",
          "name": "_chainId",
          "type": "uint256"
        },
        {
          "internalType": "uint32",
          "name": "_chainDomain",
          "type": "uint32"
        }
      ],
      "name": "setConnextDestChainDomain",
      "outputs": [],
      "stateMutability": "nonpayable",
      "type": "function"
    },
    {
      "inputs": [
        {
          "internalType": "contract IConnext",
          "name": "_connext",
          "type": "address"
        }
      ],
      "name": "setConnextGateWayAddress",
      "outputs": [],
      "stateMutability": "nonpayable",
      "type": "function"
    },
    {
      "inputs": [
        {
          "internalType": "address",
          "name": "_crossSyncGatewayAddress",
          "type": "address"
        }
      ],
      "name": "setCrossSyncGatewayAddress",
      "outputs": [],
      "stateMutability": "nonpayable",
      "type": "function"
    },
    {
      "inputs": [
        {
          "internalType": "address",
          "name": "_nativeCurrencyAddress",
          "type": "address"
        }
      ],
      "name": "setNativeCurrencyAddress",
      "outputs": [],
      "stateMutability": "nonpayable",
      "type": "function"
    },
    {
      "inputs": [
        {
          "internalType": "address",
          "name": "_nativeCurrencyWrappedAddress",
          "type": "address"
        }
      ],
      "name": "setNativeCurrencyWrappedAddress",
      "outputs": [],
      "stateMutability": "nonpayable",
      "type": "function"
    },
    {
      "inputs": [
        {
          "internalType": "address",
          "name": "_newtrustedForwarder",
          "type": "address"
        }
      ],
      "name": "setTrustedForwarder",
      "outputs": [],
      "stateMutability": "nonpayable",
      "type": "function"
    },
    {
      "inputs": [
        {
          "internalType": "bytes4",
          "name": "interfaceId",
          "type": "bytes4"
        }
      ],
      "name": "supportsInterface",
      "outputs": [
        {
          "internalType": "bool",
          "name": "",
          "type": "bool"
        }
      ],
      "stateMutability": "view",
      "type": "function"
    },
    {
      "inputs": [
        {
          "internalType": "address",
          "name": "newOwner",
          "type": "address"
        }
      ],
      "name": "transferOwnership",
      "outputs": [],
      "stateMutability": "nonpayable",
      "type": "function"
    },
    {
      "inputs": [],
      "name": "unpause",
      "outputs": [],
      "stateMutability": "nonpayable",
      "type": "function"
    },
    {
      "inputs": [
        {
          "internalType": "address",
          "name": "newImplementation",
          "type": "address"
        }
      ],
      "name": "upgradeTo",
      "outputs": [],
      "stateMutability": "nonpayable",
      "type": "function"
    },
    {
      "inputs": [
        {
          "internalType": "address",
          "name": "newImplementation",
          "type": "address"
        },
        {
          "internalType": "bytes",
          "name": "data",
          "type": "bytes"
        }
      ],
      "name": "upgradeToAndCall",
      "outputs": [],
      "stateMutability": "payable",
      "type": "function"
    },
    {
      "stateMutability": "payable",
      "type": "receive"
    }
  ],
  "bytecode": "0x60a060405234620000495730608052620000186200004e565b620000226200004e565b604051612b7c9081620000f88239608051818181610eeb0152818161101301526119030152f35b600080fd5b60005460ff8160081c16620000a25760ff808216036200006b5750565b60ff90811916176000557f7f26b83ff96e1f2b6a682f133852f6798a09c465da95921460cefb3847402498602060405160ff8152a1565b60405162461bcd60e51b815260206004820152602760248201527f496e697469616c697a61626c653a20636f6e747261637420697320696e697469604482015266616c697a696e6760c81b6064820152608490fdfe60406080815260049081361015610020575b5050361561001e57600080fd5b005b600091823560e01c9081629fe752146120f757816301ffc9a7146120a15781631459457a14611d955781631785f53c14611ce1578163248a9ca314611cb65781632f2ff15d14611c5357816332495ce114611bba57816336568abe14611b1e5781633659cfe6146118db57816338073f0c146118b15781633f4ba83a1461177c5781634460bdd61461175357816346961bff146113e45781634902e4aa146113845781634b03285a146112eb5781634f1ef28614610f9857816352d1902d14610ed5578163572b6c0514610ea15781635c975abb14610e7a578163636fce4e14610dfb5781636b2c0f5514610d095781636ccae05414610c5c5781637048027514610ba7578163715018a614610b4757816375b238fc14610b1e57816382dc1ec414610a165781638456cb59146108d25781638da5cb5b146108a957816391d1485414610862578163a217fddf14610847578163b3292ff0146107e6578163b89b22d7146107bc578163bd826ed714610792578163ce1b815f14610769578163d264a803146106ca578163d547741f1461068b578163da742228146105f5578163de4b0548146105cb578163e39d1f1a1461059c57838263e42e0ea91461054257508163e51101581461048d578163e63ab1e914610464578163f2fde38b146102ed578163f385a23914610244575063f72c0d8b03610011573461024057816003193601126102405760209051600080516020612a878339815191528152f35b5080fd5b919050346102e957806003193601126102e9576024359163ffffffff83168093036102e5576102b3610274612a2a565b600080516020612ae7833981519152865260fb60209081528487206001600160a01b03928316885290528386205460ff169081156102ce575b50612988565b3583526101f860205282209063ffffffff1982541617905580f35b603354811691506102dd612a2a565b1614386102ad565b8380fd5b8280fd5b919050346102e957602090816003193601126102e55761030b612190565b916103146126ca565b61031c6126ca565b6001600160a01b039280841615610412578061033a61033f9261272d565b6125b6565b610347612a2a565b938380610352612a2a565b1695169485036103b9575084805260fb8152818520848652815260ff828620541661037b578480f35b84805260fb815281852084865290528320805460ff1916905561039c612a2a565b169082600080516020612b078339815191528180a4388080808480f35b915162461bcd60e51b815291820152602f60248201527f416363657373436f6e74726f6c3a2063616e206f6e6c792072656e6f756e636560448201526e103937b632b9903337b91039b2b63360891b6064820152608490fd5b825162461bcd60e51b8152808601839052602660248201527f4f776e61626c653a206e6577206f776e657220697320746865207a65726f206160448201526564647265737360d01b6064820152608490fd5b50503461024057816003193601126102405760209051600080516020612ac78339815191528152f35b505034610240576020366003190112610240576104a8612190565b906104b16126ca565b600080516020612a878339815191529182845260fb6020528184209160018060a01b038092169283865260205260ff8186205416156104ee578480f35b83855260fb6020528085208386526020528420600160ff19825416179055610514612a2a565b16917f2f8788117e7eff1d82e926ec794901d17c78024a50270940304540a733656f0d8480a4388080808480f35b915034610240578260031936011261024057356001600160a01b038116908190036102405781808092602435906105776126ca565b828215610593575bf115610589575080f35b51903d90823e3d90fd5b506108fc61057f565b9050346102e95760203660031901126102e9578160209363ffffffff923581526101f885522054169051908152f35b5050346102405781600319360112610240576101f75490516001600160a01b039091168152602090f35b50503461024057602036600319011261024057610610612190565b60ff61061a612a2a565b600080516020612ae7833981519152855260fb60209081528486206001600160a01b039283168752905292842054168015610670575b61065990612988565b166001600160601b0360a01b609754161760975580f35b50610659826033541683610682612a2a565b16149050610650565b919050346102e957806003193601126102e9576106c791356106c260016106b06121ab565b9383875260fb6020528620015461228d565b612650565b80f35b505034610240576020366003190112610240576106e5612190565b906106ee6126ca565b600080516020612a878339815191529182845260fb6020528184209160018060a01b038092169283865260205260ff818620541661072a578480f35b83855260fb602052808520838652602052842060ff19815416905561074d612a2a565b1691600080516020612b078339815191528480a4388080808480f35b50503461024057816003193601126102405760975490516001600160a01b039091168152602090f35b5050346102405781600319360112610240576101c45490516001600160a01b039091168152602090f35b5050346102405781600319360112610240576101c35490516001600160a01b039091168152602090f35b50503461024057602036600319011261024057610801612190565b9061080a6126ca565b600080516020612ae78339815191529182845260fb6020528184209160018060a01b038092169283865260205260ff8186205416156104ee578480f35b50503461024057816003193601126102405751908152602090f35b9050346102e957816003193601126102e9578160209360ff926108836121ab565b9035825260fb86528282206001600160a01b039091168252855220549151911615158152f35b50503461024057816003193601126102405760335490516001600160a01b039091168152602090f35b8383346102405781600319360112610240576108ec612a2a565b600080516020612ac7833981519152835260fb60209081528284206001600160a01b0392831685528152828420549092919060ff1680156109e2575b80156109c7575b61093890612988565b6097549460ff8660a01c16610991575060ff60a01b19909416600160a01b1760975591927f62e78cea01bee320cd4e420270b5ea74000d11b0c9f74754ebdbfc544b05a2589290610987612a2a565b915191168152a180f35b825162461bcd60e51b8152908101849052601060248201526f14185d5cd8589b194e881c185d5cd95960821b6044820152606490fd5b506109388160335416826109d9612a2a565b1614905061092f565b506109eb612a2a565b600080516020612ae7833981519152855260fb84528183862091168552835260ff8285205416610928565b50503461024057602090816003193601126102e957610a33612190565b90610a3c612a2a565b600080516020612ae7833981519152855260fb84528185206001600160a01b03918216865284528185205490919060ff168015610b03575b610a7d90612988565b600080516020612ac78339815191529384865260fb815282828720941693848752815260ff828720541615610ab0578580f35b84865260fb815281862084875290528420805460ff19166001179055610ad4612a2a565b16917f2f8788117e7eff1d82e926ec794901d17c78024a50270940304540a733656f0d8480a438808080808580f35b50610a7d826033541683610b15612a2a565b16149050610a74565b50503461024057816003193601126102405760209051600080516020612b278339815191528152f35b8334610ba45780600319360112610ba457610b606126ca565b603380546001600160a01b0319811690915581906001600160a01b03167f8be0079c531659141344cd1fd0a4f28419497f9722a3daafe3b4186f6b6457e08280a380f35b80fd5b50503461024057602090816003193601126102e957610bc4612190565b90610bcd612a2a565b600080516020612ae7833981519152855260fb84528185206001600160a01b03918216865284528185205490919060ff168015610c41575b610c0e90612988565b600080516020612b278339815191529384865260fb815282828720941693848752815260ff828720541615610ab0578580f35b50610c0e826033541683610c53612a2a565b16149050610c05565b919050346102e95760603660031901126102e9576020610c7a612190565b6044610c846121ab565b94610c8d6126ca565b845163a9059cbb60e01b81526001600160a01b03968716918101919091528135602482015294859283918891165af1908115610d005750610ccc575080f35b6020813d8211610cf8575b81610ce46020938361224f565b81010312610240575180151503610ba45780f35b3d9150610cd7565b513d84823e3d90fd5b50503461024057602090816003193601126102e957610d26612190565b90610d2f612a2a565b600080516020612ae7833981519152855260fb84528185206001600160a01b03918216865284528185205490919060ff168015610de0575b610d7090612988565b600080516020612ac78339815191529384865260fb815282828720941693848752815260ff8287205416610da2578580f35b84865260fb815281862084875290528420805460ff19169055610dc3612a2a565b1691600080516020612b078339815191528480a438808080808580f35b50610d70826033541683610df2612a2a565b16149050610d67565b9050346102e95760203660031901126102e957356001600160a01b0381811692918390036102e55760ff610e6392610e31612a2a565b600080516020612ae7833981519152875260fb6020528382882091168752602052852054169081156102ce5750612988565b6101f780546001600160a01b031916909117905580f35b50503461024057816003193601126102405760209060ff60975460a01c1690519015158152f35b50503461024057602036600319011261024057602090610ebf612190565b60018060a01b0380609754169116149051908152f35b90508234610ba45780600319360112610ba457507f00000000000000000000000000000000000000000000000000000000000000006001600160a01b03163003610f305760208251600080516020612aa78339815191528152f35b6020608492519162461bcd60e51b8352820152603860248201527f555550535570677261646561626c653a206d757374206e6f742062652063616c60448201527f6c6564207468726f7567682064656c656761746563616c6c00000000000000006064820152fd5b918091506003193601126102e957610fae612190565b906024359067ffffffffffffffff82116112e757366023830112156112e75781840135610fda81612271565b610fe68351918261224f565b818152866020948583019336602482840101116102e9578060248893018637830101526001600160a01b037f000000000000000000000000000000000000000000000000000000000000000081169061104130831415612776565b61105e600080516020612aa78339815191529282845416146127d7565b611066612a2a565b600080516020612a878339815191528a5260fb875281868b2091168a52865260ff858a20541680156112cc575b61109c90612988565b7f4910fdfa16fed3260ed0e7147f7cc6da11a60208b5b9406d12a635614ffd91435460ff16156110d6575050505050506106c79150612838565b869293949596169085516352d1902d60e01b815287818a81865afa8a9181611299575b5061115857865162461bcd60e51b8152808a01899052602e60248201527f45524331393637557067726164653a206e657720696d706c656d656e7461746960448201526d6f6e206973206e6f74205555505360901b6064820152608490fd5b979192939695949703611244575061116f82612838565b7fbc7cd75a20ee27fd9adebab32041f755214dbc6bffa90cc0225b39da2e5c2d3b8780a28584511580159061123c575b6111ad575b50505050505080f35b80611226968451966111be8861221d565b602788527f416464726573733a206c6f772d6c6576656c2064656c65676174652063616c6c87890152660819985a5b195960ca1b868901525190845af4913d15611232573d61121861120f82612271565b9251928361224f565b81528681943d92013e6128c8565b503880808080856111a4565b50606092506128c8565b50600161119f565b835162461bcd60e51b8152908101859052602960248201527f45524331393637557067726164653a20756e737570706f727465642070726f786044820152681a58589b195555525160ba1b6064820152608490fd5b9091508881813d83116112c5575b6112b1818361224f565b810103126112c1575190386110f9565b8a80fd5b503d6112a7565b5061109c8160335416826112de612a2a565b16149050611093565b8480fd5b50503461024057602036600319011261024057611306612190565b9060ff611311612a2a565b600080516020612ae7833981519152855260fb60209081528386206001600160a01b039283168752905291842054168015611369575b61135090612988565b6101c391166001600160601b0360a01b82541617905580f35b5061135081603354168261137b612a2a565b16149050611347565b5050346102405760203660031901126102405761139f612190565b906113a86126ca565b600080516020612ae78339815191529182845260fb6020528184209160018060a01b038092169283865260205260ff818620541661072a578480f35b602083600319863682018413610ba457843567ffffffffffffffff958682116102e9578136039061010080958301126102e55761012d9260028454146117105760028455611430612a2a565b6101c3546001600160a01b039491908516908516036116b8573415611675578751928980850152846114638483016121c1565b168985015260248301356060850152608097604484013589860152606484013560a08601526084840135938460c0870152866114a160a483016121c1565b1660e087015260c4810193876114b6866121c1565b168784015260e48201359060421901811215611671570190610120860152856114e08383016121c1565b1661014086015260248101356022198236030181121561166d570160248282013591019b8111611669578036038c1361166957899a9b61155391601f9b61016088015286610180918083830152806101a094858401378b8482840101528d199d8e9101168101039081018752018561224f565b846101f754169287526101f88b5263ffffffff8a8820541691359385851680950361166957906115d08c95949392611589612a2a565b978d51988997889687966345560b5d60e11b885287015260248601528b604486015216606484015289608484015261012c60a484015260e060c484015260e48301906121f8565b039134905af1801561165f57908791611636575b50506001909391929355835194859281845260605191828186015281955b8387106116205750508394508582601f949501015201168101030190f35b8681015189880189015295810195889550611602565b813d8311611658575b611649818361224f565b810103126102405785876115e4565b503d61163f565b86513d85823e3d90fd5b8780fd5b8880fd5b8980fd5b875162461bcd60e51b81528084018a9052601760248201527f476173207061796d656e742069732072657175697265640000000000000000006044820152606490fd5b875162461bcd60e51b81528084018a9052602c60248201527f4f6e6c792043726f737353796e63476174657761792063616e2063616c6c207460448201526b3434b990333ab731ba34b7b760a11b6064820152608490fd5b865162461bcd60e51b8152808301899052601f60248201527f5265656e7472616e637947756172643a207265656e7472616e742063616c6c006044820152606490fd5b50503461024057816003193601126102405760209051600080516020612ae78339815191528152f35b838334610240578160031936011261024057611796612a2a565b600080516020612ac7833981519152835260fb60209081528284206001600160a01b0392831685528152828420549092919060ff16801561187d575b8015611862575b6117e290612988565b6097549460ff8660a01c161561182857507f5db9ee0a495bf2e6ff9c91a7834c1ba4fdd244a5e8aa4e537bd38aeae4b073aa939460ff60a01b1916609755610987612a2a565b825162461bcd60e51b8152908101849052601460248201527314185d5cd8589b194e881b9bdd081c185d5cd95960621b6044820152606490fd5b506117e2816033541682611874612a2a565b161490506117d9565b50611886612a2a565b600080516020612ae7833981519152855260fb84528183862091168552835260ff82852054166117d2565b5050346102405781600319360112610240576101c55490516001600160a01b039091168152602090f35b919050346102e9576020806003193601126102e5576118f8612190565b916001600160a01b037f0000000000000000000000000000000000000000000000000000000000000000811661193030821415612776565b61194d600080516020612aa78339815191529183835416146127d7565b611955612a2a565b600080516020612a87833981519152885260fb85528284892091168852845260ff83882054168015611b03575b61198b90612988565b8251908482019282841067ffffffffffffffff851117611af0578385528883527f4910fdfa16fed3260ed0e7147f7cc6da11a60208b5b9406d12a635614ffd91435460ff16156119e5575050505050506106c79150612838565b869293949596169085516352d1902d60e01b815287818a81865afa8a9181611ac1575b50611a6757865162461bcd60e51b8152808a01899052602e60248201527f45524331393637557067726164653a206e657720696d706c656d656e7461746960448201526d6f6e206973206e6f74205555505360901b6064820152608490fd5b9791929396959497036112445750611a7e82612838565b7fbc7cd75a20ee27fd9adebab32041f755214dbc6bffa90cc0225b39da2e5c2d3b8780a285845115801590611aba576111ad5750505050505080f35b508061119f565b9091508881813d8311611ae9575b611ad9818361224f565b810103126112c157519038611a08565b503d611acf565b634e487b7160e01b895260418852602489fd5b5061198b826033541683611b15612a2a565b16149050611982565b83915034610240578260031936011261024057611b396121ab565b906001600160a01b0380611b4b612a2a565b1690831603611b5f57906106c79135612650565b608490602085519162461bcd60e51b8352820152602f60248201527f416363657373436f6e74726f6c3a2063616e206f6e6c792072656e6f756e636560448201526e103937b632b9903337b91039b2b63360891b6064820152fd5b50503461024057602036600319011261024057611bd5612190565b9060ff611be0612a2a565b600080516020612ae7833981519152855260fb60209081528386206001600160a01b039283168752905291842054168015611c38575b611c1f90612988565b6101c591166001600160601b0360a01b82541617905580f35b50611c1f816033541682611c4a612a2a565b16149050611c16565b9050346102e957816003193601126102e9573590611c6f6121ab565b82845260fb602052611c866001838620015461228d565b82845260fb60209081528285206001600160a01b0392831680875291528285205490929060ff16156104ee578480f35b9050346102e95760203660031901126102e9578160209360019235815260fb85522001549051908152f35b50503461024057602090816003193601126102e957611cfe612190565b90611d07612a2a565b600080516020612ae7833981519152855260fb84528185206001600160a01b03918216865284528185205490919060ff168015611d7a575b611d4890612988565b600080516020612b278339815191529384865260fb815282828720941693848752815260ff8287205416610da2578580f35b50611d48826033541683611d8c612a2a565b16149050611d3f565b919050346102e95760a03660031901126102e957611db1612190565b611db96121ab565b6001600160a01b0391906044358381169081900361209d57606435918483169485840361166d57608435938185168095036116715789549860ff8a60081c161597888099612090575b8015612079575b1561201f57600160ff198c1681178d559a8961200e575b50611e6260ff8d5460081c16611e35816129ca565b611e3e816129ca565b611e47816129ca565b6097805460ff60a01b19169055611e5d816129ca565b6129ca565b611e72611e6d612a2a565b61272d565b611ea660ff8d5460081c16611e86816129ca565b611e8f816129ca565b611e98816129ca565b8c61012d55611e5d816129ca565b611eae6126ca565b15611fbc57508061033a611ec19261272d565b600080516020612b27833981519152808a5260fb6020528989898220015491600080516020612ae78339815191528093818d8d862001557fbd79b86ffe0ab8e8776151514217cd7cacd52c909f66475c3af44e129f0b00ff92838580a4600080516020612ac783398151915290818352838c8c818187200154952001558c80a46001600160601b0360a01b94816101c39116868254161790556101c49116848254161790556101c590838254161790556101f791825416179055611f83578280f35b825461ff0019168355519081527f7f26b83ff96e1f2b6a682f133852f6798a09c465da95921460cefb384740249890602090a138808280f35b60849060208a519162461bcd60e51b8352820152602660248201527f4f776e61626c653a206e6577206f776e657220697320746865207a65726f206160448201526564647265737360d01b6064820152fd5b61ffff1916610101178c5538611e20565b895162461bcd60e51b8152602081840152602e60248201527f496e697469616c697a61626c653a20636f6e747261637420697320616c72656160448201526d191e481a5b9a5d1a585b1a5e995960921b6064820152608490fd5b50303b158015611e095750600160ff8c1614611e09565b50600160ff8c1610611e02565b8680fd5b9050346102e95760203660031901126102e957359063ffffffff60e01b82168092036102e95760209250637965db0b60e01b82149182156120e6575b50519015158152f35b6301ffc9a760e01b149150386120dd565b50503461024057602036600319011261024057612112612190565b9060ff61211d612a2a565b600080516020612ae7833981519152855260fb60209081528386206001600160a01b039283168752905291842054168015612175575b61215c90612988565b6101c491166001600160601b0360a01b82541617905580f35b5061215c816033541682612187612a2a565b16149050612153565b600435906001600160a01b03821682036121a657565b600080fd5b602435906001600160a01b03821682036121a657565b35906001600160a01b03821682036121a657565b60005b8381106121e85750506000910152565b81810151838201526020016121d8565b90602091612211815180928185528580860191016121d5565b601f01601f1916010190565b6060810190811067ffffffffffffffff82111761223957604052565b634e487b7160e01b600052604160045260246000fd5b90601f8019910116810190811067ffffffffffffffff82111761223957604052565b67ffffffffffffffff811161223957601f01601f191660200190565b612295612a2a565b9060009080825260209160fb83526040938482209060018060a01b031690818352845260ff8583205416156122cb575050505050565b8451926122d78461221d565b602a845284840190863683378451156125a2576030825384519260019384101561258e576078602187015360295b84811161252457506124e2578651926080840184811067ffffffffffffffff8211176124ce578852604284528684019460603687378451156124ba576030865384518210156124ba5790607860218601536041915b81831161244c5750505061240a576124069386936123ea936123db6048946123b29a519a8b957f416363657373436f6e74726f6c3a206163636f756e74200000000000000000008c88015251809260378801906121d5565b8401917001034b99036b4b9b9b4b733903937b6329607d1b6037840152518093868401906121d5565b0103602881018752018561224f565b5192839262461bcd60e51b8452600484015260248301906121f8565b0390fd5b60648587519062461bcd60e51b825280600483015260248201527f537472696e67733a20686578206c656e67746820696e73756666696369656e746044820152fd5b909192600f811660108110156124a6576f181899199a1a9b1b9c1cb0b131b232b360811b901a61247c8588612961565b5360041c9280156124925760001901919061235a565b634e487b7160e01b82526011600452602482fd5b634e487b7160e01b83526032600452602483fd5b634e487b7160e01b81526032600452602490fd5b634e487b7160e01b86526041600452602486fd5b60648688519062461bcd60e51b825280600483015260248201527f537472696e67733a20686578206c656e67746820696e73756666696369656e746044820152fd5b90600f8116601081101561257a576f181899199a1a9b1b9c1cb0b131b232b360811b901a6125528389612961565b5360041c9080156125665760001901612305565b634e487b7160e01b86526011600452602486fd5b634e487b7160e01b87526032600452602487fd5b634e487b7160e01b85526032600452602485fd5b634e487b7160e01b84526032600452602484fd5b6001600160a01b0390811660008181527fc88390e7e62175be0932452175b6a7222b6b094ab0ef984a5153c620345d8975602052604081205490929060ff16156125ff57505050565b82805260fb6020526040832082845260205260408320600160ff19825416179055612628612a2a565b16917f2f8788117e7eff1d82e926ec794901d17c78024a50270940304540a733656f0d8180a4565b600081815260fb602090815260408083206001600160a01b039586168085529252822054919390929160ff16612687575b50505050565b600080516020612b078339815191529082855260fb602052604085208486526020526040852060ff1981541690556126bd612a2a565b169380a438808080612681565b6033546001600160a01b03908116906126e1612a2a565b16036126e957565b606460405162461bcd60e51b815260206004820152602060248201527f4f776e61626c653a2063616c6c6572206973206e6f7420746865206f776e65726044820152fd5b603380546001600160a01b039283166001600160a01b0319821681179092559091167f8be0079c531659141344cd1fd0a4f28419497f9722a3daafe3b4186f6b6457e0600080a3565b1561277d57565b60405162461bcd60e51b815260206004820152602c60248201527f46756e6374696f6e206d7573742062652063616c6c6564207468726f7567682060448201526b19195b1959d85d1958d85b1b60a21b6064820152608490fd5b156127de57565b60405162461bcd60e51b815260206004820152602c60248201527f46756e6374696f6e206d7573742062652063616c6c6564207468726f7567682060448201526b6163746976652070726f787960a01b6064820152608490fd5b803b1561286d57600080516020612aa783398151915280546001600160a01b0319166001600160a01b03909216919091179055565b60405162461bcd60e51b815260206004820152602d60248201527f455243313936373a206e657720696d706c656d656e746174696f6e206973206e60448201526c1bdd08184818dbdb9d1c9858dd609a1b6064820152608490fd5b9192901561292a57508151156128dc575090565b3b156128e55790565b60405162461bcd60e51b815260206004820152601d60248201527f416464726573733a2063616c6c20746f206e6f6e2d636f6e74726163740000006044820152606490fd5b82519091501561293d5750805190602001fd5b60405162461bcd60e51b8152602060048201529081906124069060248301906121f8565b908151811015612972570160200190565b634e487b7160e01b600052603260045260246000fd5b1561298f57565b60405162461bcd60e51b8152602060048201526013602482015272556e617574686f72697a65642041636365737360681b6044820152606490fd5b156129d157565b60405162461bcd60e51b815260206004820152602b60248201527f496e697469616c697a61626c653a20636f6e7472616374206973206e6f74206960448201526a6e697469616c697a696e6760a81b6064820152608490fd5b6097546001600160a01b031633148080612a7b575b15612a51575036601319013560601c90565b60143610159081612a73575b5015612a6f5736601319013560601c90565b3390565b905038612a5d565b506014361015612a3f56fe189ab7a9244df0848122154315af71fe140f3db0fe014031783b0946b8c9d2e3360894a13ba1a3210667c828492db98dca3e2076cc3735a920a3ca505d382bbc65d7a28e3265b37a6474929f336521b332c1681b933f6cb9f3376673440d862a7613a25ecc738585a232ad50a301178f12b3ba8887d13e138b523c4269c47689f6391f5c32d9c69d2a47ea670b442974b53935d1edc7fd64eb21e047a839171ba49807205ce4d355092ef5a8a18f56e8913cf4a201fbe287825b095693c21775a26469706673582212209a48139f1d439f0aa88d41730e22013127dbb98bc8a497f37f7628ad3d6cdd8064736f6c63430008110033",
  "linkReferences": {},
  "deployedLinkReferences": {}
}