{
  "_format": "hh-sol-artifact-1",
  "contractName": "CrossSyncGateway",
  "sourceName": "contracts/CrossSyncGateway.sol",
  "abi": [
    {
      "inputs": [],
      "stateMutability": "nonpayable",
      "type": "constructor"
    },
    {
      "anonymous": false,
      "inputs": [
        {
          "indexed": false,
          "internalType": "address",
          "name": "previousAdmin",
          "type": "address"
        },
        {
          "indexed": false,
          "internalType": "address",
          "name": "newAdmin",
          "type": "address"
        }
      ],
      "name": "AdminChanged",
      "type": "event"
    },
    {
      "anonymous": false,
      "inputs": [
        {
          "indexed": true,
          "internalType": "address",
          "name": "beacon",
          "type": "address"
        }
      ],
      "name": "BeaconUpgraded",
      "type": "event"
    },
    {
      "anonymous": false,
      "inputs": [],
      "name": "EIP712DomainChanged",
      "type": "event"
    },
    {
      "anonymous": false,
      "inputs": [
        {
          "indexed": false,
          "internalType": "uint8",
          "name": "version",
          "type": "uint8"
        }
      ],
      "name": "Initialized",
      "type": "event"
    },
    {
      "anonymous": false,
      "inputs": [
        {
          "indexed": true,
          "internalType": "address",
          "name": "previousOwner",
          "type": "address"
        },
        {
          "indexed": true,
          "internalType": "address",
          "name": "newOwner",
          "type": "address"
        }
      ],
      "name": "OwnershipTransferred",
      "type": "event"
    },
    {
      "anonymous": false,
      "inputs": [
        {
          "indexed": false,
          "internalType": "address",
          "name": "account",
          "type": "address"
        }
      ],
      "name": "Paused",
      "type": "event"
    },
    {
      "anonymous": false,
      "inputs": [
        {
          "indexed": true,
          "internalType": "bytes32",
          "name": "role",
          "type": "bytes32"
        },
        {
          "indexed": true,
          "internalType": "bytes32",
          "name": "previousAdminRole",
          "type": "bytes32"
        },
        {
          "indexed": true,
          "internalType": "bytes32",
          "name": "newAdminRole",
          "type": "bytes32"
        }
      ],
      "name": "RoleAdminChanged",
      "type": "event"
    },
    {
      "anonymous": false,
      "inputs": [
        {
          "indexed": true,
          "internalType": "bytes32",
          "name": "role",
          "type": "bytes32"
        },
        {
          "indexed": true,
          "internalType": "address",
          "name": "account",
          "type": "address"
        },
        {
          "indexed": true,
          "internalType": "address",
          "name": "sender",
          "type": "address"
        }
      ],
      "name": "RoleGranted",
      "type": "event"
    },
    {
      "anonymous": false,
      "inputs": [
        {
          "indexed": true,
          "internalType": "bytes32",
          "name": "role",
          "type": "bytes32"
        },
        {
          "indexed": true,
          "internalType": "address",
          "name": "account",
          "type": "address"
        },
        {
          "indexed": true,
          "internalType": "address",
          "name": "sender",
          "type": "address"
        }
      ],
      "name": "RoleRevoked",
      "type": "event"
    },
    {
      "anonymous": false,
      "inputs": [
        {
          "indexed": false,
          "internalType": "address",
          "name": "account",
          "type": "address"
        }
      ],
      "name": "Unpaused",
      "type": "event"
    },
    {
      "anonymous": false,
      "inputs": [
        {
          "indexed": true,
          "internalType": "address",
          "name": "implementation",
          "type": "address"
        }
      ],
      "name": "Upgraded",
      "type": "event"
    },
    {
      "inputs": [],
      "name": "ADMIN_ROLE",
      "outputs": [
        {
          "internalType": "bytes32",
          "name": "",
          "type": "bytes32"
        }
      ],
      "stateMutability": "view",
      "type": "function"
    },
    {
      "inputs": [],
      "name": "DEFAULT_ADMIN_ROLE",
      "outputs": [
        {
          "internalType": "bytes32",
          "name": "",
          "type": "bytes32"
        }
      ],
      "stateMutability": "view",
      "type": "function"
    },
    {
      "inputs": [],
      "name": "PAUSER_ROLE",
      "outputs": [
        {
          "internalType": "bytes32",
          "name": "",
          "type": "bytes32"
        }
      ],
      "stateMutability": "view",
      "type": "function"
    },
    {
      "inputs": [],
      "name": "SUPER_ADMIN_ROLE",
      "outputs": [
        {
          "internalType": "bytes32",
          "name": "",
          "type": "bytes32"
        }
      ],
      "stateMutability": "view",
      "type": "function"
    },
    {
      "inputs": [],
      "name": "UPGRADER_ROLE",
      "outputs": [
        {
          "internalType": "bytes32",
          "name": "",
          "type": "bytes32"
        }
      ],
      "stateMutability": "view",
      "type": "function"
    },
    {
      "inputs": [
        {
          "internalType": "address",
          "name": "_admin",
          "type": "address"
        }
      ],
      "name": "addAdmin",
      "outputs": [],
      "stateMutability": "nonpayable",
      "type": "function"
    },
    {
      "inputs": [
        {
          "internalType": "address",
          "name": "account",
          "type": "address"
        }
      ],
      "name": "addPauser",
      "outputs": [],
      "stateMutability": "nonpayable",
      "type": "function"
    },
    {
      "inputs": [
        {
          "internalType": "uint256",
          "name": "_routeId",
          "type": "uint256"
        },
        {
          "internalType": "address",
          "name": "_routeAddress",
          "type": "address"
        },
        {
          "internalType": "string",
          "name": "_routeName",
          "type": "string"
        }
      ],
      "name": "addRoute",
      "outputs": [],
      "stateMutability": "nonpayable",
      "type": "function"
    },
    {
      "inputs": [
        {
          "internalType": "address",
          "name": "_superAdmin",
          "type": "address"
        }
      ],
      "name": "addSuperAdmin",
      "outputs": [],
      "stateMutability": "nonpayable",
      "type": "function"
    },
    {
      "inputs": [
        {
          "internalType": "address",
          "name": "_upgrader",
          "type": "address"
        }
      ],
      "name": "addUpgrader",
      "outputs": [],
      "stateMutability": "nonpayable",
      "type": "function"
    },
    {
      "inputs": [
        {
          "components": [
            {
              "internalType": "bytes32",
              "name": "messageId",
              "type": "bytes32"
            },
            {
              "internalType": "uint64",
              "name": "sourceChainSelector",
              "type": "uint64"
            },
            {
              "internalType": "bytes",
              "name": "sender",
              "type": "bytes"
            },
            {
              "internalType": "bytes",
              "name": "data",
              "type": "bytes"
            },
            {
              "components": [
                {
                  "internalType": "address",
                  "name": "token",
                  "type": "address"
                },
                {
                  "internalType": "uint256",
                  "name": "amount",
                  "type": "uint256"
                }
              ],
              "internalType": "struct Client.EVMTokenAmount[]",
              "name": "destTokenAmounts",
              "type": "tuple[]"
            }
          ],
          "internalType": "struct Client.Any2EVMMessage",
          "name": "message",
          "type": "tuple"
        }
      ],
      "name": "ccipReceive",
      "outputs": [],
      "stateMutability": "nonpayable",
      "type": "function"
    },
    {
      "inputs": [
        {
          "internalType": "uint256",
          "name": "",
          "type": "uint256"
        }
      ],
      "name": "destChainGatewayAddress",
      "outputs": [
        {
          "internalType": "address",
          "name": "",
          "type": "address"
        }
      ],
      "stateMutability": "view",
      "type": "function"
    },
    {
      "inputs": [],
      "name": "eip712Domain",
      "outputs": [
        {
          "internalType": "bytes1",
          "name": "fields",
          "type": "bytes1"
        },
        {
          "internalType": "string",
          "name": "name",
          "type": "string"
        },
        {
          "internalType": "string",
          "name": "version",
          "type": "string"
        },
        {
          "internalType": "uint256",
          "name": "chainId",
          "type": "uint256"
        },
        {
          "internalType": "address",
          "name": "verifyingContract",
          "type": "address"
        },
        {
          "internalType": "bytes32",
          "name": "salt",
          "type": "bytes32"
        },
        {
          "internalType": "uint256[]",
          "name": "extensions",
          "type": "uint256[]"
        }
      ],
      "stateMutability": "view",
      "type": "function"
    },
    {
      "inputs": [
        {
          "internalType": "bytes32",
          "name": "commandId",
          "type": "bytes32"
        },
        {
          "internalType": "string",
          "name": "sourceChain",
          "type": "string"
        },
        {
          "internalType": "string",
          "name": "sourceAddress",
          "type": "string"
        },
        {
          "internalType": "bytes",
          "name": "payload",
          "type": "bytes"
        }
      ],
      "name": "execute",
      "outputs": [],
      "stateMutability": "nonpayable",
      "type": "function"
    },
    {
      "inputs": [],
      "name": "getNativeCurrencyAddress",
      "outputs": [
        {
          "internalType": "address",
          "name": "",
          "type": "address"
        }
      ],
      "stateMutability": "view",
      "type": "function"
    },
    {
      "inputs": [],
      "name": "getNativeWrappedCurrencyAddress",
      "outputs": [
        {
          "internalType": "address",
          "name": "",
          "type": "address"
        }
      ],
      "stateMutability": "view",
      "type": "function"
    },
    {
      "inputs": [
        {
          "internalType": "bytes32",
          "name": "role",
          "type": "bytes32"
        }
      ],
      "name": "getRoleAdmin",
      "outputs": [
        {
          "internalType": "bytes32",
          "name": "",
          "type": "bytes32"
        }
      ],
      "stateMutability": "view",
      "type": "function"
    },
    {
      "inputs": [
        {
          "internalType": "uint256",
          "name": "_routeId",
          "type": "uint256"
        }
      ],
      "name": "getRoute",
      "outputs": [
        {
          "internalType": "address",
          "name": "",
          "type": "address"
        },
        {
          "internalType": "bool",
          "name": "",
          "type": "bool"
        },
        {
          "internalType": "string",
          "name": "",
          "type": "string"
        }
      ],
      "stateMutability": "view",
      "type": "function"
    },
    {
      "inputs": [
        {
          "internalType": "uint256",
          "name": "_routeId",
          "type": "uint256"
        }
      ],
      "name": "getRouteAddress",
      "outputs": [
        {
          "internalType": "address",
          "name": "",
          "type": "address"
        }
      ],
      "stateMutability": "view",
      "type": "function"
    },
    {
      "inputs": [
        {
          "internalType": "uint256",
          "name": "_routeId",
          "type": "uint256"
        }
      ],
      "name": "getRouteName",
      "outputs": [
        {
          "internalType": "string",
          "name": "",
          "type": "string"
        }
      ],
      "stateMutability": "view",
      "type": "function"
    },
    {
      "inputs": [
        {
          "internalType": "uint256",
          "name": "_routeId",
          "type": "uint256"
        }
      ],
      "name": "getRouteValidity",
      "outputs": [
        {
          "internalType": "bool",
          "name": "",
          "type": "bool"
        }
      ],
      "stateMutability": "view",
      "type": "function"
    },
    {
      "inputs": [],
      "name": "getTrustedForwarder",
      "outputs": [
        {
          "internalType": "address",
          "name": "forwarder",
          "type": "address"
        }
      ],
      "stateMutability": "view",
      "type": "function"
    },
    {
      "inputs": [
        {
          "internalType": "bytes32",
          "name": "role",
          "type": "bytes32"
        },
        {
          "internalType": "address",
          "name": "account",
          "type": "address"
        }
      ],
      "name": "grantRole",
      "outputs": [],
      "stateMutability": "nonpayable",
      "type": "function"
    },
    {
      "inputs": [
        {
          "internalType": "uint32",
          "name": "_origin",
          "type": "uint32"
        },
        {
          "internalType": "bytes32",
          "name": "_sender",
          "type": "bytes32"
        },
        {
          "internalType": "bytes",
          "name": "_body",
          "type": "bytes"
        }
      ],
      "name": "handle",
      "outputs": [],
      "stateMutability": "nonpayable",
      "type": "function"
    },
    {
      "inputs": [
        {
          "internalType": "bytes32",
          "name": "role",
          "type": "bytes32"
        },
        {
          "internalType": "address",
          "name": "account",
          "type": "address"
        }
      ],
      "name": "hasRole",
      "outputs": [
        {
          "internalType": "bool",
          "name": "",
          "type": "bool"
        }
      ],
      "stateMutability": "view",
      "type": "function"
    },
    {
      "inputs": [
        {
          "internalType": "string",
          "name": "_name",
          "type": "string"
        },
        {
          "internalType": "string",
          "name": "_version",
          "type": "string"
        },
        {
          "internalType": "address",
          "name": "_nativeCurrencyWrappedAddress",
          "type": "address"
        },
        {
          "internalType": "address",
          "name": "_nativeCurrencyAddress",
          "type": "address"
        },
        {
          "internalType": "address",
          "name": "_owner",
          "type": "address"
        }
      ],
      "name": "initialize",
      "outputs": [],
      "stateMutability": "nonpayable",
      "type": "function"
    },
    {
      "inputs": [
        {
          "internalType": "address",
          "name": "forwarder",
          "type": "address"
        }
      ],
      "name": "isTrustedForwarder",
      "outputs": [
        {
          "internalType": "bool",
          "name": "",
          "type": "bool"
        }
      ],
      "stateMutability": "view",
      "type": "function"
    },
    {
      "inputs": [],
      "name": "nativeCurrencyAddress",
      "outputs": [
        {
          "internalType": "address",
          "name": "",
          "type": "address"
        }
      ],
      "stateMutability": "view",
      "type": "function"
    },
    {
      "inputs": [],
      "name": "nativeCurrencyWrappedAddress",
      "outputs": [
        {
          "internalType": "address",
          "name": "",
          "type": "address"
        }
      ],
      "stateMutability": "view",
      "type": "function"
    },
    {
      "inputs": [],
      "name": "owner",
      "outputs": [
        {
          "internalType": "address",
          "name": "",
          "type": "address"
        }
      ],
      "stateMutability": "view",
      "type": "function"
    },
    {
      "inputs": [],
      "name": "pause",
      "outputs": [],
      "stateMutability": "nonpayable",
      "type": "function"
    },
    {
      "inputs": [],
      "name": "paused",
      "outputs": [
        {
          "internalType": "bool",
          "name": "",
          "type": "bool"
        }
      ],
      "stateMutability": "view",
      "type": "function"
    },
    {
      "inputs": [],
      "name": "proxiableUUID",
      "outputs": [
        {
          "internalType": "bytes32",
          "name": "",
          "type": "bytes32"
        }
      ],
      "stateMutability": "view",
      "type": "function"
    },
    {
      "inputs": [
        {
          "internalType": "bytes",
          "name": "payload",
          "type": "bytes"
        },
        {
          "internalType": "bytes[]",
          "name": "additionalVaas",
          "type": "bytes[]"
        },
        {
          "internalType": "bytes32",
          "name": "sourceAddress",
          "type": "bytes32"
        },
        {
          "internalType": "uint16",
          "name": "sourceChain",
          "type": "uint16"
        },
        {
          "internalType": "bytes32",
          "name": "deliveryHash",
          "type": "bytes32"
        }
      ],
      "name": "receiveWormholeMessages",
      "outputs": [],
      "stateMutability": "payable",
      "type": "function"
    },
    {
      "inputs": [
        {
          "internalType": "address",
          "name": "_admin",
          "type": "address"
        }
      ],
      "name": "removeAdmin",
      "outputs": [],
      "stateMutability": "nonpayable",
      "type": "function"
    },
    {
      "inputs": [
        {
          "internalType": "address",
          "name": "_pauser",
          "type": "address"
        }
      ],
      "name": "removePauser",
      "outputs": [],
      "stateMutability": "nonpayable",
      "type": "function"
    },
    {
      "inputs": [
        {
          "internalType": "uint256",
          "name": "_routeId",
          "type": "uint256"
        }
      ],
      "name": "removeRoute",
      "outputs": [],
      "stateMutability": "nonpayable",
      "type": "function"
    },
    {
      "inputs": [
        {
          "internalType": "address",
          "name": "_superAdmin",
          "type": "address"
        }
      ],
      "name": "removeSuperAdmin",
      "outputs": [],
      "stateMutability": "nonpayable",
      "type": "function"
    },
    {
      "inputs": [
        {
          "internalType": "address",
          "name": "_upgrader",
          "type": "address"
        }
      ],
      "name": "removeUpgrader",
      "outputs": [],
      "stateMutability": "nonpayable",
      "type": "function"
    },
    {
      "inputs": [],
      "name": "renounceOwnership",
      "outputs": [],
      "stateMutability": "nonpayable",
      "type": "function"
    },
    {
      "inputs": [
        {
          "internalType": "bytes32",
          "name": "role",
          "type": "bytes32"
        },
        {
          "internalType": "address",
          "name": "account",
          "type": "address"
        }
      ],
      "name": "renounceRole",
      "outputs": [],
      "stateMutability": "nonpayable",
      "type": "function"
    },
    {
      "inputs": [
        {
          "internalType": "bytes32",
          "name": "role",
          "type": "bytes32"
        },
        {
          "internalType": "address",
          "name": "account",
          "type": "address"
        }
      ],
      "name": "revokeRole",
      "outputs": [],
      "stateMutability": "nonpayable",
      "type": "function"
    },
    {
      "inputs": [
        {
          "internalType": "uint256",
          "name": "_destinationChainId",
          "type": "uint256"
        },
        {
          "internalType": "uint256",
          "name": "_routeId",
          "type": "uint256"
        },
        {
          "components": [
            {
              "internalType": "address",
              "name": "to",
              "type": "address"
            },
            {
              "internalType": "bytes",
              "name": "data",
              "type": "bytes"
            }
          ],
          "internalType": "struct ICrossSyncGateway.MessagingPayload",
          "name": "_payload",
          "type": "tuple"
        },
        {
          "internalType": "bytes",
          "name": "_routeData",
          "type": "bytes"
        }
      ],
      "name": "sendMessage",
      "outputs": [],
      "stateMutability": "payable",
      "type": "function"
    },
    {
      "inputs": [
        {
          "internalType": "uint256",
          "name": "chainId",
          "type": "uint256"
        },
        {
          "internalType": "address",
          "name": "crossSyncGatewayAddress",
          "type": "address"
        }
      ],
      "name": "setDestChainGatewayAddress",
      "outputs": [],
      "stateMutability": "nonpayable",
      "type": "function"
    },
    {
      "inputs": [
        {
          "internalType": "address",
          "name": "_nativeCurrencyAddress",
          "type": "address"
        }
      ],
      "name": "setNativeCurrencyAddress",
      "outputs": [],
      "stateMutability": "nonpayable",
      "type": "function"
    },
    {
      "inputs": [
        {
          "internalType": "address",
          "name": "_nativeCurrencyWrappedAddress",
          "type": "address"
        }
      ],
      "name": "setNativeWrappedCurrencyAddress",
      "outputs": [],
      "stateMutability": "nonpayable",
      "type": "function"
    },
    {
      "inputs": [
        {
          "internalType": "uint256",
          "name": "_routeId",
          "type": "uint256"
        },
        {
          "internalType": "address",
          "name": "_routeAddress",
          "type": "address"
        }
      ],
      "name": "setRouteAddress",
      "outputs": [],
      "stateMutability": "nonpayable",
      "type": "function"
    },
    {
      "inputs": [
        {
          "internalType": "uint256",
          "name": "_routeId",
          "type": "uint256"
        },
        {
          "internalType": "string",
          "name": "_routeName",
          "type": "string"
        }
      ],
      "name": "setRouteName",
      "outputs": [],
      "stateMutability": "nonpayable",
      "type": "function"
    },
    {
      "inputs": [
        {
          "internalType": "uint256",
          "name": "_routeId",
          "type": "uint256"
        },
        {
          "internalType": "bool",
          "name": "_isValid",
          "type": "bool"
        }
      ],
      "name": "setRouteValidity",
      "outputs": [],
      "stateMutability": "nonpayable",
      "type": "function"
    },
    {
      "inputs": [
        {
          "internalType": "address",
          "name": "_newtrustedForwarder",
          "type": "address"
        }
      ],
      "name": "setTrustedForwarder",
      "outputs": [],
      "stateMutability": "nonpayable",
      "type": "function"
    },
    {
      "inputs": [
        {
          "internalType": "bytes4",
          "name": "interfaceId",
          "type": "bytes4"
        }
      ],
      "name": "supportsInterface",
      "outputs": [
        {
          "internalType": "bool",
          "name": "",
          "type": "bool"
        }
      ],
      "stateMutability": "view",
      "type": "function"
    },
    {
      "inputs": [
        {
          "internalType": "address",
          "name": "newOwner",
          "type": "address"
        }
      ],
      "name": "transferOwnership",
      "outputs": [],
      "stateMutability": "nonpayable",
      "type": "function"
    },
    {
      "inputs": [],
      "name": "unpause",
      "outputs": [],
      "stateMutability": "nonpayable",
      "type": "function"
    },
    {
      "inputs": [
        {
          "internalType": "address",
          "name": "newImplementation",
          "type": "address"
        }
      ],
      "name": "upgradeTo",
      "outputs": [],
      "stateMutability": "nonpayable",
      "type": "function"
    },
    {
      "inputs": [
        {
          "internalType": "address",
          "name": "newImplementation",
          "type": "address"
        },
        {
          "internalType": "bytes",
          "name": "data",
          "type": "bytes"
        }
      ],
      "name": "upgradeToAndCall",
      "outputs": [],
      "stateMutability": "payable",
      "type": "function"
    },
    {
      "inputs": [
        {
          "internalType": "address",
          "name": "",
          "type": "address"
        }
      ],
      "name": "userNonce",
      "outputs": [
        {
          "internalType": "uint256",
          "name": "",
          "type": "uint256"
        }
      ],
      "stateMutability": "view",
      "type": "function"
    },
    {
      "inputs": [
        {
          "internalType": "bytes32",
          "name": "_transferId",
          "type": "bytes32"
        },
        {
          "internalType": "uint256",
          "name": "_amount",
          "type": "uint256"
        },
        {
          "internalType": "address",
          "name": "_asset",
          "type": "address"
        },
        {
          "internalType": "address",
          "name": "_originSender",
          "type": "address"
        },
        {
          "internalType": "uint32",
          "name": "_origin",
          "type": "uint32"
        },
        {
          "internalType": "bytes",
          "name": "_callData",
          "type": "bytes"
        }
      ],
      "name": "xReceive",
      "outputs": [
        {
          "internalType": "bytes",
          "name": "",
          "type": "bytes"
        }
      ],
      "stateMutability": "nonpayable",
      "type": "function"
    },
    {
      "stateMutability": "payable",
      "type": "receive"
    }
  ],
  "bytecode": "0x60a08060405234620000e157306080526000549060ff8260081c166200008f575060ff8082160362000053575b604051613f979081620000e78239608051818181611dc001528181611f8a01526124b80152f35b60ff90811916176000557f7f26b83ff96e1f2b6a682f133852f6798a09c465da95921460cefb3847402498602060405160ff8152a1386200002c565b62461bcd60e51b815260206004820152602760248201527f496e697469616c697a61626c653a20636f6e747261637420697320696e697469604482015266616c697a696e6760c81b6064820152608490fd5b600080fdfe6080604052600436101561001b575b361561001957600080fd5b005b60003560e01c80624c759114612e005780625e8eef14612d3b57806301ffc9a714612ce557806309b7d79114612c1a5780631785f53c14612b65578063196c881e14612b30578063248a9ca314612b015780632b33cc87146129465780632e04b8e71461290b5780632f2ff15d146128a457806332495ce11461281657806336568abe1461277a5780633659cfe61461249357806336d8261a1461120b57806338073f0c146113c95780633f4ba83a1461234d5780634460bdd6146123245780634902e4aa146122c2578063491606581461225a5780634f1ef28614611f4c578063529dca3214611e7157806352d1902d14611dad57806356d5d47514611d6b57806356e3008b14611c7c578063572b6c0514611c4757806359b52ca414611c125780635c975abb14611bec5780636050cafe14611b5e5780636b2c0f5514611a8157806370480275146119cb578063715018a61461196e57806375b238fc146119455780637faf251c1461191057806382dc1ec41461182f5780638456cb59146116de57806384b0196e1461145957806385572ffb146113f35780638898009d146113c95780638da5cb5b146113a057806391d148541461135357806398c33904146112b4578063a217fddf14611298578063b3292ff014611235578063bd826ed71461120b578063ce1b815f146111e2578063d10a0da31461119e578063d264a803146110d7578063d547741f14611098578063da74222814611006578063db0ed6a014610a05578063e51101581461093a578063e63ab1e914610911578063ef4039dc14610563578063f2fde38b146103d5578063f72c0d8b146103ac578063fa66358a1461033d5763fd614f410361000e57346103385760c0366003190112610338576102aa613066565b506102b361307c565b5060843563ffffffff8116036103385760a4356001600160401b038111610338576102e56102eb913690600401613152565b90613c00565b60405160208082528160605191828183015260005b8381106103225750508160006040809484010152601f80199101168101030190f35b6080810151858201604001528492508101610300565b600080fd5b34610338576020366003190112610338576004356000526101f960205260018060a01b036040600020541660ff60406000205460a01c16906103a86103886001604060002001613963565b6040519384938452151560208401526060604084015260608301906131a2565b0390f35b34610338576000366003190112610338576020604051600080516020613ea28339815191528152f35b3461033857602080600319360112610338576103ef613050565b6103f761366b565b6103ff61366b565b6001600160a01b03908082161561050f578061041d610422926136ce565b613545565b61042a613ba4565b918180610435613ba4565b1693169283036104b3576000805260fb8152604060002083600052815260ff6040600020541661046157005b6000805260fb81526040600020908360005252604060002060ff198154169055610489613ba4565b169060007ff6391f5c32d9c69d2a47ea670b442974b53935d1edc7fd64eb21e047a839171b8180a4005b6084906040519062461bcd60e51b82526004820152602f60248201527f416363657373436f6e74726f6c3a2063616e206f6e6c792072656e6f756e636560448201526e103937b632b9903337b91039b2b63360891b6064820152fd5b60405162461bcd60e51b815260048101849052602660248201527f4f776e61626c653a206e6577206f776e657220697320746865207a65726f206160448201526564647265737360d01b6064820152608490fd5b6080366003190112610338576044356001600160401b0381116103385761058e9036906004016131c7565b6064356001600160401b038111610338576105ad903690600401613152565b50506024356000526101f96020526105cf60ff60406000205460a01c16613b03565b80516105e5906001600160a01b03161515613ac2565b6105f3466004351415613b46565b6004356000526101fa908160205260018060a01b0360406000205416156108b757341561085d57610622613ba4565b916001600160a01b03610633613ba4565b166000526101fb6020526040600020549060043560005260205260018060a01b03604060002054169060405193846101008101106001600160401b036101008701111761084757610100850160405260018060a01b031684526020840152602435604084015246606084015260043560808401523060a084015260c083015260e082015260018060a01b036106c6613ba4565b166000526101fb602052604060002080546001810181116108315760010190556024803560009081526101f9602090815260408083205481516346961bff60e01b81526004810184905286516001600160a01b039081169682019690965283870151604482015282870151606482015260608701516084820152608087015160a482015260a0870151861660c482015260c0870151861660e482015260e090960151610100610104880152805186166101248801529092015161014486019190915291928492911690829081906107a2906101648301906131a2565b039134905af18015610825576107b457005b3d806000833e6107c481836130c1565b810190602081830312610338578051906001600160401b038211610338570181601f82011215610338578051906107fa826130e2565b9261080860405194856130c1565b82845260208383010111610338576020806100199401910161317f565b6040513d6000823e3d90fd5b634e487b7160e01b600052601160045260246000fd5b634e487b7160e01b600052604160045260246000fd5b60405162461bcd60e51b815260206004820152602c60248201527f496e73756666696369656e742052656c61796572286d73672e76616c7565292060448201526b11995948141c9bdd9a59195960a21b6064820152608490fd5b60405162461bcd60e51b815260206004820152602c60248201527f44657374696e6174696f6e20436861696e20476174657761792041646472657360448201526b1cc81a5cc81b9bdd081cd95d60a21b6064820152608490fd5b34610338576000366003190112610338576020604051600080516020613f028339815191528152f35b3461033857602036600319011261033857610953613050565b61095b61366b565b6001600160a01b0390811660008181527f775ac87777436f29b0cd5453bf5db4da15d8938d0ef70de831d2edd17651cf676020526040902054600080516020613ea2833981519152929060ff16156109af57005b8260005260fb6020526040600020826000526020526040600020600160ff198254161790556109dc613ba4565b16917f2f8788117e7eff1d82e926ec794901d17c78024a50270940304540a733656f0d600080a4005b346103385760a0366003190112610338576004356001600160401b03811161033857610a35903690600401613152565b906024356001600160401b03811161033857610a55903690600401613152565b610a60929192613066565b90610a6961307c565b926084356001600160a01b0381169003610338576000549060ff8260081c161595868097610ff9575b8015610fe2575b15610f8657610b36610b3e92610b489489600160ff19831617600055610f74575b50610af460ff60005460081c16610ad081613a09565b610ad981613a09565b6097805460ff60a01b19169055610aef81613a09565b613a09565b610b04610aff613ba4565b6136ce565b60ff60005460081c1699610b178b613a09565b610b208b613a09565b610b298b613a09565b600161012d5536916130fd565b9336916130fd565b95610aef81613a09565b80516001600160401b0381116108475780610b6561016154613929565b92601f93848111610f26575b50602090848311600114610e9a57600092610e8f575b50508160011b916000199060031b1c191617610161555b8451906001600160401b03821161084757610bbb61016254613929565b818111610e37575b506020908211600114610dae578192939495600092610da3575b50508160011b916000199060031b1c191617610162555b600061015f55600061016055610c1160ff60005460081c16613a09565b610c1961366b565b6084356001600160a01b031615610d4f57610c356084356136ce565b610c40608435613545565b600080516020613f42833981519152600081815260fb6020527f339ab3ab2ddf8c30d545344e713975ca6ce592a0d5bc1375bb6cfaa6563006f18054600080516020613f228339815191529182905590927fbd79b86ffe0ab8e8776151514217cd7cacd52c909f66475c3af44e129f0b00ff9284929190849080a4600080516020613f02833981519152600081815260408120600101805490859055929080a46101f780546001600160a01b039283166001600160a01b0319918216179091556101f88054939092169216919091179055610d1757005b61ff0019600054166000557f7f26b83ff96e1f2b6a682f133852f6798a09c465da95921460cefb3847402498602060405160018152a1005b60405162461bcd60e51b815260206004820152602660248201527f4f776e61626c653a206e6577206f776e657220697320746865207a65726f206160448201526564647265737360d01b6064820152608490fd5b015190508580610bdd565b6101626000527f29af0939a5988989bfee913a9ad10b9335cb63ebc9fd2b69e5f877d0455ac9199060005b601f1984168110610e1f575060019394959683601f19811610610e06575b505050811b0161016255610bf4565b015160001960f88460031b161c19169055858080610df7565b9091602060018192858b015181550193019101610dd9565b610e80906101626000527f29af0939a5988989bfee913a9ad10b9335cb63ebc9fd2b69e5f877d0455ac9198380860160051c82019260208710610e86575b0160051c0190613a69565b86610bc3565b92508192610e75565b015190508780610b87565b92506101616000527fafbb1c043347995df017ce3291b765e028ad5f784d2aa00c3f5e073760a4de8b906000935b601f1984168510610f0b576001945083601f19811610610ef2575b505050811b0161016155610b9e565b015160001960f88460031b161c19169055878080610ee3565b81810151835560209485019460019093019290910190610ec8565b610f6e906101616000527fafbb1c043347995df017ce3291b765e028ad5f784d2aa00c3f5e073760a4de8b8680860160051c82019260208710610e86570160051c0190613a69565b88610b71565b61ffff1916610101176000558a610aba565b60405162461bcd60e51b815260206004820152602e60248201527f496e697469616c697a61626c653a20636f6e747261637420697320616c72656160448201526d191e481a5b9a5d1a585b1a5e995960921b6064820152608490fd5b50303b158015610a995750600160ff841614610a99565b50600160ff841610610a92565b346103385760203660031901126103385761101f613050565b611027613ba4565b6001600160a01b039081166000908152600080516020613ec2833981519152602052604090205490919060ff16801561107d575b61106490613a80565b166001600160601b0360a01b6097541617609755600080f35b5061106482603354168361108f613ba4565b1614905061105b565b34610338576040366003190112610338576100196004356110b761303a565b908060005260fb6020526110d260016040600020015461321d565b6135df565b34610338576020366003190112610338576110f0613050565b6110f861366b565b6001600160a01b0390811660008181527f775ac87777436f29b0cd5453bf5db4da15d8938d0ef70de831d2edd17651cf676020526040902054600080516020613ea2833981519152929060ff1661114b57005b8260005260fb602052604060002082600052602052604060002060ff198154169055611175613ba4565b16917ff6391f5c32d9c69d2a47ea670b442974b53935d1edc7fd64eb21e047a839171b600080a4005b34610338576020366003190112610338576004356000526101f96020526103a86111ce6001604060002001613963565b6040519182916020835260208301906131a2565b34610338576000366003190112610338576097546040516001600160a01b039091168152602090f35b34610338576000366003190112610338576101f7546040516001600160a01b039091168152602090f35b346103385760203660031901126103385761124e613050565b61125661366b565b6001600160a01b039081166000818152600080516020613ec28339815191526020526040902054600080516020613f22833981519152929060ff16156109af57005b3461033857600036600319011261033857602060405160008152f35b34610338576040366003190112610338576112cd61303a565b6112d5613ba4565b6001600160a01b039081166000908152600080516020613ec2833981519152602052604090205460ff168015611338575b61130f90613a80565b6004356000526101fa602052604060002091166001600160601b0360a01b825416179055600080f35b5061130f81603354168261134a613ba4565b16149050611306565b346103385760403660031901126103385761136c61303a565b60043560005260fb60205260406000209060018060a01b0316600052602052602060ff604060002054166040519015158152f35b34610338576000366003190112610338576033546040516001600160a01b039091168152602090f35b34610338576000366003190112610338576101f8546040516001600160a01b039091168152602090f35b3461033857600319602036820112610338576001600160401b03906004358281116103385760a081360392830112610338576064810135916022190182121561033857016004810135918211610338576024019080360382136103385761001991613c00565b346103385760003660031901126103385761015f5415806116d3575b15611696576040516000906101618181549361149085613929565b9283835260019586811690816000146116745750600114611614575b506114b9925003826130c1565b604051600081610162918254926114cf84613929565b808452938781169081156115f25750600114611592575b506114f3925003826130c1565b6040516020808201928284106001600160401b03851117610847579084928161154b8894876040526000845261153d60405197600f60f81b895260e0858a015260e08901906131a2565b9087820360408901526131a2565b91466060870152306080870152600060a087015285830360c0870152519182815201949160005b82811061157f5785870386f35b8351875295810195928101928401611572565b600090815291929050857f29af0939a5988989bfee913a9ad10b9335cb63ebc9fd2b69e5f877d0455ac9195b8284106115d8575050509060206114f392820101866114e6565b6020929450805483858801015201910190918584936115be565b9050602092506114f394915060ff191682840152151560051b820101866114e6565b600090815291929050847fafbb1c043347995df017ce3291b765e028ad5f784d2aa00c3f5e073760a4de8b5b82841061165a575050509060206114b992820101856114ac565b602092945080548385880101520191019091848493611640565b9050602092506114b994915060ff191682840152151560051b820101856114ac565b60405162461bcd60e51b81526020600482015260156024820152741152540dcc4c8e88155b9a5b9a5d1a585b1a5e9959605a1b6044820152606490fd5b506101605415611475565b34610338576000366003190112610338576116f7613ba4565b6001600160a01b0390811660009081527fc81858b0fc5e8d7d2c7a341b4e13a62a27b51e1da1072bf5f7fee8fdef673e94602090815260409091205460ff1680156117f5575b80156117da575b61174d90613a80565b6097549160ff8360a01c166117a25760ff60a01b19909216600160a01b176097557f62e78cea01bee320cd4e420270b5ea74000d11b0c9f74754ebdbfc544b05a25891611798613ba4565b60405191168152a1005b60405162461bcd60e51b815260048101839052601060248201526f14185d5cd8589b194e881c185d5cd95960821b6044820152606490fd5b5061174d8260335416836117ec613ba4565b16149050611744565b506117fe613ba4565b600080516020613f2283398151915260005260fb82528260406000209116600052815260ff6040600020541661173d565b346103385760208060031936011261033857611849613050565b611851613ba4565b600080516020613f22833981519152600090815260fb845260408082206001600160a01b039384168352855290205460ff1680156118f5575b61189390613a80565b600080516020613f02833981519152928360005260fb815281604060002093169283600052815260ff60406000205416156118ca57005b8360005260fb815260406000209083600052526040600020600160ff198254161790556109dc613ba4565b50611893816033541682611907613ba4565b1614905061188a565b34610338576020366003190112610338576004356000526101fa602052602060018060a01b0360406000205416604051908152f35b34610338576000366003190112610338576020604051600080516020613f428339815191528152f35b346103385760003660031901126103385761198761366b565b603380546001600160a01b031981169091556000906001600160a01b03167f8be0079c531659141344cd1fd0a4f28419497f9722a3daafe3b4186f6b6457e08280a3005b3461033857602080600319360112610338576119e5613050565b6119ed613ba4565b600080516020613f22833981519152600090815260fb845260408082206001600160a01b039384168352855290205460ff168015611a66575b611a2f90613a80565b600080516020613f42833981519152928360005260fb815281604060002093169283600052815260ff60406000205416156118ca57005b50611a2f816033541682611a78613ba4565b16149050611a26565b346103385760208060031936011261033857611a9b613050565b611aa3613ba4565b600080516020613f22833981519152600090815260fb845260408082206001600160a01b039384168352855290205460ff168015611b43575b611ae590613a80565b600080516020613f02833981519152928360005260fb815281604060002093169283600052815260ff60406000205416611b1b57005b8360005260fb81526040600020908360005252604060002060ff198154169055611175613ba4565b50611ae5816033541682611b55613ba4565b16149050611adc565b3461033857602036600319011261033857611b77613050565b611b7f613ba4565b6001600160a01b039081166000908152600080516020613ec2833981519152602052604090205460ff168015611bd1575b611bb990613a80565b6101f780546001600160a01b03191691909216179055005b50611bb9816033541682611be3613ba4565b16149050611bb0565b3461033857600036600319011261033857602060ff60975460a01c166040519015158152f35b34610338576020366003190112610338576004356000526101f9602052602060ff60406000205460a01c166040519015158152f35b34610338576020366003190112610338576020611c62613050565b6097546040516001600160a01b0392831691909216148152f35b346103385760208060031936011261033857600435611cdc611c9c613ba4565b600080516020613f22833981519152600090815260fb855260408082206001600160a01b039384168352865290205460ff16908115611d54575b50613a80565b806000526101f990818352611cfb60ff60406000205460a01c16613b03565b6000528152600160406000206000815501611d168154613929565b80611d1d57005b600092601f8211600114611d3057505055005b611d4d84928484526001601f848620920160051c82019101613a69565b8120915555005b60335481169150611d63613ba4565b161484611cd6565b346103385760603660031901126103385760043563ffffffff811603610338576044356001600160401b038111610338576102e5610019913690600401613152565b34610338576000366003190112610338577f00000000000000000000000000000000000000000000000000000000000000006001600160a01b03163003611e06576020604051600080516020613ee28339815191528152f35b60405162461bcd60e51b815260206004820152603860248201527f555550535570677261646561626c653a206d757374206e6f742062652063616c60448201527f6c6564207468726f7567682064656c656761746563616c6c00000000000000006064820152608490fd5b60a0366003190112610338576001600160401b0360043581811161033857611e9d903690600401613152565b90916024803590828211610338573660238301121561033857816004013592808411611f37578360051b9082604051956020968791611ede838701836130c1565b815201928501019336851161033857838101925b858410611f1157888860643561ffff8116036103385761001991613c00565b8335838111610338578791611f2c8392883691870101613134565b815201930192611ef2565b50634e487b7160e01b60009081526041600452fd5b604036600319011261033857611f60613050565b6024356001600160401b03811161033857611f7f903690600401613134565b6001600160a01b03907f00000000000000000000000000000000000000000000000000000000000000008216611fb730821415613717565b611fd4600080516020613ee2833981519152918483541614613778565b611fdc613ba4565b831660009081527f775ac87777436f29b0cd5453bf5db4da15d8938d0ef70de831d2edd17651cf67602090815260409091205490939060ff16801561223f575b61202590613a80565b7f4910fdfa16fed3260ed0e7147f7cc6da11a60208b5b9406d12a635614ffd91435460ff161561205c5750505050610019906137d9565b8416906040516352d1902d60e01b81528481600481865afa60009181612210575b506120de5760405162461bcd60e51b815260048101869052602e60248201527f45524331393637557067726164653a206e657720696d706c656d656e7461746960448201526d6f6e206973206e6f74205555505360901b6064820152608490fd5b939293036121b9576120ef846137d9565b7fbc7cd75a20ee27fd9adebab32041f755214dbc6bffa90cc0225b39da2e5c2d3b600080a28151158015906121b1575b61212557005b6100199260008060405194612139866130a6565b602786527f416464726573733a206c6f772d6c6576656c2064656c65676174652063616c6c85870152660819985a5b195960ca1b60408701528481519101845af4903d156121a8573d61218b816130e2565b9061219960405192836130c1565b8152600081943d92013e613869565b60609250613869565b50600161211f565b60405162461bcd60e51b815260048101839052602960248201527f45524331393637557067726164653a20756e737570706f727465642070726f786044820152681a58589b195555525160ba1b6064820152608490fd5b9091508581813d8311612238575b61222881836130c1565b810103126103385751908761207d565b503d61221e565b50612025816033541682612251613ba4565b1614905061201c565b34610338576080366003190112610338576001600160401b036024358181116103385761228b903690600401613152565b5050604435818111610338576122a5903690600401613152565b5050606435908111610338576102e5610019913690600401613152565b34610338576020366003190112610338576122db613050565b6122e361366b565b6001600160a01b039081166000818152600080516020613ec28339815191526020526040902054600080516020613f22833981519152929060ff1661114b57005b34610338576000366003190112610338576020604051600080516020613f228339815191528152f35b3461033857600036600319011261033857612366613ba4565b6001600160a01b0390811660009081527fc81858b0fc5e8d7d2c7a341b4e13a62a27b51e1da1072bf5f7fee8fdef673e94602090815260409091205460ff168015612459575b801561243e575b6123bc90613a80565b6097549160ff8360a01c16156124025760ff60a01b199092166097557f5db9ee0a495bf2e6ff9c91a7834c1ba4fdd244a5e8aa4e537bd38aeae4b073aa91611798613ba4565b60405162461bcd60e51b815260048101839052601460248201527314185d5cd8589b194e881b9bdd081c185d5cd95960621b6044820152606490fd5b506123bc826033541683612450613ba4565b161490506123b3565b50612462613ba4565b600080516020613f2283398151915260005260fb82528260406000209116600052815260ff604060002054166123ac565b3461033857602080600319360112610338576124ad613050565b6001600160a01b03917f000000000000000000000000000000000000000000000000000000000000000083166124e530821415613717565b612502600080516020613ee2833981519152918583541614613778565b61250a613ba4565b600080516020613ea283398151915260005260fb83528460406000209116600052825260ff60406000205416801561275f575b61254690613a80565b60405190828201948286106001600160401b0387111761084757856040526000835260ff7f4910fdfa16fed3260ed0e7147f7cc6da11a60208b5b9406d12a635614ffd914354166000146125a2575050505061001991506137d9565b8492939416906040516352d1902d60e01b81528581600481865afa60009181612730575b506126275760405162461bcd60e51b815260048101879052602e60248201527f45524331393637557067726164653a206e657720696d706c656d656e7461746960448201526d6f6e206973206e6f74205555505360901b6064820152608490fd5b949394036126d957612638826137d9565b7fbc7cd75a20ee27fd9adebab32041f755214dbc6bffa90cc0225b39da2e5c2d3b600080a28251158015906126d1575b61266e57005b6000806100199560405195612682876130a6565b602787527f416464726573733a206c6f772d6c6576656c2064656c65676174652063616c6c86880152660819985a5b195960ca1b60408801525190845af4903d156121a8573d61218b816130e2565b506000612668565b60405162461bcd60e51b815260048101849052602960248201527f45524331393637557067726164653a20756e737570706f727465642070726f786044820152681a58589b195555525160ba1b6064820152608490fd5b9091508681813d8311612758575b61274881836130c1565b81010312610338575190886125c6565b503d61273e565b50612546846033541685612771613ba4565b1614905061253d565b346103385760403660031901126103385761279361303a565b6001600160a01b03806127a4613ba4565b16908216036127b957610019906004356135df565b60405162461bcd60e51b815260206004820152602f60248201527f416363657373436f6e74726f6c3a2063616e206f6e6c792072656e6f756e636560448201526e103937b632b9903337b91039b2b63360891b6064820152608490fd5b346103385760203660031901126103385761282f613050565b612837613ba4565b6001600160a01b039081166000908152600080516020613ec2833981519152602052604090205460ff168015612889575b61287190613a80565b6101f880546001600160a01b03191691909216179055005b5061287181603354168261289b613ba4565b16149050612868565b34610338576040366003190112610338576004356128c061303a565b8160005260fb6020526128da60016040600020015461321d565b8160005260fb60205260406000209060018060a01b03809116918260005260205260ff60406000205416156109af57005b34610338576020366003190112610338576001600160a01b0361292c613050565b166000526101fb6020526020604060002054604051908152f35b34610338576040366003190112610338576001600160401b036004356024358281116103385761297a903690600401613134565b91612983613ba4565b6001600160a01b039081166000908152600080516020613ec283398151915260209081526040909120549093916129c49160ff16908115612aea5750613a80565b806000526101f9908184526129e360ff60406000205460a01c16613b03565b60005282526001918260406000200193805192831161084757612a068554613929565b601f8111612aaf575b5081601f8411600114612a4c5750928293918392600094612a41575b50501b916000199060031b1c1916179055600080f35b015192508580612a2b565b919083601f1981168760005284600020946000905b88838310612a955750505010612a7c575b505050811b019055005b015160001960f88460031b161c19169055838080612a72565b858701518855909601959485019487935090810190612a61565b612ada908660005283600020601f860160051c810191858710612ae0575b601f0160051c0190613a69565b85612a0f565b9091508190612acd565b60335481169150612af9613ba4565b161486611cd6565b346103385760203660031901126103385760043560005260fb6020526020600160406000200154604051908152f35b34610338576020366003190112610338576004356000526101f9602052602060018060a01b0360406000205416604051908152f35b346103385760208060031936011261033857612b7f613050565b612b87613ba4565b600080516020613f22833981519152600090815260fb845260408082206001600160a01b039384168352855290205460ff168015612bff575b612bc990613a80565b600080516020613f42833981519152928360005260fb815281604060002093169283600052815260ff60406000205416611b1b57005b50612bc9816033541682612c11613ba4565b16149050612bc0565b3461033857604036600319011261033857600435612c3661303a565b612c3e613ba4565b6001600160a01b039081166000908152600080516020613ec2833981519152602052604090205490919060ff168015612cca575b612c7b90613a80565b1690612c88821515613ac2565b806000526101f99081602052612ca860ff60406000205460a01c16613b03565b6000526020526040600020906001600160601b0360a01b825416179055600080f35b50612c7b826033541683612cdc613ba4565b16149050612c72565b346103385760203660031901126103385760043563ffffffff60e01b811680910361033857602090637965db0b60e01b8114908115612d2a575b506040519015158152f35b6301ffc9a760e01b14905082612d1f565b346103385760403660031901126103385760043560243580151581036103385761001991612da1612d6a613ba4565b6001600160a01b039081166000908152600080516020613ec2833981519152602052604090205460ff16908115612de95750613a80565b806000526101f99081602052612dc160ff60406000205460a01c16613b03565b60005260205260406000209081549060ff60a01b90151560a01b169060ff60a01b1916179055565b60335481169150612df8613ba4565b161485611cd6565b3461033857606036600319011261033857600435612e1c61303a565b6001600160401b0360443581811161033857612e3c903690600401613134565b92612e45613ba4565b6001600160a01b039081166000908152600080516020613ec28339815191526020908152604090912054919490929185919060ff16801561301f575b612e8a90613a80565b1693612e97851515613ac2565b816000526101f99485845260ff60406000205460a01c16612fe3576040519160608301918383108784111761084757604092835283526001858401818152848401998a5260009586529786529190932091518254965160ff60a01b90151560a01b166001600160a81b0319909716931660ff60a01b1916929092179490941784559283019351805192831161084757612f308554613929565b601f8111612fb3575b5081601f8411600114612f6a5750928293918392600094612a415750501b916000199060031b1c1916179055600080f35b919083601f1981168760005284600020946000905b88838310612f995750505010612a7c57505050811b019055005b858701518855909601959485019487935090810190612f7f565b612fdd908660005283600020601f860160051c810191858710612ae057601f0160051c0190613a69565b85612f39565b60405162461bcd60e51b8152600481018590526014602482015273526f75746520416c72656164792045786973747360601b6044820152606490fd5b50612e8a826033541683613031613ba4565b16149050612e81565b602435906001600160a01b038216820361033857565b600435906001600160a01b038216820361033857565b604435906001600160a01b038216820361033857565b606435906001600160a01b038216820361033857565b35906001600160a01b038216820361033857565b606081019081106001600160401b0382111761084757604052565b90601f801991011681019081106001600160401b0382111761084757604052565b6001600160401b03811161084757601f01601f191660200190565b929192613109826130e2565b9161311760405193846130c1565b829481845281830111610338578281602093846000960137010152565b9080601f830112156103385781602061314f933591016130fd565b90565b9181601f84011215610338578235916001600160401b038311610338576020838186019501011161033857565b60005b8381106131925750506000910152565b8181015183820152602001613182565b906020916131bb8151809281855285808601910161317f565b601f01601f1916010190565b9190916040818403126103385760408051916001600160401b03918301828111848210176108475760405282946131fd82613092565b84526020820135928311610338576020926132189201613134565b910152565b613225613ba4565b9060009080825260209160fb83526040938482209060018060a01b031690818352845260ff85832054161561325b575050505050565b845192613267846130a6565b602a84528484019086368337845115613531576030825384519260019384101561351d576078602187015360295b8481116134b3575061347157865192608084018481106001600160401b0382111761345d57885260428452868401946060368737845115613449576030865384518210156134495790607860218601536041915b8183116133db57505050613399576133959386936133799361336a6048946133419a519a8b957f416363657373436f6e74726f6c3a206163636f756e74200000000000000000008c880152518092603788019061317f565b8401917001034b99036b4b9b9b4b733903937b6329607d1b60378401525180938684019061317f565b010360288101875201856130c1565b5192839262461bcd60e51b8452600484015260248301906131a2565b0390fd5b60648587519062461bcd60e51b825280600483015260248201527f537472696e67733a20686578206c656e67746820696e73756666696369656e746044820152fd5b909192600f81166010811015613435576f181899199a1a9b1b9c1cb0b131b232b360811b901a61340b8588613902565b5360041c928015613421576000190191906132e9565b634e487b7160e01b82526011600452602482fd5b634e487b7160e01b83526032600452602483fd5b634e487b7160e01b81526032600452602490fd5b634e487b7160e01b86526041600452602486fd5b60648688519062461bcd60e51b825280600483015260248201527f537472696e67733a20686578206c656e67746820696e73756666696369656e746044820152fd5b90600f81166010811015613509576f181899199a1a9b1b9c1cb0b131b232b360811b901a6134e18389613902565b5360041c9080156134f55760001901613295565b634e487b7160e01b86526011600452602486fd5b634e487b7160e01b87526032600452602487fd5b634e487b7160e01b85526032600452602485fd5b634e487b7160e01b84526032600452602484fd5b6001600160a01b0390811660008181527fc88390e7e62175be0932452175b6a7222b6b094ab0ef984a5153c620345d8975602052604081205490929060ff161561358e57505050565b82805260fb6020526040832082845260205260408320600160ff198254161790556135b7613ba4565b16917f2f8788117e7eff1d82e926ec794901d17c78024a50270940304540a733656f0d8180a4565b600081815260fb602090815260408083206001600160a01b039586168085529252822054919390929160ff16613616575b50505050565b7ff6391f5c32d9c69d2a47ea670b442974b53935d1edc7fd64eb21e047a839171b9082855260fb602052604085208486526020526040852060ff19815416905561365e613ba4565b169380a438808080613610565b6033546001600160a01b0390811690613682613ba4565b160361368a57565b606460405162461bcd60e51b815260206004820152602060248201527f4f776e61626c653a2063616c6c6572206973206e6f7420746865206f776e65726044820152fd5b603380546001600160a01b039283166001600160a01b0319821681179092559091167f8be0079c531659141344cd1fd0a4f28419497f9722a3daafe3b4186f6b6457e0600080a3565b1561371e57565b60405162461bcd60e51b815260206004820152602c60248201527f46756e6374696f6e206d7573742062652063616c6c6564207468726f7567682060448201526b19195b1959d85d1958d85b1b60a21b6064820152608490fd5b1561377f57565b60405162461bcd60e51b815260206004820152602c60248201527f46756e6374696f6e206d7573742062652063616c6c6564207468726f7567682060448201526b6163746976652070726f787960a01b6064820152608490fd5b803b1561380e57600080516020613ee283398151915280546001600160a01b0319166001600160a01b03909216919091179055565b60405162461bcd60e51b815260206004820152602d60248201527f455243313936373a206e657720696d706c656d656e746174696f6e206973206e60448201526c1bdd08184818dbdb9d1c9858dd609a1b6064820152608490fd5b919290156138cb575081511561387d575090565b3b156138865790565b60405162461bcd60e51b815260206004820152601d60248201527f416464726573733a2063616c6c20746f206e6f6e2d636f6e74726163740000006044820152606490fd5b8251909150156138de5750805190602001fd5b60405162461bcd60e51b8152602060048201529081906133959060248301906131a2565b908151811015613913570160200190565b634e487b7160e01b600052603260045260246000fd5b90600182811c92168015613959575b602083101461394357565b634e487b7160e01b600052602260045260246000fd5b91607f1691613938565b906040519182600082549261397784613929565b9081845260019485811690816000146139e657506001146139a3575b50506139a1925003836130c1565b565b9093915060005260209081600020936000915b8183106139ce5750506139a193508201013880613993565b855488840185015294850194879450918301916139b6565b9150506139a194506020925060ff191682840152151560051b8201013880613993565b15613a1057565b60405162461bcd60e51b815260206004820152602b60248201527f496e697469616c697a61626c653a20636f6e7472616374206973206e6f74206960448201526a6e697469616c697a696e6760a81b6064820152608490fd5b818110613a74575050565b60008155600101613a69565b15613a8757565b60405162461bcd60e51b8152602060048201526013602482015272556e617574686f72697a65642041636365737360681b6044820152606490fd5b15613ac957565b60405162461bcd60e51b81526020600482015260126024820152711059191c995cdcc80c08141c9bdd9a59195960721b6044820152606490fd5b15613b0a57565b60405162461bcd60e51b8152602060048201526014602482015273149bdd5d1948111bd95cc8139bdd08115e1a5cdd60621b6044820152606490fd5b15613b4d57565b60405162461bcd60e51b815260206004820152602960248201527f536f7572636520616e642044657374696e6174696f6e20436861696e20496473604482015268206172652073616d6560b81b6064820152608490fd5b6097546001600160a01b031633148080613bf5575b15613bcb575036601319013560601c90565b60143610159081613bed575b5015613be95736601319013560601c90565b3390565b905038613bd7565b506014361015613bb9565b9081019060209081818403126103385780356001600160401b0391828211610338570161010090818186031261033857604093845192830183811085821117610847578552613c4e82613092565b835280820135818401528482013585840152606083019160608101358352608084019060808101358252613c8460a08201613092565b9060a08601918252613c9860c08201613092565b9860c08701998a5260e082013588811161033857613cb692016131c7565b9160e08601928352514603613e405796516001600160a01b03979088163003613dcc57613ce64685511415613b46565b5187163014613d6257519580875116925193511695015190803b1561033857613d3b9560008094875198899586948593631885c2f960e01b8552600485015260248401526060604484015260648301906131a2565b03925af18015613d5757613d4e57505050565b82116108475752565b82513d6000823e3d90fd5b855162461bcd60e51b815260048101839052603960248201527f536f75726365204761746577617920416464726573732069732073616d65206160448201527f732063757272656e7420676174657761792061646472657373000000000000006064820152608490fd5b865162461bcd60e51b815260048101849052604160248201527f44657374696e6174696e20476174657761792041646472657373206973206e6f60448201527f742073616d652061732063757272656e742067617465776179206164647265736064820152607360f81b608482015260a490fd5b865162461bcd60e51b815260048101849052603460248201527f44657374696e6174696f6e20436861696e204964206973206e6f742073616d6560448201527308185cc818dd5c9c995b9d0818da185a5b881a5960621b6064820152608490fdfe189ab7a9244df0848122154315af71fe140f3db0fe014031783b0946b8c9d2e3defa081d5f5dff63cf62175586defc42bfa6070dce21008582b31b585449defd360894a13ba1a3210667c828492db98dca3e2076cc3735a920a3ca505d382bbc65d7a28e3265b37a6474929f336521b332c1681b933f6cb9f3376673440d862a7613a25ecc738585a232ad50a301178f12b3ba8887d13e138b523c4269c47689a49807205ce4d355092ef5a8a18f56e8913cf4a201fbe287825b095693c21775a2646970667358221220693b13b0457ec3d5af2278a7bc3b2c7e9ea79a8dc8f51340bf9d8dd8fb91d17364736f6c63430008110033",
  "linkReferences": {},
  "deployedLinkReferences": {}
}