{
  "_format": "hh-sol-artifact-1",
  "contractName": "CrossSyncGateway",
  "sourceName": "contracts/CrossSyncGateway.sol",
  "abi": [
    {
      "inputs": [],
      "stateMutability": "nonpayable",
      "type": "constructor"
    },
    {
      "anonymous": false,
      "inputs": [
        {
          "indexed": false,
          "internalType": "address",
          "name": "previousAdmin",
          "type": "address"
        },
        {
          "indexed": false,
          "internalType": "address",
          "name": "newAdmin",
          "type": "address"
        }
      ],
      "name": "AdminChanged",
      "type": "event"
    },
    {
      "anonymous": false,
      "inputs": [
        {
          "indexed": true,
          "internalType": "address",
          "name": "beacon",
          "type": "address"
        }
      ],
      "name": "BeaconUpgraded",
      "type": "event"
    },
    {
      "anonymous": false,
      "inputs": [],
      "name": "EIP712DomainChanged",
      "type": "event"
    },
    {
      "anonymous": false,
      "inputs": [
        {
          "indexed": false,
          "internalType": "uint8",
          "name": "version",
          "type": "uint8"
        }
      ],
      "name": "Initialized",
      "type": "event"
    },
    {
      "anonymous": false,
      "inputs": [
        {
          "indexed": true,
          "internalType": "address",
          "name": "previousOwner",
          "type": "address"
        },
        {
          "indexed": true,
          "internalType": "address",
          "name": "newOwner",
          "type": "address"
        }
      ],
      "name": "OwnershipTransferred",
      "type": "event"
    },
    {
      "anonymous": false,
      "inputs": [
        {
          "indexed": false,
          "internalType": "address",
          "name": "account",
          "type": "address"
        }
      ],
      "name": "Paused",
      "type": "event"
    },
    {
      "anonymous": false,
      "inputs": [
        {
          "indexed": true,
          "internalType": "bytes32",
          "name": "role",
          "type": "bytes32"
        },
        {
          "indexed": true,
          "internalType": "bytes32",
          "name": "previousAdminRole",
          "type": "bytes32"
        },
        {
          "indexed": true,
          "internalType": "bytes32",
          "name": "newAdminRole",
          "type": "bytes32"
        }
      ],
      "name": "RoleAdminChanged",
      "type": "event"
    },
    {
      "anonymous": false,
      "inputs": [
        {
          "indexed": true,
          "internalType": "bytes32",
          "name": "role",
          "type": "bytes32"
        },
        {
          "indexed": true,
          "internalType": "address",
          "name": "account",
          "type": "address"
        },
        {
          "indexed": true,
          "internalType": "address",
          "name": "sender",
          "type": "address"
        }
      ],
      "name": "RoleGranted",
      "type": "event"
    },
    {
      "anonymous": false,
      "inputs": [
        {
          "indexed": true,
          "internalType": "bytes32",
          "name": "role",
          "type": "bytes32"
        },
        {
          "indexed": true,
          "internalType": "address",
          "name": "account",
          "type": "address"
        },
        {
          "indexed": true,
          "internalType": "address",
          "name": "sender",
          "type": "address"
        }
      ],
      "name": "RoleRevoked",
      "type": "event"
    },
    {
      "anonymous": false,
      "inputs": [
        {
          "indexed": false,
          "internalType": "address",
          "name": "from",
          "type": "address"
        },
        {
          "indexed": false,
          "internalType": "uint256",
          "name": "amount",
          "type": "uint256"
        },
        {
          "indexed": false,
          "internalType": "address",
          "name": "feeAddress",
          "type": "address"
        },
        {
          "indexed": true,
          "internalType": "uint256",
          "name": "destinationChainId",
          "type": "uint256"
        },
        {
          "indexed": true,
          "internalType": "uint256",
          "name": "routeId",
          "type": "uint256"
        },
        {
          "indexed": false,
          "internalType": "uint256",
          "name": "gasLimit",
          "type": "uint256"
        }
      ],
      "name": "SyncFeeCollected",
      "type": "event"
    },
    {
      "anonymous": false,
      "inputs": [
        {
          "indexed": false,
          "internalType": "address",
          "name": "account",
          "type": "address"
        }
      ],
      "name": "Unpaused",
      "type": "event"
    },
    {
      "anonymous": false,
      "inputs": [
        {
          "indexed": true,
          "internalType": "address",
          "name": "implementation",
          "type": "address"
        }
      ],
      "name": "Upgraded",
      "type": "event"
    },
    {
      "inputs": [],
      "name": "ADMIN_ROLE",
      "outputs": [
        {
          "internalType": "bytes32",
          "name": "",
          "type": "bytes32"
        }
      ],
      "stateMutability": "view",
      "type": "function"
    },
    {
      "inputs": [],
      "name": "DEFAULT_ADMIN_ROLE",
      "outputs": [
        {
          "internalType": "bytes32",
          "name": "",
          "type": "bytes32"
        }
      ],
      "stateMutability": "view",
      "type": "function"
    },
    {
      "inputs": [],
      "name": "PAUSER_ROLE",
      "outputs": [
        {
          "internalType": "bytes32",
          "name": "",
          "type": "bytes32"
        }
      ],
      "stateMutability": "view",
      "type": "function"
    },
    {
      "inputs": [],
      "name": "SUPER_ADMIN_ROLE",
      "outputs": [
        {
          "internalType": "bytes32",
          "name": "",
          "type": "bytes32"
        }
      ],
      "stateMutability": "view",
      "type": "function"
    },
    {
      "inputs": [],
      "name": "UPGRADER_ROLE",
      "outputs": [
        {
          "internalType": "bytes32",
          "name": "",
          "type": "bytes32"
        }
      ],
      "stateMutability": "view",
      "type": "function"
    },
    {
      "inputs": [
        {
          "internalType": "address",
          "name": "_admin",
          "type": "address"
        }
      ],
      "name": "addAdmin",
      "outputs": [],
      "stateMutability": "nonpayable",
      "type": "function"
    },
    {
      "inputs": [
        {
          "internalType": "address",
          "name": "account",
          "type": "address"
        }
      ],
      "name": "addPauser",
      "outputs": [],
      "stateMutability": "nonpayable",
      "type": "function"
    },
    {
      "inputs": [
        {
          "internalType": "uint256",
          "name": "_routeId",
          "type": "uint256"
        },
        {
          "internalType": "address",
          "name": "_routeAddress",
          "type": "address"
        },
        {
          "internalType": "string",
          "name": "_routeName",
          "type": "string"
        }
      ],
      "name": "addRoute",
      "outputs": [],
      "stateMutability": "nonpayable",
      "type": "function"
    },
    {
      "inputs": [
        {
          "internalType": "address",
          "name": "_superAdmin",
          "type": "address"
        }
      ],
      "name": "addSuperAdmin",
      "outputs": [],
      "stateMutability": "nonpayable",
      "type": "function"
    },
    {
      "inputs": [
        {
          "internalType": "address",
          "name": "_upgrader",
          "type": "address"
        }
      ],
      "name": "addUpgrader",
      "outputs": [],
      "stateMutability": "nonpayable",
      "type": "function"
    },
    {
      "inputs": [],
      "name": "crossSyncFeeAddress",
      "outputs": [
        {
          "internalType": "address",
          "name": "",
          "type": "address"
        }
      ],
      "stateMutability": "view",
      "type": "function"
    },
    {
      "inputs": [],
      "name": "crossSyncFeePercent",
      "outputs": [
        {
          "internalType": "uint256",
          "name": "",
          "type": "uint256"
        }
      ],
      "stateMutability": "view",
      "type": "function"
    },
    {
      "inputs": [
        {
          "internalType": "uint256",
          "name": "",
          "type": "uint256"
        }
      ],
      "name": "destChainGatewayAddress",
      "outputs": [
        {
          "internalType": "address",
          "name": "",
          "type": "address"
        }
      ],
      "stateMutability": "view",
      "type": "function"
    },
    {
      "inputs": [],
      "name": "eip712Domain",
      "outputs": [
        {
          "internalType": "bytes1",
          "name": "fields",
          "type": "bytes1"
        },
        {
          "internalType": "string",
          "name": "name",
          "type": "string"
        },
        {
          "internalType": "string",
          "name": "version",
          "type": "string"
        },
        {
          "internalType": "uint256",
          "name": "chainId",
          "type": "uint256"
        },
        {
          "internalType": "address",
          "name": "verifyingContract",
          "type": "address"
        },
        {
          "internalType": "bytes32",
          "name": "salt",
          "type": "bytes32"
        },
        {
          "internalType": "uint256[]",
          "name": "extensions",
          "type": "uint256[]"
        }
      ],
      "stateMutability": "view",
      "type": "function"
    },
    {
      "inputs": [
        {
          "internalType": "uint256",
          "name": "_destinationChainId",
          "type": "uint256"
        },
        {
          "internalType": "uint256",
          "name": "_routeId",
          "type": "uint256"
        },
        {
          "components": [
            {
              "internalType": "address",
              "name": "to",
              "type": "address"
            },
            {
              "internalType": "bytes",
              "name": "data",
              "type": "bytes"
            }
          ],
          "internalType": "struct ICrossSyncGateway.MessagingPayload",
          "name": "_payload",
          "type": "tuple"
        },
        {
          "internalType": "uint256",
          "name": "_gasLimit",
          "type": "uint256"
        }
      ],
      "name": "getFee",
      "outputs": [
        {
          "internalType": "uint256",
          "name": "",
          "type": "uint256"
        }
      ],
      "stateMutability": "view",
      "type": "function"
    },
    {
      "inputs": [],
      "name": "getNativeCurrencyAddress",
      "outputs": [
        {
          "internalType": "address",
          "name": "",
          "type": "address"
        }
      ],
      "stateMutability": "view",
      "type": "function"
    },
    {
      "inputs": [],
      "name": "getNativeWrappedCurrencyAddress",
      "outputs": [
        {
          "internalType": "address",
          "name": "",
          "type": "address"
        }
      ],
      "stateMutability": "view",
      "type": "function"
    },
    {
      "inputs": [
        {
          "internalType": "bytes32",
          "name": "role",
          "type": "bytes32"
        }
      ],
      "name": "getRoleAdmin",
      "outputs": [
        {
          "internalType": "bytes32",
          "name": "",
          "type": "bytes32"
        }
      ],
      "stateMutability": "view",
      "type": "function"
    },
    {
      "inputs": [
        {
          "internalType": "uint256",
          "name": "_routeId",
          "type": "uint256"
        }
      ],
      "name": "getRoute",
      "outputs": [
        {
          "internalType": "address",
          "name": "",
          "type": "address"
        },
        {
          "internalType": "bool",
          "name": "",
          "type": "bool"
        },
        {
          "internalType": "string",
          "name": "",
          "type": "string"
        }
      ],
      "stateMutability": "view",
      "type": "function"
    },
    {
      "inputs": [
        {
          "internalType": "uint256",
          "name": "_routeId",
          "type": "uint256"
        }
      ],
      "name": "getRouteAddress",
      "outputs": [
        {
          "internalType": "address",
          "name": "",
          "type": "address"
        }
      ],
      "stateMutability": "view",
      "type": "function"
    },
    {
      "inputs": [
        {
          "internalType": "uint256",
          "name": "_routeId",
          "type": "uint256"
        }
      ],
      "name": "getRouteName",
      "outputs": [
        {
          "internalType": "string",
          "name": "",
          "type": "string"
        }
      ],
      "stateMutability": "view",
      "type": "function"
    },
    {
      "inputs": [
        {
          "internalType": "uint256",
          "name": "_routeId",
          "type": "uint256"
        }
      ],
      "name": "getRouteValidity",
      "outputs": [
        {
          "internalType": "bool",
          "name": "",
          "type": "bool"
        }
      ],
      "stateMutability": "view",
      "type": "function"
    },
    {
      "inputs": [
        {
          "internalType": "uint256",
          "name": "messengerFee",
          "type": "uint256"
        }
      ],
      "name": "getSyncFee",
      "outputs": [
        {
          "internalType": "uint256",
          "name": "",
          "type": "uint256"
        }
      ],
      "stateMutability": "view",
      "type": "function"
    },
    {
      "inputs": [],
      "name": "getTrustedForwarder",
      "outputs": [
        {
          "internalType": "address",
          "name": "forwarder",
          "type": "address"
        }
      ],
      "stateMutability": "view",
      "type": "function"
    },
    {
      "inputs": [
        {
          "internalType": "bytes32",
          "name": "role",
          "type": "bytes32"
        },
        {
          "internalType": "address",
          "name": "account",
          "type": "address"
        }
      ],
      "name": "grantRole",
      "outputs": [],
      "stateMutability": "nonpayable",
      "type": "function"
    },
    {
      "inputs": [
        {
          "internalType": "bytes",
          "name": "_payload",
          "type": "bytes"
        }
      ],
      "name": "handleReceive",
      "outputs": [],
      "stateMutability": "nonpayable",
      "type": "function"
    },
    {
      "inputs": [
        {
          "internalType": "bytes32",
          "name": "role",
          "type": "bytes32"
        },
        {
          "internalType": "address",
          "name": "account",
          "type": "address"
        }
      ],
      "name": "hasRole",
      "outputs": [
        {
          "internalType": "bool",
          "name": "",
          "type": "bool"
        }
      ],
      "stateMutability": "view",
      "type": "function"
    },
    {
      "inputs": [
        {
          "internalType": "string",
          "name": "_name",
          "type": "string"
        },
        {
          "internalType": "string",
          "name": "_version",
          "type": "string"
        },
        {
          "internalType": "address",
          "name": "_nativeCurrencyWrappedAddress",
          "type": "address"
        },
        {
          "internalType": "address",
          "name": "_nativeCurrencyAddress",
          "type": "address"
        },
        {
          "internalType": "address",
          "name": "_owner",
          "type": "address"
        },
        {
          "internalType": "address",
          "name": "_crossSyncFeeAddress",
          "type": "address"
        }
      ],
      "name": "initialize",
      "outputs": [],
      "stateMutability": "nonpayable",
      "type": "function"
    },
    {
      "inputs": [
        {
          "internalType": "address",
          "name": "forwarder",
          "type": "address"
        }
      ],
      "name": "isTrustedForwarder",
      "outputs": [
        {
          "internalType": "bool",
          "name": "",
          "type": "bool"
        }
      ],
      "stateMutability": "view",
      "type": "function"
    },
    {
      "inputs": [],
      "name": "nativeCurrencyAddress",
      "outputs": [
        {
          "internalType": "address",
          "name": "",
          "type": "address"
        }
      ],
      "stateMutability": "view",
      "type": "function"
    },
    {
      "inputs": [],
      "name": "nativeCurrencyWrappedAddress",
      "outputs": [
        {
          "internalType": "address",
          "name": "",
          "type": "address"
        }
      ],
      "stateMutability": "view",
      "type": "function"
    },
    {
      "inputs": [],
      "name": "owner",
      "outputs": [
        {
          "internalType": "address",
          "name": "",
          "type": "address"
        }
      ],
      "stateMutability": "view",
      "type": "function"
    },
    {
      "inputs": [],
      "name": "pause",
      "outputs": [],
      "stateMutability": "nonpayable",
      "type": "function"
    },
    {
      "inputs": [],
      "name": "paused",
      "outputs": [
        {
          "internalType": "bool",
          "name": "",
          "type": "bool"
        }
      ],
      "stateMutability": "view",
      "type": "function"
    },
    {
      "inputs": [],
      "name": "proxiableUUID",
      "outputs": [
        {
          "internalType": "bytes32",
          "name": "",
          "type": "bytes32"
        }
      ],
      "stateMutability": "view",
      "type": "function"
    },
    {
      "inputs": [
        {
          "internalType": "address",
          "name": "",
          "type": "address"
        },
        {
          "internalType": "uint256",
          "name": "",
          "type": "uint256"
        },
        {
          "internalType": "uint256",
          "name": "",
          "type": "uint256"
        }
      ],
      "name": "receiveUserNonceSeen",
      "outputs": [
        {
          "internalType": "bool",
          "name": "",
          "type": "bool"
        }
      ],
      "stateMutability": "view",
      "type": "function"
    },
    {
      "inputs": [
        {
          "internalType": "address",
          "name": "_admin",
          "type": "address"
        }
      ],
      "name": "removeAdmin",
      "outputs": [],
      "stateMutability": "nonpayable",
      "type": "function"
    },
    {
      "inputs": [
        {
          "internalType": "address",
          "name": "_pauser",
          "type": "address"
        }
      ],
      "name": "removePauser",
      "outputs": [],
      "stateMutability": "nonpayable",
      "type": "function"
    },
    {
      "inputs": [
        {
          "internalType": "uint256",
          "name": "_routeId",
          "type": "uint256"
        }
      ],
      "name": "removeRoute",
      "outputs": [],
      "stateMutability": "nonpayable",
      "type": "function"
    },
    {
      "inputs": [
        {
          "internalType": "address",
          "name": "_superAdmin",
          "type": "address"
        }
      ],
      "name": "removeSuperAdmin",
      "outputs": [],
      "stateMutability": "nonpayable",
      "type": "function"
    },
    {
      "inputs": [
        {
          "internalType": "address",
          "name": "_upgrader",
          "type": "address"
        }
      ],
      "name": "removeUpgrader",
      "outputs": [],
      "stateMutability": "nonpayable",
      "type": "function"
    },
    {
      "inputs": [],
      "name": "renounceOwnership",
      "outputs": [],
      "stateMutability": "nonpayable",
      "type": "function"
    },
    {
      "inputs": [
        {
          "internalType": "bytes32",
          "name": "role",
          "type": "bytes32"
        },
        {
          "internalType": "address",
          "name": "account",
          "type": "address"
        }
      ],
      "name": "renounceRole",
      "outputs": [],
      "stateMutability": "nonpayable",
      "type": "function"
    },
    {
      "inputs": [
        {
          "internalType": "bytes32",
          "name": "role",
          "type": "bytes32"
        },
        {
          "internalType": "address",
          "name": "account",
          "type": "address"
        }
      ],
      "name": "revokeRole",
      "outputs": [],
      "stateMutability": "nonpayable",
      "type": "function"
    },
    {
      "inputs": [
        {
          "internalType": "uint256",
          "name": "_destinationChainId",
          "type": "uint256"
        },
        {
          "internalType": "uint256",
          "name": "_routeId",
          "type": "uint256"
        },
        {
          "components": [
            {
              "internalType": "address",
              "name": "to",
              "type": "address"
            },
            {
              "internalType": "bytes",
              "name": "data",
              "type": "bytes"
            }
          ],
          "internalType": "struct ICrossSyncGateway.MessagingPayload",
          "name": "_payload",
          "type": "tuple"
        },
        {
          "internalType": "uint256",
          "name": "_gasLimit",
          "type": "uint256"
        },
        {
          "internalType": "bytes",
          "name": "_routeData",
          "type": "bytes"
        }
      ],
      "name": "sendMessage",
      "outputs": [],
      "stateMutability": "payable",
      "type": "function"
    },
    {
      "inputs": [
        {
          "internalType": "address",
          "name": "",
          "type": "address"
        },
        {
          "internalType": "uint256",
          "name": "",
          "type": "uint256"
        },
        {
          "internalType": "uint256",
          "name": "",
          "type": "uint256"
        }
      ],
      "name": "sentUserNonce",
      "outputs": [
        {
          "internalType": "uint256",
          "name": "",
          "type": "uint256"
        }
      ],
      "stateMutability": "view",
      "type": "function"
    },
    {
      "inputs": [
        {
          "internalType": "uint256",
          "name": "_crossSyncFeePercent",
          "type": "uint256"
        }
      ],
      "name": "setCrossSyncFee",
      "outputs": [],
      "stateMutability": "nonpayable",
      "type": "function"
    },
    {
      "inputs": [
        {
          "internalType": "address",
          "name": "_crossSyncFeeAddress",
          "type": "address"
        }
      ],
      "name": "setCrossSyncFeeAddress",
      "outputs": [],
      "stateMutability": "nonpayable",
      "type": "function"
    },
    {
      "inputs": [
        {
          "internalType": "uint256",
          "name": "chainId",
          "type": "uint256"
        },
        {
          "internalType": "address",
          "name": "crossSyncGatewayAddress",
          "type": "address"
        }
      ],
      "name": "setDestChainGatewayAddress",
      "outputs": [],
      "stateMutability": "nonpayable",
      "type": "function"
    },
    {
      "inputs": [
        {
          "internalType": "address",
          "name": "_nativeCurrencyAddress",
          "type": "address"
        }
      ],
      "name": "setNativeCurrencyAddress",
      "outputs": [],
      "stateMutability": "nonpayable",
      "type": "function"
    },
    {
      "inputs": [
        {
          "internalType": "address",
          "name": "_nativeCurrencyWrappedAddress",
          "type": "address"
        }
      ],
      "name": "setNativeWrappedCurrencyAddress",
      "outputs": [],
      "stateMutability": "nonpayable",
      "type": "function"
    },
    {
      "inputs": [
        {
          "internalType": "uint256",
          "name": "_routeId",
          "type": "uint256"
        },
        {
          "internalType": "address",
          "name": "_routeAddress",
          "type": "address"
        }
      ],
      "name": "setRouteAddress",
      "outputs": [],
      "stateMutability": "nonpayable",
      "type": "function"
    },
    {
      "inputs": [
        {
          "internalType": "uint256",
          "name": "_routeId",
          "type": "uint256"
        },
        {
          "internalType": "string",
          "name": "_routeName",
          "type": "string"
        }
      ],
      "name": "setRouteName",
      "outputs": [],
      "stateMutability": "nonpayable",
      "type": "function"
    },
    {
      "inputs": [
        {
          "internalType": "uint256",
          "name": "_routeId",
          "type": "uint256"
        },
        {
          "internalType": "bool",
          "name": "_isValid",
          "type": "bool"
        }
      ],
      "name": "setRouteValidity",
      "outputs": [],
      "stateMutability": "nonpayable",
      "type": "function"
    },
    {
      "inputs": [
        {
          "internalType": "address",
          "name": "_newtrustedForwarder",
          "type": "address"
        }
      ],
      "name": "setTrustedForwarder",
      "outputs": [],
      "stateMutability": "nonpayable",
      "type": "function"
    },
    {
      "inputs": [
        {
          "internalType": "bytes4",
          "name": "interfaceId",
          "type": "bytes4"
        }
      ],
      "name": "supportsInterface",
      "outputs": [
        {
          "internalType": "bool",
          "name": "",
          "type": "bool"
        }
      ],
      "stateMutability": "view",
      "type": "function"
    },
    {
      "inputs": [
        {
          "internalType": "address",
          "name": "newOwner",
          "type": "address"
        }
      ],
      "name": "transferOwnership",
      "outputs": [],
      "stateMutability": "nonpayable",
      "type": "function"
    },
    {
      "inputs": [],
      "name": "unpause",
      "outputs": [],
      "stateMutability": "nonpayable",
      "type": "function"
    },
    {
      "inputs": [
        {
          "internalType": "address",
          "name": "newImplementation",
          "type": "address"
        }
      ],
      "name": "upgradeTo",
      "outputs": [],
      "stateMutability": "nonpayable",
      "type": "function"
    },
    {
      "inputs": [
        {
          "internalType": "address",
          "name": "newImplementation",
          "type": "address"
        },
        {
          "internalType": "bytes",
          "name": "data",
          "type": "bytes"
        }
      ],
      "name": "upgradeToAndCall",
      "outputs": [],
      "stateMutability": "payable",
      "type": "function"
    },
    {
      "stateMutability": "payable",
      "type": "receive"
    }
  ],
  "bytecode": "0x60a08060405234620000e157306080526000549060ff8260081c166200008f575060ff8082160362000053575b6040516141d59081620000e7823960805181818161228501528181612376015261286f0152f35b60ff90811916176000557f7f26b83ff96e1f2b6a682f133852f6798a09c465da95921460cefb3847402498602060405160ff8152a1386200002c565b62461bcd60e51b815260206004820152602760248201527f496e697469616c697a61626c653a20636f6e747261637420697320696e697469604482015266616c697a696e6760c81b6064820152608490fd5b600080fdfe6080604052600436101561001b575b361561001957600080fd5b005b6000803560e01c80624c7591146131aa5780625e8eef146130f657806301ffc9a71461309f57806309b7d79114612fd55780631785f53c14612f24578063196c881e14612ef05780631fa5d2e714612eb0578063248a9ca314612e835780632b33cc8714612cdb5780632f2ff15d14612c7557806332495ce114612bdc57806336568abe14612b3f5780633659cfe61461284a57806336d8261a1461125557806338073f0c146114b25780633f4ba83a146127145780634429c25f146126cf5780634460bdd6146126a65780634902e4aa146126445780634f1ef2861461233657806352d1902d1461227257806356e3008b14612199578063572b6c051461216357806359b52ca4146121305780635c96a56114611d485780635c975abb14611d225780636050cafe14611c895780636b2c0f5514611b985780637048027514611ae6578063715018a614611a8957806375b238fc14611a605780637d0517d0146119e15780637faf251c146119ad5780638262c3171461198e57806382dc1ec4146118995780638456cb591461175757806384b0196e146114dc5780638898009d146114b25780638da5cb5b1461148957806391d148541461144057806398c339041461139b5780639ef42cbb1461136c578063a217fddf14611350578063acb7176b14611326578063b3292ff01461127f578063bd826ed714611255578063c50189b814611079578063ce1b815f14611050578063d10a0da31461100d578063d264a80314610f6a578063d547741f14610f29578063da74222814610e93578063e34381a114610c9c578063e511015814610bdb578063e56f2fe41461059a578063e63ab1e914610571578063f2fde38b146103e9578063f72c0d8b146103c0578063fa66358a146103545763fde278bc146102b9575061000e565b34610351576020366003190112610351576102d26133fe565b6102da614063565b600080516020614140833981519152835260fb6020526040832060018060a01b0380921660005260205260ff604060002054168015610336575b61031d90613e4f565b6101fe91166001600160601b0360a01b82541617905580f35b5061031d816033541682610348614063565b16149050610314565b80fd5b50346103515760203660031901126103515760043581526101f960205260409020805460ff60a082901c16916001600160a01b03909116906103bc9061039c90600101613d32565b6040519384938452151560208401526060604084015260608301906135d6565b0390f35b503461035157806003193601126103515760206040516000805160206140e08339815191528152f35b50346103515760208060031936011261056d576104046133fe565b61040c613a11565b610414613a11565b6001600160a01b039080821615610519578061043261043792613a74565b61390f565b61043f614063565b91818061044a614063565b1693169283036104bd576000805260fb8152604060002083600052815260ff60406000205416610478578380f35b6000805260fb81526040600020908360005252604060002060ff1981541690556104a0614063565b169060006000805160206141608339815191528180a43880808380f35b6084906040519062461bcd60e51b82526004820152602f60248201527f416363657373436f6e74726f6c3a2063616e206f6e6c792072656e6f756e636560448201526e103937b632b9903337b91039b2b63360891b6064820152fd5b60405162461bcd60e51b815260048101849052602660248201527f4f776e61626c653a206e6577206f776e657220697320746865207a65726f206160448201526564647265737360d01b6064820152608490fd5b5080fd5b503461035157806003193601126103515760206040516000805160206141208339815191528152f35b50346103515760c0366003190112610351576004356001600160401b03811161056d576105cb903690600401613586565b906024356001600160401b038111610bd7576105eb903690600401613586565b9092604435916001600160a01b03918284168403610bd257606435918383168303610bd257836084351660843503610bd25760a435958487168703610bd25788549060ff8260081c16159889809a610bc5575b8015610bae575b15610b52576106de6106e69261069d60ff8e6106f0978f600184198316178355610b41575b505460081c1661067981613dd8565b61068281613dd8565b6097805460ff60a01b1916905561069881613dd8565b613dd8565b6106ad6106a8614063565b613a74565b60ff8d5460081c16966106bf88613dd8565b6106c888613dd8565b6106d188613dd8565b600161012d5536916134b1565b9336916134b1565b9261069881613dd8565b8051906001600160401b038211610b2d57819061070f61016154613cf8565b601f8111610ade575b50602090601f8311600114610a54578a92610a49575b50508160011b916000199060031b1c191617610161555b8051906001600160401b038211610a3557819061076461016254613cf8565b601f81116109db575b50602090601f8311600114610951578992610946575b50508160011b916000199060031b1c191617610162555b8561015f5585610160556107b460ff875460081c16613dd8565b6107bc613a11565b8160843516156108f2576107d1608435613a74565b6107dc60843561390f565b600080516020614180833981519152600081815260fb6020527f339ab3ab2ddf8c30d545344e713975ca6ce592a0d5bc1375bb6cfaa6563006f180546000805160206141408339815191529182905590927fbd79b86ffe0ab8e8776151514217cd7cacd52c909f66475c3af44e129f0b00ff9284929190849080a4600080516020614120833981519152600081815260408120600101805490859055929080a46001600160601b0360a01b92826101f7911684825416179055816101f891168382541617905560286101fd556101fe9216908254161790556108bb5780f35b61ff001981541681557f7f26b83ff96e1f2b6a682f133852f6798a09c465da95921460cefb3847402498602060405160018152a180f35b60405162461bcd60e51b815260206004820152602660248201527f4f776e61626c653a206e6577206f776e657220697320746865207a65726f206160448201526564647265737360d01b6064820152608490fd5b015190503880610783565b925061016289527f29af0939a5988989bfee913a9ad10b9335cb63ebc9fd2b69e5f877d0455ac9199089935b601f19841685106109c0576001945083601f198116106109a7575b505050811b016101625561079a565b015160001960f88460031b161c19169055388080610998565b8181015183556020948501946001909301929091019061097d565b610a25906101628b527f29af0939a5988989bfee913a9ad10b9335cb63ebc9fd2b69e5f877d0455ac919601f850160051c81019160208610610a2b575b601f0160051c0190613e38565b3861076d565b9091508190610a18565b634e487b7160e01b88526041600452602488fd5b01519050388061072e565b92506101618a527fafbb1c043347995df017ce3291b765e028ad5f784d2aa00c3f5e073760a4de8b908a935b601f1984168510610ac3576001945083601f19811610610aaa575b505050811b0161016155610745565b015160001960f88460031b161c19169055388080610a9b565b81810151835560209485019460019093019290910190610a80565b610b27906101618c527fafbb1c043347995df017ce3291b765e028ad5f784d2aa00c3f5e073760a4de8b601f850160051c81019160208610610a2b57601f0160051c0190613e38565b38610718565b634e487b7160e01b89526041600452602489fd5b61ffff19166101011781553861066a565b60405162461bcd60e51b815260206004820152602e60248201527f496e697469616c697a61626c653a20636f6e747261637420697320616c72656160448201526d191e481a5b9a5d1a585b1a5e995960921b6064820152608490fd5b50303b1580156106455750600160ff841614610645565b50600160ff84161061063e565b600080fd5b8380fd5b503461035157602036600319011261035157610bf56133fe565b610bfd613a11565b6001600160a01b0390811660008181527f775ac87777436f29b0cd5453bf5db4da15d8938d0ef70de831d2edd17651cf6760205260409020546000805160206140e0833981519152929060ff1615610c53578380f35b8260005260fb6020526040600020826000526020526040600020600160ff19825416179055610c80614063565b16916000805160206140c0833981519152600080a43880808380f35b50346103515760209081600319360112610351576001600160401b03600435818111610e8f57610cd0903690600401613586565b9361012d946002865414610e4a57600286558201918181840312610e4657803590848211610e2a570190610100928383820312610e2a5760405193840184811086821117610e3257604052610d2483613414565b845281830135828501526040830135604085015260608401926060810135845260808101356080860152610d5a60a08201613414565b60a0860152610d6b60c08201613414565b60c086015260e081013590868211610e2e57610d88929101613530565b908160e085015260018060a01b0380835116935194511691015192823b15610e2a5791610de394939186809460405197889586948593631885c2f960e01b8552600485015260248401526060604484015260648301906135d6565b03925af18015610e1f57610dfa575b826001855580f35b8111610e0b57604052600138610df2565b634e487b7160e01b82526041600452602482fd5b6040513d85823e3d90fd5b8580fd5b8780fd5b634e487b7160e01b87526041600452602487fd5b8480fd5b60405162461bcd60e51b815260048101839052601f60248201527f5265656e7472616e637947756172643a207265656e7472616e742063616c6c006044820152606490fd5b8280fd5b503461035157602036600319011261035157610ead6133fe565b610eb5614063565b90600080516020614140833981519152835260fb6020526040832060018060a01b03809316845260205260ff6040842054168015610f0e575b610ef790613e4f565b166001600160601b0360a01b609754161760975580f35b50610ef7826033541683610f20614063565b16149050610eee565b503461035157604036600319011261035157610f67600435610f496133e8565b9080845260fb602052610f6260016040862001546135fb565b613997565b80f35b503461035157602036600319011261035157610f846133fe565b610f8c613a11565b6000805160206140e083398151915280835260fb602090815260408085206001600160a01b0394851680875292528420549192909160ff16610fcc578380f35b82845260fb602052604084208285526020526040842060ff198154169055610ff2614063565b16916000805160206141608339815191528480a43880808380f35b50346103515760203660031901126103515761103c600160406103bc9360043581526101f96020522001613d32565b6040519182916020835260208301906135d6565b50346103515780600319360112610351576097546040516001600160a01b039091168152602090f35b503461035157600319906080368301126103515760043560243592604435906001600160401b038211610bd757604090826004019236030112610e8f578383526101f96020948186526110d560ff604087205460a01c16613ed2565b6001600160a01b0392803584811690819003611251579161119d6111cb979694926111038a97951515613e91565b61110f46871415613f15565b8588526101fa8088526111298660408b2054161515613f73565b611131614063565b968661113b614063565b168a526101fb895260408a20468b52895260408a20818b52895260408a20549189528660408b2054169187604051996111738b613428565b1689528989015284604089015246606089015260808801523060a088015260c08701523690613530565b60e085015285528352604084205416604051808096819463181285cb60e21b83526064359060048401613fd4565b03915afa918215611244578192611215575b506127106111ee6101fd5484613ca8565b0482018092116112015750604051908152f35b634e487b7160e01b81526011600452602490fd5b9091508281813d831161123d575b61122d8183613475565b8101031261056d575190386111dd565b503d611223565b50604051903d90823e3d90fd5b8680fd5b50346103515780600319360112610351576101f7546040516001600160a01b039091168152602090f35b5034610351576020366003190112610351576112996133fe565b6112a1613a11565b60008051602061414083398151915280835260fb602090815260408085206001600160a01b0394851680875292528420549192909160ff16156112e2578380f35b82845260fb6020526040842082855260205260408420600160ff1982541617905561130b614063565b16916000805160206140c08339815191528480a43880808380f35b50346103515780600319360112610351576101fe546040516001600160a01b039091168152602090f35b5034610351578060031936011261035157602090604051908152f35b50346103515760203660031901126103515760206127106113926101fd54600435613ca8565b04604051908152f35b5034610351576040366003190112610351576113b56133e8565b6113bd614063565b600080516020614140833981519152835260fb602090815260408085206001600160a01b03938416865290915283205460ff168015611425575b61140090613e4f565b60043583526101fa6020526040832091166001600160601b0360a01b82541617905580f35b50611400816033541682611437614063565b161490506113f7565b50346103515760403660031901126103515760ff60406020926114616133e8565b600435825260fb85528282206001600160a01b03909116825284522054604051911615158152f35b50346103515780600319360112610351576033546040516001600160a01b039091168152602090f35b50346103515780600319360112610351576101f8546040516001600160a01b039091168152602090f35b503461035157806003193601126103515761015f54158061174c575b1561170f57604051816101618281549461151186613cf8565b9283835260019687811690816000146116ed5750600114611690575b5061153a92500383613475565b6040519080826101629182549261155084613cf8565b8084529388811690811561166e5750600114611611575b5061157492500383613475565b60405190602090818301938385106001600160401b03861117610e0b57928287936115cd8896886040528585526115bf60405198600f60f81b8a5260e0858b015260e08a01906135d6565b9088820360408a01526135d6565b924660608801523060808801528460a088015286840360c088015251928381520195925b8281106115fe5785870386f35b83518752958101959281019284016115f1565b845250908290867f29af0939a5988989bfee913a9ad10b9335cb63ebc9fd2b69e5f877d0455ac9195b828410611654575050509060206115749282010138611567565b60209294508054838589010152019101909186859361163a565b90506020925061157494915060ff191682840152151560051b82010138611567565b845250908290857fafbb1c043347995df017ce3291b765e028ad5f784d2aa00c3f5e073760a4de8b5b8284106116d35750505090602061153a928201013861152d565b6020929450805483858901015201910190918585936116b9565b90506020925061153a94915060ff191682840152151560051b8201013861152d565b60405162461bcd60e51b81526020600482015260156024820152741152540dcc4c8e88155b9a5b9a5d1a585b1a5e9959605a1b6044820152606490fd5b5061016054156114f8565b5034610351578060031936011261035157611770614063565b600080516020614120833981519152825260fb602090815260408084206001600160a01b039384168552825283205490919060ff168015611863575b8015611848575b6117bc90613e4f565b60975460ff8160a01c166118105760ff60a01b1916600160a01b176097557f62e78cea01bee320cd4e420270b5ea74000d11b0c9f74754ebdbfc544b05a2589190611805614063565b60405191168152a180f35b60405162461bcd60e51b815260048101849052601060248201526f14185d5cd8589b194e881c185d5cd95960821b6044820152606490fd5b506117bc81603354168261185a614063565b161490506117b3565b5061186c614063565b600080516020614140833981519152845260fb8352816040852091168452825260ff6040842054166117ac565b50346103515760208060031936011261056d576118b46133fe565b6118bc614063565b600080516020614140833981519152845260fb835260408085206001600160a01b039283168652845284205460ff168015611973575b6118fb90613e4f565b6000805160206141208339815191529283855260fb81528160408620931692838652815260ff60408620541615611930578480f35b83855260fb815260408520908386525260408420600160ff19825416179055611957614063565b16916000805160206140c08339815191528480a4388080808480f35b506118fb816033541682611985614063565b161490506118f2565b503461035157806003193601126103515760206101fd54604051908152f35b50346103515760203660031901126103515760209060043581526101fa8252604060018060a01b0391205416604051908152f35b503461035157602036600319011261035157611a3f6119fe614063565b600080516020614140833981519152835260fb602090815260408085206001600160a01b03938416865290915283205460ff16908115611a49575b50613e4f565b6004356101fd5580f35b60335481169150611a58614063565b161438611a39565b503461035157806003193601126103515760206040516000805160206141808339815191528152f35b5034610351578060031936011261035157611aa2613a11565b603380546001600160a01b0319811690915581906001600160a01b03167f8be0079c531659141344cd1fd0a4f28419497f9722a3daafe3b4186f6b6457e08280a380f35b50346103515760208060031936011261056d57611b016133fe565b611b09614063565b600080516020614140833981519152845260fb835260408085206001600160a01b039283168652845284205460ff168015611b7d575b611b4890613e4f565b6000805160206141808339815191529283855260fb81528160408620931692838652815260ff60408620541615611930578480f35b50611b48816033541682611b8f614063565b16149050611b3f565b50346103515760208060031936011261056d57611bb36133fe565b611bbb614063565b600080516020614140833981519152845260fb835260408085206001600160a01b039283168652845284205460ff168015611c6e575b611bfa90613e4f565b6000805160206141208339815191529283855260fb81528160408620931692838652815260ff604086205416611c2e578480f35b83855260fb81526040852090838652526040842060ff198154169055611c52614063565b16916000805160206141608339815191528480a4388080808480f35b50611bfa816033541682611c80614063565b16149050611bf1565b503461035157602036600319011261035157611ca36133fe565b611cab614063565b600080516020614140833981519152835260fb602090815260408085206001600160a01b03938416865290915283205460ff168015611d07575b611cee90613e4f565b6101f791166001600160601b0360a01b82541617905580f35b50611cee816033541682611d19614063565b16149050611ce5565b5034610351578060031936011261035157602060ff60975460a01c166040519015158152f35b5060a0366003190112610351576044356001600160401b03811161056d57611d74903690600401613530565b6084356001600160401b038111610e8f57611d93903690600401613586565b505060243582526101f9602052611db360ff604084205460a01c16613ed2565b8051611dc9906001600160a01b03161515613e91565b611dd7466004351415613f15565b60043582526101fa6020526040822054611dfb906001600160a01b03161515613f73565b612710611e0b6101fd5434613ca8565b048034106120d75734813403116120c357611e24614063565b6101fe80546001600160a01b0316801561207257858080868194828215612069575bf11561205e5760018060a01b039054166040519160018060a01b0316825282602083015260408201526064356060820152602435907f054aafb6abefe1f281ccb11a7597dc7e2f13418168020924f176af9492821cac608060043592a3611eab614063565b916001600160a01b03611ebc614063565b1684526101fb6020526040842046855260205260408420600435855260205260408420546101fa60205260018060a01b036040862054169060405194611f0186613428565b60018060a01b031685526020850152602435604085015246606085015260043560808501523060a085015260c084015260e083015260018060a01b03611f45614063565b1683526101fb60205260408320468452602052604083206004358452602052604083208054906001820180921161204a575560243583526101f96020526040808420549051630db17b6960e21b81529284928492909183916001600160a01b0316908290611fba906064359060048401613fd4565b03923403905af1801561203f57611fcf575080f35b3d8083833e611fde8183613475565b810190602081830312610e8f578051906001600160401b038211610bd7570181601f82011215610e8f5780519061201482613496565b926120226040519485613475565b82845260208383010111610bd757602080610f67940191016135b3565b6040513d84823e3d90fd5b634e487b7160e01b85526011600452602485fd5b6040513d86823e3d90fd5b506108fc611e46565b60405162461bcd60e51b8152602060048201526024808201527f43726f737353796e634665652041646472657373204973205a65726f204164646044820152637265737360e01b6064820152608490fd5b634e487b7160e01b83526011600452602483fd5b60405162461bcd60e51b815260206004820152602b60248201527f52656c61796572286d73672e76616c75652920466565206973206c657373207460448201526a68616e2073796e6346656560a81b6064820152608490fd5b50346103515760203660031901126103515760ff604060209260043581526101f98452205460a01c166040519015158152f35b503461035157602036600319011261035157602061217f6133fe565b6097546040516001600160a01b0392831691909216148152f35b5034610351578060208060031936011261226f576004356121f76121bb614063565b600080516020614140833981519152855260fb845260408086206001600160a01b039283168752855285205460ff16908115611a495750613e4f565b8083526101f99081835261221460ff604086205460a01c16613ed2565b83528152600160408320838155019061222d8254613cf8565b908161223857505050f35b81601f85931160011461224c575050505580f35b83835281832061226791601f0160051c810190600101613e38565b812091555580f35b50fd5b50346103515780600319360112610351577f00000000000000000000000000000000000000000000000000000000000000006001600160a01b031630036122cb5760206040516000805160206141008339815191528152f35b60405162461bcd60e51b815260206004820152603860248201527f555550535570677261646561626c653a206d757374206e6f742062652063616c60448201527f6c6564207468726f7567682064656c656761746563616c6c00000000000000006064820152608490fd5b5060403660031901126103515761234b6133fe565b6024356001600160401b038111610e8f5761236a9036906004016134e8565b6001600160a01b0391907f000000000000000000000000000000000000000000000000000000000000000083166123a330821415613abd565b6123c0600080516020614100833981519152918583541614613b1e565b6123c8614063565b936000805160206140e0833981519152865260209460fb8652816040882091168752855260ff6040872054168015612629575b61240490613e4f565b7f4910fdfa16fed3260ed0e7147f7cc6da11a60208b5b9406d12a635614ffd91435460ff161561243b57505050610f679150613b7f565b8316906040516352d1902d60e01b81528581600481865afa8791816125fa575b506124bc5760405162461bcd60e51b815260048101879052602e60248201527f45524331393637557067726164653a206e657720696d706c656d656e7461746960448201526d6f6e206973206e6f74205555505360901b6064820152608490fd5b94929394036125a3576124ce84613b7f565b7fbc7cd75a20ee27fd9adebab32041f755214dbc6bffa90cc0225b39da2e5c2d3b8580a281511580159061259b575b612508575b50505080f35b6125899284806040519461251b8661345a565b602786527f416464726573733a206c6f772d6c6576656c2064656c65676174652063616c6c85870152660819985a5b195960ca1b60408701528481519101845af4903d15612592573d61256d81613496565b9061257b6040519283613475565b81528681943d92013e613c0f565b50388080612502565b60609250613c0f565b5060016124fd565b60405162461bcd60e51b815260048101839052602960248201527f45524331393637557067726164653a20756e737570706f727465642070726f786044820152681a58589b195555525160ba1b6064820152608490fd5b9091508681813d8311612622575b6126128183613475565b81010312610e2e5751903861245b565b503d612608565b5061240481603354168261263b614063565b161490506123fb565b50346103515760203660031901126103515761265e6133fe565b612666613a11565b60008051602061414083398151915280835260fb602090815260408085206001600160a01b0394851680875292528420549192909160ff16610fcc578380f35b503461035157806003193601126103515760206040516000805160206141408339815191528152f35b50346103515760ff60406020926126e536613506565b6001600160a01b0390921683526101fc8652838320908352855282822090825284522054604051911615158152f35b503461035157806003193601126103515761272d614063565b600080516020614120833981519152825260fb602090815260408084206001600160a01b039384168552825283205490919060ff168015612814575b80156127f9575b61277990613e4f565b60975460ff8160a01c16156127bd5760ff60a01b19166097557f5db9ee0a495bf2e6ff9c91a7834c1ba4fdd244a5e8aa4e537bd38aeae4b073aa9190611805614063565b60405162461bcd60e51b815260048101849052601460248201527314185d5cd8589b194e881b9bdd081c185d5cd95960621b6044820152606490fd5b5061277981603354168261280b614063565b16149050612770565b5061281d614063565b600080516020614140833981519152845260fb8352816040852091168452825260ff604084205416612769565b50346103515760208060031936011261056d576128656133fe565b6001600160a01b037f0000000000000000000000000000000000000000000000000000000000000000811661289c30821415613abd565b6128b9600080516020614100833981519152918383541614613b1e565b6128c1614063565b6000805160206140e0833981519152865260fb8552826040872091168652845260ff6040862054168015612b24575b6128f990613e4f565b60405190848201928284106001600160401b03851117610e32578360405286835260ff7f4910fdfa16fed3260ed0e7147f7cc6da11a60208b5b9406d12a635614ffd914354166000146129545750505050610f679150613b7f565b8492939416906040516352d1902d60e01b81528681600481865afa889181612af1575b506129d85760405162461bcd60e51b815260048101889052602e60248201527f45524331393637557067726164653a206e657720696d706c656d656e7461746960448201526d6f6e206973206e6f74205555505360901b6064820152608490fd5b9593949503612a9a576129ea82613b7f565b7fbc7cd75a20ee27fd9adebab32041f755214dbc6bffa90cc0225b39da2e5c2d3b8680a284835115801590612a93575b612a27575b505050505080f35b80612a889560405195612a398761345a565b602787527f416464726573733a206c6f772d6c6576656c2064656c65676174652063616c6c86880152660819985a5b195960ca1b60408801525190845af4903d15612592573d61256d81613496565b503880808084612a1f565b5080612a1a565b60405162461bcd60e51b815260048101849052602960248201527f45524331393637557067726164653a20756e737570706f727465642070726f786044820152681a58589b195555525160ba1b6064820152608490fd5b9091508781813d8311612b1d575b612b098183613475565b81010312612b1957519038612977565b8880fd5b503d612aff565b506128f9826033541683612b36614063565b161490506128f0565b503461035157604036600319011261035157612b596133e8565b6001600160a01b0380612b6a614063565b1690821603612b7f57610f6790600435613997565b60405162461bcd60e51b815260206004820152602f60248201527f416363657373436f6e74726f6c3a2063616e206f6e6c792072656e6f756e636560448201526e103937b632b9903337b91039b2b63360891b6064820152608490fd5b503461035157602036600319011261035157612bf66133fe565b612bfe614063565b600080516020614140833981519152835260fb602090815260408085206001600160a01b03938416865290915283205460ff168015612c5a575b612c4190613e4f565b6101f891166001600160601b0360a01b82541617905580f35b50612c41816033541682612c6c614063565b16149050612c38565b503461035157604036600319011261035157600435612c926133e8565b81835260fb602052612caa60016040852001546135fb565b81835260fb602090815260408085206001600160a01b03938416808752925284205490919060ff16156112e2578380f35b5034610351576040366003190112610351576001600160401b03600435602435828111610bd757612d109036906004016134e8565b91612d19614063565b600080516020614140833981519152855260fb602090815260408087206001600160a01b0393841688528252862054909391612d5f9160ff16908115611a495750613e4f565b8085526101f990818452612d7c60ff604088205460a01c16613ed2565b85528252600191826040862001938051928311612e6f57612d9d8554613cf8565b601f8111612e41575b5081601f8411600114612de057509282939183928794612dd5575b50501b916000199060031b1c191617905580f35b015192503880612dc1565b919083601f1981168789528489209489905b88838310612e275750505010612e0e575b505050811b01905580f35b015160001960f88460031b161c19169055388080612e03565b858701518855909601959485019487935090810190612df2565b612e6990868852838820601f860160051c810191858710610a2b57601f0160051c0190613e38565b38612da6565b634e487b7160e01b86526041600452602486fd5b50346103515760203660031901126103515760016040602092600435815260fb8452200154604051908152f35b5034610351576040602091612ec436613506565b6001600160a01b0390921683526101fb8552838320908352845282822090825283522054604051908152f35b50346103515760203660031901126103515760209060043581526101f98252604060018060a01b0391205416604051908152f35b50346103515760208060031936011261056d57612f3f6133fe565b612f47614063565b600080516020614140833981519152845260fb835260408085206001600160a01b039283168652845284205460ff168015612fba575b612f8690613e4f565b6000805160206141808339815191529283855260fb81528160408620931692838652815260ff604086205416611c2e578480f35b50612f86816033541682612fcc614063565b16149050612f7d565b503461035157604036600319011261035157600435612ff26133e8565b612ffa614063565b90600080516020614140833981519152845260fb6020526040842060018060a01b03809316855260205260ff6040852054168015613084575b61303c90613e4f565b1690613049821515613e91565b8083526101f9908160205261306760ff604086205460a01c16613ed2565b83526020526040822080546001600160a01b031916909117905580f35b5061303c826033541683613096614063565b16149050613033565b50346103515760203660031901126103515760043563ffffffff60e01b811680910361056d57602090637965db0b60e01b81149081156130e5575b506040519015158152f35b6301ffc9a760e01b149050826130da565b5034610351576040366003190112610351576004356024358015158103610e8f57610f6791613166613126614063565b600080516020614140833981519152865260fb602090815260408088206001600160a01b03938416895290915286205460ff16908115611a495750613e4f565b8084526101f9908160205261318460ff604087205460a01c16613ed2565b845260205260408320805460ff60a01b191691151560a01b60ff60a01b16919091179055565b5034610351576060366003190112610351576004356131c76133e8565b6001600160401b03604435818111610e46576131e79036906004016134e8565b926131f0614063565b90600080516020614140833981519152865260209160fb8352604087209460018060a01b0395868093168952845260ff60408920541680156133cd575b61323690613e4f565b16613242811515613e91565b8187526101f99485845260ff604089205460a01c166133915760405191606083018381108782111761337d5760409081529083526001858401818152848301998a52948a52968552882091518254935160ff60a01b90151560a01b166001600160a81b0319909416911660ff60a01b191617919091178155830193518051928311612e6f576132d18554613cf8565b601f811161334f575b5081601f841160011461330857509282939183928794612dd55750501b916000199060031b1c191617905580f35b919083601f1981168789528489209489905b888383106133355750505010612e0e57505050811b01905580f35b85870151885590960195948501948793509081019061331a565b61337790868852838820601f860160051c810191858710610a2b57601f0160051c0190613e38565b386132da565b634e487b7160e01b8a52604160045260248afd5b60405162461bcd60e51b8152600481018590526014602482015273526f75746520416c72656164792045786973747360601b6044820152606490fd5b506132368260335416836133df614063565b1614905061322d565b602435906001600160a01b0382168203610bd257565b600435906001600160a01b0382168203610bd257565b35906001600160a01b0382168203610bd257565b61010081019081106001600160401b0382111761344457604052565b634e487b7160e01b600052604160045260246000fd5b606081019081106001600160401b0382111761344457604052565b90601f801991011681019081106001600160401b0382111761344457604052565b6001600160401b03811161344457601f01601f191660200190565b9291926134bd82613496565b916134cb6040519384613475565b829481845281830111610bd2578281602093846000960137010152565b9080601f83011215610bd257816020613503933591016134b1565b90565b6060906003190112610bd2576004356001600160a01b0381168103610bd257906024359060443590565b919091604081840312610bd25760408051916001600160401b039183018281118482101761344457604052829461356682613414565b84526020820135928311610bd25760209261358192016134e8565b910152565b9181601f84011215610bd2578235916001600160401b038311610bd25760208381860195010111610bd257565b60005b8381106135c65750506000910152565b81810151838201526020016135b6565b906020916135ef815180928185528580860191016135b3565b601f01601f1916010190565b613603614063565b9060009080825260209160fb83526040938482209060018060a01b031690818352845260ff858320541615613639575050505050565b8451926136458461345a565b602a845284840190863683378451156138fb57603082538451926001938410156138e7576078602187015360295b84811161387d575061383b57865192608084018481106001600160401b03821117612e6f57885260428452868401946060368737845115613827576030865384518210156138275790607860218601536041915b8183116137b957505050613777576137739386936137579361374860489461371f9a519a8b957f416363657373436f6e74726f6c3a206163636f756e74200000000000000000008c88015251809260378801906135b3565b8401917001034b99036b4b9b9b4b733903937b6329607d1b6037840152518093868401906135b3565b01036028810187520185613475565b5192839262461bcd60e51b8452600484015260248301906135d6565b0390fd5b60648587519062461bcd60e51b825280600483015260248201527f537472696e67733a20686578206c656e67746820696e73756666696369656e746044820152fd5b909192600f81166010811015613813576f181899199a1a9b1b9c1cb0b131b232b360811b901a6137e98588613cd1565b5360041c9280156137ff576000190191906136c7565b634e487b7160e01b82526011600452602482fd5b634e487b7160e01b83526032600452602483fd5b634e487b7160e01b81526032600452602490fd5b60648688519062461bcd60e51b825280600483015260248201527f537472696e67733a20686578206c656e67746820696e73756666696369656e746044820152fd5b90600f811660108110156138d3576f181899199a1a9b1b9c1cb0b131b232b360811b901a6138ab8389613cd1565b5360041c9080156138bf5760001901613673565b634e487b7160e01b86526011600452602486fd5b634e487b7160e01b87526032600452602487fd5b634e487b7160e01b85526032600452602485fd5b634e487b7160e01b84526032600452602484fd5b6001600160a01b0390811660008181527fc88390e7e62175be0932452175b6a7222b6b094ab0ef984a5153c620345d8975602052604081205490929060ff161561395857505050565b82805260fb6020526040832082845260205260408320600160ff19825416179055613981614063565b16916000805160206140c08339815191528180a4565b600081815260fb602090815260408083206001600160a01b039586168085529252822054919390929160ff166139ce575b50505050565b6000805160206141608339815191529082855260fb602052604085208486526020526040852060ff198154169055613a04614063565b169380a4388080806139c8565b6033546001600160a01b0390811690613a28614063565b1603613a3057565b606460405162461bcd60e51b815260206004820152602060248201527f4f776e61626c653a2063616c6c6572206973206e6f7420746865206f776e65726044820152fd5b603380546001600160a01b039283166001600160a01b0319821681179092559091167f8be0079c531659141344cd1fd0a4f28419497f9722a3daafe3b4186f6b6457e0600080a3565b15613ac457565b60405162461bcd60e51b815260206004820152602c60248201527f46756e6374696f6e206d7573742062652063616c6c6564207468726f7567682060448201526b19195b1959d85d1958d85b1b60a21b6064820152608490fd5b15613b2557565b60405162461bcd60e51b815260206004820152602c60248201527f46756e6374696f6e206d7573742062652063616c6c6564207468726f7567682060448201526b6163746976652070726f787960a01b6064820152608490fd5b803b15613bb45760008051602061410083398151915280546001600160a01b0319166001600160a01b03909216919091179055565b60405162461bcd60e51b815260206004820152602d60248201527f455243313936373a206e657720696d706c656d656e746174696f6e206973206e60448201526c1bdd08184818dbdb9d1c9858dd609a1b6064820152608490fd5b91929015613c715750815115613c23575090565b3b15613c2c5790565b60405162461bcd60e51b815260206004820152601d60248201527f416464726573733a2063616c6c20746f206e6f6e2d636f6e74726163740000006044820152606490fd5b825190915015613c845750805190602001fd5b60405162461bcd60e51b8152602060048201529081906137739060248301906135d6565b81810292918115918404141715613cbb57565b634e487b7160e01b600052601160045260246000fd5b908151811015613ce2570160200190565b634e487b7160e01b600052603260045260246000fd5b90600182811c92168015613d28575b6020831014613d1257565b634e487b7160e01b600052602260045260246000fd5b91607f1691613d07565b9060405191826000825492613d4684613cf8565b908184526001948581169081600014613db55750600114613d72575b5050613d7092500383613475565b565b9093915060005260209081600020936000915b818310613d9d575050613d7093508201013880613d62565b85548884018501529485019487945091830191613d85565b915050613d7094506020925060ff191682840152151560051b8201013880613d62565b15613ddf57565b60405162461bcd60e51b815260206004820152602b60248201527f496e697469616c697a61626c653a20636f6e7472616374206973206e6f74206960448201526a6e697469616c697a696e6760a81b6064820152608490fd5b818110613e43575050565b60008155600101613e38565b15613e5657565b60405162461bcd60e51b8152602060048201526013602482015272556e617574686f72697a65642041636365737360681b6044820152606490fd5b15613e9857565b60405162461bcd60e51b81526020600482015260126024820152711059191c995cdcc80c08141c9bdd9a59195960721b6044820152606490fd5b15613ed957565b60405162461bcd60e51b8152602060048201526014602482015273149bdd5d1948111bd95cc8139bdd08115e1a5cdd60621b6044820152606490fd5b15613f1c57565b60405162461bcd60e51b815260206004820152602960248201527f536f7572636520616e642044657374696e6174696f6e20436861696e20496473604482015268206172652073616d6560b81b6064820152608490fd5b15613f7a57565b60405162461bcd60e51b815260206004820152602c60248201527f44657374696e6174696f6e20436861696e20476174657761792041646472657360448201526b1cc81a5cc81b9bdd081cd95d60a21b6064820152608490fd5b92919061405e602080926040875260018060a01b0380825116604089015282820151606089015260408201516080890152606082015160a0890152608082015160c08901528060a08301511660e089015260e08160c0840151169261010093848b0152015191610120890152815116610140880152015160406101608701526101808601906135d6565b930152565b6097546001600160a01b0316331480806140b4575b1561408a575036601319013560601c90565b601436101590816140ac575b50156140a85736601319013560601c90565b3390565b905038614096565b50601436101561407856fe2f8788117e7eff1d82e926ec794901d17c78024a50270940304540a733656f0d189ab7a9244df0848122154315af71fe140f3db0fe014031783b0946b8c9d2e3360894a13ba1a3210667c828492db98dca3e2076cc3735a920a3ca505d382bbc65d7a28e3265b37a6474929f336521b332c1681b933f6cb9f3376673440d862a7613a25ecc738585a232ad50a301178f12b3ba8887d13e138b523c4269c47689f6391f5c32d9c69d2a47ea670b442974b53935d1edc7fd64eb21e047a839171ba49807205ce4d355092ef5a8a18f56e8913cf4a201fbe287825b095693c21775a264697066735822122090d6fe61fa80136e820181ed88db8d56993eeea8e19061c528182372f6de83f464736f6c63430008110033",
  "linkReferences": {},
  "deployedLinkReferences": {}
}