{
  "_format": "hh-sol-artifact-1",
  "contractName": "CrossSyncGateway",
  "sourceName": "contracts/CrossSyncGateway.sol",
  "abi": [
    {
      "inputs": [],
      "stateMutability": "nonpayable",
      "type": "constructor"
    },
    {
      "anonymous": false,
      "inputs": [
        {
          "indexed": false,
          "internalType": "address",
          "name": "previousAdmin",
          "type": "address"
        },
        {
          "indexed": false,
          "internalType": "address",
          "name": "newAdmin",
          "type": "address"
        }
      ],
      "name": "AdminChanged",
      "type": "event"
    },
    {
      "anonymous": false,
      "inputs": [
        {
          "indexed": true,
          "internalType": "address",
          "name": "beacon",
          "type": "address"
        }
      ],
      "name": "BeaconUpgraded",
      "type": "event"
    },
    {
      "anonymous": false,
      "inputs": [],
      "name": "EIP712DomainChanged",
      "type": "event"
    },
    {
      "anonymous": false,
      "inputs": [
        {
          "indexed": false,
          "internalType": "uint8",
          "name": "version",
          "type": "uint8"
        }
      ],
      "name": "Initialized",
      "type": "event"
    },
    {
      "anonymous": false,
      "inputs": [
        {
          "indexed": true,
          "internalType": "address",
          "name": "previousOwner",
          "type": "address"
        },
        {
          "indexed": true,
          "internalType": "address",
          "name": "newOwner",
          "type": "address"
        }
      ],
      "name": "OwnershipTransferred",
      "type": "event"
    },
    {
      "anonymous": false,
      "inputs": [
        {
          "indexed": false,
          "internalType": "address",
          "name": "account",
          "type": "address"
        }
      ],
      "name": "Paused",
      "type": "event"
    },
    {
      "anonymous": false,
      "inputs": [
        {
          "indexed": true,
          "internalType": "bytes32",
          "name": "role",
          "type": "bytes32"
        },
        {
          "indexed": true,
          "internalType": "bytes32",
          "name": "previousAdminRole",
          "type": "bytes32"
        },
        {
          "indexed": true,
          "internalType": "bytes32",
          "name": "newAdminRole",
          "type": "bytes32"
        }
      ],
      "name": "RoleAdminChanged",
      "type": "event"
    },
    {
      "anonymous": false,
      "inputs": [
        {
          "indexed": true,
          "internalType": "bytes32",
          "name": "role",
          "type": "bytes32"
        },
        {
          "indexed": true,
          "internalType": "address",
          "name": "account",
          "type": "address"
        },
        {
          "indexed": true,
          "internalType": "address",
          "name": "sender",
          "type": "address"
        }
      ],
      "name": "RoleGranted",
      "type": "event"
    },
    {
      "anonymous": false,
      "inputs": [
        {
          "indexed": true,
          "internalType": "bytes32",
          "name": "role",
          "type": "bytes32"
        },
        {
          "indexed": true,
          "internalType": "address",
          "name": "account",
          "type": "address"
        },
        {
          "indexed": true,
          "internalType": "address",
          "name": "sender",
          "type": "address"
        }
      ],
      "name": "RoleRevoked",
      "type": "event"
    },
    {
      "anonymous": false,
      "inputs": [
        {
          "indexed": false,
          "internalType": "address",
          "name": "from",
          "type": "address"
        },
        {
          "indexed": false,
          "internalType": "uint256",
          "name": "amount",
          "type": "uint256"
        },
        {
          "indexed": false,
          "internalType": "address",
          "name": "feeAddress",
          "type": "address"
        },
        {
          "indexed": true,
          "internalType": "uint256",
          "name": "destinationChainId",
          "type": "uint256"
        },
        {
          "indexed": true,
          "internalType": "uint256",
          "name": "routeId",
          "type": "uint256"
        },
        {
          "indexed": false,
          "internalType": "uint256",
          "name": "gasLimit",
          "type": "uint256"
        }
      ],
      "name": "SyncFeeCollected",
      "type": "event"
    },
    {
      "anonymous": false,
      "inputs": [
        {
          "indexed": false,
          "internalType": "address",
          "name": "account",
          "type": "address"
        }
      ],
      "name": "Unpaused",
      "type": "event"
    },
    {
      "anonymous": false,
      "inputs": [
        {
          "indexed": true,
          "internalType": "address",
          "name": "implementation",
          "type": "address"
        }
      ],
      "name": "Upgraded",
      "type": "event"
    },
    {
      "inputs": [],
      "name": "ADMIN_ROLE",
      "outputs": [
        {
          "internalType": "bytes32",
          "name": "",
          "type": "bytes32"
        }
      ],
      "stateMutability": "view",
      "type": "function"
    },
    {
      "inputs": [],
      "name": "DEFAULT_ADMIN_ROLE",
      "outputs": [
        {
          "internalType": "bytes32",
          "name": "",
          "type": "bytes32"
        }
      ],
      "stateMutability": "view",
      "type": "function"
    },
    {
      "inputs": [],
      "name": "PAUSER_ROLE",
      "outputs": [
        {
          "internalType": "bytes32",
          "name": "",
          "type": "bytes32"
        }
      ],
      "stateMutability": "view",
      "type": "function"
    },
    {
      "inputs": [],
      "name": "SUPER_ADMIN_ROLE",
      "outputs": [
        {
          "internalType": "bytes32",
          "name": "",
          "type": "bytes32"
        }
      ],
      "stateMutability": "view",
      "type": "function"
    },
    {
      "inputs": [],
      "name": "UPGRADER_ROLE",
      "outputs": [
        {
          "internalType": "bytes32",
          "name": "",
          "type": "bytes32"
        }
      ],
      "stateMutability": "view",
      "type": "function"
    },
    {
      "inputs": [
        {
          "internalType": "address",
          "name": "_admin",
          "type": "address"
        }
      ],
      "name": "addAdmin",
      "outputs": [],
      "stateMutability": "nonpayable",
      "type": "function"
    },
    {
      "inputs": [
        {
          "internalType": "address",
          "name": "account",
          "type": "address"
        }
      ],
      "name": "addPauser",
      "outputs": [],
      "stateMutability": "nonpayable",
      "type": "function"
    },
    {
      "inputs": [
        {
          "internalType": "uint256",
          "name": "_routeId",
          "type": "uint256"
        },
        {
          "internalType": "address",
          "name": "_routeAddress",
          "type": "address"
        },
        {
          "internalType": "string",
          "name": "_routeName",
          "type": "string"
        }
      ],
      "name": "addRoute",
      "outputs": [],
      "stateMutability": "nonpayable",
      "type": "function"
    },
    {
      "inputs": [
        {
          "internalType": "address",
          "name": "_superAdmin",
          "type": "address"
        }
      ],
      "name": "addSuperAdmin",
      "outputs": [],
      "stateMutability": "nonpayable",
      "type": "function"
    },
    {
      "inputs": [
        {
          "internalType": "address",
          "name": "_upgrader",
          "type": "address"
        }
      ],
      "name": "addUpgrader",
      "outputs": [],
      "stateMutability": "nonpayable",
      "type": "function"
    },
    {
      "inputs": [],
      "name": "crossSyncFeeAddress",
      "outputs": [
        {
          "internalType": "address",
          "name": "",
          "type": "address"
        }
      ],
      "stateMutability": "view",
      "type": "function"
    },
    {
      "inputs": [],
      "name": "crossSyncFeePercent",
      "outputs": [
        {
          "internalType": "uint256",
          "name": "",
          "type": "uint256"
        }
      ],
      "stateMutability": "view",
      "type": "function"
    },
    {
      "inputs": [
        {
          "internalType": "uint256",
          "name": "",
          "type": "uint256"
        }
      ],
      "name": "destChainGatewayAddress",
      "outputs": [
        {
          "internalType": "address",
          "name": "",
          "type": "address"
        }
      ],
      "stateMutability": "view",
      "type": "function"
    },
    {
      "inputs": [],
      "name": "eip712Domain",
      "outputs": [
        {
          "internalType": "bytes1",
          "name": "fields",
          "type": "bytes1"
        },
        {
          "internalType": "string",
          "name": "name",
          "type": "string"
        },
        {
          "internalType": "string",
          "name": "version",
          "type": "string"
        },
        {
          "internalType": "uint256",
          "name": "chainId",
          "type": "uint256"
        },
        {
          "internalType": "address",
          "name": "verifyingContract",
          "type": "address"
        },
        {
          "internalType": "bytes32",
          "name": "salt",
          "type": "bytes32"
        },
        {
          "internalType": "uint256[]",
          "name": "extensions",
          "type": "uint256[]"
        }
      ],
      "stateMutability": "view",
      "type": "function"
    },
    {
      "inputs": [
        {
          "internalType": "uint256",
          "name": "_destinationChainId",
          "type": "uint256"
        },
        {
          "internalType": "uint256",
          "name": "_routeId",
          "type": "uint256"
        },
        {
          "components": [
            {
              "internalType": "address",
              "name": "to",
              "type": "address"
            },
            {
              "internalType": "bytes",
              "name": "data",
              "type": "bytes"
            }
          ],
          "internalType": "struct ICrossSyncGateway.MessagingPayload",
          "name": "_payload",
          "type": "tuple"
        },
        {
          "internalType": "uint256",
          "name": "_gasLimit",
          "type": "uint256"
        }
      ],
      "name": "getFee",
      "outputs": [
        {
          "internalType": "uint256",
          "name": "",
          "type": "uint256"
        }
      ],
      "stateMutability": "view",
      "type": "function"
    },
    {
      "inputs": [],
      "name": "getNativeCurrencyAddress",
      "outputs": [
        {
          "internalType": "address",
          "name": "",
          "type": "address"
        }
      ],
      "stateMutability": "view",
      "type": "function"
    },
    {
      "inputs": [],
      "name": "getNativeWrappedCurrencyAddress",
      "outputs": [
        {
          "internalType": "address",
          "name": "",
          "type": "address"
        }
      ],
      "stateMutability": "view",
      "type": "function"
    },
    {
      "inputs": [
        {
          "internalType": "bytes32",
          "name": "role",
          "type": "bytes32"
        }
      ],
      "name": "getRoleAdmin",
      "outputs": [
        {
          "internalType": "bytes32",
          "name": "",
          "type": "bytes32"
        }
      ],
      "stateMutability": "view",
      "type": "function"
    },
    {
      "inputs": [
        {
          "internalType": "uint256",
          "name": "_routeId",
          "type": "uint256"
        }
      ],
      "name": "getRoute",
      "outputs": [
        {
          "internalType": "address",
          "name": "",
          "type": "address"
        },
        {
          "internalType": "bool",
          "name": "",
          "type": "bool"
        },
        {
          "internalType": "string",
          "name": "",
          "type": "string"
        }
      ],
      "stateMutability": "view",
      "type": "function"
    },
    {
      "inputs": [
        {
          "internalType": "uint256",
          "name": "_routeId",
          "type": "uint256"
        }
      ],
      "name": "getRouteAddress",
      "outputs": [
        {
          "internalType": "address",
          "name": "",
          "type": "address"
        }
      ],
      "stateMutability": "view",
      "type": "function"
    },
    {
      "inputs": [
        {
          "internalType": "uint256",
          "name": "_routeId",
          "type": "uint256"
        }
      ],
      "name": "getRouteName",
      "outputs": [
        {
          "internalType": "string",
          "name": "",
          "type": "string"
        }
      ],
      "stateMutability": "view",
      "type": "function"
    },
    {
      "inputs": [
        {
          "internalType": "uint256",
          "name": "_routeId",
          "type": "uint256"
        }
      ],
      "name": "getRouteValidity",
      "outputs": [
        {
          "internalType": "bool",
          "name": "",
          "type": "bool"
        }
      ],
      "stateMutability": "view",
      "type": "function"
    },
    {
      "inputs": [
        {
          "internalType": "uint256",
          "name": "messengerFee",
          "type": "uint256"
        }
      ],
      "name": "getSyncFee",
      "outputs": [
        {
          "internalType": "uint256",
          "name": "",
          "type": "uint256"
        }
      ],
      "stateMutability": "view",
      "type": "function"
    },
    {
      "inputs": [],
      "name": "getTrustedForwarder",
      "outputs": [
        {
          "internalType": "address",
          "name": "forwarder",
          "type": "address"
        }
      ],
      "stateMutability": "view",
      "type": "function"
    },
    {
      "inputs": [
        {
          "internalType": "bytes32",
          "name": "role",
          "type": "bytes32"
        },
        {
          "internalType": "address",
          "name": "account",
          "type": "address"
        }
      ],
      "name": "grantRole",
      "outputs": [],
      "stateMutability": "nonpayable",
      "type": "function"
    },
    {
      "inputs": [
        {
          "internalType": "bytes",
          "name": "_payload",
          "type": "bytes"
        }
      ],
      "name": "handleReceive",
      "outputs": [],
      "stateMutability": "nonpayable",
      "type": "function"
    },
    {
      "inputs": [
        {
          "internalType": "bytes32",
          "name": "role",
          "type": "bytes32"
        },
        {
          "internalType": "address",
          "name": "account",
          "type": "address"
        }
      ],
      "name": "hasRole",
      "outputs": [
        {
          "internalType": "bool",
          "name": "",
          "type": "bool"
        }
      ],
      "stateMutability": "view",
      "type": "function"
    },
    {
      "inputs": [
        {
          "internalType": "string",
          "name": "_name",
          "type": "string"
        },
        {
          "internalType": "string",
          "name": "_version",
          "type": "string"
        },
        {
          "internalType": "address",
          "name": "_nativeCurrencyWrappedAddress",
          "type": "address"
        },
        {
          "internalType": "address",
          "name": "_nativeCurrencyAddress",
          "type": "address"
        },
        {
          "internalType": "address",
          "name": "_owner",
          "type": "address"
        },
        {
          "internalType": "address",
          "name": "_crossSyncFeeAddress",
          "type": "address"
        }
      ],
      "name": "initialize",
      "outputs": [],
      "stateMutability": "nonpayable",
      "type": "function"
    },
    {
      "inputs": [
        {
          "internalType": "address",
          "name": "forwarder",
          "type": "address"
        }
      ],
      "name": "isTrustedForwarder",
      "outputs": [
        {
          "internalType": "bool",
          "name": "",
          "type": "bool"
        }
      ],
      "stateMutability": "view",
      "type": "function"
    },
    {
      "inputs": [],
      "name": "nativeCurrencyAddress",
      "outputs": [
        {
          "internalType": "address",
          "name": "",
          "type": "address"
        }
      ],
      "stateMutability": "view",
      "type": "function"
    },
    {
      "inputs": [],
      "name": "nativeCurrencyWrappedAddress",
      "outputs": [
        {
          "internalType": "address",
          "name": "",
          "type": "address"
        }
      ],
      "stateMutability": "view",
      "type": "function"
    },
    {
      "inputs": [],
      "name": "owner",
      "outputs": [
        {
          "internalType": "address",
          "name": "",
          "type": "address"
        }
      ],
      "stateMutability": "view",
      "type": "function"
    },
    {
      "inputs": [],
      "name": "pause",
      "outputs": [],
      "stateMutability": "nonpayable",
      "type": "function"
    },
    {
      "inputs": [],
      "name": "paused",
      "outputs": [
        {
          "internalType": "bool",
          "name": "",
          "type": "bool"
        }
      ],
      "stateMutability": "view",
      "type": "function"
    },
    {
      "inputs": [],
      "name": "proxiableUUID",
      "outputs": [
        {
          "internalType": "bytes32",
          "name": "",
          "type": "bytes32"
        }
      ],
      "stateMutability": "view",
      "type": "function"
    },
    {
      "inputs": [
        {
          "internalType": "address",
          "name": "",
          "type": "address"
        },
        {
          "internalType": "uint256",
          "name": "",
          "type": "uint256"
        },
        {
          "internalType": "uint256",
          "name": "",
          "type": "uint256"
        }
      ],
      "name": "receiveUserNonceSeen",
      "outputs": [
        {
          "internalType": "bool",
          "name": "",
          "type": "bool"
        }
      ],
      "stateMutability": "view",
      "type": "function"
    },
    {
      "inputs": [
        {
          "internalType": "address",
          "name": "_admin",
          "type": "address"
        }
      ],
      "name": "removeAdmin",
      "outputs": [],
      "stateMutability": "nonpayable",
      "type": "function"
    },
    {
      "inputs": [
        {
          "internalType": "address",
          "name": "_pauser",
          "type": "address"
        }
      ],
      "name": "removePauser",
      "outputs": [],
      "stateMutability": "nonpayable",
      "type": "function"
    },
    {
      "inputs": [
        {
          "internalType": "uint256",
          "name": "_routeId",
          "type": "uint256"
        }
      ],
      "name": "removeRoute",
      "outputs": [],
      "stateMutability": "nonpayable",
      "type": "function"
    },
    {
      "inputs": [
        {
          "internalType": "address",
          "name": "_superAdmin",
          "type": "address"
        }
      ],
      "name": "removeSuperAdmin",
      "outputs": [],
      "stateMutability": "nonpayable",
      "type": "function"
    },
    {
      "inputs": [
        {
          "internalType": "address",
          "name": "_upgrader",
          "type": "address"
        }
      ],
      "name": "removeUpgrader",
      "outputs": [],
      "stateMutability": "nonpayable",
      "type": "function"
    },
    {
      "inputs": [],
      "name": "renounceOwnership",
      "outputs": [],
      "stateMutability": "nonpayable",
      "type": "function"
    },
    {
      "inputs": [
        {
          "internalType": "bytes32",
          "name": "role",
          "type": "bytes32"
        },
        {
          "internalType": "address",
          "name": "account",
          "type": "address"
        }
      ],
      "name": "renounceRole",
      "outputs": [],
      "stateMutability": "nonpayable",
      "type": "function"
    },
    {
      "inputs": [
        {
          "internalType": "bytes32",
          "name": "role",
          "type": "bytes32"
        },
        {
          "internalType": "address",
          "name": "account",
          "type": "address"
        }
      ],
      "name": "revokeRole",
      "outputs": [],
      "stateMutability": "nonpayable",
      "type": "function"
    },
    {
      "inputs": [
        {
          "internalType": "uint256",
          "name": "_destinationChainId",
          "type": "uint256"
        },
        {
          "internalType": "uint256",
          "name": "_routeId",
          "type": "uint256"
        },
        {
          "components": [
            {
              "internalType": "address",
              "name": "to",
              "type": "address"
            },
            {
              "internalType": "bytes",
              "name": "data",
              "type": "bytes"
            }
          ],
          "internalType": "struct ICrossSyncGateway.MessagingPayload",
          "name": "_payload",
          "type": "tuple"
        },
        {
          "internalType": "uint256",
          "name": "_gasLimit",
          "type": "uint256"
        },
        {
          "internalType": "bytes",
          "name": "_routeData",
          "type": "bytes"
        }
      ],
      "name": "sendMessage",
      "outputs": [],
      "stateMutability": "payable",
      "type": "function"
    },
    {
      "inputs": [
        {
          "internalType": "address",
          "name": "",
          "type": "address"
        },
        {
          "internalType": "uint256",
          "name": "",
          "type": "uint256"
        },
        {
          "internalType": "uint256",
          "name": "",
          "type": "uint256"
        }
      ],
      "name": "sentUserNonce",
      "outputs": [
        {
          "internalType": "uint256",
          "name": "",
          "type": "uint256"
        }
      ],
      "stateMutability": "view",
      "type": "function"
    },
    {
      "inputs": [
        {
          "internalType": "uint256",
          "name": "_crossSyncFeePercent",
          "type": "uint256"
        }
      ],
      "name": "setCrossSyncFee",
      "outputs": [],
      "stateMutability": "nonpayable",
      "type": "function"
    },
    {
      "inputs": [
        {
          "internalType": "address",
          "name": "_crossSyncFeeAddress",
          "type": "address"
        }
      ],
      "name": "setCrossSyncFeeAddress",
      "outputs": [],
      "stateMutability": "nonpayable",
      "type": "function"
    },
    {
      "inputs": [
        {
          "internalType": "uint256",
          "name": "chainId",
          "type": "uint256"
        },
        {
          "internalType": "address",
          "name": "crossSyncGatewayAddress",
          "type": "address"
        }
      ],
      "name": "setDestChainGatewayAddress",
      "outputs": [],
      "stateMutability": "nonpayable",
      "type": "function"
    },
    {
      "inputs": [
        {
          "internalType": "address",
          "name": "_nativeCurrencyAddress",
          "type": "address"
        }
      ],
      "name": "setNativeCurrencyAddress",
      "outputs": [],
      "stateMutability": "nonpayable",
      "type": "function"
    },
    {
      "inputs": [
        {
          "internalType": "address",
          "name": "_nativeCurrencyWrappedAddress",
          "type": "address"
        }
      ],
      "name": "setNativeWrappedCurrencyAddress",
      "outputs": [],
      "stateMutability": "nonpayable",
      "type": "function"
    },
    {
      "inputs": [
        {
          "internalType": "uint256",
          "name": "_routeId",
          "type": "uint256"
        },
        {
          "internalType": "address",
          "name": "_routeAddress",
          "type": "address"
        }
      ],
      "name": "setRouteAddress",
      "outputs": [],
      "stateMutability": "nonpayable",
      "type": "function"
    },
    {
      "inputs": [
        {
          "internalType": "uint256",
          "name": "_routeId",
          "type": "uint256"
        },
        {
          "internalType": "string",
          "name": "_routeName",
          "type": "string"
        }
      ],
      "name": "setRouteName",
      "outputs": [],
      "stateMutability": "nonpayable",
      "type": "function"
    },
    {
      "inputs": [
        {
          "internalType": "uint256",
          "name": "_routeId",
          "type": "uint256"
        },
        {
          "internalType": "bool",
          "name": "_isValid",
          "type": "bool"
        }
      ],
      "name": "setRouteValidity",
      "outputs": [],
      "stateMutability": "nonpayable",
      "type": "function"
    },
    {
      "inputs": [
        {
          "internalType": "address",
          "name": "_newtrustedForwarder",
          "type": "address"
        }
      ],
      "name": "setTrustedForwarder",
      "outputs": [],
      "stateMutability": "nonpayable",
      "type": "function"
    },
    {
      "inputs": [
        {
          "internalType": "bytes4",
          "name": "interfaceId",
          "type": "bytes4"
        }
      ],
      "name": "supportsInterface",
      "outputs": [
        {
          "internalType": "bool",
          "name": "",
          "type": "bool"
        }
      ],
      "stateMutability": "view",
      "type": "function"
    },
    {
      "inputs": [
        {
          "internalType": "address",
          "name": "newOwner",
          "type": "address"
        }
      ],
      "name": "transferOwnership",
      "outputs": [],
      "stateMutability": "nonpayable",
      "type": "function"
    },
    {
      "inputs": [],
      "name": "unpause",
      "outputs": [],
      "stateMutability": "nonpayable",
      "type": "function"
    },
    {
      "inputs": [
        {
          "internalType": "address",
          "name": "newImplementation",
          "type": "address"
        }
      ],
      "name": "upgradeTo",
      "outputs": [],
      "stateMutability": "nonpayable",
      "type": "function"
    },
    {
      "inputs": [
        {
          "internalType": "address",
          "name": "newImplementation",
          "type": "address"
        },
        {
          "internalType": "bytes",
          "name": "data",
          "type": "bytes"
        }
      ],
      "name": "upgradeToAndCall",
      "outputs": [],
      "stateMutability": "payable",
      "type": "function"
    },
    {
      "stateMutability": "payable",
      "type": "receive"
    }
  ],
  "bytecode": "0x60a08060405234620000e157306080526000549060ff8260081c166200008f575060ff8082160362000053575b6040516144559081620000e782396080518181816124aa0152818161259b0152612a980152f35b60ff90811916176000557f7f26b83ff96e1f2b6a682f133852f6798a09c465da95921460cefb3847402498602060405160ff8152a1386200002c565b62461bcd60e51b815260206004820152602760248201527f496e697469616c697a61626c653a20636f6e747261637420697320696e697469604482015266616c697a696e6760c81b6064820152608490fd5b600080fdfe6080604052600436101561001b575b361561001957600080fd5b005b6000803560e01c80624c7591146133d35780625e8eef1461331f57806301ffc9a7146132c857806309b7d791146131fe5780631785f53c1461314d578063196c881e146131195780631fa5d2e7146130d9578063248a9ca3146130ac5780632b33cc8714612f185780632f2ff15d14612eb257806332495ce114612e1957806336568abe14612d7c5780633659cfe614612a7357806336d8261a1461140b57806338073f0c146116685780633f4ba83a1461293d5780634429c25f146128f85780634460bdd6146128cf5780634902e4aa1461286d5780634f1ef2861461255b57806352d1902d1461249757806356e3008b146123be578063572b6c051461238857806359b52ca4146123555780635c96a56114611efe5780635c975abb14611ed85780636050cafe14611e3f5780636b2c0f5514611d4e5780637048027514611c9c578063715018a614611c3f57806375b238fc14611c165780637d0517d014611b975780637faf251c14611b635780638262c31714611b4457806382dc1ec414611a4f5780638456cb591461190d57806384b0196e146116925780638898009d146116685780638da5cb5b1461163f57806391d14854146115f657806398c33904146115515780639ef42cbb14611522578063a217fddf14611506578063acb7176b146114dc578063b3292ff014611435578063bd826ed71461140b578063c50189b81461122f578063ce1b815f14611206578063d10a0da3146111c3578063d264a80314611120578063d547741f146110df578063da74222814611049578063e34381a114610c9c578063e511015814610bdb578063e56f2fe41461059a578063e63ab1e914610571578063f2fde38b146103e9578063f72c0d8b146103c0578063fa66358a146103545763fde278bc146102b9575061000e565b34610351576020366003190112610351576102d2613627565b6102da6142e3565b6000805160206143c0833981519152835260fb6020526040832060018060a01b0380921660005260205260ff604060002054168015610336575b61031d90614078565b6101fe91166001600160601b0360a01b82541617905580f35b5061031d8160335416826103486142e3565b16149050610314565b80fd5b50346103515760203660031901126103515760043581526101f960205260409020805460ff60a082901c16916001600160a01b03909116906103bc9061039c90600101613f5b565b6040519384938452151560208401526060604084015260608301906137ff565b0390f35b503461035157806003193601126103515760206040516000805160206143608339815191528152f35b50346103515760208060031936011261056d57610404613627565b61040c613c3a565b610414613c3a565b6001600160a01b039080821615610519578061043261043792613c9d565b613b38565b61043f6142e3565b91818061044a6142e3565b1693169283036104bd576000805260fb8152604060002083600052815260ff60406000205416610478578380f35b6000805260fb81526040600020908360005252604060002060ff1981541690556104a06142e3565b169060006000805160206143e08339815191528180a43880808380f35b6084906040519062461bcd60e51b82526004820152602f60248201527f416363657373436f6e74726f6c3a2063616e206f6e6c792072656e6f756e636560448201526e103937b632b9903337b91039b2b63360891b6064820152fd5b60405162461bcd60e51b815260048101849052602660248201527f4f776e61626c653a206e6577206f776e657220697320746865207a65726f206160448201526564647265737360d01b6064820152608490fd5b5080fd5b503461035157806003193601126103515760206040516000805160206143a08339815191528152f35b50346103515760c0366003190112610351576004356001600160401b03811161056d576105cb9036906004016137af565b906024356001600160401b038111610bd7576105eb9036906004016137af565b9092604435916001600160a01b03918284168403610bd257606435918383168303610bd257836084351660843503610bd25760a435958487168703610bd25788549060ff8260081c16159889809a610bc5575b8015610bae575b15610b52576106de6106e69261069d60ff8e6106f0978f600184198316178355610b41575b505460081c1661067981614001565b61068281614001565b6097805460ff60a01b1916905561069881614001565b614001565b6106ad6106a86142e3565b613c9d565b60ff8d5460081c16966106bf88614001565b6106c888614001565b6106d188614001565b600161012d5536916136da565b9336916136da565b9261069881614001565b8051906001600160401b038211610b2d57819061070f61016154613f21565b601f8111610ade575b50602090601f8311600114610a54578a92610a49575b50508160011b916000199060031b1c191617610161555b8051906001600160401b038211610a3557819061076461016254613f21565b601f81116109db575b50602090601f8311600114610951578992610946575b50508160011b916000199060031b1c191617610162555b8561015f5585610160556107b460ff875460081c16614001565b6107bc613c3a565b8160843516156108f2576107d1608435613c9d565b6107dc608435613b38565b600080516020614400833981519152600081815260fb6020527f339ab3ab2ddf8c30d545344e713975ca6ce592a0d5bc1375bb6cfaa6563006f180546000805160206143c08339815191529182905590927fbd79b86ffe0ab8e8776151514217cd7cacd52c909f66475c3af44e129f0b00ff9284929190849080a46000805160206143a0833981519152600081815260408120600101805490859055929080a46001600160601b0360a01b92826101f7911684825416179055816101f891168382541617905560286101fd556101fe9216908254161790556108bb5780f35b61ff001981541681557f7f26b83ff96e1f2b6a682f133852f6798a09c465da95921460cefb3847402498602060405160018152a180f35b60405162461bcd60e51b815260206004820152602660248201527f4f776e61626c653a206e6577206f776e657220697320746865207a65726f206160448201526564647265737360d01b6064820152608490fd5b015190503880610783565b925061016289527f29af0939a5988989bfee913a9ad10b9335cb63ebc9fd2b69e5f877d0455ac9199089935b601f19841685106109c0576001945083601f198116106109a7575b505050811b016101625561079a565b015160001960f88460031b161c19169055388080610998565b8181015183556020948501946001909301929091019061097d565b610a25906101628b527f29af0939a5988989bfee913a9ad10b9335cb63ebc9fd2b69e5f877d0455ac919601f850160051c81019160208610610a2b575b601f0160051c0190614061565b3861076d565b9091508190610a18565b634e487b7160e01b88526041600452602488fd5b01519050388061072e565b92506101618a527fafbb1c043347995df017ce3291b765e028ad5f784d2aa00c3f5e073760a4de8b908a935b601f1984168510610ac3576001945083601f19811610610aaa575b505050811b0161016155610745565b015160001960f88460031b161c19169055388080610a9b565b81810151835560209485019460019093019290910190610a80565b610b27906101618c527fafbb1c043347995df017ce3291b765e028ad5f784d2aa00c3f5e073760a4de8b601f850160051c81019160208610610a2b57601f0160051c0190614061565b38610718565b634e487b7160e01b89526041600452602489fd5b61ffff19166101011781553861066a565b60405162461bcd60e51b815260206004820152602e60248201527f496e697469616c697a61626c653a20636f6e747261637420697320616c72656160448201526d191e481a5b9a5d1a585b1a5e995960921b6064820152608490fd5b50303b1580156106455750600160ff841614610645565b50600160ff84161061063e565b600080fd5b8380fd5b503461035157602036600319011261035157610bf5613627565b610bfd613c3a565b6001600160a01b0390811660008181527f775ac87777436f29b0cd5453bf5db4da15d8938d0ef70de831d2edd17651cf676020526040902054600080516020614360833981519152929060ff1615610c53578380f35b8260005260fb6020526040600020826000526020526040600020600160ff19825416179055610c806142e3565b1691600080516020614340833981519152600080a43880808380f35b50346103515760209081600319360112610351576001600160401b0360043581811161104557610cd09036906004016137af565b610cdb92919261413e565b8201918481840312610bd757803590828211611041570191610100928381830312611041576040519384018481108482111761102d57604052610d1d8161363d565b8452858401958082013587526040850160408301358152606086019260608101358452608087019460808201358652610d5860a0830161363d565b60a0890152610d6960c0830161363d565b9160c0890192835260e08101359088821161102957610d89929101613759565b60e08801908152915188526101f9835260408820546001600160a01b039590861686610db36142e3565b1603610fd657514603610f74575184163003610f23578386511687526101fc97888352604088208451895283526040882081518952835260ff604089205416610eb85787988588999798511687528352604086208451875283526040862090518652825260408520600160ff19825416179055519280845116925196511692015191813b15610bd75783610e709660405197889586948593631885c2f960e01b8552600485015260248401526060604484015260648301906137ff565b03925af18015610ead57610e89575b82600161012d5580f35b8111610e99576040523880610e7f565b634e487b7160e01b82526041600452602482fd5b6040513d85823e3d90fd5b60405162461bcd60e51b815260048101849052603960248201527f52656365697665205573657273204e6f6e636520697320616c7265616479207360448201527f65656e20666f7220746869732073726320436861696e204964000000000000006064820152608490fd5b60405162461bcd60e51b815260048101839052602360248201527f44657374696e6174696e20476174657761792041646472657373204d69736d616044820152620e8c6d60eb1b6064820152608490fd5b60405162461bcd60e51b815260048101849052603460248201527f44657374696e6174696f6e20436861696e204964206973206e6f742073616d6560448201527308185cc818dd5c9c995b9d0818da185a5b881a5960621b6064820152608490fd5b60405162461bcd60e51b815260048101859052602560248201527f526f7574652041646472657373204d69736d617463682f496e76616c6964204360448201526430b63632b960d91b6064820152608490fd5b8a80fd5b634e487b7160e01b86526041600452602486fd5b8480fd5b8280fd5b503461035157602036600319011261035157611063613627565b61106b6142e3565b906000805160206143c0833981519152835260fb6020526040832060018060a01b03809316845260205260ff60408420541680156110c4575b6110ad90614078565b166001600160601b0360a01b609754161760975580f35b506110ad8260335416836110d66142e3565b161490506110a4565b50346103515760403660031901126103515761111d6004356110ff613611565b9080845260fb6020526111186001604086200154613824565b613bc0565b80f35b50346103515760203660031901126103515761113a613627565b611142613c3a565b60008051602061436083398151915280835260fb602090815260408085206001600160a01b0394851680875292528420549192909160ff16611182578380f35b82845260fb602052604084208285526020526040842060ff1981541690556111a86142e3565b16916000805160206143e08339815191528480a43880808380f35b5034610351576020366003190112610351576111f2600160406103bc9360043581526101f96020522001613f5b565b6040519182916020835260208301906137ff565b50346103515780600319360112610351576097546040516001600160a01b039091168152602090f35b503461035157600319906080368301126103515760043560243592604435906001600160401b038211610bd757604090826004019236030112611045578383526101f960209481865261128b60ff604087205460a01c166140fb565b6001600160a01b03928035848116908190036114075791611353611381979694926112b98a979515156140ba565b6112c546871415614195565b8588526101fa8088526112df8660408b20541615156141f3565b6112e76142e3565b96866112f16142e3565b168a526101fb895260408a20468b52895260408a20818b52895260408a20549189528660408b2054169187604051996113298b613651565b1689528989015284604089015246606089015260808801523060a088015260c08701523690613759565b60e085015285528352604084205416604051808096819463181285cb60e21b83526064359060048401614254565b03915afa9182156113fa5781926113cb575b506127106113a46101fd5484613ed1565b0482018092116113b75750604051908152f35b634e487b7160e01b81526011600452602490fd5b9091508281813d83116113f3575b6113e3818361369e565b8101031261056d57519038611393565b503d6113d9565b50604051903d90823e3d90fd5b8680fd5b50346103515780600319360112610351576101f7546040516001600160a01b039091168152602090f35b50346103515760203660031901126103515761144f613627565b611457613c3a565b6000805160206143c083398151915280835260fb602090815260408085206001600160a01b0394851680875292528420549192909160ff1615611498578380f35b82845260fb6020526040842082855260205260408420600160ff198254161790556114c16142e3565b16916000805160206143408339815191528480a43880808380f35b50346103515780600319360112610351576101fe546040516001600160a01b039091168152602090f35b5034610351578060031936011261035157602090604051908152f35b50346103515760203660031901126103515760206127106115486101fd54600435613ed1565b04604051908152f35b50346103515760403660031901126103515761156b613611565b6115736142e3565b6000805160206143c0833981519152835260fb602090815260408085206001600160a01b03938416865290915283205460ff1680156115db575b6115b690614078565b60043583526101fa6020526040832091166001600160601b0360a01b82541617905580f35b506115b68160335416826115ed6142e3565b161490506115ad565b50346103515760403660031901126103515760ff6040602092611617613611565b600435825260fb85528282206001600160a01b03909116825284522054604051911615158152f35b50346103515780600319360112610351576033546040516001600160a01b039091168152602090f35b50346103515780600319360112610351576101f8546040516001600160a01b039091168152602090f35b503461035157806003193601126103515761015f541580611902575b156118c55760405181610161828154946116c786613f21565b9283835260019687811690816000146118a35750600114611846575b506116f09250038361369e565b6040519080826101629182549261170684613f21565b8084529388811690811561182457506001146117c7575b5061172a9250038361369e565b60405190602090818301938385106001600160401b03861117610e99579282879361178388968860405285855261177560405198600f60f81b8a5260e0858b015260e08a01906137ff565b9088820360408a01526137ff565b924660608801523060808801528460a088015286840360c088015251928381520195925b8281106117b45785870386f35b83518752958101959281019284016117a7565b845250908290867f29af0939a5988989bfee913a9ad10b9335cb63ebc9fd2b69e5f877d0455ac9195b82841061180a5750505090602061172a928201013861171d565b6020929450805483858901015201910190918685936117f0565b90506020925061172a94915060ff191682840152151560051b8201013861171d565b845250908290857fafbb1c043347995df017ce3291b765e028ad5f784d2aa00c3f5e073760a4de8b5b828410611889575050509060206116f092820101386116e3565b60209294508054838589010152019101909185859361186f565b9050602092506116f094915060ff191682840152151560051b820101386116e3565b60405162461bcd60e51b81526020600482015260156024820152741152540dcc4c8e88155b9a5b9a5d1a585b1a5e9959605a1b6044820152606490fd5b5061016054156116ae565b50346103515780600319360112610351576119266142e3565b6000805160206143a0833981519152825260fb602090815260408084206001600160a01b039384168552825283205490919060ff168015611a19575b80156119fe575b61197290614078565b60975460ff8160a01c166119c65760ff60a01b1916600160a01b176097557f62e78cea01bee320cd4e420270b5ea74000d11b0c9f74754ebdbfc544b05a25891906119bb6142e3565b60405191168152a180f35b60405162461bcd60e51b815260048101849052601060248201526f14185d5cd8589b194e881c185d5cd95960821b6044820152606490fd5b50611972816033541682611a106142e3565b16149050611969565b50611a226142e3565b6000805160206143c0833981519152845260fb8352816040852091168452825260ff604084205416611962565b50346103515760208060031936011261056d57611a6a613627565b611a726142e3565b6000805160206143c0833981519152845260fb835260408085206001600160a01b039283168652845284205460ff168015611b29575b611ab190614078565b6000805160206143a08339815191529283855260fb81528160408620931692838652815260ff60408620541615611ae6578480f35b83855260fb815260408520908386525260408420600160ff19825416179055611b0d6142e3565b16916000805160206143408339815191528480a4388080808480f35b50611ab1816033541682611b3b6142e3565b16149050611aa8565b503461035157806003193601126103515760206101fd54604051908152f35b50346103515760203660031901126103515760209060043581526101fa8252604060018060a01b0391205416604051908152f35b503461035157602036600319011261035157611bf5611bb46142e3565b6000805160206143c0833981519152835260fb602090815260408085206001600160a01b03938416865290915283205460ff16908115611bff575b50614078565b6004356101fd5580f35b60335481169150611c0e6142e3565b161438611bef565b503461035157806003193601126103515760206040516000805160206144008339815191528152f35b5034610351578060031936011261035157611c58613c3a565b603380546001600160a01b0319811690915581906001600160a01b03167f8be0079c531659141344cd1fd0a4f28419497f9722a3daafe3b4186f6b6457e08280a380f35b50346103515760208060031936011261056d57611cb7613627565b611cbf6142e3565b6000805160206143c0833981519152845260fb835260408085206001600160a01b039283168652845284205460ff168015611d33575b611cfe90614078565b6000805160206144008339815191529283855260fb81528160408620931692838652815260ff60408620541615611ae6578480f35b50611cfe816033541682611d456142e3565b16149050611cf5565b50346103515760208060031936011261056d57611d69613627565b611d716142e3565b6000805160206143c0833981519152845260fb835260408085206001600160a01b039283168652845284205460ff168015611e24575b611db090614078565b6000805160206143a08339815191529283855260fb81528160408620931692838652815260ff604086205416611de4578480f35b83855260fb81526040852090838652526040842060ff198154169055611e086142e3565b16916000805160206143e08339815191528480a4388080808480f35b50611db0816033541682611e366142e3565b16149050611da7565b503461035157602036600319011261035157611e59613627565b611e616142e3565b6000805160206143c0833981519152835260fb602090815260408085206001600160a01b03938416865290915283205460ff168015611ebd575b611ea490614078565b6101f791166001600160601b0360a01b82541617905580f35b50611ea4816033541682611ecf6142e3565b16149050611e9b565b5034610351578060031936011261035157602060ff60975460a01c166040519015158152f35b5060a0366003190112610351576044356001600160401b03811161056d57611f2a903690600401613759565b6084356001600160401b03811161104557611f499036906004016137af565b5050611f5361413e565b60243582526101f9602052611f7160ff604084205460a01c166140fb565b8051611f87906001600160a01b031615156140ba565b611f95466004351415614195565b60043582526101fa6020526040822054611fb9906001600160a01b031615156141f3565b341561230157612710611fcf6101fd5434613ed1565b048034106122a857348134031161229457611fe86142e3565b6101fe80546001600160a01b031680156122435785808086819482821561223a575bf11561222f5760018060a01b039054166040519160018060a01b0316825282602083015260408201526064356060820152602435907f054aafb6abefe1f281ccb11a7597dc7e2f13418168020924f176af9492821cac608060043592a361206f6142e3565b916001600160a01b036120806142e3565b1684526101fb6020526040842046855260205260408420600435855260205260408420546101fa60205260018060a01b0360408620541690604051946120c586613651565b60018060a01b031685526020850152602435604085015246606085015260043560808501523060a085015260c084015260e083015260018060a01b036121096142e3565b1683526101fb60205260408320468452602052604083206004358452602052604083208054906001820180921161221b575560243583526101f96020526040808420549051630db17b6960e21b81529284928492909183916001600160a01b031690829061217e906064359060048401614254565b03923403905af180156122105761219a575b50600161012d5580f35b3d8083833e6121a9818361369e565b810190602081830312611045578051906001600160401b038211610bd7570181601f82011215611045578051906121df826136bf565b926121ed604051948561369e565b82845260208383010111610bd75760208061220a940191016137dc565b38612190565b6040513d84823e3d90fd5b634e487b7160e01b85526011600452602485fd5b6040513d86823e3d90fd5b506108fc61200a565b60405162461bcd60e51b8152602060048201526024808201527f43726f737353796e634665652041646472657373204973205a65726f204164646044820152637265737360e01b6064820152608490fd5b634e487b7160e01b83526011600452602483fd5b60405162461bcd60e51b815260206004820152602b60248201527f52656c61796572286d73672e76616c75652920466565206973206c657373207460448201526a68616e2073796e6346656560a81b6064820152608490fd5b60405162461bcd60e51b815260206004820152602660248201527f52656c61796572286d73672e76616c756529204665652063616e206e6f74206260448201526565207a65726f60d01b6064820152608490fd5b50346103515760203660031901126103515760ff604060209260043581526101f98452205460a01c166040519015158152f35b50346103515760203660031901126103515760206123a4613627565b6097546040516001600160a01b0392831691909216148152f35b503461035157806020806003193601126124945760043561241c6123e06142e3565b6000805160206143c0833981519152855260fb845260408086206001600160a01b039283168752855285205460ff16908115611bff5750614078565b8083526101f99081835261243960ff604086205460a01c166140fb565b8352815260016040832083815501906124528254613f21565b908161245d57505050f35b81601f859311600114612471575050505580f35b83835281832061248c91601f0160051c810190600101614061565b812091555580f35b50fd5b50346103515780600319360112610351577f00000000000000000000000000000000000000000000000000000000000000006001600160a01b031630036124f05760206040516000805160206143808339815191528152f35b60405162461bcd60e51b815260206004820152603860248201527f555550535570677261646561626c653a206d757374206e6f742062652063616c60448201527f6c6564207468726f7567682064656c656761746563616c6c00000000000000006064820152608490fd5b50604036600319011261035157612570613627565b6024356001600160401b0381116110455761258f903690600401613711565b6001600160a01b0391907f000000000000000000000000000000000000000000000000000000000000000083166125c830821415613ce6565b6125e5600080516020614380833981519152918583541614613d47565b6125ed6142e3565b93600080516020614360833981519152865260209460fb8652816040882091168752855260ff6040872054168015612852575b61262990614078565b7f4910fdfa16fed3260ed0e7147f7cc6da11a60208b5b9406d12a635614ffd91435460ff16156126605750505061111d9150613da8565b8316906040516352d1902d60e01b81528581600481865afa87918161281f575b506126e15760405162461bcd60e51b815260048101879052602e60248201527f45524331393637557067726164653a206e657720696d706c656d656e7461746960448201526d6f6e206973206e6f74205555505360901b6064820152608490fd5b94929394036127c8576126f384613da8565b7fbc7cd75a20ee27fd9adebab32041f755214dbc6bffa90cc0225b39da2e5c2d3b8580a28151158015906127c0575b61272d575b50505080f35b6127ae9284806040519461274086613683565b602786527f416464726573733a206c6f772d6c6576656c2064656c65676174652063616c6c85870152660819985a5b195960ca1b60408701528481519101845af4903d156127b7573d612792816136bf565b906127a0604051928361369e565b81528681943d92013e613e38565b50388080612727565b60609250613e38565b506001612722565b60405162461bcd60e51b815260048101839052602960248201527f45524331393637557067726164653a20756e737570706f727465642070726f786044820152681a58589b195555525160ba1b6064820152608490fd5b9091508681813d831161284b575b612837818361369e565b8101031261284757519038612680565b8780fd5b503d61282d565b506126298160335416826128646142e3565b16149050612620565b503461035157602036600319011261035157612887613627565b61288f613c3a565b6000805160206143c083398151915280835260fb602090815260408085206001600160a01b0394851680875292528420549192909160ff16611182578380f35b503461035157806003193601126103515760206040516000805160206143c08339815191528152f35b50346103515760ff604060209261290e3661372f565b6001600160a01b0390921683526101fc8652838320908352855282822090825284522054604051911615158152f35b50346103515780600319360112610351576129566142e3565b6000805160206143a0833981519152825260fb602090815260408084206001600160a01b039384168552825283205490919060ff168015612a3d575b8015612a22575b6129a290614078565b60975460ff8160a01c16156129e65760ff60a01b19166097557f5db9ee0a495bf2e6ff9c91a7834c1ba4fdd244a5e8aa4e537bd38aeae4b073aa91906119bb6142e3565b60405162461bcd60e51b815260048101849052601460248201527314185d5cd8589b194e881b9bdd081c185d5cd95960621b6044820152606490fd5b506129a2816033541682612a346142e3565b16149050612999565b50612a466142e3565b6000805160206143c0833981519152845260fb8352816040852091168452825260ff604084205416612992565b50346103515760208060031936011261056d57612a8e613627565b6001600160a01b037f00000000000000000000000000000000000000000000000000000000000000008116612ac530821415613ce6565b612ae2600080516020614380833981519152918383541614613d47565b612aea6142e3565b600080516020614360833981519152865260fb8552826040872091168652845260ff6040862054168015612d61575b612b2290614078565b60405190848201928284106001600160401b03851117612d4d578360405286835260ff7f4910fdfa16fed3260ed0e7147f7cc6da11a60208b5b9406d12a635614ffd91435416600014612b7d575050505061111d9150613da8565b8492939416906040516352d1902d60e01b81528681600481865afa889181612d1a575b50612c015760405162461bcd60e51b815260048101889052602e60248201527f45524331393637557067726164653a206e657720696d706c656d656e7461746960448201526d6f6e206973206e6f74205555505360901b6064820152608490fd5b9593949503612cc357612c1382613da8565b7fbc7cd75a20ee27fd9adebab32041f755214dbc6bffa90cc0225b39da2e5c2d3b8680a284835115801590612cbc575b612c50575b505050505080f35b80612cb19560405195612c6287613683565b602787527f416464726573733a206c6f772d6c6576656c2064656c65676174652063616c6c86880152660819985a5b195960ca1b60408801525190845af4903d156127b7573d612792816136bf565b503880808084612c48565b5080612c43565b60405162461bcd60e51b815260048101849052602960248201527f45524331393637557067726164653a20756e737570706f727465642070726f786044820152681a58589b195555525160ba1b6064820152608490fd5b9091508781813d8311612d46575b612d32818361369e565b81010312612d4257519038612ba0565b8880fd5b503d612d28565b634e487b7160e01b87526041600452602487fd5b50612b22826033541683612d736142e3565b16149050612b19565b503461035157604036600319011261035157612d96613611565b6001600160a01b0380612da76142e3565b1690821603612dbc5761111d90600435613bc0565b60405162461bcd60e51b815260206004820152602f60248201527f416363657373436f6e74726f6c3a2063616e206f6e6c792072656e6f756e636560448201526e103937b632b9903337b91039b2b63360891b6064820152608490fd5b503461035157602036600319011261035157612e33613627565b612e3b6142e3565b6000805160206143c0833981519152835260fb602090815260408085206001600160a01b03938416865290915283205460ff168015612e97575b612e7e90614078565b6101f891166001600160601b0360a01b82541617905580f35b50612e7e816033541682612ea96142e3565b16149050612e75565b503461035157604036600319011261035157600435612ecf613611565b81835260fb602052612ee76001604085200154613824565b81835260fb602090815260408085206001600160a01b03938416808752925284205490919060ff1615611498578380f35b5034610351576040366003190112610351576001600160401b03600435602435828111610bd757612f4d903690600401613711565b91612f566142e3565b6000805160206143c0833981519152855260fb602090815260408087206001600160a01b0393841688528252862054909391612f9c9160ff16908115611bff5750614078565b8085526101f990818452612fb960ff604088205460a01c166140fb565b8552825260019182604086200193805192831161102d57612fda8554613f21565b601f811161307e575b5081601f841160011461301d57509282939183928794613012575b50501b916000199060031b1c191617905580f35b015192503880612ffe565b919083601f1981168789528489209489905b88838310613064575050501061304b575b505050811b01905580f35b015160001960f88460031b161c19169055388080613040565b85870151885590960195948501948793509081019061302f565b6130a690868852838820601f860160051c810191858710610a2b57601f0160051c0190614061565b38612fe3565b50346103515760203660031901126103515760016040602092600435815260fb8452200154604051908152f35b50346103515760406020916130ed3661372f565b6001600160a01b0390921683526101fb8552838320908352845282822090825283522054604051908152f35b50346103515760203660031901126103515760209060043581526101f98252604060018060a01b0391205416604051908152f35b50346103515760208060031936011261056d57613168613627565b6131706142e3565b6000805160206143c0833981519152845260fb835260408085206001600160a01b039283168652845284205460ff1680156131e3575b6131af90614078565b6000805160206144008339815191529283855260fb81528160408620931692838652815260ff604086205416611de4578480f35b506131af8160335416826131f56142e3565b161490506131a6565b50346103515760403660031901126103515760043561321b613611565b6132236142e3565b906000805160206143c0833981519152845260fb6020526040842060018060a01b03809316855260205260ff60408520541680156132ad575b61326590614078565b16906132728215156140ba565b8083526101f9908160205261329060ff604086205460a01c166140fb565b83526020526040822080546001600160a01b031916909117905580f35b506132658260335416836132bf6142e3565b1614905061325c565b50346103515760203660031901126103515760043563ffffffff60e01b811680910361056d57602090637965db0b60e01b811490811561330e575b506040519015158152f35b6301ffc9a760e01b14905082613303565b50346103515760403660031901126103515760043560243580151581036110455761111d9161338f61334f6142e3565b6000805160206143c0833981519152865260fb602090815260408088206001600160a01b03938416895290915286205460ff16908115611bff5750614078565b8084526101f990816020526133ad60ff604087205460a01c166140fb565b845260205260408320805460ff60a01b191691151560a01b60ff60a01b16919091179055565b5034610351576060366003190112610351576004356133f0613611565b6001600160401b0360443581811161104157613410903690600401613711565b926134196142e3565b906000805160206143c0833981519152865260209160fb8352604087209460018060a01b0395868093168952845260ff60408920541680156135f6575b61345f90614078565b1661346b8115156140ba565b8187526101f99485845260ff604089205460a01c166135ba576040519160608301838110878211176135a65760409081529083526001858401818152848301998a52948a52968552882091518254935160ff60a01b90151560a01b166001600160a81b0319909416911660ff60a01b19161791909117815583019351805192831161102d576134fa8554613f21565b601f8111613578575b5081601f8411600114613531575092829391839287946130125750501b916000199060031b1c191617905580f35b919083601f1981168789528489209489905b8883831061355e575050501061304b57505050811b01905580f35b858701518855909601959485019487935090810190613543565b6135a090868852838820601f860160051c810191858710610a2b57601f0160051c0190614061565b38613503565b634e487b7160e01b8a52604160045260248afd5b60405162461bcd60e51b8152600481018590526014602482015273526f75746520416c72656164792045786973747360601b6044820152606490fd5b5061345f8260335416836136086142e3565b16149050613456565b602435906001600160a01b0382168203610bd257565b600435906001600160a01b0382168203610bd257565b35906001600160a01b0382168203610bd257565b61010081019081106001600160401b0382111761366d57604052565b634e487b7160e01b600052604160045260246000fd5b606081019081106001600160401b0382111761366d57604052565b90601f801991011681019081106001600160401b0382111761366d57604052565b6001600160401b03811161366d57601f01601f191660200190565b9291926136e6826136bf565b916136f4604051938461369e565b829481845281830111610bd2578281602093846000960137010152565b9080601f83011215610bd25781602061372c933591016136da565b90565b6060906003190112610bd2576004356001600160a01b0381168103610bd257906024359060443590565b919091604081840312610bd25760408051916001600160401b039183018281118482101761366d57604052829461378f8261363d565b84526020820135928311610bd2576020926137aa9201613711565b910152565b9181601f84011215610bd2578235916001600160401b038311610bd25760208381860195010111610bd257565b60005b8381106137ef5750506000910152565b81810151838201526020016137df565b90602091613818815180928185528580860191016137dc565b601f01601f1916010190565b61382c6142e3565b9060009080825260209160fb83526040938482209060018060a01b031690818352845260ff858320541615613862575050505050565b84519261386e84613683565b602a84528484019086368337845115613b245760308253845192600193841015613b10576078602187015360295b848111613aa65750613a6457865192608084018481106001600160401b0382111761102d57885260428452868401946060368737845115613a5057603086538451821015613a505790607860218601536041915b8183116139e2575050506139a05761399c938693613980936139716048946139489a519a8b957f416363657373436f6e74726f6c3a206163636f756e74200000000000000000008c88015251809260378801906137dc565b8401917001034b99036b4b9b9b4b733903937b6329607d1b6037840152518093868401906137dc565b0103602881018752018561369e565b5192839262461bcd60e51b8452600484015260248301906137ff565b0390fd5b60648587519062461bcd60e51b825280600483015260248201527f537472696e67733a20686578206c656e67746820696e73756666696369656e746044820152fd5b909192600f81166010811015613a3c576f181899199a1a9b1b9c1cb0b131b232b360811b901a613a128588613efa565b5360041c928015613a28576000190191906138f0565b634e487b7160e01b82526011600452602482fd5b634e487b7160e01b83526032600452602483fd5b634e487b7160e01b81526032600452602490fd5b60648688519062461bcd60e51b825280600483015260248201527f537472696e67733a20686578206c656e67746820696e73756666696369656e746044820152fd5b90600f81166010811015613afc576f181899199a1a9b1b9c1cb0b131b232b360811b901a613ad48389613efa565b5360041c908015613ae8576000190161389c565b634e487b7160e01b86526011600452602486fd5b634e487b7160e01b87526032600452602487fd5b634e487b7160e01b85526032600452602485fd5b634e487b7160e01b84526032600452602484fd5b6001600160a01b0390811660008181527fc88390e7e62175be0932452175b6a7222b6b094ab0ef984a5153c620345d8975602052604081205490929060ff1615613b8157505050565b82805260fb6020526040832082845260205260408320600160ff19825416179055613baa6142e3565b16916000805160206143408339815191528180a4565b600081815260fb602090815260408083206001600160a01b039586168085529252822054919390929160ff16613bf7575b50505050565b6000805160206143e08339815191529082855260fb602052604085208486526020526040852060ff198154169055613c2d6142e3565b169380a438808080613bf1565b6033546001600160a01b0390811690613c516142e3565b1603613c5957565b606460405162461bcd60e51b815260206004820152602060248201527f4f776e61626c653a2063616c6c6572206973206e6f7420746865206f776e65726044820152fd5b603380546001600160a01b039283166001600160a01b0319821681179092559091167f8be0079c531659141344cd1fd0a4f28419497f9722a3daafe3b4186f6b6457e0600080a3565b15613ced57565b60405162461bcd60e51b815260206004820152602c60248201527f46756e6374696f6e206d7573742062652063616c6c6564207468726f7567682060448201526b19195b1959d85d1958d85b1b60a21b6064820152608490fd5b15613d4e57565b60405162461bcd60e51b815260206004820152602c60248201527f46756e6374696f6e206d7573742062652063616c6c6564207468726f7567682060448201526b6163746976652070726f787960a01b6064820152608490fd5b803b15613ddd5760008051602061438083398151915280546001600160a01b0319166001600160a01b03909216919091179055565b60405162461bcd60e51b815260206004820152602d60248201527f455243313936373a206e657720696d706c656d656e746174696f6e206973206e60448201526c1bdd08184818dbdb9d1c9858dd609a1b6064820152608490fd5b91929015613e9a5750815115613e4c575090565b3b15613e555790565b60405162461bcd60e51b815260206004820152601d60248201527f416464726573733a2063616c6c20746f206e6f6e2d636f6e74726163740000006044820152606490fd5b825190915015613ead5750805190602001fd5b60405162461bcd60e51b81526020600482015290819061399c9060248301906137ff565b81810292918115918404141715613ee457565b634e487b7160e01b600052601160045260246000fd5b908151811015613f0b570160200190565b634e487b7160e01b600052603260045260246000fd5b90600182811c92168015613f51575b6020831014613f3b57565b634e487b7160e01b600052602260045260246000fd5b91607f1691613f30565b9060405191826000825492613f6f84613f21565b908184526001948581169081600014613fde5750600114613f9b575b5050613f999250038361369e565b565b9093915060005260209081600020936000915b818310613fc6575050613f9993508201013880613f8b565b85548884018501529485019487945091830191613fae565b915050613f9994506020925060ff191682840152151560051b8201013880613f8b565b1561400857565b60405162461bcd60e51b815260206004820152602b60248201527f496e697469616c697a61626c653a20636f6e7472616374206973206e6f74206960448201526a6e697469616c697a696e6760a81b6064820152608490fd5b81811061406c575050565b60008155600101614061565b1561407f57565b60405162461bcd60e51b8152602060048201526013602482015272556e617574686f72697a65642041636365737360681b6044820152606490fd5b156140c157565b60405162461bcd60e51b81526020600482015260126024820152711059191c995cdcc80c08141c9bdd9a59195960721b6044820152606490fd5b1561410257565b60405162461bcd60e51b8152602060048201526014602482015273149bdd5d1948111bd95cc8139bdd08115e1a5cdd60621b6044820152606490fd5b61012d60028154146141505760029055565b60405162461bcd60e51b815260206004820152601f60248201527f5265656e7472616e637947756172643a207265656e7472616e742063616c6c006044820152606490fd5b1561419c57565b60405162461bcd60e51b815260206004820152602960248201527f536f7572636520616e642044657374696e6174696f6e20436861696e20496473604482015268206172652073616d6560b81b6064820152608490fd5b156141fa57565b60405162461bcd60e51b815260206004820152602c60248201527f44657374696e6174696f6e20436861696e20476174657761792041646472657360448201526b1cc81a5cc81b9bdd081cd95d60a21b6064820152608490fd5b9291906142de602080926040875260018060a01b0380825116604089015282820151606089015260408201516080890152606082015160a0890152608082015160c08901528060a08301511660e089015260e08160c0840151169261010093848b0152015191610120890152815116610140880152015160406101608701526101808601906137ff565b930152565b6097546001600160a01b031633148080614334575b1561430a575036601319013560601c90565b6014361015908161432c575b50156143285736601319013560601c90565b3390565b905038614316565b5060143610156142f856fe2f8788117e7eff1d82e926ec794901d17c78024a50270940304540a733656f0d189ab7a9244df0848122154315af71fe140f3db0fe014031783b0946b8c9d2e3360894a13ba1a3210667c828492db98dca3e2076cc3735a920a3ca505d382bbc65d7a28e3265b37a6474929f336521b332c1681b933f6cb9f3376673440d862a7613a25ecc738585a232ad50a301178f12b3ba8887d13e138b523c4269c47689f6391f5c32d9c69d2a47ea670b442974b53935d1edc7fd64eb21e047a839171ba49807205ce4d355092ef5a8a18f56e8913cf4a201fbe287825b095693c21775a26469706673582212203d9dd18c2068b7b072583c8c4c9ebe6fe2b3f15e62c201bb0ba9a454c8f3fb5664736f6c63430008110033",
  "linkReferences": {},
  "deployedLinkReferences": {}
}